:100000000C940A070C94FC320C94D1320C94A63256
:100010000C947B320C9450320C9425320C94FA31AF
:100020000C94CF310C94E7330C943B070C943B07B2
:100030000C943B070C9427330C943B070C943B0720
:100040000C943B070C943B070C943B070C943B0728
:100050000C943B070C943B070C943B070C948531A4
:100060000C943B070C94B1330C9487330C943B07EE
:100070000C943B070C943B070C943B070C943B07F8
:100080000C943B070C943B070C943B070C943B07E8
:100090000C943B070C943B070C943B070C943B07D8
:1000A0000C943B070C943B070C943B070C943B07C8
:1000B0000C943B070C943B070C943B070C943B07B8
:1000C0000C943B070C943B070C943B070C943B07A8
:1000D0000C943B070C943B070C943B070C943B0798
:1000E0000C943B070C94E81C0C947C080C94841D25
:1000F0000C9467080C948E080C947F310C94581E55
:100100000C94181D0C94991D0C94311B0C94A3098C
:100110000C949C1D0C94A6080C94951D0C947A1DAF
:100120000C946F080C94021D0C94131D0C948A08F7
:100130000C94791E0C94F61E0C94C2090C94151D97
:100140000C9480080C94F61C0C94500E0C9494089B
:100150000C94761E0C9482310C94921E0C94651EA5
:100160000C94A2080C94A01D0C9498080C941C1DCF
:100170000C9473080C949C080C948B1E0C947608B9
:100180000C9499340C94491E0C948E0D0C94A20D71
:100190000C9461080C946B080C94751D0C947F0DE5
:1001A0000C94B00D0C94E80D0C947B310C94520D12
:1001B0000C94A1080C94651D0C948E1E0C9486085A
:1001C000546F6F44656570004E6F4D656D6F727949
:1001D00000496E76616C6964496E70757400496E91
:1001E000636F6D706C657465496E70757400456DF4
:1001F000707479496E707574004F6B00CDCCCC3D36
:100200000AD7233C17B7D13877CC2B329595E62403
:100210001FB14F0A000020410000C84200401C46A8
:1002200020BCBE4CCA1B0E5AAEC59D74227D007BFD
:10023000226C6576656C223A22303031222C2264A1
:100240006576696365223A22434F4E54524F4C4CB7
:100250004552222C2264657363223A225052207444
:1002600068726573686F6C64206361707065642088
:10027000617420007B226C6576656C223A223030F6
:1002800030222C22646576696365223A22534C4DF4
:10029000222C22706172616D223A2274696D65733D
:1002A00074616D705F70696E222C2276616C756569
:1002B000223A007B226C6576656C223A2230303718
:1002C000222C22646576696365223A22434F4E549C
:1002D000524F4C4C4552222C226576656E74223A60
:1002E00022454E44222C2274696D657374616D70D1
:1002F000223A004C48005248004C455645525F4C4B
:1003000048004C455645525F524800534C4D004DF5
:100310004943524F53434F5045004C49434B004CC7
:10032000415345520050554D50320050554D5000EC
:10033000435545320043554500222C2274726163B7
:10034000655F696E74657276616C223A002C226179
:1003500063746976655F6C65766572223A22007B0C
:10036000226C6576656C223A22303030222C226471
:100370006576696365223A22434F4E54524F4C4C86
:100380004552222C22706172616469676D223A22A3
:1003900046495845445F524154494F222C227469C2
:1003A0006D656F7574223A007B226C6576656C22F0
:1003B0003A22303037222C22646576696365223A0E
:1003C00022434F4E54524F4C4C4552222C226576BC
:1003D000656E74223A225354415254222C2274697D
:1003E0006D657374616D70223A307D007B226C659F
:1003F00076656C223A22303030222C226465766990
:100400006365223A224D4943524F53434F50452290
:100410002C22706172616D223A227472696767657D
:10042000725F70696E222C2276616C7565223A00CB
:1004300046495245440074657374004D4943524F18
:1004400053434F504500494E444550454E44454E58
:1004500054006D6F6465004C4153455200434F4E4C
:1004600054494E47454E54006D6F6465004C4153EE
:100470004552006475726174696F6E004C4153455A
:1004800052006672657175656E6379004C41534523
:10049000520046495245440074657374004C415300
:1004A00045520046495245440074657374005055E6
:1004B0004D5032006475726174696F6E0050554D15
:1004C00050320046495245440074657374005055DB
:1004D0004D50006475726174696F6E0050554D50D7
:1004E00000464952454400746573740043554532D3
:1004F000006475726174696F6E0043554532006621
:1005000072657175656E63790043554532004649E1
:100510005245440074657374004355450064757218
:100520006174696F6E00435545006672657175654B
:100530006E63790043554500F901EE01DE01D101FA
:10054000C801C0017B226C6576656C223A2230308E
:1005500036222C2264657363223A22436F6D6D61EB
:100560006E64206E6F7420666F756E64227D006C01
:10057000657665725F66696C74657200434F4E54B0
:10058000524F4C4C45520073657373696F6E5F70C8
:10059000617573656400434F4E54524F4C4C455245
:1005A00000746573745F6D6F646500434F4E545201
:1005B0004F4C4C4552004649524544007465737493
:1005C0005F636861696E00434F4E54524F4C4C4517
:1005D000520050554D500050554D503200616374DB
:1005E0006976655F70756D7000434F4E54524F4C85
:1005F0004C45520074726163655F696E7465727612
:10060000616C00434F4E54524F4C4C455200726146
:1006100074696F00434F4E54524F4C4C4552007218
:1006200065696E666F72636564004C455645525F3E
:100630004C48007265696E666F72636564004C4574
:100640005645525F4C4800726174696F004C4556C4
:1006500045525F4C480074696D656F7574004C4578
:100660005645525F4C48007265696E666F726365ED
:1006700064004C455645525F5248007265696E668B
:100680006F72636564004C455645525F5248007274
:100690006174696F004C455645525F524800746959
:1006A0006D656F7574004C455645525F5248002287
:1006B0007D007B226C6576656C223A2230303622D2
:1006C0002C2264657363223A220044495341524DFF
:1006D00045440041524D454400227D002C22646572
:1006E0007363223A2200222C2270696E223A007B28
:1006F000226C6576656C223A22303031222C2264DD
:100700006576696365223A2200222C22706172614B
:100710006D223A2270696E222C2276616C756522F8
:100720003A007B226C6576656C223A2230303022AA
:100730002C22646576696365223A2200222C227697
:10074000616C7565223A00222C22706172616D2203
:100750003A22007B226C6576656C223A223030307A
:10076000222C22646576696365223A220066616CF8
:100770007365007472756500222C2276616C756554
:10078000223A00222C22706172616D223A22007B93
:10079000226C6576656C223A22303030222C22643D
:1007A0006576696365223A2200227D00222C22763A
:1007B000616C7565223A2200222C22706172616D93
:1007C000223A22007B226C6576656C223A22303018
:1007D00030222C22646576696365223A22004449FE
:1007E0005341524D45440041524D454400227D0045
:1007F0002C2264657363223A22007B226C65766545
:100800006C223A22303031222C226465766963658D
:10081000223A224D4943524F53434F5045222C22F6
:1008200070696E223A0066616C736500747275655A
:10083000002C226475726174696F6E223A002C225A
:100840006672657175656E6379223A00222C2261A9
:10085000726D6564223A007B226C6576656C223A83
:1008600022303030222C22646576696365223A2278
:100870000066616C73650074727565002C22647586
:10088000726174696F6E223A00222C2261726D656A
:1008900064223A007B226C6576656C223A22303005
:1008A00030222C22646576696365223A22006661F3
:1008B0006C7365007472756500222C2261726D651F
:1008C00064223A007B226C6576656C223A223030D5
:1008D00030222C22646576696365223A22006661C3
:1008E0006C736500747275650066616C7365007485
:1008F000727565002C227265696E666F726365643D
:10090000223A00222C2261726D6564223A007B2219
:100910006C6576656C223A22303030222C22646578
:1009200076696365223A2200027B226C6576656CEB
:10093000223A22303030222C2264657669636522A7
:100940003A22434F4E54524F4C4C4552222C227364
:100950006B65746368223A2266722E696E6F222C70
:100960002276657273696F6E223A2276322E302EAD
:1009700030222C22626175645F72617465223A31A3
:1009800031353230302C227363686564756C6522B2
:100990003A2246495845445F524154494F227D000E
:1009A0002C22656E645F74696D657374616D70226D
:1009B0003A002C226576656E74223A224C49434BEC
:1009C000222C2273746172745F74696D6573746133
:1009D0006D70223A00222C2270696E223A007B222E
:1009E0006C6576656C223A22303037222C226465A1
:1009F00076696365223A22002C22656E645F746911
:100A00006D657374616D70223A002C226576656E97
:100A100074223A225354494D222C22737461727409
:100A20005F74696D657374616D70223A007B226C2E
:100A30006576656C223A22303037222C2264657646
:100A4000696365223A224C41534552222C22706937
:100A50006E223A002C226576656E74223A22544941
:100A60004D455354414D50222C2274696D65737469
:100A7000616D70223A007B226C6576656C223A22A9
:100A8000303038222C22646576696365223A224D23
:100A90004943524F53434F5045222C2270696E22D6
:100AA0003A002C226576656E74223A2254494D45EF
:100AB0005354414D50222C2274696D657374616DDD
:100AC00070223A007B226C6576656C223A223030C7
:100AD00039222C22646576696365223A22534C4D93
:100AE000222C2270696E223A000000210024002787
:100AF000002A002D0030003300010100000401072E
:100B0000010A0100002200250028002B002E0031E0
:100B100000340002010000050108010B0100002063
:100B2000002300260029002C002F003200000100C5
:100B30000003010601090105050505070508080868
:100B400008020202020A0A0808040404040101015E
:100B50000101010101030303030303030304070766
:100B6000070C0C0C0C0C0C0C0C0202020206060604
:100B700006060606060B0B0B0B0B0B0B0B010210EC
:100B800020200808102040102040800201020108A7
:100B90000402010102040810204080804020100857
:100BA00004020180040201804020100804020108B0
:100BB0000402010102040810204080010204081010
:100BC00020408000000A0B02090C0D0E08070304E8
:100BD0000100000000000000000000000000000014
:100BE00000000000000000000000000000000012F3
:100BF00011100000000000000000000000000000D4
:100C000000000000000000000044495341524D45DF
:100C1000440041524D454400227D002C22646573FE
:100C200063223A22007B226C6576656C223A223080
:100C30003031222C22646576696365223A22534C56
:100C40004D222C2270696E223A004C455645525F67
:100C50004C48004C455645525F524800227D002CBE
:100C6000226F7269656E746174696F6E223A220038
:100C70002C22656E645F74696D657374616D70229A
:100C80003A00222C2273746172745F74696D65730B
:100C900074616D70223A002C226576656E74223A7A
:100CA000225052455353222C22636C617373223AB3
:100CB0002200222C2270696E223A007B226C65761B
:100CC000656C223A22303037222C226465766963C3
:100CD00065223A220054494D454F555400494E4132
:100CE000435449564500414354495645002C22730C
:100CF00063686564756C65645F6174223A002C22D8
:100D0000746172676574223A007B226C6576656C4B
:100D1000223A22303036222C226572726F725F6363
:100D20006F6465223A22455F50454E44494E475F05
:100D300046554C4C222C2264657363223A2250653E
:100D40006E64696E6720616374696F6E207175658A
:100D500075652066756C6C20E2809420616374690F
:100D60006F6E2064726F70706564222C22616374F0
:100D7000696F6E5F74797065223A005354494D0073
:100D8000494E465553494F4E00494E465553494FDB
:100D90004E00544F4E4500544F4E45004C41534574
:100DA000520050554D505F320050554D505F31004C
:100DB0004355455F32004355455F31002C22656E37
:100DC000645F74696D657374616D70223A00222CE2
:100DD0002273746172745F74696D657374616D7090
:100DE000223A002C226576656E74223A2200222C6B
:100DF0002270696E223A007B226C6576656C223A1D
:100E000022303037222C22646576696365223A22CB
:100E10000000993411241FBECFEFD1E2DEBFCDBF59
:100E200000E00CBF13E0A0E0B2E0E0E9F3E800E08E
:100E30000BBF02C007900D92A235B107D9F727E08A
:100E4000A2E5B3E001C01D92A533B207E1F717E0B8
:100E5000CAE0D7E000E006C021970109802FFE011B
:100E60000E94933FC930D10780E00807A9F70E948C
:100E700024380C94C6410C940000CF93DF93EC010E
:100E800088819981DC01ED91FC910190F081E02D48
:100E900064E270E01995009741F02FE1FC01238393
:100EA00021E02283DF91CF91089521E02A83FACFB8
:100EB000CF92DF92EF92FF920F931F93CF935E2D0D
:100EC000EAE2F4E0128A138A71E0748B658B668B18
:100ED000178A108EC9E0C6A764E667A712AA64E065
:100EE0006093BA041092780463E060937904C0932D
:100EF0007A0410927B0410927C0410927D0410926C
:100F00007E04C090D106D090D206E090D306F09037
:100F1000D406C0927F04D0928004E0928104F092C3
:100F200082041092830450938404C0938504C00EFD
:100F3000D11EE21EF31EC0928604D0928704E09276
:100F40008804F0928904FC0181859285A385B4858B
:100F500080938A0490938B04A0938C04B0938D04A7
:100F600010928E0487E080938F04C0939004C09207
:100F70009104D0929204E0929304F09294048091B0
:100F80003F0690914006A0914106B09142068093A1
:100F9000950490939604A0939704B093980470934B
:100FA000990440939A04C0939B0410929C0410925D
:100FB0009D0410929E0410929F04809102069091CD
:100FC0000306A0910406B09105068093A0049093B7
:100FD000A104A093A204B093A304CF911F910F91F9
:100FE000FF90EF90DF90CF9008956093020670938A
:100FF000030680930406909305063091BA04E8E74F
:10100000F4E020E023130DC03091FD04EBEBF4E09D
:1010100020E02317B1F04081413071F02F5F3B9603
:10102000F8CF4081413019F02F5F3B96EBCF6783BB
:10103000708781879287F8CF6783708781879287CF
:10104000EDCF089590913C04992339F090915A0482
:1010500021E030E0992319F0089530E020E09EE18E
:10106000929FF001939FF00D1124E65DFB4F858B5D
:10107000178AF2CFEDE0F5E01082709686E0ED3051
:10108000F807D1F708958150823108F05AC0E82F4F
:10109000F0E08827E15BF74F8F4F0C94933F6F0888
:1010A0007308610867086B08A10876087C08800847
:1010B00086088A088E0894089808A1089C08A20847
:1010C000A608809180008F7780938000089580919A
:1010D00080008F7DF9CF80918000877FF5CF84B528
:1010E0008F7784BD089584B58F7DFBCF8091B0004C
:1010F0008F778093B00008958091B0008F7DF9CFF5
:10110000809190008F778093900008958091900057
:101110008F7DF9CF80919000877FF5CF8091A000DF
:101120008F778093A00008958091A0008F7DF9CFE4
:101130008091A000877FF5CF809120018F778093E9
:1011400020010895809120018F7DF9CF80912001A9
:10115000877FF5CFCF93DF93282F30E0F901ED5350
:10116000F44F8491F901E358F44FD491F901E95C0B
:10117000F44FC491CC23A1F081110E944308EC2FBD
:10118000F0E0EE0FFF1FE35EF44FA591B491EC91F8
:10119000ED2381E090E009F480E0DF91CF910895A4
:1011A00080E090E0FACF1F93CF93DF93282F30E0B9
:1011B000F901ED53F44F8491F901E358F44FD491C0
:1011C000F901E95CF44FC491CC23A9F0162F8111E9
:1011D0000E944308EC2FF0E0EE0FFF1FED5FF44F8D
:1011E000A591B4918FB7F894EC91111108C0D095E6
:1011F000DE23DC938FBFDF91CF911F910895DE2B0B
:10120000F8CFCF93DF9390E0FC01E358F44F2491A3
:10121000895C944FFC0184918823C9F090E0880F89
:10122000991FFC01E751F54FA591B491FC01ED5FC9
:10123000F44FC591D49161110DC09FB7F8948C9172
:10124000209582238C938881282328839FBFDF9158
:10125000CF910895623051F49FB7F8943C91822F5A
:10126000809583238C93E8812E2BEFCF8FB7F89452
:10127000EC912E2B2C938FBFEACF3FB7F89480913F
:10128000850390918603A0918703B091880326B5CA
:10129000A89B05C02F3F19F00196A11DB11D3FBFAE
:1012A000BA2FA92F982F8827BC01CD01620F711D7D
:1012B000811D911D42E0660F771F881F991F4A9577
:1012C000D1F708958F929F92AF92BF92CF92DF9203
:1012D000EF92FF920E943D094B015C0184E6C82E0B
:1012E000D12CE12CF12C0E943D09681979098A0959
:1012F0009B09683E734081059105A8F321E0C21A5D
:10130000D108E108F10888EE880E83E0981EA11C40
:10131000B11CC114D104E104F10429F7FF90EF904E
:10132000DF90CF90BF90AF909F908F9008952FB790
:10133000F89460918103709182038091830390916E
:1013400084032FBF08950F931F93CF93DF93C09112
:101350002804D0912904209781F081E08A830E949B
:101360009709088519852A853B85601B710B820BBF
:10137000930B6C837D838E839F83DF91CF911F912D
:101380000F91089508959091040289130DC0E8E229
:10139000F9E0E4919FEF90930402E230E1F038F439
:1013A000EE2381F0E13089F060E00C94D308E43062
:1013B00049F110F1E530C1F7909173009D7F909352
:1013C0007300F2CF10926E00EFCF90916F009D7F6F
:1013D00090936F00E9CF909170009D7F9093700083
:1013E00091E09093B0009091B100987F94609093B9
:1013F000B1001092B300D8CF909171009D7F90936F
:101400007100D2CF909172009D7F90937200CCCFEB
:101410004F925F926F927F928F929F92AF92BF9204
:10142000CF92DF92EF92FF920F931F93CF93DF93B0
:1014300000D01F921F92CDB7DEB78B0129013A0170
:10144000909104028917C9F09F3F09F491C00F9051
:101450000F900F900F900F90DF91CF911F910F91F0
:10146000FF90EF90DF90CF90BF90AF909F908F90C4
:101470007F906F905F904F900895E8E2F9E024919B
:101480002D8327FDE4CF61E00E9401092D812223F5
:1014900021F08D81823009F005C24801B12CA12CC8
:1014A00060E072E18AE790E0A50198010E94163E93
:1014B00029833A834B835C8369017A0191E0C91ADD
:1014C000D108E108F1082FEFC216D104E104F104BC
:1014D00009F00CF4B6C160E472E48FE090E0A5017D
:1014E00098010E94163E69017A0181E0C81AD1086C
:1014F000E108F1089D81923009F026C182E02FEFCA
:10150000C216D104E104F10409F00CF46CC160E9E5
:1015100070ED83E090E0A50198010E94163E6901FC
:101520007A0181E0C81AD108E108F10883E09FEF51
:10153000C916D104E104F10409F00CF454C168E4C3
:1015400078EE81E090E0A50198010E94163E6901C5
:101550007A0181E0C81AD108E108F1089FEFC916A5
:10156000D104E104F10411F00CF044C184E03BC16A
:1015700080930402E8E2F9E094919D839F3F09F48F
:1015800066CF923009F474C058F4992399F19130E0
:1015900009F44CC097FD5BCF61E00E94010979CF4F
:1015A0002D81243009F4AEC008F488C0253091F7AD
:1015B0001092200110922101909121019860909346
:1015C000210190912101916090932101282F30E019
:1015D000F901E95CF44FE491F0E0EE0FFF1FED5FDD
:1015E000F44F45915491F901E358F44FE491E0939D
:1015F000570349CF14BC15BC94B5926094BD95B502
:10160000916095BD282F30E0F901E95CF44FE49139
:10161000F0E0EE0FFF1FED5FF44F45915491F9019B
:10162000E358F44FE491E0935B032DCF10928000D8
:101630001092810090918100986090938100909128
:101640008100916090938100282F30E0F901E95CDE
:10165000F44FE491F0E0EE0FFF1FED5FF44F459182
:101660005491F901E358F44FE491E0935A030BCFFE
:101670001092B0001092B1009091B00092609093DF
:10168000B0009091B10091609093B100282F30E0AC
:10169000F901E95CF44FE491F0E0EE0FFF1FED5F1C
:1016A000F44F459154915093710340937003F901A5
:1016B000E358F44FE491E0937203E5CE109290006A
:1016C0001092910090919100986090939100909168
:1016D0009100916090939100282F30E0F901E95C2E
:1016E000F44FE491F0E0EE0FFF1FED5FF44F4591F2
:1016F0005491F901E358F44FE491E093590393E0D6
:101700009D83C1CE1092A0001092A1009091A100E3
:1017100098609093A1009091A10091609093A10096
:10172000282F30E0F901E95CF44FE491F0E0EE0F8E
:10173000FF1FED5FF44F45915491F901E358F44FC9
:10174000E491E09358039FCE2FEFC216D104E10439
:10175000F10409F00CF4A4C068E478EE81E090E0B4
:10176000A50198010E94163E69017A0181E0C81A1C
:10177000D108E108F1089D81992309F489C19FEFFF
:10178000C916D104E104F10409F00CF4EFCE62E1D2
:101790007AE780E090E0A50194010E94163E69017D
:1017A0007A0181E0C81AD108E108F1089D819923E6
:1017B00009F453C186E09FEFC916D104E104F10496
:1017C00091F088F0C980DA80EB80FC808AE0F594A3
:1017D000E794D794C7948A95D1F781E0C81AD108C5
:1017E000E108F10887E09091B100987F892B809300
:1017F000B1002FC064E274EF80E090E0A501940195
:101800000E94163E69017A0181E0C81AD108E108F8
:10181000F10885E09FEFC916D104E104F10419F342
:1018200010F362E17AE780E090E0A50194010E9464
:10183000163E69017A0181E0C81AD108E108F10871
:10184000B9CF81E02D812111CECF95B5987F892B1D
:1018500085BD2FEF3FEFA9014114510461047104CC
:1018600009F049C09D81923009F4E7C00CF0CEC068
:10187000992309F4D3C0913009F0E9CDD0928900C1
:10188000C0928800209368033093690340936A03F1
:1018900050936B0380916F00826080936F00D7CD6F
:1018A00082E0D0CFB12CA12C60E072E18AE790E019
:1018B000A50198010E94163E69017A0181E0C81ACB
:1018C000D108E108F108C114D10491E0E906F1045E
:1018D00004F591E02D81213069F580918100887FA8
:1018E000892B809381002FEF3FEFA9014114510410
:1018F0006104710419F2D801AA0FBB1FA301920160
:101900000E94353E28EE33E040E050E00E94483E21
:10191000A9CF68E478EE81E090E0A50198010E94EB
:10192000163E69017A0181E0C81AD108E108F10880
:1019300093E0D0CF8D81833001F580919100887F35
:10194000892B809391002FEF3FEFA901411451049F
:101950006104710481F6D0929900C092980020939E
:10196000640330936503409366035093670380914B
:1019700071008260809371006ACD2D81243009F559
:101980008091A100887F892B8093A1002FEF3FEFEA
:10199000A901411451046104710409F0ACCFD09243
:1019A000A900C092A8002093600330936103409384
:1019B000620350936303809172008260809372008F
:1019C00046CD8D81853009F044CF80912101887FFB
:1019D000892B809321012FEF3FEFA901411451047E
:1019E0006104710409F087CFD0922901C0922801C7
:1019F00020935C0330935D0340935E0350935F0339
:101A00008091730082608093730021CD8D8184303A
:101A100031F20CF4A0CF853039F319CDC7BC209337
:101A20006C0330936D0340936E0350936F0380916A
:101A30006E00826080936E000ACDC092B300209346
:101A4000730330937403409375035093760380912E
:101A50007000826080937000FACC84E02FEFC21691
:101A6000D104E104F10409F008F4EFCEC980DA8072
:101A7000EB80FC809AE0F594E794D794C7949A950C
:101A8000D1F791E0C91AD108E108F10885E0DDCE6F
:101A900083E02FEFC216D104E104F10411F00CF041
:101AA00076CED3CEAF92BF92CF92DF92EF92FF92DB
:101AB0000F931F93CF93DF936C017B018B01040F76
:101AC000151FEB015E01AE18BF08C017D10759F012
:101AD0006991D601ED91FC910190F081E02DC60154
:101AE0001995892B79F7C501DF91CF911F910F913E
:101AF000FF90EF90DF90CF90BF90AF900895FC01E2
:101B0000538D448D252F30E0842F90E0821B930B62
:101B1000541710F0CF96089501970895FC01918D08
:101B2000828D981761F0A28DAE0FBF2FB11D5D960B
:101B30008C91928D9F5F9F73928F90E008958FEFAD
:101B40009FEF0895FC01918D828D981731F0828D61
:101B5000E80FF11D858D90E008958FEF9FEF0895B8
:101B6000FC01918D228D892F90E0805C9F4F821B1C
:101B700091098F739927089589E893E00E94B00D29
:101B800021E0892B09F420E0822F0895FC01A48D27
:101B9000A80FB92FB11DA35ABF4F2C91848D90E08F
:101BA00001968F739927848FA689B7892C93A08972
:101BB000B1898C91837080648C93938D848D9813FC
:101BC00006C00288F389E02D80818F7D808308958F
:101BD000EF92FF920F931F93CF93DF93EC0181E07D
:101BE000888F9B8D8C8D98131AC0E889F989808124
:101BF00085FF15C09FB7F894EE89FF896083E88957
:101C0000F98980818370806480839FBF81E090E048
:101C1000DF91CF911F910F91FF90EF900895F62ED5
:101C20000B8D10E00F5F1F4F0F731127E02E8C8D6F
:101C30008E110CC00FB607FCFACFE889F9898081B4
:101C400085FFF5CFCE010E94C60DF1CFEB8DEC0FD5
:101C5000FD2FF11DE35AFF4FF0829FB7F8940B8FD1
:101C6000EA89FB8980818062CFCF0F931F93CF9346
:101C7000DF938C01D0E0C0E0F801EC0FFD1F649110
:101C8000662341F089E893E00E94E80D892B11F06A
:101C90002196F2CFCE01DF91CF911F910F91089540
:101CA000CF93DF93EC01888D8823B9F0AA89BB8993
:101CB000E889F9898C9185FD03C0808186FD0DC07E
:101CC0000FB607FCF7CF8C9185FFF2CF808185FF9F
:101CD000EDCFCE010E94C60DE9CFDF91CF910895DF
:101CE00080E090E0892B29F00E94BC0D81110E94B8
:101CF000000080E090E0892B49F080E090E0892BA3
:101D000029F00E94000081110E94000080E090E014
:101D1000892B49F080E090E0892B29F00E94000097
:101D200081110E94000080E090E0892B49F080E062
:101D300090E0892B29F00E94000081110C94000092
:101D40000895CF92DF92EF92FF921F93CF93DF938C
:101D5000EC016A017B018C810E94AA0811E0892BA9
:101D600009F410E08B85181721F0CD8ADE8AEF8AFE
:101D7000F88E8D899E89AF89B88DB701A601481B61
:101D8000590B6A0B7B0B898D90E0B0E0A0E08417C3
:101D90009507A607B70798F48C85181781F01C875C
:101DA0008A851817A9F0CA8EDB8EEC8EFD8EEAA10B
:101DB000FBA1309721F0B701A601898519951B87F2
:101DC000DF91CF911F91FF90EF90DF90CF9008951A
:101DD000CE8EDF8EE8A2F9A2ECA1FDA1309779F3B7
:101DE00089851995ECCFFC0115821386148615861A
:101DF00016861786108A118A128A138A148A158AFF
:101E0000168A138E8681882311F084818383089536
:101E1000CF92DF92EF92FF920F931F93CF93DF93B6
:101E2000EC018E81811103C08D89882369F18C8139
:101E30000D851E852F8538896A017B01C01AD10A5C
:101E4000E20AF30A9701860137FD18C009891A8949
:101E50002B893C89401B510B620B730B1416150622
:101E6000160617065CF061E0DF91CF911F910F918C
:101E7000FF90EF90DF90CF900C94D30860E00E9429
:101E8000D3088D8981111D8ADF91CF911F910F9108
:101E9000FF90EF90DF90CF900895CF93DF93EC0108
:101EA00061E088810E94D30881E08C870E949709B5
:101EB0006D877E878F87988BDF91CF910895CF9222
:101EC000DF92EF92FF92CF93DF93EC016A017B01E7
:101ED00069857A858B859C850E94F73C9B01AC01C6
:101EE00060E070E080E89FE30E94E63E20E030E0A2
:101EF00040E05FE30E94583D20E030E04AE754E4D0
:101F00000E94583DCD8EDE8EEF8EF8A220E030E0AC
:101F100040E05FE30E947A3E0E945F3FC60ED71EFC
:101F2000E81EF91EC9A2DAA2EBA2FCA28FA191E0E1
:101F300089278FA3DF91CF91FF90EF90DF90CF9013
:101F40000895CF92DF92EF92FF92CF93DF93EC014F
:101F50006A017B018D899E89AF89B88DAB0196019D
:101F6000281B390B4A0B5B0BDA01C901B7FD49C0CD
:101F7000898D9A8DAB8DBC8DAB019601281B390BD9
:101F80004A0B5B0BDA01C901181619061A061B0663
:101F9000C4F18EA18823A9F189859A85AB85BC857A
:101FA0000197A105B10551F461E08C81DF91CF91DA
:101FB000FF90EF90DF90CF900C94D30889A19AA165
:101FC000ABA1BCA1AB019601281B390B4A0B5B0BE3
:101FD000DA01C901B7FD04C0A601CE010E945F0F5E
:101FE0008C819FA1992311F061E0E0CF60E00E9415
:101FF000D3081FA2DF91CF91FF90EF90DF90CF9099
:10200000089560E08C810E94D3081FA2898D9A8D6B
:10201000AB8DBC8DC81AD90AEA0AFB0A8EA18823A7
:1020200031F01C141D041E041F040CF41EA288A50C
:10203000882301F31C141D041E041F04DCF618A6DB
:10204000D9CF8F929F92AF92BF92CF92DF92EF92B1
:10205000FF920F931F93CF93DF93EC018E81811139
:1020600004C088A1882309F445C07B0189899A8925
:10207000AB89BC894A015B01881A990AAA0ABB0A82
:10208000C501B40197FD53C00D891E892F89388D74
:102090004A015701801A910AA20AB30A95018401E4
:1020A00010161106120613060CF441C02A8D2223C5
:1020B000A9F10C8D1D8D2E8D3F8D200F311F211507
:1020C000310511F421E030E0FB8C50E040E00E944B
:1020D000483E60177107D8F4F1100AC069857A8507
:1020E00020E030E0A9018C810E94080A81E08B8FFA
:1020F00081E0898FDF91CF911F910F91FF90EF9039
:10210000DF90CF90BF90AF909F908F900895FF2069
:1021100079F38C810E94C3091B8EEACF69857A8589
:1021200020E030E0A9018C810E94080AE1CF898D6E
:10213000882301F38C810E94C309198E1B8E88A10C
:102140008823C1F218A2D6CF6F3FA9F0E62FE295FF
:10215000EF7044E0E49F90011124DC01ED91FC91CB
:10216000E20FF31F6F7082819381B6E06B9F800D49
:10217000911D1124089590E080E00895982F8033F8
:102180006CF08A3324F08F3524F08B3724F481E00F
:10219000089581341CF081E09B350CF080E00895B7
:1021A000FC01828581110AC0A781B085CD0101960D
:1021B000908787838C91818781E0828781850895CC
:1021C0001F93CF93DF93EC01162F0E94D010811341
:1021D00006C01A8681E0DF91CF911F91089580E0BB
:1021E000FACF0F931F93CF93DF938C01EB0189916B
:1021F000882369F0C8010E94D010882379F0FE017D
:102200003197908198130DC0F8011286F0CF90E0BD
:1022100080E0DF91CF911F910F91089582E090E0CF
:10222000F8CF83E090E0F5CFCF93DF93EC01CE01C0
:102230000E94D0108B304CF489305CF4882359F024
:1022400081E08E8390E080E00BC08D3011F0803211
:10225000B9F71A86ECCF8E81811105C081E090E03C
:10226000DF91CF91089582E090E0FACFDC015296A1
:102270009C915297915084E0989F90011124509620
:10228000ED91FC91E20FF31F22813381211531057D
:1022900079F041818081481758F481E0840F81836F
:1022A00086E0489F200D311D11242115310521F4B0
:1022B00060E070E08FEF0895B901892F8295807FEB
:1022C000840F0895DF92EF92FF920F931F93CF93A5
:1022D000DF93EC017B01D12C688979898A89D81632
:1022E000E0F484E0D89E80011124060F171FD80166
:1022F00012966D917C916115710541F0D701ED91B8
:10230000FC910280F381E02DC7011995F801138239
:10231000128210821182D394DFCF1A8A8FEF8C8BB6
:10232000C617D70761F0D701ED91FC910280F381C8
:10233000E02DC7011995D98BC88B84E08B8BDF9179
:10234000CF911F910F91FF90EF90DF900895EF9242
:102350000F931F93009177031091780320917903D5
:1023600030917A0341E080910002909101028B50FC
:10237000974009F440E0E090070260913F048091AB
:102380000502909106020E94580780915603882307
:1023900009F449C08091BA04833018F083E0809337
:1023A0008E0410925A0481E080935B0480935C0455
:1023B00080935D0480935E0410925F041092600429
:1023C0001092760494E6909377048093FD04109223
:1023D000BB0487E08093BC0489E08093BD048091B6
:1023E000430690914406A0914506B091460680931D
:1023F000BE049093BF04A093C004B093C104809125
:102400003F0690914006A0914106B091420680930C
:10241000C2049093C304A093C404B093C5041F9155
:102420000F91EF90089510925C04F9CF4F925F9254
:102430006F927F928F929F92AF92BF92CF92DF92D4
:10244000EF92FF920F931F93CF93DF9300D01F92D1
:102450001F92CDB7DEB7DC012C912B32E1F12D328A
:10246000D9F50196EE24E394FC01208130ED320F82
:102470003A3010F02E3291F58C0160E070E0CB0123
:10248000F801219130ED832E820E39E0381508F4E1
:1024900044C06A3949E97407840749E1940708F0A0
:1024A00046C0AAE0B0E09B01AC010E94353E912CF1
:1024B000B12CA12C24013501409450946094709467
:1024C000461657066806790690F1680D791D8A1D33
:1024D0009B1D8F01D5CF0196E12CC6CF1982298192
:1024E0003A814B815C816D8170E080E090E00F90DB
:1024F0000F900F900F900F90DF91CF911F910F9140
:10250000FF90EF90DF90CF90BF90AF909F908F9013
:102510007F906F905F904F900895211108C0EE203A
:1025200051F161307105810550E89507A0F0F12C5B
:10253000BAE08B2E912CA12CB12C6115710530E8DD
:1025400083079105F8F0A50194010E94483ECA0155
:10255000B901F394F2CF22E029839B01AC018827D3
:102560009927DC01821B930BA40BB50B8A839B83F9
:10257000AC83BD83B4CF23E029836A837B838C83C0
:102580009D83ADCFF801D8012D918D0130ED320F33
:102590003A3010F4F394F6CF2E3201F58F010F5F2D
:1025A0001F4FF8010F5F1F4F2081A0EDDA2ED20ED2
:1025B000B9E0BD1598F06C3CECEC7E07ECE08E07C2
:1025C000910578F7AAE0B0E09B01AC010E94353E8E
:1025D0006D0D711D811D911DFA94E3CF20812F7D1A
:1025E00010E000E0253409F050C021812D32B1F512
:1025F0003296CC24C394DF0110E000E02F2D0F2C85
:10260000000C330BEAE0BE2EFD01DD9040ED4D0DD8
:102610004A30B0F5B09EA001B19E500D11240D2D91
:10262000DD0C110B00531109040F151FA801420FF7
:10263000531F4732510544F3CC20B9F080E090E0BD
:10264000A0E0B0E8E11003C080E090E0DC0121E010
:1026500029838A839B83AC83BD8341CF2B3219F0BE
:102660003196C12CC8CF3296FCCF80E090E0A0E834
:10267000BFEFE110ECCF80E090E0A0E8BFE7E7CF4C
:10268000CC2019F01195019511092081211126CF37
:102690000F0D111DF7FC1A950E94F73C44E1A42E82
:1026A00042E0B42E101611063CF011950195110967
:1026B0005CEFA52E51E0B52ED12CC12C01151105D2
:1026C000E9F0F6E0CF16D104A9F000FF0DC0F60145
:1026D000EE0FFF1FEE0FFF1FEA0DFB1D2591359139
:1026E000459154910E94583D159507952FEFC21AB8
:1026F000D20AE4CF60E070E080EC9FE7E1109058F0
:1027000021E029836A837B838C839D83E8CECF92EB
:10271000DF92EF92FF920F931F93CF93DF937C0191
:102720006B018A01FC01C081D1814F3F510509F045
:10273000B0F4E881F9810480F581E02D4B5F5F4FB3
:10274000CE011995009759F0FC010383DF91CF91D9
:102750001F910F91FF90EF90DF90CF900895E88147
:10276000F9810280F381E02DB601CE01199581E057
:10277000F701828390E080E0E9CF1F93CF93DF934E
:10278000EC01162F6A817B816115710589F04C81FE
:102790005D81FB0183818417150651F4440F551F99
:1027A0004F5F5F4F888199810E9487139B838A8343
:1027B0008A819B81009759F02C813D81A9014F5F4F
:1027C0005F4F5D834C83820F931FFC011483DF9165
:1027D000CF911F9108959F92AF92BF92CF92DF92B7
:1027E000EF92FF920F931F93CF93DF9300D01F922E
:1027F0001F92CDB7DEB78C010E94D010D82EF80101
:102800001286F12CE12C60EFC62EC8010E94D01078
:10281000F8011286D81609F4B3C0811113C082E002
:1028200090E00F900F900F900F900F90DF91CF914D
:102830001F910F91FF90EF90DF90CF90BF90AF90DE
:102840009F9008958C3509F099C0C8010E94D0105E
:10285000882329F3E3EAF2E0853709F083C0F80121
:10286000128654E0952EB12CA12CC8010E94D010E4
:102870008823A9F2813434F48053803130F083E02E
:1028800090E0CFCF8F7D8753F8CF44E0AA0CBB1CDC
:102890004A95E1F7A82AF80112869A949110E5CF9B
:1028A000C501985D8115944020F47501F3E0FF2285
:1028B000ACCFC5019C5D81159440A8F483E0B8229B
:1028C000B701762F6627770F770F6A297B2990E06B
:1028D00080E00196603871058105910540F4C801DA
:1028E0000E94BD1392CFB50190E080E0F3CF198232
:1028F000262F2F7320682A8326E096958795779553
:1029000067952A95D1F76032710580F4606C6B830E
:102910005E01E4E0AE0EB11CF50162915F01662339
:1029200009F473CFC8010E94BD13F6CF262F2F7371
:1029300020682B8386E0769567958A95E1F760316C
:10294000710538F4606E6C835E01F5E0AF0EB11C6A
:10295000E3CF60686C83CD825E0126E0A20EB11CDD
:10296000DBCF32969081992309F489CF8913F9CF6F
:102970008181882309F483CFF8011286682FAFCFB5
:1029800082819381892B19F484E090E04ACF90E012
:1029900080E047CF6F927F928F929F92AF92BF92CB
:1029A000CF92DF92EF92FF920F931F93CF93DF931B
:1029B000EC012A813B812C5F3F4F4C815D8144308B
:1029C000510588F58901F90180E0942FB22FAE2FCF
:1029D000A21BA91730F4F190A1E0F110A0E08A2B1E
:1029E000F6CF811120C082E0EB018C83FB01802FA8
:1029F0008B1B891728F4E80189918E018193F7CF09
:102A0000640F751FFB011082DF91CF911F910F9111
:102A1000FF90EF90DF90CF90BF90AF909F908F90FE
:102A20007F906F9008958B01F901E40FF51F1082DC
:102A3000888199814C815D81DC011396ED91FC9137
:102A40003A01E89477F86901C60CD71C3097C1F0B9
:102A5000A381A615170481F449017F01B4E0EB0EB0
:102A6000F11C8C149D0429F1D401AD904D01D701C6
:102A7000BD907D01AB14A9F30190F081E02DE6CF6C
:102A80006A817B810E948713FC01A881B98113961A
:102A90008D919C911497918380831496FC93EE936F
:102AA00013971B821A8285E0E8018C83F983E883FF
:102AB000ABCF82818F5F8283F6CFDB01ED91FC91FA
:102AC00011970280F381E02DBC01CD011994AF92E2
:102AD000BF92CF92DF92EF92FF920F931F93CF930B
:102AE000DF93EC018B018C8180FF24C0A881B98128
:102AF000FB018381948130E020E00097D9F0A81792
:102B0000B907D1F5F8016081718112968C91129705
:102B1000815012968C93129781110CC08D919C91CB
:102B200011972115310529F1F90191838083CD0198
:102B30000E945D158C81807631F1209721F1F8801B
:102B40005801F5E1AF0EB11C8FEFF816D1F06F2DE3
:102B5000C5010E94A4106C01FC01E580B8010E942F
:102B60006715F801818DF6018083F801F18EFE2C46
:102B7000EBCF94838383DBCF9C01FC018081918127
:102B8000BCCFF882F9821C82DF91CF911F910F9107
:102B9000FF90EF90DF90CF90BF90AF9008950F938C
:102BA0001F93CF93DF93EC01088119818B819C8166
:102BB000009749F0FC01208131813C832B83B801CF
:102BC0000E945D15F3CF68817981CE010596DF9172
:102BD000CF911F910F910C946211FC010190002084
:102BE000E9F73197AF01481B590BBC0189E893E025
:102BF0000C94520D8F929F92AF92BF920F931F939E
:102C0000CF93DF93CDB7DEB7A1970FB6F894DEBFB1
:102C10000FBECDBF19A2423008F44AE08E010F5D0D
:102C20001F4F842E912CB12CA12CA50194010E9440
:102C3000483EE62FB901CA01EA30F4F4E05DD8015C
:102C4000EE938D01232B242B252B79F790E080E048
:102C5000109719F0CD010E94ED15A1960FB6F894CA
:102C6000DEBF0FBECDBFDF91CF911F910F91BF90FF
:102C7000AF909F908F900895E95CE1CF4AE00C946B
:102C8000FA15CF92DF92EF92FF92CF93DF936C0110
:102C9000990FEE08FF08F7FE19C06DE289E893E08E
:102CA0000E94E80DEC0166277727CB016C197D099E
:102CB0008E099F094AE00E94FA158C0F9D1FDF9133
:102CC000CF91FF90EF90DF90CF9008954AE0C70139
:102CD000B601DF91CF91FF90EF90DF90CF900C94F1
:102CE000FA15CF93DF930E94350EEC0186EB92E04C
:102CF0000E94ED158C0F9D1FDF91CF910895CF930A
:102D0000C82F8093120685E29CE00E94350E8091C8
:102D10001006082E000C990B0E9441168BE19CE0D6
:102D20000E94350E89E09CE0CC2311F082E19CE00A
:102D30000E94350E88E19CE0CF910C9471160F93A0
:102D40001F93CF938C01C62FFC0163838AEF97E01A
:102D50000E94350EF8018081082E000C990B0E940C
:102D6000411680EF97E00E94350E8EED97E0CC2360
:102D700011F087EE97E00E94350E8DEE97E0CF912F
:102D80001F910F910C947116EF92FF920F931F9366
:102D9000CF93DF937C018B01EA0184EC97E00E94E2
:102DA000350EC7010E94350E88EB97E00E94350E64
:102DB000C8010E94350E8CEA97E00E94350ECE01C4
:102DC0000E94350E89EA97E0DF91CF911F910F9114
:102DD000FF90EF900C947116CF93DF936DE789E825
:102DE00093E00E94E80DEC0186EB92E00E94ED1565
:102DF0008C0F9D1FDF91CF9108954F925F926F923C
:102E00007F928F929F92AF92BF92EF92FF920F9319
:102E10001F93CF93DF932A013B014801590185306D
:102E200009F480C008F061C0843009F46FC0E091FB
:102E30003004F09131041481C7E9DDE046EBE42E63
:102E40004DE0F42E87EF9DE00E94350EC7010E94F1
:102E5000350E8EEE9DE00E94350E812F110F990BDD
:102E60000E94411683EE9DE00E94350ECE010E9425
:102E7000350E8EEC9DE00E94350E8091FE059091FE
:102E8000FF05A0910006B0910106A3019201281B45
:102E9000390B4A0B5B0BCA01B9010E943E168CEB41
:102EA0009DE00E94350E8091FE059091FF05A09156
:102EB0000006B0910106A5019401281B390B4A0BAD
:102EC0005B0BCA01B9010E943E16DF91CF911F91A1
:102ED0000F91FF90EF90BF90AF909F908F907F9059
:102EE0006F905F904F900C94EC16863039F18730DC
:102EF00009F09DCFE0913804F09139041481CBE7BB
:102F0000DDE08CE9E82E8DE0F82E9CCFE0913204D4
:102F1000F09133041481C2E9DDE030EBE32E3DE0B3
:102F2000F32E90CFE0913404F09135041481C9E878
:102F3000DDE029EAE22E2DE0F22E84CFE091360486
:102F4000F09137041481C0E8DDE092EAE92E9DE0BB
:102F5000F92E78CFCF92DF92EF92FF920F931F93CB
:102F6000CF93DF93EC018881813009F4D1C06A01ED
:102F70007B01813090F08230D1F48CE394E00E94A8
:102F8000F30E8AE594E0DF91CF911F910F91FF90AE
:102F9000EF90DF90CF900C94F30E8981853009F487
:102FA0007DC070F48330F1F1843009F45AC0DF91B0
:102FB000CF911F910F91FF90EF90DF90CF900895E8
:102FC000863009F488C0873091F7E0913804F09199
:102FD0003904309761F38681882349F385A18111F3
:102FE000E6CF8F819885A985BA85C58AD68AE78A72
:102FF000F08E8C0D9D1DAE1DBF1D818F928FA38FF6
:10300000B48F81E086A3CF010E945F0F0F811885E6
:1030100029853A850C0D1D1D2E1D3F1DB701A601EA
:1030200087E01CC0E0913004F0913104309709F43E
:10303000BECF8681882309F4BACF0F8118852985F0
:103040003A85C18AD28AE38AF48A0C0D1D1D2E1D91
:103050003F1D058B168B278B308F83E00E94FD165A
:10306000A6CFE0913204F0913304309709F49FCF5A
:103070008681882309F49BCF0F81188529853A859D
:10308000C18AD28AE38AF48A0C0D1D1D2E1D3F1DB4
:10309000058B168B278B308F84E0E0CFE0913404D2
:1030A000F0913504309709F482CF8681882309F4A2
:1030B0007ECF0F81188529853A85C586D686E78615
:1030C000F08A0C0D1D1D2E1D3F1D018B128B238BB5
:1030D000348B85E0C3CFE0913604F091370430970C
:1030E00009F465CF8681882309F461CF0F811885A3
:1030F00029853A85C586D686E786F08A0C0D1D1D82
:103100002E1D3F1D018B128B238B348B86E0A6CFA7
:103110008981E0912A04F0912B04882339F08130D1
:1031200009F045CFE0912C04F0912D04309709F47B
:103130003ECFCF80D884E984FA844C0D5D1D6E1D8E
:103140007F1D418B528B638B748B31CF2F923F92BB
:103150004F925F926F927F928F929F92AF92BF92A7
:10316000CF92DF92EF92FF920F931F93CF93DF9353
:1031700000D01F92CDB7DEB72A013B0103E4809F48
:1031800090011124912C8901C90186549B4F9A8387
:1031900089834BE0842E19019EE4290E311CE981BC
:1031A000FA818081981608F0A0C0A92CB12CC80122
:1031B000899C800D911D1124865D9B4FFC01E25B73
:1031C000FF4F2081233039F1805B9F4FFC018081CC
:1031D000893021F090910F0689131DC08A9CF0015F
:1031E0008B9CF00D1124E00FF11FE558FB4FC080C0
:1031F000D180E280F380C114D104E104F10469F4C8
:10320000B301A201C101989C800D911D1124865D1E
:103210009B4F0E94AA179394C2CFC40CD51CE61CE6
:10322000F71CEDE0F5E090E080E02081211125C061
:1032300024E0880F991F2A95E1F7DC01A250BB4FCB
:103240008A9CF0018B9CF00D1124E00FF11FE858CF
:10325000FB4F282D01900D922A95E1F7865D9B4F3B
:10326000FC01E152FF4FC082D182E282F3828D5194
:103270009F4F21E0FC012083CECF019670968031D4
:10328000910599F689E09DE00E94350E8A9CC00167
:103290008B9C900D1124800F911F865D9B4F9C830A
:1032A0008B83FC01E25BFF4F608170E090E080E087
:1032B0004AE00E94FA158EEF9CE00E94350EEB81E9
:1032C000FC81E15BFF4F608170E090E080E04AE0CC
:1032D0000E94FA158DEE9CE00E94350EC701B601E2
:1032E0000E943E160E94EC1696CF0F900F900F9002
:1032F0000F90DF91CF911F910F91FF90EF90DF9092
:10330000CF90BF90AF909F908F907F906F905F9085
:103310004F903F902F9008950F931F93CF93DF937B
:103320008C01D62FC42F8EE099E00E94350EC80183
:103330000E94350E83E099E00E94350E89EE98E0F8
:10334000DD2311F08FEE98E00E94350E84EF98E0B7
:103350000E94350E8EED98E0CC2311F084EE98E0BB
:103360000E94350EDF91CF911F910F910C94EC16B6
:103370000F931F93CF938C01C62F84EC98E00E948B
:10338000350EC8010E94350E89EB98E00E94350E7B
:103390008EEA98E0CC2311F084EB98E00E94350E81
:1033A000CF911F910F910C94EC16CF92DF92EF9278
:1033B000FF920F931F93CF938C01C62F69017A015F
:1033C00084E998E00E94350EC8010E94350E89E814
:1033D00098E00E94350E81E798E0CC2311F087E752
:1033E00098E00E94350E8CE798E00E94350EC701E8
:1033F000B6010E943E16CF911F910F91FF90EF9062
:10340000DF90CF900C94EC167F928F929F92AF92A8
:10341000BF92CF92DF92EF92FF920F931F93CF93C1
:10342000DF93EC01762E49015A016701780187E5A7
:1034300098E00E94350ECE010E94350E8CE498E093
:103440000E94350E86E298E0772011F08CE298E039
:103450000E94350E8EE398E00E94350EC501B4013E
:103460000E943E1681E398E00E94350EC701B60126
:103470000E943E16DF91CF911F910F91FF90EF9028
:10348000DF90CF90BF90AF909F908F907F900C94E3
:10349000EC16EF92FF920F931F93CF937C018B0159
:1034A000C42F8FE897E00E94350EC7010E94350EA9
:1034B00083E897E00E94350EC8010E94350E88E728
:1034C00097E00E94350E8DE697E0CC2311F083E75C
:1034D00097E00E94350ECF911F910F91FF90EF90D2
:1034E0000C94EC16CF92DF92EF92FF920F931F9302
:1034F000CF93DF938C01EB0169017A0183E597E0BB
:103500000E94350EC8010E94350E87E497E00E94A4
:10351000350ECE010E94350E8CE397E00E94350EE9
:10352000C701B6010E943E16DF91CF911F910F9106
:10353000FF90EF90DF90CF900C94EC16009711F075
:103540000C94ED1590E080E00895EF92FF920F93B8
:103550001F93CF93DF93C0912A04D0912B0488232B
:1035600021F0C0912C04D0912D04209709F472C051
:10357000613009F469C008F464C0623009F467C0BE
:103580009AE4E92E9CE0F92E811104C083E5E82E2F
:103590008CE0F82E8BEB9CE00E94350EC7010E9458
:1035A000350E82EB9CE00E94350E6C8170E090E05D
:1035B00080E04AE00E94FA1587E99CE00E94350EFF
:1035C000C8010E94350E82E89CE00E94350E6A8D8B
:1035D0007B8D8C8D9D8D0091FE051091FF052091B6
:1035E000000630910106601B710B820B930B0E9449
:1035F0003E1680E79CE00E94350E6E8D7F8D88A17F
:1036000099A10091FE051091FF05209100063091CF
:103610000106601B710B820B930B0E943E168FE517
:103620009CE00E94350ECE010D960E949E1A8CE5FC
:103630009CE0DF91CF911F910F91FF90EF900C9440
:10364000711606EE1CE09CCF0DED1CE099CF05ED48
:103650001CE096CFDF91CF911F910F91FF90EF90DB
:10366000089590910606911104C090910706992340
:1036700071F09091080691110AC060910D0688239F
:1036800021F0813021F460910E060C94A51A089562
:10369000CF93DF93EC016E838FEE96E00E94350EA0
:1036A0008F8198850E949E1A86EE96E00E94350EC4
:1036B0008C81082E000C990B0E9441168CED96E02F
:1036C0000E94350E8E8181110AC08AEC96E00E941C
:1036D000350E89ED96E0DF91CF910C94711683ED54
:1036E00096E0F5CF60E080910C0290910D020E946F
:1036F000481B60E080910E0290910F020E94481BCF
:1037000060E080911002909111020E94481B60E0DD
:1037100080911202909113020E94481B60E08091F8
:103720001402909115020E94481B60E080911602DD
:10373000909117020E94481B60E0809118029091BE
:1037400019020E94481B80911A0290911B02009757
:1037500019F060E00E94481B60E080911C0290918B
:103760001D020C949F161F93CF93DF93EC01162F2D
:103770008E81882321F060E0CE010E94481B8D815C
:10378000813021F460E08C810E94D3081C836D811C
:10379000812F0E9401098D81813021F460E08C81AC
:1037A0000E94D30882E297E00E94350E8F819885AF
:1037B0000E949E1A89E097E00E94350E8C81082EA7
:1037C000000C990B0E944116DF91CF911F910C9430
:1037D000EC16CF93DF93EC010E94B31B8C810E9407
:1037E000AA0821E0892B09F420E02A878C810E9415
:1037F000AA0821E0892B09F420E02B878C810E9404
:10380000AA0821E0892B09F420E02C871D8A1E8A52
:103810001F8A188EDF91CF9108959F92AF92BF9229
:10382000CF92DF92EF92FF920F931F93CF93DF938C
:103830008A01452B09F468C0E9016B016596FC011A
:103840006081CE010E94A410FC01BB24BA94892B94
:1038500009F0B5807601E894F7F8AA24A3946701EB
:10386000C00ED11E99249394309709F44DC0AA201C
:1038700009F43FC08481843069F0853049F1823099
:1038800079F5DF010D900020E9F71197CD018E1B2E
:103890009F0B07C00190F081E02D90E080E0309711
:1038A00081F79F77E816F90621F5D801AC15BD051B
:1038B000E1F46B2DCE01DF91CF911F910F91FF901D
:1038C000EF90DF90CF90BF90AF909F900C94A4109A
:1038D000A081B181FD01349613968C9190E0E2CFE6
:1038E00090E080E0F0E0E0E0DDCF9D9181919817DD
:1038F000E9F2A9246B2DCE010E94A410FC01892BB2
:1039000009F4B2CFB580B0CF90E080E0DF91CF91E5
:103910001F910F91FF90EF90DF90CF90BF90AF90ED
:103920009F900895FC0120813181C9014A9642810E
:10393000538164817581009759F0D9015E96EC91AD
:10394000E03211F090E080E0009711F00C940D1C33
:1039500090E080E00895CF93DF93EB010E94921CEA
:10396000009741F0FC012481263021F48081DF9111
:10397000CF9108958881FBCFCF92DF92EF92FF9293
:10398000CF93DF9300D01F921F92CDB7DEB70E9476
:10399000921CDC01892B09F446C01496EC91149713
:1039A000E250ED3008F03FC0F0E08827E552F34EDA
:1039B0008F4F0C94933F021D131D151D181DE81CFD
:1039C000131D131D131DF61C131DF61C131D1C1DAA
:1039D000CC908C2D0F900F900F900F900F90DF9147
:1039E000CF91FF90EF90DF90CF900895CD90DD9034
:1039F000ED90FC908FEFC816D104E104F10449F377
:103A000040F311C0CD010E9416123A834B835C83B0
:103A10006D83CA80DB80EC80FD80223059F3233037
:103A200049F3213069F0C12CD4CF8D919C91EBCF1B
:103A30008D919C910496E7CFCD90DD90ED90FC9018
:103A400020E030E0A901C701B6010E948E3F87FD4A
:103A5000EACF20E030E04FE753E4C701B6010E940F
:103A6000F23C181604F3C701B6010E945F3FC62E50
:103A7000B0CFCF92DF92EF92FF92CF93DF9300D03F
:103A80001F921F92CDB7DEB70E94921CDC01892BDA
:103A900009F44BC01496EC911497E250ED3008F005
:103AA00044C0F0E08827E85AF24E8F4F0C94933FC1
:103AB000841D951D991D9C1D651D951D951D951DAC
:103AC000751D951D7A1D951DA01D6C9170E090E0EF
:103AD00080E00F900F900F900F900F90DF91CF919B
:103AE000FF90EF90DF90CF9008956D917D918D9133
:103AF0009C91EFCF8D919D910D90BC91A02DB7FD24
:103B000014C0BC01CD01E5CFCD010E9416123A834D
:103B10004B835C836D83CA80DB80EC80FD80223028
:103B200059F1233059F1213079F060E070E0CB0198
:103B3000D0CF8D919C91E9CF8D919C910496E5CF4A
:103B4000CD90DD90ED90FC9020E030E0A901C70120
:103B5000B6010E948E3F87FDE8CF2FEF3FEF4FE782
:103B60005FE4C701B6010E94F23C1816F4F2C701E7
:103B7000B6010E945F3FADCFF7FCD7CFC701B601BA
:103B8000A8CF8F929F92AF92BF92CF92DF92EF9287
:103B9000FF920F931F93CF93DF9300D000D0CDB748
:103BA000DEB749015A0167017801FB01019000204D
:103BB000E9F73197E61BF70B9A8389837C836B8344
:103BC000ED838F2F8F778E83CE0101960E94921CFA
:103BD0000097B9F0FC0124812A3041F02C3089F49F
:103BE00080819181A281B381B7FD0BC0CE01019686
:103BF0000E94391D86169706A806B90610F44B01D7
:103C00005C01C501B401C616D706E806F90610F432
:103C1000C701B60126960FB6F894DEBF0FBECDBF22
:103C2000DF91CF911F910F91FF90EF90DF90CF9098
:103C3000BF90AF909F908F900895CF92DF92EF92B8
:103C4000FF92CF93DF9300D01F921F92CDB7DEB7C4
:103C50000E94921CDC01892B09F448C01496EC9157
:103C60001497E250ED3008F041C0F0E08827E45CA2
:103C7000F14E8F4F0C94933F791E761E8B1E8E1E35
:103C8000491E761E761E761E581E761E651E761EF0
:103C9000921E6C9170E0CB010F900F900F900F90DF
:103CA0000F90DF91CF91FF90EF90DF90CF9008952C
:103CB0008D919D910D90BC91A02D811520E89207CA
:103CC000A105B10598F4BC01E6CF8D919D910D90B1
:103CD000BC91A02D6C017D0120E8D20EE11CF11CED
:103CE000C114D10421E0E206F10468F370E060E061
:103CF000D2CFCD010E9416123A834B835C836D8331
:103D0000CA80DB80EC80FD80223049F1233099F1BC
:103D1000213061F70BC08D919C91ECCF8D919C91DE
:103D20000496E8CFCD90DD90ED90FC9020E030E05F
:103D300040E057ECC701B6010E948E3F87FDD6CF09
:103D400020E03EEF4FEF56E4C701B6010E94F23C7F
:103D5000181664F2C701B6010E94583F9CCFD701E4
:103D6000C6019058AF4FBF4F0097A140B10508F072
:103D7000BDCFB60190CFC11480E8D806E104F104AC
:103D8000C0F3B4CF0F931F93CF93DF93EC018B015C
:103D90000E94921CFC01892B29F084818A3051F009
:103DA0008C30C1F0F80180819181DF91CF911F911A
:103DB0000F91089580819181A281B38181159048EE
:103DC000A105B10578F7CE01DF91CF911F910F9139
:103DD0000C941D1E80819181A281B3819058AF4FB8
:103DE000BF4F0097A140B105E8F6EDCF4F925F922B
:103DF0006F927F92AF92BF92CF92DF92EF92FF923B
:103E00000F931F93CF93DF9390910606911105C0F6
:103E100090910706992309F4EAC090910806911140
:103E2000E6C0823008F0E3C080930F0681110AC01B
:103E3000E0912A04F0912B04309759F481E08093AB
:103E40000D06D5C0E0912C04F0912D04309709F4B3
:103E500087C09089992309F480C001891289238938
:103E60003489041715072607370708F482C088230A
:103E700009F4CCC082E080930E06B9C08F898F5FB1
:103E80008F8B9D89891708F4ADC08FA5843658F4AF
:103E90000E949A3CA30192010E94163E8FA56817CA
:103EA00010F01F8A9FC01F8A888D882351F09D893A
:103EB0009501281B31099217130609F05CF4890F4C
:103EC0008D8B8B89823008F08DC0B701A6010E94CE
:103ED000A61888C08FE292E00E94350E6D8970E0CE
:103EE00090E080E04AE00E94FA158CE292E00E94A5
:103EF0007116E7CFCD8EDE8EEF8EF8A273C08DA542
:103F0000811170C089A19AA1ABA1BCA1A7019601A2
:103F1000281B390B4A0B5B0BDA01C901B7FD62C0E4
:103F20008DA19EA1AFA1B8A58C199D09AE09BF09AD
:103F3000181619061A061B060CF054C08FA58436F5
:103F400010F00DA7BECF0E949A3CA30192010E94DF
:103F5000163E8FA56817A8F345C0882309F46ECFD5
:103F600081E089CF10920D06E0912A04F0912B0494
:103F700008C08823B9F310920E06E0912C04F0914A
:103F80002D04309781F000910206109103062091D4
:103F9000040630910506040F151F261F371F018BDD
:103FA000128B238B348B6A017B01182FCAE2D4E079
:103FB000AA24AA94B12C94E6492E512C612C712C80
:103FC00001E08C89882371F08EA5893011F01813D7
:103FD00009C08A89813009F48DCF08F44FCF82302F
:103FE00009F48DCF6E9634E0C636D30751F7DF91D2
:103FF000CF911F910F91FF90EF90DF90CF90BF90E6
:10400000AF907F906F905F904F90089582E017CFB0
:10401000BF92CF92DF92EF92FF920F931F93CF93B5
:10402000DF93EC01198D1F3F81F0612F45960E94AF
:10403000A410FC018081898F309709F477C0148225
:104040008FEF8583BF01812F76C06C0135E0C30EF1
:10405000D11CE880F9808F89882341F0C6010E9435
:104060003611E62FF72F182F309749F71F89988DB3
:10407000191324C0103109F459C0110F6D897E89BC
:10408000D701ED91FC91B4E01B9FA0011124C6164D
:10409000D70609F044C00190F081E02DBA01C701B4
:1040A0001995009709F442C020E1F601DC01019066
:1040B0000D922A95E1F79E8B8D8B188F0D891E89A5
:1040C0008F8921E0280F2F8BE4E08E9FC0011124FF
:1040D000080F191F90E1B92E203111F48FE0B82E8E
:1040E000F6E0BF9EB0011124D701ED91FC91019043
:1040F000F081E02DC7011995F80193838283892B04
:1041000009F4B12CD801BC9211961C92012B71F0CC
:10411000C6010E943611E62FF72F182F8DCF04808D
:10412000F581E02DC7011995009729F681E08A8372
:1041300060E070E08FEFDF91CF911F910F91FF90C2
:10414000EF90DF90CF90BF9008954F925F926F9263
:104150007F928F929F92AF92BF92CF92DF92EF9217
:10416000FF920F931F93CF93DF9300D01F921F9264
:10417000CDB7DEB78C017B01B42E0E9414116C0107
:10418000892B09F048C0C8010E94D010863609F476
:10419000A9C124F5873229F08B3561F1823209F00B
:1041A000A8C1D80115961C921E92149712968D9153
:1041B0009C911397892B39F48D919C910E943D0716
:1041C000F80193838283C8010E94EB136C01892B51
:1041D00011F5B701C8010E94CA141DC0843709F443
:1041E00060C18B3709F47BC08E3609F082C161ED66
:1041F00072E060C180E4D70114968C931497E114A7
:10420000F10421F08FEF8C9311968C93B1101AC0AA
:1042100025E0C22ED12CC6010F900F900F900F9069
:104220000F90DF91CF911F910F91FF90EF90DF9052
:10423000CF90BF90AF909F908F907F906F905F9046
:104240004F900895F8011286C8010E94141100973A
:1042500051F56DE5C8010E94E0108111DCCFBA94E0
:10426000D8011B966D907C90C3010E940820A82E57
:104270004B01672B21F494E0C92ED12CCCCFF70150
:1042800061816F3F91F0C30145960E94A410DC014B
:104290001596AC92F701A1824B2DB401C8010E9482
:1042A000A520009739F06C01B6CFD7018C931196F9
:1042B0008C93F2CFC8010E9414110097A1F76DE50D
:1042C000C8010E94E0108111A6CF6CE2C8010E94D3
:1042D000E0108111C5CF83E0C82ED12C9CCF80E2A5
:1042E000F7018483E114F10419F08FEF8083818357
:1042F000BB2009F48DCFD8011A961C92C8010E94E8
:104300001411009781F66DE7C8010E94E010811139
:1043100082CFBA94F8011582148282819381892B0D
:1043200049F4808191810E943D07D80113969C93A6
:104330008E931297C8010E94D0108732F9F0823212
:10434000E9F0C8010E94D010D82E0E94BE10882328
:1043500011F2F80112866D2DC8010E94BD13C8012B
:104360000E94D010D82E0E94BE108111F2CFD80129
:1043700012968D919C91892B41F47DCFC8010E94AA
:10438000EB136C01892B09F046CFC8010E94141170
:104390006C01892B09F03FCF6AE3C8010E94E0104D
:1043A000882309F498CFD8011296ED91FC911397C8
:1043B00014968D919C911597E80FF91F148214960D
:1043C0006D917C9115977F771B966D907C901C97D3
:1043D00012968D919C910496272F2F77BA2DB07845
:1043E000AB2EA22AE894A7F89301AC017A2DC7015D
:1043F0000E940D1C6C01009761F5C3010E9408200A
:10440000482E4B01672B09F436CFC3010E940820C8
:10441000582E962FC92ED72EC114D10409F42BCFB4
:10442000F4015582D70111966C916F3F71F0C30171
:1044300045960E94A410FC014582D70111965C921A
:10444000B401C8010E94CA1407C0F701408251821A
:10445000F7CFB3010E9467154B2DB601C8010E942A
:10446000A5206C01892B09F0D6CEC8010E94141139
:104470006C01892B09F0CFCE6DE7C8010E94E010D6
:104480008111C9CE6CE2C8010E94E010882309F4B2
:1044900022CFC8010E9414116C01892B09F43ACF74
:1044A000BACE86E0D70114968C93149781E08C9352
:1044B00066EC72E0C8010F900F900F900F900F9074
:1044C000DF91CF911F910F91FF90EF90DF90CF90F0
:1044D000BF90AF909F908F907F906F905F904F9024
:1044E0000C94F11086E0F701848310826BEC72E08B
:1044F000E1CFC8010E94D0104801FDE08F0E911C51
:10450000B12C782CA92C803384F08A3384F43FE3D7
:10451000B316A9F0D8011A961C92B394F4018193B2
:104520004F01C8010E94D010EECF8B3281F393ED82
:10453000980F923060F3982F9F7D953441F30B0DC7
:10454000111DD8011D961C92872D9A2D0E941612BE
:104550003A834B835C836D838A819B81AC81BD816F
:104560002230A9F0233059F0213009F0B4CE2EE0EA
:10457000F701248380839183A283B3834CCE2AE006
:10458000F701248380839183A283B38344CE2CE0FC
:10459000F7CF4F925F926F927F928F929F92AF92DE
:1045A000BF92CF92DF92EF92FF920F931F93CF9320
:1045B000DF93CDB7DEB7CF5FD1090FB6F894DEBF7A
:1045C0000FBECDBF6E012EECC20ED11C82E092E078
:1045D000F60191838083128214821382C6010596AC
:1045E000968B858B178A84E0808F8FEF818F168E54
:1045F000878F9E012F5F3F4F790110E000E00E94FE
:10460000970960939103709392038093930390931F
:10461000940389E893E00E948E0D97FD02C00C94EC
:104620006A310E9497098090910390909203A09024
:104630009303B0909403681979098A099B098090C3
:104640008D0390908E03A0908F03B0909003681517
:1046500079058A059B05E8F20F37110561F489E8B1
:1046600093E00E94B00D892B31F089E893E00E941D
:104670008E0D0A97A1F7E1E0F0E0EC0FFD1FE00FCF
:10468000F11F10820530110578F045E050E066ED2D
:1046900072E0CE0101960E94A141892B29F489E2A2
:1046A00099E00E94711674C6F60160817181C6019D
:1046B00005960E946211F601128200811181F601B5
:1046C00083819481009751F0FC0120813181F601B2
:1046D00034832383B8010E945D15F1CF168ECF5726
:1046E000DF4FD982C882C158D040CD57DF4F1982E1
:1046F0001882C358D040CB57DF4F19821882C55853
:10470000D040C957DF4F1882C758D04021E030E071
:104710002C0F3D1FC857DF4F39832883C858D0401E
:10472000C557DF4F1882CB58D040C457DF4FD982CE
:10473000C882CC58D0404AE0B601665E7F4FCE01B9
:104740008F579F4F0E94A5208C01892B69F4C65773
:10475000DF4F8881CA58D040882331F0F601868D1A
:1047600083FF02C003E010E0CD57DF4F88819981BD
:10477000C358D040009751F0CF57DF4FE881F981FF
:10478000C158D040608171810E945D1501151105ED
:10479000F1F082EB96E00E94350EF801EE0FFF1F5C
:1047A000E85CFA4F859194910E94350E8FEA96E06D
:1047B0000E94711689E893E00E94B00D1816190640
:1047C0000CF0E6C589E893E00E948E0DF3CFCF5739
:1047D000DF4FD982C882C158D0408CED92E0CD57CE
:1047E000DF4F99838883C358D04083E0CB57DF4F96
:1047F0008883C558D040CA57DF4F1881C658D0406B
:1048000010781068CA57DF4F1883C658D040CE01C1
:104810008F579F4F0E94921C009709F4B9C5FC0165
:104820008481882309F4B4C51068CA57DF4F188300
:10483000C658D040CE018F579F4F0E941D1E8C013D
:10484000893DF1E09F0709F484C00CF031C188373D
:1048500031E0930709F42FC70CF080C087339140F3
:1048600009F424C6083381E01807ECF50D3291E015
:10487000190709F43AC544F560E00C32F1E01F076E
:1048800009F434C50C3AF2E01F0709F4F8C70CF03C
:10489000ACC3093C110511F40C94382D0CF0DBC2AB
:1048A0000636110511F40C9411300CF04DC204368B
:1048B000110511F40C94842F0536110511F40C9494
:1048C000D52D84E495E0EDCE0F3221E0120709F4F6
:1048D000C9C560E0063331E01307A1F680911202EA
:1048E0009091130207C5033741E0140709F405C589
:1048F00034F5093381E0180729F60091120210916E
:1049000013020E949709F801618B728B838B948B41
:1049100085849684A784B088DC01CB01880D991D1D
:10492000AA1DBB1D858B968BA78BB08F81E080A3C2
:1049300041EE54E067EE74E08CEE94E0B4C50437C9
:1049400091E0190709F43FC50537E1E01E0709F0BA
:1049500099CF083D114009F47DC01AC58139F1E0B5
:104960009F0709F4C3C5CCF58E3731E0930709F4EE
:104970009FC51CF58D37914009F084CFEE24EA9451
:10498000FE2C00E010E021E030E040E050E060EE7E
:1049900072E0C6010E94C11D9B01AC01E0911202B0
:1049A000F091130221873287438754876FEF74E0B9
:1049B00089E095E00E94721AEBC4023881E0180782
:1049C00009F48EC660E0003991E0190709F05ACF6A
:1049D00080911402909115028DC48B39E1E09E07FD
:1049E00009F4A8C57CF4833921E0920709F480C555
:1049F00060E08A39914009F045CF8091160290918C
:104A0000170278C48D3941E0940709F4B5C5883D93
:104A1000914009F037CF10ECE12E17E2F12E09E0BA
:104A200010E021E030E040E050E06AEE72E0C601C4
:104A30000E94C11D9B01AC01E0911402F09115028E
:104A4000218732874387548763ED74E08CED94E0CF
:104A50000E94721ACF57DF4FD982C882C158D04006
:104A60008AEE92E0CD57DF4F99838883C358D040B8
:104A700088E0CB57DF4F8883C558D040CA57DF4FF7
:104A80008881C658D04080788068CA57DF4F8883B5
:104A9000C658D040CE018F579F4F0E94391D60935A
:104AA0003502709336028093370290933802D7C450
:104AB0000F3982E0180709F495C50CF088C0053F4E
:104AC000E1E01E0709F47AC574F5023E21E0120701
:104AD00009F432C5C4F40C3D41E0140709F0D2CE0C
:104AE00015E3E12EF12C00E010E022E030E040E0A0
:104AF00050E063EF72E0C6010E94C11D8091140274
:104B000090911502EAC5063E51E0150709F4FBC570
:104B100060E0043F81E0180709F0B4CE80911802EC
:104B200090911902E7C3083592E0190709F451C5BD
:104B3000C4F40034F2E01F0709F0A4CE15E3E12E1F
:104B4000F12C00E010E022E030E040E050E063EFC4
:104B500072E0C6010E94C11D809118029091190255
:104B6000BCC5093522E0120709F42AC50B3532E02D
:104B7000130709F087CE00911A0210911B0201154C
:104B8000110509F405C40E949709AB01BC01F801A5
:104B9000458B568B678B708F85859685A785B089E9
:104BA000840F951FA61FB71F818F928FA38FB48F7D
:104BB000FF24F394F6A2C8010E945F0FF801F0A64B
:104BC00042E954E068E974E08DE994E06CC404388B
:104BD00043E0140709F46DC50CF075C0043A82E097
:104BE000180709F4A3C50CF054C0003AE2E01E0710
:104BF00009F048CE10ECE12E17E2F12E09E010E0AA
:104C000021E030E040E050E06AEE72E0C6010E9430
:104C1000C11D9B01AC01E0911A02F0911B0230977B
:104C200051F0258736874787508B63E774E08CE720
:104C300094E00E94721ACF57DF4FD982C882C158C0
:104C4000D0408AEE92E0CD57DF4F99838883C358D6
:104C5000D04088E0CB57DF4F8883C558D040CA5733
:104C6000DF4F8881C658D04080788068CA57DF4FB0
:104C70008883C658D040CE018F579F4F0E94391D60
:104C80006093310270933202809333029093340226
:104C9000E6C3093AF2E01F0709F4F1C40A3A22E038
:104CA000120709F0EFCDE0911A02F0911B02309744
:104CB00009F46EC381E085A346E454E062E574E044
:104CC00087E594E0F0C3003D33E0130709F448C5DD
:104CD000BCF4053853E0150709F4E3C4073883E052
:104CE000180709F0CFCD80911C0290911D020E94FF
:104CF0004D0F40E354E066E374E08BE394E0D3C3EC
:104D0000043394E0190709F461C50036E5E01E0795
:104D100009F0B8CD80910E0290910F02892B09F411
:104D200037C315E3E12EF12C00E010E022E030E083
:104D300040E050E063EF72E0C6010E94C11D809127
:104D40000E0290910F025BC50836110511F40C9408
:104D50003B3014F40C941D300936110509F0B1CD27
:104D6000C251DF4F1882CE5ED040CF57DF4FD9827D
:104D7000C882C158D04081E293E0CD57DF4F99837C
:104D80008883C358D04086E0CB57DF4F8883C5580F
:104D9000D040CA57DF4F8881C658D040807880689D
:104DA000CA57DF4F8883C658D040BE0162517F4F3B
:104DB000CE018F579F4F0E94AB1C182F0E9497095E
:104DC0004B015C0180910606882311F40C94593143
:104DD00010930806112311F40C94D8308092090620
:104DE00090920A06A0920B06B0920C060E943A0816
:104DF000E0913004F0913104309719F084810E94E1
:104E0000C309E0913204F0913304309719F08481A2
:104E10000E94C30980911F068823B9F080912D0656
:104E2000811113C08CE196E00E944D0F80922E06F6
:104E300090922F06A0923006B092310681E08093C6
:104E40002D06F89410921E067894412F67E875E0BD
:104E500086E995E0B4C5043831E0130709F455C07C
:104E60000CF045C00D3D110509F455C60A3751E057
:104E7000150709F44AC00C3D110509F022CDCF57A2
:104E8000DF4FD982C882C158D0408BE093E0CD5724
:104E9000DF4F99838883C358D04088E0CB57DF4FDA
:104EA0008883C558D040CA57DF4F8881C658D04044
:104EB00080788068CA57DF4F8883C658D040CE01BB
:104EC0008F579F4F0E94391D4B015C0180927703E1
:104ED00090927803A0927903B0927A030E94A7116E
:104EE000A501940164EF75E083E096E063CD083E90
:104EF00081E0180751F0013A92E0190709F482C4E1
:104F00000E3DE1E01E0709F0DCCCC251DF4F1982F3
:104F10001882CE5ED040CF57DF4FD982C882C158A9
:104F2000D04088E293E0CD57DF4F99838883C35800
:104F3000D04086E0CB57DF4F8883C558D040CA5752
:104F4000DF4F8881C658D04080788068CA57DF4FCD
:104F50008883C658D040BE0162517F4FCE018F5723
:104F60009F4F0E94C21E30E08130910529F031E050
:104F70008230910509F039E023E00A3741E0140757
:104F800079F024E0043851E0150751F025E00E3D9A
:104F9000E1E01E0729F026E0083E114009F029E073
:104FA0001091BA046AE274E050E040E04117A0F4C6
:104FB000DA01FB01E15BFF4FE0814F5F5F4F655F0F
:104FC0007F4FE213F3CF2BE02A9FF0012B9FF00DD0
:104FD0001124E858FB4F32839C01990F440B550B69
:104FE0006FE675E08CE795E0E5CC0D34F4E01F0743
:104FF00011F40C945E316CF5033334E0130709F4BB
:105000007EC484F4093E53E0150709F43CC402331E
:1050100084E0180709F43BC4083E134009F051CC62
:1050200060E032C40933E4E01E0709F4BAC40C346A
:10503000F4E01F0711F40C9462310833144009F0B6
:1050400040CC10921B0740E067E676E082E796E0EE
:10505000B6C40E3535E0130709F4BAC40CF0E5C048
:10506000043155E0150709F4B1C4053185E018078E
:1050700009F4A8C40839144009F023CC8BE090E06F
:10508000C650DF4F99838883CA5FD040CF57DF4F28
:10509000D982C882C158D04083EF92E0CD57DF4F0C
:1050A00099838883C358D04083E0CB57DF4F8883F0
:1050B000C558D040CA57DF4F8881C658D040807845
:1050C0008068CA57DF4F8883C658D040BE016650FB
:1050D0007F4FCE018F579F4F0E94C21E089714F436
:1050E0000C9464318BE0A82EB12CC450DF4FB982F0
:1050F000A882CC5FD040C251DF4FD982C882CE5E39
:10510000D04093EFE92E92E0F92EC051DF4FF982A3
:10511000E882C05FD04013E0CE50DF4F1883C25FFB
:10512000D040CD50DF4F8881C35FD0408078806809
:10513000CD50DF4F8883C35FD040BE0164507F4FA6
:10514000CE0182519F4F0E94C21E0E9714F00C9404
:105150006731C250DF4FB982A882CE5FD040CC50B9
:10516000DF4FD982C882C45FD040CA50DF4FF98276
:10517000E882C65FD040C850DF4F1883C85FD04078
:10518000C750DF4F8881C95FD04080788068C750A2
:10519000DF4F8883C95FD040BE0162507F4FCE0190
:1051A0008C509F4F0E94C21E40916B009091100640
:1051B000985021E030E001C0220F9A95EAF720953F
:1051C000242320936B0090916B00911105C0909166
:1051D00068009E7F909368008093100662E00E94B2
:1051E0000109809110060E94AA0821E0019709F0A8
:1051F00020E020931B068091680081608093680006
:1052000080916B0090911006985021E030E001C031
:10521000220F9A95EAF7822B80936B0084E792E045
:105220000E94350E80911006C9C20436E5E01E07C3
:1052300009F416C40536F5E01F0709F402C40F355A
:10524000154009F03ECBCF57DF4FD982C882C158F5
:10525000D04045E0E42E43E0F42ECD57DF4FF982F5
:10526000E882C358D04015E0CB57DF4F1883C558AC
:10527000D040CA57DF4F8881C658D04080788068B8
:10528000CA57DF4F8883C658D040CE018F579F4FF3
:105290000E94BC1C0E942208CF57DF4FD982C882CF
:1052A000C158D040CD57DF4FF982E882C358D04073
:1052B000CB57DF4F1883C558D040CA57DF4F88817E
:1052C000C658D04080788068CA57DF4F8883C65858
:1052D000D040CE018F579F4F0E94391D9B01AC01DA
:1052E00067E476E08DE496E065CB61E080911002A2
:1052F000909111020E94481B4BC0EE24EA94FE2CB0
:1053000000E010E021E030E040E050E060EE72E0CC
:10531000C6010E94C11D9B01AC01E0911002F091F9
:10532000110221873287438754876AE275E084E35C
:1053300095E00E94721ACF57DF4FD982C882C158B8
:10534000D04080EE92E0CD57DF4F99838883C358D9
:10535000D04089E0CB57DF4F8883C558D040CA572B
:10536000DF4F8881C658D04080788068CA57DF4FA9
:105370008883C658D040CE018F579F4F0E94391D59
:105380006093390270933A0280933B0290933C02FF
:10539000C6010E94CF15C150DF4F0FB6F894DEBF93
:1053A0000FBECDBFDF91CF911F910F91FF90EF9076
:1053B000DF90CF90BF90AF909F908F907F906F9035
:1053C0005F904F90089510ECE12E17E2F12E09E066
:1053D00010E021E030E040E050E06AEE72E0C6010B
:1053E0000E94C11D9B01AC01E0911002F0911102DD
:1053F000258736874787508B6DE175E086E295E01B
:105400000E94721ACF57DF4FD982C882C158D0404C
:105410008AEE92E0CD57DF4F99838883C358D040FE
:1054200088E0CB57DF4F8883C558D040CA57DF4F3D
:105430008881C658D04080788068CA57DF4F8883FB
:10544000C658D040CE018F579F4F0E94391D6093A0
:105450003D0270933E0280933F02909340020E946F
:10546000A71196CF00911002109111020E94970986
:10547000F801618B728B838B948B85849684A784CF
:10548000B088DC01CB01880D991DAA1DBB1D858B41
:10549000968BA78BB08F81E080A34EE055E064E14E
:1054A00075E089E195E00E94C41672CF61E016CAEA
:1054B00010ECE12E17E2F12E09E010E021E030E0DF
:1054C00040E050E06AEE72E0C6010E94C11D9B01FF
:1054D000AC01E0911202F0911302258736874787CD
:1054E000508B61EF74E08AEF94E064CA61E070CAA7
:1054F00000911402109115020E949709F801658726
:1055000076878787908B81849284A384B484DC011E
:10551000CB01880D991DAA1DBB1D818B928BA38B7E
:10552000B48B81E0858B43EC54E069EC74E08EEC45
:1055300094E0B9CF61E061CA10ECE12E17E2F12EE0
:1055400009E010E021E030E040E050E06AEE72E077
:10555000C6010E94C11D9B01AC01E0911602F091B1
:105560001702218732874387548764EB74E08DEB01
:1055700094E00E94721A73CF0091160210911702E4
:105580000E949709F801658776878787908B8184C9
:105590009284A384B484DC01CB01880D991DAA1DDB
:1055A000BB1D818B928BA38BB48B81E0858B43EAEF
:1055B00054E069EA74E08EEA94E075CF61E0AECA27
:1055C00080911A0290911B0261E0009709F092CE3F
:1055D000DFCE80911A0290911B0260E0009709F0E3
:1055E00089CED6CEEE24EA94FE2C00E010E021E035
:1055F00030E040E050E060EE72E0C6010E94C11D64
:105600009B01AC01E0911A02F0911B02309779F0F6
:10561000211531054105510521F021873287438746
:10562000548762E874E08CE894E00E94721ACF57C5
:10563000DF4FD982C882C158D04080EE92E0CD576A
:10564000DF4F99838883C358D04089E0CB57DF4F21
:105650008883C558D040CA57DF4F8881C658D0408C
:1056600080788068CA57DF4F8883C658D040CE0103
:105670008F579F4F0E94BC1C8093300289CEE091CF
:105680001A02F0911B02309749F015A24DE554E043
:1056900068E674E08DE694E00E94C416109256030A
:1056A000DECE61E080911C0290911D020E949F1647
:1056B0006FCE60E0F7CF15E3E12EF12C00E010E0B3
:1056C00022E030E040E050E063EF72E0C6010E946B
:1056D000C11D80911002909111020E94B31B58CEFF
:1056E00015E3E12EF12C00E010E022E030E040E094
:1056F00050E063EF72E0C6010E94C11D809112026A
:1057000090911302EACF15E3E12EF12C00E010E0B6
:1057100022E030E040E050E063EF72E0C6010E941A
:10572000C11D8091160290911702D7CF80911A0265
:1057300090911B02892B09F42BCE15E3E12EF12C5D
:1057400000E010E022E030E040E050E063EF72E083
:10575000C6010E94C11D80911A0290911B02BDCF0B
:1057600015E3E12EF12C00E010E022E030E040E013
:1057700050E063EF72E0C6010E94C11DF62E009159
:105780001C0210911D02F8018485882331F060E02D
:1057900080810E94D308F8011486F801F08261E04C
:1057A0008F2D0E94010960E0F80180810E94D308DA
:1057B0008CEE93E00E94350EF8018081082E000CDB
:1057C000990B0E9441160E94EC16E2CD80910C02CA
:1057D00090910D02892B09F4DBCD15E3E12EF12C1C
:1057E00000E010E022E030E040E050E063EF72E0E3
:1057F000C6010E94C11D80910C0290910D020E9471
:10580000E91BC6CDCF57DF4FD982C882C158D040DF
:1058100087EF92E0CD57DF4F99838883C358D040FC
:1058200085E0CB57DF4F8883C558D040CA57DF4F3C
:105830008881C658D04080788068CA57DF4F8883F7
:10584000C658D040CE018F579F4F0E94391D6136F8
:105850002AEE72078105910520F060E67AEE80E07D
:1058600090E06093430670934406809345069093BE
:10587000460680915603882309F48ACDF0CD81E055
:1058800080935603ECCD61E08BE097E033CDCF57AA
:10589000DF4FD982C882C158D0408DEF92E0CD57FA
:1058A000DF4F99838883C358D04087E0CB57DF4FC1
:1058B0008883C558D040CA57DF4F8881C658D0402A
:1058C00080788068CA57DF4F8883C658D040CE01A1
:1058D0008F579F4F0E94391D4B015C018092080237
:1058E00090920902A0920A02B0920B020E94F50760
:1058F000A50194016EE976E086EA96E05BC8CF5791
:10590000DF4FD982C882C158D04055E0E52E53E020
:10591000F52ECD57DF4FF982E882C358D04015E00D
:10592000CB57DF4F1883C558D040CA57DF4F888107
:10593000C658D04080788068CA57DF4F8883C658E1
:10594000D040CE018F579F4F0E94BC1C0E9422085E
:10595000CF57DF4FD982C882C158D040CD57DF4FD3
:10596000F982E882C358D040CB57DF4F1883C5581F
:10597000D040CA57DF4F8881C658D04080788068B1
:10598000CA57DF4F8883C658D040CE018F579F4FEC
:105990000E94391D9B01AC016FE876E085E996E035
:1059A00009C881E080931B078BE097E09093010288
:1059B0008093000241E06BE776E086E896E00E9483
:1059C000491AE6CC61E085EE96E094CC60E0FBCF2E
:1059D000CF57DF4FD982C882C158D0408DEF92E0B7
:1059E000CD57DF4F99838883C358D04087E0CB578A
:1059F000DF4F8883C558D040CA57DF4F8881C658CB
:105A0000D04080788068CA57DF4F8883C658D0401E
:105A1000CE018F579F4F0E94391D4B015C01809230
:105A2000080290920902A0920A02B0920B020E9410
:105A3000F507A501940166E576E08EE596E00C9405
:105A4000DA2481E08093F50685EE96E090930102DA
:105A50008093000241E063E376E08EE396E0AFCF0F
:105A60001092F50640E06FE176E08AE296E0A7CF7B
:105A7000CF57DF4FD982C882C158D04035E0E32EDE
:105A800033E0F32ECD57DF4FF982E882C358D04080
:105A900015E0CB57DF4F1883C558D040CA57DF4FAA
:105AA0008881C658D04080788068CA57DF4F888385
:105AB000C658D040CE018F579F4F0E94BC1C0E94F9
:105AC0002208CF57DF4FD982C882C158D040CD5766
:105AD000DF4FF982E882C358D040CB57DF4F18839D
