:100000000C9480060C943A2F0C940F2F0C94E42E31
:100010000C94B92E0C948E2E0C94632E0C94382EC6
:100020000C940D2E0C94B1060C94B1060C94B106F0
:100030000C94B1060C94652F0C94B1060C94B10687
:100040000C94B1060C94B1060C94B1060C94B10654
:100050000C94B1060C94B1060C94B1060C94C32D0B
:100060000C94B1060C94EF2F0C94C52F0C94B10690
:100070000C94B1060C94B1060C94B1060C94B10624
:100080000C94B1060C94B1060C94B1060C94B10614
:100090000C94B1060C94B1060C94B1060C94B10604
:1000A0000C94B1060C94B1060C94B1060C94B106F4
:1000B0000C94B1060C94B1060C94B1060C94B106E4
:1000C0000C94B1060C94B1060C94B1060C94B106D4
:1000D0000C94B1060C94B1060C94B1060C94B106C4
:1000E0000C94B1060C94E0070C94561C0C94E51B80
:1000F0000C946E1C0C9421230C94C10D0C94EF1CD9
:100100000C94F3220C94D8070C9405080C94F00C72
:100110000C94BA1B0C94E71B0C94E4070C94371C4A
:100120000C94D2070C94EA1B0C9417080C94F6223A
:100130000C946B1C0C9424230C94F1070C94BD2D8F
:100140000C9409080C9412080C94FB070C941409E5
:100150000C94F7070C94B92D0C94C02D0C94FF0748
:100160000C944C1C0C947E300C94C81B0C942823CB
:100170000C94E7070C940D080C94E3220C94721C69
:100180000C94EE1B0C94671C0C94031A0C94471CE3
:100190000C94ED070C94D41B0C94C30C0C94FF0C22
:1001A0000C9413080C94590D0C94210D0C943309E4
:1001B0000C94130D0C94DC070C943322546F6F4491
:1001C000656570004E6F4D656D6F727900496E7692
:1001D000616C6964496E70757400496E636F6D700F
:1001E0006C657465496E70757400456D70747949FD
:1001F0006E707574004F6B00CDCCCC3D0AD7233C9C
:1002000017B7D13877CC2B329595E6241FB14F0A1A
:10021000000020410000C84200401C4620BCBE4CEB
:10022000CA1B0E5AAEC59D74227D007B226C65767A
:10023000656C223A22303031222C22646576696363
:1002400065223A22434F4E54524F4C4C4552222C79
:100250002264657363223A22505220746872657377
:10026000686F6C6420636170706564206174200045
:100270007B226C6576656C223A22303037222C2244
:10028000646576696365223A22434F4E54524F4C5F
:100290004C4552222C226576656E74223A22454ED8
:1002A00044222C2274696D657374616D70223A006A
:1002B0004C48005248004C455645525F4C48004C53
:1002C000455645525F5248004D4943524F53434FA4
:1002D0005045004C49434B004C415345520050554A
:1002E0004D50320050554D50004355453200435556
:1002F0004500222C2274726163655F696E746572B9
:1003000076616C223A002C226163746976655F6CB9
:1003100065766572223A22007B226C6576656C22D6
:100320003A22303030222C22646576696365223AA5
:1003300022434F4E54524F4C4C4552222C22706156
:1003400072616469676D223A2246495845445F529A
:100350004154494F222C2274696D656F7574223A9D
:10036000007B226C6576656C223A22303037222C75
:1003700022646576696365223A22434F4E54524F98
:100380004C4C4552222C226576656E74223A2253DB
:1003900054415254222C2274696D657374616D70DE
:1003A000223A307D007B226C6576656C223A2230E1
:1003B0003030222C22646576696365223A224D49E9
:1003C00043524F53434F5045222C22706172616D4E
:1003D000223A22747269676765725F70696E222CB7
:1003E0002276616C7565223A004649524544007494
:1003F000657374004D4943524F53434F5045004974
:100400004E444550454E44454E54006D6F64650062
:100410004C4153455200434F4E54494E47454E546C
:10042000006D6F6465004C41534552006475726104
:1004300074696F6E004C4153455200667265717568
:10044000656E6379004C415345520046495245441C
:100450000074657374004C4153455200464952453F
:100460004400746573740050554D503200647572C9
:100470006174696F6E0050554D50320046495245C7
:100480004400746573740050554D5000647572617A
:1004900074696F6E0050554D5000464952454400F6
:1004A00074657374004355453200647572617469F4
:1004B0006F6E0043554532006672657175656E63F7
:1004C00079004355453200464952454400746573EE
:1004D0007400435545006475726174696F6E004322
:1004E0005545006672657175656E637900435545C3
:1004F00000F501EA01DA01CD01C401BC017B226CE7
:100500006576656C223A22303036222C226465737F
:1005100063223A22436F6D6D616E64206E6F7420AA
:10052000666F756E64227D0073657373696F6E5FAD
:1005300070617573656400434F4E54524F4C4C4587
:100540005200746573745F6D6F646500434F4E5461
:10055000524F4C4C45520046495245440074657315
:10056000745F636861696E00434F4E54524F4C4C48
:1005700045520074726163655F696E74657276617D
:100580006C00434F4E54524F4C4C455200726174B4
:10059000696F00434F4E54524F4C4C4552007265A8
:1005A000696E666F72636564004C455645525F4CD8
:1005B00048007265696E666F72636564004C4556EB
:1005C00045525F4C4800726174696F004C45564556
:1005D000525F4C480074696D656F7574004C4556E8
:1005E00045525F4C48007265696E666F7263656460
:1005F000004C455645525F5248007265696E666F01
:1006000072636564004C455645525F524800726102
:1006100074696F004C455645525F52480074696DCD
:10062000656F7574004C455645525F524800227DF7
:10063000007B226C6576656C223A22303036222CA3
:100640002264657363223A220044495341524D4566
:10065000440041524D454400227D002C22646573C4
:1006600063223A2200222C2270696E223A007B22F9
:100670006C6576656C223A22303031222C2264651A
:1006800076696365223A2200222C22706172616DC4
:10069000223A2270696E222C2276616C7565223AAC
:1006A000007B226C6576656C223A22303030222C39
:1006B00022646576696365223A2200222C227661E3
:1006C0006C7565223A00222C22706172616D223AAB
:1006D00022007B226C6576656C223A223030302213
:1006E0002C22646576696365223A220066616C7328
:1006F00065007472756500222C2276616C75652226
:100700003A00222C22706172616D223A22007B2213
:100710006C6576656C223A22303030222C2264657A
:1007200076696365223A2200227D00222C227661BE
:100730006C7565223A2200222C22706172616D2252
:100740003A22007B226C6576656C223A223030308A
:10075000222C22646576696365223A22004449535B
:1007600041524D45440041524D454400227D002CEC
:100770002264657363223A22007B226C6576656C85
:10078000223A22303031222C226465766963652258
:100790003A224D4943524F53434F5045222C227029
:1007A000696E223A0066616C73650074727565004B
:1007B0002C226475726174696F6E223A002C226675
:1007C00072657175656E6379223A00222C2261721E
:1007D0006D6564223A007B226C6576656C223A2254
:1007E000303030222C22646576696365223A22001B
:1007F00066616C73650074727565002C2264757295
:100800006174696F6E223A00222C2261726D6564F8
:10081000223A007B226C6576656C223A22303030B9
:10082000222C22646576696365223A220066616C37
:100830007365007472756500222C2261726D6564A7
:10084000223A007B226C6576656C223A2230303089
:10085000222C22646576696365223A220066616C07
:10086000736500747275650066616C7365007472FF
:100870007565002C227265696E666F72636564220D
:100880003A00222C2261726D6564223A007B226C50
:100890006576656C223A22303030222C22646576EF
:1008A000696365223A2200027B226C6576656C22C0
:1008B0003A22303030222C22646576696365223A10
:1008C00022434F4E54524F4C4C4552222C22736BB4
:1008D00065746368223A2266722E696E6F222C223A
:1008E00076657273696F6E223A2276322E302E3020
:1008F000222C22626175645F72617465223A313123
:10090000353230302C227363686564756C65223A29
:100910002246495845445F524154494F227D002C9C
:1009200022656E645F74696D657374616D70223ADF
:10093000002C226576656E74223A224C49434B2284
:100940002C2273746172745F74696D657374616D68
:1009500070223A00222C2270696E223A007B226CAF
:100960006576656C223A22303037222C2264657617
:10097000696365223A22002C22656E645F74696D9A
:10098000657374616D70223A002C226576656E7411
:10099000223A225354494D222C2273746172745F9F
:1009A00074696D657374616D70223A007B226C65A9
:1009B00076656C223A22303037222C2264657669C3
:1009C0006365223A224C41534552222C2270696EB3
:1009D000223A002C226576656E74223A2254494DE3
:1009E000455354414D50222C2274696D65737461D6
:1009F0006D70223A007B226C6576656C223A22305B
:100A00003038222C22646576696365223A224D498A
:100A100043524F53434F5045222C2270696E223A65
:100A20000000002100240027002A002D00300033A0
:100A30000001010000040107010A01000022002555
:100A40000028002B002E00310034000201000005B8
:100A50000108010B01000020002300260029002CC2
:100A6000002F00320000010000030106010901050A
:100A7000050505070508080808020202020A0A0817
:100A8000080404040401010101010101010303033D
:100A90000303030303040707070C0C0C0C0C0C0CDA
:100AA0000C0202020206060606060606060B0B0BE1
:100AB0000B0B0B0B0B01021020200808102040101C
:100AC0002040800201020108040201010204081012
:100AD0002040808040201008040201800402018030
:100AE0004020100804020108040201010204081059
:100AF000204080010204081020408000000A0B0200
:100B0000090C0D0E0807030401000000000000009E
:100B100000000000000000000000000000000000D5
:100B20000000000000000012111000000000000092
:100B300000000000000000000000000000000000B5
:100B40000054494D454F555400494E414354495670
:100B5000450041435449564500227D002C226F72C6
:100B600069656E746174696F6E223A22002C226589
:100B70006E645F74696D657374616D70223A0022F2
:100B80002C2273746172745F74696D657374616D26
:100B900070223A002C226576656E74223A225052F9
:100BA000455353222C22636C617373223A22007BDB
:100BB000226C6576656C223A22303037222C226412
:100BC0006576696365223A225357495443485F4C1E
:100BD00045564552222C2270696E223A002C22730F
:100BE00063686564756C65645F6174223A002C22E9
:100BF000746172676574223A007B226C6576656C5D
:100C0000223A22303036222C226572726F725F6374
:100C10006F6465223A22455F50454E44494E475F16
:100C200046554C4C222C2264657363223A2250654F
:100C30006E64696E6720616374696F6E207175659B
:100C400075652066756C6C20E28094206163746920
:100C50006F6E2064726F70706564222C2261637401
:100C6000696F6E5F74797065223A005354494D0084
:100C7000494E465553494F4E00494E465553494FEC
:100C80004E00544F4E4500544F4E45004C41534585
:100C9000520050554D505F320050554D5000435555
:100CA000455F3200435545002C22656E645F7469D0
:100CB0006D657374616D70223A00222C2273746129
:100CC00072745F74696D657374616D70223A002C83
:100CD000226576656E74223A2200222C2270696E9B
:100CE000223A007B226C6576656C223A22303037DE
:100CF000222C22646576696365223A2200007E30E8
:100D000011241FBECFEFD1E2DEBFCDBF00E00CBF8C
:100D100013E0A0E0B2E0E6E3FAE700E00BBF02C0B8
:100D200007900D92AA33B107D9F726E0AAE3B3E002
:100D300001C01D92AC3EB207E1F716E0C0E8D6E074
:100D400000E006C021970109802FFE010E94E63ACB
:100D5000CF37D10780E00807A9F70E94C1330C9470
:100D6000193D0C940000CF93DF93EC0188819981A9
:100D7000DC01ED91FC910190F081E02D64E270E0E6
:100D80001995009741F02FE1FC01238321E0228394
:100D9000DF91CF91089521E02A83FACFCF92DF929D
:100DA000EF92FF920F931F93EEE0F4E0128A138A02
:100DB00091E0948B858B868B178A108E89E086A7AD
:100DC00084E687A712AA84E08093980410925C04BA
:100DD00083E080935D0410925E0410925F04109291
:100DE000600410926104C0908806D0908906E0905B
:100DF0008A06F0908B06C0926204D0926304E0925F
:100E00006404F09265041092660485E080936704A0
:100E100089019A010C0D1D1D2E1D3F1D00936804B4
:100E20001093690420936A0430936B04C0904D06BC
:100E3000D0904E06E0904F06F0905006C0926C04A1
:100E4000D0926D04E0926E04F0926F0410927004E0
:100E500087E08093710400937204109373042093CD
:100E6000740430937504C090FA05D090FB05E090AF
:100E7000FC05F090FD05C0927604D0927704E092D4
:100E80007804F092790490937A0460937B04109232
:100E90007C0410927D0410927E0410927F04809155
:100EA000CA059091CB05A091CC05B091CD0580935A
:100EB000800490938104A0938204B09383041F91D3
:100EC0000F91FF90EF90DF90CF9008956093CA0547
:100ED0007093CB058093CC059093CD053091980409
:100EE000ECE5F4E020E023130DC03091D504E9E9EE
:100EF000F4E020E02317B1F04081413071F02F5F22
:100F00003A96F8CF4081413019F02F5F3A96EBCFF7
:100F10006683778380879187F8CF6683778380871E
:100F20009187EDCF089590912004992339F0909105
:100F30003E0421E030E0992319F0089530E020E0EC
:100F40009EE1929FF001939FF00D1124E25FFB4F11
:100F5000858B178AF2CFE4EEF4E010823F9685E0AD
:100F6000E43DF807D1F708958150823108F05AC066
:100F7000E82FF0E08827E054F84F8F4F0C94E63AC2
:100F8000E007E407D207D807DC071208E707ED07F8
:100F9000F107F707FB07FF070508090812080D0806
:100FA00013081708809180008F7780938000089540
:100FB000809180008F7DF9CF80918000877FF5CF71
:100FC00084B58F7784BD089584B58F7DFBCF8091E4
:100FD000B0008F778093B00008958091B0008F7D2E
:100FE000F9CF809190008F77809390000895809141
:100FF00090008F7DF9CF80919000877FF5CF809111
:10100000A0008F778093A00008958091A0008F7D2D
:10101000F9CF8091A000877FF5CF809120018F7755
:10102000809320010895809120018F7DF9CF8091D8
:101030002001877FF5CFCF93DF93282F30E0F90190
:10104000E550F54F8491F901EB54F54FD491F90136
:10105000E159F54FC491CC23A1F081110E94B4074E
:10106000EC2FF0E0EE0FFF1FEB5AF54FA591B49176
:10107000EC91ED2381E090E009F480E0DF91CF91E5
:10108000089580E090E0FACF1F93CF93DF93282F4D
:1010900030E0F901E550F54F8491F901EB54F54F3B
:1010A000D491F901E159F54FC491CC23A9F0162F41
:1010B00081110E94B407EC2FF0E0EE0FFF1FE55CFA
:1010C000F54FA591B4918FB7F894EC91111108C028
:1010D000D095DE23DC938FBFDF91CF911F910895D0
:1010E000DE2BF8CFCF93DF9390E0FC01EB54F54F6C
:1010F00024918159954FFC0184918823C9F090E097
:10110000880F991FFC01EF5DF54FA591B491FC018B
:10111000E55CF54FC591D49161110DC09FB7F8946E
:101120008C91209582238C938881282328839FBFCC
:10113000DF91CF910895623051F49FB7F8943C91BC
:10114000822F809583238C93E8812E2BEFCF8FB74E
:10115000F894EC912E2B2C938FBFEACF3FB7F894E5
:1011600080916B0390916C03A0916D03B0916E031D
:1011700026B5A89B05C02F3F19F00196A11DB11DF2
:101180003FBFBA2FA92F982F8827BC01CD01620F2E
:10119000711D811D911D42E0660F771F881F991FE9
:1011A0004A95D1F708958F929F92AF92BF92CF92B6
:1011B000DF92EF92FF920E94AE084B015C0184E641
:1011C000C82ED12CE12CF12C0E94AE0868197909A7
:1011D0008A099B09683E734081059105A8F321E0C7
:1011E000C21AD108E108F10888EE880E83E0981E43
:1011F000A11CB11CC114D104E104F10429F7FF9032
:10120000EF90DF90CF90BF90AF909F908F90089518
:101210002FB7F89460916703709168038091690318
:1012200090916A032FBF08950F931F93CF93DF937D
:10123000C0910C04D0910D04209781F081E08A8345
:101240000E940809088519852A853B85601B710B5A
:10125000820B930B6C837D838E839F83DF91CF9171
:101260001F910F91089508959091040289130DC064
:10127000E7EAF8E0E4919FEF90930402E230E1F0B6
:1012800038F4EE2381F0E13089F060E00C944408FA
:10129000E43049F110F1E530C1F7909173009D7F82
:1012A00090937300F2CF10926E00EFCF90916F0089
:1012B0009D7F90936F00E9CF909170009D7F9093F8
:1012C000700091E09093B0009091B100987F94608D
:1012D0009093B1001092B300D8CF909171009D7F90
:1012E00090937100D2CF909172009D7F9093720085
:1012F000CCCF4F925F926F927F928F929F92AF92DC
:10130000BF92CF92DF92EF92FF920F931F93CF93F2
:10131000DF9300D01F921F92CDB7DEB78B0129015A
:101320003A01909104028917C9F09F3F09F491C0D6
:101330000F900F900F900F900F90DF91CF911F9112
:101340000F91FF90EF90DF90CF90BF90AF909F9064
:101350008F907F906F905F904F900895E7EAF8E04C
:1013600024912D8327FDE4CF61E00E9472082D8136
:10137000222321F08D81823009F005C24801B12C71
:10138000A12C60E072E18AE790E0A50198010E943B
:10139000693929833A834B835C8369017A0191E03F
:1013A000C91AD108E108F1082FEFC216D104E104EF
:1013B000F10409F00CF4B6C160E472E48FE090E04F
:1013C000A50198010E94693969017A0181E0C81A72
:1013D000D108E108F1089D81923009F026C182E030
:1013E0002FEFC216D104E104F10409F00CF46CC132
:1013F00060E970ED83E090E0A50198010E946939F1
:1014000069017A0181E0C81AD108E108F10883E096
:101410009FEFC916D104E104F10409F00CF454C1A2
:1014200068E478EE81E090E0A50198010E946939B6
:1014300069017A0181E0C81AD108E108F1089FEF3B
:10144000C916D104E104F10411F00CF044C184E0A8
:101450003BC180930402E7EAF8E094919D839F3FAB
:1014600009F466CF923009F474C058F4992399F1C5
:10147000913009F44CC097FD5BCF61E00E94720887
:1014800079CF2D81243009F4AEC008F488C025300E
:1014900091F7109220011092210190912101986002
:1014A0009093210190912101916090932101282F27
:1014B00030E0F901E159F54FE491F0E0EE0FFF1F44
:1014C000E55CF54F45915491F901EB54F54FE491EA
:1014D000E093420349CF14BC15BC94B5926094BD0F
:1014E00095B5916095BD282F30E0F901E159F54F90
:1014F000E491F0E0EE0FFF1FE55CF54F459154914C
:10150000F901EB54F54FE491E09346032DCF10928F
:1015100080001092810090918100986090938100EA
:1015200090918100916090938100282F30E0F90123
:10153000E159F54FE491F0E0EE0FFF1FE55CF54F48
:1015400045915491F901EB54F54FE491E093450333
:101550000BCF1092B0001092B1009091B000926049
:101560009093B0009091B10091609093B100282FBA
:1015700030E0F901E159F54FE491F0E0EE0FFF1F83
:10158000E55CF54F4591549150935C0340935B03A8
:10159000F901EB54F54FE491E0935D03E5CE109231
:1015A000900010929100909191009860909391001A
:1015B00090919100916090939100282F30E0F90173
:1015C000E159F54FE491F0E0EE0FFF1FE55CF54FB8
:1015D00045915491F901EB54F54FE491E0934403A4
:1015E00093E09D83C1CE1092A0001092A100909133
:1015F000A10098609093A1009091A10091609093B8
:10160000A100282F30E0F901E159F54FE491F0E015
:10161000EE0FFF1FE55CF54F45915491F901EB5436
:10162000F54FE491E09343039FCE2FEFC216D10410
:10163000E104F10409F00CF4A4C068E478EE81E060
:1016400090E0A50198010E94693969017A0181E061
:10165000C81AD108E108F1089D81992309F489C1CC
:101660009FEFC916D104E104F10409F00CF4EFCEA8
:1016700062E17AE780E090E0A50194010E94693977
:1016800069017A0181E0C81AD108E108F1089D8159
:10169000992309F453C186E09FEFC916D104E104F0
:1016A000F10491F088F0C980DA80EB80FC808AE058
:1016B000F594E794D794C7948A95D1F781E0C81A36
:1016C000D108E108F10887E09091B100987F892B5B
:1016D0008093B1002FC064E274EF80E090E0A50138
:1016E00094010E94693969017A0181E0C81AD10820
:1016F000E108F10885E09FEFC916D104E104F10487
:1017000019F310F362E17AE780E090E0A50194011B
:101710000E94693969017A0181E0C81AD108E1089B
:10172000F108B9CF81E02D812111CECF95B5987FF9
:10173000892B85BD2FEF3FEFA901411451046104AE
:10174000710409F049C09D81923009F4E7C00CF0A2
:10175000CEC0992309F4D3C0913009F0E9CDD092DD
:101760008900C09288002093530330935403409320
:1017700055035093560380916F00826080936F00F1
:10178000D7CD82E0D0CFB12CA12C60E072E18AE706
:1017900090E0A50198010E94693969017A0181E010
:1017A000C81AD108E108F108C114D10491E0E90692
:1017B000F10404F591E02D81213069F580918100DB
:1017C000887F892B809381002FEF3FEFA90141147F
:1017D00051046104710419F2D801AA0FBB1FA301BF
:1017E00092010E94883928EE33E040E050E00E94E8
:1017F0009B39A9CF68E478EE81E090E0A5019801DB
:101800000E94693969017A0181E0C81AD108E108AA
:10181000F10893E0D0CF8D81833001F58091910064
:10182000887F892B809391002FEF3FEFA90141140E
:1018300051046104710481F6D0929900C09298001D
:1018400020934F033093500340935103509352031E
:10185000809171008260809371006ACD2D81243067
:1018600009F58091A100887F892B8093A1002FEF3B
:101870003FEFA901411451046104710409F0ACCF98
:10188000D092A900C092A80020934B0330934C0340
:1018900040934D0350934E03809172008260809379
:1018A000720046CD8D81853009F044CF80912101B1
:1018B000887F892B809321012FEF3FEFA9014114ED
:1018C00051046104710409F087CFD0922901C092BC
:1018D00028012093470330934803409349035093D2
:1018E0004A038091730082608093730021CD8D81C3
:1018F000843031F20CF4A0CF853039F319CDC7BC58
:1019000020935703309358034093590350935A033D
:1019100080916E00826080936E000ACDC092B30009
:1019200020935E0330935F03409360035093610301
:1019300080917000826080937000FACC84E02FEF79
:10194000C216D104E104F10409F008F4EFCEC98015
:10195000DA80EB80FC809AE0F594E794D794C79402
:101960009A95D1F791E0C91AD108E108F10885E00C
:10197000DDCE83E02FEFC216D104E104F10411F0B3
:101980000CF076CED3CEAF92BF92CF92DF92EF9291
:10199000FF920F931F93CF93DF936C017B018B0119
:1019A000040F151FEB015E01AE18BF08C017D10769
:1019B00059F06991D601ED91FC910190F081E02DF3
:1019C000C6011995892B79F7C501DF91CF911F9138
:1019D0000F91FF90EF90DF90CF90BF90AF90089560
:1019E000FC01538D448D252F30E0842F90E0821B25
:1019F000930B541710F0CF96089501970895FC01AA
:101A0000918D828D981761F0A28DAE0FBF2FB11D01
:101A10005D968C91928D9F5F9F73928F90E0089559
:101A20008FEF9FEF0895FC01918D828D981731F013
:101A3000828DE80FF11D858D90E008958FEF9FEF67
:101A40000895FC01918D228D892F90E0805C9F4F3D
:101A5000821B91098F73992708958FE693E00E9466
:101A6000210D21E0892B09F420E0822F0895FC014B
:101A7000A48DA80FB92FB11DA35ABF4F2C91848DEF
:101A800090E001968F739927848FA689B7892C934C
:101A9000A089B1898C91837080648C93938D848D9F
:101AA000981306C00288F389E02D80818F7D8083A2
:101AB0000895EF92FF920F931F93CF93DF93EC0162
:101AC00081E0888F9B8D8C8D98131AC0E889F989E5
:101AD000808185FF15C09FB7F894EE89FF896083E8
:101AE000E889F98980818370806480839FBF81E069
:101AF00090E0DF91CF911F910F91FF90EF900895AB
:101B0000F62E0B8D10E00F5F1F4F0F731127E02E85
:101B10008C8D8E110CC00FB607FCFACFE889F989BD
:101B2000808185FFF5CFCE010E94370DF1CFEB8D7F
:101B3000EC0FFD2FF11DE35AFF4FF0829FB7F89491
:101B40000B8FEA89FB8980818062CFCF0F931F932F
:101B5000CF93DF938C01D0E0C0E0F801EC0FFD1FC4
:101B60006491662341F08FE693E00E94590D892B22
:101B700011F02196F2CFCE01DF91CF911F910F91FD
:101B80000895CF93DF93EC01888D8823B9F0AA895B
:101B9000BB89E889F9898C9185FD03C0808186FD28
:101BA0000DC00FB607FCF7CF8C9185FFF2CF808177
:101BB00085FFEDCFCE010E94370DE9CFDF91CF91A8
:101BC000089580E090E0892B29F00E942D0D81116D
:101BD0000E94000080E090E0892B49F080E090E0D6
:101BE000892B29F00E94000081110E94000080E0F2
:101BF00090E0892B49F080E090E0892B29F00E9449
:101C0000000081110E94000080E090E0892B49F0E3
:101C100080E090E0892B29F00E94000081110C9453
:101C200000000895CF92DF92EF92FF921F93CF931F
:101C3000DF93EC016A017B018C810E941B0811E09B
:101C4000892B09F410E08B85181721F0CD8ADE8AE4
:101C5000EF8AF88E8D899E89AF89B88DB701A6016C
:101C6000481B590B6A0B7B0B898D90E0B0E0A0E01C
:101C700084179507A607B70798F48C85181781F085
:101C80001C878A851817A9F0CA8EDB8EEC8EFD8E14
:101C9000EAA1FBA1309721F0B701A601898519952A
:101CA0001B87DF91CF911F91FF90EF90DF90CF9036
:101CB0000895CE8EDF8EE8A2F9A2ECA1FDA13097A7
:101CC00079F389851995ECCFFC011582138614866A
:101CD000158616861786108A118A128A138A148A24
:101CE000158A168A138E8681882311F08481838356
:101CF0000895CF92DF92EF92FF920F931F93CF93AD
:101D0000DF93EC018E81811103C08D89882369F1F5
:101D10008C810D851E852F8538896A017B01C01A4B
:101D2000D10AE20AF30A9701860137FD18C0098932
:101D30001A892B893C89401B510B620B730B1416BB
:101D40001506160617065CF061E0DF91CF911F9132
:101D50000F91FF90EF90DF90CF900C94440860E0DB
:101D60000E9444088D8981111D8ADF91CF911F91B6
:101D70000F91FF90EF90DF90CF900895CF93DF9376
:101D8000EC0161E088810E94440881E08C870E9418
:101D900008096D877E878F87988BDF91CF91089593
:101DA000CF92DF92EF92FF92CF93DF93EC016A0123
:101DB0007B0169857A858B859C850E944A389B01C9
:101DC000AC0160E070E080E89FE30E94393A20E0D7
:101DD00030E040E05FE30E94AB3820E030E04AE7CB
:101DE00054E40E94AB38C98EDA8EEB8EFC8E20E074
:101DF00030E040E05FE30E94CD390E94B23AC60E67
:101E0000D71EE81EF91ECD8EDE8EEF8EF8A28BA1B6
:101E100091E089278BA3DF91CF91FF90EF90DF9026
:101E2000CF900895CF92DF92EF92FF92CF93DF93FE
:101E3000EC016A017B0189899A89AB89BC89AB0174
:101E40009601281B390B4A0B5B0BDA01C901B7FD60
:101E500049C08D899E89AF89B88DAB019601281B39
:101E6000390B4A0B5B0BDA01C901181619061A0661
:101E70001B06C4F18AA18823A9F189859A85AB85BF
:101E8000BC850197A105B10551F461E08C81DF911A
:101E9000CF91FF90EF90DF90CF900C9444088D8D00
:101EA0009E8DAF8DB8A1AB019601281B390B4A0B53
:101EB0005B0BDA01C901B7FD04C0A601CE010E9487
:101EC000D00E8C819BA1992311F061E0E0CF60E0FE
:101ED0000E9444081BA2DF91CF91FF90EF90DF900A
:101EE000CF90089560E08C810E9444081BA28D89E8
:101EF0009E89AF89B88DC81AD90AEA0AFB0A8AA155
:101F0000882331F01C141D041E041F040CF41AA2B3
:101F10008CA1882301F31C141D041E041F04DCF68D
:101F20001CA2D9CF8F929F92AF92BF92CF92DF9295
:101F3000EF92FF920F931F93CF93DF93EC018E816B
:101F4000811104C088A1882309F445C07B018989D7
:101F50009A89AB89BC894A015B01881A990AAA0A45
:101F6000BB0AC501B40197FD53C00D891E892F8995
:101F7000388D4A015701801A910AA20AB30A9501C5
:101F8000840110161106120613060CF441C02A8DA6
:101F90002223A9F10C8D1D8D2E8D3F8D200F311F19
:101FA0002115310511F421E030E0FB8C50E040E0D8
:101FB0000E949B3960177107D8F4F1100AC0698537
:101FC0007A8520E030E0A9018C810E94790981E0C6
:101FD0008B8F81E0898FDF91CF911F910F91FF90BF
:101FE000EF90DF90CF90BF90AF909F908F9008952B
:101FF000FF2079F38C810E9434091B8EEACF69851A
:102000007A8520E030E0A9018C810E947909E1CF36
:10201000898D882301F38C810E943409198E1B8ECF
:1020200088A18823C1F218A2D6CF6F3FA9F0E62F6E
:10203000E295EF7044E0E49F90011124DC01ED9102
:10204000FC91E20FF31F6F7082819381B6E06B9F6A
:10205000800D911D1124089590E080E00895982F3F
:1020600080336CF08A3324F08F3524F08B3724F4DE
:1020700081E0089581341CF081E09B350CF080E014
:102080000895FC01828581110AC0A781B085CD0128
:102090000196908787838C91818781E082878185F3
:1020A00008951F93CF93DF93EC01162F0E944110E8
:1020B000811306C01A8681E0DF91CF911F910895A8
:1020C00080E0FACF0F931F93CF93DF938C01EB0146
:1020D0008991882369F0C8010E944110882379F012
:1020E000FE013197908198130DC0F8011286F0CF50
:1020F00090E080E0DF91CF911F910F91089582E0F1
:1021000090E0F8CF83E090E0F5CFCF93DF93EC0140
:10211000CE010E9441108B304CF489305CF488234E
:1021200059F081E08E8390E080E00BC08D3011F09B
:102130008032B9F71A86ECCF8E81811105C081E01B
:1021400090E0DF91CF91089582E090E0FACFDC013A
:1021500052969C915297915084E0989F900111243F
:102160005096ED91FC91E20FF31F228133812115EE
:10217000310579F041818081481758F481E0840F5E
:10218000818386E0489F200D311D112421153105E2
:1021900021F460E070E08FEF0895B901892F8295F6
:1021A000807F840F0895DF92EF92FF920F931F9329
:1021B000CF93DF93EC017B01D12C688979898A89DF
:1021C000D816E0F484E0D89E80011124060F171F72
:1021D000D80112966D917C916115710541F0D7017E
:1021E000ED91FC910280F381E02DC7011995F80172
:1021F0001382128210821182D394DFCF1A8A8FEF5A
:102200008C8BC617D70761F0D701ED91FC91028046
:10221000F381E02DC7011995D98BC88B84E08B8B96
:10222000DF91CF911F910F91FF90EF90DF90089574
:1022300020916203309163034091640350916503E0
:1022400061E08091000290910102825C964009F465
:1022500060E0809123040C94CE064F925F926F92BF
:102260007F928F929F92AF92BF92CF92DF92EF9226
:10227000FF920F931F93CF93DF9300D01F921F9273
:10228000CDB7DEB7DC012C912B32E1F12D32D9F53F
:102290000196EE24E394FC01208130ED320F3A30B8
:1022A00010F02E3291F58C0160E070E0CB01F80166
:1022B000219130ED832E820E39E0381508F444C0A8
:1022C0006A3949E97407840749E1940708F046C070
:1022D000AAE0B0E09B01AC010E948839912CB12C9E
:1022E000A12C2401350140945094609470944616BA
:1022F00057066806790690F1680D791D8A1D9B1DA9
:102300008F01D5CF0196E12CC6CF198229813A8160
:102310004B815C816D8170E080E090E00F900F90C8
:102320000F900F900F90DF91CF911F910F91FF9021
:10233000EF90DF90CF90BF90AF909F908F907F9065
:102340006F905F904F900895211108C0EE2051F1D9
:1023500061307105810550E89507A0F0F12CBAE0D5
:102360008B2E912CA12CB12C6115710530E88307BF
:102370009105F8F0A50194010E949B39CA01B901A9
:10238000F394F2CF22E029839B01AC01882799279F
:10239000DC01821B930BA40BB50B8A839B83AC835C
:1023A000BD83B4CF23E029836A837B838C839D83A1
:1023B000ADCFF801D8012D918D0130ED320F3A30BB
:1023C00010F4F394F6CF2E3201F58F010F5F1F4FFB
:1023D000F8010F5F1F4F2081A0EDDA2ED20EB9E079
:1023E000BD1598F06C3CECEC7E07ECE08E07910597
:1023F00078F7AAE0B0E09B01AC010E9488396D0D2E
:10240000711D811D911DFA94E3CF20812F7D10E075
:1024100000E0253409F050C021812D32B1F532960B
:10242000CC24C394DF0110E000E02F2D0F2C000C12
:10243000330BEAE0BE2EFD01DD9040ED4D0D4A303C
:10244000B0F5B09EA001B19E500D11240D2DDD0CF4
:10245000110B00531109040F151FA801420F531F40
:102460004732510544F3CC20B9F080E090E0A0E081
:10247000B0E8E11003C080E090E0DC0121E02983B6
:102480008A839B83AC83BD8341CF2B3219F0319675
:10249000C12CC8CF3296FCCF80E090E0A0E8BFEF1F
:1024A000E110ECCF80E090E0A0E8BFE7E7CFCC20E0
:1024B00019F01195019511092081211126CF0F0DD9
:1024C000111DF7FC1A950E944A3840E1A42E42E003
:1024D000B42E101611063CF011950195110958EF14
:1024E000A52E51E0B52ED12CC12C01151105E9F016
:1024F000F6E0CF16D104A9F000FF0DC0F601EE0FF3
:10250000FF1FEE0FFF1FEA0DFB1D25913591459131
:1025100054910E94AB38159507952FEFC21AD20A35
:10252000E4CF60E070E080EC9FE7E110905821E09C
:1025300029836A837B838C839D83E8CECF92DF924D
:10254000EF92FF920F931F93CF93DF937C016B0168
:102550008A01FC01C081D1814F3F510509F0B0F4DF
:10256000E881F9810480F581E02D4B5F5F4FCE015A
:102570001995009759F0FC010383DF91CF911F91CA
:102580000F91FF90EF90DF90CF900895E881F9814F
:102590000280F381E02DB601CE01199581E0F701AB
:1025A000828390E080E0E9CF1F93CF93DF93EC012B
:1025B000162F6A817B816115710589F04C815D81DF
:1025C000FB0183818417150651F4440F551F4F5F9B
:1025D0005F4F888199810E949E129B838A838A81A2
:1025E0009B81009759F02C813D81A9014F5F5F4F7E
:1025F0005D834C83820F931FFC011483DF91CF9185
:102600001F9108959F92AF92BF92CF92DF92EF9267
:10261000FF920F931F93CF93DF9300D01F921F92CF
:10262000CDB7DEB78C010E944110D82EF80112867A
:10263000F12CE12C60EFC62EC8010E944110F80178
:102640001286D81609F4B3C0811113C082E090E05D
:102650000F900F900F900F900F90DF91CF911F91DF
:102660000F91FF90EF90DF90CF90BF90AF909F9031
:1026700008958C3509F099C0C8010E944110882343
:1026800029F3EEE9F2E0853709F083C0F8011286FC
:1026900054E0952EB12CA12CC8010E944110882332
:1026A000A9F2813434F48053803130F083E090E03B
:1026B000CFCF8F7D8753F8CF44E0AA0CBB1C4A953F
:1026C000E1F7A82AF80112869A949110E5CFC50186
:1026D000985D8115944020F47501F3E0FF22ACCFA2
:1026E000C5019C5D81159440A8F483E0B822B70130
:1026F000762F6627770F770F6A297B2990E080E095
:102700000196603871058105910540F4C8010E9469
:10271000D41292CFB50190E080E0F3CF1982262F3A
:102720002F7320682A8326E096958795779567957D
:102730002A95D1F76032710580F4606C6B835E017D
:10274000E4E0AE0EB11CF50162915F01662309F46D
:1027500073CFC8010E94D412F6CF262F2F732068A2
:102760002B8386E0769567958A95E1F76031710550
:1027700038F4606E6C835E01F5E0AF0EB11CE3CF00
:1027800060686C83CD825E0126E0A20EB11CDBCFB7
:1027900032969081992309F489CF8913F9CF8181E9
:1027A000882309F483CFF8011286682FAFCF828186
:1027B0009381892B19F484E090E04ACF90E080E087
:1027C00047CF6F927F928F929F92AF92BF92CF929C
:1027D000DF92EF92FF920F931F93CF93DF93EC0161
:1027E0002A813B812C5F3F4F4C815D8144305105F4
:1027F00088F58901F90180E0942FB22FAE2FA21B3A
:10280000A91730F4F190A1E0F110A0E08A2BF6CFE7
:10281000811120C082E0EB018C83FB01802F8B1B98
:10282000891728F4E80189918E018193F7CF640F0D
:10283000751FFB011082DF91CF911F910F91FF90C7
:10284000EF90DF90CF90BF90AF909F908F907F9050
:102850006F9008958B01F901E40FF51F10828881B4
:1028600099814C815D81DC011396ED91FC913A01D7
:10287000E89477F86901C60CD71C3097C1F0A381A2
:10288000A615170481F449017F01B4E0EB0EF11C99
:102890008C149D0429F1D401AD904D01D701BD9058
:1028A0007D01AB14A9F30190F081E02DE6CF6A81A0
:1028B0007B810E949E12FC01A881B98113968D91A3
:1028C0009C911497918380831496FC93EE931397B5
:1028D0001B821A8285E0E8018C83F983E883ABCF01
:1028E00082818F5F8283F6CFDB01ED91FC9111979E
:1028F0000280F381E02DBC01CD011994AF92BF920B
:10290000CF92DF92EF92FF920F931F93CF93DF93BB
:10291000EC018B018C8180FF24C0A881B981FB016F
:102920008381948130E020E00097D9F0A817B9079F
:10293000D1F5F8016081718112968C9112978150C6
:1029400012968C93129781110CC08D919C911197C6
:102950002115310529F1F90191838083CD010E9470
:1029600074148C81807631F1209721F1F880580120
:10297000F5E1AF0EB11C8FEFF816D1F06F2DC50148
:102980000E9415106C01FC01E580B8010E947E14C4
:10299000F801818DF6018083F801F18EFE2CEBCFDA
:1029A00094838383DBCF9C01FC0180819181BCCF28
:1029B000F882F9821C82DF91CF911F910F91FF90D5
:1029C000EF90DF90CF90BF90AF9008950F931F933B
:1029D000CF93DF93EC01088119818B819C81009753
:1029E00049F0FC01208131813C832B83B8010E9496
:1029F0007414F3CF68817981CE010596DF91CF9170
:102A00001F910F910C94D310FC0101900020E9F765
:102A10003197AF01481B590BBC018FE693E00C9432
:102A2000C30C8F929F92AF92BF920F931F93CF933D
:102A3000DF93CDB7DEB7A1970FB6F894DEBF0FBE18
:102A4000CDBF19A2423008F44AE08E010F5D1F4F3E
:102A5000842E912CB12CA12CA50194010E949B39AC
:102A6000E62FB901CA01EA30F4F4E05DD801EE9333
:102A70008D01232B242B252B79F790E080E01097F4
:102A800019F0CD010E940415A1960FB6F894DEBF8F
:102A90000FBECDBFDF91CF911F910F91BF90AF902F
:102AA0009F908F900895E95CE1CF4AE00C94111556
:102AB000CF92DF92EF92FF92CF93DF936C01990F49
:102AC000EE08FF08F7FE19C06DE28FE693E00E9462
:102AD000590DEC0166277727CB016C197D098E090A
:102AE0009F094AE00E9411158C0F9D1FDF91CF9125
:102AF000FF90EF90DF90CF9008954AE0C701B601B4
:102B0000DF91CF91FF90EF90DF90CF900C94111553
:102B1000CF93DF930E94A60DEC0181EB92E00E941F
:102B200004158C0F9D1FDF91CF9108950F931F9374
:102B3000CF938C01C62FFC01638389E797E00E9445
:102B4000A60DF8018081082E000C990B0E945815E3
:102B50008FE697E00E94A60D8DE597E0CC2311F05B
:102B600086E697E00E94A60D8CE697E0CF911F9134
:102B70000F910C948815EF92FF920F931F93CF93B0
:102B8000DF937C018B01EA0183E497E00E94A60DAC
:102B9000C7010E94A60D87E397E00E94A60DC80119
:102BA0000E94A60D8BE297E00E94A60DCE010E9426
:102BB000A60D88E297E0DF91CF911F910F91FF90D2
:102BC000EF900C948815CF93DF936DE78FE693E039
:102BD0000E94590DEC0181EB92E00E9404158C0FCC
:102BE0009D1FDF91CF9108954F925F926F927F92D8
:102BF0008F929F92AF92BF92EF92FF920F931F938B
:102C0000CF93DF932A013B0148015901853009F434
:102C100080C008F061C0843009F46FC0E0911404F2
:102C2000F09115041481C7E8DCE044EAE42E4CE09E
:102C3000F42E83EE9CE00E94A60DC7010E94A60D13
:102C40008AED9CE00E94A60D812F110F990B0E9426
:102C500058158FEC9CE00E94A60DCE010E94A60D97
:102C60008AEB9CE00E94A60D8091C6059091C70555
:102C7000A091C805B091C905A3019201281B390B89
:102C80004A0B5B0BCA01B9010E94551588EA9CE00A
:102C90000E94A60D8091C6059091C705A091C80518
:102CA000B091C905A5019401281B390B4A0B5B0B98
:102CB000CA01B9010E945515DF91CF911F910F9163
:102CC000FF90EF90BF90AF909F908F907F906F900C
:102CD0005F904F900C94E315863039F1873009F0FE
:102CE0009DCFE0911C04F0911D041481CBE6DCE043
:102CF0008CE8E82E8CE0F82E9CCFE0911604F09141
:102D000017041481C2E8DCE03EE9E32E3CE0F32E38
:102D100090CFE0911804F09119041481C9E7DCE028
:102D200029E9E22E2CE0F22E84CFE0911A04F091F2
:102D30001B041481C0E7DCE092E9E92E9CE0F92E47
:102D400078CFCF92DF92EF92FF920F931F93CF93A2
:102D5000DF93EC018881813009F4D1C06A017B01E5
:102D6000813090F08230D1F480E294E00E94640ED1
:102D70008EE394E0DF91CF911F910F91FF90EF9040
:102D8000DF90CF900C94640E8981853009F47DC06A
:102D900070F48330F1F1843009F45AC0DF91CF919F
:102DA0001F910F91FF90EF90DF90CF9008958630A4
:102DB00009F488C0873091F7E0911C04F0911D045C
:102DC000309761F38681882349F381A18111E6CF91
:102DD0008E819F81A885B985C18AD28AE38AF48AC7
:102DE0008C0D9D1DAE1DBF1D858B968BA78BB08F47
:102DF00081E082A3CF010E94D00E0E811F81288521
:102E000039850C0D1D1D2E1D3F1DB701A60187E044
:102E10001CC0E0911404F0911504309709F4BECF62
:102E20008681882309F4BACF0E811F8128853985D0
:102E3000C18AD28AE38AF48A0C0D1D1D2E1D3F1D06
:102E4000058B168B278B308F83E00E94F415A6CF5D
:102E5000E0911604F0911704309709F49FCF868112
:102E6000882309F49BCF0E811F8128853985C18A6B
:102E7000D28AE38AF48A0C0D1D1D2E1D3F1D058B81
:102E8000168B278B308F84E0E0CFE0911804F0910F
:102E90001904309709F482CF8681882309F47ECF04
:102EA0000E811F8128853985C586D686E786F08AFA
:102EB0000C0D1D1D2E1D3F1D018B128B238B348B82
:102EC00085E0C3CFE0911A04F0911B04309709F418
:102ED00065CF8681882309F461CF0E811F81288503
:102EE0003985C586D686E786F08A0C0D1D1D2E1DF8
:102EF0003F1D018B128B238B348B86E0A6CF8981FB
:102F0000E0910E04F0910F04882339F0813009F02C
:102F100045CFE0911004F0911104309709F43ECFB1
:102F2000CE80DF80E884F9844C0D5D1D6E1D7F1D11
:102F3000418B528B638B748B31CF2F923F924F9288
:102F40005F926F927F928F929F92AF92BF92CF9239
:102F5000DF92EF92FF920F931F93CF93DF9300D0F6
:102F60001F92CDB7DEB72A013B010DE3809F900190
:102F70001124912C8901C90188569B4F9A8389831A
:102F80008AE0882E19019EE4290E311CE981FA811C
:102F90008081981608F092C0A92CB12CC801899C98
:102FA000800D911D1124825F9B4FFC01E25BFF4F5E
:102FB00020812330B9F0805B9F4FFC01C080D1801D
:102FC000E280F380C114D104E104F10469F4B30197
:102FD000A201C101989C800D911D1124825F9B4F1D
:102FE0000E94A1169394D2CFC40CD51CE61CF71CEA
:102FF000E4EEF4E030E020E08081811126C0FFE0C3
:10300000F29FC001F39F900D1124DC01AA52BB4F27
:103010008A9CF0018B9CF00D1124E00FF11FE45A03
:10302000FB4F282D01900D922A95E1F7825F9B4F6F
:10303000FC01EE52FF4FC082D182E282F3828A52BB
:103040009F4F21E0FC012083CDCF2F5F3F4F3F9664
:103050002031310589F689EF9BE00E94A60D8A9CFC
:10306000C0018B9C900D1124800F911F825F9B4F9C
:103070009C838B83FC01E25BFF4F608170E090E0FA
:1030800080E04AE00E9411158EEE9BE00E94A60DA2
:10309000EB81FC81E15BFF4F608170E090E080E0BC
:1030A0004AE00E9411158DED9BE00E94A60DC7011C
:1030B000B6010E9455150E94E31594CF0F900F9012
:1030C0000F900F90DF91CF911F910F91FF90EF9094
:1030D000DF90CF90BF90AF909F908F907F906F9038
:1030E0005F904F903F902F9008950F931F93CF9331
:1030F000DF938C01D62FC42F8DE898E00E94A60D97
:10310000C8010E94A60D82E898E00E94A60D88E6FC
:1031100098E0DD2311F08EE698E00E94A60D83E78B
:1031200098E00E94A60D8DE598E0CC2311F083E68F
:1031300098E00E94A60DDF91CF911F910F910C9402
:10314000E3150F931F93CF938C01C62F83E498E070
:103150000E94A60DC8010E94A60D88E398E00E9477
:10316000A60D8DE298E0CC2311F083E398E00E9455
:10317000A60DCF911F910F910C94E315CF92DF9282
:10318000EF92FF920F931F93CF938C01C62F69018B
:103190007A0183E198E00E94A60DC8010E94A60D65
:1031A00088E098E00E94A60D80EF97E0CC2311F014
:1031B00086EF97E00E94A60D8BEF97E00E94A60D88
:1031C000C701B6010E945515CF911F910F91FF9035
:1031D000EF90DF90CF900C94E3157F928F929F92A7
:1031E000AF92BF92CF92DF92EF92FF920F931F9315
:1031F000CF93DF93EC01762E49015A0167017801E4
:1032000086ED97E00E94A60DCE010E94A60D8BECE4
:1032100097E00E94A60D85EA97E0772011F08BEAEF
:1032200097E00E94A60D8DEB97E00E94A60DC501C8
:10323000B4010E94551580EB97E00E94A60DC701CE
:10324000B6010E945515DF91CF911F910F91FF900C
:10325000EF90DF90CF90BF90AF909F908F907F9036
:103260000C94E315EF92FF920F931F93CF937C0181
:103270008B01C42F8EE097E00E94A60DC7010E942B
:10328000A60D82E097E00E94A60DC8010E94A60D3F
:1032900087EF96E00E94A60D8CEE96E0CC2311F00D
:1032A00082EF96E00E94A60DCF911F910F91FF90A3
:1032B000EF900C94E315CF92DF92EF92FF920F9371
:1032C0001F93CF93DF938C01EB0169017A0182EDAB
:1032D00096E00E94A60DC8010E94A60D86EC96E01D
:1032E0000E94A60DCE010E94A60D8BEB96E00E94D7
:1032F000A60DC701B6010E945515DF91CF911F9110
:103300000F91FF90EF90DF90CF900C94E315009712
:1033100011F00C94041590E080E008950F931F9332
:10332000CF93DF93C0910E04D0910F04882321F036
:10333000C0911004D0911104209709F45FC061304E
:1033400009F456C008F451C0623009F454C08FEA41
:103350009BE00E94A60D6C8170E090E080E04AE066
:103360000E94111584E99BE00E94A60DC8010E94ED
:10337000A60D8FE79BE00E94A60D6A8D7B8D8C8D3C
:103380009D8D0091C6051091C7052091C80530910B
:10339000C905601B710B820B930B0E9455158DE6BE
:1033A0009BE00E94A60D6E8D7F8D88A199A1009152
:1033B000C6051091C7052091C8053091C905601B4D
:1033C000710B820B930B0E9455158CE59BE00E94BC
:1033D000A60DCE010D960E94871989E59BE0DF912D
:1033E000CF911F910F910C94881502E51BE0AFCF90
:1033F00009E41BE0ACCF01E41BE0A9CFDF91CF9142
:103400001F910F9108959091CE05911104C0909154
:10341000CF05992371F09091D00591110AC0609168
:10342000D505882321F0813021F46091D6050C94D4
:103430008E190895CF93DF93EC016E838EE696E0AC
:103440000E94A60D8F8198850E94871985E696E0D7
:103450000E94A60D8C81082E000C990B0E94581515
:103460008BE596E00E94A60D8E8181110AC089E449
:1034700096E00E94A60D88E596E0DF91CF910C942E
:10348000881582E596E0F5CF60E080910902909181
:103490000A020E941A1A60E080910B0290910C02BD
:1034A0000E941A1A60E080910D0290910E020E9413
:1034B0001A1A60E080910F02909110020E941A1A6D
:1034C00060E080911102909112020E941A1A60E04D
:1034D00080911302909114020E941A1A60E0809168
:1034E0001502909116020E941A1A8091170290916B
:1034F0001802009719F060E00E941A1A60E08091AB
:10350000190290911A020C9496151F93CF93DF9392
:10351000EC01162F8E81882321F060E0CE010E94FD
:103520001A1A8D81813021F460E08C810E94440858
:103530001C836D81812F0E9472088D81813021F45E
:1035400060E08C810E94440881EA96E00E94A60D0A
:103550008F8198850E94871988E896E00E94A60DC1
:103560008C81082E000C990B0E945815DF91CF9189
:103570001F910C94E315CF93DF93EC010E94851A01
:103580008C810E941B0821E0892B09F420E02A8706
:103590008C810E941B0821E0892B09F420E02B87F5
:1035A0008C810E941B0821E0892B09F420E02C87E4
:1035B0001D8A1E8A1F8A188EDF91CF9108959F92CF
:1035C000AF92BF92CF92DF92EF92FF920F931F9331
:1035D000CF93DF938A01452B09F468C0E9016B01A1
:1035E0006596FC016081CE010E941510FC01BB2490
:1035F000BA94892B09F0B5807601E894F7F8AA24EB
:10360000A3946701C00ED11E99249394309709F4B6
:103610004DC0AA2009F43FC08481843069F0853010
:1036200049F1823079F5DF010D900020E9F711971B
:10363000CD018E1B9F0B07C00190F081E02D90E023
:1036400080E0309781F79F77E816F90621F5D801D9
:10365000AC15BD05E1F46B2DCE01DF91CF911F912B
:103660000F91FF90EF90DF90CF90BF90AF909F9021
:103670000C941510A081B181FD01349613968C91A4
:1036800090E0E2CF90E080E0F0E0E0E0DDCF9D91DF
:1036900081919817E9F2A9246B2DCE010E94151093
:1036A000FC01892B09F4B2CFB580B0CF90E080E067
:1036B000DF91CF911F910F91FF90EF90DF90CF900E
:1036C000BF90AF909F900895FC0120813181C90186
:1036D0004A964281538164817581009759F0D901DE
:1036E0005E96EC91E03211F090E080E0009711F0EE
:1036F0000C94DF1A90E080E00895CF93DF93EB0104
:103700000E94641B009741F0FC012481263021F4C3
:103710008081DF91CF9108958881FBCFCF92DF9296
:10372000EF92FF92CF93DF9300D01F921F92CDB7FD
:10373000DEB70E94641BDC01892B09F446C0149695
:10374000EC911497E250ED3008F03FC0F0E088278C
:10375000E355F44E8F4F0C94E63AD41BE51BE71B60
:10376000EA1BBA1BE51BE51BE51BC81BE51BC81BB9
:10377000E51BEE1BCC908C2D0F900F900F900F90AF
:103780000F90DF91CF91FF90EF90DF90CF90089551
:10379000CD90DD90ED90FC908FEFC816D104E10440
:1037A000F10449F340F311C0CD010E942D113A8379
:1037B0004B835C836D83CA80DB80EC80FD8022308C
:1037C00059F3233049F3213069F0C12CD4CF8D91C6
:1037D0009C91EBCF8D919C910496E7CFCD90DD909D
:1037E000ED90FC9020E030E0A901C701B6010E94F5
:1037F000E13A87FDEACF20E030E04FE753E4C7012C
:10380000B6010E944538181604F3C701B6010E949C
:10381000B23AC62EB0CFCF92DF92EF92FF92CF9303
:10382000DF9300D01F921F92CDB7DEB70E94641BBA
:10383000DC01892B09F44BC01496EC911497E250EB
:10384000ED3008F044C0F0E08827E65DF34E8F4F7E
:103850000C94E63A561C671C6B1C6E1C371C671CCC
:10386000671C671C471C671C4C1C671C721C6C91F6
:1038700070E090E080E00F900F900F900F900F900D
:10388000DF91CF91FF90EF90DF90CF9008956D91F1
:103890007D918D919C91EFCF8D919D910D90BC91DB
:1038A000A02DB7FD14C0BC01CD01E5CFCD010E9414
:1038B0002D113A834B835C836D83CA80DB80EC805F
:1038C000FD80223059F1233059F1213079F060E048
:1038D00070E0CB01D0CF8D919C91E9CF8D919C91DF
:1038E0000496E5CFCD90DD90ED90FC9020E030E0A7
:1038F000A901C701B6010E94E13A87FDE8CF2FEF89
:103900003FEF4FE75FE4C701B6010E944538181644
:10391000F4F2C701B6010E94B23AADCFF7FCD7CF9F
:10392000C701B601A8CF8F929F92AF92BF92CF925C
:10393000DF92EF92FF920F931F93CF93DF9300D00C
:1039400000D0CDB7DEB749015A0167017801FB010C
:1039500001900020E9F73197E61BF70B9A838983E2
:103960007C836B83ED838F2F8F778E83CE010196BF
:103970000E94641B0097B9F0FC0124812A3041F0B9
:103980002C3089F480819181A281B381B7FD0BC075
:10399000CE0101960E940B1C86169706A806B90652
:1039A00010F44B015C01C501B401C616D706E80648
:1039B000F90610F4C701B60126960FB6F894DEBFDB
:1039C0000FBECDBFDF91CF911F910F91FF90EF9070
:1039D000DF90CF90BF90AF909F908F9008954F92BF
:1039E0005F926F927F92AF92BF92CF92DF92EF92EF
:1039F000FF920F931F93CF93DF939091CE05911178
:103A000005C09091CF05992309F4E8C09091D005A5
:103A10009111E4C0823008F0E1C081110AC0E09148
:103A20000E04F0910F04309759F481E08093D5058E
:103A3000D5C0E0911004F0911104309709F487C0CB
:103A40009089992309F480C00189128923893489D6
:103A5000041715072607370708F482C0882309F4DE
:103A6000CCC082E08093D605B9C08F898F5F8F8BE1
:103A70009D89891708F4ADC08FA5843658F40E943B
:103A8000ED37A30192010E9469398FA5681710F0E4
:103A90001F8A9FC01F8A888D882351F09D899501B8
:103AA000281B31099217130609F05CF4890F8D8BDE
:103AB0008B89823008F08DC0B701A6010E949D1746
:103AC00088C08BE292E00E94A60D6D8970E090E0C4
:103AD00080E04AE00E94111588E292E00E94881579
:103AE000E7CFCD8EDE8EEF8EF8A273C08DA581114B
:103AF00070C089A19AA1ABA1BCA1A7019601281B06
:103B0000390B4A0B5B0BDA01C901B7FD62C08DA10D
:103B10009EA1AFA1B8A58C199D09AE09BF091816C1
:103B200019061A061B060CF054C08FA5843610F037
:103B30000DA7BECF0E94ED37A30192010E94693903
:103B40008FA56817A8F345C0882309F46ECF81E0DC
:103B500089CF1092D505E0910E04F0910F0408C0B2
:103B60008823B9F31092D605E0911004F091110466
:103B7000309781F00091CA051091CB052091CC05BA
:103B80003091CD05040F151F261F371F018B128B97
:103B9000238B348B6A017B01182FCEE0D4E0AA245A
:103BA000AA94B12C94E6492E512C612C712C01E081
:103BB0008C89882371F08EA5893011F0181309C003
:103BC0008A89813009F48DCF08F44FCF823009F40F
:103BD0008DCF6E9634E0CA34D30751F7DF91CF9181
:103BE0001F910F91FF90EF90DF90CF90BF90AF901B
:103BF0007F906F905F904F90089582E017CFBF92B3
:103C0000CF92DF92EF92FF920F931F93CF93DF93A8
:103C1000EC01198D1F3F81F0612F45960E94151010
:103C2000FC018081898F309709F477C014828FEF6F
:103C30008583BF01812F76C06C0135E0C30ED11C96
:103C4000E880F9808F89882341F0C6010E94A7107F
:103C5000E62FF72F182F309749F71F89988D1913E2
:103C600024C0103109F459C0110F6D897E89D70124
:103C7000ED91FC91B4E01B9FA0011124C616D7065C
:103C800009F044C00190F081E02DBA01C7011995F7
:103C9000009709F442C020E1F601DC0101900D9289
:103CA0002A95E1F79E8B8D8B188F0D891E898F8940
:103CB00021E0280F2F8BE4E08E9FC0011124080F14
:103CC000191F90E1B92E203111F48FE0B82EF6E0E3
:103CD000BF9EB0011124D701ED91FC910190F081BC
:103CE000E02DC7011995F80193838283892B09F48C
:103CF000B12CD801BC9211961C92012B71F0C60117
:103D00000E94A710E62FF72F182F8DCF0480F58182
:103D1000E02DC7011995009729F681E08A8360E0BC
:103D200070E08FEFDF91CF911F910F91FF90EF9097
:103D3000DF90CF90BF9008954F925F926F927F92E5
:103D40008F929F92AF92BF92CF92DF92EF92FF92AB
:103D50000F931F93CF93DF9300D01F921F92CDB785
:103D6000DEB78C017B01B42E0E9485106C01892B7B
:103D700009F048C0C8010E944110863609F4A9C163
:103D800024F5873229F08B3561F1823209F0A8C120
:103D9000D80115961C921E92149712968D919C91A3
:103DA0001397892B39F48D919C910E94B306F801E9
:103DB00093838283C8010E9402136C01892B11F541
:103DC000B701C8010E94E1131DC0843709F460C126
:103DD0008B3709F47BC08E3609F082C16CEC72E03F
:103DE00060C180E4D70114968C931497E114F10418
:103DF00021F08FEF8C9311968C93B1101AC025E0AF
:103E0000C22ED12CC6010F900F900F900F900F90E3
:103E1000DF91CF911F910F91FF90EF90DF90CF90A6
:103E2000BF90AF909F908F907F906F905F904F90DA
:103E30000895F8011286C8010E948510009751F577
:103E40006DE5C8010E9451108111DCCFBA94D801F0
:103E50001B966D907C90C3010E94FF1DA82E4B0104
:103E6000672B21F494E0C92ED12CCCCFF7016181CE
:103E70006F3F91F0C30145960E941510DC01159625
:103E8000AC92F701A1824B2DB401C8010E949C1E87
:103E9000009739F06C01B6CFD7018C9311968C93B3
:103EA000F2CFC8010E9485100097A1F76DE5C80107
:103EB0000E9451108111A6CF6CE2C8010E945110DE
:103EC0008111C5CF83E0C82ED12C9CCF80E2F701B1
:103ED0008483E114F10419F08FEF80838183BB2088
:103EE00009F48DCFD8011A961C92C8010E94851042
:103EF000009781F66DE7C8010E945110811182CFB1
:103F0000BA94F8011582148282819381892B49F435
:103F1000808191810E94B306D80113969C938E9361
:103F20001297C8010E9441108732F9F08232E9F0FD
:103F3000C8010E944110D82E0E942F10882311F230
:103F4000F80112866D2DC8010E94D412C8010E948A
:103F50004110D82E0E942F108111F2CFD801129655
:103F60008D919C91892B41F47DCFC8010E94021351
:103F70006C01892B09F046CFC8010E9485106C01A5
:103F8000892B09F03FCF6AE3C8010E9451108823B2
:103F900009F498CFD8011296ED91FC9113971496DD
:103FA0008D919C911597E80FF91F148214966D91CD
:103FB0007C9115977F771B966D907C901C9712963D
:103FC0008D919C910496272F2F77BA2DB078AB2E28
:103FD000A22AE894A7F89301AC017A2DC7010E94A8
:103FE000DF1A6C01009761F5C3010E94FF1D482E86
:103FF0004B01672B09F436CFC3010E94FF1D582ED9
:10400000962FC92ED72EC114D10409F42BCFF40159
:104010005582D70111966C916F3F71F0C30145969F
:104020000E941510FC014582D70111965C92B401E3
:10403000C8010E94E11307C0F70140825182F7CF07
:10404000B3010E947E144B2DB601C8010E949C1E34
:104050006C01892B09F0D6CEC8010E9485106C0135
:10406000892B09F0CFCE6DE7C8010E945110811154
:10407000C9CE6CE2C8010E945110882309F422CFF6
:10408000C8010E9485106C01892B09F43ACFBACE81
:1040900086E0D70114968C93149781E08C9361ECA1
:1040A00072E0C8010F900F900F900F900F90DF916A
:1040B000CF911F910F91FF90EF90DF90CF90BF9025
:1040C000AF909F908F907F906F905F904F900C94E7
:1040D000621086E0F7018483108266EC72E0E1CF23
:1040E000C8010E9441104801FDE08F0E911CB12CC7
:1040F000782CA92C803384F08A3384F43FE3B31600
:10410000A9F0D8011A961C92B394F40181934F013F
:10411000C8010E944110EECF8B3281F393ED980FCE
:10412000923060F3982F9F7D953441F30B0D111D54
:10413000D8011D961C92872D9A2D0E942D113A832D
:104140004B835C836D838A819B81AC81BD812230EE
:10415000A9F0233059F0213009F0B4CE2EE0F70158
:10416000248380839183A283B3834CCE2AE0F7011A
:10417000248380839183A283B38344CE2CE0F7CF42
:104180004F925F926F927F92AF92BF92CF92DF92E7
:10419000EF92FF920F931F93CF93DF93CDB7DEB7CC
:1041A000C25FD1090FB6F894DEBF0FBECDBF5E016E
:1041B0002EECA20EB11C82E092E0F5019183808387
:1041C000128214821382C5010596968B858B178AFD
:1041D00084E0808F8FEF818F168E878F9E012F5FF7
:1041E0003F4F790110E000E00E94080960937703D7
:1041F000709378038093790390937A038FE693E02A
:104200000E94FF0C97FD02C00C94A82D0E94080983
:1042100040907703509078036090790370907A0310
:1042200064197509860997094090730350907403C7
:104230006090750370907603641575058605970583
:10424000E8F20F37110561F48FE693E00E94210D2B
:10425000892B31F08FE693E00E94FF0C0A97A1F7BB
:10426000E1E0F0E0EC0FFD1FE00FF11F10820530E0
:10427000110578F045E050E061ED72E0CE01019665
:104280000E94F43C892B29F488EA98E00E94881562
:1042900010C6F50160817181C50105960E94D31099
:1042A000F501128200811181F501838194810097CB
:1042B00051F0FC0120813181F50134832383B80161
:1042C0000E947414F1CF168ECF57DF4FB982A882A7
:1042D000C158D040CD57DF4F19821882C358D04003
:1042E000CB57DF4F19821882C558D040C957DF4FCE
:1042F0001882C758D04021E030E02C0F3D1FC8572E
:10430000DF4F39832883C858D040C557DF4F188204
:10431000CB58D040C457DF4FB982A882CC58D04088
:104320004AE0B501665E7F4FCE018F579F4F0E94D6
:104330009C1E8C01892B69F4C657DF4F8881CA58AF
:10434000D040882331F0F501868D83FF02C003E061
:1043500010E0CD57DF4F88819981C358D040009736
:1043600051F0CF57DF4FE881F981C158D0406081CB
:1043700071810E94741401151105F1F081E396E03A
:104380000E94A60DF801EE0FFF1FEF50FB4F859125
:1043900094910E94A60D8EE296E00E9488158FE609
:1043A00093E00E94210D181619060CF082C58FE6C5
:1043B00093E00E94FF0CF3CFCF57DF4FB982A88262
:1043C000C158D04087ED92E0CD57DF4F9983888365
:1043D000C358D04083E0CB57DF4F8883C558D040C7
:1043E000CA57DF4F1881C658D04010781068CA5796
:1043F000DF4F1883C658D040CE018F579F4F0E9481
:10440000641B009709F455C5FC018481882309F4D5
:1044100050C51068CA57DF4F1883C658D040CE0128
:104420008F579F4F0E94641BDC01892B09F4DBC06E
:104430001496EC911497E250ED3008F0D4C0F0E0FF
:104440008827EA5DFD4D8F4F0C94E63AF622F32261
:1044500021232423F322F322F322F3223322F32213
:10446000E322F32228238D919D910D90BC91A02DE4
:104470008115F0E89F07A105B10508F0B4C0BC01A3
:10448000693D91E0790709F457C10CF0FFC1683725
:10449000F1E07F0709F4A9C60CF053C1673331E09E
:1044A000730709F492C50CF010C16D3251E0750725
:1044B00009F4AAC40CF0FDC06C3291E0790709F44C
:1044C000ABC4693E93E0790709F436C70CF0D9C351
:1044D0006836710511F40C948B2C0CF045C36536CD
:1044E000710511F40C94E42A0CF018C364367105BC
:1044F00009F079C00E9408096B017C01C0923A035F
:10450000D0923B03E0923C03F0923D0387ED95E0AF
:104510000E94BE0E1092CE051092D005E4EEF4E09B
:1045200084ED95E010823F968E179F07D9F7E091B2
:104530001404F0911504309719F084810E94340915
:10454000E0911604F0911704309719F084810E94CD
:104550003409E0911804F0911904309721F060E0DB
:1045600084810E944408E0911A04F0911B04309762
:1045700021F060E084810E944408E0911C04F091E5
:104580001D04309729F015A260E084810E94440840
:1045900080E792E00E94A60D80913E0390913F0338
:1045A000A0914003B0914103A7019601281B390B4C
:1045B0004A0B5B0BCA01B9010E9455150E94E31515
:1045C0000E94441A76C48D919D910D90BC91A02DAE
:1045D0008C019D0110582F4F3F4F011511052140AF
:1045E000310508F44CCF8DEF94E050CECD010E9400
:1045F0002D11C251DF4F2883CE5ED040C151DF4F15
:104600003883CF5ED040C051DF4F4883C05FD04079
:10461000CF50DF4F5883C15FD040CE50DF4F68830B
:10462000C25FD040C151DF4FC880D980EA80FB8093
:10463000CF5ED040223051F12330A1F1213099F6E4
:104640000BC08D919C91D3CF8D919C910496CFCF2F
:10465000CD90DD90ED90FC9020E030E040E057EC14
:10466000C701B6010E94E13A87FDBDCF20E03EEFD1
:104670004FEF56E4C701B6010E94453818160CF4F6
:10468000B2CFC701B6010E94AB3AFACED701C6013C
:104690009058AF4FBF4F0097A140B10508F0A3CF8E
:1046A000B601EECEC11480E8D806E104F104C0F3EF
:1046B0009ACF6F32E1E07E0709F463C46633F1E01C
:1046C0007F0709F0FECE60E081C4633721E0720706
:1046D00009F4A4C33CF5693341E0740709F0F1CE55
:1046E00000910F02109110020E940809F801618BDD
:1046F000728B838B948BC584D684E784F088DC012D
:10470000CB018C0D9D1DAE1DBF1D858B968BA78B80
:10471000B08F81E080A34AE954E060EA74E085EA62
:1047200094E050C4643751E0750709F4DBC3653782
:1047300081E0780709F0C5CE683D714009F478C082
:10474000B8C3613991E0790709F463C4B4F56E37F1
:10475000F1E07F0709F43FC424F56D3731E07307BA
:1047600009F0AFCEEE24EA94FE2C00E010E021E048
:1047700030E040E050E06BED72E0C5010E94931C18
:104780009B01AC01E0910F02F0911002218732876A
:104790004387548768EB74E082EC94E00E945B19D5
:1047A00088C3623841E0740709F434C5603951E0C8
:1047B000750709F086CE60E02DC46B3981E078077B
:1047C00009F44FC464F46339E1E07E0709F427C4B7
:1047D0006A39F1E07F0709F074CE60E043C46D39B7
:1047E00021E0720709F461C4683D31E0730709F004
:1047F00068CE10ECE12E17E2F12E09E010E021E086
:1048000030E040E050E065EE72E0C5010E94931C8C
:104810009B01AC01E0911102F091120221873287D5
:10482000438754876CE874E085E994E00E945B1943
:10483000CF57DF4FB982A882C158D04085EE92E0B1
:10484000CD57DF4F99838883C358D04088E0CB573A
:10485000DF4F8883C558D040CA57DF4F8881C6587C
:10486000D04080788068CA57DF4F8883C658D040D0
:10487000CE018F579F4F0E940B1C609330027093A4
:104880003102809332029093330278C36F3942E051
:10489000740709F444C40CF084C0653F81E07807D4
:1048A00009F425C454F5623EE1E07E0709F4DFC354
:1048B000C4F46C3D21E0720709F003CE15E3E12E4C
:1048C000F12C00E010E022E030E040E050E06EEE3D
:1048D00072E0C5010E94931C809111029091120216
:1048E00096C4663E31E0730709F4A7C4643F41E013
:1048F000740709F0E6CD60E0FBC3683552E0750748
:1049000009F404C4C4F4603492E0790709F0D9CD05
:1049100015E3E12EF12C00E010E022E030E040E071
:1049200050E06EEE72E0C5010E94931C809115026A
:10493000909116026CC46935E2E07E0709F4DDC38C
:104940006B35F2E07F0709F0BCCD009117021091A2
:1049500018020115110509F4ACC20E940809AB0147
:10496000BC01F801418B528B638B748B85859685D6
:10497000A785B089840F951FA61FB71F858B968BBF
:10498000A78BB08FFF24F394F2A2C8010E94D00E2F
:10499000F801F4A24BE454E061E574E086E594E0AC
:1049A00011C3643823E0720709F41DC40CF075C00C
:1049B000643A42E0740709F453C40CF054C0603AFE
:1049C00082E0780709F07DCD10ECE12E17E2F12EA0
:1049D00009E010E021E030E040E050E065EE72E0F8
:1049E000C5010E94931C9B01AC01E0911702F0915C
:1049F0001802309751F0258736874787508B6CE235
:104A000074E085E394E00E945B19CF57DF4FB982D1
:104A1000A882C158D04085EE92E0CD57DF4F9983F0
:104A20008883C358D04088E0CB57DF4F8883C55870
:104A3000D040CA57DF4F8881C658D0408078806800
:104A4000CA57DF4F8883C658D040CE018F579F4F3B
:104A50000E940B1C60932C0270932D0280932E02F7
:104A600090932F028BC2693A92E0790709F4A4C3AC
:104A70006A3AE2E07E0709F024CDE0911702F09156
:104A80001802309709F415C281E081A34FEF53E07B
:104A90006BE074E080E194E095C2603DF3E07F0755
:104AA00009F4F8C3BCF4653833E0730709F493C321
:104AB000673843E0740709F004CD809119029091A2
:104AC0001A020E94BE0E49EE53E06FEE73E084EFCF
:104AD00093E078C2643354E0750709F411C460367A
:104AE00085E0780709F0EDCC80910B0290910C02E3
:104AF000892B09F4DEC115E3E12EF12C00E010E072
:104B000022E030E040E050E06EEE72E0C5010E942D
:104B1000931C80910B0290910C020BC466367105B8
:104B200009F4F0C66736710509F05DCD0E940809E9
:104B30006B017C018091CE0581110FC00E94AB07F3
:104B4000C092C605D092C705E092C805F092C9058B
:104B5000B701A60180E00E949D1747E555E06DE58D
:104B600075E088E695E02EC2693C710509F4A2C49F
:104B70000CF07DC06936710509F035CDC251DF4FAB
:104B80001882CE5ED040CF57DF4FB982A882C1587D
:104B9000D04080E193E0CD57DF4F99838883C3589D
:104BA000D04086E0CB57DF4F8883C558D040CA57E6
:104BB000DF4F8881C658D04080788068CA57DF4F61
:104BC0008883C658D040BE0162517F4FCE018F57B7
:104BD0009F4F0E947D1B182F0E9408096B017C01CA
:104BE0008091CE05882309F4AFC71093D005112317
:104BF00009F42EC7C092D105D092D205E092D30518
:104C0000F092D4050E94AB07E0911404F0911504D2
:104C1000309719F084810E943409E0911604F091D4
:104C20001704309719F084810E9434098091DA05C5
:104C30008823B9F08091E805811113C087ED95E0D4
:104C40000E94BE0EC092E905D092EA05E092EB0503
:104C5000F092EC0581E08093E805F8941092D90574
:104C60007894412F68E275E087E395E06AC06C3D77
:104C7000710509F471C4683E734009F0B4CC60E07A
:104C80005CC3643125E0720709F4B8C30CF05CC062
:104C9000633344E0740709F453C3E4F562337440AA
:104CA00009F0A1CCCF57DF4FB982A882C158D040BC
:104CB00082EF92E0CD57DF4F99838883C358D0406D
:104CC00087E0CB57DF4F8883C558D040CA57DF4FA6
:104CD0008881C658D04080788068CA57DF4F888363
:104CE000C658D040CE018F579F4F0E940B1C6B01BE
:104CF0007C01C0920502D0920602E0920702F09277
:104D000008020E946607A70196016DE176E085E240
:104D100096E044CD683394E0790709F463C36933BE
:104D2000744009F060CC81E08093D20682EC96E07A
:104D3000909301028093000241E06AEF75E085E004
:104D400096E00E943219B5C06F35F5E07F0709F48F
:104D500057C30CF041C0653135E0730709F44AC30D
:104D60006E35754009F03FCCCF57DF4FB982A8822E
:104D7000C158D04082EF92E0CD57DF4F99838883AE
:104D8000C358D04087E0CB57DF4F8883C558D04009
:104D9000CA57DF4F8881C658D04080788068CA578C
:104DA000DF4F8883C658D040CE018F579F4F0E9457
:104DB0000B1C6B017C01C0920502D0920602E092AE
:104DC0000702F09208020E946607A701960165EDAE
:104DD00075E08DED95E0E2CC643655E0750709F499
:104DE00061C36536754009F0FECB81E08093AC0667
:104DF0008CE996E0909301028093000241E062EB1F
:104E000075E08DEB95E09DCF61E080910D02909172
:104E10000E020E941A1A4DC060E0F7CFEE24EA9409
:104E2000FE2C00E010E021E030E040E050E06BEDCF
:104E300072E0C5010E94931C9B01AC01E0910D0240
:104E4000F0910E02218732874387548763EE74E026
:104E50008DEE94E00E945B19CF57DF4FB982A88294
:104E6000C158D0408BED92E0CD57DF4F99838883B6
:104E7000C358D04089E0CB57DF4F8883C558D04016
:104E8000CA57DF4F8881C658D04080788068CA579B
:104E9000DF4F8883C658D040CE018F579F4F0E9466
:104EA0000B1C60933402709335028093360290930A
:104EB0003702C5010E94E614CE50DF4F0FB6F894BA
:104EC000DEBF0FBECDBFDF91CF911F910F91FF903D
:104ED000EF90DF90CF90BF90AF907F906F905F90FA
:104EE0004F90089510ECE12E17E2F12E09E010E04A
:104EF00021E030E040E050E065EE72E0C5010E9444
:104F0000931C9B01AC01E0910D02F0910E022587EC
:104F100036874787508B66ED74E08FED94E00E94F2
:104F20005B19CF57DF4FB982A882C158D04085EEB8
:104F300092E0CD57DF4F99838883C358D04088E0F3
:104F4000CB57DF4F8883C558D040CA57DF4F888181
:104F5000C658D04080788068CA57DF4F8883C658CB
:104F6000D040CE018F579F4F0E940B1C6093380298
:104F70007093390280933A0290933B020E94181179
:104F800098CF00910D0210910E020E940809F801BD
:104F9000618B728B838B948BC584D684E784F08875
:104FA000DC01CB018C0D9D1DAE1DBF1D858B968B2D
:104FB000A78BB08F81E080A347EC54E06DEC74E0E8
:104FC00082ED94E00E94BB1574CF61E080910F02E6
:104FD000909110021ECF10ECE12E17E2F12E09E0A5
:104FE00010E021E030E040E050E065EE72E0C50105
:104FF0000E94931C9B01AC01E0910F02F091100202
:10500000258736874787508B6AEA74E083EB94E004
:10501000C5CB61E08091110290911202FACE00910D
:105020001102109112020E940809F8016587768723
:105030008787908BC184D284E384F484DC01CB0124
:105040008C0D9D1DAE1DBF1D818B928BA38BB48BD0
:1050500081E0858B4CE754E062E874E087E894E0F7
:10506000B1CF61E08091130290911402D2CE10EC86
:10507000E12E17E2F12E09E010E021E030E040E0FF
:1050800050E065EE72E0C5010E94931C9B01AC01EB
:10509000E0911302F09114022187328743875487ED
:1050A0006DE674E086E794E079CB009113021091ED
:1050B00014020E940809F801658776878787908B1C
:1050C000C184D284E384F484DC01CB018C0D9D1D6A
:1050D000AE1DBF1D818B928BA38BB48B81E0858B22
:1050E0004CE554E062E674E087E694E06BCF61E063
:1050F00080911502909116028CCE809117029091AA
:10510000180261E0009709F084CED3CE8091170297
:105110009091180260E0009709F07BCECACEEE2491
:10512000EA94FE2C00E010E021E030E040E050E0A6
:105130006BED72E0C5010E94931C9B01AC01E091F4
:105140001702F0911802309779F0211531054105C9
:10515000510521F021873287438754876BE374E040
:1051600085E494E00E945B19CF57DF4FB982A88293
:10517000C158D0408BED92E0CD57DF4F99838883A3
:10518000C358D04089E0CB57DF4F8883C558D04003
:10519000CA57DF4F8881C658D04080788068CA5788
:1051A000DF4F8883C658D040CE018F579F4F0E9453
:1051B0008E1B80932B027DCEE0911702F091180296
:1051C000309709F476CE11A246E154E061E274E032
:1051D00086E294E0F7CE61E08091190290911A0284
:1051E0000E94961566CE60E0F7CF15E3E12EF12C14
:1051F00000E010E022E030E040E050E06EEE72E0CF
:10520000C5010E94931C80910D0290910E020E9494
:10521000851A4FCE15E3E12EF12C00E010E022E0DC
:1052200030E040E050E06EEE72E0C5010E94931C59
:1052300080910F0290911002EACF15E3E12EF12C3C
:1052400000E010E022E030E040E050E06EEE72E07E
:10525000C5010E94931C8091130290911402D7CF34
:105260008091170290911802892B09F422CE15E340
:10527000E12EF12C00E010E022E030E040E050E0D0
:105280006EEE72E0C5010E94931C8091170290910E
:105290001802BDCF15E3E12EF12C00E010E022E072
:1052A00030E040E050E06EEE72E0C5010E94931CD9
:1052B000F62E0091190210911A02F80184858823B4
:1052C00031F060E080810E944408F8011486F80102
:1052D000F08261E08F2D0E94720860E0F801808109
:1052E0000E94440885EA93E00E94A60DF80180819F
:1052F000082E000C990B0E9458150E94E315D9CD79
:105300008091090290910A02892B09F4D2CD15E30C
:10531000E12EF12C00E010E022E030E040E050E02F
:105320006EEE72E0C5010E94931C8091090290917B
:105330000A020E94BB1ABDCD61E082EC96E069CD05
:10534000CF57DF4FB982A882C158D0402AEFE22E52
:1053500022E0F22ECD57DF4FF982E882C358D040C9
:1053600015E0CB57DF4F1883C558D040CA57DF4FE1
:105370008881C658D04080788068CA57DF4F8883BC
:10538000C658D040CE018F579F4F0E948E1B0E945F
:105390009307CF57DF4FB982A882C158D040CD576D
:1053A000DF4FF982E882C358D040CB57DF4F1883D4
:1053B000C558D040CA57DF4F8881C658D040807842
:1053C0008068CA57DF4F8883C658D040CE018F57B8
:1053D0009F4F0E940B1C9B01AC016EE076E084E1C4
:1053E00096E0DCC91092D20640E066EE75E081EFEF
:1053F00095E0A7CC61E08CE996E00BCD60E0FBCFB7
:10540000CF57DF4FB982A882C158D0409AEFE92E1A
:1054100092E0F92ECD57DF4FF982E882C358D04091
:1054200015E0CB57DF4F1883C558D040CA57DF4F20
:105430008881C658D04080788068CA57DF4F8883FB
:10544000C658D040CE018F579F4F0E948E1B0E949E
:105450009307CF57DF4FB982A882C158D040CD57AC
:10546000DF4FF982E882C358D040CB57DF4F188313
:10547000C558D040CA57DF4F8881C658D040807881
:105480008068CA57DF4F8883C658D040CE018F57F7
:105490009F4F0E940B1C9B01AC0166EC75E08CECED
:1054A00095E07CC91092AC0640E06EE975E089EAAF
:1054B00095E047CCCF57DF4FB982A882C158D04082
:1054C0008AEFE82E82E0F82ECD57DF4FF982E8828E
:1054D000C358D04015E0CB57DF4F1883C558D04094
:1054E000CA57DF4F8881C658D04080788068CA5735
:1054F000DF4F8883C658D040CE018F579F4F0E9400
:105500008E1B0E949307CF57DF4FB982A882C158E4
:10551000D040CD57DF4FF982E882C358D040CB57F7
:10552000DF4F1883C558D040CA57DF4F8881C6580F
:10553000D04080788068CA57DF4F8883C658D040F3
:10554000CE018F579F4F0E940B1C9B01AC016DE851
:1055500075E083E995E022C9CF57DF4FB982A88271
:10556000C158D04080E093E0CD57DF4F99838883C6
:10557000C358D04088E0CB57DF4F8883C558D04010
:10558000CA57DF4F8881C658D04080788068CA5794
:10559000DF4F8883C658D040CE018F579F4F0E945F
:1055A0000B1C6B017C01C0926203D0926303E092FA
:1055B0006403F09265030E941811A701960163E746
:1055C00075E082E895E0EAC80E9408096B017C0159
:1055D000C0923E03D0923F03E0924003F092410319
:1055E00087ED95E00E94BE0E1092CF051092D00577
:1055F000C092C605D092C705E092C805F092C905D1
:1056000081E08093CE0580E294E00E94640E8EE3F8
:1056100094E00E94640E0EE014E0F801848988236F
:1056200041F08289813009F03EC1C58ED68EE78E69
:10563000F0A2025E1F4FF4E00A341F0771F7E4EE98
:10564000F4E084ED95E010823F968E179F07D9F71E
:10565000E0910E04F0910F04309721F0118A128A24
:10566000138A148AE0911004F0911104309721F00C
:10567000118A128A138A148AE0911C04F0911D0485
:105680003097A9F0118A128A138A148A158A168A09
:10569000178A108E118E128E138E148E158E168E02
:1056A000178E10A212A213A214A281E085A381E694
:1056B00093E00E94881588E193E00E94A60D609116
:1056C00005027091060280910702909108020E94E3
:1056D000551586E093E00E94A60D809100029091FE
:1056E0000102825C964009F40AC180EB92E00E94BC
:1056F000A60D82EF92E00E94A60D60916203709168
:10570000630380916403909165030E9455150E9484
:10571000E315E0903802F090390200913A021091BE
:105720003B02209134023091350240913602509173
:105730003702609181068EEE92E00E94ED18E090B3
:105740006706F09068060091690610916A0620913C
:10575000630630916406409165065091660660913B
:10576000600689EE92E00E94ED182091300230919F
:105770003102409132025091330260914A0684EE28
:1057800092E00E94BE182091370630913806409171
:10579000390650913A06609134068EED92E00E94EF
:1057A000BE18E0902C02F0902D0200912E02109174
:1057B0002F0220912B0230E050E040E06091F30591
:1057C00088ED92E00E94ED186091190683ED92E059
:1057D0000E94A1186091DA0588EC92E00E94A1185D
:1057E0004091D2066091C8068FEB92E00E94751836
:1057F0004091AC066091A20686EB92E00E9475187B
:1058000080913E0390913F03A0914003B0914103EA
:10581000E0910902F0910A0280839183A283B3830D
:10582000E0910B02F0910C0280839183A283B383F9
:10583000E0910D02F0910E0280839183A283B383E5
:10584000E0910F02F091100280839183A283B383D1
:10585000E0911102F091120280839183A283B383BD
:10586000E0911302F091140280839183A283B383A9
:10587000E0911502F091160280839183A283B38395
:10588000E0911702F0911802309721F08083918304
:10589000A283B383E0911902F0911A028087918765
:1058A000A287B38706CB823009F0C3CE41A452A4AD
:1058B00063A474A460E070E0CB0114141504160412
:1058C000170434F40E94ED37A30192010E94693954
:1058D0006C0D7D1D8E1D9F1DF80161A372A383A316
:1058E00094A381A592A5A3A5B4A58C0D9D1DAE1D65
:1058F000BF1D85A396A3A7A3B0A715A69ACE83EB39
:1059000092E0F5CE8091CE0581110C9444210E9445
:10591000441A0C944421C251DF4F1882CE5ED0400D
:10592000CF57DF4FB982A882C158D04089E093E0B9
:10593000CD57DF4F99838883C358D04086E0CB573B
:10594000DF4F8883C558D040CA57DF4F8881C6587B
:10595000D04080788068CA57DF4F8883C658D040CF
:10596000BE0162517F4FCE018F579F4F0E947D1B1A
:10597000182F0E9408092091CE05211166C01093AE
:10598000CF05112369F16093C6057093C705809315
:10599000C8059093C9050E94AB0780E294E00E947D
:1059A000640E8EE394E00E94640EE0910E04F09188
:1059B0000F04309721F0118A128A138A148AE09119
:1059C0001004F0911104309721F0118A128A138A81
:1059D000148A4091CF0562E475E08CE495E0B1C98A
:1059E0000E94AB07E0911404F0911504309719F070
:1059F00084810E943409E0911604F09117043097D5
:105A000019F084810E943409E0911804F09119047E
:105A1000309721F060E084810E944408E0911A04EC
:105A2000F0911B04309721F060E084810E944408CB
:105A3000E0911C04F0911D04309721F060E0848116
:105A40000E9444080E941811C4CF1111C2CFFACF8E
:105A50008091D1059091D205A091D305B091D40544
:105A6000B701A601481B590B6A0B7B0BEEE0F4E073
:105A700084898823A1F08289813009F04AC0858D0C
:105A8000968DA78DB0A10097A105B10541F0840FB7
:105A9000951FA61FB71F858F968FA78FB0A37E96E1
:105AA00034E0EA34F30721F78091DA05882309F41A
:105AB000D8C88091E805882309F4D3C8F894609188
:105AC000DF057091E0058091E1059091E20540903D
:105AD000E9055090EA056090EB057090EC056419BB
