:100000000C946F060C943A210C940F210C94E4206C
:100010000C94B9200C948E200C9463200C943820FE
:100020000C940D200C94A0060C94A0060C94A00631
:100030000C94A0060C9465210C94A0060C94A006C8
:100040000C94A0060C94A0060C94A0060C94A00698
:100050000C94A0060C94A0060C94A0060C94C31F4C
:100060000C94A0060C94EF210C94C5210C94A006CE
:100070000C94A0060C94A0060C94A0060C94A00668
:100080000C94A0060C94A0060C94A0060C94A00658
:100090000C94A0060C94A0060C94A0060C94A00648
:1000A0000C94A0060C94A0060C94A0060C94A00638
:1000B0000C94A0060C94A0060C94A0060C94A00628
:1000C0000C94A0060C94A0060C94A0060C94A00618
:1000D0000C94A0060C94A0060C94A0060C94A00608
:1000E0000C94A0060C94472C0C9423320C94401BC7
:1000F0000C94C01F0C948D070C94BD1F0C947607B4
:100100000C947E220C945F070C943E0C0C94E3310B
:100110000C9472070C94F1310C946B0C0C94092C18
:100120000C94AE080C948E070C9484070C943C0D30
:100130000C945B070C94E81B0C94D40C0C9488076B
:100140000C94301B0C948F080C946C070C94620771
:100150000C9479190C947A0C0C941F320C94B91FDE
:100160000C949C0C0C9480070C94D4310C948E0C41
:100170000C9453070C941C320C94192C0C944A2C9C
:100180000C94641B0C94601B0C94451B0C945B2B0F
:100190000C9457070C9492070C944E2C0C946807FF
:1001A0000C944D070C946B1B0C941C2C0C94671B2B
:1001B0000C944F1B0C94E5310C947A070C94D831B5
:1001C000546F6F44656570004E6F4D656D6F727949
:1001D00000496E76616C6964496E70757400496E91
:1001E000636F6D706C657465496E70757400456DF4
:1001F000707479496E707574004F6B00CDCCCC3D36
:100200000AD7233C17B7D13877CC2B329595E62403
:100210001FB14F0A000020410000C84200401C46A8
:1002200020BCBE4CCA1B0E5AAEC59D74227D007BFD
:10023000226C6576656C223A22303031222C2264A1
:100240006576696365223A22434F4E54524F4C4CB7
:100250004552222C2264657363223A225052207444
:1002600068726573686F6C64206361707065642088
:100270006174200044495341524D45440041524D60
:10028000454400227D002C2264657363223A2200DB
:10029000222C2270696E223A007B226C6576656C96
:1002A000223A22303031222C22646576696365223D
:1002B0003A2200222C22706172616D223A2270690A
:1002C0006E222C2276616C7565223A007B226C6569
:1002D00076656C223A22303030222C2264657669B1
:1002E0006365223A2200222C2276616C7565223ADF
:1002F00000222C22706172616D223A22007B226CF6
:100300006576656C223A22303030222C2264657684
:10031000696365223A220066616C736500747275C8
:100320006500222C2276616C7565223A00222C220F
:10033000706172616D223A22007B226C6576656C79
:10034000223A22303030222C22646576696365229D
:100350003A2200227D00222C2276616C7565223AB9
:100360002200222C22706172616D223A22007B22CF
:100370006C6576656C223A22303030222C2264651E
:1003800076696365223A220044495341524D4544FF
:100390000041524D454400227D002C226465736368
:1003A000223A22007B226C6576656C223A2230303C
:1003B00031222C22646576696365223A224D4943D5
:1003C000524F53434F5045222C2270696E223A00FF
:1003D00066616C73650074727565002C22647572B9
:1003E0006174696F6E223A002C22667265717565C0
:1003F0006E6379223A00222C2261726D6564223A82
:10040000007B226C6576656C223A22303030222CDB
:1004100022646576696365223A220066616C7365C1
:100420000074727565002C226475726174696F6E58
:10043000223A00222C2261726D6564223A007B22EE
:100440006C6576656C223A22303030222C2264654D
:1004500076696365223A220066616C736500747286
:10046000756500222C2261726D6564223A007B2240
:100470006C6576656C223A22303030222C2264651D
:1004800076696365223A220066616C736500747256
:1004900075650066616C73650074727565002C2269
:1004A0007265696E666F72636564223A00222C225F
:1004B00061726D6564223A007B226C6576656C2200
:1004C0003A22303030222C22646576696365223A04
:1004D0002200022C22656E645F74696D657374611D
:1004E0006D70223A002C226576656E74223A224C99
:1004F00049434B222C2273746172745F74696D6579
:100500007374616D70223A00222C2270696E223A57
:10051000007B226C6576656C223A22303037222CC3
:1005200022646576696365223A22002C22656E6436
:100530005F74696D657374616D70223A002C226579
:1005400076656E74223A225354494D222C227374DC
:100550006172745F74696D657374616D70223A00C5
:100560007B226C6576656C223A22303037222C2251
:10057000646576696365223A224C41534552222CC8
:100580002270696E223A002C226576656E74223ADA
:100590002254494D455354414D50222C2274696DCB
:1005A000657374616D70223A007B226C6576656CB0
:1005B000223A22303038222C226465766963652223
:1005C0003A224D4943524F53434F5045222C2270FB
:1005D000696E223A007B226C6576656C223A223085
:1005E0003037222C22646576696365223A22434FB4
:1005F0004E54524F4C4C4552222C226576656E74F7
:10060000223A22454E44222C2274696D657374612E
:100610006D70223A004C48005248007B226C65768F
:10062000656C223A22303030222C226F6D69737350
:10063000696F6E5F696E74657276616C223A004C08
:10064000455645525F4C48004C455645525F52480E
:10065000004D4943524F53434F5045004C49434B83
:10066000004C415345520050554D50320050554DAD
:100670005000435545320043554500227D007B2202
:100680006C6576656C223A22303030222C2264650B
:1006900076696365223A22434F4E54524F4C4C4583
:1006A00052222C22706172616469676D223A224F76
:1006B0004D495353494F4E222C226163746976652C
:1006C0005F6C65766572223A22007B226C657665E6
:1006D0006C223A22303037222C22646576696365B9
:1006E000223A22434F4E54524F4C4C4552222C2218
:1006F0006576656E74223A225354415254222C225C
:1007000074696D657374616D70223A307D007B226F
:100710006C6576656C223A22303030222C2264657A
:1007200076696365223A224D4943524F53434F50F5
:1007300045222C22706172616D223A2274726967BF
:100740006765725F70696E222C2276616C75652216
:100750003A0046495245440074657374004D49435C
:10076000524F53434F504500494E444550454E4427
:10077000454E54006D6F6465004C41534552004333
:100780004F4E54494E47454E54006D6F6465004CC2
:1007900041534552006475726174696F6E004C413B
:1007A000534552006672657175656E6379004C4100
:1007B0005345520046495245440074657374004CD9
:1007C00041534552004649524544007465737400D4
:1007D00050554D5032006475726174696F6E0050EF
:1007E000554D5032004649524544007465737400BB
:1007F00050554D50006475726174696F6E005055AC
:100800004D50004649524544007465737400435589
:100810004532006475726174696F6E0043554532EC
:10082000006672657175656E6379004355453200E7
:10083000464952454400746573740043554500644D
:1008400075726174696F6E0043554500667265711B
:1008500075656E63790043554500F901EE01DE01CF
:10086000D101C801C0017B226C6576656C223A22F9
:10087000303030222C22646576696365223A224347
:100880004F4E54524F4C4C4552222C22736B657480
:100890006368223A226F6D697373696F6E2E696E99
:1008A0006F222C2276657273696F6E223A2276323D
:1008B0002E302E30222C22626175645F7261746565
:1008C000223A3131353230302C22736368656475D9
:1008D0006C65223A224F4D495353494F4E227D00B9
:1008E0007B226C6576656C223A22303036222C22CF
:1008F00064657363223A22436F6D6D616E64206E8E
:100900006F7420666F756E64227D00736573736902
:100910006F6E5F70617573656400434F4E54524F44
:100920004C4C455200746573745F6D6F6465004391
:100930004F4E54524F4C4C4552004649524544008C
:10094000746573745F636861696E00434F4E5452FF
:100950004F4C4C4552006F6D697373696F6E5F69E0
:100960006E74657276616C00434F4E54524F4C4C1E
:1009700045520050554D500050554D503200616366
:10098000746976655F70756D7000434F4E54524FB9
:100990004C4C4552007265696E666F726365640007
:1009A0004C455645525F4C48007265696E666F72E1
:1009B000636564004C455645525F4C48007265695A
:1009C0006E666F72636564004C455645525F5248CF
:1009D000007265696E666F72636564004C455645CA
:1009E000525F524800227D007B226C6576656C2246
:1009F0003A22303036222C2264657363223A220078
:100A000000002100240027002A002D0030003300C0
:100A100001010000040107010A0100002200250075
:100A200028002B002E0031003400020100000501D7
:100A300008010B01000020002300260029002C00E3
:100A40002F00320000010000030106010901050525
:100A50000505070508080808020202020A0A080834
:100A60000404040401010101010101010303030362
:100A700003030303040707070C0C0C0C0C0C0C0CF1
:100A80000202020206060606060606060B0B0B0B02
:100A90000B0B0B0B01021020200808102040102027
:100AA0004080020102010804020101020408102032
:100AB0004080804020100804020180040201804030
:100AC0002010080402010804020101020408102099
:100AD0004080010204081020408000000A0B020937
:100AE0000C0D0E08070304010000000000000000C8
:100AF00000000000000000000000000000000000F6
:100B000000000000000012111000000000000000B2
:100B100000000000000000000000000000000000D5
:100B200054494D454F555400494E4143544956454B
:100B30000041435449564500227D002C226F7269C2
:100B4000656E746174696F6E223A22002C22656EA4
:100B5000645F74696D657374616D70223A00222C54
:100B60002273746172745F74696D657374616D7002
:100B7000223A002C226576656E74223A2250524544
:100B80005353222C22636C617373223A22007B221E
:100B90006C6576656C223A22303037222C226465EF
:100BA00076696365223A225357495443485F4C455E
:100BB000564552222C2270696E223A002C22736311
:100BC000686564756C65645F6174223A002C2274F8
:100BD0006172676574223A007B226C6576656C22CF
:100BE0003A22303036222C226572726F725F636F48
:100BF0006465223A22455F50454E44494E475F4660
:100C0000554C4C222C2264657363223A2250656E47
:100C100064696E6720616374696F6E2071756575B4
:100C2000652066756C6C20E2809420616374696F46
:100C30006E2064726F70706564222C226163746927
:100C40006F6E5F74797065223A005354494D0049C4
:100C50004E465553494F4E00494E465553494F4E07
:100C600000544F4E4500544F4E45004C41534552A1
:100C70000050554D505F320050554D500043554582
:100C80005F3200435545002C22656E645F74696DC8
:100C9000657374616D70223A00222C227374617244
:100CA000745F74696D657374616D70223A002C22F3
:100CB0006576656E74223A2200222C2270696E22BB
:100CC0003A007B226C6576656C223A2230303722FE
:100CD0002C22646576696365223A22007E22112403
:100CE0001FBECFEFD1E2DEBFCDBF00E00CBF13E0EF
:100CF000A0E0B2E0E4E4F7E700E00BBF02C0079039
:100D00000D92A433B107D9F726E0A4E3B3E001C004
:100D10001D92A23EB207E1F716E0CFE6D6E000E072
:100D200006C021970109802FFE010E946D39CE3641
:100D3000D10780E00807A9F70E94C1250C94A03BC9
:100D40000C940000CF93DF93EC0188819981DC0142
:100D5000ED91FC910190F081E02D64E270E0199535
:100D6000009741F02FE1FC01238321E02283DF91F2
:100D7000CF91089521E02A83FACFE4E0F4E031E056
:100D8000328B138A348B418F528F638F748F158E01
:100D9000168E178E10A239E036A734E637A712AAAE
:100DA00033E030938E041092520430935304109227
:100DB0005404109255041092560410925704409116
:100DC0007E0650917F066091800670918106409367
:100DD00058045093590460935A0470935B04109222
:100DE0005C0420935D0410925E0410925F041092E4
:100DF000600410926104FC0181859285A385B4850D
:100E00008093620490936304A0936404B093650498
:100E10001092660487E08093670410926804109231
:100E2000690410926A0410926B048091F00590910D
:100E3000F105A091F205B091F30580936C049093B5
:100E40006D04A0936E04B0936F040895EAEDF4E08E
:100E500010823F9685E0EA3CF807D1F7089581506B
:100E6000823108F05AC0E82FF0E08827E55CF84F9F
:100E70008F4F0C946D395B075F074D07530757077A
:100E80008D07620768076C07720776077A07800785
:100E900084078D0788078E079207809180008F77DF
:100EA000809380000895809180008F7DF9CF80919C
:100EB0008000877FF5CF84B58F7784BD089584B592
:100EC0008F7DFBCF8091B0008F778093B000089525
:100ED0008091B0008F7DF9CF809190008F778093C3
:100EE00090000895809190008F7DF9CF80919000BF
:100EF000877FF5CF8091A0008F778093A000089521
:100F00008091A0008F7DF9CF8091A000877FF5CFE1
:100F1000809120018F778093200108958091200196
:100F20008F7DF9CF80912001877FF5CFCF93DF931D
:100F3000282F30E0F901E652F54F8491F901EC5683
:100F4000F54FD491F901E25BF54FC491CC23A1F0A8
:100F500081110E942F07EC2FF0E0EE0FFF1FEC5CD9
:100F6000F54FA591B491EC91ED2381E090E009F467
:100F700080E0DF91CF91089580E090E0FACF1F9359
:100F8000CF93DF93282F30E0F901E652F54F84919B
:100F9000F901EC56F54FD491F901E25BF54FC4919C
:100FA000CC23A9F0162F81110E942F07EC2FF0E01F
:100FB000EE0FFF1FE65EF54FA591B4918FB7F89441
:100FC000EC91111108C0D095DE23DC938FBFDF9127
:100FD000CF911F910895DE2BF8CFCF93DF9390E050
:100FE000FC01EC56F54F2491825B954FFC018491F6
:100FF0008823C9F090E0880F991FFC01E050F64F5C
:10100000A591B491FC01E65EF54FC591D4916111B3
:101010000DC09FB7F8948C91209582238C93888182
:10102000282328839FBFDF91CF910895623051F428
:101030009FB7F8943C91822F809583238C93E8810D
:101040002E2BEFCF8FB7F894EC912E2B2C938FBFD4
:10105000EACF3FB7F8948091610390916203A09129
:101060006303B091640326B5A89B05C02F3F19F018
:101070000196A11DB11D3FBFBA2FA92F982F882718
:10108000BC01CD01620F711D811D911D42E0660FF3
:10109000771F881F991F4A95D1F708958F929F92C5
:1010A000AF92BF92CF92DF92EF92FF920E942908F7
:1010B0004B015C0184E6C82ED12CE12CF12C0E945E
:1010C0002908681979098A099B09683E73408105D6
:1010D0009105A8F321E0C21AD108E108F10888EED1
:1010E000880E83E0981EA11CB11CC114D104E10438
:1010F000F10429F7FF90EF90DF90CF90BF90AF9071
:101100009F908F9008952FB7F89460915D03709130
:101110005E0380915F03909160032FBF08950F934A
:101120001F93CF93DF93C0910204D09103042097C3
:1011300081F081E08A830E948308088519852A85C9
:101140003B85601B710B820B930B6C837D838E83BD
:101150009F83DF91CF911F910F91089508959091F2
:10116000000289130DC0E2EDF4E0E4919FEF90934B
:101170000002E230E1F038F4EE2381F0E13089F052
:1011800060E00C94BF07E43049F110F1E530C1F79D
:10119000909173009D7F90937300F2CF10926E0038
:1011A000EFCF90916F009D7F90936F00E9CF90916A
:1011B00070009D7F9093700091E09093B0009091AB
:1011C000B100987F94609093B1001092B300D8CF93
:1011D000909171009D7F90937100D2CF9091720099
:1011E0009D7F90937200CCCF4F925F926F927F92CF
:1011F0008F929F92AF92BF92CF92DF92EF92FF9227
:101200000F931F93CF93DF9300D01F921F92CDB700
:10121000DEB78B0129013A01909100028917C9F0CC
:101220009F3F09F491C00F900F900F900F900F9077
:10123000DF91CF911F910F91FF90EF90DF90CF90B2
:10124000BF90AF909F908F907F906F905F904F90E6
:101250000895E2EDF4E024912D8327FDE4CF61E0D1
:101260000E94ED072D81222321F08D81823009F02B
:1012700005C24801B12CA12C60E072E18AE790E040
:10128000A50198010E94F03729833A834B835C8340
:1012900069017A0191E0C91AD108E108F1082FEF3C
:1012A000C216D104E104F10409F00CF4B6C160E403
:1012B00072E48FE090E0A50198010E94F037690187
:1012C0007A0181E0C81AD108E108F1089D819230C5
:1012D00009F026C182E02FEFC216D104E104F10427
:1012E00009F00CF46CC160E970ED83E090E0A501B9
:1012F00098010E94F03769017A0181E0C81AD1088B
:10130000E108F10883E09FEFC916D104E104F1047C
:1013100009F00CF454C168E478EE81E090E0A50196
:1013200098010E94F03769017A0181E0C81AD1085A
:10133000E108F1089FEFC916D104E104F10411F0AE
:101340000CF044C184E03BC180930002E2EDF4E084
:1013500094919D839F3F09F466CF923009F474C045
:1013600058F4992399F1913009F44CC097FD5BCF63
:1013700061E00E94ED0779CF2D81243009F4AEC0E1
:1013800008F488C0253091F71092200110922101B5
:101390009091210198609093210190912101916099
:1013A00090932101282F30E0F901E25BF54FE491A1
:1013B000F0E0EE0FFF1FE65EF54F45915491F90105
:1013C000EC56F54FE491E093340349CF14BC15BCBF
:1013D00094B5926094BD95B5916095BD282F30E08D
:1013E000F901E25BF54FE491F0E0EE0FFF1FE65EDE
:1013F000F54F45915491F901EC56F54FE491E09386
:1014000038032DCF109280001092810090918100BE
:1014100098609093810090918100916090938100F9
:10142000282F30E0F901E25BF54FE491F0E0EE0F98
:10143000FF1FE65EF54F45915491F901EC56F54FCB
:10144000E491E09337030BCF1092B0001092B100FB
:101450009091B00092609093B0009091B100916033
:101460009093B100282F30E0F901E25BF54FE49151
:10147000F0E0EE0FFF1FE65EF54F4591549150935B
:101480004E0340934D03F901EC56F54FE491E09380
:101490004F03E5CE10929000109291009091910030
:1014A0009860909391009091910091609093910039
:1014B000282F30E0F901E25BF54FE491F0E0EE0F08
:1014C000FF1FE65EF54F45915491F901EC56F54F3B
:1014D000E491E093360393E09D83C1CE1092A00087
:1014E0001092A1009091A10098609093A10090911A
:1014F000A10091609093A100282F30E0F901E25BF8
:10150000F54FE491F0E0EE0FFF1FE65EF54F4591D9
:101510005491F901EC56F54FE491E09335039FCED9
:101520002FEFC216D104E104F10409F00CF4A4C0B9
:1015300068E478EE81E090E0A50198010E94F03720
:1015400069017A0181E0C81AD108E108F1089D819A
:10155000992309F489C19FEFC916D104E104F1046C
:1015600009F00CF4EFCE62E17AE780E090E0A501AB
:1015700094010E94F03769017A0181E0C81AD1080C
:10158000E108F1089D81992309F453C186E09FEF9A
:10159000C916D104E104F10491F088F0C980DA8021
:1015A000EB80FC808AE0F594E794D794C7948A9501
:1015B000D1F781E0C81AD108E108F10887E09091DD
:1015C000B100987F892B8093B1002FC064E274EF43
:1015D00080E090E0A50194010E94F03769017A0152
:1015E00081E0C81AD108E108F10885E09FEFC9162B
:1015F000D104E104F10419F310F362E17AE780E029
:1016000090E0A50194010E94F03769017A0181E020
:10161000C81AD108E108F108B9CF81E02D81211164
:10162000CECF95B5987F892B85BD2FEF3FEFA901D0
:10163000411451046104710409F049C09D81923044
:1016400009F4E7C00CF0CEC0992309F4D3C091305F
:1016500009F0E9CDD0928900C0928800209345031B
:1016600030934603409347035093480380916F00A3
:10167000826080936F00D7CD82E0D0CFB12CA12CB7
:1016800060E072E18AE790E0A50198010E94F037DE
:1016900069017A0181E0C81AD108E108F108C11492
:1016A000D10491E0E906F10404F591E02D812130A7
:1016B00069F580918100887F892B809381002FEFCD
:1016C0003FEFA901411451046104710419F2D801DA
:1016D000AA0FBB1FA30192010E940F3828EE33E02E
:1016E00040E050E00E942238A9CF68E478EE81E023
:1016F00090E0A50198010E94F03769017A0181E02C
:10170000C81AD108E108F10893E0D0CF8D81833069
:1017100001F580919100887F892B809391002FEFB4
:101720003FEFA901411451046104710481F6D09284
:101730009900C09298002093410330934203409354
:101740004303509344038091710082608093710041
:101750006ACD2D81243009F58091A100887F892BE5
:101760008093A1002FEF3FEFA901411451046104C0
:10177000710409F0ACCFD092A900C092A8002093C8
:101780003D0330933E0340933F03509340038091C9
:10179000720082608093720046CD8D81853009F0A1
:1017A00044CF80912101887F892B809321012FEFE5
:1017B0003FEFA901411451046104710409F087CF7E
:1017C000D0922901C09228012093390330933A0323
:1017D00040933B0350933C0380917300826080935D
:1017E000730021CD8D81843031F20CF4A0CF85308F
:1017F00039F319CDC7BC2093490330934A03409372
:101800004B0350934C0380916E00826080936E0076
:101810000ACDC092B30020935003309351034093FC
:101820005203509353038091700082608093700044
:10183000FACC84E02FEFC216D104E104F10409F0E0
:1018400008F4EFCEC980DA80EB80FC809AE0F59452
:10185000E794D794C7949A95D1F791E0C91AD10823
:10186000E108F10885E0DDCE83E02FEFC216D10458
:10187000E104F10411F00CF076CED3CEAF92BF921A
:10188000CF92DF92EF92FF920F931F93CF93DF934C
:101890006C017B018B01040F151FEB015E01AE187B
:1018A000BF08C017D10759F06991D601ED91FC919D
:1018B0000190F081E02DC6011995892B79F7C501BA
:1018C000DF91CF911F910F91FF90EF90DF90CF901C
:1018D000BF90AF900895FC01538D448D252F30E0CB
:1018E000842F90E0821B930B541710F0CF9608952D
:1018F00001970895FC01918D828D981761F0A28D5A
:10190000AE0FBF2FB11D5D968C91928D9F5F9F731F
:10191000928F90E008958FEF9FEF0895FC01918DD5
:10192000828D981731F0828DE80FF11D858D90E042
:1019300008958FEF9FEF0895FC01918D228D892FDF
:1019400090E0805C9F4F821B91098F7399270895C7
:1019500085E693E00E949C0C21E0892B09F420E0AD
:10196000822F0895FC01A48DA80FB92FB11DA35A91
:10197000BF4F2C91848D90E001968F739927848FAF
:10198000A689B7892C93A089B1898C9183708064D2
:101990008C93938D848D981306C00288F389E02D73
:1019A00080818F7D80830895EF92FF920F931F9324
:1019B000CF93DF93EC0181E0888F9B8D8C8D981302
:1019C0001AC0E889F989808185FF15C09FB7F8940E
:1019D000EE89FF896083E889F9898081837080645A
:1019E00080839FBF81E090E0DF91CF911F910F91A5
:1019F000FF90EF900895F62E0B8D10E00F5F1F4FB4
:101A00000F731127E02E8C8D8E110CC00FB607FCC2
:101A1000FACFE889F989808185FFF5CFCE010E9450
:101A2000B20CF1CFEB8DEC0FFD2FF11DE35AFF4F00
:101A3000F0829FB7F8940B8FEA89FB8980818062DE
:101A4000CFCF0F931F93CF93DF938C01D0E0C0E0F3
:101A5000F801EC0FFD1F6491662341F085E693E0E9
:101A60000E94D40C892B11F02196F2CFCE01DF9188
:101A7000CF911F910F910895CF93DF93EC01888D43
:101A80008823B9F0AA89BB89E889F9898C9185FDF9
:101A900003C0808186FD0DC00FB607FCF7CF8C9187
:101AA00085FFF2CF808185FFEDCFCE010E94B20C81
:101AB000E9CFDF91CF91089580E090E0892B29F064
:101AC0000E94A80C81110E94000080E090E0892B08
:101AD00049F080E090E0892B29F00E9400008111FC
:101AE0000E94000080E090E0892B49F080E090E0C7
:101AF000892B29F00E94000081110E94000080E0E3
:101B000090E0892B49F080E090E0892B29F00E9439
:101B1000000081110C9400000895CF92DF92EF92A3
:101B2000FF921F93CF93DF93EC016A017B018C81BD
:101B30000E94960711E0892B09F410E08B85181795
:101B400021F0CD8ADE8AEF8AF88E8D899E89AF8951
:101B5000B88DB701A601481B590B6A0B7B0B898D09
:101B600090E0B0E0A0E084179507A607B70798F4C7
:101B70008C85181781F01C878A851817A9F0CA8EE2
:101B8000DB8EEC8EFD8EEAA1FBA1309721F0B70130
:101B9000A601898519951B87DF91CF911F91FF9031
:101BA000EF90DF90CF900895CE8EDF8EE8A2F9A25D
:101BB000ECA1FDA1309779F389851995ECCFFC0153
:101BC000158213861486158616861786108A118A42
:101BD000128A138A148A158A168A138E868188239C
:101BE00011F0848183830895CF92DF92EF92FF9268
:101BF0000F931F93CF93DF93EC018E81811103C06C
:101C00008D89882369F18C810D851E852F85388902
:101C10006A017B01C01AD10AE20AF30A9701860120
:101C200037FD18C009891A892B893C89401B510B43
:101C3000620B730B14161506160617065CF061E0AE
:101C4000DF91CF911F910F91FF90EF90DF90CF9098
:101C50000C94BF0760E00E94BF078D8981111D8A27
:101C6000DF91CF911F910F91FF90EF90DF90CF9078
:101C70000895CF93DF93EC0161E088810E94BF0754
:101C800081E08C870E9483086D877E878F87988B81
:101C9000DF91CF910895CF92DF92EF92FF92CF9391
:101CA000DF93EC016A017B0169857A858B859C85D0
:101CB0000E94D1369B01AC0160E070E080E89FE3B8
:101CC0000E94C03820E030E040E05FE30E943237FD
:101CD00020E030E04AE754E40E943237C98EDA8EC1
:101CE000EB8EFC8E20E030E040E05FE30E94543851
:101CF0000E943939C60ED71EE81EF91ECD8EDE8E23
:101D0000EF8EF8A28BA191E089278BA3DF91CF9171
:101D1000FF90EF90DF90CF900895CF92DF92EF92F7
:101D2000FF92CF93DF93EC016A017B0189899A8945
:101D3000AB89BC89AB019601281B390B4A0B5B0BA5
:101D4000DA01C901B7FD49C08D899E89AF89B88D77
:101D5000AB019601281B390B4A0B5B0BDA01C90159
:101D6000181619061A061B06C4F18AA18823A9F1C0
:101D700089859A85AB85BC850197A105B10551F48C
:101D800061E08C81DF91CF91FF90EF90DF90CF9059
:101D90000C94BF078D8D9E8DAF8DB8A1AB019601C0
:101DA000281B390B4A0B5B0BDA01C901B7FD04C0D4
:101DB000A601CE010E944B0E8C819BA1992311F0AC
:101DC00061E0E0CF60E00E94BF071BA2DF91CF91EE
:101DD000FF90EF90DF90CF90089560E08C810E949B
:101DE000BF071BA28D899E89AF89B88DC81AD90AF1
:101DF000EA0AFB0A8AA1882331F01C141D041E0480
:101E00001F040CF41AA28CA1882301F31C141D04D6
:101E10001E041F04DCF61CA2D9CF8F929F92AF92B2
:101E2000BF92CF92DF92EF92FF920F931F93CF93C7
:101E3000DF93EC018E81811104C088A1882309F40D
:101E400045C07B0189899A89AB89BC894A015B01BC
:101E5000881A990AAA0ABB0AC501B40197FD53C0A2
:101E60000D891E892F89388D4A015701801A910AE0
:101E7000A20AB30A95018401101611061206130670
:101E80000CF441C02A8D2223A9F10C8D1D8D2E8DBD
:101E90003F8D200F311F2115310511F421E030E075
:101EA000FB8C50E040E00E94223860177107D8F4A4
:101EB000F1100AC069857A8520E030E0A9018C81A3
:101EC0000E94F40881E08B8F81E0898FDF91CF91B0
:101ED0001F910F91FF90EF90DF90CF90BF90AF9048
:101EE0009F908F900895FF2079F38C810E94AF0816
:101EF0001B8EEACF69857A8520E030E0A9018C81CC
:101F00000E94F408E1CF898D882301F38C810E941F
:101F1000AF08198E1B8E88A18823C1F218A2D6CFD4
:101F20006F3FA9F0E62FE295EF7044E0E49F900147
:101F30001124DC01ED91FC91E20FF31F6F7082819F
:101F40009381B6E06B9F800D911D1124089590E060
:101F500080E00895982F80336CF08A3324F08F3519
:101F600024F08B3724F481E0089581341CF081E063
:101F70009B350CF080E00895FC01828581110AC038
:101F8000A781B085CD010196908787838C91818749
:101F900081E08287818508951F93CF93DF93EC01C1
:101FA000162F0E94BC0F811306C01A8681E0DF91B4
:101FB000CF911F91089580E0FACF0F931F93CF9395
:101FC000DF938C01EB018991882369F0C8010E949D
:101FD000BC0F882379F0FE013197908198130DC0D2
:101FE000F8011286F0CF90E080E0DF91CF911F9151
:101FF0000F91089582E090E0F8CF83E090E0F5CF74
:10200000CF93DF93EC01CE010E94BC0F8B304CF4D8
:1020100089305CF4882359F081E08E8390E080E081
:102020000BC08D3011F08032B9F71A86ECCF8E815B
:10203000811105C081E090E0DF91CF91089582E0A9
:1020400090E0FACFDC0152969C915297915084E037
:10205000989F900111245096ED91FC91E20FF31F8F
:10206000228133812115310579F041818081481722
:1020700058F481E0840F818386E0489F200D311D54
:1020800011242115310521F460E070E08FEF0895EF
:10209000B901892F8295807F840F0895DF92EF9296
:1020A000FF920F931F93CF93DF93EC017B01D12C11
:1020B000688979898A89D816E0F484E0D89E8001FD
:1020C0001124060F171FD80112966D917C9161158E
:1020D000710541F0D701ED91FC910280F381E02D73
:1020E000C7011995F8011382128210821182D394CC
:1020F000DFCF1A8A8FEF8C8BC617D70761F0D70115
:10210000ED91FC910280F381E02DC7011995D98BE7
:10211000C88B84E08B8BDF91CF911F910F91FF9043
:10212000EF90DF900895409101025091020260917A
:1021300003027091040220910502809106029091A1
:1021400007020C94BD064F925F926F927F928F921E
:102150009F92AF92BF92CF92DF92EF92FF920F9336
:102160001F93CF93DF9300D01F921F92CDB7DEB79E
:10217000DC012C912B32E1F12D32D9F50196EE24C0
:10218000E394FC01208130ED320F3A3010F02E3212
:1021900091F58C0160E070E0CB01F801219130ED08
:1021A000832E820E39E0381508F444C06A3949E9B3
:1021B0007407840749E1940708F046C0AAE0B0E03C
:1021C0009B01AC010E940F38912CB12CA12C240151
:1021D00035014094509460947094461657066806F2
:1021E000790690F1680D791D8A1D9B1D8F01D5CF51
:1021F0000196E12CC6CF198229813A814B815C81FD
:102200006D8170E080E090E00F900F900F900F9044
:102210000F90DF91CF911F910F91FF90EF90DF9082
:10222000CF90BF90AF909F908F907F906F905F9076
:102230004F900895211108C0EE2051F161307105D1
:10224000810550E89507A0F0F12CBAE08B2E912C77
:10225000A12CB12C6115710530E883079105F8F0C8
:10226000A50194010E942238CA01B901F394F2CF6A
:1022700022E029839B01AC0188279927DC01821B7E
:10228000930BA40BB50B8A839B83AC83BD83B4CF24
:1022900023E029836A837B838C839D83ADCFF80100
:1022A000D8012D918D0130ED320F3A3010F4F394B6
:1022B000F6CF2E3201F58F010F5F1F4FF8010F5F30
:1022C0001F4F2081A0EDDA2ED20EB9E0BD1598F097
:1022D0006C3CECEC7E07ECE08E07910578F7AAE009
:1022E000B0E09B01AC010E940F386D0D711D811D86
:1022F000911DFA94E3CF20812F7D10E000E025347A
:1023000009F050C021812D32B1F53296CC24C3940E
:10231000DF0110E000E02F2D0F2C000C330BEAE062
:10232000BE2EFD01DD9040ED4D0D4A30B0F5B09E62
:10233000A001B19E500D11240D2DDD0C110B005389
:102340001109040F151FA801420F531F47325105F1
:1023500044F3CC20B9F080E090E0A0E0B0E8E110D8
:1023600003C080E090E0DC0121E029838A839B8325
:10237000AC83BD8341CF2B3219F03196C12CC8CF2D
:102380003296FCCF80E090E0A0E8BFEFE110ECCF08
:1023900080E090E0A0E8BFE7E7CFCC2019F01195EE
:1023A000019511092081211126CF0F0D111DF7FC78
:1023B0001A950E94D13644E1A42E42E0B42E1016A4
:1023C00011063CF01195019511095CEFA52E51E025
:1023D000B52ED12CC12C01151105E9F0F6E0CF1670
:1023E000D104A9F000FF0DC0F601EE0FFF1FEE0FA4
:1023F000FF1FEA0DFB1D25913591459154910E94D7
:102400003237159507952FEFC21AD20AE4CF60E054
:1024100070E080EC9FE7E110905821E029836A8307
:102420007B838C839D83E8CECF92DF92EF92FF92E5
:102430000F931F93CF93DF937C016B018A01FC0103
:10244000C081D1814F3F510509F0B0F4E881F98195
:102450000480F581E02D4B5F5F4FCE011995009709
:1024600059F0FC010383DF91CF911F910F91FF90F1
:10247000EF90DF90CF900895E881F9810280F38199
:10248000E02DB601CE01199581E0F701828390E03D
:1024900080E0E9CF1F93CF93DF93EC01162F6A8181
:1024A0007B816115710589F04C815D81FB01838120
:1024B0008417150651F4440F551F4F5F5F4F8881F5
:1024C00099810E9414129B838A838A819B81009741
:1024D00059F02C813D81A9014F5F5F4F5D834C8393
:1024E000820F931FFC011483DF91CF911F910895F8
:1024F0009F92AF92BF92CF92DF92EF92FF920F9393
:102500001F93CF93DF9300D01F921F92CDB7DEB7FA
:102510008C010E94BC0FD82EF8011286F12CE12C00
:1025200060EFC62EC8010E94BC0FF8011286D816B3
:1025300009F4B3C0811113C082E090E00F900F90B6
:102540000F900F900F90DF91CF911F910F91FF90FF
:10255000EF90DF90CF90BF90AF909F9008958C3513
:1025600009F099C0C8010E94BC0F882329F3E1EA51
:10257000F2E0853709F083C0F801128654E0952E09
:10258000B12CA12CC8010E94BC0F8823A9F2813470
:1025900034F48053803130F083E090E0CFCF8F7DF2
:1025A0008753F8CF44E0AA0CBB1C4A95E1F7A82A50
:1025B000F80112869A949110E5CFC501985D8115B6
:1025C000944020F47501F3E0FF22ACCFC5019C5D7F
:1025D00081159440A8F483E0B822B701762F6627CE
:1025E000770F770F6A297B2990E080E001966038A9
:1025F00071058105910540F4C8010E944A1292CFED
:10260000B50190E080E0F3CF1982262F2F73206868
:102610002A8326E096958795779567952A95D1F731
:102620006032710580F4606C6B835E01E4E0AE0E95
:10263000B11CF50162915F01662309F473CFC801F3
:102640000E944A12F6CF262F2F7320682B8386E034
:10265000769567958A95E1F76031710538F4606E7B
:102660006C835E01F5E0AF0EB11CE3CF60686C8354
:10267000CD825E0126E0A20EB11CDBCF32969081A6
:10268000992309F489CF8913F9CF8181882309F42B
:1026900083CFF8011286682FAFCF82819381892B77
:1026A00019F484E090E04ACF90E080E047CF6F9249
:1026B0007F928F929F92AF92BF92CF92DF92EF92D2
:1026C000FF920F931F93CF93DF93EC012A813B81FD
:1026D0002C5F3F4F4C815D814430510588F5890165
:1026E000F90180E0942FB22FAE2FA21BA91730F46E
:1026F000F190A1E0F110A0E08A2BF6CF811120C06B
:1027000082E0EB018C83FB01802F8B1B891728F45F
:10271000E80189918E018193F7CF640F751FFB014A
:102720001082DF91CF911F910F91FF90EF90DF907A
:10273000CF90BF90AF909F908F907F906F900895B3
:102740008B01F901E40FF51F1082888199814C817A
:102750005D81DC011396ED91FC913A01E89477F8E4
:102760006901C60CD71C3097C1F0A381A6151704C8
:1027700081F449017F01B4E0EB0EF11C8C149D043F
:1027800029F1D401AD904D01D701BD907D01AB146D
:10279000A9F30190F081E02DE6CF6A817B810E9450
:1027A0001412FC01A881B98113968D919C91149704
:1027B000918380831496FC93EE9313971B821A8265
:1027C00085E0E8018C83F983E883ABCF82818F5F5A
:1027D0008283F6CFDB01ED91FC9111970280F381AA
:1027E000E02DBC01CD011994AF92BF92CF92DF9240
:1027F000EF92FF920F931F93CF93DF93EC018B0126
:102800008C8180FF24C0A881B981FB0183819481E0
:1028100030E020E00097D9F0A817B907D1F5F8010A
:102820006081718112968C911297815012968C93CF
:10283000129781110CC08D919C9111972115310532
:1028400029F1F90191838083CD010E94EA138C81E3
:10285000807631F1209721F1F8805801F5E1AF0E33
:10286000B11C8FEFF816D1F06F2DC5010E94900FAB
:102870006C01FC01E580B8010E94F413F801818D20
:10288000F6018083F801F18EFE2CEBCF94838383D5
:10289000DBCF9C01FC0180819181BCCFF882F98261
:1028A0001C82DF91CF911F910F91FF90EF90DF90ED
:1028B000CF90BF90AF9008950F931F93CF93DF9366
:1028C000EC01088119818B819C81009749F0FC0102
:1028D000208131813C832B83B8010E94EA13F3CF1E
:1028E00068817981CE010596DF91CF911F910F917B
:1028F0000C944E10FC0101900020E9F73197AF01D4
:10290000481B590BBC0185E693E00C943E0C8F925A
:102910009F92AF92BF920F931F93CF93DF93CDB748
:10292000DEB7A1970FB6F894DEBF0FBECDBF19A2D8
:10293000423008F44AE08E010F5D1F4F842E912C27
:10294000B12CA12CA50194010E942238E62FB901D7
:10295000CA01EA30F4F4E05DD801EE938D01232B37
:10296000242B252B79F790E080E0109719F0CD010A
:102970000E947A14A1960FB6F894DEBF0FBECDBFA9
:10298000DF91CF911F910F91BF90AF909F908F904B
:102990000895E95CE1CF4AE00C948714CF92DF926E
:1029A000EF92FF92CF93DF936C01990FEE08FF082F
:1029B000F7FE19C06DE285E693E00E94D40CEC01AD
:1029C00066277727CB016C197D098E099F094AE09C
:1029D0000E9487148C0F9D1FDF91CF91FF90EF9085
:1029E000DF90CF9008954AE0C701B601DF91CF9103
:1029F000FF90EF90DF90CF900C948714CF93DF93EC
:102A00000E94210DEC0184EB92E00E947A148C0F5D
:102A10009D1FDF91CF9108950F931F93CF938C014A
:102A2000C62FFC01638384EA93E00E94210DF80124
:102A30008081082E000C990B0E94CE148AE993E045
:102A40000E94210D88E893E0CC2311F081E993E006
:102A50000E94210D87E993E0CF911F910F910C9473
:102A6000FE14EF92FF920F931F93CF93DF937C019D
:102A70008B01EA018EE693E00E94210DC7010E94BE
:102A8000210D82E693E00E94210DC8010E94210DD4
:102A900086E593E00E94210DCE010E94210D83E581
:102AA00093E0DF91CF911F910F91FF90EF900C94E5
:102AB000FE14CF93DF936DE785E693E00E94D40C7C
:102AC000EC0184EB92E00E947A148C0F9D1FDF9141
:102AD000CF9108954F925F926F927F928F929F92C3
:102AE000AF92BF92EF92FF920F931F93CF93DF931A
:102AF0002A013B0148015901853009F480C008F0E2
:102B000061C0843009F46FC0E0910A04F0910B04B5
:102B10001481C6E6DCE043E8E42E4CE0F42E82ECBF
:102B20009CE00E94210DC7010E94210D89EB9CE0D1
:102B30000E94210D812F110F990B0E94CE148EEA55
:102B40009CE00E94210DCE010E94210D89E99CE0AC
:102B50000E94210D8091BC059091BD05A091BE05FC
:102B6000B091BF05A3019201281B390B4A0B5B0BE7
:102B7000CA01B9010E94CB1487E89CE00E94210D94
:102B80008091BC059091BD05A091BE05B091BF0597
:102B9000A5019401281B390B4A0B5B0BCA01B90133
:102BA0000E94CB14DF91CF911F910F91FF90EF9076
:102BB000BF90AF909F908F907F906F905F904F905D
:102BC0000C945915863039F1873009F09DCFE0918A
:102BD0001204F09113041481CAE4DCE08BE6E82EC1
:102BE0008CE0F82E9CCFE0910C04F0910D04148140
:102BF000C1E6DCE03DE7E32E3CE0F32E90CFE09130
:102C00000E04F0910F041481C8E5DCE028E7E22E01
:102C10002CE0F22E84CFE0911004F0911104148185
:102C2000CFE4DCE091E7E92E9CE0F92E78CFCF925B
:102C3000DF92EF92FF920F931F93CF93DF93EC01FC
:102C40008881813009F4D1C06A017B01813090F024
:102C50008230D1F486E194E00E94DF0D84E394E0B9
:102C6000DF91CF911F910F91FF90EF90DF90CF9068
:102C70000C94DF0D8981853009F47DC070F48330B8
:102C8000F1F1843009F45AC0DF91CF911F910F9177
:102C9000FF90EF90DF90CF900895863009F488C0C0
:102CA000873091F7E0911204F0911304309761F3AB
:102CB0008681882349F381A18111E6CF8E819F818E
:102CC000A885B985C18AD28AE38AF48A8C0D9D1DB4
:102CD000AE1DBF1D858B968BA78BB08F81E082A325
:102CE000CF010E944B0E0E811F81288539850C0D66
:102CF0001D1D2E1D3F1DB701A60187E01CC0E091E0
:102D00000A04F0910B04309709F4BECF8681882322
:102D100009F4BACF0E811F8128853985C18AD28AEC
:102D2000E38AF48A0C0D1D1D2E1D3F1D058B168B8D
:102D3000278B308F83E00E946A15A6CFE0910C04A8
:102D4000F0910D04309709F49FCF8681882309F410
:102D50009BCF0E811F8128853985C18AD28AE38A5B
:102D6000F48A0C0D1D1D2E1D3F1D058B168B278B08
:102D7000308F84E0E0CFE0910E04F0910F043097A3
:102D800009F482CF8681882309F47ECF0E811F81CA
:102D900028853985C586D686E786F08A0C0D1D1DE7
:102DA0002E1D3F1D018B128B238B348B85E0C3CFEF
:102DB000E0911004F0911104309709F465CF8681F9
:102DC000882309F461CF0E811F8128853985C58646
:102DD000D686E786F08A0C0D1D1D2E1D3F1D018B2A
:102DE000128B238B348B86E0A6CF8981E09104047B
:102DF000F0910504882339F0813009F045CFE09146
:102E00000604F0910704309709F43ECFCE80DF80AE
:102E1000E884F9844C0D5D1D6E1D7F1D418B528B26
:102E2000638B748B31CF2F923F924F925F926F9250
:102E30007F928F929F92AF92BF92CF92DF92EF924A
:102E4000FF920F931F93CF93DF9300D01F92CDB7C4
:102E5000DEB72A013B010DE3809F90011124912CE4
:102E60008901C90182579B4F9A8389838AE0882E02
:102E700019019EE4290E311CE981FA81808198169E
:102E800008F092C0A92CB12CC801899C800D911D1D
:102E900011248C5F9B4FFC01E25BFF4F20812330AC
:102EA000B9F0805B9F4FFC01C080D180E280F3804D
:102EB000C114D104E104F10469F4B301A201C10118
:102EC000989C800D911D11248C5F9B4F0E941716BA
:102ED0009394D2CFC40CD51CE61CF71CEAEDF4E0A9
:102EE00030E020E08081811126C0FFE0F29FC00128
:102EF000F39F900D1124DC01A453BB4F8A9CF00179
:102F00008B9CF00D1124E00FF11FEE5AFB4F282D82
:102F100001900D922A95E1F78C5F9B4FFC01EE52D8
:102F2000FF4FC082D182E282F3828A529F4F21E01A
:102F3000FC012083CDCF2F5F3F4F3F9620313105DD
:102F400089F688ED9BE00E94210D8A9CC0018B9C34
:102F5000900D1124800F911F8C5F9B4F9C838B835E
:102F6000FC01E25BFF4F608170E090E080E04AE0AE
:102F70000E9487148DEC9BE00E94210DEB81FC8167
:102F8000E15BFF4F608170E090E080E04AE00E94EA
:102F900087148CEB9BE00E94210DC701B6010E94B3
:102FA000CB140E94591594CF0F900F900F900F9053
:102FB000DF91CF911F910F91FF90EF90DF90CF9015
:102FC000BF90AF909F908F907F906F905F904F9049
:102FD0003F902F9008950F931F93CF93DF938C0111
:102FE000D62FC42F88EB94E00E94210DC8010E94C7
:102FF000210D8DEA94E00E94210D83E994E0DD2308
:1030000011F089E994E00E94210D8EE994E00E947C
:10301000210D88E894E0CC2311F08EE894E00E9422
:10302000210DDF91CF911F910F910C9459150F93A2
:103030001F93CF938C01C62F8EE694E00E94210D42
:10304000C8010E94210D83E694E00E94210D88E5CD
:1030500094E0CC2311F08EE594E00E94210DCF91F5
:103060001F910F910C945915CF92DF92EF92FF921E
:103070000F931F93CF938C01C62F69017A018EE3C2
:1030800094E00E94210DC8010E94210D83E394E089
:103090000E94210D8BE194E0CC2311F081E294E0B9
:1030A0000E94210D86E294E00E94210DC701B60125
:1030B0000E94CB14CF911F910F91FF90EF90DF9062
:1030C000CF900C9459157F928F929F92AF92BF929E
:1030D000CF92DF92EF92FF920F931F93CF93DF93E4
:1030E000EC01762E49015A016701780181E094E0F4
:1030F0000E94210DCE010E94210D86EF93E00E94D7
:10310000210D80ED93E0772011F086ED93E00E9491
:10311000210D88EE93E00E94210DC501B4010E94AB
:10312000CB148BED93E00E94210DC701B6010E94E4
:10313000CB14DF91CF911F910F91FF90EF90DF9013
:10314000CF90BF90AF909F908F907F900C94591527
:10315000EF92FF920F931F93CF937C018B01C42FAB
:1031600089E393E00E94210DC7010E94210D8DE2A9
:1031700093E00E94210DC8010E94210D82E293E09C
:103180000E94210D87E193E0CC2311F08DE193E0C3
:103190000E94210DCF911F910F91FF90EF900C9401
:1031A0005915CF92DF92EF92FF920F931F93CF9317
:1031B000DF938C01EB0169017A018DEF92E00E94AF
:1031C000210DC8010E94210D81EF92E00E94210D86
:1031D000CE010E94210D86EE92E00E94210DC701D2
:1031E000B6010E94CB14DF91CF911F910F91FF90F8
:1031F000EF90DF90CF900C945915009711F00C943C
:103200007A1490E080E008950F931F93CF93DF939B
:10321000C0910404D0910504882321F0C0910604D4
:10322000D0910704209709F45FC0613009F456C0BB
:1032300008F451C0623009F454C08EE89BE00E944B
:10324000210D6C8170E090E080E04AE00E948714DC
:1032500083E79BE00E94210DC8010E94210D8EE5AD
:103260009BE00E94210D6A8D7B8D8C8D9D8D009140
:10327000BC051091BD052091BE053091BF05601BB6
:10328000710B820B930B0E94CB148CE49BE00E9489
:10329000210D6E8D7F8D88A199A10091BC051091A3
:1032A000BD052091BE053091BF05601B710B820BDF
:1032B000930B0E94CB148BE39BE00E94210DCE0167
:1032C0000D960E94FD1888E39BE0DF91CF911F913E
:1032D0000F910C94FE1401E31BE0AFCF08E21BE05A
:1032E000ACCF00E21BE0A9CFDF91CF911F910F91EE
:1032F00008959091C405911104C09091C50599233A
:1033000071F09091C60591110AC06091CB05882398
:1033100021F0813021F46091CC050C9404190895BA
:10332000CF93DF93EC016E8389E992E00E94210D37
:103330008F8198850E94FD1880E992E00E94210DFE
:103340008C81082E000C990B0E94CE1486E892E026
:103350000E94210D8E8181110AC084E792E00E94B3
:10336000210D83E892E0DF91CF910C94FE148DE75C
:1033700092E0F5CF60E080910C0290910D020E94E6
:10338000901960E080910E0290910F020E949019B6
:1033900060E080911002909111020E94901960E00B
:1033A00080911202909113020E94901960E0809126
:1033B0001402909115020E94901960E0809116020B
:1033C000909117020E94901960E0809118029091EC
:1033D00019020E94901980911A0290911B02009785
:1033E00019F060E00E94901960E080911C029091B9
:1033F0001D020C940C151F93CF93DF93EC01162F35
:103400008E81882321F060E0CE010E9490198D8189
:10341000813021F460E08C810E94BF071C836D81A4
:10342000812F0E94ED078D81813021F460E08C8135
:103430000E94BF078CEC92E00E94210D8F8198853D
:103440000E94FD1883EB92E00E94210D8C81082ED2
:10345000000C990B0E94CE14DF91CF911F910C9418
:103460005915CF93DF93EC010E94FB198C810E94C8
:10347000960721E0892B09F420E02A878C810E949D
:10348000960721E0892B09F420E02B878C810E948C
:10349000960721E0892B09F420E02C871D8A1E8ADB
:1034A0001F8A188EDF91CF9108959F92AF92BF929D
:1034B000CF92DF92EF92FF920F931F93CF93DF9300
:1034C0008A01452B09F468C0E9016B016596FC018E
:1034D0006081CE010E94900FFC01BB24BA94892B1D
:1034E00009F0B5807601E894F7F8AA24A39467015F
:1034F000C00ED11E99249394309709F44DC0AA2090
:1035000009F43FC08481843069F0853049F182300C
:1035100079F5DF010D900020E9F71197CD018E1BA1
:103520009F0B07C00190F081E02D90E080E0309784
:1035300081F79F77E816F90621F5D801AC15BD058E
:10354000E1F46B2DCE01DF91CF911F910F91FF9090
:10355000EF90DF90CF90BF90AF909F900C94900F22
:10356000A081B181FD01349613968C9190E0E2CF59
:1035700090E080E0F0E0E0E0DDCF9D918191981750
:10358000E9F2A9246B2DCE010E94900FFC01892B3A
:1035900009F4B2CFB580B0CF90E080E0DF91CF9159
:1035A0001F910F91FF90EF90DF90CF90BF90AF9061
:1035B0009F900895FC0120813181C9014A96428182
:1035C000538164817581009759F0D9015E96EC9121
:1035D000E03211F090E080E0009711F00C94551A61
:1035E00090E080E00895CF93DF93EB010E94DA1A18
:1035F000009741F0FC012481263021F48081DF9185
:10360000CF9108958881FBCFCF92DF92EF92FF9206
:10361000CF93DF9300D01F921F92CDB7DEB70E94E9
:10362000DA1ADC01892B09F44BC01496EC9114973B
:10363000E250ED3008F044C0F0E08827ED5DF44E34
:103640008F4F0C946D394F1B601B641B671B301B25
:10365000601B601B601B401B601B451B601B6B1BC2
:103660006C9170E090E080E00F900F900F900F90C1
:103670000F90DF91CF91FF90EF90DF90CF90089562
:103680006D917D918D919C91EFCF8D919D910D903C
:10369000BC91A02DB7FD14C0BC01CD01E5CFCD017B
:1036A0000E94A3103A834B835C836D83CA80DB80C6
:1036B000EC80FD80223059F1233059F1213079F02E
:1036C00060E070E0CB01D0CF8D919C91E9CF8D91DE
:1036D0009C910496E5CFCD90DD90ED90FC9020E09C
:1036E00030E0A901C701B6010E94683987FDE8CF23
:1036F0002FEF3FEF4FE75FE4C701B6010E94CC36E2
:103700001816F4F2C701B6010E943939ADCFF7FCA3
:10371000D7CFC701B601A8CF8F929F92AF92BF9229
:10372000CF92DF92EF92FF920F931F93CF93DF938D
:1037300000D000D0CDB7DEB749015A01670178014A
:10374000FB0101900020E9F73197E61BF70B9A8304
:1037500089837C836B83ED838F2F8F778E83CE015C
:1037600001960E94DA1A0097B9F0FC0124812A30F0
:1037700041F02C3089F480819181A281B381B7FD21
:103780000BC0CE0101960E94041B86169706A80660
:10379000B90610F44B015C01C501B401C616D70689
:1037A000E806F90610F4C701B60126960FB6F8949C
:1037B000DEBF0FBECDBFDF91CF911F910F91FF9064
:1037C000EF90DF90CF90BF90AF909F908F90089533
:1037D0004F925F926F927F92AF92BF92CF92DF92A1
:1037E000EF92FF920F931F93CF93DF939091C405B5
:1037F000911105C09091C505992309F4E8C09091F5
:10380000C6059111E4C0823008F0E1C081110AC000
:10381000E0910404F0910504309759F481E080931D
:10382000CB05D5C0E0910604F0910704309709F468
:1038300087C09089992309F480C00189128923895E
:103840003489041715072607370708F482C0882330
:1038500009F4CCC082E08093CC05B9C08F898F5F1A
:103860008F8B9D89891708F4ADC08FA5843658F4D5
:103870000E947436A30192010E94F0378FA5681749
:1038800010F01F8A9FC01F8A888D882351F09D8960
:103890009501281B31099217130609F05CF4890F72
:1038A0008D8B8B89823008F08DC0B701A6010E94F4
:1038B000131788C08FE292E00E94210D6D8970E09D
:1038C00090E080E04AE00E9487148CE292E00E943F
:1038D000FE14E7CFCD8EDE8EEF8EF8A273C08DA5DD
:1038E000811170C089A19AA1ABA1BCA1A7019601C9
:1038F000281B390B4A0B5B0BDA01C901B7FD62C00B
:103900008DA19EA1AFA1B8A58C199D09AE09BF09D3
:10391000181619061A061B060CF054C08FA584361B
:1039200010F00DA7BECF0E947436A30192010E9431
:10393000F0378FA56817A8F345C0882309F46ECF28
:1039400081E089CF1092CB05E0910404F091050449
:1039500008C08823B9F31092CC05E0910604F091D9
:103960000704309781F00091C0051091C1052091A6
:10397000C2053091C305040F151F261F371F018B89
:10398000128B238B348B6A017B01182FC4E0D4E0A7
:10399000AA24AA94B12C94E6492E512C612C712CA6
:1039A00001E08C89882371F08EA5893011F01813FD
:1039B00009C08A89813009F48DCF08F44FCF823055
:1039C00009F48DCF6E9634E0C034D30751F7DF9100
:1039D000CF911F910F91FF90EF90DF90CF90BF900C
:1039E000AF907F906F905F904F90089582E017CFD7
:1039F000BF92CF92DF92EF92FF920F931F93CF93DC
:103A0000DF93EC01198D1F3F81F0612F45960E94D5
:103A1000900FFC018081898F309709F477C0148260
:103A20008FEF8583BF01812F76C06C0135E0C30E17
:103A3000D11CE880F9808F89882341F0C6010E945B
:103A40002210E62FF72F182F309749F71F89988DEE
:103A5000191324C0103109F459C0110F6D897E89E2
:103A6000D701ED91FC91B4E01B9FA0011124C61673
:103A7000D70609F044C00190F081E02DBA01C701DA
:103A80001995009709F442C020E1F601DC0101908C
:103A90000D922A95E1F79E8B8D8B188F0D891E89CB
:103AA0008F8921E0280F2F8BE4E08E9FC001112425
:103AB000080F191F90E1B92E203111F48FE0B82EB4
:103AC000F6E0BF9EB0011124D701ED91FC91019069
:103AD000F081E02DC7011995F80193838283892B2A
:103AE00009F4B12CD801BC9211961C92012B71F0F3
:103AF000C6010E942210E62FF72F182F8DCF0480C9
:103B0000F581E02DC7011995009729F681E08A8398
:103B100060E070E08FEFDF91CF911F910F91FF90E8
:103B2000EF90DF90CF90BF9008954F925F926F9289
:103B30007F928F929F92AF92BF92CF92DF92EF923D
:103B4000FF920F931F93CF93DF9300D01F921F928A
:103B5000CDB7DEB78C017B01B42E0E9400106C0142
:103B6000892B09F048C0C8010E94BC0F863609F4B1
:103B7000A9C124F5873229F08B3561F1823209F031
:103B8000A8C1D80115961C921E92149712968D9179
:103B90009C911397892B39F48D919C910E94A206D8
:103BA000F80193838283C8010E9478126C01892BEB
:103BB00011F5B701C8010E9457131DC0843709F4DD
:103BC00060C18B3709F47BC08E3609F082C16FEC7F
:103BD00072E060C180E4D70114968C931497E114CD
:103BE000F10421F08FEF8C9311968C93B1101AC0D1
:103BF00025E0C22ED12CC6010F900F900F900F9090
:103C00000F90DF91CF911F910F91FF90EF90DF9078
:103C1000CF90BF90AF909F908F907F906F905F906C
:103C20004F900895F8011286C8010E940010009775
:103C300051F56DE5C8010E94CC0F8111DCCFBA941B
:103C4000D8011B966D907C90C3010E94F81CA82E91
:103C50004B01672B21F494E0C92ED12CCCCFF70176
:103C600061816F3F91F0C30145960E94900FDC0186
:103C70001596AC92F701A1824B2DB401C8010E94A8
:103C8000951D009739F06C01B6CFD7018C93119632
:103C90008C93F2CFC8010E9400100097A1F76DE548
:103CA000C8010E94CC0F8111A6CF6CE2C8010E940E
:103CB000CC0F8111C5CF83E0C82ED12C9CCF80E2E0
:103CC000F7018483E114F10419F08FEF808381837D
:103CD000BB2009F48DCFD8011A961C92C8010E940E
:103CE0000010009781F66DE7C8010E94CC0F81118A
:103CF00082CFBA94F8011582148282819381892B34
:103D000049F4808191810E94A206D80113969C9368
:103D10008E931297C8010E94BC0F8732F9F082324D
:103D2000E9F0C8010E94BC0FD82E0E94AA0F882378
:103D300011F2F80112866D2DC8010E944A12C801C5
:103D40000E94BC0FD82E0E94AA0F8111F2CFD80179
:103D500012968D919C91892B41F47DCFC8010E94D0
:103D600078126C01892B09F046CFC8010E9400101F
:103D70006C01892B09F03FCF6AE3C8010E94CC0F88
:103D8000882309F498CFD8011296ED91FC911397EE
:103D900014968D919C911597E80FF91F1482149633
:103DA0006D917C9115977F771B966D907C901C97F9
:103DB00012968D919C910496272F2F77BA2DB0786B
:103DC000AB2EA22AE894A7F89301AC017A2DC70183
:103DD0000E94551A6C01009761F5C3010E94F81CFE
:103DE000482E4B01672B09F436CFC3010E94F81C03
:103DF000582E962FC92ED72EC114D10409F42BCFDB
:103E0000F4015582D70111966C916F3F71F0C30197
:103E100045960E94900FFC014582D70111965C9255
:103E2000B401C8010E94571307C0F70140825182B4
:103E3000F7CFB3010E94F4134B2DB601C8010E94C5
:103E4000951D6C01892B09F0D6CEC8010E94001087
:103E50006C01892B09F0CFCE6DE7C8010E94CC0F11
:103E60008111C9CE6CE2C8010E94CC0F882309F4ED
:103E700022CFC8010E9400106C01892B09F43ACFAF
:103E8000BACE86E0D70114968C93149781E08C9378
:103E900064EC72E0C8010F900F900F900F900F909C
:103EA000DF91CF911F910F91FF90EF90DF90CF9016
:103EB000BF90AF909F908F907F906F905F904F904A
:103EC0000C94DD0F86E0F7018483108269EC72E0C8
:103ED000E1CFC8010E94BC0F4801FDE08F0E911C8C
:103EE000B12C782CA92C803384F08A3384F43FE3FE
:103EF000B316A9F0D8011A961C92B394F4018193D9
:103F00004F01C8010E94BC0FEECF8B3281F393EDBD
:103F1000980F923060F3982F9F7D953441F30B0DED
:103F2000111DD8011D961C92872D9A2D0E94A31059
:103F30003A834B835C836D838A819B81AC81BD8195
:103F40002230A9F0233059F0213009F0B4CE2EE010
:103F5000F701248380839183A283B3834CCE2AE02C
:103F6000F701248380839183A283B38344CE2CE022
:103F7000F7CFCB01BA010C949A3ACB010C94113AC9
:103F8000CB010C9475391F920F920FB60F9211242A
:103F90002F933F938F939F93AF93BF9380915D0334
:103FA00090915E03A0915F03B091600330915C0338
:103FB00023E0230F2D3758F50196A11DB11D209345
:103FC0005C0380935D0390935E03A0935F03B093C3
:103FD00060038091610390916203A0916303B091AB
:103FE00064030196A11DB11D809361039093620348
:103FF000A0936303B0936403BF91AF919F918F919E
:104000003F912F910F900FBE0F901F90189526E8AB
:10401000230F0296A11DB11DD2CF1F920F920FB692
:104020000F9211240BB60F922F933F934F935F93F0
:104030006F937F938F939F93AF93BF93EF93FF9370
:10404000E0912C02F0912D021995FF91EF91BF9113
:10405000AF919F918F917F916F915F914F913F9120
:104060002F910F900BBE0F900FBE0F901F901895C1
:104070001F920F920FB60F9211240BB60F922F932F
:104080003F934F935F936F937F938F939F93AF93E0
:10409000BF93EF93FF93E0912A02F0912B021995C1
:1040A000FF91EF91BF91AF919F918F917F916F9110
:1040B0005F914F913F912F910F900BBE0F900FBECC
:1040C0000F901F9018951F920F920FB60F92112408
:1040D0000BB60F922F933F934F935F936F937F9302
:1040E0008F939F93AF93BF93EF93FF93E091200241
:1040F000F09121021995FF91EF91BF91AF919F919E
:104100008F917F916F915F914F913F912F910F9080
:104110000BBE0F900FBE0F901F9018951F920F921D
:104120000FB60F9211240BB60F922F933F934F931C
:104130005F936F937F938F939F93AF93BF93EF930F
:10414000FF93E0911E02F0911F021995FF91EF91EC
:10415000BF91AF919F918F917F916F915F914F919F
:104160003F912F910F900BBE0F900FBE0F901F909D
:1041700018951F920F920FB60F9211240BB60F9243
:104180002F933F934F935F936F937F938F939F935F
:10419000AF93BF93EF93FF93E0912802F091290230
:1041A0001995FF91EF91BF91AF919F918F917F9161
:1041B0006F915F914F913F912F910F900BBE0F9098
:1041C0000FBE0F901F9018951F920F920FB60F926F
:1041D00011240BB60F922F933F934F935F936F93DE
:1041E0007F938F939F93AF93BF93EF93FF93E09150
:1041F0002602F09127021995FF91EF91BF91AF919F
:104200009F918F917F916F915F914F913F912F91EE
:104210000F900BBE0F900FBE0F901F9018951F921E
:104220000F920FB60F9211240BB60F922F933F935C
:104230004F935F936F937F938F939F93AF93BF93AE
:10424000EF93FF93E0912402F09125021995FF91DD
:10425000EF91BF91AF919F918F917F916F915F91FE
:104260004F913F912F910F900BBE0F900FBE0F906B
:104270001F9018951F920F920FB60F9211240BB634
:104280000F922F933F934F935F936F937F938F93EF
:104290009F93AF93BF93EF93FF93E0912202F0912E
:1042A00023021995FF91EF91BF91AF919F918F914B
:1042B0007F916F915F914F913F912F910F900BBE26
:1042C0000F900FBE0F901F9018951F920F920FB670
:1042D0000F9211240BB60F922F933F934F935F933E
:1042E0006F937F938F939F93AF93BF93EF93FF93BE
:1042F0008091500390915103A0915203B0915303C8
:10430000892B8A2B8B2BE1F190914F03E0914D0388
:10431000F0914E0380818927808380915003909192
:104320005103A0915203B0915303181619061A06AF
:104330001B069CF48091500390915103A09152036D
:10434000B09153030197A109B10980935003909351
:104350005103A0935203B0935303FF91EF91BF9188
:10436000AF919F918F917F916F915F914F913F910D
:104370002F910F900BBE0F900FBE0F901F901895AE
:10438000809100020E94AF08E8CF1F920F920FB6F3
:104390000F9211240BB60F922F933F934F935F937D
:1043A0006F937F938F939F93AF93BF93EF93FF93FD
:1043B00085E693E00E94B20CFF91EF91BF91AF911F
:1043C0009F918F917F916F915F914F913F912F912D
:1043D0000F900BBE0F900FBE0F901F9018951F925D
:1043E0000F920FB60F9211240BB60F922F938F934B
:1043F0009F93EF93FF93E0917503F0917603808193
:10440000E0917B03F0917C0382FD1DC0908180913F
:104410007E038F5F8F7320917F03821741F0E091BD
:104420007E03F0E0EB59FC4F958F80937E03FF9164
:10443000EF919F918F912F910F900BBE0F900FBE18
:104440000F901F9018958081F2CFEF92FF920F93FB
:104450001F93CF93DF93EC01162F7A01022F6C8309
:1044600082E08D8387EB92E098878F831E8218828B
:1044700019821A821B8262E0812F0E94ED07098750
:1044800042E050E0B701CE010D960E94913B1F869D
:10449000812F0E94960721E0892B09F420E02A87CA
:1044A000812F0E94960721E0892B09F420E02B87B9
:1044B000812F0E94960721E0892B09F420E02C87A8
:1044C000188A198A1A8A1B8A1C8A1D8A1E8A1F8AC0
:1044D000188E84E1898F1A8E1B8E1C8E1D8E1E8E67
:1044E0001F8E18A219A21BA21AA21DA21CA2DF9144
:1044F000CF911F910F91FF90EF9008953F924F92AF
:104500005F926F927F928F929F92AF92BF92CF9263
:10451000DF92EF92FF920F931F93CF93DF9310924E
:1045200068031092670388EE93E0A0E0B0E0809308
:10453000690390936A03A0936B03B0936C0383E9C0
:1045400092E0909366038093650385EC90E09093EE
:1045500072038093710384EC90E0909374038093D2
:10456000730380EC90E0909376038093750381EC65
:1045700090E0909378038093770382EC90E090939F
:104580007A038093790386EC90E090937C03809388
:104590007B0310927E0310927F031092800310928F
:1045A000810320E044ED52E06AE088EB96E00E944F
:1045B000252221E047ED52E06DE082E996E00E947D
:1045C0002522C0903B02D0903C02E0903D02F0904A
:1045D0003E028090370290903802A0903902B0904D
:1045E0003A0283E080937506332433943092760642
:1045F0000AED12E010937906009378061092770680
:104600001092710610927206109273061092740640
:1046100061E00E94ED0760E083E00E94BF078092A6
:104620007A0690927B06A0927C06B0927D06C0929C
:104630007E06D0927F06E0928006F09281064424A6
:104640004A94542C32014092820650928306609222
:104650008406709285061092860610928706109244
:1046600088061092890610928A0610928B06109284
:104670008C06C8ECD0E0D0938E06C0938D06D09304
:104680009006C0938F061092910687E0809354069F
:10469000309255061093580600935706109256060E
:1046A0001092500610925106109252061092530624
:1046B00061E00E94ED0760E087E00E94BF07809202
:1046C000590690925A06A0925B06B0925C06C09280
:1046D0005D06D0925E06E0925F06F0926006409220
:1046E00061065092620660926306709264061092B0
:1046F0006506109266061092670610926806109280
:10470000690610926A0610926B06D0936D06C093EC
:104710006C06D0936F06C0936E0610927006C09020
:104720003302D0903402E0903502F090360284E0FB
:1047300080933E0630923F06CEEDD2E0D093420603
:10474000C09341061092400610923A0610923B0622
:1047500010923C0610923D0661E00E94ED0760E079
:1047600084E00E94BF07C0924306D0924406E092C4
:104770004506F0924606109247061092480610929F
:10478000490610924A0610924B0610924C0610925F
:104790004D0610924E0610924F0688E08093280630
:1047A00030922906D0932C06C0932B0610922A062D
:1047B00010922406109225061092260610922706C3
:1047C00061E00E94ED0760E088E00E94BF07C092B0
:1047D0002D06D0922E06E0922F06F092300610920F
:1047E000310610923206109233061092340610925F
:1047F000350610923606109237061092380610923F
:10480000390685E080930D0682E080930E0683EEE4
:1048100092E0909311068093100610920F0610926A
:10482000090610920A0610920B0610920C0662E01E
:1048300085E00E94ED0785E00E94960721E0892B24
:1048400009F420E02093120685E00E94960721E0FB
:10485000892B09F420E02093130685E00E94960737
:1048600021E0892B09F420E020931406109215060C
:1048700010921606109217061092180684E1809383
:10488000190610921A0610921B0610921C0610921E
:104890001D0610921E0610921F06109220061092FE
:1048A0002106109223061092220680902F029090EB
:1048B0003002A0903102B0903202C0902E02D12C72
:1048C000F12CE12C86E08093E70581E08093E805F8
:1048D00080EF92E09093EB058093EA051092E90552
:1048E0001092E3051092E4051092E5051092E6059A
:1048F00061E086E00E94ED0760E086E00E94BF076D
:10490000C092EC05D092ED05E092EE05F092EF0535
:104910008092F0059092F105A092F205B092F30515
:104920001092F4051092F5051092F6051092F70515
:104930001092F8051092F9051092FA051092FB05F5
:104940001092FC051092FD051092FE051092FF05D5
:1049500010920006109201061092020610920306B1
:104960001092040610920506109206061092070691
:104970001092080689E08093CD0582E08093CE05F1
:1049800061E089E00E94ED0762E08091CE050E941F
:10499000ED079091CE05923009F0B1C08FE898E014
:1049A00090931F0280931E0280916A00836080931F
:1049B0006A00EC9A1092CF051092D0051092D105A2
:1049C0001092D2051092D3051092D4051092D505FD
:1049D0001092D6051092D7051092D8051092D905DD
:1049E0001092DA051092DB051092DC051092DD05BD
:1049F0001092DE051092DF051092E0051092E1059D
:104A00001092E2058DEC95E09093030480930204EC
:104A10008CE3E9E4F2E0A6E1B4E001900D928A951E
:104A2000E1F710920504109204041092070410920A
:104A30000604109209041092080410920B041092BC
:104A40000A0410920D0410920C0410920F0410929C
:104A50000E0410921104109210041092130410927C
:104A6000120410921504109214041092BC051092B6
:104A7000BD051092BE051092BF0580E29EE4A0E045
:104A8000B0E08093C0059093C105A093C205B09398
:104A9000C3051092C4051092C5051092C605109268
:104AA000C7051092C8051092C9051092CA0581E089
:104AB0008093CB058093CC05109218041092360495
:104AC00010928E041092CB04EAEDF4E08AEC95E0AB
:104AD00010823F968E179F07D9F7DF91CF911F91D4
:104AE0000F91FF90EF90DF90CF90BF90AF909F908D
:104AF0008F907F906F905F904F903F90089593308C
:104B000069F48FE898E090932102809320028091CD
:104B10006A008C6080936A00ED9A4CCF8EEE890F0C
:104B2000843008F047CF87E1891BE82FF0E0EE0FD3
:104B3000FF1FE25EFD4F2FE838E031832083843091
:104B400091F08530B9F0833039F08091690083604D
:104B500080936900E89A2ECF809169008C608093E1
:104B60006900E99A27CF809169008063809369008A
:104B7000EA9A20CF80916900806C80936900EB9A5B
:104B800019CFCF93DF93CDB7DEB7C65FD1090FB68C
:104B9000F894DEBF0FBECDBF789484B5826084BD2B
:104BA00084B5816084BD85B5826085BD85B5816031
:104BB00085BD80916E00816080936E0010928100AF
:104BC000809181008260809381008091810081606A
:104BD000809381008091800081608093800080912B
:104BE000B10084608093B1008091B00081608093B7
:104BF000B00080919100826080939100809191003B
:104C000081608093910080919000816080939000FA
:104C10008091A10082608093A1008091A1008160B9
:104C20008093A1008091A00081608093A00080917A
:104C30002101826080932101809121018160809314
:104C400021018091200181608093200180917A0070
:104C5000846080937A0080917A00826080937A00E9
:104C600080917A00816080937A0080917A008068D8
:104C700080937A001092C1000E944E08E091750363
:104C8000F091760382E08083E0917103F0917203EA
:104C90001082E0917303F091740380E1808310929D
:104CA0007D03E0917903F0917A0386E08083E091BF
:104CB0007703F0917803808180618083E0917703AE
:104CC000F0917803808188608083E0917703F09190
:104CD0007803808180688083E0917703F091780386
:104CE00080818F7D808384E690E0A0E0B0E08093B7
:104CF000690390936A03A0936B03B0936C030E94C3
:104D00004E0885E693E00E949C0C892B29F085E6ED
:104D100093E00E947A0CF5CF80917B00877F80938F
:104D20007B0080E480937C0080917A008064809393
:104D30007A0080917A0086FDFCCF80907800909078
:104D40007900092C000CAA08BB080E9429088B01D5
:104D50009C01C501B4016027712782279327801623
:104D60009106A206B30611F00E94C33604EF11E0CB
:104D700024E630E040E050E0B801809175060E94E2
:104D8000F4080E944E08809175060E94AF080C50EE
:104D90001E4F003D27E0120759F788EB96E09093ED
:104DA00005048093040482E996E0909307048093BD
:104DB000060489E096E0909309048093080481E753
:104DC00096E090930B0480930A0480E596E090931C
:104DD0000D0480930C048AE396E090930F04809373
:104DE0000E0484E296E0909311048093100483EE05
:104DF00095E090931304809312048DEC95E09093CA
:104E000015048093140428EE3BE13093DB062093D5
:104E1000DA0689E799E19093DD068093DC0630930A
:104E2000B5062093B4069093B7068093B60681E04A
:104E30008093C8061092A2061092C0051092C10578
:104E40001092C2051092C30590918E04E2E5F4E041
:104E500080E089130DC09091CB04EFE8F4E080E08E
:104E60008917B1F02081213071F08F5F3A96F8CF29
:104E70002081213019F08F5F3A96EBCF168217828E
:104E800010861186F8CF1682178210861186EDCF14
:104E9000409101025091020260910302709104025C
:104EA0002091050280910602909107020E94BD06A2
:104EB00086E698E00E94FE1488E199E20FB6F89425
:104EC000A895809360000FBE909360006E013EEC49
:104ED000C30ED11C160145E0240E311CCB50DF4F10
:104EE0002882C55FD040CA50DF4F3882C65FD040AD
:104EF000C6014A96CD50DF4F99838883C35FD04067
:104F0000A8950E9483084B015C018091BE0688230E
:104F100031F0B501A40188EB96E00E948D0D8091DF
:104F20009806882331F0B501A40182E996E00E9439
:104F30008D0D80910F06882309F44BC080910D06DA
:104F40000E94960711E0892B09F410E08091130666
:104F5000181741F08092150690921606A092170637
:104F6000B09218068091150690911606A09117062A
:104F7000B0911806B501A401481B590B6A0B7B0BB5
:104F80008091190690E0B0E0A0E084179507A6078D
:104F9000B707E8F4809114061817C9F010931406A7
:104FA00080911206181709F4B8C180921A069092DF
:104FB0001B06A0921C06B0921D06E0912206F091FD
:104FC0002306309721F0B501A40182E019951093D2
:104FD00013068091C605811139C004E014E0F80180
:104FE0008489882339F08289813009F4EAC18230CA
:104FF00009F41EC2025E1F4FF0E44F2EF4E05F2E54
:105000004016510661F70CEC14E0F8018685882300
:10501000A1F082859385A485B58524013501481AC0
:10502000590A6A0A7B0AD301C201B7FD06C0168677
:10503000B501A401C8010E941716015F1F4FECEBD8
:105040006E2EE5E07E2E60167106F9F680910A0458
:1050500090910B04009721F0B501A4010E940D0F5F
:1050600080910C0490910D04009721F0B501A401EA
:105070000E940D0F80910E0490910F04009721F073
:10508000B501A4010E94F40D8091100490911104C7
:10509000009721F0B501A4010E94F40D00911204C3
:1050A000109113040115110509F477C0F8018681E8
:1050B000811104C084A1882309F4FDC1F80191A1E4
:1050C000913009F065C084A1811162C085A1882357
:1050D00009F4EAC1458956896789708D2401350133
:1050E000441A550A660A770AB301A20177FD50C037
:1050F000818A928AA38AB48A458556856785708994
:10510000480D591D6A1D7B1D458B568B678B708F13
:1051100082A1892782A38823D9F180819181A281EC
:10512000B381892B8A2B8B2B99F180E695E00E9425
:10513000210DF8018481082E000C990B0E94CE14D9
:105140008DE395E00E94210DF801618972898389C0
:105150009489408051806280738064197509860942
:1051600097090E94CB148BE295E00E94210DF80173
:10517000658976898789908D4080518062807380AF
:1051800064197509860997090E94CB140E94591564
:10519000B501A401C8010E948D0E8091D00588231D
:1051A00049F18091DE05811125C08091CF058823CA
:1051B00009F1F8941092CF054090D1055090D20596
:1051C0006090D3057090D405789489EA95E00E94A8
:1051D000210D8091CE05082E000C990B0E94CE1453
:1051E00087E895E00E94210DC301B2010E94CB1413
:1051F0000E9459158091D9058823C9F08091DA055C
:105200009091DB05A091DC05B091DD05881A990A23
:10521000AA0ABB0AF2E38F169104A104B10438F084
:1052200060E08091CD050E94BF071092D90585E608
:1052300093E00E949C0C181619060CF069C68AE0CF
:1052400092E0F60191838083128214821382368A5F
:10525000258A178A84E0808F8FEF818F168E878F43
:105260009E012F5F3F4F590110E000E00E9483082C
:1052700060936D0370936E0380936F03909370033C
:1052800085E693E00E947A0C97FD02C00C941736D5
:105290000E94830840906D0350906E0360906F03EE
:1052A0007090700364197509860997094090690325
:1052B00050906A0360906B0370906C0364157505E1
:1052C00086059705E8F20F37110561F485E693E04E
:1052D0000E949C0C892B31F085E693E00E947A0CA9
:1052E0000A97A1F7E1E0F0E0EC0FFD1FE00FF11FDE
:1052F00010820530110508F4E8C045E050E066EF83
:1053000072E0CE0101960E947B3B892B09F0DDC043
:1053100086E698E00E94FE14F8C580921E069092E0
:105320001F06A0922006B092210681E195E00E941E
:10533000210D80911006909111060E94FD1888E0C1
:1053400095E00E94210D80910D06082E000C990B0E
:105350000E94CE1485EE94E00E94210D60911A0601
:1053600070911B0680911C0690911D0640900906C5
:1053700050900A0660900B0670900C06641975092F
:10538000860997090E94CB1483ED94E00E94210DB9
:1053900060911E0670911F06809120069091210653
:1053A0004090090650900A0660900B0670900C061B
:1053B00064197509860997090E94CB140E94591532
:1053C00006CE858D968DA78DB0A10097A105B1055C
:1053D00009F410CEB501A401481B590B6A0B7B0BD5
:1053E000818D928DA38DB48D481759076A077B076D
:1053F00008F400CE858E968EA78EB0A287A584363F
:1054000068F40E94743624E630E040E050E00E94E8
:10541000F037F80187A5681708F0ECCDF80183890B
:10542000823008F0E7CDB501A4010E941317E2CD48
:1054300085A196A1A7A1B0A50097A105B10509F482
:10544000D9CD24013501481A590A6A0A7B0AD301C9
:10545000C201B7FDCFCD41A452A463A474A460E0FF
:1054600070E0CB01141415041604170434F40E94E0
:105470007436A30192010E94F037680D791D8A1DD0
:105480009B1DF80161A372A383A394A381A592A598
:10549000A3A5B4A5880D991DAA1DBB1D85A396A320
:1054A000A7A3B0A715A6A6CD60E084810E94BF0780
:1054B000F80113A272CE818A928AA38AB48A858A5D
:1054C000968AA78AB08E60E0F0CFF6016081718184
:1054D000CB50DF4F8881C55FD040CA50DF4F9881E5
:1054E000C65FD0400E944E10F601128200811181E9
:1054F000F60183819481009751F0FC012081318174
:10550000F60134832383B8010E94EA13F1CF168E8B
:10551000CF57DF4FD982C882C158D040CD57DF4F17
:1055200019821882C358D040CB57DF4F1982188296
:10553000C558D040C957DF4F1882C758D0404424BF
:105540004394512C4C0E5D1EC857DF4F5982488240
:10555000C858D040C557DF4F1882CB58D040C457E9
:10556000DF4FD982C882CC58D0404AE0CD50DF4FBF
:1055700068817981C35FD040CE018F579F4F0E94D1
:10558000951D8C01892B69F4C657DF4F8881CA5855
:10559000D040882331F0F601868D83FF02C003E0FE
:1055A00010E0CD57DF4F88819981C358D0400097D4
:1055B00051F0CF57DF4FE881F981C158D040608169
:1055C00071810E94EA1301151105F1F088EE99E04E
:1055D0000E94210DF801EE0FFF1FE65AF74F85914B
:1055E00094910E94210D85EE99E00E94FE1485E6BB
:1055F00093E00E949C0C181619060CF086C485E6F0
:1056000093E00E947A0CF3CFCF57DF4FD982C88244
:10561000C158D0408CEF92E0CD57DF4F99838883FB
:10562000C358D04083E0CB57DF4F8883C558D04064
:10563000CA57DF4F1881C658D04010781068CA5733
:10564000DF4F1883C658D040CE018F579F4F0E941E
:10565000DA1A009709F459C4FC018481882309F4FB
:1056600054C41068CA57DF4F1883C658D040CE01C3
:105670008F579F4F0E94DA1ADC01892B09F4D9C099
:105680001496EC911497E250ED3008F0D2C0F0E09F
:105690008827E25BF44D8F4F0C946D391C2C192C2C
:1056A000472C4A2C192C192C192C192C5B2B192C32
:1056B000092C192C4E2C8D919D910D90BC91A02DF3
:1056C0008115F0E89F07A105B10508F0B2C0BC0143
:1056D000693D91E0790709F455C10CF0FDC16837C7
:1056E000F1E07F0709F4B9C50CF051C1673331E02F
:1056F000730709F484C40CF00EC16D3251E07507D4
:1057000009F4AEC30CF0FBC06C3291E0790709F4E8
:10571000AFC36D3D710509F4EFC60CF067C3673682
:10572000710511F40C9462340CF01EC365367105DA
:1057300009F42CC714F00C9459346436710509F03F
:1057400078C00E9483084B015C01809254039092C0
:105750005503A0925603B09257038DEC95E00E943A
:10576000390E1092C4051092C605EAEDF4E01082DD
:105770003F9645E0EA3CF407D1F7E0910A04F09146
:105780000B04309719F084810E94AF08E0910C045B
:10579000F0910D04309719F084810E94AF08E091D8
:1057A0000E04F0910F04309721F060E084810E9494
:1057B000BF07E0911004F0911104309721F060E0F0
:1057C00084810E94BF07E0911204F0911304309786
:1057D00029F015A260E084810E94BF0785ED95E065
:1057E0000E94210D8091580390915903A0915A0372
:1057F000B0915B0324013501481A590A6A0A7B0AF1
:10580000C301B2010E94CB140E9459150E94BA191B
:105810007CC38D919D910D90BC91A02D8C019D011B
:1058200010582F4F3F4F011511052140310508F445
:105830004ECF80EE98E06ECDCD010E94A310C251F4
:10584000DF4F2883CE5ED040C151DF4F3883CF5E1B
:10585000D040C051DF4F4883C05FD040CF50DF4FB2
:105860005883C15FD040CE50DF4F6883C25FD040C5
:10587000C151DF4F88809980AA80BB80CF5ED04025
:10588000223051F12330A1F1213099F60BC08D91D6
:105890009C91D3CF8D919C910496CFCF8D909D906C
:1058A000AD90BC9020E030E040E057ECC501B40181
:1058B0000E94683987FDBDCF20E03EEF4FEF56E4F0
:1058C000C501B4010E94CC3618160CF4B2CFC50144
:1058D000B4010E943239FCCED501C4019058AF4FBB
:1058E000BF4F0097A140B10508F0A3CFB401F0CE9F
:1058F000811480E89806A104B104C0F39ACF6F32F6
:10590000E1E07E0709F457C36633F1E07F0709F051
:1059100000CF60E075C3633721E0720709F4AAC2C3
:105920003CF5693341E0740709F0F3CE00911202AF
:10593000109113020E948308F801618B728B838B94
:10594000948B85849684A784B088DC01CB01880D74
:10595000991DAA1DBB1D858B968BA78BB08F81E0EF
:1059600080A343E058E069E078E08EE098E044C32B
:10597000643751E0750709F4CFC2653781E07807D5
:1059800009F0C7CE683D714009F478C0BEC26139E4
:1059900091E0790709F457C3B4F56E37F1E07F075A
:1059A00009F433C324F56D3731E0730709F0B1CE44
:1059B000EE24EA94FE2C00E010E021E030E040E02C
:1059C00050E060E073E0C6010E948C1B9B01AC01BB
:1059D000E0911202F09113022187328743875487A6
:1059E00061E278E08BE298E00E94D1188EC26238C2
:1059F00041E0740709F446C4603951E0750709F0C5
:105A000088CE60E021C36B3981E0780709F443C395
:105A100064F46339E1E07E0709F41BC36A39F1E0FD
:105A20007F0709F076CE60E037C36D3921E0720759
:105A300009F457C3683D31E0730709F06ACE10ECF2
:105A4000E12E17E2F12E09E010E021E030E040E025
:105A500050E06AE073E0C6010E948C1B9B01AC0120
:105A6000E0911402F0911502218732874387548711
:105A700065EF77E08EEF97E00E94D118CF57DF4FA8
:105A8000D982C882C158D0408AE093E0CD57DF4F19
:105A900099838883C358D04088E0CB57DF4F8883F1
:105AA000C558D040CA57DF4F8881C658D04080784B
:105AB0008068CA57DF4F8883C658D040CE018F57C1
:105AC0009F4F0E94041B60933302709334028093B3
:105AD0003502909336026CC26F3942E0740709F4C4
