:100000000C9412070C94F2310C94C7310C949C316F
:100010000C9471310C9446310C941B310C94F030DB
:100020000C94C5300C94DD320C9443070C944307B8
:100030000C9443070C941D320C9443070C94430713
:100040000C9443070C9443070C9443070C94430708
:100050000C9443070C9443070C9443070C947B3097
:100060000C9443070C94A7320C947D320C944307F4
:100070000C9443070C9443070C9443070C944307D8
:100080000C9443070C9443070C9443070C944307C8
:100090000C9443070C9443070C9443070C944307B8
:1000A0000C9443070C9443070C9443070C944307A8
:1000B0000C9443070C9443070C9443070C94430798
:1000C0000C9443070C9443070C9443070C94430788
:1000D0000C9443070C9443070C9443070C94430778
:1000E0000C9443070C94E41D0C94A72A0C949308D9
:1000F0000C9473080C9471300C9454080C94783060
:100100000C9490090C94992A0C94E01D0C948A2A62
:100110000C948F080C945C080C94AF090C947B0D24
:100120000C948E080C9458080C9469080C94E71CE5
:100130000C949D0D0C94AA1D0C948E2A0C94C81D31
:100140000C9485080C94D92A0C946D080C94B71D56
:100150000C943F0D0C94CC1C0C94481E0C94EE1C7B
:100160000C949B2A0C94DD1D0C94EB1C0C948908B8
:100170000C94D22A0C94C71C0C946C0D0C94D52AA8
:100180000C949B1D0C9475300C948F330C94600868
:100190000C94001B0C94B71C0C948F0D0C94D61C63
:1001A0000C944E080C9481080C94D50D0C946308A3
:1001B0000C94CB1D0C947B080C9477080C943D0E8A
:1001C0000C94F21C546F6F44656570004E6F4D6562
:1001D0006D6F727900496E76616C6964496E7075F5
:1001E0007400496E636F6D706C657465496E7075EF
:1001F0007400456D707479496E707574004F6B00B2
:10020000CDCCCC3D0AD7233C17B7D13877CC2B3295
:100210009595E6241FB14F0A000020410000C84216
:1002200000401C4620BCBE4CCA1B0E5AAEC59D7475
:10023000227D007B226C6576656C223A223030315B
:10024000222C22646576696365223A22434F4E541C
:10025000524F4C4C4552222C2264657363223A2241
:100260005052207468726573686F6C6420636170AB
:1002700070656420617420007B226C6576656C2259
:100280003A22303030222C22646576696365223A46
:1002900022534C4D222C22706172616D223A2274DD
:1002A000696D657374616D705F70696E222C227662
:1002B000616C7565223A007B226C6576656C223A2A
:1002C00022303037222C22646576696365223A2217
:1002D000434F4E54524F4C4C4552222C226576656A
:1002E0006E74223A22454E44222C2274696D657345
:1002F00074616D70223A004C48005248007B226CB9
:100300006576656C223A22303030222C227661727A
:100310006961626C655F696E74657276616C223AC0
:10032000004C455645525F4C48004C455645525F7F
:10033000524800534C4D004D4943524F53434F5088
:1003400045004C49434B004C415345520050554DDC
:1003500050320050554D50004355453200435545ED
:1003600000222C2274726163655F696E7465727617
:10037000616C223A002C226163746976655F6C655A
:10038000766572223A22007B226C6576656C223A91
:1003900022303030222C22646576696365223A224D
:1003A000434F4E54524F4C4C4552222C2270617296
:1003B000616469676D223A225641524941424C4577
:1003C0005F494E54455256414C222C2274696D654A
:1003D0006F7574223A007B226C6576656C223A2236
:1003E000303037222C22646576696365223A2243D5
:1003F0004F4E54524F4C4C4552222C226576656E1E
:1004000074223A225354415254222C2274696D654D
:100410007374616D70223A307D007B226C65766565
:100420006C223A22303030222C2264657669636572
:10043000223A224D4943524F53434F5045222C22DA
:10044000706172616D223A22747269676765725FCA
:1004500070696E222C2276616C7565223A004649DD
:100460005245440074657374004D4943524F5343E1
:100470004F504500494E444550454E44454E54006A
:100480006D6F6465004C4153455200434F4E5449D3
:100490004E47454E54006D6F6465004C41534552C4
:1004A000006475726174696F6E004C41534552006F
:1004B0006672657175656E6379004C4153455200F3
:1004C00046495245440074657374004C415345528B
:1004D00000464952454400746573740050554D50B0
:1004E00032006475726174696F6E0050554D503200
:1004F00000464952454400746573740050554D5090
:10050000006475726174696F6E0050554D500046FD
:100510004952454400746573740043554532006484
:1005200075726174696F6E0043554532006672657D
:100530007175656E637900435545320046495245F1
:1005400044007465737400435545006475726174AA
:10055000696F6E00435545006672657175656E631F
:10056000790043554500FD01F201E201D501CC01BE
:10057000C4017B226C6576656C223A2230303622CB
:100580002C2264657363223A22436F6D6D616E6441
:10059000206E6F7420666F756E64227D006C6576C8
:1005A00065725F66696C74657200434F4E54524FBA
:1005B0004C4C45520073657373696F6E5F70617563
:1005C00073656400434F4E54524F4C4C4552007477
:1005D0006573745F6D6F646500434F4E54524F4CAA
:1005E0004C455200464952454400746573745F633C
:1005F0006861696E00434F4E54524F4C4C45520057
:1006000050554D500050554D50320061637469761D
:10061000655F70756D7000434F4E54524F4C4C45A2
:10062000520074726163655F696E74657276616CA5
:1006300000434F4E54524F4C4C45520076695F690F
:100640006E74657276616C00434F4E54524F4C4C41
:100650004552007265696E666F72636564004C4551
:100660005645525F4C48007265696E666F726365ED
:1006700064004C455645525F4C480074696D656F87
:100680007574004C455645525F4C48007265696E62
:10069000666F72636564004C455645525F52480070
:1006A0007265696E666F72636564004C45564552AB
:1006B0005F52480074696D656F7574004C4556450E
:1006C000525F524800227D007B226C6576656C2269
:1006D0003A22303036222C2264657363223A22009B
:1006E00044495341524D45440041524D4544002236
:1006F0007D002C2264657363223A2200222C227032
:10070000696E223A007B226C6576656C223A223053
:100710003031222C22646576696365223A220022F8
:100720002C22706172616D223A2270696E222C2235
:1007300076616C7565223A007B226C6576656C2269
:100740003A22303030222C22646576696365223A81
:100750002200222C2276616C7565223A00222C221E
:10076000706172616D223A22007B226C6576656C45
:10077000223A22303030222C226465766963652269
:100780003A220066616C7365007472756500222CF4
:100790002276616C7565223A00222C2270617261AA
:1007A0006D223A22007B226C6576656C223A2230FB
:1007B0003030222C22646576696365223A22002259
:1007C0007D00222C2276616C7565223A2200222C53
:1007D00022706172616D223A22007B226C6576651F
:1007E0006C223A22303030222C22646576696365AF
:1007F000223A220044495341524D45440041524D52
:10080000454400227D002C2264657363223A220055
:100810007B226C6576656C223A22303031222C22A4
:10082000646576696365223A224D4943524F5343CA
:100830004F5045222C2270696E223A0066616C731B
:10084000650074727565002C226475726174696F3D
:100850006E223A002C226672657175656E6379228C
:100860003A00222C2261726D6564223A007B226C70
:100870006576656C223A22303030222C226465760F
:10088000696365223A220066616C73650074727553
:1008900065002C226475726174696F6E223A0022C1
:1008A0002C2261726D6564223A007B226C6576654C
:1008B0006C223A22303030222C22646576696365DE
:1008C000223A220066616C736500747275650022BD
:1008D0002C2261726D6564223A007B226C6576651C
:1008E0006C223A22303030222C22646576696365AE
:1008F000223A220066616C73650074727565006649
:10090000616C73650074727565002C227265696E86
:10091000666F72636564223A00222C2261726D65F3
:1009200064223A007B226C6576656C223A22303074
:1009300030222C22646576696365223A2200027BAC
:10094000226C6576656C223A22303030222C22648B
:100950006576696365223A22434F4E54524F4C4CA0
:100960004552222C22736B65746368223A227669A1
:100970002E696E6F222C2276657273696F6E223A31
:100980002276322E302E30222C22626175645F7204
:10099000617465223A3131353230302C227363680C
:1009A0006564756C65223A225641524941424C4574
:1009B0005F494E54455256414C227D002C22656EB3
:1009C000645F74696D657374616D70223A002C22E6
:1009D0006576656E74223A224C49434B222C227371
:1009E000746172745F74696D657374616D70223ABD
:1009F00000222C2270696E223A007B226C6576659B
:100A00006C223A22303037222C2264657669636585
:100A1000223A22002C22656E645F74696D657374DE
:100A2000616D70223A002C226576656E74223A223E
:100A30005354494D222C2273746172745F74696D32
:100A4000657374616D70223A007B226C6576656C0B
:100A5000223A22303037222C22646576696365227F
:100A60003A224C41534552222C2270696E223A00A0
:100A70002C226576656E74223A2254494D455354B2
:100A8000414D50222C2274696D657374616D702222
:100A90003A007B226C6576656C223A22303038222F
:100AA0002C22646576696365223A224D4943524F90
:100AB00053434F5045222C2270696E223A002C225B
:100AC0006576656E74223A2254494D455354414D22
:100AD00050222C2274696D657374616D70223A0026
:100AE0007B226C6576656C223A22303039222C22CA
:100AF000646576696365223A22534C4D222C22703C
:100B0000696E223A0000002100240027002A002DEF
:100B1000003000330001010000040107010A010058
:100B2000002200250028002B002E00310034000296
:100B3000010000050108010B010000200023002630
:100B40000029002C002F00320000010000030106E4
:100B50000109010505050507050808080802020244
:100B6000020A0A0808040404040101010101010148
:100B7000010303030303030303040707070C0C0C1F
:100B80000C0C0C0C0C0202020206060606060606F7
:100B9000060B0B0B0B0B0B0B0B0102102020080894
:100BA00010204010204080020102010804020101CF
:100BB00002040810204080804020100804020180B8
:100BC000040201804020100804020108040201010F
:100BD0000204081020408001020408102040800018
:100BE000000A0B02090C0D0E0807030401000000A7
:100BF00000000000000000000000000000000000F5
:100C000000000000000000000000001211100000B1
:100C100000000000000000000000000000000000D4
:100C2000000000000044495341524D4544004152E8
:100C30004D454400227D002C2264657363223A22D4
:100C4000007B226C6576656C223A22303031222C92
:100C500022646576696365223A22534C4D222C2228
:100C600070696E223A0054494D454F555400494E23
:100C70004143544956450041435449564500227D5D
:100C8000002C226F7269656E746174696F6E223A0E
:100C900022002C22656E645F74696D657374616DEA
:100CA00070223A00222C2273746172745F74696D31
:100CB000657374616D70223A002C226576656E74DE
:100CC000223A225052455353222C22636C61737393
:100CD000223A22007B226C6576656C223A22303003
:100CE00037222C22646576696365223A225357497C
:100CF0005443485F4C45564552222C2270696E225F
:100D00003A002C227363686564756C65645F617476
:100D1000223A002C22746172676574223A007B22A9
:100D20006C6576656C223A22303036222C22657250
:100D3000726F725F636F6465223A22455F50454E61
:100D400044494E475F46554C4C222C2264657363E0
:100D5000223A2250656E64696E6720616374696F20
:100D60006E2071756575652066756C6C20E28094E7
:100D700020616374696F6E2064726F7070656422A5
:100D80002C22616374696F6E5F74797065223A001A
:100D90005354494D00494E465553494F4E00494E14
:100DA000465553494F4E00544F4E4500544F4E4503
:100DB000004C415345520050554D505F3200505544
:100DC0004D50004355455F3200435545002C226588
:100DD0006E645F74696D657374616D70223A002290
:100DE0002C2273746172745F74696D657374616DC4
:100DF00070223A002C226576656E74223A22002217
:100E00002C2270696E223A007B226C6576656C221A
:100E10003A22303037222C22646576696365223AA3
:100E200022008F3311241FBECFEFD1E2DEBFCDBF32
:100E300000E00CBF13E0A0E0B2E0E4E8F1E800E07D
:100E40000BBF02C007900D92A035B107D9F727E07C
:100E5000A0E5B3E001C01D92A631B207E1F717E0AB
:100E6000C2E1D7E000E006C021970109802FFE0112
:100E70000E948D3EC131D10780E00807A9F70E948A
:100E800017370C94C0400C940000CF93DF93EC0113
:100E900088819981DC01ED91FC910190F081E02D38
:100EA00064E270E01995009741F02FE1FC01238383
:100EB00021E02283DF91CF91089521E02A83FACFA8
:100EC000CF92EF92FF920F931F93E8E2F4E032E0AB
:100ED000328B138A31E0348B41A752A763A774A7E2
:100EE00011A212A213A214A215A216A217A210A652
:100EF00015A649E046A744E647A712AA44E0409356
:100F0000B2041092760443E0409377041092780480
:100F10001092790410927A0410927B044091B206E8
:100F20005091B3066091B4067091B50640937C046D
:100F300050937D0460937E0470937F04109280042C
:100F4000C09281044E0D5F1D601F711F409382048B
:100F5000509383046093840470938504FC0181851D
:100F60009285A385B4858093860490938704A0938B
:100F70008804B093890410928A0487E080938B04DC
:100F800040938C0450938D0460938E0470938F046F
:100F90008091200690912106A0912206B09123060F
:100FA0008093900490939104A0939204B09393043F
:100FB0003093940420939504109296041092970411
:100FC00010929804109299048091E4059091E5059F
:100FD000A091E605B091E70580939A0490939B0455
:100FE000A0939C04B0939D041F910F91FF90EF90EC
:100FF000CF9008956093E4057093E5058093E6052E
:101000009093E7053091B204E6E7F4E020E0231383
:101010000DC03091EF04E3EBF4E020E02317B1F0D2
:101020004081413071F02F5F3A96F8CF40814130D6
:1010300019F02F5F3A96EBCF66837783808791878D
:10104000F8CF6683778380879187EDCF0895EEEFA1
:10105000F4E010823F9685E0EE3EF807D1F7089560
:101060008150823108F05AC0E82FF0E08827E45C14
:10107000F74F8F4F0C948D3E5C0860084E08540863
:1010800058088E08630869086D08730877087B089C
:10109000810885088E0889088F0893088091800050
:1010A0008F77809380000895809180008F7DF9CFA5
:1010B00080918000877FF5CF84B58F7784BD0895B8
:1010C00084B58F7DFBCF8091B0008F778093B00087
:1010D00008958091B0008F7DF9CF809190008F7737
:1010E000809390000895809190008F7DF9CF80913A
:1010F0009000877FF5CF8091A0008F778093A0002C
:1011000008958091A0008F7DF9CF8091A000877F06
:10111000F5CF809120018F778093200108958091F1
:1011200020018F7DF9CF80912001877FF5CFCF936C
:10113000DF93282F30E0F901E152F44F8491F90157
:10114000E756F44FD491F901ED5AF44FC491CC23F2
:10115000A1F081110E943008EC2FF0E0EE0FFF1F8C
:10116000E75CF44FA591B491EC91ED2381E090E020
:1011700009F480E0DF91CF91089580E090E0FACF0C
:101180001F93CF93DF93282F30E0F901E152F44F02
:101190008491F901E756F44FD491F901ED5AF44FD7
:1011A000C491CC23A9F0162F81110E943008EC2F96
:1011B000F0E0EE0FFF1FE15EF44FA591B4918FB701
:1011C000F894EC91111108C0D095DE23DC938FBF09
:1011D000DF91CF911F910895DE2BF8CFCF93DF934E
:1011E00090E0FC01E756F44F24918D5A944FFC0196
:1011F00084918823C9F090E0880F991FFC01EB5F70
:10120000F44FA591B491FC01E15EF44FC591D491E6
:1012100061110DC09FB7F8948C91209582238C9317
:101220008881282328839FBFDF91CF910895623062
:1012300051F49FB7F8943C91822F809583238C932F
:10124000E8812E2BEFCF8FB7F894EC912E2B2C93B7
:101250008FBFEACF3FB7F8948091830390918403C6
:10126000A0918503B091860326B5A89B05C02F3FAA
:1012700019F00196A11DB11D3FBFBA2FA92F982FBC
:101280008827BC01CD01620F711D811D911D42E0B7
:10129000660F771F881F991F4A95D1F708958F927F
:1012A0009F92AF92BF92CF92DF92EF92FF920E94F5
:1012B0002A094B015C0184E6C82ED12CE12CF12CCB
:1012C0000E942A09681979098A099B09683E7340B6
:1012D00081059105A8F321E0C21AD108E108F108BF
:1012E00088EE880E83E0981EA11CB11CC114D104A5
:1012F000E104F10429F7FF90EF90DF90CF90BF90C9
:10130000AF909F908F9008952FB7F89460917F03CE
:101310007091800380918103909182032FBF089583
:101320000F931F93CF93DF93C0912604D09127048E
:10133000209781F081E08A830E94840908851985BD
:101340002A853B85601B710B820B930B6C837D831D
:101350008E839F83DF91CF911F910F910895089500
:101360009091040289130DC0EEE3F9E0E4919FEF40
:1013700090930402E230E1F038F4EE2381F0E130A2
:1013800089F060E00C94C008E43049F110F1E530D8
:10139000C1F7909173009D7F90937300F2CF1092EC
:1013A0006E00EFCF90916F009D7F90936F00E9CF1B
:1013B000909170009D7F9093700091E09093B000A9
:1013C0009091B100987F94609093B1001092B30017
:1013D000D8CF909171009D7F90937100D2CF909162
:1013E00072009D7F90937200CCCF4F925F926F926C
:1013F0007F928F929F92AF92BF92CF92DF92EF92A5
:10140000FF920F931F93CF93DF9300D01F921F92F1
:10141000CDB7DEB78B0129013A01909104028917FB
:10142000C9F09F3F09F491C00F900F900F900F905B
:101430000F90DF91CF911F910F91FF90EF90DF9070
:10144000CF90BF90AF909F908F907F906F905F9064
:101450004F900895EEE3F9E024912D8327FDE4CF2A
:1014600061E00E94EE082D81222321F08D818230DF
:1014700009F005C24801B12CA12C60E072E18AE7B5
:1014800090E0A50198010E94103D29833A834B8387
:101490005C8369017A0191E0C91AD108E108F10879
:1014A0002FEFC216D104E104F10409F00CF4B6C127
:1014B00060E472E48FE090E0A50198010E94103D85
:1014C00069017A0181E0C81AD108E108F1089D811B
:1014D000923009F026C182E02FEFC216D104E10458
:1014E000F10409F00CF46CC160E970ED83E090E068
:1014F000A50198010E94103D69017A0181E0C81A96
:10150000D108E108F10883E09FEFC916D104E10496
:10151000F10409F00CF454C168E478EE81E090E045
:10152000A50198010E94103D69017A0181E0C81A65
:10153000D108E108F1089FEFC916D104E104F104D4
:1015400011F00CF044C184E03BC180930402EEE34F
:10155000F9E094919D839F3F09F466CF923009F49E
:1015600074C058F4992399F1913009F44CC097FD57
:101570005BCF61E00E94EE0879CF2D81243009F421
:10158000AEC008F488C0253091F710922001109267
:101590002101909121019860909321019091210166
:1015A000916090932101282F30E0F901ED5AF44F1A
:1015B000E491F0E0EE0FFF1FE15EF44F459154918E
:1015C000F901E756F44FE491E093550349CF14BC79
:1015D00015BC94B5926094BD95B5916095BD282FCA
:1015E00030E0F901ED5AF44FE491F0E0EE0FFF1F07
:1015F000E15EF44F45915491F901E756F44FE491BF
:10160000E09359032DCF10928000109281009091A9
:1016100081009860909381009091810091609093F7
:101620008100282F30E0F901ED5AF44FE491F0E009
:10163000EE0FFF1FE15EF44F45915491F901E7561B
:10164000F44FE491E09358030BCF1092B000109246
:10165000B1009091B00092609093B0009091B10071
:1016600091609093B100282F30E0F901ED5AF44FCA
:10167000E491F0E0EE0FFF1FE15EF44F45915491CD
:1016800050936F0340936E03F901E756F44FE491D2
:10169000E0937003E5CE109290001092910090912B
:1016A0009100986090939100909191009160909337
:1016B0009100282F30E0F901ED5AF44FE491F0E069
:1016C000EE0FFF1FE15EF44F45915491F901E7568B
:1016D000F44FE491E093570393E09D83C1CE1092C1
:1016E000A0001092A1009091A10098609093A10099
:1016F0009091A10091609093A100282F30E0F90112
:10170000ED5AF44FE491F0E0EE0FFF1FE15EF44F6D
:1017100045915491F901E756F44FE491E093560353
:101720009FCE2FEFC216D104E104F10409F00CF4AE
:10173000A4C068E478EE81E090E0A50198010E94E1
:10174000103D69017A0181E0C81AD108E108F10869
:101750009D81992309F489C19FEFC916D104E10441
:10176000F10409F00CF4EFCE62E17AE780E090E05A
:10177000A50194010E94103D69017A0181E0C81A17
:10178000D108E108F1089D81992309F453C186E04D
:101790009FEFC916D104E104F10491F088F0C980EB
:1017A000DA80EB80FC808AE0F594E794D794C794C4
:1017B0008A95D1F781E0C81AD108E108F10887E0DD
:1017C0009091B100987F892B8093B1002FC064E283
:1017D00074EF80E090E0A50194010E94103D690142
:1017E0007A0181E0C81AD108E108F10885E09FEF8D
:1017F000C916D104E104F10419F310F362E17AE7A8
:1018000080E090E0A50194010E94103D69017A01F9
:1018100081E0C81AD108E108F108B9CF81E02D8133
:101820002111CECF95B5987F892B85BD2FEF3FEF46
:10183000A901411451046104710409F049C09D815A
:10184000923009F4E7C00CF0CEC0992309F4D3C05C
:10185000913009F0E9CDD0928900C09288002093A0
:101860006603309367034093680350936903809144
:101870006F00826080936F00D7CD82E0D0CFB12C13
:10188000A12C60E072E18AE790E0A50198010E9436
:10189000103D69017A0181E0C81AD108E108F10818
:1018A000C114D10491E0E906F10404F591E02D8121
:1018B000213069F580918100887F892B8093810098
:1018C0002FEF3FEFA901411451046104710419F293
:1018D000D801AA0FBB1FA30192010E942F3D28EE41
:1018E00033E040E050E00E94423DA9CF68E478EE4A
:1018F00081E090E0A50198010E94103D69017A0104
:1019000081E0C81AD108E108F10893E0D0CF8D81B9
:10191000833001F580919100887F892B809391001D
:101920002FEF3FEFA901411451046104710481F6C6
:10193000D0929900C0929800209362033093630381
:10194000409364035093650380917100826080939B
:1019500071006ACD2D81243009F58091A100887F26
:10196000892B8093A1002FEF3FEFA901411451046F
:101970006104710409F0ACCFD092A900C092A80014
:1019800020935E0330935F034093600350936103A1
:101990008091720082608093720046CD8D81853087
:1019A00009F044CF80912101887F892B8093210108
:1019B0002FEF3FEFA901411451046104710409F0B4
:1019C00087CFD0922901C092280120935A033093E7
:1019D0005B0340935C0350935D03809173008260CE
:1019E0008093730021CD8D81843031F20CF4A0CF2F
:1019F000853039F319CDC7BC20936A0330936B034C
:101A000040936C0350936D0380916E0082608093CD
:101A10006E000ACDC092B30020937103309372031D
:101A2000409373035093740380917000826080939D
:101A30007000FACC84E02FEFC216D104E104F10467
:101A400009F008F4EFCEC980DA80EB80FC809AE0E0
:101A5000F594E794D794C7949A95D1F791E0C91A71
:101A6000D108E108F10885E0DDCE83E02FEFC21652
:101A7000D104E104F10411F00CF076CED3CEAF9294
:101A8000BF92CF92DF92EF92FF920F931F93CF936B
:101A9000DF936C017B018B01040F151FEB015E01CD
:101AA000AE18BF08C017D10759F06991D601ED9162
:101AB000FC910190F081E02DC6011995892B79F7F1
:101AC000C501DF91CF911F910F91FF90EF90DF90B3
:101AD000CF90BF90AF900895FC01538D448D252F7A
:101AE00030E0842F90E0821B930B541710F0CF96B8
:101AF000089501970895FC01918D828D981761F0EA
:101B0000A28DAE0FBF2FB11D5D968C91928D9F5F00
:101B10009F73928F90E008958FEF9FEF0895FC01DF
:101B2000918D828D981731F0828DE80FF11D858D92
:101B300090E008958FEF9FEF0895FC01918D228D25
:101B4000892F90E0805C9F4F821B91098F739927AA
:101B5000089587E893E00E949D0D21E0892B09F408
:101B600020E0822F0895FC01A48DA80FB92FB11D8C
:101B7000A35ABF4F2C91848D90E001968F739927C3
:101B8000848FA689B7892C93A089B1898C918370A1
:101B900080648C93938D848D981306C00288F3899A
:101BA000E02D80818F7D80830895EF92FF920F93C7
:101BB0001F93CF93DF93EC0181E0888F9B8D8C8DF9
:101BC00098131AC0E889F989808185FF15C09FB7ED
:101BD000F894EE89FF896083E889F98980818370B0
:101BE000806480839FBF81E090E0DF91CF911F915F
:101BF0000F91FF90EF900895F62E0B8D10E00F5F80
:101C00001F4F0F731127E02E8C8D8E110CC00FB655
:101C100007FCFACFE889F989808185FFF5CFCE01ED
:101C20000E94B30DF1CFEB8DEC0FFD2FF11DE35AA8
:101C3000FF4FF0829FB7F8940B8FEA89FB89808170
:101C40008062CFCF0F931F93CF93DF938C01D0E0AF
:101C5000C0E0F801EC0FFD1F6491662341F087E8B6
:101C600093E00E94D50D892B11F02196F2CFCE0181
:101C7000DF91CF911F910F910895CF93DF93EC01E6
:101C8000888D8823B9F0AA89BB89E889F9898C9164
:101C900085FD03C0808186FD0DC00FB607FCF7CF20
:101CA0008C9185FFF2CF808185FFEDCFCE010E9420
:101CB000B30DE9CFDF91CF91089580E090E0892BBB
:101CC00029F00E94A90D81110E94000080E090E09F
:101CD000892B49F080E090E0892B29F00E940000D8
:101CE00081110E94000080E090E0892B49F080E0A3
:101CF00090E0892B29F00E94000081110E940000D1
:101D000080E090E0892B49F080E090E0892B29F079
:101D10000E94000081110C9400000895CF92DF9280
:101D2000EF92FF921F93CF93DF93EC016A017B0147
:101D30008C810E94970811E0892B09F410E08B85B3
:101D4000181721F0CD8ADE8AEF8AF88E8D899E8958
:101D5000AF89B88DB701A601481B590B6A0B7B0BE5
:101D6000898D90E0B0E0A0E084179507A607B7073B
:101D700098F48C85181781F01C878A851817A9F0AC
:101D8000CA8EDB8EEC8EFD8EEAA1FBA1309721F08E
:101D9000B701A601898519951B87DF91CF911F9106
:101DA000FF90EF90DF90CF900895CE8EDF8EE8A267
:101DB000F9A2ECA1FDA1309779F389851995ECCFB3
:101DC000FC01158213861486158616861786108ADE
:101DD000118A128A138A148A158A168A138E8681AA
:101DE000882311F0848183830895CF92DF92EF924C
:101DF000FF920F931F93CF93DF93EC018E8181119C
:101E000003C08D89882369F18C810D851E852F85FE
:101E100038896A017B01C01AD10AE20AF30A9701E4
:101E2000860137FD18C009891A892B893C89401B16
:101E3000510B620B730B14161506160617065CF091
:101E400061E0DF91CF911F910F91FF90EF90DF90B4
:101E5000CF900C94C00860E00E94C0088D89811169
:101E60001D8ADF91CF911F910F91FF90EF90DF902E
:101E7000CF900895CF93DF93EC0161E088810E94B9
:101E8000C00881E08C870E9484096D877E878F87D8
:101E9000988BDF91CF910895CF92DF92EF92FF92CE
:101EA000CF93DF93EC016A017B0169857A858B858D
:101EB0009C850E94F13B9B01AC0160E070E080E8F2
:101EC0009FE30E94E03D20E030E040E05FE30E94BD
:101ED000523C20E030E04AE754E40E94523CCD8E70
:101EE000DE8EEF8EF8A220E030E040E05FE30E945B
:101EF000743D0E94593EC60ED71EE81EF91EC9A2A7
:101F0000DAA2EBA2FCA28FA191E089278FA3DF9137
:101F1000CF91FF90EF90DF90CF900895CF92DF9216
:101F2000EF92FF92CF93DF93EC016A017B018D89E1
:101F30009E89AF89B88DAB019601281B390B4A0BDE
:101F40005B0BDA01C901B7FD49C0898D9A8DAB8D54
:101F5000BC8DAB019601281B390B4A0B5B0BDA01D8
:101F6000C901181619061A061B06C4F18EA188238A
:101F7000A9F189859A85AB85BC850197A105B10535
:101F800051F461E08C81DF91CF91FF90EF90DF9071
:101F9000CF900C94C00889A19AA1ABA1BCA1AB01C0
:101FA0009601281B390B4A0B5B0BDA01C901B7FDFF
:101FB00004C0A601CE010E944C0F8C819FA19923E1
:101FC00011F061E0E0CF60E00E94C0081FA2DF9145
:101FD000CF91FF90EF90DF90CF90089560E08C81DB
:101FE0000E94C0081FA2898D9A8DAB8DBC8DC81A26
:101FF000D90AEA0AFB0A8EA1882331F01C141D04B9
:102000001E041F040CF41EA288A5882301F31C14CF
:102010001D041E041F04DCF618A6D9CF8F929F92D0
:10202000AF92BF92CF92DF92EF92FF920F931F93E6
:10203000CF93DF93EC018E81811104C088A18823A6
:1020400009F445C07B0189899A89AB89BC894A0119
:102050005B01881A990AAA0ABB0AC501B40197FD57
:1020600053C00D891E892F89388D4A015701801A66
:10207000910AA20AB30A95018401101611061206EC
:1020800013060CF441C02A8D2223A9F10C8D1D8D5D
:102090002E8D3F8D200F311F2115310511F421E0C8
:1020A00030E0FB8C50E040E00E94423D6017710739
:1020B000D8F4F1100AC069857A8520E030E0A901E2
:1020C0008C810E94F50981E08B8F81E0898FDF91FF
:1020D000CF911F910F91FF90EF90DF90CF90BF9025
:1020E000AF909F908F900895FF2079F38C810E948C
:1020F000B0091B8EEACF69857A8520E030E0A9011E
:102100008C810E94F509E1CF898D882301F38C81B0
:102110000E94B009198E1B8E88A18823C1F218A2D3
:10212000D6CF6F3FA9F0E62FE295EF7044E0E49F31
:1021300090011124DC01ED91FC91E20FF31F6F700F
:1021400082819381B6E06B9F800D911D11240895CB
:1021500090E080E00895982F80336CF08A3324F06B
:102160008F3524F08B3724F481E0089581341CF0FE
:1021700081E09B350CF080E00895FC01828581119F
:102180000AC0A781B085CD010196908787838C9185
:10219000818781E08287818508951F93CF93DF93A4
:1021A000EC01162F0E94BD10811306C01A8681E033
:1021B000DF91CF911F91089580E0FACF0F931F9385
:1021C000CF93DF938C01EB018991882369F0C801DB
:1021D0000E94BD10882379F0FE01319790819813F9
:1021E0000DC0F8011286F0CF90E080E0DF91CF9132
:1021F0001F910F91089582E090E0F8CF83E090E086
:10220000F5CFCF93DF93EC01CE010E94BD108B3050
:102210004CF489305CF4882359F081E08E8390E09F
:1022200080E00BC08D3011F08032B9F71A86ECCF08
:102230008E81811105C081E090E0DF91CF910895FA
:1022400082E090E0FACFDC0152969C915297915037
:1022500084E0989F900111245096ED91FC91E20F3B
:10226000F31F228133812115310579F0418180816D
:10227000481758F481E0840F818386E0489F200D41
:10228000311D11242115310521F460E070E08FEF3C
:102290000895B901892F8295807F840F0895DF9278
:1022A000EF92FF920F931F93CF93DF93EC017B018B
:1022B000D12C688979898A89D816E0F484E0D89E7F
:1022C00080011124060F171FD80112966D917C9181
:1022D0006115710541F0D701ED91FC910280F38108
:1022E000E02DC7011995F801138212821082118224
:1022F000D394DFCF1A8A8FEF8C8BC617D70761F084
:10230000D701ED91FC910280F381E02DC701199571
:10231000D98BC88B84E08B8BDF91CF911F910F916C
:10232000FF90EF90DF900895CF92EF92FF920F937E
:102330001F93E0907503F09076030091770310915E
:10234000780321E080910002909101028C5E96401A
:1023500009F420E0409107025091080260910902BF
:1023600070910A02C0900B028091050290910602C2
:102370000E94600780915403882309F448C080912B
:10238000B204833018F083E080938A0410925804DA
:1023900081E08093590480935A0480935B04809376
:1023A0005C0410925D0410925E041092740494E632
:1023B000909375048093EF041092B30487E08093A8
:1023C000B4048091240690912506A0912606B09130
:1023D00027068093B5049093B604A093B704B093F6
:1023E000B8048091200690912106A0912206B09118
:1023F00023068093B9049093BA04A093BB04B093CE
:10240000BC041F910F91FF90EF90CF900895109210
:102410005A04F7CF4F925F926F927F928F929F9262
:10242000AF92BF92CF92DF92EF92FF920F931F93E2
:10243000CF93DF9300D01F921F92CDB7DEB7DC01A0
:102440002C912B32E1F12D32D9F50196EE24E39453
:10245000FC01208130ED320F3A3010F02E3291F530
:102460008C0160E070E0CB01F801219130ED832E0A
:10247000820E39E0381508F444C06A3949E9740716
:10248000840749E1940708F046C0AAE0B0E09B0148
:10249000AC010E942F3D912CB12CA12C24013501BF
:1024A00040945094609470944616570668067906D6
:1024B00090F1680D791D8A1D9B1D8F01D5CF019666
:1024C000E12CC6CF198229813A814B815C816D81D3
:1024D00070E080E090E00F900F900F900F900F90C1
:1024E000DF91CF911F910F91FF90EF90DF90CF90F0
:1024F000BF90AF909F908F907F906F905F904F9024
:102500000895211108C0EE2051F161307105810557
:1025100050E89507A0F0F12CBAE08B2E912CA12C5D
:10252000B12C6115710530E883079105F8F0A5011C
:1025300094010E94423DCA01B901F394F2CF22E016
:1025400029839B01AC0188279927DC01821B930B0F
:10255000A40BB50B8A839B83AC83BD83B4CF23E0EC
:1025600029836A837B838C839D83ADCFF801D80157
:102570002D918D0130ED320F3A3010F4F394F6CFF7
:102580002E3201F58F010F5F1F4FF8010F5F1F4FB4
:102590002081A0EDDA2ED20EB9E0BD1598F06C3C8A
:1025A000ECEC7E07ECE08E07910578F7AAE0B0E04E
:1025B0009B01AC010E942F3D6D0D711D811D911D70
:1025C000FA94E3CF20812F7D10E000E0253409F05C
:1025D00050C021812D32B1F53296CC24C394DF0155
:1025E00010E000E02F2D0F2C000C330BEAE0BE2E84
:1025F000FD01DD9040ED4D0D4A30B0F5B09EA001DB
:10260000B19E500D11240D2DDD0C110B005311093D
:10261000040F151FA801420F531F4732510544F301
:10262000CC20B9F080E090E0A0E0B0E8E11003C079
:1026300080E090E0DC0121E029838A839B83AC83E6
:10264000BD8341CF2B3219F03196C12CC8CF3296C1
:10265000FCCF80E090E0A0E8BFEFE110ECCF80E09D
:1026600090E0A0E8BFE7E7CFCC2019F011950195E5
:1026700011092081211126CF0F0D111DF7FC1A958C
:102680000E94F13B48E1A42E42E0B42E1016110640
:102690003CF011950195110950E0A52E52E0B52EA0
:1026A000D12CC12C01151105E9F0F6E0CF16D104AB
:1026B000A9F000FF0DC0F601EE0FFF1FEE0FFF1F88
:1026C000EA0DFB1D25913591459154910E94523C94
:1026D000159507952FEFC21AD20AE4CF60E070E09B
:1026E00080EC9FE7E110905821E029836A837B8387
:1026F0008C839D83E8CECF92DF92EF92FF920F936F
:102700001F93CF93DF937C016B018A01FC01C08191
:10271000D1814F3F510509F0B0F4E881F98104807F
:10272000F581E02D4B5F5F4FCE011995009759F071
:10273000FC010383DF91CF911F910F91FF90EF90E8
:10274000DF90CF900895E881F9810280F381E02D38
:10275000B601CE01199581E0F701828390E080E017
:10276000E9CF1F93CF93DF93EC01162F6A817B8112
:102770006115710589F04C815D81FB0183818417AE
:10278000150651F4440F551F4F5F5F4F88819981A3
:102790000E947B139B838A838A819B81009759F0D7
:1027A0002C813D81A9014F5F5F4F5D834C83820F78
:1027B000931FFC011483DF91CF911F9108959F9285
:1027C000AF92BF92CF92DF92EF92FF920F931F933F
:1027D000CF93DF9300D01F921F92CDB7DEB78C014D
:1027E0000E94BD10D82EF8011286F12CE12C60EF6A
:1027F000C62EC8010E94BD10F8011286D81609F431
:10280000B3C0811113C082E090E00F900F900F9041
:102810000F900F90DF91CF911F910F91FF90EF904C
:10282000DF90CF90BF90AF909F9008958C3509F0C6
:1028300099C0C8010E94BD10882329F3E7EAF2E09D
:10284000853709F083C0F801128654E0952EB12C2B
:10285000A12CC8010E94BD108823A9F2813434F450
:102860008053803130F083E090E0CFCF8F7D87536D
:10287000F8CF44E0AA0CBB1C4A95E1F7A82AF8015E
:1028800012869A949110E5CFC501985D8115944008
:1028900020F47501F3E0FF22ACCFC5019C5D8115EA
:1028A0009440A8F483E0B822B701762F6627770F0B
:1028B000770F6A297B2990E080E0019660387105E6
:1028C0008105910540F4C8010E94B11392CFB50172
:1028D00090E080E0F3CF1982262F2F7320682A839F
:1028E00026E096958795779567952A95D1F760327A
:1028F000710580F4606C6B835E01E4E0AE0EB11C88
:10290000F50162915F01662309F473CFC8010E944B
:10291000B113F6CF262F2F7320682B8386E0769590
:1029200067958A95E1F76031710538F4606E6C83C4
:102930005E01F5E0AF0EB11CE3CF60686C83CD8221
:102940005E0126E0A20EB11CDBCF32969081992366
:1029500009F489CF8913F9CF8181882309F483CFC2
:10296000F8011286682FAFCF82819381892B19F4E9
:1029700084E090E04ACF90E080E047CF6F927F9272
:102980008F929F92AF92BF92CF92DF92EF92FF927F
:102990000F931F93CF93DF93EC012A813B812C5F30
:1029A0003F4F4C815D814430510588F58901F90123
:1029B00080E0942FB22FAE2FA21BA91730F4F19014
:1029C000A1E0F110A0E08A2BF6CF811120C082E0B7
:1029D000EB018C83FB01802F8B1B891728F4E80106
:1029E00089918E018193F7CF640F751FFB011082CF
:1029F000DF91CF911F910F91FF90EF90DF90CF90DB
:102A0000BF90AF909F908F907F906F9008958B01B3
:102A1000F901E40FF51F1082888199814C815D8155
:102A2000DC011396ED91FC913A01E89477F8690185
:102A3000C60CD71C3097C1F0A381A615170481F4EA
:102A400049017F01B4E0EB0EF11C8C149D0429F1C7
:102A5000D401AD904D01D701BD907D01AB14A9F318
:102A60000190F081E02DE6CF6A817B810E947B138B
:102A7000FC01A881B98113968D919C911497918343
:102A800080831496FC93EE9313971B821A8285E041
:102A9000E8018C83F983E883ABCF82818F5F8283E7
:102AA000F6CFDB01ED91FC9111970280F381E02DCF
:102AB000BC01CD011994AF92BF92CF92DF92EF92F9
:102AC000FF920F931F93CF93DF93EC018B018C81C7
:102AD00080FF24C0A881B981FB018381948130E00B
:102AE00020E00097D9F0A817B907D1F5F801608167
:102AF000718112968C911297815012968C93129735
:102B000081110CC08D919C9111972115310529F1EE
:102B1000F90191838083CD010E9451158C818076CB
:102B200031F1209721F1F8805801F5E1AF0EB11C89
:102B30008FEFF816D1F06F2DC5010E9491106C0136
:102B4000FC01E580B8010E945B15F801818DF6015A
:102B50008083F801F18EFE2CEBCF94838383DBCF4F
:102B60009C01FC0180819181BCCFF882F9821C829A
:102B7000DF91CF911F910F91FF90EF90DF90CF9059
:102B8000BF90AF9008950F931F93CF93DF93EC0105
:102B9000088119818B819C81009749F0FC0120817B
:102BA00031813C832B83B8010E945115F3CF68819A
:102BB0007981CE010596DF91CF911F910F910C94F1
:102BC0004F11FC0101900020E9F73197AF01481B3C
:102BD000590BBC0187E893E00C943F0D8F929F92B4
:102BE000AF92BF920F931F93CF93DF93CDB7DEB712
:102BF000A1970FB6F894DEBF0FBECDBF19A2423029
:102C000008F44AE08E010F5D1F4F842E912CB12CE9
:102C1000A12CA50194010E94423DE62FB901CA01F1
:102C2000EA30F4F4E05DD801EE938D01232B242BE0
:102C3000252B79F790E080E0109719F0CD010E94E4
:102C4000E115A1960FB6F894DEBF0FBECDBFDF91A0
:102C5000CF911F910F91BF90AF909F908F9008954B
:102C6000E95CE1CF4AE00C94EE15CF92DF92EF924F
:102C7000FF92CF93DF936C01990FEE08FF08F7FEE8
:102C800019C06DE287E893E00E94D50DEC0166273C
:102C90007727CB016C197D098E099F094AE00E94B4
:102CA000EE158C0F9D1FDF91CF91FF90EF90DF907D
:102CB000CF9008954AE0C701B601DF91CF91FF9010
:102CC000EF90DF90CF900C94EE15CF93DF930E949E
:102CD000220EEC018AEB92E00E94E1158C0F9D1F01
:102CE000DF91CF910895CF93C82F8093F30581E4AE
:102CF0009CE00E94220E8091F105082E000C990B99
:102D00000E94351687E39CE00E94220E85E29CE03B
:102D1000CC2311F08EE29CE00E94220E84E39CE022
:102D2000CF910C9465160F931F93CF938C01C62FF0
:102D3000FC01638380E198E00E94220EF80180810B
:102D4000082E000C990B0E94351686E098E00E9430
:102D5000220E84EF97E0CC2311F08DEF97E00E94D4
:102D6000220E83E098E0CF911F910F910C9465168D
:102D7000EF92FF920F931F93CF93DF937C018B0110
:102D8000EA018AED97E00E94220EC7010E94220EFE
:102D90008EEC97E00E94220EC8010E94220E82EC67
:102DA00097E00E94220ECE010E94220E8FEB97E048
:102DB000DF91CF911F910F91FF90EF900C946516CA
:102DC000CF93DF936DE787E893E00E94D50DEC0188
:102DD0008AEB92E00E94E1158C0F9D1FDF91CF914D
:102DE00008954F925F926F927F928F929F92AF92CF
:102DF000BF92EF92FF920F931F93CF93DF932A011D
:102E00003B0148015901853009F480C008F061C0D8
:102E1000843009F46FC0E0912E04F0912F041481E6
:102E2000CCEADDE049ECE42E4DE0F42E88E09EE0B3
:102E30000E94220EC7010E94220E8FEF9DE00E9489
:102E4000220E812F110F990B0E94351684EF9DE001
:102E50000E94220ECE010E94220E8FED9DE00E9464
:102E6000220E8091E0059091E105A091E205B091DC
:102E7000E305A3019201281B390B4A0B5B0BCA0126
:102E8000B9010E9432168DEC9DE00E94220E8091C5
:102E9000E0059091E105A091E205B091E305A5015F
:102EA0009401281B390B4A0B5B0BCA01B9010E9424
:102EB0003216DF91CF911F910F91FF90EF90BF904D
:102EC000AF909F908F907F906F905F904F900C94F9
:102ED000E016863039F1873009F09DCFE091360455
:102EE000F09137041481C0E9DDE081EBE82E8DE03C
:102EF000F82E9CCFE0913004F09131041481C7EAA0
:102F0000DDE033ECE32E3DE0F32E90CFE091320490
:102F1000F09133041481CEE9DDE02EEBE22E2DE0BA
:102F2000F22E84CFE0913404F09135041481C5E988
:102F3000DDE097EBE92E9DE0F92E78CFCF92DF927E
:102F4000EF92FF920F931F93CF93DF93EC01888151
:102F5000813009F4D1C06A017B01813090F0823068
:102F6000D1F48AE394E00E94E00E88E594E0DF91DA
:102F7000CF911F910F91FF90EF90DF90CF900C9425
:102F8000E00E8981853009F47DC070F48330F1F161
:102F9000843009F45AC0DF91CF911F910F91FF90B7
:102FA000EF90DF90CF900895863009F488C0873085
:102FB00091F7E0913604F0913704309761F3868100
:102FC000882349F385A18111E6CF8E819F81A88551
:102FD000B985C58AD68AE78AF08E8C0D9D1DAE1DF7
:102FE000BF1D818F928FA38FB48F81E086A3CF0105
:102FF0000E944C0F0E811F81288539850C0D1D1DE7
:103000002E1D3F1DB701A60187E01CC0E0912E04D4
:10301000F0912F04309709F4BECF8681882309F4FC
:10302000BACF0E811F8128853985C18AD28AE38A69
:10303000F48A0C0D1D1D2E1D3F1D058B168B278B35
:10304000308F83E00E94F116A6CFE0913004F0911A
:103050003104309709F49FCF8681882309F49BCFF0
:103060000E811F8128853985C18AD28AE38AF48A34
:103070000C0D1D1D2E1D3F1D058B168B278B308FB4
:1030800084E0E0CFE0913204F0913304309709F40A
:1030900082CF8681882309F47ECF0E811F81288507
:1030A0003985C586D686E786F08A0C0D1D1D2E1D36
:1030B0003F1D018B128B238B348B85E0C3CFE091B6
:1030C0003404F0913504309709F465CF8681882364
:1030D00009F461CF0E811F8128853985C586D68682
:1030E000E786F08A0C0D1D1D2E1D3F1D018B128BD6
:1030F000238B348B86E0A6CF8981E0912804F09160
:103100002904882339F0813009F045CFE0912A0461
:10311000F0912B04309709F43ECFCE80DF80E88415
:10312000F9844C0D5D1D6E1D7F1D418B528B638B91
:10313000748B31CF2F923F924F925F926F927F921A
:103140008F929F92AF92BF92CF92DF92EF92FF92B7
:103150000F931F93CF93DF9300D01F92CDB7DEB7AD
:103160002A013B010DE3809F90011124912C8901DC
:10317000C9018E549B4F9A8389838AE0882E190156
:103180009EE4290E311CE981FA818081981608F0AD
:1031900092C0A92CB12CC801899C800D911D1124CD
:1031A000885D9B4FFC01E25BFF4F20812330B9F02B
:1031B000805B9F4FFC01C080D180E280F380C1140E
:1031C000D104E104F10469F4B301A201C101989CA6
:1031D000800D911D1124885D9B4F0E949E17939432
:1031E000D2CFC40CD51CE61CF71CEEEFF4E030E0A7
:1031F00020E08081811126C0FFE0F29FC001F39F93
:10320000900D1124DC01A051BB4F8A9CF0018B9CD6
:10321000F00D1124E00FF11FEA58FB4F282D01900B
:103220000D922A95E1F7885D9B4FFC01EE52FF4F0E
:10323000C082D182E282F3828A529F4F21E0FC0158
:103240002083CDCF2F5F3F4F3F962031310589F648
:103250008EE19DE00E94220E8A9CC0018B9C900D05
:103260001124800F911F885D9B4F9C838B83FC01F1
:10327000E25BFF4F608170E090E080E04AE00E94F6
:10328000EE1583E19DE00E94220EEB81FC81E15B63
:10329000FF4F608170E090E080E04AE00E94EE1510
:1032A00082E09DE00E94220EC701B6010E94321604
:1032B0000E94E01694CF0F900F900F900F90DF9127
:1032C000CF911F910F91FF90EF90DF90CF90BF9023
:1032D000AF909F908F907F906F905F904F903F90B6
:1032E0002F9008950F931F93CF93DF938C01D62FC8
:1032F000C42F84E299E00E94220EC8010E94220E8F
:1033000089E199E00E94220E8FEF98E0DD2311F011
:1033100085E099E00E94220E8AE099E00E94220E48
:1033200084EF98E0CC2311F08AEF98E00E94220EFF
:10333000DF91CF911F910F910C94E0160F931F9383
:10334000CF938C01C62F8AED98E00E94220EC8010F
:103350000E94220E8FEC98E00E94220E84EC98E0EE
:10336000CC2311F08AEC98E00E94220ECF911F919D
:103370000F910C94E016CF92DF92EF92FF920F9391
:103380001F93CF938C01C62F69017A018AEA98E0D6
:103390000E94220EC8010E94220E8FE998E00E942E
:1033A000220E87E898E0CC2311F08DE898E00E9487
:1033B000220E82E998E00E94220EC701B6010E9407
:1033C0003216CF911F910F91FF90EF90DF90CF9029
:1033D0000C94E0167F928F929F92AF92BF92CF9201
:1033E000DF92EF92FF920F931F93CF93DF93EC0145
:1033F000762E49015A01670178018DE698E00E9416
:10340000220ECE010E94220E82E698E00E94220E39
:103410008CE398E0772011F082E498E00E94220E7D
:1034200084E598E00E94220EC501B4010E94321684
:1034300087E498E00E94220EC701B6010E9432166E
:10344000DF91CF911F910F91FF90EF90DF90CF9080
:10345000BF90AF909F908F907F900C94E016EF926A
:10346000FF920F931F93CF937C018B01C42F85EAAA
:1034700097E00E94220EC7010E94220E89E997E080
:103480000E94220EC8010E94220E8EE897E00E9440
:10349000220E83E897E0CC2311F089E897E00E94A0
:1034A000220ECF911F910F91FF90EF900C94E01698
:1034B000CF92DF92EF92FF920F931F93CF93DF9300
:1034C0008C01EB0169017A0189E697E00E94220EE6
:1034D000C8010E94220E8DE597E00E94220ECE01C7
:1034E0000E94220E82E597E00E94220EC701B601DB
:1034F0000E943216DF91CF911F910F91FF90EF90B4
:10350000DF90CF900C94E016009711F00C94E11529
:1035100090E080E008950F931F93CF93DF93C091C5
:103520002804D0912904882321F0C0912A04D09145
:103530002B04209709F45FC0613009F456C008F4E9
:1035400051C0623009F454C084ED9CE00E94220E08
:103550006C8170E090E080E04AE00E94EE1589EB1B
:103560009CE00E94220EC8010E94220E84EA9CE088
:103570000E94220E6A8D7B8D8C8D9D8D0091E005C1
:103580001091E1052091E2053091E305601B710B7C
:10359000820B930B0E94321682E99CE00E94220E5D
:1035A0006E8D7F8D88A199A10091E0051091E105B4
:1035B0002091E2053091E305601B710B820B930BA8
:1035C0000E94321681E89CE00E94220ECE010D96E8
:1035D0000E94841A8EE79CE0DF91CF911F910F919A
:1035E0000C94651607E71CE0AFCF0EE61CE0ACCFED
:1035F00006E61CE0A9CFDF91CF911F910F910895AE
:103600009091E805911104C09091E905992371F01A
:103610009091EA0591110AC06091EF05882321F08D
:10362000813021F46091F0050C948B1A0895CF93AA
:10363000DF93EC016E8385E097E00E94220E8F817C
:1036400098850E94841A8CEF96E00E94220E8C814D
:10365000082E000C990B0E94351682EF96E00E940E
:10366000220E8E8181110AC080EE96E00E94220E09
:103670008FEE96E0DF91CF910C94651689EE96E07F
:10368000F5CF60E080911002909111020E94171B0B
:1036900060E080911202909113020E94171B60E07B
:1036A00080911402909115020E94171B60E0809196
:1036B0001602909117020E94171B60E08091180279
:1036C000909119020E94171B60E080911A0290915C
:1036D0001B020E94171B60E080911C0290911D024A
:1036E0000E94171B80911E0290911F02009719F0F3
:1036F00060E00E94171B60E08091200290912102FF
:103700000C9493161F93CF93DF93EC01162F8E81A9
:10371000882321F060E0CE010E94171B8D8181304B
:1037200021F460E08C810E94C0081C836D81812F90
:103730000E94EE088D81813021F460E08C810E942E
:10374000C00888E397E00E94220E8F8198850E942E
:10375000841A8FE197E00E94220E8C81082E000CC3
:10376000990B0E943516DF91CF911F910C94E016B2
:10377000CF93DF93EC010E94821B8C810E949708FB
:1037800021E0892B09F420E02A878C810E94970888
:1037900021E0892B09F420E02B878C810E94970877
:1037A00021E0892B09F420E02C871D8A1E8A1F8ABC
:1037B000188EDF91CF9108959F92AF92BF92CF92D2
:1037C000DF92EF92FF920F931F93CF93DF938A01C3
:1037D000452B09F468C0E9016B016596FC01608125
:1037E000CE010E949110FC01BB24BA94892B09F0F0
:1037F000B5807601E894F7F8AA24A3946701C00E77
:10380000D11E99249394309709F44DC0AA2009F44D
:103810003FC08481843069F0853049F1823079F588
:10382000DF010D900020E9F71197CD018E1B9F0B52
:1038300007C00190F081E02D90E080E0309781F7A3
:103840009F77E816F90621F5D801AC15BD05E1F41E
:103850006B2DCE01DF91CF911F910F91FF90EF90D3
:10386000DF90CF90BF90AF909F900C949110A0816B
:10387000B181FD01349613968C9190E0E2CF90E0F7
:1038800080E0F0E0E0E0DDCF9D9181919817E9F2D2
:10389000A9246B2DCE010E949110FC01892B09F403
:1038A000B2CFB580B0CF90E080E0DF91CF911F9193
:1038B0000F91FF90EF90DF90CF90BF90AF909F90CF
:1038C0000895FC0120813181C9014A9642815381CA
:1038D00064817581009759F0D9015E96EC91E032D0
:1038E00011F090E080E0009711F00C94DC1B90E068
:1038F00080E00895CF93DF93EB010E94611C009755
:1039000041F0FC012481263021F48081DF91CF91A8
:1039100008958881FBCFCF92DF92EF92FF92CF93F1
:10392000DF9300D01F921F92CDB7DEB70E94611CBB
:10393000DC01892B09F44BC01496EC911497E250EA
:10394000ED3008F044C0F0E08827E655F34E8F4F85
:103950000C948D3ED61CE71CEB1CEE1CB71CE71C20
:10396000E71CE71CC71CE71CCC1CE71CF21C6C9175
:1039700070E090E080E00F900F900F900F900F900C
:10398000DF91CF91FF90EF90DF90CF9008956D91F0
:103990007D918D919C91EFCF8D919D910D90BC91DA
:1039A000A02DB7FD14C0BC01CD01E5CFCD010E9413
:1039B0000A123A834B835C836D83CA80DB80EC8080
:1039C000FD80223059F1233059F1213079F060E047
:1039D00070E0CB01D0CF8D919C91E9CF8D919C91DE
:1039E0000496E5CFCD90DD90ED90FC9020E030E0A6
:1039F000A901C701B6010E94883E87FDE8CF2FEFDD
:103A00003FEF4FE75FE4C701B6010E94EC3B181699
:103A1000F4F2C701B6010E94593EADCFF7FCD7CFF3
:103A2000C701B601A8CF8F929F92AF92BF92CF925B
:103A3000DF92EF92FF920F931F93CF93DF9300D00B
:103A400000D0CDB7DEB749015A0167017801FB010B
:103A500001900020E9F73197E61BF70B9A838983E1
:103A60007C836B83ED838F2F8F778E83CE010196BE
:103A70000E94611C0097B9F0FC0124812A3041F0BA
:103A80002C3089F480819181A281B381B7FD0BC074
:103A9000CE0101960E948B1C86169706A806B906D1
:103AA00010F44B015C01C501B401C616D706E80647
:103AB000F90610F4C701B60126960FB6F894DEBFDA
:103AC0000FBECDBFDF91CF911F910F91FF90EF906F
:103AD000DF90CF90BF90AF909F908F900895CF923E
:103AE000DF92EF92FF92CF93DF9300D01F921F924D
:103AF000CDB7DEB70E94611CDC01892B09F448C0F8
:103B00001496EC911497E250ED3008F041C0F0E0CB
:103B10008827E257F24E8F4F0C948D3ECB1DC81D67
:103B2000DD1DE01D9B1DC81DC81DC81DAA1DC81D8B
:103B3000B71DC81DE41D6C9170E0CB010F900F9074
:103B40000F900F900F90DF91CF91FF90EF90DF904B
:103B5000CF9008958D919D910D90BC91A02D8115D0
:103B600020E89207A105B10598F4BC01E6CF8D913C
:103B70009D910D90BC91A02D6C017D0120E8D20E8D
:103B8000E11CF11CC114D10421E0E206F10468F348
:103B900070E060E0D2CFCD010E940A123A834B83DD
:103BA0005C836D83CA80DB80EC80FD80223049F12C
:103BB000233099F1213061F70BC08D919C91ECCFAE
:103BC0008D919C910496E8CFCD90DD90ED90FC9086
:103BD00020E030E040E057ECC701B6010E94883E8B
:103BE00087FDD6CF20E03EEF4FEF56E4C701B60188
:103BF0000E94EC3B181664F2C701B6010E94523EC7
:103C00009CCFD701C6019058AF4FBF4F0097A1403E
:103C1000B10508F0BDCFB60190CFC11480E8D80639
:103C2000E104F104C0F3B4CF0F931F93CF93DF935C
:103C3000EC018B010E94611CFC01892B29F084811D
:103C40008A3051F08C30C1F0F80180819181DF9190
:103C5000CF911F910F91089580819181A281B381AD
:103C600081159048A105B10578F7CE01DF91CF917C
:103C70001F910F910C946F1D80819181A281B3815E
:103C80009058AF4FBF4F0097A140B105E8F6EDCF78
:103C90004F925F926F927F92AF92BF92CF92DF92DC
:103CA000EF92FF920F931F93CF93DF939091E805CC
:103CB000911105C09091E905992309F4E8C090910C
:103CC000EA059111E4C0823008F0E1C081110AC018
:103CD000E0912804F0912904309759F481E0809311
:103CE000EF05D5C0E0912A04F0912B04309709F438
:103CF00087C09089992309F480C00189128923899A
:103D00003489041715072607370708F482C088236B
:103D100009F4CCC082E08093F005B9C08F898F5F31
:103D20008F8B9D89891708F4ADC08FA5843658F410
:103D30000E94943BA30192010E94103D8FA5681739
:103D400010F01F8A9FC01F8A888D882351F09D899B
:103D50009501281B31099217130609F05CF4890FAD
:103D60008D8B8B89823008F08DC0B701A6010E942F
:103D70009A1888C083E392E00E94220E6D8970E059
:103D800090E080E04AE00E94EE1580E392E00E941D
:103D90006516E7CFCD8EDE8EEF8EF8A273C08DA5AF
:103DA000811170C089A19AA1ABA1BCA1A701960104
:103DB000281B390B4A0B5B0BDA01C901B7FD62C046
:103DC0008DA19EA1AFA1B8A58C199D09AE09BF090F
:103DD000181619061A061B060CF054C08FA5843657
:103DE00010F00DA7BECF0E94943BA30192010E9448
:103DF000103D8FA56817A8F345C0882309F46ECF3E
:103E000081E089CF1092EF05E0912804F091290418
:103E100008C08823B9F31092F005E0912A04F091CC
:103E20002B04309781F00091E4051091E505209175
:103E3000E6053091E705040F151F261F371F018B7C
:103E4000128B238B348B6A017B01182FC8E2D4E0DC
:103E5000AA24AA94B12C94E6492E512C612C712CE1
:103E600001E08C89882371F08EA5893011F0181338
:103E700009C08A89813009F48DCF08F44FCF823090
:103E800009F48DCF6E9634E0C436D30751F7DF9135
:103E9000CF911F910F91FF90EF90DF90CF90BF9047
:103EA000AF907F906F905F904F90089582E017CF12
:103EB000BF92CF92DF92EF92FF920F931F93CF9317
:103EC000DF93EC01198D1F3F81F0612F45960E9411
:103ED0009110FC018081898F309709F477C014829A
:103EE0008FEF8583BF01812F76C06C0135E0C30E53
:103EF000D11CE880F9808F89882341F0C6010E9497
:103F00002311E62FF72F182F309749F71F89988D27
:103F1000191324C0103109F459C0110F6D897E891D
:103F2000D701ED91FC91B4E01B9FA0011124C616AE
:103F3000D70609F044C00190F081E02DBA01C70115
:103F40001995009709F442C020E1F601DC010190C7
:103F50000D922A95E1F79E8B8D8B188F0D891E8906
:103F60008F8921E0280F2F8BE4E08E9FC001112460
:103F7000080F191F90E1B92E203111F48FE0B82EEF
:103F8000F6E0BF9EB0011124D701ED91FC910190A4
:103F9000F081E02DC7011995F80193838283892B65
:103FA00009F4B12CD801BC9211961C92012B71F02E
:103FB000C6010E942311E62FF72F182F8DCF048002
:103FC000F581E02DC7011995009729F681E08A83D4
:103FD00060E070E08FEFDF91CF911F910F91FF9024
:103FE000EF90DF90CF90BF9008954F925F926F92C5
:103FF0007F928F929F92AF92BF92CF92DF92EF9279
:10400000FF920F931F93CF93DF9300D01F921F92C5
:10401000CDB7DEB78C017B01B42E0E9401116C017B
:10402000892B09F048C0C8010E94BD10863609F4EA
:10403000A9C124F5873229F08B3561F1823209F06C
:10404000A8C1D80115961C921E92149712968D91B4
:104050009C911397892B39F48D919C910E9445076F
:10406000F80193838283C8010E94DF136C01892BBE
:1040700011F5B701C8010E94BE141DC0843709F4B0
:1040800060C18B3709F47BC08E3609F082C165EDC3
:1040900072E060C180E4D70114968C931497E11408
:1040A000F10421F08FEF8C9311968C93B1101AC00C
:1040B00025E0C22ED12CC6010F900F900F900F90CB
:1040C0000F90DF91CF911F910F91FF90EF90DF90B4
:1040D000CF90BF90AF909F908F907F906F905F90A8
:1040E0004F900895F8011286C8010E9401110097AF
:1040F00051F56DE5C8010E94CD108111DCCFBA9455
:10410000D8011B966D907C90C3010E94581FA82E69
:104110004B01672B21F494E0C92ED12CCCCFF701B1
:1041200061816F3F91F0C30145960E949110DC01BF
:104130001596AC92F701A1824B2DB401C8010E94E3
:10414000F51F009739F06C01B6CFD7018C9311960B
:104150008C93F2CFC8010E9401110097A1F76DE581
:10416000C8010E94CD108111A6CF6CE2C8010E9447
:10417000CD108111C5CF83E0C82ED12C9CCF80E219
:10418000F7018483E114F10419F08FEF80838183B8
:10419000BB2009F48DCFD8011A961C92C8010E9449
:1041A0000111009781F66DE7C8010E94CD108111C1
:1041B00082CFBA94F8011582148282819381892B6F
:1041C00049F4808191810E944507D80113969C9300
:1041D0008E931297C8010E94BD108732F9F0823287
:1041E000E9F0C8010E94BD10D82E0E94AB108823B0
:1041F00011F2F80112866D2DC8010E94B113C80199
:104200000E94BD10D82E0E94AB108111F2CFD801B0
:1042100012968D919C91892B41F47DCFC8010E940B
:10422000DF136C01892B09F046CFC8010E940111F0
:104230006C01892B09F03FCF6AE3C8010E94CD10C1
:10424000882309F498CFD8011296ED91FC91139729
:1042500014968D919C911597E80FF91F148214966E
:104260006D917C9115977F771B966D907C901C9734
:1042700012968D919C910496272F2F77BA2DB078A6
:10428000AB2EA22AE894A7F89301AC017A2DC701BE
:104290000E94DC1B6C01009761F5C3010E94581F4E
:1042A000482E4B01672B09F436CFC3010E94581FDB
:1042B000582E962FC92ED72EC114D10409F42BCF16
:1042C000F4015582D70111966C916F3F71F0C301D3
:1042D00045960E949110FC014582D70111965C928F
:1042E000B401C8010E94BE1407C0F7014082518288
:1042F000F7CFB3010E945B154B2DB601C8010E9498
:10430000F51F6C01892B09F0D6CEC8010E9401115E
:104310006C01892B09F0CFCE6DE7C8010E94CD104A
:104320008111C9CE6CE2C8010E94CD10882309F426
:1043300022CFC8010E9401116C01892B09F43ACFE8
:10434000BACE86E0D70114968C93149781E08C93B3
:104350006AEC72E0C8010F900F900F900F900F90D1
:10436000DF91CF911F910F91FF90EF90DF90CF9051
:10437000BF90AF909F908F907F906F905F904F9085
:104380000C94DE1086E0F701848310826FEC72E0FB
:10439000E1CFC8010E94BD104801FDE08F0E911CC5
:1043A000B12C782CA92C803384F08A3384F43FE339
:1043B000B316A9F0D8011A961C92B394F401819314
:1043C0004F01C8010E94BD10EECF8B3281F393EDF7
:1043D000980F923060F3982F9F7D953441F30B0D29
:1043E000111DD8011D961C92872D9A2D0E940A122C
:1043F0003A834B835C836D838A819B81AC81BD81D1
:104400002230A9F0233059F0213009F0B4CE2EE04B
:10441000F701248380839183A283B3834CCE2AE067
:10442000F701248380839183A283B38344CE2CE05D
:10443000F7CF4F925F926F927F928F929F92AF923F
:10444000BF92CF92DF92EF92FF920F931F93CF9381
:10445000DF93CDB7DEB7CF5FD1090FB6F894DEBFDB
:104460000FBECDBF6E012EECC20ED11C82E092E0D9
:10447000F60191838083128214821382C60105960D
:10448000968B858B178A84E0808F8FEF818F168EB5
:10449000878F9E012F5F3F4F790110E000E00E945F
:1044A000840960938F03709390038093910390939A
:1044B000920387E893E00E947B0D97FD02C00C9465
:1044C00060300E94840980908F0390909003A090A8
:1044D0009103B0909203681979098A099B09809029
:1044E0008B0390908C03A0908D03B0908E03681581
:1044F00079058A059B05E8F20F37110561F487E815
:1045000093E00E949D0D892B31F087E893E00E9493
:104510007B0D0A97A1F7E1E0F0E0EC0FFD1FE00F43
:10452000F11F10820530110578F045E050E06AED8A
:1045300072E0CE0101960E949B40892B29F48FE303
:1045400099E00E94651690C5F60160817181C601EF
:1045500005960E944F11F601128200811181F60129
:1045600083819481009751F0FC0120813181F60113
:1045700034832383B8010E945115F1CF168ECF5793
:10458000DF4FD982C882C158D040CD57DF4F198242
:104590001882C358D040CB57DF4F19821882C558B4
:1045A000D040C957DF4F1882C758D04021E030E0D3
:1045B0002C0F3D1FC857DF4F39832883C858D04080
:1045C000C557DF4F1882CB58D040C457DF4FD98230
:1045D000C882CC58D0404AE0B601665E7F4FCE011B
:1045E0008F579F4F0E94F51F8C01892B69F4C65786
:1045F000DF4F8881CA58D040882331F0F601868D7C
:1046000083FF02C003E010E0CD57DF4F888199811E
:10461000C358D040009751F0CF57DF4FE881F98160
:10462000C158D040608171810E945115011511055A
:10463000F1F088EC96E00E94220EF801EE0FFF1FC9
:10464000EA59FA4F859194910E94220E85EC96E0EA
:104650000E94651687E893E00E949D0D18161906C2
:104660000CF002C587E893E00E947B0DF3CFCF5793
:10467000DF4FD982C882C158D04080EE92E0CD573A
:10468000DF4F99838883C358D04083E0CB57DF4FF7
:104690008883C558D040CA57DF4F1881C658D040CC
:1046A00010781068CA57DF4F1883C658D040CE0123
:1046B0008F579F4F0E94611C009709F4D5C4FC01DD
:1046C0008481882309F4D0C41068CA57DF4F188347
:1046D000C658D040CE018F579F4F0E946F1D893D15
:1046E000F1E09F0709F481C00CF031C1883731E057
:1046F000930709F468C60CF07DC0873351E0950735
:1047000009F440C5E4F58D32F1E09F0709F459C47E
:104710003CF560E08C3231E0930709F453C4813AF0
:1047200032E0930709F475C70CF08BC38C3C9105FC
:1047300009F4E8C70CF0DEC28636910511F40C943A
:104740003D2E0CF050C28436910511F40C94B02D1E
:104750008536910511F40C94F22B82E795E0F1CEA9
:104760008F3241E0940709F4E9C460E0863351E0F8
:104770009507A9F6809116029091170227C48337F6
:10478000E1E09E0709F425C434F5893321E092075E
:1047900031F600911602109117020E948409F80167
:1047A000618B728B838B948B85849684A784B0886D
:1047B000DC01CB01880D991DAA1DBB1D858B968B35
:1047C000A78BB08F81E080A34FE055E065E175E0F5
:1047D0008AE195E0D4C4843731E0930709F45FC4DB
:1047E000853741E0940709F09ACF883D914009F45C
:1047F00080C03AC4813951E0950709F4E3C4D4F587
:104800008E37F1E09F0709F4BFC424F58D3731E0FE
:10481000930709F084CFEE24EA94FE2C00E010E028
:1048200021E030E040E050E064EE72E0C6010E941A
:10483000131D9B01AC01E0911602F0911702218734
:104840003287438754876DE275E087E395E00E94E5
:10485000581A0AC4823841E0940709F4C9C560E0D7
:10486000803951E0950709F05ACF80911802909154
:104870001902ACC38B39E1E09E0709F4C7C484F484
:10488000833921E0920709F49FC460E08A3931E05E
:10489000930709F044CF80911A0290911B0296C3AE
:1048A0008D3941E0940709F4D3C4883D51E0950760
:1048B00009F035CF10ECE12E17E2F12E09E010E0FF
:1048C00021E030E040E050E06EEE72E0C6010E9470
:1048D000131D9B01AC01E0911802F0911902218790
:1048E00032874387548761E075E08AE095E00E9453
:1048F000581ACF57DF4FD982C882C158D0408EEEA8
:1049000092E0CD57DF4F99838883C358D04088E029
:10491000CB57DF4F8883C558D040CA57DF4F8881B7
:10492000C658D04080788068CA57DF4F8883C65801
:10493000D040CE018F579F4F0E948B1C609339024D
:1049400070933A0280933B0290933C02F4C38F39F8
:10495000E2E09E0709F4B2C40CF088C0853F21E074
:10496000920709F497C474F5823E41E0940709F474
:104970004FC4C4F48C3DE1E09E0709F0D0CE15E3AE
:10498000E12EF12C00E010E022E030E040E050E0C9
:1049900067EF72E0C6010E94131D8091180290918A
:1049A000190223C5863EF1E09F0709F434C560E093
:1049B000843F21E0920709F0B2CE80911C029091D1
:1049C0001D0204C3883532E0930709F46EC4C4F4B1
:1049D000803452E0950709F0A2CE15E3E12EF12CC8
:1049E00000E010E022E030E040E050E067EF72E0ED
:1049F000C6010E94131D80911C0290911D02F5C4F6
:104A00008935E2E09E0709F447C48B35F2E09F0741
:104A100009F085CE00911E0210911F0201151105AB
:104A200009F422C30E948409AB01BC01F801458B43
:104A3000568B678B708F85859685A785B089840F87
:104A4000951FA61FB71F818F928FA38FB48FFF244E
:104A5000F394F6A2C8010E944C0FF801F0A640ECB6
:104A600054E066EC74E08BEC94E089C3843823E076
:104A7000920709F4A6C40CF075C0843A42E094078A
:104A800009F4DCC40CF054C0803AE2E09E0709F05F
:104A900046CE10ECE12E17E2F12E09E010E021E005
:104AA00030E040E050E06EEE72E0C6010E94131D5F
:104AB0009B01AC01E0911E02F0911F02309751F072
:104AC000258736874787508B61EA74E08AEA94E04D
:104AD0000E94581ACF57DF4FD982C882C158D040A0
:104AE0008EEE92E0CD57DF4F99838883C358D04034
:104AF00088E0CB57DF4F8883C558D040CA57DF4F77
:104B00008881C658D04080788068CA57DF4F888334
:104B1000C658D040CE018F579F4F0E948B1C609388
:104B2000350270933602809337029093380203C3A4
:104B3000893AF2E09F0709F42AC48A3A22E09207F0
:104B400009F0EDCDE0911E02F0911F02309709F4BB
:104B50008BC281E085A344E754E060E874E085E817
:104B600094E00DC3803D33E0930709F481C4BCF4A5
:104B7000853853E0950709F41CC48738E3E09E07A5
:104B800009F0CDCD80912002909121020E943A0F30
:104B90004EE554E064E674E089E694E0F0C28433C4
:104BA000F4E09F0709F49AC4803625E0920709F0E3
:104BB000B6CD8091120290911302892B09F454C250
:104BC00015E3E12EF12C00E010E022E030E040E0BF
:104BD00050E067EF72E0C6010E94131D809112023F
:104BE0009091130294C48836910511F40C94672EA9
:104BF00014F40C94492E8936910509F0AECDC251BA
:104C0000DF4F1882CE5ED040CF57DF4FD982C882A7
:104C1000C158D0408FE193E0CD57DF4F998388830F
:104C2000C358D04086E0CB57DF4F8883C558D0406B
:104C3000CA57DF4F8881C658D04080788068CA57ED
:104C4000DF4F8883C658D040BE0162517F4FCE01EE
:104C50008F579F4F0E947A1C182F0E9484094B0186
:104C60005C018091E805882311F40C94852F109342
:104C7000EA05112311F40C94042F8092EB05909215
:104C8000EC05A092ED05B092EE050E942708E09198
:104C90002E04F0912F04309719F084810E94B009FE
:104CA000E0913004F0913104309719F084810E9432
:104CB000B009809100068823B9F080910E06811119
:104CC00013C08DEF95E00E943A0F80920F069092EC
:104CD0001006A0921106B092120681E080930E0693
:104CE000F8941092FF057894412F65EB75E084EC01
:104CF00095E0E0C48A3751E0950709F460C00CF0F4
:104D000052C08C3D910509F435C58D3D910509F0E2
:104D100024CDC251DF4F1882CE5ED040CF57DF4F37
:104D2000D982C882C158D04082E193E0CD57DF4F8D
:104D300099838883C358D04085E0CB57DF4F888361
:104D4000C558D040CA57DF4F8881C658D0408078B8
:104D50008068CA57DF4F8883C658D040BE01625171
:104D60007F4FCE018F579F4F0E947A1C182F8EE6DF
:104D700096E0112311F088E596E090930602809367
:104D8000050285E0111186E080930B020E949411C8
:104D900040E056E0112311F045E056E06BE076E08C
:104DA00087E196E0ECC18E3DF1E09F0741F0883E3F
:104DB00021E0920721F08438914009F0CECCC25115
:104DC000DF4F19821882CE5ED040CF57DF4FD98295
:104DD000C882C158D04086E293E0CD57DF4F998317
:104DE0008883C358D04086E0CB57DF4F8883C558AF
:104DF000D040CA57DF4F8881C658D040807880683D
:104E0000CA57DF4F8883C658D040BE0162517F4FDA
:104E1000CE018F579F4F0E94141E20E081309105D4
:104E200029F021E08230910509F029E02093560411
:104E30009C01990F440B550B6DE975E08AEA95E0EA
:104E400006CD8C3444E0940711F40C948A2F0CF0B6
:104E500059C0893EE3E09E0709F41CC46CF48C3A07
:104E600022E0920709F412C460E0883E934009F002
:104E700074CC8CEE96E0AAC0883344E0940709F421
:104E80001CC4893354E0950709F406C48233944066
:104E900009F063CCCF57DF4FD982C882C158D040C8
:104EA00081E093E0CD57DF4F99838883C358D0408A
:104EB00087E0CB57DF4F8883C558D040CA57DF4FB4
:104EC0008881C658D04080788068CA57DF4F888371
:104ED000C658D040CE018F579F4F0E948B1C4B016C
:104EE0005C0180920C0290920D02A0920E02B09290
:104EF0000F020E94FA07A501940164EB76E08CEBA7
:104F000096E0A5CC8531F5E09F0709F4DEC39CF45B
:104F1000883934E0930711F40C948D2F843145E0E7
:104F2000940709F4D6C38D34944009F016CC81E07F
:104F30000E94731699C08436E5E09E0709F4DAC32F
:104F40008536F5E09F0709F4C6C38E35954009F014
:104F500004CCCF57DF4FD982C882C158D04081E0FE
:104F600093E0CD57DF4F99838883C358D04087E0C3
:104F7000CB57DF4F8883C558D040CA57DF4F888151
:104F8000C658D04080788068CA57DF4F8883C6589B
:104F9000D040CE018F579F4F0E948B1C4B015C016C
:104FA00080920C0290920D02A0920E02B0920F021B
:104FB0000E94FA07A50194016BE776E083E896E08A
:104FC00046CC61E080911402909115020E94171B5B
:104FD0004BC0EE24EA94FE2C00E010E021E030E02B
:104FE00040E050E064EE72E0C6010E94131D9B0198
:104FF000AC01E0911402F0911502218732874387BA
:10500000548768E575E082E695E00E94581ACF570C
:10501000DF4FD982C882C158D04084EE92E0CD578C
:10502000DF4F99838883C358D04089E0CB57DF4F47
:105030008883C558D040CA57DF4F8881C658D040B2
:1050400080788068CA57DF4F8883C658D040CE0129
:105050008F579F4F0E948B1C60933D0270933E02BE
:1050600080933F0290934002C6010E94C315C15035
:10507000DF4F0FB6F894DEBF0FBECDBFDF91CF91EB
:105080001F910F91FF90EF90DF90CF90BF90AF9066
:105090009F908F907F906F905F904F90089510EC4D
:1050A000E12E17E2F12E09E010E021E030E040E0CF
:1050B00050E06EEE72E0C6010E94131D9B01AC0130
:1050C000E0911402F0911502258736874787508BAF
:1050D0006BE475E084E595E00E94581ACF57DF4FE6
:1050E000D982C882C158D0408EEE92E0CD57DF4FB2
:1050F00099838883C358D04088E0CB57DF4F88839B
:10510000C558D040CA57DF4F8881C658D0408078F4
:105110008068CA57DF4F8883C658D040CE018F576A
:105120009F4F0E948B1C60934102709342028093B8
:105130004302909344020E94941196CF009114026E
:10514000109115020E948409F801618B728B838B88
:10515000948B85849684A784B088DC01CB01880D6C
:10516000991DAA1DBB1D858B968BA78BB08F81E0E7
:1051700080A34CE355E062E475E087E495E00E948B
:10518000B81672CF61E0F6CA10ECE12E17E2F12EEC
:1051900009E010E021E030E040E050E06EEE72E027
:1051A000C6010E94131D9B01AC01E0911602F09113
:1051B0001702258736874787508B6FE175E088E2B5
:1051C00095E045CB61E051CB009118021091190296
:1051D0000E948409F801658776878787908B818490
:1051E0009284A384B484DC01CB01880D991DAA1D8F
:1051F000BB1D818B928BA38BB48B81E0858B41EFA0
:1052000054E067EF74E08CEF94E0B9CF61E043CBFA
:1052100010ECE12E17E2F12E09E010E021E030E081
:1052200040E050E06EEE72E0C6010E94131D9B014B
:10523000AC01E0911A02F0911B022187328743876B
:10524000548762EE74E08BEE94E00E94581A73CF9C
:1052500000911A0210911B020E948409F8016587CF
:1052600076878787908B81849284A384B484DC01C1
:10527000CB01880D991DAA1DBB1D818B928BA38B21
:10528000B48B81E0858B41ED54E067ED74E08CEDEB
:1052900094E075CF61E091CB80911E0290911F0246
:1052A00061E0009709F092CEDFCE80911E029091CE
:1052B0001F0260E0009709F089CED6CEEE24EA9472
:1052C000FE2C00E010E021E030E040E050E064EE31
:1052D00072E0C6010E94131D9B01AC01E0911E0209
:1052E000F0911F02309779F02115310541055105E4
:1052F00021F0218732874387548760EB74E08AEB83
:1053000094E00E94581ACF57DF4FD982C882C15803
:10531000D04084EE92E0CD57DF4F99838883C35805
:10532000D04089E0CB57DF4F8883C558D040CA575B
:10533000DF4F8881C658D04080788068CA57DF4FD9
:105340008883C658D040CE018F579F4F0E94611C62
:10535000DC01892B09F4EDC01496EC911497E2500E
:10536000ED3008F0E6C0F0E08827E654F64D8F4FA8
:105370000C948D3EA72A992AD22AD52A8A2A992ABC
:10538000992A992A8E2A992A9B2A992AD92AE09120
:105390001E02F0911F02309749F015A24BE854E02D
:1053A00066E974E08BE994E00E94B8161092540309
:1053B000C2CE61E080912002909121020E9493165A
:1053C00053CE60E0F7CF15E3E12EF12C00E010E0C2
:1053D00022E030E040E050E067EF72E0C6010E945A
:1053E000131D80911402909115020E94821B3CCEE5
:1053F00015E3E12EF12C00E010E022E030E040E087
:1054000050E067EF72E0C6010E94131D8091160202
:1054100090911702EACF15E3E12EF12C00E010E0A5
:1054200022E030E040E050E067EF72E0C6010E9409
:10543000131D80911A0290911B02D7CF80911E02FA
:1054400090911F02892B09F40FCE15E3E12EF12C68
:1054500000E010E022E030E040E050E067EF72E072
:10546000C6010E94131D80911E0290911F02BDCFA4
:1054700015E3E12EF12C00E010E022E030E040E006
:1054800050E067EF72E0C6010E94131DF62E0091F6
:10549000200210912102F8018485882331F060E018
:1054A00080810E94C008F8011486F801F08261E052
:1054B0008F2D0E94EE0860E0F80180810E94C008F4
:1054C0008AE194E00E94220EF8018081082E000CEF
:1054D000990B0E9435160E94E016C6CD80911002ED
:1054E00090911102892B09F4BFCD15E3E12EF12C27
:1054F00000E010E022E030E040E050E067EF72E0D2
:10550000C6010E94131D80911002909111020E9409
:10551000B81BAACD8C9080923402A6CD8D909D9020
:10552000AD90BC902FEF82169104A104B10499F3C1
:1055300090F3812CF0CF8D909D90AD90BC903FEF7B
:1055400083169104A104B10431F328F3F2CFCD0105
:105550000E940A12C251DF4F2883CE5ED040C15153
:10556000DF4F3883CF5ED040C051DF4F4883C05FEC
:10557000D040CF50DF4F5883C15FD040CE50DF4F77
:105580006883C25FD040C151DF4F88809980AA8074
:10559000BB80CF5ED040223051F1233089F12130E1
:1055A00041F60BC08D919C91D3CF8D919C91049627
:1055B000CFCF8D909D90AD90BC9020E030E0A901C0
:1055C000C501B4010E94883E87FDB3CF20E030E0E2
:1055D0004FE753E4C501B4010E94EC3B18160CF4EC
:1055E000A8CFC501B4010E94593E862E94CF4FEF3B
:1055F00084169104A104B10409F008F48CCF99CF6A
:105600005FEF85169104A104B10409F008F483CF7B
:1056100090CFCF57DF4FD982C882C158D0408BEF8F
:1056200092E0CD57DF4F99838883C358D04085E0FF
:10563000CB57DF4F8883C558D040CA57DF4F88818A
:10564000C658D04080788068CA57DF4F8883C658D4
:10565000D040CE018F579F4F0E948B1C6136EAEEDF
:105660007E078105910520F060E67AEE80E090E00B
:105670006093240670932506809326069093270650
:1056800080915403882309F4EFCC55CD81E08093B9
:10569000540351CD61E0EDCB81E08093FC068CEEAC
:1056A00096E0909301028093000241E060EA76E088
:1056B0008BEA96E00E942F1AD7CC1092FC0640E0AD
:1056C0006CE876E087E996E0F5CF61E086EC96E05D
:1056D0007DCC60E0FBCF81E08093D60686EC96E03F
:1056E000909301028093000241E067E676E082E752
:1056F00096E0E0CF1092D60640E063E576E08EE5D6
:1057000096E0D8CFCF57DF4FD982C882C158D0405A
:1057100089E093E0CD57DF4F99838883C358D04009
:1057200088E0CB57DF4F8883C558D040CA57DF4F3A
:105730008881C658D04080788068CA57DF4F8883F8
:10574000C658D040CE018F579F4F0E948B1C4B01F3
:105750005C018092070290920802A0920902B09226
:105760000A020E949411A50194016CE376E088E49A
:1057700096E06DC8CF57DF4FD982C882C158D0405C
:1057800089E093E0CD57DF4F99838883C358D04099
:1057900088E0CB57DF4F8883C558D040CA57DF4FCA
:1057A0008881C658D04080788068CA57DF4F888388
:1057B000C658D040CE018F579F4F0E948B1C4B0183
:1057C0005C018092750390927603A0927703B09269
:1057D00078030E949411A501940162E276E081E3CE
:1057E00096E035C80E9484094B015C018092500309
:1057F00090925103A0925203B09253038DEF95E023
:105800000E943A0F1092E9051092EA058092E00595
:105810009092E105A092E205B092E30581E08093C9
:10582000E8058AE394E00E94E00E88E594E00E9497
:10583000E00E24E6E22E24E0F22E08E214E0F80165
:105840008489882341F08289813009F05AC1858E8C
:10585000968EA78EB0A2025E1F4FE016F10679F772
:10586000EEEFF4E010823F9625E0EE3EF207D1F72E
:10587000E0912804F0912904309721F0118A128ACE
:10588000138A148AE0912A04F0912B04309721F0B6
:10589000118A128A138A148AE0913604F09137042F
:1058A0003097A9F0158A168A178A108E118E128EDB
:1058B000138E148E158E168E178E10A211A212A2A0
:1058C00013A214A216A217A210A681E081A786ED4A
:1058D00093E00E94651687E893E00E94220E609193
:1058E0000C0270910D0280910E0290910F020E94A5
:1058F000321685E793E00E94220E8091000290917B
:1059000001028C5E964009F428C187EF92E00E9464
:10591000220E81E693E00E94220E60917503709141
:10592000760380917703909178030E9432160E944B
:10593000E016E0904102F090420200914302109183
:10594000440220913D0230913E0240913F0250912D
:1059500040026091AB068DE593E00E94EA19E09069
:105960009106F09092060091930610919406209172
:105970008D0630918E0640918F0650919006609171
:105980008A0688E593E00E94EA1920913902309155
:105990003A0240913B0250913C026091740683E5CB
:1059A00093E00E94BB1920916106309162064091FC
:1059B00063065091640660915E068DE493E00E9458
:1059C000BB19E0903502F090360200913702109139
:1059D00038022091340230E050E040E06091190636
:1059E00087E493E00E94EA196091430682E493E021
:1059F0000E949E196091000687E393E00E949E1921
:105A00006091F30583E393E00E949E194091FC06A8
:105A10006091F2068AE293E00E9472194091D606E4
:105A20006091CC0681E293E00E9472198DEF92E0C2
:105A30000E94220E60910702709108028091090273
:105A400090910A020E9432160E94E0168091500343
:105A500090915103A0915203B0915303E091100231
:105A6000F091110280839183A283B383E0911202AB
:105A7000F091130280839183A283B383E091140297
:105A8000F091150280839183A283B383E091160283
:105A9000F091170280839183A283B383E09118026F
:105AA000F091190280839183A283B383E0911A025B
:105AB000F0911B0280839183A283B383E0911C0247
:105AC000F0911D0280839183A283B383E0911E0233
:105AD000F0911F02309721F080839183A283B383DA
