:100000000C94FB050C948D2F0C94662F0C94683087
:100010000C9423060C9423060C9423060C94B42F02
:100020000C9423060C9423060C9423060C942306AC
:100030000C9423060C9423060C9423060C9423069C
:100040000C941C2F0C9423060C9436300C94103016
:100050000C9423060C9423060C9423060C9423067C
:100060000C9423060C942306546F6F44656570004E
:100070004E6F4D656D6F727900496E76616C696483
:10008000496E70757400496E636F6D706C65746550
:10009000496E70757400456D707479496E70757431
:1000A000004F6B00CDCCCC3D0AD7233C17B7D138DD
:1000B00077CC2B329595E6241FB14F0A00002041E2
:1000C0000000C84200401C4620BCBE4CCA1B0E5A51
:1000D000AEC59D74227D007B226C6576656C223AEC
:1000E00022303031222C22646576696365223A22FF
:1000F000434F4E54524F4C4C4552222C2264657350
:1001000063223A225052207468726573686F6C647F
:100110002063617070656420617420007B226C65CF
:1001200076656C223A22303030222C226465766962
:100130006365223A22534C4D222C22706172616D0C
:10014000223A2274696D657374616D705F70696EB7
:10015000222C2276616C7565223A007B226C6576D2
:10016000656C223A22303037222C2264657669632E
:1001700065223A22434F4E54524F4C4C4552222C4A
:10018000226576656E74223A22454E44222C2274F2
:10019000696D657374616D70223A004C4800524875
:1001A000004C455645525F4C48004C455645525F01
:1001B000524800534C4D004D4943524F53434F500A
:1001C00045004C49434B004C415345520050554D5E
:1001D00050320050554D500043554532004355456F
:1001E00000222C2274726163655F696E7465727699
:1001F000616C223A002C226163746976655F6C65DC
:10020000766572223A22007B226C6576656C223A12
:1002100022303030222C22646576696365223A22CE
:10022000434F4E54524F4C4C4552222C2270617217
:10023000616469676D223A2246495845445F5241DC
:1002400054494F222C2274696D656F7574223A00EF
:100250007B226C6576656C223A22303037222C2264
:10026000646576696365223A22434F4E54524F4C7F
:100270004C4552222C226576656E74223A225354E4
:10028000415254222C2274696D657374616D702221
:100290003A307D007B226C6576656C223A223030E4
:1002A00030222C22646576696365223A224D4943E7
:1002B000524F53434F5045222C22706172616D2280
:1002C0003A22747269676765725F70696E222C22C8
:1002D00076616C7565223A00464952454400746562
:1002E0007374004D4943524F53434F504500494E9C
:1002F000444550454E44454E54006D6F6465004C76
:100300004153455200434F4E54494E47454E5400C9
:100310006D6F6465004C41534552006475726174A1
:10032000696F6E004C415345520066726571756588
:100330006E6379004C415345520046495245440092
:1003400074657374004C415345520046495245440C
:1003500000746573740050554D50320064757261BD
:1003600074696F6E0050554D5032004649524544F5
:1003700000746573740050554D500064757261745B
:10038000696F6E0050554D50004649524544007407
:100390006573740043554532006475726174696F0A
:1003A0006E0043554532006672657175656E6379FE
:1003B0000043554532004649524544007465737404
:1003C00000435545006475726174696F6E00435552
:1003D00045006672657175656E6379004355450029
:1003E000A100960086007900700068007B226C6591
:1003F00076656C223A22303036222C226465736393
:10040000223A22436F6D6D616E64206E6F742066B8
:100410006F756E64227D006C657665725F66696CCF
:1004200074657200434F4E54524F4C4C455200730A
:10043000657373696F6E5F70617573656400434FB8
:100440004E54524F4C4C455200746573745F6D6F3F
:10045000646500434F4E54524F4C4C455200464940
:1004600052454400746573745F636861696E00434C
:100470004F4E54524F4C4C45520050554D50005029
:10048000554D5032006163746976655F70756D70AB
:1004900000434F4E54524F4C4C45520074726163AE
:1004A000655F696E74657276616C00434F4E54529D
:1004B0004F4C4C455200726174696F00434F4E546B
:1004C000524F4C4C4552007265696E666F7263659F
:1004D00064004C455645525F4C48007265696E6633
:1004E0006F72636564004C455645525F4C4800721C
:1004F0006174696F004C455645525F4C4800746901
:100500006D656F7574004C455645525F4C480072DE
:1005100065696E666F72636564004C455645525F4F
:100520005248007265696E666F72636564004C457F
:100530005645525F524800726174696F004C4556CF
:1005400045525F52480074696D656F7574004C4583
:100550005645525F524800227D007B226C657665CD
:100560006C223A22303036222C2264657363223AA0
:10057000220044495341524D45440041524D4544A7
:1005800000227D002C2264657363223A2200222C13
:100590002270696E223A007B226C6576656C223A85
:1005A00022303031222C22646576696365223A223A
:1005B00000222C22706172616D223A2270696E22D3
:1005C0002C2276616C7565223A007B226C6576651B
:1005D0006C223A22303030222C22646576696365C1
:1005E000223A2200222C2276616C7565223A002282
:1005F0002C22706172616D223A22007B226C65763A
:10060000656C223A22303030222C22646576696390
:1006100065223A220066616C73650074727565002C
:10062000222C2276616C7565223A00222C227061A0
:1006300072616D223A22007B226C6576656C223AEB
:1006400022303030222C22646576696365223A229A
:1006500000227D00222C2276616C7565223A2200F0
:10066000222C22706172616D223A22007B226C651D
:1006700076656C223A22303030222C22646576690D
:100680006365223A220044495341524D454400419A
:10069000524D454400227D002C2264657363223A4A
:1006A00022007B226C6576656C223A223030312242
:1006B0002C22646576696365223A224D4943524F84
:1006C00053434F5045222C2270696E223A006661D6
:1006D0006C73650074727565002C226475726174A8
:1006E000696F6E223A002C226672657175656E63C1
:1006F00079223A00222C2261726D6564223A007BD5
:10070000226C6576656C223A22303030222C2264CD
:100710006576696365223A220066616C73650074D0
:10072000727565002C226475726174696F6E223A6D
:1007300000222C2261726D6564223A007B226C6576
:1007400076656C223A22303030222C22646576693C
:100750006365223A220066616C7365007472756588
:1007600000222C2261726D6564223A007B226C6546
:1007700076656C223A22303030222C22646576690C
:100780006365223A220066616C7365007472756558
:100790000066616C73650074727565002C22726569
:1007A000696E666F72636564223A00222C22617260
:1007B0006D6564223A007B226C6576656C223A2274
:1007C000303030222C22646576696365223A22003B
:1007D000027B226C6576656C223A22303030222C06
:1007E00022646576696365223A22434F4E54524F24
:1007F0004C4C4552222C22736B65746368223A225A
:1008000066722E696E6F222C2276657273696F6E26
:10081000223A2276322E302E30222C2262617564EA
:100820005F72617465223A3131353230302C227377
:1008300063686564756C65223A2246495845445F91
:10084000524154494F227D002C22656E645F7469C9
:100850006D657374616D70223A002C226576656E49
:1008600074223A224C49434B222C227374617274D5
:100870005F74696D657374616D70223A00222C2279
:1008800070696E223A007B226C6576656C223A2292
:10089000303037222C22646576696365223A220063
:1008A0002C22656E645F74696D657374616D70226E
:1008B0003A002C226576656E74223A225354494DD3
:1008C000222C2273746172745F74696D6573746134
:1008D0006D70223A007B226C6576656C223A22307C
:1008E0003037222C22646576696365223A224C41B6
:1008F000534552222C2270696E223A002C226576D2
:10090000656E74223A2254494D455354414D50224C
:100910002C2274696D657374616D70223A007B22BC
:100920006C6576656C223A22303038222C22646560
:1009300076696365223A224D4943524F53434F50E3
:1009400045222C2270696E223A002C226576656E53
:1009500074223A2254494D455354414D50222C2281
:1009600074696D657374616D70223A007B226C65E9
:1009700076656C223A22303039222C226465766901
:100980006365223A22534C4D222C2270696E223A22
:100990000000000000240027002A000000000025BD
:1009A0000028002B0000000000230026002900047E
:1009B0000404040404040402020202020203030306
:1009C0000303030102040810204080010204081000
:1009D00020010204081020000000080002010000AD
:1009E0000304070000000000000000444953415286
:1009F0004D45440041524D454400227D002C226467
:100A0000657363223A22007B226C6576656C223A1C
:100A100022303031222C22646576696365223A22C5
:100A2000534C4D222C2270696E223A004C4556459B
:100A3000525F4C48004C455645525F524800227D5B
:100A4000002C226F7269656E746174696F6E223A50
:100A500022002C22656E645F74696D657374616D2C
:100A600070223A00222C2273746172745F74696D73
:100A7000657374616D70223A002C226576656E7420
:100A8000223A225052455353222C22636C617373D5
:100A9000223A2200222C2270696E223A007B226CBC
:100AA0006576656C223A22303037222C22646576D6
:100AB000696365223A220054494D454F5554004917
:100AC0004E41435449564500414354495645002C34
:100AD000227363686564756C65645F6174223A00B3
:100AE0002C22746172676574223A007B226C6576F1
:100AF000656C223A22303036222C226572726F7277
:100B00005F636F6465223A22455F50454E44494E0B
:100B1000475F46554C4C222C2264657363223A226F
:100B200050656E64696E6720616374696F6E2071D1
:100B3000756575652066756C6C20E2809420616334
:100B400074696F6E2064726F70706564222C22610C
:100B50006374696F6E5F74797065223A005354490B
:100B60004D00494E465553494F4E00494E46555348
:100B7000494F4E00544F4E4500544F4E45004C4196
:100B80005345520050554D505F320050554D505F07
:100B900031004355455F32004355455F31002C22FB
:100BA000656E645F74696D657374616D70223A007F
:100BB000222C2273746172745F74696D6573746141
:100BC0006D70223A002C226576656E74223A2200FE
:100BD000222C2270696E223A007B226C6576656C4D
:100BE000223A22303037222C2264657669636522EE
:100BF0003A220000163111241FBECFEFD8E0DEBF2D
:100C0000CDBF12E0A0E0B1E0E8E0FCE702C0059053
:100C10000D92A834B107D9F726E0A8E4B2E001C0EC
:100C20001D92AC31B207E1F715E0CBEFD5E004C07F
:100C30002197FE010E94F53BCA3FD107C9F70E94E8
:100C40006E340C94023E0C940000CF93DF93EC01C1
:100C500088819981DC01ED91FC910190F081E02D7A
:100C600064E270E00995009741F02FE1FC012383D5
:100C700021E02283DF91CF91089521E02A83FACFEA
:100C80008F92AF92CF92DF92EF92FF920F931F93CA
:100C9000CF93DF93CDB7DEB75E2D10922303109272
:100CA000240371E070932503609326036093270368
:100CB000109228031092290369E060933F0364E6D1
:100CC000609340031092430364E06093A103109289
:100CD0005F0363E060936003C0926103109262035C
:100CE000109263031092640310926503C090B805DC
:100CF000D090B905E090BA05F090BB05C0926603AC
:100D0000D0926703E0926803F092690310926A033D
:100D100050936B03563009F08A2C80926C030C0DB3
:100D20001D1D2E1D3F1D00936D0310936E03209318
:100D30006F0330937003FC0181859285A385B48590
:100D40008093710390937203A0937303B093740321
:100D50001092750387E08093760389E08093770390
:100D6000009378031093790320937A0330937B03E5
:100D7000009126051091270520912805309129051D
:100D800000937C0310937D0320937E0330937F03B5
:100D900091E09093800340938103809382031092AB
:100DA000830310928403109285031092860380912E
:100DB000E9049091EA04A091EB04B091EC048093D3
:100DC000870390938803A0938903B0938A03DF91EC
:100DD000CF911F910F91FF90EF90DF90CF90AF9048
:100DE0008F9008956093E9047093EA048093EB0474
:100DF0009093EC043091A103EFE5F3E020E023139E
:100E00000DC03091E403E2EAF3E020E02317B1F0F3
:100E10004081413071F02F5F3B96F8CF40814130E7
:100E200019F02F5F3B96EBCF67837087818792879E
:100E3000F8CF6783708781879287EDCF089590916F
:100E40002303992339F09091410321E030E0992365
:100E500019F0089530E020E09EE1929FF001939F09
:100E6000F00D1124EF5EFC4F858B178AF2CFE4EF73
:100E7000F3E01082709684E0E43FF807D1F708951C
:100E8000833081F028F4813099F08230A9F0089500
:100E90008730A9F08830C9F08430B1F480918000A7
:100EA0008F7D03C0809180008F77809380000895AC
:100EB00084B58F7784BD089584B58F7DFBCF8091F5
:100EC000B0008F778093B00008958091B0008F7D3F
:100ED000F9CFCF93DF93282F30E0F901E952F64F95
:100EE0008491F901ED53F64FD491F901E155F64F94
:100EF000C491CC23A1F081110E944007EC2FF0E0B7
:100F0000EE0FFF1FEB55F64FA591B491EC91ED2339
:100F100081E090E009F480E0DF91CF91089580E0D6
:100F200090E0FACF1F93CF93DF93282F30E0F901A1
:100F3000E952F64F8491F901ED53F64FD491F9013E
:100F4000E155F64FC491CC23A9F0162F81110E94D0
:100F50004007EC2FF0E0EE0FFF1FE556F64FA5918E
:100F6000B4918FB7F894EC91111108C0D095DE239D
:100F7000DC938FBFDF91CF911F910895DE2BF8CFC7
:100F8000CF93DF9390E0FC01ED53F64F2491815510
:100F9000964FFC0184918823C9F090E0880F991F37
:100FA000FC01EF56F64FA591B491FC01E556F64FC2
:100FB000C591D49161110DC09FB7F8948C91209583
:100FC00082238C938881282328839FBFDF91CF9130
:100FD0000895623051F49FB7F8943C91822F809528
:100FE00083238C93E8812E2BEFCF8FB7F894EC916D
:100FF0002E2B2C938FBFEACF3FB7F89480916C02D1
:1010000090916D02A0916E02B0916F0226B5A89BDF
:1010100005C02F3F19F00196A11DB11D3FBFBA2F8A
:10102000A92F982F8827BC01CD01620F711D811D4A
:10103000911D42E0660F771F881F991F4A95D1F7CF
:1010400008958F929F92AF92BF92CF92DF92EF92CC
:10105000FF920E94FC074B015C0184E6C82ED12C54
:10106000E12CF12C0E94FC07681979098A099B0977
:10107000683E734081059105A8F321E0C21AD108AA
:10108000E108F10888EE880E83E0981EA11CB11CCF
:10109000C114D104E104F10429F7FF90EF90DF902F
:1010A000CF90BF90AF909F908F9008952FB7F894F6
:1010B000609168027091690280916A0290916B025E
:1010C0002FBF08950F931F93CF93DF93C0910F030A
:1010D000D0911003209781F081E08A830E94560806
:1010E000088519852A853B85601B710B820B930B44
:1010F0006C837D838E839F83DF91CF911F910F91AE
:10110000089508959091070189130BC0E0EDF7E071
:10111000E4919FEF90930701E13049F028F0E2302D
:1011200061F060E00C94920710926E00FACF9091FB
:101130006F009D7F90936F00F4CF909170009D7F22
:101140009093700091E09093B0009091B100987FDF
:1011500094609093B1001092B300E3CF4F925F92EE
:101160006F927F928F929F92AF92BF92CF92DF92B7
:10117000EF92FF920F931F93CF93DF9300D000D095
:101180001F92CDB7DEB78B0129013A01909107017B
:101190008917C9F09F3F09F47EC00F900F900F9000
:1011A0000F900F90DF91CF911F910F91FF90EF90D3
:1011B000DF90CF90BF90AF909F908F907F906F9077
:1011C0005F904F900895E0EDF7E094919D8397FD37
:1011D000E4CF61E00E94C0078D81882321F09D81CA
:1011E000923009F04AC14801B12CA12C60E072E1B3
:1011F0008AE790E0A50198010E94413A29833A8349
:101200004B835C8369017A0181E0C81AD108E10847
:10121000F1089FEFC916D104E104F10409F00CF4C0
:1012200001C160E472E48FE090E0A50198010E94A2
:10123000413A69017A0181E0C81AD108E108F10850
:101240009D81923009F0A2C08FEFC816D104E1044D
:10125000F10409F00CF4E6C160E970ED83E090E080
:10126000A50198010E94413A69017A0191E0C91AE9
:10127000D108E108F1088FEFC816D104E104F104A8
:1012800011F00CF07FC183E09091B100987F892B21
:101290008093B100CFC080930701E0EDF7E0949117
:1012A0009D839F3F09F479CF913041F150F0923006
:1012B00009F446C09D8197FD70CF61E00E94C00790
:1012C0008ECF14BC15BC94B5926094BD95B5916059
:1012D00095BD282F30E0F901E155F64FE491F0E09B
:1012E000EE0FFF1FE556F64F45915491F901ED536E
:1012F000F64FE491E0934E021D826BCF1092800076
:10130000109281009091810098609093810090915B
:101310008100916090938100282F30E0F901E15520
:10132000F64FE491F0E0EE0FFF1FE556F64F4591C2
:101330005491F901ED53F64FE491E0934D0249CFFA
:101340001092B0001092B1009091B0009260909312
:10135000B0009091B10091609093B100282F30E0DF
:10136000F901E155F64FE491F0E0EE0FFF1FE5566D
:10137000F64F459154915093580240935702F9010A
:10138000ED53F64FE491E093590223CF9FEFC91636
:10139000D104E104F10409F00CF46DC068E478EEC6
:1013A00081E090E0A50198010E94413A69017A012B
:1013B00081E0C81AD108E108F1089D81992309F458
:1013C000FAC08FEFC816D104E104F10411F00CF05B
:1013D000FBC0EFC064E274EF80E090E0A5019401EF
:1013E0000E94413A69017A0181E0C81AD108E108F6
:1013F000F10885E09FEFC916D104E104F10409F07A
:1014000008F442CF62E17AE780E090E0A501940120
:101410000E94413A69017A0181E0C81AD108E108C5
:10142000F108E5C081E09D8191112ECF95B5987F9F
:10143000892B85BD2FEF3FEFA901411451046104B1
:10144000710409F043C09D81913009F45EC092306F
:1014500009F46DC09111A1CEC7BC20935302309303
:101460005402409355025093560280916E00826060
:1014700080936E0092CE82E0D6CFB12CA12C60E09A
:1014800072E18AE790E0A50198010E94413A690162
:101490007A0181E0C81AD108E108F108C114D10429
:1014A00091E0E906F10404F591E08D81813011F6B7
:1014B00080918100887F892B809381002FEF3FEFFF
:1014C000A9014114510461047104F9F0D801AA0F73
:1014D000BB1FA30192010E94603A28EE33E040E076
:1014E00050E00E94AA3AAFCF68E478EE81E090E045
:1014F000A50198010E94413A69017A0181E0C81A68
:10150000D108E108F10893E0D0CFD0928900C092D1
:10151000880020934F023093500240935102509321
:10152000520280916F00826080936F0036CEC0922D
:10153000B30020935A0230935B0240935C025093B5
:101540005D028091700082608093700026CE84E0FE
:101550009FEFC916D104E104F10409F008F466CF45
:10156000C980DA80EB80FC808AE0F594E794D79418
:10157000C7948A95D1F781E0C81AD108E108F1082B
:1015800085E054CF68E478EE81E090E0A501980111
:101590000E94413A69017A0181E0C81AD108E10844
:1015A000F1089FEFC916D104E104F10411F00CF029
:1015B00011CF84E069CE83E09FEFC916D104E10426
:1015C000F10409F00CF432CF62E17AE780E090E0B8
:1015D000A50194010E94413A69017A0181E0C81A8B
:1015E000D108E108F1089D81992309F4B0CF86E084
:1015F0009FEFC916D104E104F10409F008F444CEC8
:10160000C980DA80EB80FC809AE0F594E794D79467
:10161000C7949A95D1F781E0C81AD108E108F1087A
:1016200087E032CE82E030CEAF92BF92CF92DF928F
:10163000EF92FF920F931F93CF93DF936C017B0187
:101640008B01040F151FEB015E01AE18BF08C01718
:10165000D10759F06991D601ED91FC910190F0818B
:10166000E02DC6010995892B79F7C501DF91CF914E
:101670001F910F91FF90EF90DF90CF90BF90AF90B0
:101680000895FC01538D448D252F30E0842F90E088
:10169000821B930B541710F0CF960895019708956D
:1016A000FC01918D828D981761F0A28DAE0FBF2F36
:1016B000B11D5D968C91928D9F5F9F73928F90E08C
:1016C00008958FEF9FEF0895FC01918D828D9817FB
:1016D00031F0828DE80FF11D858D90E008958FEF38
:1016E0009FEF0895FC01918D228D892F90E0805C01
:1016F0009F4F821B91098F739927089580E792E08D
:101700000E94720B21E0892B09F420E0822F0895BA
:1017100080E090E0892B29F00E947E0B81110C94CF
:1017200000000895FC01A48DA80FB92FB11DA35A84
:10173000BF4F2C91848D90E001968F739927848FF1
:10174000A689B7892C93A089B1898C918370806414
:101750008C93938D848D981306C00288F389E02DB5
:1017600080818F7D80830895EF92FF920F931F9366
:10177000CF93DF93EC0181E0888F9B8D8C8D981344
:101780001AC0E889F989808185FF15C09FB7F89450
:10179000EE89FF896083E889F9898081837080649C
:1017A00080839FBF81E090E0DF91CF911F910F91E7
:1017B000FF90EF900895F62E0B8D10E00F5F1F4FF6
:1017C0000F731127E02E8C8D8E110CC00FB607FC05
:1017D000FACFE889F989808185FFF5CFCE010E9493
:1017E000920BF1CFEB8DEC0FFD2FF11DE35AFF4F64
:1017F000F0829FB7F8940B8FEA89FB898081806221
:10180000CFCF0F931F93CF93DF938C01D0E0C0E035
:10181000F801EC0FFD1F6491662341F080E792E030
:101820000E94B40B892B11F02196F2CFCE01DF91EB
:10183000CF911F910F910895CF93DF93EC01888D85
:101840008823B9F0AA89BB89E889F9898C9185FD3B
:1018500003C0808186FD0DC00FB607FCF7CF8C91C9
:1018600085FFF2CF808185FFEDCFCE010E94920BE4
:10187000E9CFDF91CF910895CF92DF92EF92FF925F
:101880001F93CF93DF93EC016A017B018C810E944F
:10189000690711E0892B09F410E08B85181721F0F6
:1018A000CD8ADE8AEF8AF88E8D899E89AF89B88DC0
:1018B000B701A601481B590B6A0B7B0B898D90E081
:1018C000B0E0A0E084179507A607B70798F48C85C9
:1018D000181781F01C878A851817A9F0CA8EDB8E2D
:1018E000EC8EFD8EEAA1FBA1309721F0B701A60195
:1018F000898509951B87DF91CF911F91FF90EF900C
:10190000DF90CF900895CE8EDF8EE8A2F9A2ECA1F1
:10191000FDA1309779F389850995ECCFFC011582FB
:1019200013861486158616861786108A118A128ADF
:10193000138A148A158A168A138E8681882311F0D9
:10194000848183830895CF92DF92EF92FF920F9369
:101950001F93CF93DF93EC018E81811103C08D899A
:10196000882369F18C810D851E852F8538896A0150
:101970007B01C01AD10AE20AF30A9701860137FDFA
:1019800018C009891A892B893C89401B510B620BAD
:10199000730B14161506160617065CF061E0DF914E
:1019A000CF911F910F91FF90EF90DF90CF900C940B
:1019B000920760E00E9492078D8981111D8ADF9154
:1019C000CF911F910F91FF90EF90DF90CF900895EE
:1019D000CF93DF93EC0161E088810E94920781E060
:1019E0008C870E9456086D877E878F87988BDF9142
:1019F000CF910895CF92DF92EF92FF92CF93DF9332
:101A0000EC016A017B0169857A858B859C850E9442
:101A100022399B01AC0160E070E080E89FE30E9406
:101A2000483B20E030E040E05FE30E94833920E063
:101A300030E04AE754E40E948339CD8EDE8EEF8E8B
:101A4000F8A220E030E040E05FE30E94DC3A0E9430
:101A5000C13BC60ED71EE81EF91EC9A2DAA2EBA230
:101A6000FCA28FA191E089278FA3DF91CF91FF90F6
:101A7000EF90DF90CF900895CF92DF92EF92FF9298
:101A8000CF93DF93EC016A017B018D899E89AF8939
:101A9000B88DAB019601281B390B4A0B5B0BDA01A1
:101AA000C901B7FD49C0898D9A8DAB8DBC8DAB0145
:101AB0009601281B390B4A0B5B0BDA01C90118167A
:101AC00019061A061B06C4F18EA18823A9F189857F
:101AD0009A85AB85BC850197A105B10551F461E0FC
:101AE0008C81DF91CF91FF90EF90DF90CF900C949D
:101AF000920789A19AA1ABA1BCA1AB019601281BB9
:101B0000390B4A0B5B0BDA01C901B7FD04C0A60112
:101B1000CE010E94FA0C8C819FA1992311F061E003
:101B2000E0CF60E00E9492071FA2DF91CF91FF906B
:101B3000EF90DF90CF90089560E08C810E94920733
:101B40001FA2898D9A8DAB8DBC8DC81AD90AEA0A5D
:101B5000FB0A8EA1882331F01C141D041E041F04EF
:101B60000CF41EA288A5882301F31C141D041E0476
:101B70001F04DCF618A6D9CF8F929F92AF92BF9226
:101B8000CF92DF92EF92FF920F931F93CF93DF9349
:101B9000EC018E81811104C088A1882309F445C01D
:101BA0007B0189899A89AB89BC894A015B01881AC2
:101BB000990AAA0ABB0AC501B40197FD53C00D8951
:101BC0001E892F89388D4A015701801A910AA20A6D
:101BD000B30A9501840110161106120613060CF4BF
:101BE00041C02A8D2223A9F10C8D1D8D2E8D3F8D94
:101BF000200F311F2115310511F421E030E0FB8C5D
:101C000050E040E00E94AA3A60177107D8F4F11042
:101C10000AC069857A8520E030E0A9018C810E94A4
:101C2000AE0881E08B8F81E0898FDF91CF911F918A
:101C30000F91FF90EF90DF90CF90BF90AF909F906B
:101C40008F900895FF2079F38C810E9482081B8E6B
:101C5000EACF69857A8520E030E0A9018C810E9475
:101C6000AE08E1CF898D882301F38C810E94820820
:101C7000198E1B8E88A18823C1F218A2D6CF6F3F80
:101C8000A9F0E62FE295EF7044E0E49F9001112463
:101C9000DC01ED91FC91E20FF31F6F708281938163
:101CA000B6E06B9F800D911D1124089590E080E0B7
:101CB0000895982F80336CF08A3324F08F3524F008
:101CC0008B3724F481E0089581341CF081E09B354A
:101CD0000CF080E00895FC01828581110AC0A78183
:101CE000B085CD010196908787838C91818781E0B3
:101CF0008287818508951F93CF93DF93EC01162F80
:101D00000E946B0E811306C01A8681E0DF91CF918D
:101D10001F91089580E0FACF0F931F93CF93DF9325
:101D20008C01EB018991882369F0C8010E946B0E38
:101D3000882379F0FE013197908198130DC0F80146
:101D40001286F0CF90E080E0DF91CF911F910F914C
:101D5000089582E090E0F8CF83E090E0F5CFCF9354
:101D6000DF93EC01CE010E946B0E8B304CF4893076
:101D70005CF4882359F081E08E8390E080E00BC012
:101D80008D3011F08032B9F71A86ECCF8E81811137
:101D900005C081E090E0DF91CF91089582E090E06E
:101DA000FACFDC0152969C915297915084E0989F13
:101DB000900111245096ED91FC91E20FF31F2281C6
:101DC00033812115310579F041818081481758F41C
:101DD00081E0840F818386E0489F200D311D11240E
:101DE0002115310521F460E070E08FEF0895B9010D
:101DF000892F8295807F840F0895DF92EF92FF9262
:101E00000F931F93CF93DF93EC017B01D12C688953
:101E100079898A89D816E0F484E0D89E800111245B
:101E2000060F171FD80112966D917C9161157105EF
:101E300041F0D701ED91FC910280F381E02DC701C3
:101E40000995F8011382128210821182D394DFCF98
:101E50001A8A8FEF8C8BC617D70761F0D701ED91E7
:101E6000FC910280F381E02DC7010995D98BC88BC5
:101E700084E08B8BDF91CF911F910F91FF90EF90BA
:101E8000DF9008958F92AF92CF92EF920F931F93AE
:101E900000915E0210915F02209160023091610218
:101EA00041E08091030190910401825F954009F423
:101EB00040E080900001A0900101C0900201E090FC
:101EC0000A016091260380910801909109010E9406
:101ED000400680914C02882309F44CC08091A103F4
:101EE000833018F083E0809375031092410381E002
:101EF000809342038093430380934403809345037C
:101F0000109246031092470310925D0394E690935B
:101F10005E038093E4031092A20387E08093A303FF
:101F200089E08093A40380912A0590912B05A091CC
:101F30002C05B0912D058093A5039093A603A09343
:101F4000A703B093A8038091260590912705A0913F
:101F50002805B09129058093A9039093AA03A09323
:101F6000AB03B093AC031F910F91EF90CF90AF9064
:101F70008F90089510924303F6CF4F925F926F9225
:101F80007F928F929F92AF92BF92CF92DF92EF9209
:101F9000FF920F931F93CF93DF9300D000D01F9237
:101FA000CDB7DEB7DC012C912B32E1F12D32D9F522
:101FB0000196EE24E394FC01208130ED320F3A309B
:101FC00010F02E3291F58C0160E070E0CB01F80149
:101FD000219130ED832E820E39E0381508F444C08B
:101FE0006A3949E97407840749E1940708F046C053
:101FF000AAE0B0E09B01AC010E94603A912CB12CA8
:10200000A12C24013501409450946094709446169C
:1020100057066806790690F1680D791D8A1D9B1D8B
:102020008F01D5CF0196E12CC6CF198229813A8143
:102030004B815C816D8170E080E090E00F900F90AB
:102040000F900F900F90DF91CF911F910F91FF9004
:10205000EF90DF90CF90BF90AF909F908F907F9048
:102060006F905F904F900895211108C0EE2051F1BC
:1020700061307105810550E89507A0F0F12CBAE0B8
:102080008B2E912CA12CB12C6115710530E88307A2
:102090009105F8F0A50194010E94AA3ACA01B9017C
:1020A000F394F2CF22E029839B01AC018827992782
:1020B000DC01821B930BA40BB50B8A839B83AC833F
:1020C000BD83B4CF23E029836A837B838C839D8384
:1020D000ADCFF801D8012D918D0130ED320F3A309E
:1020E00010F4F394F6CF2E3201F58F010F5F1F4FDE
:1020F000F8010F5F1F4F2081A0EDDA2ED20EB9E05C
:10210000BD1598F06C3CECEC7E07ECE08E07910579
:1021100078F7AAE0B0E09B01AC010E94603A6D0D37
:10212000711D811D911DFA94E3CF20812F7D10E058
:1021300000E0253409F050C021812D32B1F53296EE
:10214000CC24C394DF0110E000E02F2D0F2C000CF5
:10215000330BEAE0BE2EFD01DD9040ED4D0D4A301F
:10216000B0F5B09EA001B19E500D11240D2DDD0CD7
:10217000110B00531109040F151FA801420F531F23
:102180004732510544F3CC20B9F080E090E0A0E064
:10219000B0E8E11003C080E090E0DC0121E0298399
:1021A0008A839B83AC83BD8341CF2B3219F0319658
:1021B000C12CC8CF3296FCCF80E090E0A0E8BFEF02
:1021C000E110ECCF80E090E0A0E8BFE7E7CFCC20C3
:1021D00019F01195019511092081211126CF0F0DBC
:1021E000111DF7FC1A950E9422394CEBA42E40E0F9
:1021F000B42E101611063CF011950195110954EA00
:10220000A52E50E0B52ED12CC12C01151105E9F0F9
:10221000F6E0CF16D104A9F000FF0DC0F601EE0FD5
:10222000FF1FEE0FFF1FEA0DFB1D25913591459114
:1022300054910E948339159507952FEFC21AD20A3F
:10224000E4CF60E070E080EC9FE7E110905821E07F
:1022500029836A837B838C839D83E8CECF92DF9230
:10226000EF92FF920F931F93CF93DF937C016B014B
:102270008A01FC01C081D1814F3F510509F0B0F4C2
:10228000E881F9810480F581E02D4B5F5F4FCE013D
:102290000995009759F0FC010383DF91CF911F91BD
:1022A0000F91FF90EF90DF90CF900895E881F98132
:1022B0000280F381E02DB601CE01099581E0F7019E
:1022C000828390E080E0E9CF1F93CF93DF93EC010E
:1022D000162F6A817B816115710589F04C815D81C2
:1022E000FB0183818417150651F4440F551F4F5F7E
:1022F0005F4F888199810E942E119B838A838A81F6
:102300009B81009759F02C813D81A9014F5F5F4F60
:102310005D834C83820F931FFC011483DF91CF9167
:102320001F9108959F92AF92BF92CF92DF92EF924A
:10233000FF920F931F93CF93DF9300D000D01F9293
:10234000CDB7DEB78C010E946B0ED82EF801128635
:10235000F12CE12C60EFC62EC8010E946B0EF80133
:102360001286D81609F4B3C0811113C082E090E040
:102370000F900F900F900F900F90DF91CF911F91C2
:102380000F91FF90EF90DF90CF90BF90AF909F9014
:1023900008958C3509F099C0C8010E946B0E8823FE
:1023A00029F3EAE9F1E0853709F083C0F8011286E4
:1023B00054E0952EB12CA12CC8010E946B0E8823ED
:1023C000A9F2813434F48053803130F083E090E01E
:1023D000CFCF8F7D8753F8CF44E0AA0CBB1C4A9522
:1023E000E1F7A82AF80112869A949110E5CFC50169
:1023F000985D8115944020F47501F3E0FF22ACCF85
:10240000C5019C5D81159440A8F483E0B822B70112
:10241000762F6627770F770F6A297B2990E080E077
:102420000196603871058105910540F4C8010E944C
:10243000641192CFB50190E080E0F3CF1982262F8E
:102440002F7320682A8326E0969587957795679560
:102450002A95D1F76032710580F4606C6B835E0160
:10246000E4E0AE0EB11CF50162915F01662309F450
:1024700073CFC8010E946411F6CF262F2F732068F6
:102480002B8386E0769567958A95E1F76031710533
:1024900038F4606E6C835E01F5E0AF0EB11CE3CFE3
:1024A00060686C83CD825E0126E0A20EB11CDBCF9A
:1024B00032969081992309F489CF8913F9CF8181CC
:1024C000882309F483CFF8011286682FAFCF828169
:1024D0009381892B19F484E090E04ACF90E080E06A
:1024E00047CF6F927F928F929F92AF92BF92CF927F
:1024F000DF92EF92FF920F931F93CF93DF93EC0144
:102500002A813B812C5F3F4F4C815D8144305105D6
:1025100088F58901F90180E0942FB22FAE2FA21B1C
:10252000A91730F4F190A1E0F110A0E08A2BF6CFCA
:10253000811120C082E0EB018C83FB01802F8B1B7B
:10254000891728F4E80189918E018193F7CF640FF0
:10255000751FFB011082DF91CF911F910F91FF90AA
:10256000EF90DF90CF90BF90AF909F908F907F9033
:102570006F9008958B01F901E40FF51F1082888197
:1025800099814C815D81DC011396ED91FC913A01BA
:10259000E89477F86901C60CD71C3097C1F0A38185
:1025A000A615170481F449017F01B4E0EB0EF11C7C
:1025B0008C149D0429F1D401AD904D01D701BD903B
:1025C0007D01AB14A9F30190F081E02DE6CF6A8183
:1025D0007B810E942E11FC01A881B98113968D91F7
:1025E0009C911497918380831496FC93EE93139798
:1025F0001B821A8285E0E8018C83F983E883ABCFE4
:1026000082818F5F8283F6CFDB01ED91FC91119780
:102610000280F381E02DBC01CD010994AF92BF92FD
:10262000CF92DF92EF92FF920F931F93CF93DF939E
:10263000EC018B018C8180FF24C0A881B981FB0152
:102640008381948130E020E00097D9F0A817B90782
:10265000D1F5F8016081718112968C9112978150A9
:1026600012968C93129781110CC08D919C911197A9
:102670002115310529F1F90191838083CD010E9453
:1026800004138C81807631F1209721F1F880580174
:10269000F5E1AF0EB11C8FEFF816D1F06F2DC5012B
:1026A0000E943F0E6C01FC01E580B8010E940E13F0
:1026B000F801818DF6018083F801F18EFE2CEBCFBD
:1026C00094838383DBCF9C01FC0180819181BCCF0B
:1026D000F882F9821C82DF91CF911F910F91FF90B8
:1026E000EF90DF90CF90BF90AF9008950F931F931E
:1026F000CF93DF93EC01088119818B819C81009736
:1027000049F0FC01208131813C832B83B8010E9478
:102710000413F3CF68817981CE010596DF91CF91C3
:102720001F910F910C94FD0EFC0101900020E9F720
:102730003197AF01481B590BBC0180E792E00C9424
:10274000140B8F929F92AF92BF920F931F93CF93D0
:10275000DF93CDB7DEB7A1970FB6F894DEBF0FBEFB
:10276000CDBF19A2423008F44AE08E010F5D1F4F21
:10277000842E912CB12CA12CA50194010E94AA3A7F
:10278000E62FB901CA01EA30F4F4E05DD801EE9316
:102790008D01232B242B252B79F790E080E01097D7
:1027A00019F0CD010E949413A1960FB6F894DEBFE4
:1027B0000FBECDBFDF91CF911F910F91BF90AF9012
:1027C0009F908F900895E95CE1CF4AE00C94A113AB
:1027D000CF92DF92EF92FF92CF93DF936C01990F2C
:1027E000EE08FF08F7FE19C06DE280E792E00E9454
:1027F000B40BEC0166277727CB016C197D098E0994
:102800009F094AE00E94A1138C0F9D1FDF91CF9179
:10281000FF90EF90DF90CF9008954AE0C701B60196
:10282000DF91CF91FF90EF90DF90CF900C94A113A8
:10283000CF93DF930E94010CEC018DEA91E00E949E
:1028400094138C0F9D1FDF91CF910895CF93C82FC4
:102850008093F90487E09AE00E94010C8091F704CC
:10286000082E000C990B0E94E8138DEF99E00E944E
:10287000010C8BEE99E0CC2311F084EF99E00E94DB
:10288000010C8AEF99E0CF910C9418140F931F93C9
:10289000CF938C01C62FFC01638382EA96E00E94ED
:1028A000010CF8018081082E000C990B0E94E8139E
:1028B00088E996E00E94010C86E896E0CC2311F0AE
:1028C0008FE896E00E94010C85E996E0CF911F9178
:1028D0000F910C941814EF92FF920F931F93CF93C4
:1028E000DF937C018B01EA018CE696E00E94010CEB
:1028F000C7010E94010C80E696E00E94010CC8010D
:102900000E94010C84E596E00E94010CCE010E9419
:10291000010C81E596E0DF91CF911F910F91FF901F
:10292000EF900C941814CF93DF936DE780E792E05B
:102930000E94B40BEC018DEA91E00E9494138C0F7D
:102940009D1FDF91CF9108954F925F926F927F927A
:102950008F929F92AF92BF92EF92FF920F931F932D
:10296000CF93DF932A013B0148015901853009F4D7
:1029700080C008F061C0843009F46FC0E091170393
:10298000F09118031481C9E7DBE048E9E42E4BE03D
:10299000F42E89ED9BE00E94010CC7010E94010CFE
:1029A00080ED9BE00E94010C812F110F990B0E947A
:1029B000E81385EC9BE00E94010CCE010E94010C03
:1029C00080EB9BE00E94010C8091E5049091E6046D
:1029D000A091E704B091E804A3019201281B390BF0
:1029E0004A0B5B0BCA01B9010E94E5138EE99BE01B
:1029F0000E94010C8091E5049091E604A091E70407
:102A0000B091E804A5019401281B390B4A0B5B0B1C
:102A1000CA01B9010E94E513DF91CF911F910F9177
:102A2000FF90EF90BF90AF909F908F907F906F90AE
:102A30005F904F900C949314863039F1873009F0F1
:102A40009DCFE0911F03F09120031481CDE5DBE0E1
:102A50008EE7E82E8BE0F82E9CCFE0911903F091E1
:102A60001A031481C4E7DBE032E9E32E3BE0F32EE6
:102A700090CFE0911B03F0911C031481CBE6DBE0C7
:102A80002BE8E22E2BE0F22E84CFE0911D03F09193
:102A90001E031481C2E6DBE094E8E92E9BE0F92EE8
:102AA00078CFCF92DF92EF92FF920F931F93CF9345
:102AB000DF93EC018881813009F4D1C06A017B0188
:102AC000813090F08230D1F483E293E00E948E0C4A
:102AD00081E493E0DF91CF911F910F91FF90EF90F0
:102AE000DF90CF900C948E0C8981853009F47DC0E5
:102AF00070F48330F1F1843009F45AC0DF91CF9142
:102B00001F910F91FF90EF90DF90CF900895863046
:102B100009F488C0873091F7E0911F03F0912003FA
:102B2000309761F38681882349F385A18111E6CF2F
:102B30008F819885A985BA85C58AD68AE78AF08E5D
:102B40008C0D9D1DAE1DBF1D818F928FA38FB48FE5
:102B500081E086A3CF010E94FA0C0F811885298598
:102B60003A850C0D1D1D2E1D3F1DB701A60187E0E6
:102B70001CC0E0911703F0911803309709F4BECF01
:102B80008681882309F4BACF0F81188529853A8573
:102B9000C18AD28AE38AF48A0C0D1D1D2E1D3F1DA9
:102BA000058B168B278B308F83E00E94A414A6CF51
:102BB000E0911903F0911A03309709F49FCF8681B1
:102BC000882309F49BCF0F81188529853A85C18A0E
:102BD000D28AE38AF48A0C0D1D1D2E1D3F1D058B24
:102BE000168B278B308F84E0E0CFE0911B03F091B0
:102BF0001C03309709F482CF8681882309F47ECFA5
:102C00000F81188529853A85C586D686E786F08A9C
:102C10000C0D1D1D2E1D3F1D018B128B238B348B24
:102C200085E0C3CFE0911D03F0911E03309709F4B6
:102C300065CF8681882309F461CF0F8118852985A6
:102C40003A85C586D686E786F08A0C0D1D1D2E1D99
:102C50003F1D018B128B238B348B86E0A6CF89819D
:102C6000E0911103F0911203882339F0813009F0CB
:102C700045CFE0911303F0911403309709F43ECF50
:102C8000CF80D884E984FA844C0D5D1D6E1D7F1DB4
:102C9000418B528B638B748B31CF2F923F924F922B
:102CA0005F926F927F928F929F92AF92BF92CF92DC
:102CB000DF92EF92FF920F931F93CF93DF9300D099
:102CC00000D0CDB7DEB72A013B0103E4809F90011D
:102CD0001124912C8901C9018F559C4F9A838983B6
:102CE0004BE0842E19019EE4290E311CE981FA8102
:102CF0008081981608F0A0C0A92CB12CC801899C2D
:102D0000800D911D11248F5E9C4FFC01E25BFF4FF3
:102D10002081233039F1805B9F4FFC018081893015
:102D200021F09091F60489131DC08A9CF0018B9CC0
:102D3000F00D1124E00FF11FEE59FC4FC080D1803F
:102D4000E280F380C114D104E104F10469F4B30119
:102D5000A201C101989C800D911D11248F5E9C4F92
:102D60000E9451159394C2CFC40CD51CE61CF71CCD
:102D7000E4EFF3E090E080E02081211125C024E021
:102D8000880F991F2A95E1F7DC01AB51BC4F8A9C53
:102D9000F0018B9CF00D1124E00FF11FE15AFC4F64
:102DA000282D01900D922A95E1F78F5E9C4FFC0132
:102DB000E152FF4FC082D182E282F3828D519F4F58
:102DC00021E0FC012083CECF0196709680319105E1
:102DD00099F68BEE9AE00E94010C8A9CC0018B9CB4
:102DE000900D1124800F911F8F5E9C4F9C838B83CD
:102DF000FC01E25BFF4F608170E090E080E04AE020
:102E00000E94A11380EE9AE00E94010CEB81FC81EC
:102E1000E15BFF4F608170E090E080E04AE00E945B
:102E2000A1138FEC9AE00E94010CC701B6010E9429
:102E3000E5130E94931496CF0F900F900F900F9070
:102E4000DF91CF911F910F91FF90EF90DF90CF9086
:102E5000BF90AF909F908F907F906F905F904F90BA
:102E60003F902F9008950F931F93CF93DF938C0182
:102E7000D62FC42F86EB97E00E94010CC8010E9458
:102E8000010C8BEA97E00E94010C81E997E0DD23B9
:102E900011F087E997E00E94010C8CE997E00E940D
:102EA000010C86E897E0CC2311F08CE897E00E94B3
:102EB000010CDF91CF911F910F910C9493140F93FC
:102EC0001F93CF938C01C62F8CE697E00E94010CD4
:102ED000C8010E94010C81E697E00E94010C86E582
:102EE00097E0CC2311F08CE597E00E94010CCF9184
:102EF0001F910F910C949314CF92DF92EF92FF9257
:102F00000F931F93CF938C01C62F69017A018CE335
:102F100097E00E94010CC8010E94010C81E397E038
:102F20000E94010C89E197E0CC2311F08FE197E03A
:102F30000E94010C84E297E00E94010CC701B601D7
:102F40000E94E513CF911F910F91FF90EF90DF90BA
:102F5000CF900C9493147F928F929F92AF92BF92D6
:102F6000CF92DF92EF92FF920F931F93CF93DF9355
:102F7000EC01762E49015A01670178018FEF96E046
:102F80000E94010CCE010E94010C84EF96E00E9489
:102F9000010C8EEC96E0772011F084ED96E00E9413
:102FA000010C86EE96E00E94010CC501B4010E945E
:102FB000E51389ED96E00E94010CC701B6010E945D
:102FC000E513DF91CF911F910F91FF90EF90DF906C
:102FD000CF90BF90AF909F908F907F900C94931460
:102FE000EF92FF920F931F93CF937C018B01C42F1D
:102FF00087E396E00E94010CC7010E94010C8BE25E
:1030000096E00E94010CC8010E94010C80E296E04B
:103010000E94010C85E196E0CC2311F08BE196E053
:103020000E94010CCF911F910F91FF90EF900C9493
:103030009314CF92DF92EF92FF920F931F93CF934F
:10304000DF938C01EB0169017A018BEF95E00E941F
:10305000010CC8010E94010C8FEE95E00E94010C4A
:10306000CE010E94010C84EE95E00E94010CC70184
:10307000B6010E94E513DF91CF911F910F91FF9050
:10308000EF90DF90CF900C949314009711F00C9474
:10309000941390E080E00895EF92FF920F931F93B6
:1030A000CF93DF93C0911103D0911203882321F0B5
:1030B000C0911303D0911403209709F472C06130BA
:1030C00009F469C008F464C0623009F467C09CE286
:1030D000E92E9AE0F92E811104C085E3E82E8AE0FA
:1030E000F82E8DE99AE00E94010CC7010E94010CA4
:1030F00084E99AE00E94010C6C8170E090E080E02D
:103100004AE00E94A11389E79AE00E94010CC801DD
:103110000E94010C84E69AE00E94010C6A8D7B8D6E
:103120008C8D9D8D0091E5041091E6042091E704BB
:103130003091E804601B710B820B930B0E94E51326
:1031400082E59AE00E94010C6E8D7F8D88A199A185
:103150000091E5041091E6042091E7043091E80421
:10316000601B710B820B930B0E94E51381E49AE0C4
:103170000E94010CCE010D960E9445188EE39AE044
:10318000DF91CF911F910F91FF90EF900C94181445
:1031900008EC1AE09CCF0FEB1AE099CF07EB1AE08E
:1031A00096CFDF91CF911F910F91FF90EF900895EF
:1031B0009091ED04911104C09091EE04992371F067
:1031C0009091EF0491110AC06091F404882321F0DA
:1031D000813021F46091F5040C944C180895CF933C
:1031E000DF93EC016E8387E995E00E94010C8F81EB
:1031F00098850E9445188EE895E00E94010C8C810C
:10320000082E000C990B0E94E81384E895E00E94B8
:10321000010C8E8181110AC082E795E00E94010CA9
:1032200081E895E0DF91CF910C9418148BE795E03D
:10323000F5CF60E080910F01909110010E94EF188E
:1032400060E080911101909112010E94EF1860E0FE
:1032500080911301909114010E94EF1860E0809119
:103260001501909116010E94EF1860E080911701FE
:10327000909118010E94EF1860E0809119019091DF
:103280001A010E94EF1860E080911B0190911C01CF
:103290000E94EF1880911D0190911E01009719F076
:1032A00060E00E94EF1860E080911F019091200182
:1032B0000C9446141F93CF93DF93EC01162F8E814D
:1032C000882321F060E0CE010E94EF188D818130CB
:1032D00021F460E08C810E9492071C836D81812F14
:1032E0000E94C0078D81813021F460E08C810E94B2
:1032F00092078AEC95E00E94010C8F8198850E94CC
:10330000451881EB95E00E94010C8C81082E000C81
:10331000990B0E94E813DF91CF911F910C949314A5
:10332000CF93DF93EC010E945A198C810E946907A8
:1033300021E0892B09F420E02A878C810E9469070B
:1033400021E0892B09F420E02B878C810E946907FA
:1033500021E0892B09F420E02C871D8A1E8A1F8A10
:10336000188EDF91CF9108959F92AF92BF92CF9226
:10337000DF92EF92FF920F931F93CF93DF938A0117
:10338000452B09F468C0E9016B016596FC01608179
:10339000CE010E943F0EFC01BB24BA94892B09F098
:1033A000B5807601E894F7F8AA24A3946701C00ECB
:1033B000D11E99249394309709F44DC0AA2009F4A2
:1033C0003FC08481843069F0853049F1823079F5DD
:1033D000DF010D900020E9F71197CD018E1B9F0BA7
:1033E00007C00190F081E02D90E080E0309781F7F8
:1033F0009F77E816F90621F5D801AC15BD05E1F473
:103400006B2DCE01DF91CF911F910F91FF90EF9027
:10341000DF90CF90BF90AF909F900C943F0EA08113
:10342000B181FD01349613968C9190E0E2CF90E04B
:1034300080E0F0E0E0E0DDCF9D9181919817E9F226
:10344000A9246B2DCE010E943F0EFC01892B09F4AB
:10345000B2CFB580B0CF90E080E0DF91CF911F91E7
:103460000F91FF90EF90DF90CF90BF90AF909F9023
:103470000895FC0120813181C9014A96428153811E
:1034800064817581009759F0D9015E96EC91E03224
:1034900011F090E080E0009711F00C94B41990E0E6
:1034A00080E00895CF93DF93EB010E94391A0097D3
:1034B00041F0FC012481263021F48081DF91CF91FD
:1034C00008958881FBCFCF92DF92EF92FF92CF9346
:1034D000DF9300D000D01F92CDB7DEB70E94391A1B
:1034E000DC01009709F445C01496EC911497E25062
:1034F000ED3008F03EC0F0E0E058F54E0C94F53B9E
:10350000A91AB91AA71ABB1A8D1AB91AB91AB91A6F
:103510009B1AB91A9B1AB91ABF1ACC908C2D0F900E
:103520000F900F900F900F90DF91CF91FF90EF9041
:10353000DF90CF900895CD90DD90ED90FC908FEFCF
:10354000C816D104E104F10449F340F312C08D918F
:103550009C910E94BD0F3A834B835C836D83CA802C
:10356000DB80EC80FD80223051F3233041F32130A9
:1035700051F0C12CD3CF8D919C910496EACFCD9080
:10358000DD90ED90FC9020E030E0A901C701B6018C
:103590000E94F03B87FDEDCF20E030E04FE753E4A1
:1035A000C701B6010E941D3918161CF3C701B601E8
:1035B0000E94C13BC62EB2CFCF92DF92EF92FF9214
:1035C000CF93DF9300D000D01F92CDB7DEB70E941B
:1035D000391ADC01009709F44AC01496EC9114974B
:1035E000E250ED3008F043C0F0E0E750F54E0C94A7
:1035F000F53B271B371B251B3B1B061B371B371BAC
:10360000371B161B371B1B1B371B3F1B6C9170E0B6
:1036100090E080E00F900F900F900F900F90DF914F
:10362000CF91FF90EF90DF90CF9008956D917D91B5
:103630008D919C91EFCF8D919D910D90BC91A02D7E
:10364000B7FD15C0BC01CD01E5CF8D919C910E94C5
:10365000BD0F3A834B835C836D83CA80DB80EC8033
:10366000FD80223041F1233041F1213061F060E0F2
:1036700070E0CB01CFCF8D919C910496E8CFCD9097
:10368000DD90ED90FC9020E030E0A901C701B6018B
:103690000E94F03B87FDEBCF2FEF3FEF4FE75FE45A
:1036A000C701B6010E941D3918160CF3C701B601F7
:1036B0000E94C13BAFCFF7FCDACFC701B601AACF5A
:1036C0008F929F92AF92BF92CF92DF92EF92FF9232
:1036D0000F931F93CF93DF9300D000D000D0CDB7CE
:1036E000DEB749015A0167017801FB010190002012
:1036F000E9F73197E61BF70B9A8389837C836B8309
:10370000ED838F2F8F778E83CE0101960E94391A19
:103710000097B9F0FC0124812A3041F02C3089F463
:1037200080819181A281B381B7FD0BC0CE0101964A
:103730000E94DC1A86169706A806B90610F44B01FB
:103740005C01C501B401C616D706E806F90610F4F7
:10375000C701B60126960FB6F894DEBF0FBECDBFE7
:10376000DF91CF911F910F91FF90EF90DF90CF905D
:10377000BF90AF909F908F900895CF92DF92EF927D
:10378000FF92CF93DF9300D000D01F92CDB7DEB76A
:103790000E94391ADC01009709F446C01496EC9196
:1037A0001497E250ED3008F03FC0F0E0E652F44EDE
:1037B0000C94F53B191C141C171C2A1CE71B141C29
:1037C000141C141CF61B141C031C141C2E1C6C91C2
:1037D00070E0CB010F900F900F900F900F90DF9142
:1037E000CF91FF90EF90DF90CF9008958D919D91B4
:1037F0000D90BC91A02D811520E89207A105B1057F
:1038000098F4BC01E6CF8D919D910D90BC91A02DB7
:103810006C017D0120E8D20EE11CF11CC114D10421
:1038200021E0E206F10468F370E060E0D2CF8D9110
:103830009C910E94BD0F3A834B835C836D83CA8049
:10384000DB80EC80FD80223031F1233081F12130AA
:1038500059F708C08D919C910496EBCFCD90DD90E7
:10386000ED90FC9020E030E040E057ECC701B6015D
:103870000E94F03B87FDD8CF20E03EEF4FEF56E4AB
:10388000C701B6010E941D39181674F2C701B601AE
:103890000E94BA3B9ECFD701C6019058AF4FBF4F91
:1038A0000097A140B10508F0BFCFB60192CFC11477
:1038B00080E8D806E104F104C0F3B6CF0F931F935C
:1038C000CF93DF93EC018B010E94391AFC01892B05
:1038D00029F084818A3051F08C30C1F0F801808168
:1038E0009181DF91CF911F910F91089580819181F6
:1038F000A281B38181159048A105B10578F7CE0169
:10390000DF91CF911F910F910C94BD1B808191810C
:10391000A281B3819058AF4FBF4F0097A140B1052E
:10392000E8F6EDCF4F925F926F927F92AF92BF9287
:10393000CF92DF92EF92FF920F931F93CF93DF937B
:103940009091ED04911105C09091EE04992309F432
:10395000EAC09091EF049111E6C0823008F0E3C014
:103960008093F60481110AC0E0911103F0911203D3
:10397000309759F481E08093F404D5C0E0911303AB
:10398000F0911403309709F487C09089992309F4C2
:1039900080C00189128923893489041715072607F5
:1039A000370708F482C0882309F4CCC082E08093F2
:1039B000F504B9C08F898F5F8F8B9D89891708F4B3
:1039C000ADC08FA5843658F40E94C538A30192017A
:1039D0000E94413A8FA5681710F01F8A9FC01F8A66
:1039E000888D882351F09D899501281B31099217F4
:1039F000130609F05CF4890F8D8B8B89823008F0F7
:103A00008DC0B701A6010E944D1688C087ED90E0D9
:103A10000E94010C6D8970E090E080E04AE00E9415
:103A2000A11384ED90E00E941814E7CFCD8EDE8EB6
:103A3000EF8EF8A273C08DA5811170C089A19AA1E3
:103A4000ABA1BCA1A7019601281B390B4A0B5B0B4C
:103A5000DA01C901B7FD62C08DA19EA1AFA1B8A5D1
:103A60008C199D09AE09BF09181619061A061B06FE
:103A70000CF054C08FA5843610F00DA7BECF0E9465
:103A8000C538A30192010E94413A8FA56817A8F397
:103A900045C0882309F46ECF81E089CF1092F404E9
:103AA000E0911103F091120308C08823B9F310923A
:103AB000F504E0911303F0911403309781F0009125
:103AC000E9041091EA042091EB043091EC04040F16
:103AD000151F261F371F018B128B238B348B6A0116
:103AE0007B01182FC1E1D3E0AA24AA94B12C94E65B
:103AF000492E512C612C712C01E08C89882371F0A6
:103B00008EA5893011F0181309C08A89813009F413
:103B10008DCF08F44FCF823009F48DCF6E9633E00D
:103B2000CD34D30751F7DF91CF911F910F91FF90C3
:103B3000EF90DF90CF90BF90AF907F906F905F90AD
:103B40004F90089582E017CFBF92CF92DF92EF920D
:103B5000FF920F931F93CF93DF93EC01198D1F3FBB
:103B600081F0612F45960E943F0EFC018081898F74
:103B7000309709F477C014828FEF8583BF01812FBE
:103B800076C06C0135E0C30ED11CE880F9808F89C6
:103B9000882341F0C6010E94D10EE62FF72F182F7F
:103BA000309749F71F89988D191324C0103109F4F3
:103BB00059C0110F6D897E89D701ED91FC91B4E058
:103BC0001B9FA0011124C616D70609F044C001901E
:103BD000F081E02DBA01C7010995009709F442C0B0
:103BE00020E1F601DC0101900D922A95E1F79E8B10
:103BF0008D8B188F0D891E898F8921E0280F2F8BBF
:103C0000E4E08E9FC0011124080F191F90E1B92E26
:103C1000203111F48FE0B82EF6E0BF9EB0011124E0
:103C2000D701ED91FC910190F081E02DC70109953C
:103C3000F80193838283892B09F4B12CD801BC92BB
:103C400011961C92012B71F0C6010E94D10EE62F35
:103C5000F72F182F8DCF0480F581E02DC70109952E
:103C6000009729F681E08A8360E070E08FEFDF91B2
:103C7000CF911F910F91FF90EF90DF90CF90BF9069
:103C800008954F925F926F927F928F929F92AF9220
:103C9000BF92CF92DF92EF92FF920F931F93CF9339
:103CA000DF9300D000D01F92CDB7DEB78C017B012F
:103CB000B42E0E94AF0E6C01892B09F048C0C801D8
:103CC0000E946B0E863609F4A9C124F5873229F0CB
:103CD0008B3561F1823209F0A8C1D80115961C928A
:103CE0001E92149712968D919C911397892B39F4FB
:103CF0008D919C910E942506F80193838283C801CF
:103D00000E9492116C01892B11F5B701C8010E9424
:103D100071121DC0843709F460C18B3709F47BC070
:103D20008E3609F082C168EC71E060C180E4D70191
:103D300014968C931497E114F10421F08FEF8C9377
:103D400011968C93B1101AC025E0C22ED12CC60159
:103D50000F900F900F900F900F90DF91CF911F91C8
:103D60000F91FF90EF90DF90CF90BF90AF909F901A
:103D70008F907F906F905F904F900895F80112861A
:103D8000C8010E94AF0E009751F56DE5C8010E9471
:103D90007B0E8111DCCFBA94D8011B966D907C907C
:103DA000C3010E94A41DA82E4B01672B21F494E0AF
:103DB000C92ED12CCCCFF70161816F3F91F0C301A7
:103DC00045960E943F0EDC011596AC92F701A18248
:103DD0004B2DB401C8010E94411E009739F06C01BF
:103DE000B6CFD7018C9311968C93F2CFC8010E9465
:103DF000AF0E0097A1F76DE5C8010E947B0E8111FF
:103E0000A6CF6CE2C8010E947B0E8111C5CF83E072
:103E1000C82ED12C9CCF80E2F7018483E114F104F9
:103E200019F08FEF80838183BB2009F48DCFD801F7
:103E30001A961C92C8010E94AF0E009781F66DE79A
:103E4000C8010E947B0E811182CFBA94F8011582BD
:103E5000148282819381892B49F4808191810E940F
:103E60002506D80113969C938E931297C8010E9441
:103E70006B0E8732F9F08232E9F0C8010E946B0EB6
:103E8000D82E0E94590E882311F2F80112866D2D4A
:103E9000C8010E946411C8010E946B0ED82E0E94B6
:103EA000590E8111F2CFD80112968D919C91892BD8
:103EB00041F47DCFC8010E9492116C01892B09F059
:103EC00046CFC8010E94AF0E6C01892B09F03FCF8D
:103ED0006AE3C8010E947B0E882309F498CFD801B9
:103EE0001296ED91FC91139714968D919C911597D4
:103EF000E80FF91F148214966D917C9115977F77C6
:103F00001B966D907C901C9712968D919C910496B7
:103F1000272F2F77BA2DB078AB2EA22AE894A7F8D6
:103F20009301AC017A2DC7010E94B4196C0100976E
:103F300061F5C3010E94A41D482E4B01672B09F4B3
:103F400036CFC3010E94A41D582E962FC92ED72EFE
:103F5000C114D10409F42BCFF4015582D701119675
:103F60006C916F3F71F0C30145960E943F0EFC01BA
:103F70004582D70111965C92B401C8010E9471126A
:103F800007C0F70140825182F7CFB3010E940E13A0
:103F90004B2DB601C8010E94411E6C01892B09F00E
:103FA000D6CEC8010E94AF0E6C01892B09F0CFCE8E
:103FB0006DE7C8010E947B0E8111C9CE6CE2C80179
:103FC0000E947B0E882309F422CFC8010E94AF0E05
:103FD0006C01892B09F43ACFBACE86E0D70114964A
:103FE0008C93149781E08C936DEB71E0C8010F9076
:103FF0000F900F900F900F90DF91CF911F910F9125
:10400000FF90EF90DF90CF90BF90AF909F908F90F8
:104010007F906F905F904F900C948C0E86E0F7012C
:104020008483108262EC71E0E1CFC8010E946B0EC4
:104030004801FDE08F0E911CB12C782CA92C803307
:1040400084F08A3384F43FE3B316A9F0D8011A96BA
:104050001C92B394F40181934F01C8010E946B0E2E
:10406000EECF8B3281F393ED980F923060F3982F5F
:104070009F7D953441F30B0D111DD8011D961C92A7
:10408000872D9A2D0E94BD0F3A834B835C836D83ED
:104090008A819B81AC81BD812230A9F0233059F007
:1040A000213009F0B4CE2EE0F70124838083918380
:1040B000A283B3834CCE2AE0F701248380839183CB
:1040C000A283B38344CE2CE0F7CF4F925F926F92DE
:1040D0007F928F929F92AF92BF92CF92DF92EF9298
:1040E000FF920F931F93CF93DF93CDB7DEB7CF5FD0
:1040F000D1090FB6F894DEBF0FBECDBF6E012EEC16
:10410000C20ED11C85E091E0F6019183808312827A
:1041100014821382C6010596968B858B178A84E0DC
:10412000808F8FEF818F168E878F9E012F5F3F4F7D
:10413000790110E000E00E945608609378027093C5
:10414000790280937A0290937B0280E792E00E944A
:10415000500B97FD02C00C94012F0E9456088090CE
:10416000780290907902A0907A02B0907B02681950
:1041700079098A099B098090740290907502A09039
:104180007602B0907702681579058A059B05E8F2FA
:104190000F37110561F480E792E00E94720B892BC2
:1041A00031F080E792E00E94500B0A97A1F7E1E01E
:1041B000F0E0EC0FFD1FE00FF11F1082053011053C
:1041C00078F045E050E06DEC71E0CE0101960E9480
:1041D000DD3D892B29F481ED97E00E94181456C625
:1041E000F60160817181C60105960E94FD0EF601FF
:1041F000128200811181F60183819481009751F030
:10420000FC0120813181F60134832383B8010E94AF
:104210000413F1CF168ECF57DF4FD982C882C15811
:10422000D040CD57DF4F19821882C358D040CB57AA
:10423000DF4F19821882C558D040C957DF4F188206
:10424000C758D04021E030E02C0F3D1FC857DF4F4A
:1042500039832883C858D040C557DF4F1882CB58C0
:10426000D040C457DF4FD982C882CC58D0404AE0F2
:10427000B601665E7F4FCE018F579F4F0E94411E51
:104280008C01892B69F4C657DF4F8881CA58D0400A
:10429000882331F0F601868D83FF02C003E010E031
:1042A000CD57DF4F88819981C358D040009751F096
:1042B000CF57DF4FE881F981C158D04060817181CB
:1042C0000E94041301151105F1F08AE595E00E94A2
:1042D000010CF801EE0FFF1FE052FC4F8591949105
:1042E0000E94010C87E595E00E94181480E792E097
:1042F0000E94720B181619060CF0C8C580E792E0F0
:104300000E94500BF3CFCF57DF4FD982C882C158DC
:10431000D04083ED91E0CD57DF4F99838883C35818
:10432000D04083E0CB57DF4F8883C558D040CA5771
:10433000DF4F1881C658D04010781068CA57DF4F39
:104340001883C658D040CE018F579F4F0E94391A0C
:10435000009709F49BC5FC018481882309F496C564
:104360001068CA57DF4F1883C658D040CE018F5708
:104370009F4F0E94BD1B8C01893DF1E09F0709F40E
:1043800084C00CF031C1883731E0930709F411C7BC
:104390000CF080C08733914009F406C6083381E0F1
:1043A0001807ECF50D3291E0190709F41CC544F526
:1043B00060E00C32F1E01F0709F416C50C3AF2E098
:1043C0001F0709F4DAC70CF08EC3093C110511F47C
:1043D0000C94B62A0CF0DBC20636110511F40C94CD
:1043E0008F2D0CF04DC20436110511F40C94022DE2
:1043F0000536110511F40C94532B8CEE93E0EDCEA1
:104400000F3221E0120709F4ABC560E0063331E05A
:104410001307A1F68091150190911601E9C40337A5
:1044200041E0140709F4E7C434F5093381E01807C3
:1044300029F600911501109116010E945608F80105
:10444000618B728B838B948B85849684A784B088D0
:10445000DC01CB01880D991DAA1DBB1D858B968B98
:10446000A78BB08F81E080A349E853E06FE873E049
:1044700084E993E096C5043791E0190709F421C552
:104480000537E1E01E0709F099CF083D114009F416
:104490007DC0FCC48139F1E09F0709F4A5C5CCF5C6
:1044A0008E3731E0930709F481C51CF58D379140B3
:1044B00009F084CFEE24EA94FE2C00E010E021E025
:1044C00030E040E050E067ED71E0C6010E94601B03
:1044D0009B01AC01E0911501F09116012187328713
:1044E0004387548767EA73E081EB93E00E941918D1
:1044F000CDC4023881E0180709F470C660E00039C5
:1045000091E0190709F05ACF809117019091180195
:104510006FC48B39E1E09E0709F48AC57CF48339C6
:1045200021E0920709F462C560E08A39914009F000
:1045300045CF8091190190911A015AC48D3941E0FB
:10454000940709F497C5883D914009F037CF10ECE6
:10455000E12E17E2F12E09E010E021E030E040E02A
:1045600050E061EE71E0C6010E94601B9B01AC014E
:10457000E0911701F0911801218732874387548712
:104580006BE773E084E893E00E941918CF57DF4F80
:10459000D982C882C158D04081EE91E0CD57DF4F1B
:1045A00099838883C358D04088E0CB57DF4F8883F6
:1045B000C558D040CA57DF4F8881C658D040807850
:1045C0008068CA57DF4F8883C658D040CE018F57C6
:1045D0009F4F0E94DC1A60932C0170932D018093F1
:1045E0002E0190932F01B9C40F3982E0180709F406
:1045F00077C50CF088C0053FE1E01E0709F45CC5F3
:1046000074F5023E21E0120709F414C5C4F40C3D10
:1046100041E0140709F0D2CE15E3E12EF12C00E0C1
:1046200010E022E030E040E050E06AEE71E0C601C8
:104630000E94601B8091170190911801CCC5063E25
:1046400051E0150709F4DDC560E0043F81E018077B
:1046500009F0B4CE80911B0190911C01C9C30835AB
:1046600092E0190709F433C5C4F40034F2E01F07DF
:1046700009F0A4CE15E3E12EF12C00E010E022E0D9
:1046800030E040E050E06AEE71E0C6010E94601B3D
:1046900080911B0190911C019EC5093522E01207F3
:1046A00009F40CC50B3532E0130709F087CE0091F1
:1046B0001D0110911E010115110509F4E7C30E94A7
:1046C0005608AB01BC01F801458B568B678B708F88
:1046D00085859685A785B089840F951FA61FB71F6E
:1046E000818F928FA38FB48FFF24F394F6A2C80119
:1046F0000E94FA0CF801F0A64AE353E060E473E08C
:1047000085E493E04EC4043843E0140709F44FC530
:104710000CF075C0043A82E0180709F485C50CF066
:1047200054C0003AE2E01E0709F048CE10ECE12E3A
:1047300017E2F12E09E010E021E030E040E050E027
:1047400061EE71E0C6010E94601B9B01AC01E0912B
:104750001D01F0911E01309751F02587368747875C
:10476000508B6BE173E084E293E00E941918CF57FD
:10477000DF4FD982C882C158D04081EE91E0CD5739
:10478000DF4F99838883C358D04088E0CB57DF4FF1
:104790008883C558D040CA57DF4F8881C658D0405B
:1047A00080788068CA57DF4F8883C658D040CE01D2
:1047B0008F579F4F0E94DC1A609328017093290144
:1047C00080932A0190932B01C8C3093AF2E01F0796
:1047D00009F4D3C40A3A22E0120709F0EFCDE091C0
:1047E0001D01F0911E01309709F450C381E085A3AB
:1047F0004EEE52E06AEF72E08FEF92E0D2C3003DDE
:1048000033E0130709F42AC5BCF4053853E0150753
:1048100009F4C5C4073883E0180709F0CFCD8091AB
:104820001F01909120010E94E80C48ED52E06EEDCE
:1048300072E083EE92E0B5C3043394E0190709F403
:1048400043C50036E5E01E0709F0B8CD809111019F
:1048500090911201892B09F419C315E3E12EF12C73
:1048600000E010E022E030E040E050E06AEE71E06D
:10487000C6010E94601B80911101909112013DC5FB
:104880000836110511F40C94B92D14F40C949B2DD9
:104890000936110509F0B1CDC251DF4F1882CE5E45
:1048A000D040CF57DF4FD982C882C158D04088E16D
:1048B00092E0CD57DF4F99838883C358D04086E07C
:1048C000CB57DF4F8883C558D040CA57DF4F888108
:1048D000C658D04080788068CA57DF4F8883C65852
:1048E000D040BE0162517F4FCE018F579F4F0E9433
:1048F000521A182F0E9456084B015C018091ED045A
:10490000882311F40C94D72E1093EF04112311F483
:104910000C94562E8092F0049092F104A092F2042E
:10492000B092F3040E943707E0911703F091180347
:10493000309719F084810E948208E0911903F09168
:104940001A03309719F084810E948208809106052D
:104950008823B9F080911405811113C083E095E09C
:104960000E94E80C8092150590921605A0921705FA
:10497000B092180581E080931405F8941092050513
:104980007894412F6FE274E08EE394E096C504388A
:1049900031E0130709F455C00CF045C00D3D110579
:1049A00009F437C60A3751E0150709F44AC00C3D2F
:1049B000110509F022CDCF57DF4FD982C882C158E7
:1049C000D04082E092E0CD57DF4F99838883C3586F
:1049D000D04088E0CB57DF4F8883C558D040CA57B6
:1049E000DF4F8881C658D04080788068CA57DF4F33
:1049F0008883C658D040CE018F579F4F0E94DC1A43
:104A00004B015C0180925E0290925F02A092600274
:104A1000B09261020E94420FA50194016CE974E01A
:104A20008BEA94E063CD083E81E0180751F0013A2B
:104A300092E0190709F464C40E3DE1E01E0709F095
:104A4000DCCCC251DF4F19821882CE5ED040CF57E6
:104A5000DF4FD982C882C158D0408FE192E0CD5754
:104A6000DF4F99838883C358D04086E0CB57DF4F10
:104A70008883C558D040CA57DF4F8881C658D04078
:104A800080788068CA57DF4F8883C658D040BE01FF
:104A900062517F4FCE018F579F4F0E945E1C5C0179
:104AA000F12C8130910531F0FF24F394029711F03D
:104AB00029E0F22E0A3751E0150711F00C94DC2E94
:104AC000F09202010E94420FE1E0FE120C94ED2EE2
:104AD000F092DC059501BB0C440B550B67E174E0CB
:104AE00084E294E003CD0D34F4E01F0711F40C943C
:104AF000F52E6CF5033334E0130709F47EC484F417
:104B0000093E53E0150709F43CC4023384E018075A
:104B100009F43BC4083E134009F06FCC60E032C496
:104B20000933E4E01E0709F4BAC40C34F4E01F07AB
:104B300011F40C94F92E0833144009F05ECC109255
:104B4000020640E06FE075E08AE195E0B6C40E35FC
:104B500035E0130709F4BAC40CF0E5C0043155E0A0
:104B6000150709F4B1C4053185E0180709F4A8C494
:104B70000839144009F041CC8BE090E0C650DF4F7B
:104B800099838883CA5FD040CF57DF4FD982C882CC
:104B9000C158D0408AEE91E0CD57DF4F998388838A
:104BA000C358D04083E0CB57DF4F8883C558D040EF
:104BB000CA57DF4F8881C658D04080788068CA576E
:104BC000DF4F8883C658D040BE0166507F4FCE016C
:104BD0008F579F4F0E945E1C089714F40C94FB2E75
:104BE0008BE0A82EB12CC450DF4FB982A882CC5FD5
:104BF000D040C251DF4FD982C882CE5ED0409AEEFB
:104C0000E92E91E0F92EC051DF4FF982E882C05FB2
:104C1000D04013E0CE50DF4F1883C25FD040CD505C
:104C2000DF4F8881C35FD04080788068CD50DF4FF0
:104C30008883C35FD040BE0164507F4FCE01825154
:104C40009F4F0E945E1C0E9714F00C94FE2EC250D3
:104C5000DF4FB982A882CE5FD040CC50DF4FD982DF
:104C6000C882C45FD040CA50DF4FF982E882C65F75
:104C7000D040C850DF4F1883C85FD040C750DF4FC7
:104C80008881C95FD04080788068C750DF4F8883B3
:104C9000C95FD040BE0162507F4FCE018C509F4F04
:104CA0000E945E1C40916B009091F704985021E0A7
:104CB00030E001C0220F9A95EAF720952423209333
:104CC0006B0090916B00911105C0909168009E7FE0
:104CD000909368008093F70462E00E94C00780917F
:104CE000F7040E94690721E0019709F020E0209372
:104CF00002058091680081608093680080916B005C
:104D00009091F704985021E030E001C0220F9A956D
:104D1000EAF7822B80936B008CE191E00E94010CFA
:104D20008091F704C9C20436E5E01E0709F416C4F1
:104D30000536F5E01F0709F402C40F35154009F0E8
:104D40005CCBCF57DF4FD982C882C158D0405CEFCF
:104D5000E52E51E0F52ECD57DF4FF982E882C3589A
:104D6000D04015E0CB57DF4F1883C558D040CA5705
:104D7000DF4F8881C658D04080788068CA57DF4F9F
:104D80008883C658D040CE018F579F4F0E94631A28
:104D90000E941F07CF57DF4FD982C882C158D04029
:104DA000CD57DF4FF982E882C358D040CB57DF4F51
:104DB0001883C558D040CA57DF4F8881C658D040A5
:104DC00080788068CA57DF4F8883C658D040CE01AC
:104DD0008F579F4F0E94DC1A9B01AC016FEE74E06D
:104DE00085EF94E083CB61E08091130190911401F1
:104DF0000E94EF184BC0EE24EA94FE2C00E010E075
:104E000021E030E040E050E067ED71E0C6010E9433
:104E1000601B9B01AC01E0911301F091140121870B
:104E200032874387548762ED73E08CED93E00E94F4
:104E30001918CF57DF4FD982C882C158D04087EDAB
:104E400091E0CD57DF4F99838883C358D04089E0E4
:104E5000CB57DF4F8883C558D040CA57DF4F888172
:104E6000C658D04080788068CA57DF4F8883C658BC
:104E7000D040CE018F579F4F0E94DC1A60933001C3
:104E8000709331018093320190933301C6010E94E7
:104E90007613C150DF4F0FB6F894DEBF0FBECDBF03
:104EA000DF91CF911F910F91FF90EF90DF90CF9006
:104EB000BF90AF909F908F907F906F905F904F903A
:104EC000089510ECE12E17E2F12E09E010E021E048
:104ED00030E040E050E061EE71E0C6010E94601BEE
:104EE0009B01AC01E0911301F091140125873687F5
:104EF0004787508B65EC73E08EEC93E00E941918A5
:104F0000CF57DF4FD982C882C158D04081EE91E09F
:104F1000CD57DF4F99838883C358D04088E0CB5763
:104F2000DF4F8883C558D040CA57DF4F8881C658A5
:104F3000D04080788068CA57DF4F8883C658D040F9
:104F4000CE018F579F4F0E94DC1A609334017093FB
:104F5000350180933601909337010E94420F96CF1E
:104F600000911301109114010E945608F801618B01
:104F7000728B838B948B85849684A784B088DC01A4
:104F8000CB01880D991DAA1DBB1D858B968BA78B08
:104F9000B08F81E080A346EB53E06CEB73E081ECD3
:104FA00093E00E946B1472CF61E034CA10ECE12EE2
:104FB00017E2F12E09E010E021E030E040E050E09F
:104FC00061EE71E0C6010E94601B9B01AC01E091A3
:104FD0001501F0911601258736874787508B69E9BF
:104FE00073E082EA93E082CA61E08ECA0091170101
:104FF000109118010E945608F80165877687878707
:10500000908B81849284A384B484DC01CB01880DCD
:10501000991DAA1DBB1D818B928BA38BB48B81E044
:10502000858B4BE653E061E773E086E793E0B9CF09
:1050300061E07FCA10ECE12E17E2F12E09E010E0EA
:1050400021E030E040E050E061EE71E0C6010E94F6
:10505000601B9B01AC01E0911901F0911A012187BD
:105060003287438754876CE573E085E693E00E94BE
:10507000191873CF0091190110911A010E94560856
:10508000F801658776878787908B81849284A384D3
:10509000B484DC01CB01880D991DAA1DBB1D818B39
:1050A000928BA38BB48B81E0858B4BE453E061E55D
:1050B00073E086E593E075CF61E0CCCA80911D0175
:1050C00090911E0161E0009709F092CEDFCE8091B1
:1050D0001D0190911E0160E0009709F089CED6CEA7
:1050E000EE24EA94FE2C00E010E021E030E040E005
:1050F00050E067ED71E0C6010E94601B9B01AC01AE
:10510000E0911D01F0911E01309779F021153105D4
:105110004105510521F021873287438754876AE290
:1051200073E084E393E00E941918CF57DF4FD982D0
:10513000C882C158D04087ED91E0CD57DF4F9983A9
:105140008883C358D04089E0CB57DF4F8883C55848
:10515000D040CA57DF4F8881C658D04080788068D9
:10516000CA57DF4F8883C658D040CE018F579F4F14
:105170000E94631A8093270189CEE0911D01F0916E
:105180001E01309749F015A245E053E060E173E05D
:1051900085E193E00E946B1410924C02DECE61E038
:1051A00080911F01909120010E9446146FCE60E013
:1051B000F7CF15E3E12EF12C00E010E022E030E023
:1051C00040E050E06AEE71E0C6010E94601B8091F1
:1051D0001301909114010E945A1958CE15E3E12E43
:1051E000F12C00E010E022E030E040E050E06AEE18
:1051F00071E0C6010E94601B80911501909116011B
:10520000EACF15E3E12EF12C00E010E022E030E0DF
:1052100040E050E06AEE71E0C6010E94601B8091A0
:10522000190190911A01D7CF80911D0190911E0113
:10523000892B09F42BCE15E3E12EF12C00E010E0D0
:1052400022E030E040E050E06AEE71E0C6010E94EA
:10525000601B80911D0190911E01BDCF15E3E12ED1
:10526000F12C00E010E022E030E040E050E06AEE97
:1052700071E0C6010E94601BF62E00911F01109183
:105280002001F8018485882331F060E080810E944C
:105290009207F8011486F801F08261E08F2D0E94D8
:1052A000C00760E0F80180810E94920784E992E0E3
:1052B0000E94010CF8018081082E000C990B0E94BD
:1052C000E8130E949314E2CD80910F019091100198
:1052D000892B09F4DBCD15E3E12EF12C00E010E081
:1052E00022E030E040E050E06AEE71E0C6010E944A
:1052F000601B80910F01909110010E949019C6CD02
:10530000CF57DF4FD982C882C158D0408EEE91E08E
:10531000CD57DF4F99838883C358D04085E0CB5762
:10532000DF4F8883C558D040CA57DF4F8881C658A1
:10533000D04080788068CA57DF4F8883C658D040F5
:10534000CE018F579F4F0E94DC1A61362AEE7207FA
:105350008105910520F060E67AEE80E090E06093B0
:105360002A0570932B0580932C0590932D05809131
:105370004C02882309F48ACDF0CD81E080934C0261
:10538000ECCD61E082EF95E033CDCF57DF4FD9828E
:10539000C882C158D04084EF91E0CD57DF4F998348
:1053A0008883C358D04087E0CB57DF4F8883C558E8
:1053B000D040CA57DF4F8881C658D0408078806877
:1053C000CA57DF4F8883C658D040CE018F579F4FB2
:1053D0000E94DC1A4B015C0180920B0190920C013F
:1053E000A0920D01B0920E010E94F206A501940157
:1053F00066E475E08EE495E079C8CF57DF4FD98237
:10540000C882C158D0406CEFE62E61E0F62ECD5731
:10541000DF4FF982E882C358D04015E0CB57DF4F09
:105420001883C558D040CA57DF4F8881C658D0402E
:1054300080788068CA57DF4F8883C658D040CE0135
:105440008F579F4F0E94631A0E941F07CF57DF4F4D
:10545000D982C882C158D040CD57DF4FF982E88247
:10546000C358D040CB57DF4F1883C558D040CA57D8
:10547000DF4F8881C658D04080788068CA57DF4F98
:105480008883C658D040CE018F579F4F0E94DC1AA8
:105490009B01AC0167E375E08DE395E027C881E0EF
:1054A0008093020682EF95E09093040180930301BC
:1054B00041E063E275E08EE295E00E94F017E6CCF1
:1054C00061E08CEC95E094CC60E0FBCFCF57DF4FF0
:1054D000D982C882C158D04084EF91E0CD57DF4FC8
:1054E00099838883C358D04087E0CB57DF4F8883A8
:1054F000C558D040CA57DF4F8881C658D040807801
:105500008068CA57DF4F8883C658D040CE018F5776
:105510009F4F0E94DC1A4B015C0180920B0190921C
:105520000C01A0920D01B0920E010E94F206A5019D
:1055300094016EEF74E086E095E00C94762281E0B1
:105540008093DC058CEC95E090930401809303013B
:1055500041E06BED74E086EE94E0AFCF1092DC0595
:1055600040E067EC74E082ED94E0A7CFCF57DF4FC7
:10557000D982C882C158D0404CEFE42E41E0F42ECD
:10558000CD57DF4FF982E882C358D04015E0CB57A2
:10559000DF4F1883C558D040CA57DF4F8881C6589F
:1055A000D04080788068CA57DF4F8883C658D04083
:1055B000CE018F579F4F0E94631A0E941F07CF573B
:1055C000DF4FD982C882C158D040CD57DF4FF98212
:1055D000E882C358D040CB57DF4F1883C558D0401E
:1055E000CA57DF4F8881C658D04080788068CA5734
:1055F000DF4F8883C658D040CE018F579F4F0E94FF
:10560000DC1A9B01AC0166EB74E08CEB94E00C942B
:105610007622C251DF4F1882CE5ED040CF57DF4F87
:10562000D982C882C158D0408BE092E0CD57DF4F7D
:1056300099838883C358D04085E0CB57DF4F888358
:10564000C558D040CA57DF4F8881C658D0408078AF
:105650008068CA57DF4F8883C658D040BE01625168
:105660007F4FCE018F579F4F0E94521A182F84E709
:1056700095E0112311F08EE595E090930901809358
:10568000080185E0111186E080930A010E94420F13
:105690004AE754E0112311F04FE754E065E874E065
:1056A00081E994E07ECC0E9456084B015C01809217
:1056B000480290924902A0924A02B0924B0283E0C3
:1056C00095E00E94E80C1092EE041092EF04809294
:1056D000E5049092E604A092E704B092E80481E029
:1056E0008093ED0483E293E00E948E0C81E493E0CA
:1056F0000E948E0C3DE4E32E33E0F32E01E113E033
:10570000F8018489882341F08289813009F04BC1F6
:10571000858E968EA78EB0A2025E1F4FE016F10610
:1057200079F7E4EFF3E084EF94E0108270968E173F
:105730009F07D9F7E0911103F0911203309721F000
:10574000118A128A138A148AE0911303F0911403C8
:10575000309721F0118A128A138A148AE0911F036C
:10576000F09120033097A9F0158A168A178A108EB7
:10577000118E128E138E148E158E168E178E10A209
:1057800011A212A213A214A216A217A210A681E0BF
:1057900081A780E592E00E94181487E092E00E94C1
:1057A000010C60910B0170910C0180910D019091A1
:1057B0000E010E94E51385EF91E00E94010C80919B
:1057C000030190910401825F954009F418C18BE9AF
:1057D00091E00E94010C81EE91E00E94010C609129
:1057E0005E0270915F0280916002909161020E945E
:1057F000E5130E949314E0903401F090350100917C
:1058000036011091370120913001309131014091E2
:105810003201509133016091B1058DED91E00E940C
:10582000AB17E0909705F0909805009199051091BD
:105830009A052091930530919405409195055091DA
:1058400096056091900588ED91E00E94AB1720913C
:105850002C0130912D0140912E0150912F0160912A
:105860007A0583ED91E00E947C17209167053091C5
:1058700068054091690550916A05609164058DEC59
:1058800091E00E947C17E0902801F090290100919E
:105890002A0110912B012091270130E050E040E0D7
:1058A00060911F0587EC91E00E94AB17609149055C
:1058B00082EC91E00E945F176091060587EB91E012
:1058C0000E945F176091F90483EB91E00E945F17DB
:1058D000409102066091F8058AEA91E00E94331730
:1058E0004091DC056091D20581EA91E00E94331776
:1058F0008091480290914902A0914A02B0914B02D6
:10590000E0910F01F091100180839183A283B38312
:10591000E0911101F091120180839183A283B383FE
:10592000E0911301F091140180839183A283B383EA
:10593000E0911501F091160180839183A283B383D6
:10594000E0911701F091180180839183A283B383C2
:10595000E0911901F0911A0180839183A283B383AE
:10596000E0911B01F0911C0180839183A283B3839A
:10597000E0911D01F0911E01309721F08083918309
:10598000A283B383E0911F01F0912001808791876A
:10599000A287B3878093FE049093FF04A093000531
:1059A000B093010573CA823009F0B6CE41A452A467
:1059B00063A474A460E070E0CB0114141504160411
:1059C000170434F40E94C538A30192010E94413AA1
:1059D000680D791D8A1D9B1DF80161A372A383A325
:1059E00094A381A592A5A3A5B4A5880D991DAA1D70
:1059F000BB1D85A396A3A7A3B0A715A68DCE8EE940
:105A000091E0E7CE80916602811140CA0E9456085B
:105A10004B015C018092620290926302A092640248
:105A2000B0926502809106058823B9F08091140533
:105A3000811113C083E095E00E94E80C8092150567
:105A400090921605A0921705B092180581E08093F8
:105A50001405F89410920505789480906202909055
:105A60006302A0906402B09065021092ED0410925F
:105A7000EF04E4EFF3E084EF94E0108270968E1769
:105A80009F07D9F7E0911703F0911803309719F0A9
:105A900084810E948208E0911903F0911A033097E3
:105AA00019F084810E948208E0911B03F0911C038D
:105AB000309721F060E084810E949207E0911D03FD
:105AC000F0911E03309721F060E084810E949207DC
:105AD000E0911F03F0912003309729F011A660E0B8
