:100000000C94E9050C94F92D0C94D22D0C94D42E5B
:100010000C9411060C9411060C9411060C94202ECD
:100020000C9411060C9411060C9411060C941106F4
:100030000C9411060C9411060C9411060C941106E4
:100040000C94882D0C9411060C94A22E0C947C2EEA
:100050000C9411060C9411060C9411060C941106C4
:100060000C9411060C941106546F6F446565700072
:100070004E6F4D656D6F727900496E76616C696483
:10008000496E70757400496E636F6D706C65746550
:10009000496E70757400456D707479496E70757431
:1000A000004F6B00CDCCCC3D0AD7233C17B7D138DD
:1000B00077CC2B329595E6241FB14F0A00002041E2
:1000C0000000C84200401C4620BCBE4CCA1B0E5A51
:1000D000AEC59D74227D007B226C6576656C223AEC
:1000E00022303031222C22646576696365223A22FF
:1000F000434F4E54524F4C4C4552222C2264657350
:1001000063223A225052207468726573686F6C647F
:100110002063617070656420617420007B226C65CF
:1001200076656C223A22303030222C226465766962
:100130006365223A22534C4D222C22706172616D0C
:10014000223A2274696D657374616D705F70696EB7
:10015000222C2276616C7565223A007B226C6576D2
:10016000656C223A22303037222C2264657669632E
:1001700065223A22434F4E54524F4C4C4552222C4A
:10018000226576656E74223A22454E44222C2274F2
:10019000696D657374616D70223A004C4800524875
:1001A000004C455645525F4C48004C455645525F01
:1001B000524800534C4D004D4943524F53434F500A
:1001C00045004C49434B004C415345520050554D5E
:1001D00050320050554D500043554532004355456F
:1001E00000222C2274726163655F696E7465727699
:1001F000616C223A002C226163746976655F6C65DC
:10020000766572223A22007B226C6576656C223A12
:1002100022303030222C22646576696365223A22CE
:10022000434F4E54524F4C4C4552222C2270617217
:10023000616469676D223A2246495845445F5241DC
:1002400054494F222C2274696D656F7574223A00EF
:100250007B226C6576656C223A22303037222C2264
:10026000646576696365223A22434F4E54524F4C7F
:100270004C4552222C226576656E74223A225354E4
:10028000415254222C2274696D657374616D702221
:100290003A307D007B226C6576656C223A223030E4
:1002A00030222C22646576696365223A224D4943E7
:1002B000524F53434F5045222C22706172616D2280
:1002C0003A22747269676765725F70696E222C22C8
:1002D00076616C7565223A00464952454400746562
:1002E0007374004D4943524F53434F504500494E9C
:1002F000444550454E44454E54006D6F6465004C76
:100300004153455200434F4E54494E47454E5400C9
:100310006D6F6465004C41534552006475726174A1
:10032000696F6E004C415345520066726571756588
:100330006E6379004C415345520046495245440092
:1003400074657374004C415345520046495245440C
:1003500000746573740050554D50320064757261BD
:1003600074696F6E0050554D5032004649524544F5
:1003700000746573740050554D500064757261745B
:10038000696F6E0050554D50004649524544007407
:100390006573740043554532006475726174696F0A
:1003A0006E0043554532006672657175656E6379FE
:1003B0000043554532004649524544007465737404
:1003C00000435545006475726174696F6E00435552
:1003D00045006672657175656E6379004355450029
:1003E000A100960086007900700068007B226C6591
:1003F00076656C223A22303036222C226465736393
:10040000223A22436F6D6D616E64206E6F742066B8
:100410006F756E64227D0073657373696F6E5F70B4
:10042000617573656400434F4E54524F4C4C4552B6
:1004300000746573745F6D6F646500434F4E545272
:100440004F4C4C4552004649524544007465737404
:100450005F636861696E00434F4E54524F4C4C4588
:10046000520050554D500050554D5032006163744C
:100470006976655F70756D7000434F4E54524F4CF6
:100480004C45520074726163655F696E7465727683
:10049000616C00434F4E54524F4C4C4552007261B8
:1004A00074696F00434F4E54524F4C4C455200728A
:1004B00065696E666F72636564004C455645525FB0
:1004C0004C48007265696E666F72636564004C45E6
:1004D0005645525F4C4800726174696F004C455636
:1004E00045525F4C480074696D656F7574004C45EA
:1004F0005645525F4C48007265696E666F7263655F
:1005000064004C455645525F5248007265696E66FC
:100510006F72636564004C455645525F52480072E5
:100520006174696F004C455645525F5248007469CA
:100530006D656F7574004C455645525F52480022F8
:100540007D007B226C6576656C223A223030362243
:100550002C2264657363223A220044495341524D70
:1005600045440041524D454400227D002C226465E3
:100570007363223A2200222C2270696E223A007B99
:10058000226C6576656C223A22303031222C22644E
:100590006576696365223A2200222C2270617261BD
:1005A0006D223A2270696E222C2276616C7565226A
:1005B0003A007B226C6576656C223A22303030221C
:1005C0002C22646576696365223A2200222C227609
:1005D000616C7565223A00222C22706172616D2275
:1005E0003A22007B226C6576656C223A22303030EC
:1005F000222C22646576696365223A220066616C6A
:100600007365007472756500222C2276616C7565C5
:10061000223A00222C22706172616D223A22007B04
:10062000226C6576656C223A22303030222C2264AE
:100630006576696365223A2200227D00222C2276AB
:10064000616C7565223A2200222C22706172616D04
:10065000223A22007B226C6576656C223A22303089
:1006600030222C22646576696365223A220044496F
:100670005341524D45440041524D454400227D00B6
:100680002C2264657363223A22007B226C657665B6
:100690006C223A22303031222C22646576696365FF
:1006A000223A224D4943524F53434F5045222C2268
:1006B00070696E223A0066616C73650074727565CC
:1006C000002C226475726174696F6E223A002C22CC
:1006D0006672657175656E6379223A00222C22611B
:1006E000726D6564223A007B226C6576656C223AF5
:1006F00022303030222C22646576696365223A22EA
:100700000066616C73650074727565002C226475F7
:10071000726174696F6E223A00222C2261726D65DB
:1007200064223A007B226C6576656C223A22303076
:1007300030222C22646576696365223A2200666164
:100740006C7365007472756500222C2261726D6590
:1007500064223A007B226C6576656C223A22303046
:1007600030222C22646576696365223A2200666134
:100770006C736500747275650066616C73650074F6
:10078000727565002C227265696E666F72636564AE
:10079000223A00222C2261726D6564223A007B228B
:1007A0006C6576656C223A22303030222C226465EA
:1007B00076696365223A2200027B226C6576656C5D
:1007C000223A22303030222C226465766963652219
:1007D0003A22434F4E54524F4C4C4552222C2273D6
:1007E0006B65746368223A2266722E696E6F222CE2
:1007F0002276657273696F6E223A2276322E302E1F
:1008000030222C22626175645F72617465223A3114
:1008100031353230302C227363686564756C652223
:100820003A2246495845445F524154494F227D007F
:100830002C22656E645F74696D657374616D7022DE
:100840003A002C226576656E74223A224C49434B5D
:10085000222C2273746172745F74696D65737461A4
:100860006D70223A00222C2270696E223A007B229F
:100870006C6576656C223A22303037222C22646512
:1008800076696365223A22002C22656E645F746982
:100890006D657374616D70223A002C226576656E09
:1008A00074223A225354494D222C2273746172747B
:1008B0005F74696D657374616D70223A007B226CA0
:1008C0006576656C223A22303037222C22646576B8
:1008D000696365223A224C41534552222C227069A9
:1008E0006E223A002C226576656E74223A225449B3
:1008F0004D455354414D50222C2274696D657374DB
:10090000616D70223A007B226C6576656C223A221A
:10091000303038222C22646576696365223A224D94
:100920004943524F53434F5045222C2270696E2247
:100930003A002C226576656E74223A2254494D4560
:100940005354414D50222C2274696D657374616D4E
:1009500070223A007B226C6576656C223A22303038
:1009600039222C22646576696365223A22534C4D04
:10097000222C2270696E223A000000000024002719
:10098000002A0000000000250028002B00000000C5
:1009900000230026002900040404040404040402C3
:1009A000020202020203030303030301020408100C
:1009B00020408001020408102001020408102000D9
:1009C000000008000201000003040700000000000E
:1009D00000000044495341524D45440041524D45A9
:1009E0004400227D002C2264657363223A22007B3E
:1009F000226C6576656C223A22303031222C2264DA
:100A00006576696365223A22534C4D222C22706927
:100A10006E223A0054494D454F555400494E4143CA
:100A2000544956450041435449564500227D002C07
:100A3000226F7269656E746174696F6E223A22006A
:100A40002C22656E645F74696D657374616D7022CC
:100A50003A00222C2273746172745F74696D65733D
:100A600074616D70223A002C226576656E74223AAC
:100A7000225052455353222C22636C617373223AE5
:100A800022007B226C6576656C223A223030372258
:100A90002C22646576696365223A22535749544390
:100AA000485F4C45564552222C2270696E223A000E
:100AB0002C227363686564756C65645F6174223AA7
:100AC000002C22746172676574223A007B226C6587
:100AD00076656C223A22303036222C226572726F93
:100AE000725F636F6465223A22455F50454E444908
:100AF0004E475F46554C4C222C2264657363223A64
:100B00002250656E64696E6720616374696F6E2040
:100B100071756575652066756C6C20E28094206146
:100B20006374696F6E2064726F70706564222C222A
:100B3000616374696F6E5F74797065223A00535413
:100B4000494D00494E465553494F4E00494E465572
:100B500053494F4E00544F4E4500544F4E45004CA4
:100B6000415345520050554D505F320050554D5045
:100B7000004355455F3200435545002C22656E64A5
:100B80005F74696D657374616D70223A00222C2266
:100B900073746172745F74696D657374616D7022D2
:100BA0003A002C226576656E74223A2200222C22AD
:100BB00070696E223A007B226C6576656C223A225F
:100BC000303037222C22646576696365223A220030
:100BD000822F11241FBECFEFD8E0DEBFCDBF12E0C1
:100BE000A0E0B1E0EEEBF8E702C005900D92A8336B
:100BF000B107D9F725E0A8E3B2E001C01D92AA3EF3
:100C0000B207E1F715E0C9EED5E004C02197FE0177
:100C10000E94503AC83ED107C9F70E94CF320C94C7
:100C20005D3C0C940000CF93DF93EC0188819981A7
:100C3000DC01ED91FC910190F081E02D64E270E027
:100C40000995009741F02FE1FC01238321E02283E5
:100C5000DF91CF91089521E02A83FACFCF92DF92DE
:100C6000EF92FF920F931F937E2DE0E0F3E0128A44
:100C7000138A51E0548B658B668B178A108E69E05E
:100C800066A764E667A712AA64E060938A031092DD
:100C90004E0363E060934F03109250031092510390
:100CA0001092520310925303C0908605D09087058E
:100CB000E0908805F0908905C0925403D0925503C6
:100CC000E0925603F0925703109258037093590321
:100CD0000C0D1D1D2E1D3F1D00935A0310935B0329
:100CE00020935C0330935D03FC0181859285A3858D
:100CF000B48580935E0390935F03A0936003B093E9
:100D000061031092620387E080936303009364039E
:100D10001093650320936603309367038091F80472
:100D20009091F904A091FA04B091FB0480936803B8
:100D300090936903A0936A03B0936B0350936C0381
:100D400040936D0310926E0310926F031092700324
:100D5000109271038091BC049091BD04A091BE04D7
:100D6000B091BF048093720390937303A0937403B4
:100D7000B09375031F910F91FF90EF90DF90CF908C
:100D800008956093BC047093BD048093BE04909357
:100D9000BF0430918A03EEE4F3E020E023130DC09A
:100DA0003091C703EBE8F3E020E02317B1F0408176
:100DB000413071F02F5F3A96F8CF4081413019F001
:100DC0002F5F3A96EBCF6683778380879187F8CF42
:100DD0006683778380879187EDCF08959091120382
:100DE000992339F09091300321E030E0992319F0F4
:100DF000089530E020E09EE1929FF001939FF00D76
:100E00001124E050FD4F858B178AF2CFE6EDF3E019
:100E100010823F9684E0E63CF807D1F708958330CE
:100E200081F028F4813099F08230A9F0089587305C
:100E3000A9F08830C9F08430B1F4809180008F7DB2
:100E400003C0809180008F7780938000089584B5DF
:100E50008F7784BD089584B58F7DFBCF8091B000DE
:100E60008F778093B00008958091B0008F7DF9CF87
:100E7000CF93DF93282F30E0F901E154F64F8491AE
:100E8000F901E555F64FD491F901E956F64FC491B1
:100E9000CC23A1F081110E940F07EC2FF0E0EE0FA0
:100EA000FF1FE357F64FA591B491EC91ED2381E03C
:100EB00090E009F480E0DF91CF91089580E090E028
:100EC000FACF1F93CF93DF93282F30E0F901E1543D
:100ED000F64F8491F901E555F64FD491F901E956A1
:100EE000F64FC491CC23A9F0162F81110E940F0751
:100EF000EC2FF0E0EE0FFF1FED57F64FA591B491E8
:100F00008FB7F894EC91111108C0D095DE23DC93D3
:100F10008FBFDF91CF911F910895DE2BF8CFCF9334
:100F2000DF9390E0FC01E555F64F24918956964FEA
:100F3000FC0184918823C9F090E0880F991FFC017F
:100F4000E758F64FA591B491FC01ED57F64FC591C6
:100F5000D49161110DC09FB7F8948C912095822394
:100F60008C938881282328839FBFDF91CF91089598
:100F7000623051F49FB7F8943C91822F809583237F
:100F80008C93E8812E2BEFCF8FB7F894EC912E2B1A
:100F90002C938FBFEACF3FB7F89480915B0290917A
:100FA0005C02A0915D02B0915E0226B5A89B05C0CF
:100FB0002F3F19F00196A11DB11D3FBFBA2FA92FD8
:100FC000982F8827BC01CD01620F711D811D911DD5
:100FD00042E0660F771F881F991F4A95D1F7089541
:100FE0008F929F92AF92BF92CF92DF92EF92FF9239
:100FF0000E94CB074B015C0184E6C82ED12CE12C6A
:10100000F12C0E94CB07681979098A099B09683E6F
:10101000734081059105A8F321E0C21AD108E108C7
:10102000F10888EE880E83E0981EA11CB11CC11443
:10103000D104E104F10429F7FF90EF90DF90CF9005
:10104000BF90AF909F908F9008952FB7F8946091C4
:101050005702709158028091590290915A022FBF05
:1010600008950F931F93CF93DF93C091FE02D09109
:10107000FF02209781F081E08A830E94250808857D
:1010800019852A853B85601B710B820B930B6C8342
:101090007D838E839F83DF91CF911F910F91089560
:1010A00008959091040189130BC0E8EBF7E0E491F7
:1010B0009FEF90930401E13049F028F0E23061F0B5
:1010C00060E00C94610710926E00FACF90916F006F
:1010D0009D7F90936F00F4CF909170009D7F9093CF
:1010E000700091E09093B0009091B100987F94606F
:1010F0009093B1001092B300E3CF4F925F926F9242
:101100007F928F929F92AF92BF92CF92DF92EF9297
:10111000FF920F931F93CF93DF9300D000D01F92C5
:10112000CDB7DEB78B0129013A01909104018917EF
:10113000C9F09F3F09F47EC00F900F900F900F9061
:101140000F90DF91CF911F910F91FF90EF90DF9063
:10115000CF90BF90AF909F908F907F906F905F9057
:101160004F900895E8EBF7E094919D8397FDE4CFCD
:1011700061E00E948F078D81882321F09D8192304C
:1011800009F04AC14801B12CA12C60E072E18AE764
:1011900090E0A50198010E949C3829833A834B83F3
:1011A0005C8369017A0181E0C81AD108E108F1087D
:1011B0009FEFC916D104E104F10409F00CF401C158
:1011C00060E472E48FE090E0A50198010E949C38F1
:1011D00069017A0181E0C81AD108E108F1089D810E
:1011E000923009F0A2C08FEFC816D104E104F104D7
:1011F00009F00CF4E6C160E970ED83E090E0A50130
:1012000098010E949C3869017A0191E0C91AD108BD
:10121000E108F1088FEFC816D104E104F10411F0E0
:101220000CF07FC183E09091B100987F892B80936F
:10123000B100CFC080930401E8EBF7E094919D8367
:101240009F3F09F479CF913041F150F0923009F489
:1012500046C09D8197FD70CF61E00E948F078ECFC1
:1012600014BC15BC94B5926094BD95B5916095BDC4
:10127000282F30E0F901E956F64FE491F0E0EE0F47
:10128000FF1FED57F64F45915491F901E555F64F83
:10129000E491E0933D021D826BCF1092800010928A
:1012A00081009091810098609093810090918100DD
:1012B000916090938100282F30E0F901E956F64FB4
:1012C000E491F0E0EE0FFF1FED57F64F459154917A
:1012D000F901E555F64FE491E0933C0249CF1092B5
:1012E000B0001092B1009091B00092609093B00065
:1012F0009091B10091609093B100282F30E0F901F6
:10130000E956F64FE491F0E0EE0FFF1FED57F64F70
:10131000459154915093470240934602F901E55597
:10132000F64FE491E093480223CF9FEFC916D10412
:10133000E104F10409F00CF46DC068E478EE81E09A
:1013400090E0A50198010E949C3869017A0181E032
:10135000C81AD108E108F1089D81992309F4FAC05F
:101360008FEFC816D104E104F10411F00CF0FBC0BA
:10137000EFC064E274EF80E090E0A50194010E9468
:101380009C3869017A0181E0C81AD108E108F108A6
:1013900085E09FEFC916D104E104F10409F008F4D7
:1013A00042CF62E17AE780E090E0A50194010E94DB
:1013B0009C3869017A0181E0C81AD108E108F10876
:1013C000E5C081E09D8191112ECF95B5987F892B45
:1013D00085BD2FEF3FEFA901411451046104710451
:1013E00009F043C09D81913009F45EC0923009F448
:1013F0006DC09111A1CEC7BC20934202309343022D
:10140000409344025093450280916E008260809325
:101410006E0092CE82E0D6CFB12CA12C60E072E1BA
:101420008AE790E0A50198010E949C3869017A0141
:1014300081E0C81AD108E108F108C114D10491E093
:10144000E906F10404F591E08D81813011F6809177
:101450008100887F892B809381002FEF3FEFA901C6
:101460004114510461047104F9F0D801AA0FBB1FA3
:10147000A30192010E94BB3828EE33E040E050E027
:101480000E940539AFCF68E478EE81E090E0A501D5
:1014900098010E949C3869017A0181E0C81AD1083C
:1014A000E108F10893E0D0CFD0928900C092880083
:1014B00020933E0230933F024093400250934102FA
:1014C00080916F00826080936F0036CEC092B3002F
:1014D0002093490230934A0240934B0250934C02AE
:1014E0008091700082608093700026CE84E09FEF30
:1014F000C916D104E104F10409F008F466CFC980EB
:10150000DA80EB80FC808AE0F594E794D794C79466
:101510008A95D1F781E0C81AD108E108F10885E081
:1015200054CF68E478EE81E090E0A50198010E9434
:101530009C3869017A0181E0C81AD108E108F108F4
:101540009FEFC916D104E104F10411F00CF011CFA2
:1015500084E069CE83E09FEFC916D104E104F10471
:1015600009F00CF432CF62E17AE780E090E0A50167
:1015700094010E949C3869017A0181E0C81AD1085F
:10158000E108F1089D81992309F4B0CF86E09FEF2F
:10159000C916D104E104F10409F008F444CEC9806D
:1015A000DA80EB80FC809AE0F594E794D794C794B6
:1015B0009A95D1F781E0C81AD108E108F10887E0CF
:1015C00032CE82E030CEAF92BF92CF92DF92EF92D6
:1015D000FF920F931F93CF93DF936C017B018B01DD
:1015E000040F151FEB015E01AE18BF08C017D1072D
:1015F00059F06991D601ED91FC910190F081E02DB7
:10160000C6010995892B79F7C501DF91CF911F910B
:101610000F91FF90EF90DF90CF90BF90AF90089523
:10162000FC01538D448D252F30E0842F90E0821BE8
:10163000930B541710F0CF96089501970895FC016D
:10164000918D828D981761F0A28DAE0FBF2FB11DC5
:101650005D968C91928D9F5F9F73928F90E008951D
:101660008FEF9FEF0895FC01918D828D981731F0D7
:10167000828DE80FF11D858D90E008958FEF9FEF2B
:101680000895FC01918D228D892F90E0805C9F4F01
:10169000821B91098F73992708958FE592E00E942C
:1016A000410B21E0892B09F420E0822F089580E08E
:1016B00090E0892B29F00E944D0B81110C940000C1
:1016C0000895FC01A48DA80FB92FB11DA35ABF4FD7
:1016D0002C91848D90E001968F739927848FA68931
:1016E000B7892C93A089B1898C91837080648C9385
:1016F000938D848D981306C00288F389E02D808134
:101700008F7D80830895EF92FF920F931F93CF9365
:10171000DF93EC0181E0888F9B8D8C8D98131AC02C
:10172000E889F989808185FF15C09FB7F894EE8913
:10173000FF896083E889F989808183708064808370
:101740009FBF81E090E0DF91CF911F910F91FF90BB
:10175000EF900895F62E0B8D10E00F5F1F4F0F7363
:101760001127E02E8C8D8E110CC00FB607FCFACF1E
:10177000E889F989808185FFF5CFCE010E94610B50
:10178000F1CFEB8DEC0FFD2FF11DE35AFF4FF082EF
:101790009FB7F8940B8FEA89FB8980818062CFCF55
:1017A0000F931F93CF93DF938C01D0E0C0E0F8013B
:1017B000EC0FFD1F6491662341F08FE592E00E94DB
:1017C000830B892B11F02196F2CFCE01DF91CF91BF
:1017D0001F910F910895CF93DF93EC01888D88239B
:1017E000B9F0AA89BB89E889F9898C9185FD03C084
:1017F000808186FD0DC00FB607FCF7CF8C9185FF69
:10180000F2CF808185FFEDCFCE010E94610BE9CF41
:10181000DF91CF910895CF92DF92EF92FF921F93C5
:10182000CF93DF93EC016A017B018C810E94380722
:1018300011E0892B09F410E08B85181721F0CD8A6F
:10184000DE8AEF8AF88E8D899E89AF89B88DB701BF
:10185000A601481B590B6A0B7B0B898D90E0B0E009
:10186000A0E084179507A607B70798F48C8518178A
:1018700081F01C878A851817A9F0CA8EDB8EEC8E42
:10188000FD8EEAA1FBA1309721F0B701A601898561
:1018900009951B87DF91CF911F91FF90EF90DF900B
:1018A000CF900895CE8EDF8EE8A2F9A2ECA1FDA123
:1018B000309779F389850995ECCFFC011582138661
:1018C0001486158616861786108A118A128A138A3C
:1018D000148A158A168A138E8681882311F08481D2
:1018E00083830895CF92DF92EF92FF920F931F931D
:1018F000CF93DF93EC018E81811103C08D89882302
:1019000069F18C810D851E852F8538896A017B01DF
:10191000C01AD10AE20AF30A9701860137FD18C0FE
:1019200009891A892B893C89401B510B620B730B67
:1019300014161506160617065CF061E0DF91CF91CC
:101940001F910F91FF90EF90DF90CF900C94610763
:1019500060E00E9461078D8981111D8ADF91CF911E
:101960001F910F91FF90EF90DF90CF900895CF934C
:10197000DF93EC0161E088810E94610781E08C8740
:101980000E9425086D877E878F87988BDF91CF9186
:101990000895CF92DF92EF92FF92CF93DF93EC0105
:1019A0006A017B0169857A858B859C850E947D37DC
:1019B0009B01AC0160E070E080E89FE30E94A339E6
:1019C00020E030E040E05FE30E94DE3720E030E0DE
:1019D0004AE754E40E94DE37C98EDA8EEB8EFC8E25
:1019E00020E030E040E05FE30E9437390E941C3A7B
:1019F000C60ED71EE81EF91ECD8EDE8EEF8EF8A223
:101A00008BA191E089278BA3DF91CF91FF90EF907D
:101A1000DF90CF900895CF92DF92EF92FF92CF9315
:101A2000DF93EC016A017B0189899A89AB89BC89C2
:101A3000AB019601281B390B4A0B5B0BDA01C9017C
:101A4000B7FD49C08D899E89AF89B88DAB019601DC
:101A5000281B390B4A0B5B0BDA01C9011816190652
:101A60001A061B06C4F18AA18823A9F189859A85E3
:101A7000AB85BC850197A105B10551F461E08C816E
:101A8000DF91CF91FF90EF90DF90CF900C946107A2
:101A90008D8D9E8DAF8DB8A1AB019601281B390BA2
:101AA0004A0B5B0BDA01C901B7FD04C0A601CE01E8
:101AB0000E94C90C8C819BA1992311F061E0E0CFB9
:101AC00060E00E9461071BA2DF91CF91FF90EF9031
:101AD000DF90CF90089560E08C810E9461071BA287
:101AE0008D899E89AF89B88DC81AD90AEA0AFB0A7E
:101AF0008AA1882331F01C141D041E041F040CF459
:101B00001AA28CA1882301F31C141D041E041F04B7
:101B1000DCF61CA2D9CF8F929F92AF92BF92CF9248
:101B2000DF92EF92FF920F931F93CF93DF93EC011D
:101B30008E81811104C088A1882309F445C07B01EE
:101B400089899A89AB89BC894A015B01881A990AFB
:101B5000AA0ABB0AC501B40197FD53C00D891E89AD
:101B60002F89388D4A015701801A910AA20AB30AB7
:101B70009501840110161106120613060CF441C0DB
:101B80002A8D2223A9F10C8D1D8D2E8D3F8D200FC6
:101B9000311F2115310511F421E030E0FB8C50E0BC
:101BA00040E00E94053960177107D8F4F1100AC0AF
:101BB00069857A8520E030E0A9018C810E947D084A
:101BC00081E08B8F81E0898FDF91CF911F910F9101
:101BD000FF90EF90DF90CF90BF90AF909F908F904D
:101BE0000895FF2079F38C810E9451081B8EEACF63
:101BF00069857A8520E030E0A9018C810E947D080A
:101C0000E1CF898D882301F38C810E945108198EC0
:101C10001B8E88A18823C1F218A2D6CF6F3FA9F0EE
:101C2000E62FE295EF7044E0E49F90011124DC017F
:101C3000ED91FC91E20FF31F6F7082819381B6E00A
:101C40006B9F800D911D1124089590E080E0089510
:101C5000982F80336CF08A3324F08F3524F08B3743
:101C600024F481E0089581341CF081E09B350CF070
:101C700080E00895FC01828581110AC0A781B085AA
:101C8000CD010196908787838C91818781E082873F
:101C9000818508951F93CF93DF93EC01162F0E9447
:101CA0003A0E811306C01A8681E0DF91CF911F9111
:101CB000089580E0FACF0F931F93CF93DF938C01A9
:101CC000EB018991882369F0C8010E943A0E8823AC
:101CD00079F0FE013197908198130DC0F8011286BA
:101CE000F0CF90E080E0DF91CF911F910F910895A8
:101CF00082E090E0F8CF83E090E0F5CFCF93DF93E0
:101D0000EC01CE010E943A0E8B304CF489305CF429
:101D1000882359F081E08E8390E080E00BC08D3005
:101D200011F08032B9F71A86ECCF8E81811105C08F
:101D300081E090E0DF91CF91089582E090E0FACFCA
:101D4000DC0152969C915297915084E0989F9001AB
:101D500011245096ED91FC91E20FF31F2281338103
:101D60002115310579F041818081481758F481E0CF
:101D7000840F818386E0489F200D311D1124211599
:101D8000310521F460E070E08FEF0895B901892FEB
:101D90008295807F840F0895DF92EF92FF920F93D8
:101DA0001F93CF93DF93EC017B01D12C6889798954
:101DB0008A89D816E0F484E0D89E80011124060FA9
:101DC000171FD80112966D917C916115710541F034
:101DD000D701ED91FC910280F381E02DC7010995B7
:101DE000F8011382128210821182D394DFCF1A8AF3
:101DF0008FEF8C8BC617D70761F0D701ED91FC915F
:101E00000280F381E02DC7010995D98BC88B84E04E
:101E10008B8BDF91CF911F910F91FF90EF90DF900F
:101E20000895EF920F931F9300914D0210914E026F
:101E300020914F023091500241E080910001909139
:101E40000101805C954009F440E0E0900701609159
:101E5000150380910501909106010E942E061F91A5
:101E60000F91EF9008954F925F926F927F928F92B1
:101E70009F92AF92BF92CF92DF92EF92FF920F9319
:101E80001F93CF93DF9300D000D01F92CDB7DEB762
:101E9000DC012C912B32E1F12D32D9F50196EE24A3
:101EA000E394FC01208130ED320F3A3010F02E32F5
:101EB00091F58C0160E070E0CB01F801219130EDEB
:101EC000832E820E39E0381508F444C06A3949E996
:101ED0007407840749E1940708F046C0AAE0B0E01F
:101EE0009B01AC010E94BB38912CB12CA12C240188
:101EF00035014094509460947094461657066806D5
:101F0000790690F1680D791D8A1D9B1D8F01D5CF33
:101F10000196E12CC6CF198229813A814B815C81DF
:101F20006D8170E080E090E00F900F900F900F9027
:101F30000F90DF91CF911F910F91FF90EF90DF9065
:101F4000CF90BF90AF909F908F907F906F905F9059
:101F50004F900895211108C0EE2051F161307105B4
:101F6000810550E89507A0F0F12CBAE08B2E912C5A
:101F7000A12CB12C6115710530E883079105F8F0AB
:101F8000A50194010E940539CA01B901F394F2CF69
:101F900022E029839B01AC0188279927DC01821B61
:101FA000930BA40BB50B8A839B83AC83BD83B4CF07
:101FB00023E029836A837B838C839D83ADCFF801E3
:101FC000D8012D918D0130ED320F3A3010F4F39499
:101FD000F6CF2E3201F58F010F5F1F4FF8010F5F13
:101FE0001F4F2081A0EDDA2ED20EB9E0BD1598F07A
:101FF0006C3CECEC7E07ECE08E07910578F7AAE0EC
:10200000B0E09B01AC010E94BB386D0D711D811DBC
:10201000911DFA94E3CF20812F7D10E000E025345C
:1020200009F050C021812D32B1F53296CC24C394F1
:10203000DF0110E000E02F2D0F2C000C330BEAE045
:10204000BE2EFD01DD9040ED4D0D4A30B0F5B09E45
:10205000A001B19E500D11240D2DDD0C110B00536C
:102060001109040F151FA801420F531F47325105D4
:1020700044F3CC20B9F080E090E0A0E0B0E8E110BB
:1020800003C080E090E0DC0121E029838A839B8308
:10209000AC83BD8341CF2B3219F03196C12CC8CF10
:1020A0003296FCCF80E090E0A0E8BFEFE110ECCFEB
:1020B00080E090E0A0E8BFE7E7CFCC2019F01195D1
:1020C000019511092081211126CF0F0D111DF7FC5B
:1020D0001A950E947D374CEBA42E40E0B42E1016CA
:1020E00011063CF011950195110954EAA52E50E016
:1020F000B52ED12CC12C01151105E9F0F6E0CF1653
:10210000D104A9F000FF0DC0F601EE0FFF1FEE0F86
:10211000FF1FEA0DFB1D25913591459154910E94B9
:10212000DE37159507952FEFC21AD20AE4CF60E08B
:1021300070E080EC9FE7E110905821E029836A83EA
:102140007B838C839D83E8CECF92DF92EF92FF92C8
:102150000F931F93CF93DF937C016B018A01FC01E6
:10216000C081D1814F3F510509F0B0F4E881F98178
:102170000480F581E02D4B5F5F4FCE0109950097FC
:1021800059F0FC010383DF91CF911F910F91FF90D4
:10219000EF90DF90CF900895E881F9810280F3817C
:1021A000E02DB601CE01099581E0F701828390E030
:1021B00080E0E9CF1F93CF93DF93EC01162F6A8164
:1021C0007B816115710589F04C815D81FB01838103
:1021D0008417150651F4440F551F4F5F5F4F8881D8
:1021E00099810E94A4109B838A838A819B81009796
:1021F00059F02C813D81A9014F5F5F4F5D834C8376
:10220000820F931FFC011483DF91CF911F910895DA
:102210009F92AF92BF92CF92DF92EF92FF920F9375
:102220001F93CF93DF9300D000D01F92CDB7DEB7BE
:102230008C010E943A0ED82EF8011286F12CE12C66
:1022400060EFC62EC8010E943A0EF8011286D81619
:1022500009F4B3C0811113C082E090E00F900F9099
:102260000F900F900F90DF91CF911F910F91FF90E2
:10227000EF90DF90CF90BF90AF909F9008958C35F6
:1022800009F099C0C8010E943A0E882329F3E7E9B2
:10229000F1E0853709F083C0F801128654E0952EED
:1022A000B12CA12CC8010E943A0E8823A9F28134D6
:1022B00034F48053803130F083E090E0CFCF8F7DD5
:1022C0008753F8CF44E0AA0CBB1C4A95E1F7A82A33
:1022D000F80112869A949110E5CFC501985D811599
:1022E000944020F47501F3E0FF22ACCFC5019C5D62
:1022F00081159440A8F483E0B822B701762F6627B1
:10230000770F770F6A297B2990E080E0019660388B
:1023100071058105910540F4C8010E94DA1092CF41
:10232000B50190E080E0F3CF1982262F2F7320684B
:102330002A8326E096958795779567952A95D1F714
:102340006032710580F4606C6B835E01E4E0AE0E78
:10235000B11CF50162915F01662309F473CFC801D6
:102360000E94DA10F6CF262F2F7320682B8386E089
:10237000769567958A95E1F76031710538F4606E5E
:102380006C835E01F5E0AF0EB11CE3CF60686C8337
:10239000CD825E0126E0A20EB11CDBCF3296908189
:1023A000992309F489CF8913F9CF8181882309F40E
:1023B00083CFF8011286682FAFCF82819381892B5A
:1023C00019F484E090E04ACF90E080E047CF6F922C
:1023D0007F928F929F92AF92BF92CF92DF92EF92B5
:1023E000FF920F931F93CF93DF93EC012A813B81E0
:1023F0002C5F3F4F4C815D814430510588F5890148
:10240000F90180E0942FB22FAE2FA21BA91730F450
:10241000F190A1E0F110A0E08A2BF6CF811120C04D
:1024200082E0EB018C83FB01802F8B1B891728F442
:10243000E80189918E018193F7CF640F751FFB012D
:102440001082DF91CF911F910F91FF90EF90DF905D
:10245000CF90BF90AF909F908F907F906F90089596
:102460008B01F901E40FF51F1082888199814C815D
:102470005D81DC011396ED91FC913A01E89477F8C7
:102480006901C60CD71C3097C1F0A381A6151704AB
:1024900081F449017F01B4E0EB0EF11C8C149D0422
:1024A00029F1D401AD904D01D701BD907D01AB1450
:1024B000A9F30190F081E02DE6CF6A817B810E9433
:1024C000A410FC01A881B98113968D919C91149759
:1024D000918380831496FC93EE9313971B821A8248
:1024E00085E0E8018C83F983E883ABCF82818F5F3D
:1024F0008283F6CFDB01ED91FC9111970280F3818D
:10250000E02DBC01CD010994AF92BF92CF92DF9232
:10251000EF92FF920F931F93CF93DF93EC018B0108
:102520008C8180FF24C0A881B981FB0183819481C3
:1025300030E020E00097D9F0A817B907D1F5F801ED
:102540006081718112968C911297815012968C93B2
:10255000129781110CC08D919C9111972115310515
:1025600029F1F90191838083CD010E947A128C8137
:10257000807631F1209721F1F8805801F5E1AF0E16
:10258000B11C8FEFF816D1F06F2DC5010E940E0E11
:102590006C01FC01E580B8010E948412F801818D74
:1025A000F6018083F801F18EFE2CEBCF94838383B8
:1025B000DBCF9C01FC0180819181BCCFF882F98244
:1025C0001C82DF91CF911F910F91FF90EF90DF90D0
:1025D000CF90BF90AF9008950F931F93CF93DF9349
:1025E000EC01088119818B819C81009749F0FC01E5
:1025F000208131813C832B83B8010E947A12F3CF72
:1026000068817981CE010596DF91CF911F910F915D
:102610000C94CC0EFC0101900020E9F73197AF013A
:10262000481B590BBC018FE592E00C94E30A8F9292
:102630009F92AF92BF920F931F93CF93DF93CDB72B
:10264000DEB7A1970FB6F894DEBF0FBECDBF19A2BB
:10265000423008F44AE08E010F5D1F4F842E912C0A
:10266000B12CA12CA50194010E940539E62FB901D6
:10267000CA01EA30F4F4E05DD801EE938D01232B1A
:10268000242B252B79F790E080E0109719F0CD01ED
:102690000E940A13A1960FB6F894DEBF0FBECDBFFD
:1026A000DF91CF911F910F91BF90AF909F908F902E
:1026B0000895E95CE1CF4AE00C941713CF92DF92C2
:1026C000EF92FF92CF93DF936C01990FEE08FF0812
:1026D000F7FE19C06DE28FE592E00E94830BEC01DA
:1026E00066277727CB016C197D098E099F094AE07F
:1026F0000E9417138C0F9D1FDF91CF91FF90EF90D9
:10270000DF90CF9008954AE0C701B601DF91CF91E5
:10271000FF90EF90DF90CF900C941713CF93DF933F
:102720000E94D00BEC018AEA91E00E940A138C0F00
:102730009D1FDF91CF910895CF93C82F8093CB0435
:102740008FEE99E00E94D00B8091C904082E000CF6
:10275000990B0E945E1385EE99E00E94D00B83EDE9
:1027600099E0CC2311F08CED99E00E94D00B82EE21
:1027700099E0CF910C948E130F931F93CF938C01FC
:10278000C62FFC0163838AE896E00E94D00BF80113
:102790008081082E000C990B0E945E1380E896E061
:1027A0000E94D00B8EE696E0CC2311F087E796E0EE
:1027B0000E94D00B8DE796E0CF911F910F910C9462
:1027C0008E13EF92FF920F931F93CF93DF937C01B1
:1027D0008B01EA0184E596E00E94D00BC7010E94BC
:1027E000D00B88E496E00E94D00BC8010E94D00B69
:1027F0008CE396E00E94D00BCE010E94D00B89E3BF
:1028000096E0DF91CF911F910F91FF90EF900C9484
:102810008E13CF93DF936DE78FE592E00E94830BD9
:10282000EC018AEA91E00E940A138C0F9D1FDF9150
:10283000CF9108954F925F926F927F928F929F9265
:10284000AF92BF92EF92FF920F931F93CF93DF93BC
:102850002A013B0148015901853009F480C008F084
:1028600061C0843009F46FC0E0910603F091070362
:102870001481CAE5DBE047E7E42E4BE0F42E86EB5B
:102880009BE00E94D00BC7010E94D00B8DEA9BE019
:102890000E94D00B812F110F990B0E945E1382EAC8
:1028A0009BE00E94D00BCE010E94D00B8DE89BE0F4
:1028B0000E94D00B8091B8049091B904A091BA0401
:1028C000B091BB04A3019201281B390B4A0B5B0B8F
:1028D000CA01B9010E945B138BE79BE00E94D00BF9
:1028E0008091B8049091B904A091BA04B091BB044E
:1028F000A5019401281B390B4A0B5B0BCA01B901D6
:102900000E945B13DF91CF911F910F91FF90EF9089
:10291000BF90AF909F908F907F906F905F904F90FF
:102920000C940914863039F1873009F09DCFE0917D
:102930000E03F0910F031481CEE3DBE08FE5E82E68
:102940008BE0F82E9CCFE0910803F09109031481ED
:10295000C5E5DBE031E7E32E3BE0F32E90CFE091DD
:102960000A03F0910B031481CCE4DBE02CE6E22EA9
:102970002BE0F22E84CFE0910C03F0910D03148133
:10298000C3E4DBE095E6E92E9BE0F92E78CFCF9209
:10299000DF92EF92FF920F931F93CF93DF93EC019F
:1029A0008881813009F4D1C06A017B01813090F0C7
:1029B0008230D1F482E193E00E945D0C80E393E0E9
:1029C000DF91CF911F910F91FF90EF90DF90CF900B
:1029D0000C945D0C8981853009F47DC070F48330DE
:1029E000F1F1843009F45AC0DF91CF911F910F911A
:1029F000FF90EF90DF90CF900895863009F488C063
:102A0000873091F7E0910E03F0910F03309761F357
:102A10008681882349F381A18111E6CF8E819F8130
:102A2000A885B985C18AD28AE38AF48A8C0D9D1D56
:102A3000AE1DBF1D858B968BA78BB08F81E082A3C7
:102A4000CF010E94C90C0E811F81288539850C0D8C
:102A50001D1D2E1D3F1DB701A60187E01CC0E09182
:102A60000603F0910703309709F4BECF86818823CF
:102A700009F4BACF0E811F8128853985C18AD28A8F
:102A8000E38AF48A0C0D1D1D2E1D3F1D058B168B30
:102A9000278B308F83E00E941A14A6CFE0910803A1
:102AA000F0910903309709F49FCF8681882309F4B8
:102AB0009BCF0E811F8128853985C18AD28AE38AFE
:102AC000F48A0C0D1D1D2E1D3F1D058B168B278BAB
:102AD000308F84E0E0CFE0910A03F0910B03309750
:102AE00009F482CF8681882309F47ECF0E811F816D
:102AF00028853985C586D686E786F08A0C0D1D1D8A
:102B00002E1D3F1D018B128B238B348B85E0C3CF91
:102B1000E0910C03F0910D03309709F465CF8681A5
:102B2000882309F461CF0E811F8128853985C586E8
:102B3000D686E786F08A0C0D1D1D2E1D3F1D018BCC
:102B4000128B238B348B86E0A6CF8981E091000322
:102B5000F0910103882339F0813009F045CFE091ED
:102B60000203F0910303309709F43ECFCE80DF805B
:102B7000E884F9844C0D5D1D6E1D7F1D418B528BC9
:102B8000638B748B31CF2F923F924F925F926F92F3
:102B90007F928F929F92AF92BF92CF92DF92EF92ED
:102BA000FF920F931F93CF93DF9300D000D0CDB748
:102BB000DEB72A013B010DE3809F90011124912C87
:102BC0008901C90186579C4F9A8389838AE0882EA0
:102BD00019019EE4290E311CE981FA818081981641
:102BE00008F092C0A92CB12CC801899C800D911DC0
:102BF000112480509D4FFC01E25BFF4F2081233068
:102C0000B9F0805B9F4FFC01C080D180E280F380EF
:102C1000C114D104E104F10469F4B301A201C101BA
:102C2000989C800D911D112480509D4F0E94C714C7
:102C30009394D2CFC40CD51CE61CF71CE6EDF3E050
:102C400030E020E08081811126C0FFE0F29FC001CA
:102C5000F39F900D1124DC01A853BC4F8A9CF00116
:102C60008B9CF00D1124E00FF11FE25BFC4F282D2F
:102C700001900D922A95E1F780509D4FFC01EE5294
:102C8000FF4FC082D182E282F3828A529F4F21E0BD
:102C9000FC012083CDCF2F5F3F4F3F962031310580
:102CA00089F68CEC9AE00E94D00B8A9CC0018B9C28
:102CB000900D1124800F911F80509D4F9C838B831A
:102CC000FC01E25BFF4F608170E090E080E04AE051
:102CD0000E94171381EC9AE00E94D00BEB81FC81DB
:102CE000E15BFF4F608170E090E080E04AE00E948D
:102CF000171380EB9AE00E94D00BC701B6010E9427
:102D00005B130E94091494CF0F900F900F900F90B7
:102D1000DF91CF911F910F91FF90EF90DF90CF90B7
:102D2000BF90AF909F908F907F906F905F904F90EB
:102D30003F902F9008950F931F93CF93DF938C01B3
:102D4000D62FC42F8EE997E00E94D00BC8010E94B5
:102D5000D00B83E997E00E94D00B89E797E0DD2351
:102D600011F08FE797E00E94D00B84E897E00E9473
:102D7000D00B8EE697E0CC2311F084E797E00E9419
:102D8000D00BDF91CF911F910F910C9409140F93E9
:102D90001F93CF938C01C62F84E597E00E94D00B40
:102DA000C8010E94D00B89E497E00E94D00B8EE30B
:102DB00097E0CC2311F084E497E00E94D00BCF91F0
:102DC0001F910F910C940914CF92DF92EF92FF9212
:102DD0000F931F93CF938C01C62F69017A0184E270
:102DE00097E00E94D00BC8010E94D00B89E197E0C8
:102DF0000E94D00B81E097E0CC2311F087E097E0B0
:102E00000E94D00B8CE097E00E94D00BC701B60166
:102E10000E945B13CF911F910F91FF90EF90DF9075
:102E2000CF900C9409147F928F929F92AF92BF9291
:102E3000CF92DF92EF92FF920F931F93CF93DF9386
:102E4000EC01762E49015A016701780187EE96E080
:102E50000E94D00BCE010E94D00B8CED96E00E9418
:102E6000D00B86EB96E0772011F08CEB96E00E9479
:102E7000D00B8EEC96E00E94D00BC501B4010E94ED
:102E80005B1381EC96E00E94D00BC701B6010E9453
:102E90005B13DF91CF911F910F91FF90EF90DF9027
:102EA000CF90BF90AF909F908F907F900C9409141B
:102EB000EF92FF920F931F93CF937C018B01C42F4E
:102EC0008FE196E00E94D00BC7010E94D00B83E1F6
:102ED00096E00E94D00BC8010E94D00B88E096E0DB
:102EE0000E94D00B8DEF95E0CC2311F083E096E0AB
:102EF0000E94D00BCF911F910F91FF90EF900C94F7
:102F00000914CF92DF92EF92FF920F931F93CF930A
:102F1000DF938C01EB0169017A0183EE95E00E9459
:102F2000D00BC8010E94D00B87ED95E00E94D00B1A
:102F3000CE010E94D00B8CEC95E00E94D00BC70113
:102F4000B6010E945B13DF91CF911F910F91FF900B
:102F5000EF90DF90CF900C940914009711F00C942F
:102F60000A1390E080E008950F931F93CF93DF93AF
:102F7000C0910003D0910103882321F0C091020386
:102F8000D0910303209709F45FC0613009F456C063
:102F900008F451C0623009F454C082E89AE00E94FB
:102FA000D00B6C8170E090E080E04AE00E94171343
:102FB00087E69AE00E94D00BC8010E94D00B82E500
:102FC0009AE00E94D00B6A8D7B8D8C8D9D8D009137
:102FD000B8041091B9042091BA043091BB04601B6D
:102FE000710B820B930B0E945B1380E49AE00E94AA
:102FF000D00B6E8D7F8D88A199A10091B80410919E
:10300000B9042091BA043091BB04601B710B820B90
:10301000930B0E945B138FE29AE00E94D00BCE01CB
:103020000D960E94AD178CE29AE0DF91CF911F912F
:103030000F910C948E1305E21AE0AFCF0CE11AE069
:10304000ACCF04E11AE0A9CFDF91CF911F910F918E
:1030500008959091C004911104C09091C1049923E6
:1030600071F09091C20491110AC06091C704882345
:1030700021F0813021F46091C8040C94B4170895B4
:10308000CF93DF93EC016E838FE795E00E94D00B26
:103090008F8198850E94AD1786E795E00E94D00B3E
:1030A0008C81082E000C990B0E945E138CE695E033
:1030B0000E94D00B8E8181110AC08AE595E00E94A2
:1030C000D00B89E695E0DF91CF910C948E1383E6C7
:1030D00095E0F5CF60E080910C0190910D010E9488
:1030E000401860E080910E0190910F010E944018FD
:1030F00060E080911001909111010E94401860E001
:1031000080911201909113010E94401860E080911B
:103110001401909115010E94401860E08091160101
:10312000909117010E94401860E0809118019091E1
:1031300019010E94401880911A0190911B0100977B
:1031400019F060E00E94401860E080911C019091AD
:103150001D010C94BC131F93CF93DF93EC01162F2A
:103160008E81882321F060E0CE010E9440188D817D
:10317000813021F460E08C810E9461071C836D81A5
:10318000812F0E948F078D81813021F460E08C8136
:103190000E94610782EB95E00E94D00B8F81988599
:1031A0000E94AD1789E995E00E94D00B8C81082E12
:1031B000000C990B0E945E13DF91CF911F910C942C
:1031C0000914CF93DF93EC010E94AB188C810E940D
:1031D000380721E0892B09F420E02A878C810E949E
:1031E000380721E0892B09F420E02B878C810E948D
:1031F000380721E0892B09F420E02C871D8A1E8ADC
:103200001F8A188EDF91CF9108959F92AF92BF923F
:10321000CF92DF92EF92FF920F931F93CF93DF93A2
:103220008A01452B09F468C0E9016B016596FC0130
:103230006081CE010E940E0EFC01BB24BA94892B42
:1032400009F0B5807601E894F7F8AA24A394670101
:10325000C00ED11E99249394309709F44DC0AA2032
:1032600009F43FC08481843069F0853049F18230AF
:1032700079F5DF010D900020E9F71197CD018E1B44
:103280009F0B07C00190F081E02D90E080E0309727
:1032900081F79F77E816F90621F5D801AC15BD0531
:1032A000E1F46B2DCE01DF91CF911F910F91FF9033
:1032B000EF90DF90CF90BF90AF909F900C940E0E48
:1032C000A081B181FD01349613968C9190E0E2CFFC
:1032D00090E080E0F0E0E0E0DDCF9D9181919817F3
:1032E000E9F2A9246B2DCE010E940E0EFC01892B60
:1032F00009F4B2CFB580B0CF90E080E0DF91CF91FC
:103300001F910F91FF90EF90DF90CF90BF90AF9003
:103310009F900895FC0120813181C9014A96428124
:10332000538164817581009759F0D9015E96EC91C3
:10333000E03211F090E080E0009711F00C94051954
:1033400090E080E00895CF93DF93EB010E948A190B
:10335000009741F0FC012481263021F48081DF9127
:10336000CF9108958881FBCFCF92DF92EF92FF92A9
:10337000CF93DF9300D000D01F92CDB7DEB70E946D
:103380008A19DC01009709F445C01496EC91149752
:10339000E250ED3008F03EC0F0E0EF52F64E0C94F3
:1033A000503AFA190A1AF8190C1ADE190A1A0A1AE6
:1033B0000A1AEC190A1AEC190A1A101ACC908C2D58
:1033C0000F900F900F900F900F90DF91CF91FF9083
:1033D000EF90DF90CF900895CD90DD90ED90FC9030
:1033E0008FEFC816D104E104F10449F340F312C091
:1033F0008D919C910E94330F3A834B835C836D8344
:10340000CA80DB80EC80FD80223051F3233041F311
:10341000213051F0C12CD3CF8D919C910496EACFED
:10342000CD90DD90ED90FC9020E030E0A901C70147
:10343000B6010E944B3A87FDEDCF20E030E04FE728
:1034400053E4C701B6010E94783718161CF3C70170
:10345000B6010E941C3AC62EB2CFCF92DF92EF92F5
:10346000FF92CF93DF9300D000D01F92CDB7DEB78D
:103470000E948A19DC01009709F44AC01496EC9165
:103480001497E250ED3008F043C0F0E0E65BF54EF3
:103490000C94503A781A881A761A8C1A571A881A85
:1034A000881A881A671A881A6C1A881A901A6C91E6
:1034B00070E090E080E00F900F900F900F900F90D1
:1034C000DF91CF91FF90EF90DF90CF9008956D91B5
:1034D0007D918D919C91EFCF8D919D910D90BC919F
:1034E000A02DB7FD15C0BC01CD01E5CF8D919C91FC
:1034F0000E94330F3A834B835C836D83CA80DB80E9
:10350000EC80FD80223041F1233041F1213061F027
:1035100060E070E0CB01CFCF8D919C910496E8CF15
:10352000CD90DD90ED90FC9020E030E0A901C70146
:10353000B6010E944B3A87FDEBCF2FEF3FEF4FE7ED
:103540005FE4C701B6010E94783718160CF3C70173
:10355000B6010E941C3AAFCFF7FCDACFC701B60123
:10356000AACF8F929F92AF92BF92CF92DF92EF92AB
:10357000FF920F931F93CF93DF9300D000D000D022
:10358000CDB7DEB749015A0167017801FB0101900F
:103590000020E9F73197E61BF70B9A8389837C8338
:1035A0006B83ED838F2F8F778E83CE0101960E94E0
:1035B0008A190097B9F0FC0124812A3041F02C309F
:1035C00089F480819181A281B381B7FD0BC0CE01C6
:1035D00001960E942D1A86169706A806B90610F4C1
:1035E0004B015C01C501B401C616D706E806F90611
:1035F00010F4C701B60126960FB6F894DEBF0FBED1
:10360000CDBFDF91CF911F910F91FF90EF90DF9091
:10361000CF90BF90AF909F908F900895CF92DF9200
:10362000EF92FF92CF93DF9300D000D01F92CDB7DF
:10363000DEB70E948A19DC01009709F446C014968F
:10364000EC911497E250ED3008F03FC0F0E0E55DFA
:10365000F44E0C94503A6A1B651B681B7B1B381B8D
:10366000651B651B651B471B651B541B651B7F1B6F
:103670006C9170E0CB010F900F900F900F900F9016
:10368000DF91CF91FF90EF90DF90CF9008958D91D3
:103690009D910D90BC91A02D811520E89207A10568
:1036A000B10598F4BC01E6CF8D919D910D90BC9130
:1036B000A02D6C017D0120E8D20EE11CF11CC1148B
:1036C000D10421E0E206F10468F370E060E0D2CFBB
:1036D0008D919C910E94330F3A834B835C836D8361
:1036E000CA80DB80EC80FD80223031F1233081F113
:1036F000213059F708C08D919C910496EBCFCD9065
:10370000DD90ED90FC9020E030E040E057ECC70108
:10371000B6010E944B3A87FDD8CF20E03EEF4FEF35
:1037200056E4C701B6010E947837181674F2C70133
:10373000B6010E94153A9ECFD701C6019058AF4FEF
:10374000BF4F0097A140B10508F0BFCFB60192CF9F
:10375000C11480E8D806E104F104C0F3B6CF0F939A
:103760001F93CF93DF93EC018B010E948A19FC0118
:10377000892B29F084818A3051F08C30C1F0F80116
:1037800080819181DF91CF911F910F910895808168
:103790009181A281B38181159048A105B10578F787
:1037A000CE01DF91CF911F910F910C940E1B808160
:1037B0009181A281B3819058AF4FBF4F0097A14034
:1037C000B105E8F6EDCF4F925F926F927F92AF9284
:1037D000BF92CF92DF92EF92FF920F931F93CF93FE
:1037E000DF939091C004911105C09091C104992379
:1037F00009F4E8C09091C2049111E4C0823008F04D
:10380000E1C081110AC0E0910003F09101033097FB
:1038100059F481E08093C704D5C0E0910203F09190
:103820000303309709F487C09089992309F480C075
:103830000189128923893489041715072607370758
:1038400008F482C0882309F4CCC082E08093C804C5
:10385000B9C08F898F5F8F8B9D89891708F4ADC0A0
:103860008FA5843658F40E942037A30192010E944C
:103870009C388FA5681710F01F8A9FC01F8A888DFB
:10388000882351F09D899501281B31099217130651
:1038900009F05CF4890F8D8B8B89823008F08DC024
:1038A000B701A6010E94C31588C087ED90E00E9471
:1038B000D00B6D8970E090E080E04AE00E94171321
:1038C00084ED90E00E948E13E7CFCD8EDE8EEF8EDA
:1038D000F8A273C08DA5811170C089A19AA1ABA176
:1038E000BCA1A7019601281B390B4A0B5B0BDA011F
:1038F000C901B7FD62C08DA19EA1AFA1B8A58C1969
:103900009D09AE09BF09181619061A061B060CF008
:1039100054C08FA5843610F00DA7BECF0E9420376B
:10392000A30192010E949C388FA56817A8F345C097
:10393000882309F46ECF81E089CF1092C704E0910B
:103940000003F091010308C08823B9F31092C80462
:10395000E0910203F0910303309781F00091BC04E1
:103960001091BD042091BE043091BF04040F151FB7
:10397000261F371F018B128B238B348B6A017B012F
:10398000182FC0E0D3E0AA24AA94B12C94E6492EC3
:10399000512C612C712C01E08C89882371F08EA54B
:1039A000893011F0181309C08A89813009F48DCF4C
:1039B00008F44FCF823009F48DCF6E9633E0CC33CC
:1039C000D30751F7DF91CF911F910F91FF90EF90A7
:1039D000DF90CF90BF90AF907F906F905F904F90AF
:1039E000089582E017CFBF92CF92DF92EF92FF92BD
:1039F0000F931F93CF93DF93EC01198D1F3F81F03D
:103A0000612F45960E940E0EFC018081898F3097B0
:103A100009F477C014828FEF8583BF01812F76C0B0
:103A20006C0135E0C30ED11CE880F9808F898823B2
:103A300041F0C6010E94A00EE62FF72F182F3097F5
:103A400049F71F89988D191324C0103109F459C002
:103A5000110F6D897E89D701ED91FC91B4E01B9F18
:103A6000A0011124C616D70609F044C00190F081C8
:103A7000E02DBA01C7010995009709F442C020E181
:103A8000F601DC0101900D922A95E1F79E8B8D8B5A
:103A9000188F0D891E898F8921E0280F2F8BE4E074
:103AA0008E9FC0011124080F191F90E1B92E2031FB
:103AB00011F48FE0B82EF6E0BF9EB0011124D701BB
:103AC000ED91FC910190F081E02DC7010995F8017D
:103AD00093838283892B09F4B12CD801BC9211966F
:103AE0001C92012B71F0C6010E94A00EE62FF72F49
:103AF000182F8DCF0480F581E02DC701099500971F
:103B000029F681E08A8360E070E08FEFDF91CF914A
:103B10001F910F91FF90EF90DF90CF90BF9008958D
:103B20004F925F926F927F928F929F92AF92BF92CD
:103B3000CF92DF92EF92FF920F931F93CF93DF9379
:103B400000D000D01F92CDB7DEB78C017B01B42E20
:103B50000E947E0E6C01892B09F048C0C8010E94AA
:103B60003A0E863609F4A9C124F5873229F08B353F
:103B700061F1823209F0A8C1D80115961C921E92FB
:103B8000149712968D919C911397892B39F48D91EE
:103B90009C910E941306F80193838283C8010E94BE
:103BA00008116C01892B11F5B701C8010E94E711BA
:103BB0001DC0843709F460C18B3709F47BC08E3691
:103BC00009F082C165EC71E060C180E4D701149610
:103BD0008C931497E114F10421F08FEF8C931196DC
:103BE0008C93B1101AC025E0C22ED12CC6010F90C3
:103BF0000F900F900F900F90DF91CF911F910F9129
:103C0000FF90EF90DF90CF90BF90AF909F908F90FC
:103C10007F906F905F904F900895F8011286C801D1
:103C20000E947E0E009751F56DE5C8010E944A0E74
:103C30008111DCCFBA94D8011B966D907C90C301A2
:103C40000E94F31CA82E4B01672B21F494E0C92E8F
:103C5000D12CCCCFF70161816F3F91F0C301459624
:103C60000E940E0EDC011596AC92F701A1824B2D3D
:103C7000B401C8010E94901D009739F06C01B6CFC5
:103C8000D7018C9311968C93F2CFC8010E947E0EBF
:103C90000097A1F76DE5C8010E944A0E8111A6CFD9
:103CA0006CE2C8010E944A0E8111C5CF83E0C82E84
:103CB000D12C9CCF80E2F7018483E114F10419F048
:103CC0008FEF80838183BB2009F48DCFD8011A96B2
:103CD0001C92C8010E947E0E009781F66DE7C80114
:103CE0000E944A0E811182CFBA94F8011582148283
:103CF00082819381892B49F4808191810E941306EE
:103D0000D80113969C938E931297C8010E943A0E85
:103D10008732F9F08232E9F0C8010E943A0ED82EBB
:103D20000E94280E882311F2F80112866D2DC80119
:103D30000E94DA10C8010E943A0ED82E0E94280E66
:103D40008111F2CFD80112968D919C91892B41F46B
:103D50007DCFC8010E9408116C01892B09F046CF64
:103D6000C8010E947E0E6C01892B09F03FCF6AE3E7
:103D7000C8010E944A0E882309F498CFD8011296F0
:103D8000ED91FC91139714968D919C911597E80FE6
:103D9000F91F148214966D917C9115977F771B966D
:103DA0006D907C901C9712968D919C910496272F74
:103DB0002F77BA2DB078AB2EA22AE894A7F89301FA
:103DC000AC017A2DC7010E9405196C01009761F5BD
:103DD000C3010E94F31C482E4B01672B09F436CF18
:103DE000C3010E94F31C582E962FC92ED72EC11442
:103DF000D10409F42BCFF4015582D70111966C91AF
:103E00006F3F71F0C30145960E940E0EFC01458282
:103E1000D70111965C92B401C8010E94E71107C056
:103E2000F70140825182F7CFB3010E9484124B2DDB
:103E3000B601C8010E94901D6C01892B09F0D6CEF5
:103E4000C8010E947E0E6C01892B09F0CFCE6DE770
:103E5000C8010E944A0E8111C9CE6CE2C8010E94BD
:103E60004A0E882309F422CFC8010E947E0E6C01FD
:103E7000892B09F43ACFBACE86E0D70114968C93F9
:103E8000149781E08C936AEB71E0C8010F900F905A
:103E90000F900F900F90DF91CF911F910F91FF9096
:103EA000EF90DF90CF90BF90AF909F908F907F90DA
:103EB0006F905F904F900C945B0E86E0F7018483C7
:103EC00010826FEB71E0E1CFC8010E943A0E480109
:103ED000FDE08F0E911CB12C782CA92C803384F03E
:103EE0008A3384F43FE3B316A9F0D8011A961C92E2
:103EF000B394F40181934F01C8010E943A0EEECFB2
:103F00008B3281F393ED980F923060F3982F9F7D61
:103F1000953441F30B0D111DD8011D961C92872D70
:103F20009A2D0E94330F3A834B835C836D838A8181
:103F30009B81AC81BD812230A9F0233059F0213022
:103F400009F0B4CE2EE0F701248380839183A2830D
:103F5000B3834CCE2AE0F701248380839183A2832C
:103F6000B38344CE2CE0F7CF4F925F926F927F9253
:103F70008F929F92AF92BF92CF92DF92EF92FF9279
:103F80000F931F93CF93DF93CDB7DEB7CF5FD109E8
:103F90000FB6F894DEBF0FBECDBF6E012EECC20E81
:103FA000D11C82E091E0F601918380831282148219
:103FB0001382C6010596968B858B178A84E0808FC5
:103FC0008FEF818F168E878F9E012F5F3F4F790174
:103FD00010E000E00E942508609367027093680279
:103FE0008093690290936A028FE592E00E941F0B12
:103FF00097FD02C00C946D2D0E94250880906702E9
:1040000090906802A0906902B0906A0268197909DC
:104010008A099B098090630290906402A0906502D7
:10402000B0906602681579058A059B05E8F20F379E
:10403000110561F48FE592E00E94410B892B31F06C
:104040008FE592E00E941F0B0A97A1F7E1E0F0E0F4
:10405000EC0FFD1FE00FF11F10820530110578F005
:1040600045E050E06AEC71E0CE0101960E94383CD8
:10407000892B29F489EB97E00E948E1302C5F60183
:1040800060817181C60105960E94CC0EF6011282F4
:1040900000811181F60183819481009751F0FC0128
:1040A00020813181F60134832383B8010E947A1282
:1040B000F1CF168ECF57DF4FD982C882C158D0407A
:1040C000CD57DF4F19821882C358D040CB57DF4FEE
:1040D00019821882C558D040C957DF4F1882C75877
:1040E000D04021E030E02C0F3D1FC857DF4F39830F
:1040F0002883C858D040C557DF4F1882CB58D040CE
:10410000C457DF4FD982C882CC58D0404AE0B601AC
:10411000665E7F4FCE018F579F4F0E94901D8C018E
:10412000892B69F4C657DF4F8881CA58D04088234D
:1041300031F0F601868D83FF02C003E010E0CD5719
:10414000DF4F88819981C358D040009751F0CF57F5
:10415000DF4FE881F981C158D040608171810E94B0
:104160007A1201151105F1F082E495E00E94D00B5E
:10417000F801EE0FFF1FE052FC4F859194910E94D1
:10418000D00B8FE395E00E948E138FE592E00E94A2
:10419000410B181619060CF074C48FE592E00E94CA
:1041A0001F0BF3CFCF57DF4FD982C882C158D04001
:1041B00080ED91E0CD57DF4F99838883C358D0407D
:1041C00083E0CB57DF4F8883C558D040CA57DF4FB5
:1041D0001881C658D04010781068CA57DF4F18832E
:1041E000C658D040CE018F579F4F0E948A19009722
:1041F00009F447C4FC018481882309F442C410688F
:10420000CA57DF4F1883C658D040CE018F579F4FF3
:104210000E940E1B893DF1E09F0709F481C00CF05C
:1042200031C1883731E0930709F4BBC50CF07DC07C
:10423000873351E0950709F4B2C4E4F58D32F1E01B
:104240009F0709F4CBC33CF560E08C3231E0930763
:1042500009F4C5C3823334E0930709F44BC60CF06C
:104260001EC38936910511F40C949F2B0CF0C4C227
:104270008636910511F40C943D2B0CF04FC2843618
:10428000910511F40C94B02A8536910509F4BAC74A
:104290008CEE93E0F1CE8F3241E0940709F45BC4D9
:1042A00060E0863351E09507A9F680911201909164
:1042B000130199C38337E1E09E0709F497C334F5EE
:1042C000893321E0920731F6009112011091130118
:1042D0000E942508F801618B728B838B948B8584F7
:1042E0009684A784B088DC01CB01880D991DAA1D96
:1042F000BB1D858B968BA78BB08F81E080A349E88F
:1043000053E06FE873E084E993E046C4843731E01A
:10431000930709F4D1C3853741E0940709F09ACF98
:10432000883D914009F480C0ACC3813951E09507C4
:1043300009F455C4D4F58E37F1E09F0709F431C470
:1043400024F58D3731E0930709F084CFEE24EA9409
:10435000FE2C00E010E021E030E040E050E064EDB1
:1043600071E0C6010E94B11A9B01AC01E0911201FB
:10437000F0911301218732874387548767EA73E0FE
:1043800081EB93E00E9481177CC3823841E094075F
:1043900009F41CC560E0803951E0950709F05ACF57
:1043A00080911401909115011EC38B39E1E09E07A5
:1043B00009F439C484F4833921E0920709F411C463
:1043C00060E08A3931E0930709F044CF809116010B
:1043D0009091170108C38D3941E0940709F445C451
:1043E000883D51E0950709F035CF10ECE12E17E23A
:1043F000F12E09E010E021E030E040E050E06EED09
:1044000071E0C6010E94B11A9B01AC01E091140158
:10441000F091150121873287438754876BE773E05A
:1044200084E893E00E948117CF57DF4FD982C8827A
:10443000C158D0408EED91E0CD57DF4F99838883EE
:10444000C358D04088E0CB57DF4F8883C558D04051
:10445000CA57DF4F8881C658D04080788068CA57D5
:10446000DF4F8883C658D040CE018F579F4F0E94A0
:104470002D1A6093290170932A0180932B01909348
:104480002C0166C38F39E2E09E0709F424C40CF0C6
:1044900088C0853F21E0920709F409C474F5823E83
:1044A00041E0940709F4C1C3C4F48C3DE1E09E07E8
:1044B00009F0D0CE15E3E12EF12C00E010E022E06F
:1044C00030E040E050E067EE71E0C6010E94B11AB2
:1044D000809114019091150176C4863EF1E09F070A
:1044E00009F487C460E0843F21E0920709F0B2CE6E
:1044F000809118019091190176C2883532E09307B6
:1045000009F4E0C3C4F4803452E0950709F0A2CE68
:1045100015E3E12EF12C00E010E022E030E040E075
:1045200050E067EE71E0C6010E94B11A8091180157
:104530009091190148C48935E2E09E0709F4B9C396
:104540008B35F2E09F0709F085CE00911A0110919A
:104550001B010115110509F494C20E942508AB0145
:10456000BC01F801418B528B638B748B85859685DA
:10457000A785B089840F951FA61FB71F858B968BC3
:10458000A78BB08FFF24F394F2A2C8010E94C90C3C
:10459000F801F4A24AE353E060E473E085E493E0B9
:1045A000FBC2843823E0920709F4F9C30CF075C00C
:1045B000843A42E0940709F42FC40CF054C0803AC6
:1045C000E2E09E0709F046CE10ECE12E17E2F12E54
:1045D00009E010E021E030E040E050E06EED71E0F5
:1045E000C6010E94B11A9B01AC01E0911A01F09141
:1045F0001B01309751F0258736874787508B6BE139
:1046000073E084E293E00E948117CF57DF4FD98295
:10461000C882C158D0408EED91E0CD57DF4F9983CD
:104620008883C358D04088E0CB57DF4F8883C55874
:10463000D040CA57DF4F8881C658D0408078806804
:10464000CA57DF4F8883C658D040CE018F579F4F3F
:104650000E942D1A609325017093260180932701F3
:104660009093280175C2893AF2E09F0709F480C34C
:104670008A3A22E0920709F0EDCDE0911A01F0911B
:104680001B01309709F4FDC181E081A34EEE52E099
:104690006AEF72E08FEF92E07FC2803D33E09307D4
:1046A00009F4D4C3BCF4853853E0950709F46FC30B
:1046B0008738E3E09E0709F0CDCD80911C019091F1
:1046C0001D010E94B70C48ED52E06EED72E083EEE2
:1046D00092E062C28433F4E09F0709F4EDC38036B0
:1046E00025E0920709F0B6CD80910E0190910F015F
:1046F000892B09F4C6C115E3E12EF12C00E010E08E
:1047000022E030E040E050E067EE71E0C6010E9438
:10471000B11A80910E0190910F01E7C38736910580
:1047200009F4B7C78836910509F0B2CDC251DF4F01
:104730001882CE5ED040CF57DF4FD982C882C15891
:10474000D04088E092E0CD57DF4F99838883C358EB
:10475000D04086E0CB57DF4F8883C558D040CA573A
:10476000DF4F8881C658D04080788068CA57DF4FB5
:104770008883C658D040BE0162517F4FCE018F570B
:104780009F4F0E94A319182F0E9425082091C00452
:104790002111D2C71093C104112309F498C7609363
:1047A000B8047093B9048093BA049093BB040E9438
:1047B000060782E193E00E945D0C80E393E00E9493
:1047C0005D0CE0910003F0910103309721F0118A14
:1047D000128A138A148AE0910203F091030330973E
:1047E00021F0118A128A138A148A4091C10461E36C
:1047F00074E08BE394E016C48D3D910509F4B8C4D0
:104800000CF040C0893C910509F460C48C3D9105D1
:1048100009F03ECDCF57DF4FD982C882C158D04072
:1048200089EF91E0CD57DF4F99838883C358D040FB
:1048300088E0CB57DF4F8883C558D040CA57DF4F39
:104840008881C658D04080788068CA57DF4F8883F7
:10485000C658D040CE018F579F4F0E942D1A4B0152
:104860005C0180924D0290924E02A0924F02B09253
:1048700050020E94110FA501940164E874E083E9DD
:1048800094E080CD883E53E0950709F431C361E0A0
:10489000893E934009F0FCCC80EC95E0A4C08839B7
:1048A000F4E09F0711F40C949A2C2CF5893334E032
:1048B000930709F4A9C38CF4833354E0950709F4F2
:1048C00051C38833944009F0E3CC1092D00540E006
:1048D00067EF74E082E095E0A5C38C34F4E09F07B5
:1048E00011F40C94972C8D34944009F0D1CC81E0D4
:1048F0000E949C13C6C08E3535E0930709F497C318
:104900006CF4843155E0950709F48FC361E085317B
:10491000954009F0BDCC8AE995E065C08436F5E0A4
:104920009F0709F4CBC3853625E0920709F4B7C386
:104930008F35954009F0ACCCCF57DF4FD982C88274
:10494000C158D04043EFE42E41E0F42ECD57DF4F65
:10495000F982E882C358D04015E0CB57DF4F188367
:10496000C558D040CA57DF4F8881C658D04080789C
:104970008068CA57DF4F8883C658D040CE018F5712
:104980009F4F0E94B4190E94EE06CF57DF4FD98285
:10499000C882C158D040CD57DF4FF982E882C35852
:1049A000D040CB57DF4F1883C558D040CA57DF4F90
:1049B0008881C658D04080788068CA57DF4F888386
:1049C000C658D040CE018F579F4F0E942D1A9B0191
:1049D000AC0167ED74E08DED94E0D4CC61E08091A2
:1049E0001001909111010E9440184BC0EE24EA94EE
:1049F000FE2C00E010E021E030E040E050E064ED0B
:104A000071E0C6010E94B11A9B01AC01E091100156
:104A1000F0911101218732874387548762ED73E05B
:104A20008CED93E00E948117CF57DF4FD982C88267
:104A3000C158D04084ED91E0CD57DF4F99838883F2
:104A4000C358D04089E0CB57DF4F8883C558D0404A
:104A5000CA57DF4F8881C658D04080788068CA57CF
:104A6000DF4F8883C658D040CE018F579F4F0E949A
:104A70002D1A60932D0170932E0180932F01909336
:104A80003001C6010E94EC12C150DF4F0FB6F894FE
:104A9000DEBF0FBECDBFDF91CF911F910F91FF9071
:104AA000EF90DF90CF90BF90AF909F908F907F90CE
:104AB0006F905F904F90089510ECE12E17E2F12E69
:104AC00009E010E021E030E040E050E06EED71E000
:104AD000C6010E94B11A9B01AC01E0911001F09156
:104AE0001101258736874787508B65EC73E08EEC84
:104AF00093E00E948117CF57DF4FD982C882C158F7
:104B0000D0408EED91E0CD57DF4F99838883C35815
:104B1000D04088E0CB57DF4F8883C558D040CA5774
:104B2000DF4F8881C658D04080788068CA57DF4FF1
:104B30008883C658D040CE018F579F4F0E942D1AB0
:104B4000609331017093320180933301909334016B
:104B50000E94110F96CF00911001109111010E9437
:104B60002508F801618B728B838B948B85849684E6
:104B7000A784B088DC01CB01880D991DAA1DBB1D3F
:104B8000858B968BA78BB08F81E080A346EB53E09B
:104B90006CEB73E081EC93E00E94E11372CF61E073
:104BA00084CB10ECE12E17E2F12E09E010E021E0B9
:104BB00030E040E050E06EED71E0C6010E94B11AB5
:104BC0009B01AC01E0911201F0911301258736871A
:104BD0004787508B69E973E082EA93E0D3CB61E0C9
:104BE000DFCB00911401109115010E942508F801F6
:104BF000658776878787908B81849284A384B48429
:104C0000DC01CB01880D991DAA1DBB1D818B928BE8
:104C1000A38BB48B81E0858B4BE653E061E773E0B7
:104C200086E793E0B9CF61E0D1CB10ECE12E17E23B
:104C3000F12E09E010E021E030E040E050E06EEDC0
:104C400071E0C6010E94B11A9B01AC01E09116010E
:104C5000F091170121873287438754876CE573E011
:104C600085E693E00E94811773CF009116011091A1
:104C700017010E942508F801658776878787908B42
:104C800081849284A384B484DC01CB01880D991DB6
:104C9000AA1DBB1D818B928BA38BB48B81E0858B6E
:104CA0004BE453E061E573E086E593E075CF61E0A6
:104CB0001FCC80911A0190911B0161E0009709F0CF
:104CC00092CEDFCE80911A0190911B0160E0009797
:104CD00009F089CED6CEEE24EA94FE2C00E010E056
:104CE00021E030E040E050E064ED71E0C6010E9458
:104CF000B11A9B01AC01E0911A01F0911B013097B0
:104D000079F0211531054105510521F021873287C0
:104D1000438754876AE273E084E393E00E9481173B
:104D2000CF57DF4FD982C882C158D04084ED91E07F
:104D3000CD57DF4F99838883C358D04089E0CB5744
:104D4000DF4F8883C558D040CA57DF4F8881C65887
:104D5000D04080788068CA57DF4F8883C658D040DB
:104D6000CE018F579F4F0E94B4198093240189CEA2
:104D7000E0911A01F0911B01309709F482CE11A243
:104D800045E053E060E173E085E193E005CF61E049
:104D900080911C0190911D010E94BC1372CE60E0B5
:104DA000F7CF15E3E12EF12C00E010E022E030E037
:104DB00040E050E067EE71E0C6010E94B11A8091B8
:104DC0001001909111010E94AB185BCE15E3E12E0A
:104DD000F12C00E010E022E030E040E050E067EE2F
:104DE00071E0C6010E94B11A8091120190911301E5
:104DF000EACF15E3E12EF12C00E010E022E030E0F4
:104E000040E050E067EE71E0C6010E94B11A809167
:104E1000160190911701D7CF80911A0190911B0133
:104E2000892B09F42ECE15E3E12EF12C00E010E0E1
:104E300022E030E040E050E067EE71E0C6010E9401
:104E4000B11A80911A0190911B01BDCF15E3E12E9B
:104E5000F12C00E010E022E030E040E050E067EEAE
:104E600071E0C6010E94B11AF62E00911C0110914A
:104E70001D01F8018485882331F060E080810E9463
:104E80006107F8011486F801F08261E08F2D0E941D
:104E90008F0760E0F80180810E94610784E992E059
:104EA0000E94D00BF8018081082E000C990B0E9403
:104EB0005E130E940914E5CD80910C0190910D01C3
:104EC000892B09F4DECD15E3E12EF12C00E010E092
:104ED00022E030E040E050E067EE71E0C6010E9461
:104EE000B11A80910C0190910D010E94E118C9CD79
:104EF00060E0D2CCCF57DF4FD982C882C158D040B2
:104F00008BEE91E0CD57DF4F99838883C358D04013
:104F100087E0CB57DF4F8883C558D040CA57DF4F53
:104F20008881C658D04080788068CA57DF4F888310
:104F3000C658D040CE018F579F4F0E942D1A4B016B
:104F40005C018092080190920901A0920A01B0923E
:104F50000B010E94C106A50194016EE275E086E393
:104F600095E010CACF57DF4FD982C882C158D040D0
:104F700053EFE52E51E0F52ECD57DF4FF982E88251
:104F8000C358D04015E0CB57DF4F1883C558D040E9
:104F9000CA57DF4F8881C658D04080788068CA578A
:104FA000DF4F8883C658D040CE018F579F4F0E9455
:104FB000B4190E94EE06CF57DF4FD982C882C1587C
:104FC000D040CD57DF4FF982E882C358D040CB574D
:104FD000DF4F1883C558D040CA57DF4F8881C65865
:104FE000D04080788068CA57DF4F8883C658D04049
:104FF000CE018F579F4F0E942D1A9B01AC016FE18C
:1050000075E085E295E0BEC981E08093D00580EC33
:1050100095E0909301018093000141E06BE075E021
:1050200086E195E00E9458172CCD60E074CCCF57F4
:10503000DF4FD982C882C158D0408BEE91E0CD5766
:10504000DF4F99838883C358D04087E0CB57DF4F29
:105050008883C558D040CA57DF4F8881C658D04092
:1050600080788068CA57DF4F8883C658D040CE0109
:105070008F579F4F0E942D1A4B015C0180920801AF
:1050800090920901A0920A01B0920B010E94C10600
:10509000A501940166EE74E08EEE94E073C981E0A0
:1050A0008093AA058AE995E090930101809300011D
:1050B00041E063EC74E08EEC94E0B4CF1092AA056A
:1050C00040E06FEA74E08AEB94E0ACCFCF57DF4F5B
:1050D000D982C882C158D04033EFE32E31E0F32E9D
:1050E000CD57DF4FF982E882C358D04015E0CB5747
:1050F000DF4F1883C558D040CA57DF4F8881C65844
:10510000D04080788068CA57DF4F8883C658D04027
:10511000CE018F579F4F0E94B4190E94EE06CF57C1
:10512000DF4FD982C882C158D040CD57DF4FF982B6
:10513000E882C358D040CB57DF4F1883C558D040C2
:10514000CA57DF4F8881C658D04080788068CA57D8
:10515000DF4F8883C658D040CE018F579F4F0E94A3
:105160002D1A9B01AC016EE974E084EA94E00AC94F
:10517000C251DF4F1882CE5ED040CF57DF4FD98269
:10518000C882C158D04082E092E0CD57DF4F99836A
:105190008883C358D04085E0CB57DF4F8883C558FC
:1051A000D040CA57DF4F8881C658D0408078806889
:1051B000CA57DF4F8883C658D040BE0162517F4F27
:1051C000CE018F579F4F0E94A319182F82E495E0BC
:1051D000112311F08CE295E0909306018093050174
:1051E00085E0111186E0809307010E94110F42E6CD
:1051F00054E0112311F047E654E06DE674E089E7CE
:1052000094E0CACC0E9425084B015C0180923802D0
:1052100090923902A0923A02B0923B0285ED94E05E
:105220000E94B70C1092C1041092C2048092B8047C
:105230009092B904A092BA04B092BB0481E080932A
:10524000C00482E193E00E945D0C80E393E00E9441
:105250005D0C2CE3E22E23E0F22E00E013E0F801D7
:105260008489882341F08289813009F04AC1858E82
:10527000968EA78EB0A2025E1F4FE016F10679F758
:10528000E6EDF3E010823F9624E0E63CF207D1F72A
:10529000E0910003F0910103309721F0118A128A06
:1052A000138A148AE0910203F0910303309721F0EE
:1052B000118A128A138A148AE0910E03F0910F0367
:1052C0003097A9F0118A128A138A148A158A168ACD
:1052D000178A108E118E128E138E148E158E168EC6
:1052E000178E10A212A213A214A281E085A380E55A
:1052F00092E00E948E1387E092E00E94D00B6091B2
:1053000008017091090180910A0190910B010E949E
:105310005B1385EF91E00E94D00B8091000190918A
:105320000101805C954009F418C18BE991E00E946D
:10533000D00B81EE91E00E94D00B60914D027091F4
:105340004E0280914F02909150020E945B130E9486
:105350000914E0903101F090320100913301109175
:10536000340120912D0130912E0140912F01509157
:10537000300160917F058DED91E00E941317E09060
:105380006505F0906605009167051091680520910C
:10539000610530916205409163055091640560910B
:1053A0005E0588ED91E00E9413172091290130914C
:1053B0002A0140912B0150912C016091480583ED09
:1053C00091E00E94E4162091350530913605409118
:1053D000370550913805609132058DEC91E00E94BF
:1053E000E416E0902501F09026010091270110912C
:1053F00028012091240130E050E040E06091F10468
:1054000087EC91E00E9413176091170582EC91E000
:105410000E94C7166091D80487EB91E00E94C716DE
:105420006091CB0483EB91E00E94C7164091D005B8
:105430006091C6058AEA91E00E949B164091AA05F8
:105440006091A00581EA91E00E949B16809138024C
:1054500090913902A0913A02B0913B02E0910C0187
:10546000F0910D0180839183A283B383E0910E01BB
:10547000F0910F0180839183A283B383E0911001A7
:10548000F091110180839183A283B383E091120193
:10549000F091130180839183A283B383E09114017F
:1054A000F091150180839183A283B383E09116016B
:1054B000F091170180839183A283B383E091180157
:1054C000F091190180839183A283B383E0911A0143
:1054D000F0911B01309721F080839183A283B383E5
:1054E000E0911C01F0911D0180879187A287B3870D
:1054F0008093D0049093D104A093D204B093D304AA
:10550000C0CA823009F0B7CE41A452A463A474A4E7
:1055100060E070E0CB01141415041604170434F491
:105520000E942037A30192010E949C38680D791DCA
:105530008A1D9B1DF80161A372A383A394A381A577
:1055400092A5A3A5B4A5880D991DAA1DBB1D85A371
:1055500096A3A7A3B0A715A68ECE8EE991E0E7CEBD
:105560008091550281118DCA0E9425084B015C0172
:105570008092510290925202A0925302B092540231
:105580008091D8048823B9F08091E604811113C07A
:1055900085ED94E00E94B70C8092E7049092E804B5
:1055A000A092E904B092EA0481E08093E604F894C2
:1055B0001092D70478948090510290905202A0905B
:1055C0005302B09054021092C0041092C204E6ED4F
:1055D000F3E086EC94E010823F968E179F07D9F790
:1055E000E0910603F0910703309719F084810E943F
:1055F0005108E0910803F0910903309719F0848174
:105600000E945108E0910A03F0910B03309721F0BA
:1056100060E084810E946107E0910C03F0910D032A
:10562000309721F060E084810E946107E0910E03D1
:10563000F0910F03309729F015A260E084810E9459
:1056400061078BE591E00E94D00B80913802909128
:105650003902A0913A02B0913B02A5019401281BA6
:10566000390B4A0B5B0BCA01B9010E945B130E9404
:10567000091481E08093550204CA8091C00481110D
:105680000C943A200E946A1880E00E949C130C94AB
:105690003A200E9425084B015C018091C0048111D1
:1056A0000FC00E9406078092B8049092B904A0929D
:1056B000BA04B092BB04B501A40180E00E94C315F6
:1056C00046E454E06CE474E087E594E065CA0E9427
:1056D0000607E0910603F0910703309719F08481E3
:1056E0000E945108E0910803F0910903309719F0E6
:1056F00084810E945108E0910A03F0910B033097D6
:1057000021F060E084810E946107E0910C03F09138
:105710000D03309721F060E084810E946107E091E1
:105720000E03F0910F03309721F060E084810E9416
:1057300061070E94110F59C8111157C8FACFC25101
:10574000DF4F1882CE5ED040CF57DF4FD982C8825C
:10575000C158D0408FE092E0CD57DF4F99838883C6
:10576000C358D04086E0CB57DF4F8883C558D04020
:10577000CA57DF4F8881C658D04080788068CA57A2
:10578000DF4F8883C658D040BE0162517F4FCE01A3
:105790008F579F4F0E94A319182F0E9425084B0175
:1057A0005C018091C004882309F4BDC01093C20439
:1057B000112309F43DC08092C3049092C404A092C6
:1057C000C504B092C6040E940607E0910603F0915A
:1057D0000703309719F084810E945108E091080373
:1057E000F0910903309719F084810E94510880914B
:1057F000D8048823B9F08091E604811113C085EDA7
:1058000094E00E94B70C8092E7049092E804A09282
:10581000E904B092EA0481E08093E604F8941092DF
:10582000D7047894412F67E174E086E294E0FACBE4
:105830008091C3049091C404A091C504B091C604A2
:10584000B501A401481B590B6A0B7B0BE0E0F3E0A8
:105850002CE333E084898823A1F08289813009F028
:1058600047C0858D968DA78DB0A10097A105B10584
:1058700041F0840F951FA61FB71F858F968FA78FA6
:10588000B0A37E962E173F0729F78091D80488236E
:1058900049F28091E604882329F2F8946091DD04AE
:1058A0007091DE048091DF049091E0044090E70461
:1058B0005090E8046090E9047090EA046419750956
:1058C00086099709860E971EA81EB91E8092DD04D0
:1058D0009092DE04A092DF04B092E0041092D7040C
:1058E00078941092E60485ED94E00E94B70C9ACF6C
:1058F000823039F681A192A1A3A1B4A1840F951F92
:10590000A61FB71F81A392A3A3A3B4A385A196A1A9
:10591000A7A1B0A5840F951FA61FB71F85A396A3A7
:10592000A7A3B0A7AECF112309F4AFCF60CF80E01B
:105930000C9478248BE0A82EB12CC650DF4FB9828E
:10594000A882CA5FD040CF57DF4FD982C882C158E2
:10595000D04007EE11E0CD57DF4F19830883C358BD
:10596000D04093E0F92ECB57DF4FF882C558D04096
:10597000CA57DF4F8881C658D04080788068CA57A0
:10598000DF4F8883C658D040BE0166507F4FCE019E
:105990008F579F4F0E94AF1B08970CF49AC0C450BA
:1059A000DF4FB982A882CC5FD040C251DF4FD9828D
:1059B000C882CE5ED040C051DF4F19830883C05FDC
:1059C000D040CE50DF4FF882C25FD040CD50DF4F85
:1059D0008881C35FD04080788068CD50DF4F888356
:1059E000C35FD040BE0164507F4FCE0182519F4FB4
:1059F0000E94AF1B0E970CF06EC0C250DF4FB982F1
:105A0000A882CE5FD040CC50DF4FD982C882C45F1D
:105A1000D040CA50DF4F19830883C65FD040C850BA
:105A2000DF4FF882C85FD040C750DF4F8881C95F21
:105A3000D04080788068C750DF4F8883C95FD040EE
:105A4000BE0162507F4FCE018C509F4F0E94AF1B12
:105A500040916B009091C904985021E030E001C062
:105A6000220F9A95EAF72095242320936B009091BA
:105A70006B00911105C0909168009E7F9093680023
:105A80008093C90462E00E948F078091C9040E943C
:105A9000380721E0019709F020E02093D404809199
:105AA000680081608093680080916B009091C904C8
:105AB000985021E030E001C0220F9A95EAF7822B3E
:105AC00080936B008CE191E00E94D00B8091C9041F
:105AD000EBC988E0BDCF8DE0BBCF8A30910511F4D2
