:100000000C9484050C94182C0C94F12B0C94AC05D6
:100010000C94AC050C94AC050C94AC050C943F2CE2
:100020000C94AC050C94AC050C94AC050C94AC058C
:100030000C94AC050C94AC050C94AC050C94AC057C
:100040000C94A72B0C94AC050C94C12C0C949B2CF9
:100050000C94AC050C94AC050C94AC050C94AC055C
:100060000C94AC050C94AC05546F6F44656570003E
:100070004E6F4D656D6F727900496E76616C696483
:10008000496E70757400496E636F6D706C65746550
:10009000496E70757400456D707479496E70757431
:1000A000004F6B00CDCCCC3D0AD7233C17B7D138DD
:1000B00077CC2B329595E6241FB14F0A00002041E2
:1000C0000000C84200401C4620BCBE4CCA1B0E5A51
:1000D000AEC59D74227D007B226C6576656C223AEC
:1000E00022303031222C22646576696365223A22FF
:1000F000434F4E54524F4C4C4552222C2264657350
:1001000063223A225052207468726573686F6C647F
:100110002063617070656420617420007B226C65CF
:1001200076656C223A22303037222C22646576695B
:100130006365223A22434F4E54524F4C4C45522253
:100140002C226576656E74223A22454E44222C227A
:1001500074696D657374616D70223A004C48005289
:1001600048004C455645525F4C48004C4556455258
:100170005F5248004D4943524F53434F5045004C46
:1001800049434B004C415345520050554D503200AD
:1001900050554D5000435545320043554500222CE3
:1001A0002274726163655F696E74657276616C2238
:1001B0003A002C226163746976655F6C65766572BE
:1001C000223A22007B226C6576656C223A2230301E
:1001D00030222C22646576696365223A22434F4EB1
:1001E00054524F4C4C4552222C227061726164690A
:1001F000676D223A2246495845445F524154494F5F
:10020000222C2274696D656F7574223A007B226C12
:100210006576656C223A22303037222C226465766E
:10022000696365223A22434F4E54524F4C4C45521B
:10023000222C226576656E74223A22535441525420
:10024000222C2274696D657374616D70223A307D61
:10025000007B226C6576656C223A22303030222C8D
:1002600022646576696365223A224D4943524F53B1
:10027000434F5045222C22706172616D223A2274E4
:100280007269676765725F70696E222C2276616C95
:100290007565223A004649524544007465737400FE
:1002A0004D4943524F53434F504500494E444550EA
:1002B000454E44454E54006D6F6465004C415345B6
:1002C0005200434F4E54494E47454E54006D6F64A3
:1002D00065004C41534552006475726174696F6EDC
:1002E000004C41534552006672657175656E6379C5
:1002F000004C4153455200464952454400746573D1
:1003000074004C41534552004649524544007465BF
:1003100073740050554D5032006475726174696F8A
:100320006E0050554D5032004649524544007465A8
:1003300073740050554D50006475726174696F6E2E
:100340000050554D50004649524544007465737441
:100350000043554532006475726174696F6E0043E5
:10036000554532006672657175656E637900435557
:100370004532004649524544007465737400435544
:1003800045006475726174696F6E0043554500667F
:1003900072657175656E63790043554500A10096DD
:1003A0000086007900700068007B226C6576656CC1
:1003B000223A22303036222C2264657363223A229C
:1003C000436F6D6D616E64206E6F7420666F756E25
:1003D00064227D0073657373696F6E5F70617573FE
:1003E000656400434F4E54524F4C4C455200746567
:1003F00073745F6D6F646500434F4E54524F4C4CA5
:10040000455200464952454400746573745F636801
:1004100061696E00434F4E54524F4C4C4552005050
:10042000554D500050554D503200616374697665EA
:100430005F70756D7000434F4E54524F4C4C455297
:100440000074726163655F696E74657276616C00D9
:10045000434F4E54524F4C4C455200726174696F79
:1004600000434F4E54524F4C4C4552007265696EDA
:10047000666F72636564004C455645525F4C480098
:100480007265696E666F72636564004C45564552CD
:100490005F4C4800726174696F004C455645525F6D
:1004A0004C480074696D656F7574004C4556455233
:1004B0005F4C48007265696E666F72636564004CDC
:1004C000455645525F5248007265696E666F7263A9
:1004D0006564004C455645525F524800726174692C
:1004E0006F004C455645525F52480074696D656F08
:1004F0007574004C455645525F524800227D007B82
:10050000226C6576656C223A22303036222C2264C9
:10051000657363223A220044495341524D454400D9
:1005200041524D454400227D002C226465736322B4
:100530003A2200222C2270696E223A007B226C65DE
:1005400076656C223A22303031222C22646576693D
:100550006365223A2200222C22706172616D223A78
:100560002270696E222C2276616C7565223A007BBE
:10057000226C6576656C223A22303030222C22645F
:100580006576696365223A2200222C2276616C75B9
:1005900065223A00222C22706172616D223A22009B
:1005A0007B226C6576656C223A22303030222C2218
:1005B000646576696365223A220066616C73650042
:1005C0007472756500222C2276616C7565223A0082
:1005D000222C22706172616D223A22007B226C65AE
:1005E00076656C223A22303030222C22646576699E
:1005F0006365223A2200227D00222C2276616C75EE
:1006000065223A2200222C22706172616D223A2208
:10061000007B226C6576656C223A22303030222CC9
:1006200022646576696365223A2200444953415247
:100630004D45440041524D454400227D002C22642A
:10064000657363223A22007B226C6576656C223AE0
:1006500022303031222C22646576696365223A2289
:100660004D4943524F53434F5045222C2270696EDF
:10067000223A0066616C73650074727565002C2205
:100680006475726174696F6E223A002C226672651D
:100690007175656E6379223A00222C2261726D6554
:1006A00064223A007B226C6576656C223A223030F7
:1006B00030222C22646576696365223A22006661E5
:1006C0006C73650074727565002C226475726174B8
:1006D000696F6E223A00222C2261726D6564223AA3
:1006E000007B226C6576656C223A22303030222CF9
:1006F00022646576696365223A220066616C7365DF
:10070000007472756500222C2261726D6564223A54
:10071000007B226C6576656C223A22303030222CC8
:1007200022646576696365223A220066616C7365AE
:1007300000747275650066616C736500747275652E
:10074000002C227265696E666F72636564223A00DE
:10075000222C2261726D6564223A007B226C6576E0
:10076000656C223A22303030222C2264657669632F
:1007700065223A2200027B226C6576656C223A2261
:10078000303030222C22646576696365223A224338
:100790004F4E54524F4C4C4552222C22736B657471
:1007A0006368223A2266722E696E6F222C22766569
:1007B0007273696F6E223A2276322E302E30222CDE
:1007C00022626175645F72617465223A313135323B
:1007D00030302C227363686564756C65223A22465A
:1007E000495845445F524154494F227D002C2265AF
:1007F0006E645F74696D657374616D70223A002C6C
:10080000226576656E74223A224C49434B222C2293
:1008100073746172745F74696D657374616D702255
:100820003A00222C2270696E223A007B226C657697
:10083000656C223A22303037222C22646576696357
:1008400065223A22002C22656E645F74696D6573BF
:1008500074616D70223A002C226576656E74223ABE
:10086000225354494D222C2273746172745F74694F
:100870006D657374616D70223A007B226C657665DC
:100880006C223A22303037222C2264657669636507
:10089000223A224C41534552222C2270696E223A50
:1008A000002C226576656E74223A2254494D4553D8
:1008B00054414D50222C2274696D657374616D70C2
:1008C000223A007B226C6576656C223A2230303801
:1008D000222C22646576696365223A224D4943528F
:1008E0004F53434F5045222C2270696E223A00002C
:1008F000000000240027002A000000000025002836
:10090000002B00000000002300260029000404043E
:1009100004040404040202020202020303030303A8
:100920000301020408102040800102040810200185
:100930000204081020000000080002010000030467
:1009400007000000000000000054494D454F555479
:1009500000494E4143544956450041435449564588
:1009600000227D002C226F7269656E746174696F5C
:100970006E223A22002C22656E645F74696D657385
:1009800074616D70223A00222C2273746172745F5C
:1009900074696D657374616D70223A002C226576FE
:1009A000656E74223A225052455353222C22636CB6
:1009B000617373223A22007B226C6576656C223A61
:1009C00022303037222C22646576696365223A2210
:1009D0005357495443485F4C45564552222C227088
:1009E000696E223A002C227363686564756C6564D5
:1009F0005F6174223A002C22746172676574223A36
:100A0000007B226C6576656C223A22303036222CCF
:100A1000226572726F725F636F6465223A22455F6E
:100A200050454E44494E475F46554C4C222C22645B
:100A3000657363223A2250656E64696E6720616354
:100A400074696F6E2071756575652066756C6C20B4
:100A5000E2809420616374696F6E2064726F7070BD
:100A60006564222C22616374696F6E5F74797065AE
:100A7000223A005354494D00494E465553494F4E72
:100A800000494E465553494F4E00544F4E45005471
:100A90004F4E45004C415345520050554D505F322A
:100AA0000050554D50004355455F320043554500B9
:100AB0002C22656E645F74696D657374616D70225C
:100AC0003A00222C2273746172745F74696D6573CD
:100AD00074616D70223A002C226576656E74223A3C
:100AE0002200222C2270696E223A007B226C6576ED
:100AF000656C223A22303037222C22646576696395
:100B000065223A2200004C2D11241FBECFEFD8E001
:100B1000DEBFCDBF12E0A0E0B1E0EAE4F3E702C03F
:100B200005900D92A633B107D9F725E0A6E3B2E010
:100B300001C01D92A93DB207E1F715E0C4E8D5E078
:100B400004C02197FE010E949637C338D107C9F728
:100B50000E945C300C94A3390C940000CF93DF9377
:100B6000EC0188819981DC01ED91FC910190F0818B
:100B7000E02D64E270E00995009741F02FE1FC015F
:100B8000238321E02283DF91CF91089521E02A83FE
:100B9000FACFCF92DF92EF92FF920F931F937E2DA9
:100BA000EBEFF2E0128A138A51E0548B658B668B6F
:100BB000178A108E69E066A764E667A712AA64E048
:100BC000609385031092490363E060934A03109297
:100BD0004B0310924C0310924D0310924E03C090A1
:100BE0007505D0907605E0907705F0907805C09275
:100BF0004F03D0925003E0925103F09252031092AF
:100C00005303709354030C0D1D1D2E1D3F1D0093A7
:100C10005503109356032093570330935803FC0158
:100C200081859285A385B4858093590390935A0357
:100C3000A0935B03B0935C0310925D0387E0809305
:100C40005E0300935F03109360032093610330936E
:100C500062038091E7049091E804A091E904B091C7
:100C6000EA048093630390936403A0936503B093B5
:100C700066035093670340936803109269031092D0
:100C80006A0310926B0310926C038091B7049091E9
:100C9000B804A091B904B091BA0480936D03909305
:100CA0006E03A0936F03B09370031F910F91FF9099
:100CB000EF90DF90CF9008956093B7047093B804DD
:100CC0008093B9049093BA0430918503E9E4F3E08A
:100CD00020E023130DC03091C203E6E8F3E020E0EA
:100CE0002317B1F04081413071F02F5F3A96F8CF71
:100CF0004081413019F02F5F3A96EBCF66837783BE
:100D000080879187F8CF6683778380879187EDCF3F
:100D1000089590910D03992339F090912B0321E0D0
:100D200030E0992319F0089530E020E09EE1929F91
:100D3000F001939FF00D1124E550FD4F858B178A2C
:100D4000F2CFE1EDF3E010823F9684E0E13CF8075A
:100D5000D1F70895833081F028F4813099F0823002
:100D6000A9F008958730A9F08830C9F08430B1F433
:100D7000809180008F7D03C0809180008F77809369
:100D80008000089584B58F7784BD089584B58F7DE4
:100D9000FBCF8091B0008F778093B0000895809151
:100DA000B0008F7DF9CFCF93DF93282F30E0F9018A
:100DB000EB5CF64F8491F901EF5DF64FD491F901A8
:100DC000E35FF64FC491CC23A1F081110E94AA06E3
:100DD000EC2FF0E0EE0FFF1FED5FF64FA591B49101
:100DE000EC91ED2381E090E009F480E0DF91CF9178
:100DF000089580E090E0FACF1F93CF93DF93282FE0
:100E000030E0F901EB5CF64F8491F901EF5DF64FAC
:100E1000D491F901E35FF64FC491CC23A9F0162FCA
:100E200081110E94AA06EC2FF0E0EE0FFF1FE750A1
:100E3000F74FA591B4918FB7F894EC91111108C0B8
:100E4000D095DE23DC938FBFDF91CF911F91089562
:100E5000DE2BF8CFCF93DF9390E0FC01EF5DF64FF0
:100E60002491835F964FFC0184918823C9F090E020
:100E7000880F991FFC01E151F74FA591B491FC0136
:100E8000E750F74FC591D49161110DC09FB7F89409
:100E90008C91209582238C938881282328839FBF5F
:100EA000DF91CF910895623051F49FB7F8943C914F
:100EB000822F809583238C93E8812E2BEFCF8FB7E1
:100EC000F894EC912E2B2C938FBFEACF3FB7F89478
:100ED0008091580290915902A0915A02B0915B0200
:100EE00026B5A89B05C02F3F19F00196A11DB11D85
:100EF0003FBFBA2FA92F982F8827BC01CD01620FC1
:100F0000711D811D911D42E0660F771F881F991F7B
:100F10004A95D1F708958F929F92AF92BF92CF9248
:100F2000DF92EF92FF920E9466074B015C0184E61C
:100F3000C82ED12CE12CF12C0E9466076819790982
:100F40008A099B09683E734081059105A8F321E059
:100F5000C21AD108E108F10888EE880E83E0981ED5
:100F6000A11CB11CC114D104E104F10429F7FF90C4
:100F7000EF90DF90CF90BF90AF909F908F900895AB
:100F80002FB7F894609154027091550280915602E7
:100F9000909157022FBF08950F931F93CF93DF9324
:100FA000C091F902D091FA02209781F081E08A8302
:100FB0000E94C007088519852A853B85601B710B37
:100FC000820B930B6C837D838E839F83DF91CF9104
:100FD0001F910F91089508959091040189130BC0FA
:100FE000E5E7F7E0E4919FEF90930401E13049F0E9
:100FF00028F0E23061F060E00C94FC0610926E0084
:10100000FACF90916F009D7F90936F00F4CF9091F5
:1010100070009D7F9093700091E09093B00090914C
:10102000B100987F94609093B1001092B300E3CF29
:101030004F925F926F927F928F929F92AF92BF92E8
:10104000CF92DF92EF92FF920F931F93CF93DF9394
:1010500000D000D01F92CDB7DEB78B0129013A0135
:10106000909104018917C9F09F3F09F47EC00F9049
:101070000F900F900F900F90DF91CF911F910F91D4
:10108000FF90EF90DF90CF90BF90AF909F908F90A8
:101090007F906F905F904F900895E5E7F7E094910F
:1010A0009D8397FDE4CF61E00E942A078D8188230C
:1010B00021F09D81923009F04AC14801B12CA12C48
:1010C00060E072E18AE790E0A50198010E94E235B4
:1010D00029833A834B835C8369017A0181E0C81AD2
:1010E000D108E108F1089FEFC916D104E104F10429
:1010F00009F00CF401C160E472E48FE090E0A50116
:1011000098010E94E23569017A0181E0C81AD1088C
:10111000E108F1089D81923009F0A2C08FEFC81656
:10112000D104E104F10409F00CF4E6C160E970EDCA
:1011300083E090E0A50198010E94E23569017A01FF
:1011400091E0C91AD108E108F1088FEFC816D1045F
:10115000E104F10411F00CF07FC183E09091B10043
:10116000987F892B8093B100CFC080930401E5E77D
:10117000F7E094919D839F3F09F479CF913041F13D
:1011800050F0923009F446C09D8197FD70CF61E028
:101190000E942A078ECF14BC15BC94B5926094BDF2
:1011A00095B5916095BD282F30E0F901E35FF64FCA
:1011B000E491F0E0EE0FFF1FE750F74F4591549197
:1011C000F901EF5DF64FE491E0933F021D826BCF92
:1011D000109280001092810090918100986090930D
:1011E000810090918100916090938100282F30E0E0
:1011F000F901E35FF64FE491F0E0EE0FFF1FE750D7
:10120000F74F45915491F901EF5DF64FE491E0936A
:101210003E0249CF1092B0001092B1009091B00000
:1012200092609093B0009091B10091609093B10062
:10123000282F30E0F901E35FF64FE491F0E0EE0F84
:10124000FF1FE750F74F4591549150934902409347
:101250004802F901EF5DF64FE491E0934A0223CF93
:101260009FEFC916D104E104F10409F00CF46DC03C
:1012700068E478EE81E090E0A50198010E94E235F3
:1012800069017A0181E0C81AD108E108F1089D815D
:10129000992309F4FAC08FEFC816D104E104F104D0
:1012A00011F00CF0FBC0EFC064E274EF80E090E05E
:1012B000A50194010E94E23569017A0181E0C81A12
:1012C000D108E108F10885E09FEFC916D104E104D7
:1012D000F10409F008F442CF62E17AE780E090E09F
:1012E000A50194010E94E23569017A0181E0C81AE2
:1012F000D108E108F108E5C081E09D8191112ECF70
:1013000095B5987F892B85BD2FEF3FEFA90141143B
:1013100051046104710409F043C09D81913009F4C6
:101320005EC0923009F46DC09111A1CEC7BC20936C
:101330004402309345024093460250934702809105
:101340006E00826080936E0092CE82E0D6CFB12C88
:10135000A12C60E072E18AE790E0A50198010E946B
:10136000E23569017A0181E0C81AD108E108F10883
:10137000C114D10491E0E906F10404F591E08D81F6
:10138000813011F680918100887F892B80938100C4
:101390002FEF3FEFA9014114510461047104F9F0EA
:1013A000D801AA0FBB1FA30192010E94013628EEAB
:1013B00033E040E050E00E944B36AFCF68E478EE77
:1013C00081E090E0A50198010E94E23569017A016F
:1013D00081E0C81AD108E108F10893E0D0CFD0929B
:1013E0008900C092880020934002309341024093CC
:1013F00042025093430280916F00826080936F009D
:1014000036CEC092B30020934B0230934C024093EF
:101410004D0250934E028091700082608093700064
:1014200026CE84E09FEFC916D104E104F10409F04F
:1014300008F466CFC980DA80EB80FC808AE0F594FE
:10144000E794D794C7948A95D1F781E0C81AD10858
:10145000E108F10885E054CF68E478EE81E090E09F
:10146000A50198010E94E23569017A0181E0C81A5C
:10147000D108E108F1089FEFC916D104E104F10495
:1014800011F00CF011CF84E069CE83E09FEFC91614
:10149000D104E104F10409F00CF432CF62E17AE7FF
:1014A00080E090E0A50194010E94E23569017A0193
:1014B00081E0C81AD108E108F1089D81992309F457
:1014C000B0CF86E09FEFC916D104E104F10409F022
:1014D00008F444CEC980DA80EB80FC809AE0F59471
:1014E000E794D794C7949A95D1F781E0C81AD108A8
:1014F000E108F10887E032CE82E030CEAF92BF92B1
:10150000CF92DF92EF92FF920F931F93CF93DF93CF
:101510006C017B018B01040F151FEB015E01AE18FE
:10152000BF08C017D10759F06991D601ED91FC9120
:101530000190F081E02DC6010995892B79F7C5014D
:10154000DF91CF911F910F91FF90EF90DF90CF909F
:10155000BF90AF900895FC01538D448D252F30E04E
:10156000842F90E0821B930B541710F0CF960895B0
:1015700001970895FC01918D828D981761F0A28DDD
:10158000AE0FBF2FB11D5D968C91928D9F5F9F73A3
:10159000928F90E008958FEF9FEF0895FC01918D59
:1015A000828D981731F0828DE80FF11D858D90E0C6
:1015B00008958FEF9FEF0895FC01918D228D892F63
:1015C00090E0805C9F4F821B91098F73992708954B
:1015D0008CE592E00E94DC0A21E0892B09F420E0EE
:1015E000822F089580E090E0892B29F00E94E80A7C
:1015F00081110C9400000895FC01A48DA80FB92F4F
:10160000B11DA35ABF4F2C91848D90E001968F732A
:101610009927848FA689B7892C93A089B1898C9149
:10162000837080648C93938D848D981306C0028898
:10163000F389E02D80818F7D80830895EF92FF9262
:101640000F931F93CF93DF93EC0181E0888F9B8DE5
:101650008C8D98131AC0E889F989808185FF15C09F
:101660009FB7F894EE89FF896083E889F9898081C2
:101670008370806480839FBF81E090E0DF91CF9191
:101680001F910F91FF90EF900895F62E0B8D10E0B3
:101690000F5F1F4F0F731127E02E8C8D8E110CC022
:1016A0000FB607FCFACFE889F989808185FFF5CF6D
:1016B000CE010E94FC0AF1CFEB8DEC0FFD2FF11D46
:1016C000E35AFF4FF0829FB7F8940B8FEA89FB89AA
:1016D00080818062CFCF0F931F93CF93DF938C01D4
:1016E000D0E0C0E0F801EC0FFD1F6491662341F0EB
:1016F0008CE592E00E941E0B892B11F02196F2CF0F
:10170000CE01DF91CF911F910F910895CF93DF9379
:10171000EC01888D8823B9F0AA89BB89E889F98909
:101720008C9185FD03C0808186FD0DC00FB607FC3E
:10173000F7CF8C9185FFF2CF808185FFEDCFCE0171
:101740000E94FC0AE9CFDF91CF910895CF92DF92FA
:10175000EF92FF921F93CF93DF93EC016A017B011D
:101760008C810E94D30611E0892B09F410E08B854F
:10177000181721F0CD8ADE8AEF8AF88E8D899E892E
:10178000AF89B88DB701A601481B590B6A0B7B0BBB
:10179000898D90E0B0E0A0E084179507A607B70711
:1017A00098F48C85181781F01C878A851817A9F082
:1017B000CA8EDB8EEC8EFD8EEAA1FBA1309721F064
:1017C000B701A601898509951B87DF91CF911F91EC
:1017D000FF90EF90DF90CF900895CE8EDF8EE8A23D
:1017E000F9A2ECA1FDA1309779F389850995ECCF99
:1017F000FC01158213861486158616861786108AB4
:10180000118A128A138A148A158A168A138E86817F
:10181000882311F0848183830895CF92DF92EF9221
:10182000FF920F931F93CF93DF93EC018E81811171
:1018300003C08D89882369F18C810D851E852F85D4
:1018400038896A017B01C01AD10AE20AF30A9701BA
:10185000860137FD18C009891A892B893C89401BEC
:10186000510B620B730B14161506160617065CF067
:1018700061E0DF91CF911F910F91FF90EF90DF908A
:10188000CF900C94FC0660E00E94FC068D898111CB
:101890001D8ADF91CF911F910F91FF90EF90DF9004
:1018A000CF900895CF93DF93EC0161E088810E948F
:1018B000FC0681E08C870E94C0076D877E878F873A
:1018C000988BDF91CF910895CF92DF92EF92FF92A4
:1018D000CF93DF93EC016A017B0169857A858B8563
:1018E0009C850E94C3349B01AC0160E070E080E8FD
:1018F0009FE30E94E93620E030E040E05FE30E9491
:10190000243520E030E04AE754E40E942435C98EB3
:10191000DA8EEB8EFC8E20E030E040E05FE30E9448
:101920007D360E946237C60ED71EE81EF91ECD8E88
:10193000DE8EEF8EF8A28BA191E089278BA3DF9139
:10194000CF91FF90EF90DF90CF900895CF92DF92EC
:10195000EF92FF92CF93DF93EC016A017B018989BB
:101960009A89AB89BC89AB019601281B390B4A0BBC
:101970005B0BDA01C901B7FD49C08D899E89AF892A
:10198000B88DAB019601281B390B4A0B5B0BDA01B2
:10199000C901181619061A061B06C4F18AA1882364
:1019A000A9F189859A85AB85BC850197A105B1050B
:1019B00051F461E08C81DF91CF91FF90EF90DF9047
:1019C000CF900C94FC068D8D9E8DAF8DB8A1AB0190
:1019D0009601281B390B4A0B5B0BDA01C901B7FDD5
:1019E00004C0A601CE010E94640C8C819BA19923A6
:1019F00011F061E0E0CF60E00E94FC061BA2DF91E5
:101A0000CF91FF90EF90DF90CF90089560E08C81B0
:101A10000E94FC061BA28D899E89AF89B88DC81AC9
:101A2000D90AEA0AFB0A8AA1882331F01C141D0492
:101A30001E041F040CF41AA28CA1882301F31C14A9
:101A40001D041E041F04DCF61CA2D9CF8F929F92A6
:101A5000AF92BF92CF92DF92EF92FF920F931F93BC
:101A6000CF93DF93EC018E81811104C088A188237C
:101A700009F445C07B0189899A89AB89BC894A01EF
:101A80005B01881A990AAA0ABB0AC501B40197FD2D
:101A900053C00D891E892F89388D4A015701801A3C
:101AA000910AA20AB30A95018401101611061206C2
:101AB00013060CF441C02A8D2223A9F10C8D1D8D33
:101AC0002E8D3F8D200F311F2115310511F421E09E
:101AD00030E0FB8C50E040E00E944B36601771070D
:101AE000D8F4F1100AC069857A8520E030E0A901B8
:101AF0008C810E94180881E08B8F81E0898FDF91B3
:101B0000CF911F910F91FF90EF90DF90CF90BF90FA
:101B1000AF909F908F900895FF2079F38C810E9461
:101B2000EC071B8EEACF69857A8520E030E0A901B9
:101B30008C810E941808E1CF898D882301F38C8164
:101B40000E94EC07198E1B8E88A18823C1F218A26F
:101B5000D6CF6F3FA9F0E62FE295EF7044E0E49F07
:101B600090011124DC01ED91FC91E20FF31F6F70E5
:101B700082819381B6E06B9F800D911D11240895A1
:101B800090E080E00895982F80336CF08A3324F041
:101B90008F3524F08B3724F481E0089581341CF0D4
:101BA00081E09B350CF080E00895FC018285811175
:101BB0000AC0A781B085CD010196908787838C915B
:101BC000818781E08287818508951F93CF93DF937A
:101BD000EC01162F0E94D50D811306C01A8681E0F4
:101BE000DF91CF911F91089580E0FACF0F931F935B
:101BF000CF93DF938C01EB018991882369F0C801B1
:101C00000E94D50D882379F0FE01319790819813B9
:101C10000DC0F8011286F0CF90E080E0DF91CF9107
:101C20001F910F91089582E090E0F8CF83E090E05B
:101C3000F5CFCF93DF93EC01CE010E94D50D8B3011
:101C40004CF489305CF4882359F081E08E8390E075
:101C500080E00BC08D3011F08032B9F71A86ECCFDE
:101C60008E81811105C081E090E0DF91CF910895D0
:101C700082E090E0FACFDC0152969C91529791500D
:101C800084E0989F900111245096ED91FC91E20F11
:101C9000F31F228133812115310579F04181808143
:101CA000481758F481E0840F818386E0489F200D17
:101CB000311D11242115310521F460E070E08FEF12
:101CC0000895B901892F8295807F840F0895DF924E
:101CD000EF92FF920F931F93CF93DF93EC017B0161
:101CE000D12C688979898A89D816E0F484E0D89E55
:101CF00080011124060F171FD80112966D917C9157
:101D00006115710541F0D701ED91FC910280F381DD
:101D1000E02DC7010995F801138212821082118209
:101D2000D394DFCF1A8A8FEF8C8BC617D70761F059
:101D3000D701ED91FC910280F381E02DC701099557
:101D4000D98BC88B84E08B8BDF91CF911F910F9142
:101D5000FF90EF90DF900895EF920F931F93009103
:101D60004F0210915002209151023091520241E0F5
:101D700080910001909101018F5A954009F440E053
:101D8000E090070160911003809105019091060198
:101D90000E94C9051F910F91EF9008954F925F9295
:101DA0006F927F928F929F92AF92BF92CF92DF926B
:101DB000EF92FF920F931F93CF93DF9300D000D049
:101DC0001F92CDB7DEB7DC012C912B32E1F12D3221
:101DD000D9F50196EE24E394FC01208130ED320F19
:101DE0003A3010F02E3291F58C0160E070E0CB01BA
:101DF000F801219130ED832E820E39E0381508F478
:101E000044C06A3949E97407840749E1940708F036
:101E100046C0AAE0B0E09B01AC010E940136912CC3
:101E2000B12CA12C240135014094509460947094FD
:101E3000461657066806790690F1680D791D8A1DC9
:101E40009B1D8F01D5CF0196E12CC6CF1982298128
:101E50003A814B815C816D8170E080E090E00F9071
:101E60000F900F900F900F90DF91CF911F910F91D6
:101E7000FF90EF90DF90CF90BF90AF909F908F90AA
:101E80007F906F905F904F900895211108C0EE20D1
:101E900051F161307105810550E89507A0F0F12CF2
:101EA000BAE08B2E912CA12CB12C6115710530E874
:101EB00083079105F8F0A50194010E944B36CA01F1
:101EC000B901F394F2CF22E029839B01AC0188276A
:101ED0009927DC01821B930BA40BB50B8A839B8390
:101EE000AC83BD83B4CF23E029836A837B838C8357
:101EF0009D83ADCFF801D8012D918D0130ED320FCA
:101F00003A3010F4F394F6CF2E3201F58F010F5FC3
:101F10001F4FF8010F5F1F4F2081A0EDDA2ED20E68
:101F2000B9E0BD1598F06C3CECEC7E07ECE08E0758
:101F3000910578F7AAE0B0E09B01AC010E94013660
:101F40006D0D711D811D911DFA94E3CF20812F7DB0
:101F500010E000E0253409F050C021812D32B1F5A8
:101F60003296CC24C394DF0110E000E02F2D0F2C1B
:101F7000000C330BEAE0BE2EFD01DD9040ED4D0D6F
:101F80004A30B0F5B09EA001B19E500D11240D2D28
:101F9000DD0C110B00531109040F151FA801420F8E
:101FA000531F4732510544F3CC20B9F080E090E054
:101FB000A0E0B0E8E11003C080E090E0DC0121E0A7
:101FC00029838A839B83AC83BD8341CF2B3219F055
:101FD0003196C12CC8CF3296FCCF80E090E0A0E8CB
:101FE000BFEFE110ECCF80E090E0A0E8BFE7E7CFE3
:101FF000CC2019F01195019511092081211126CFCE
:102000000F0D111DF7FC1A950E94C3344CEBA42E42
:1020100040E0B42E101611063CF0119501951109FF
:1020200054EAA52E50E0B52ED12CC12C0115110576
:10203000E9F0F6E0CF16D104A9F000FF0DC0F601DB
:10204000EE0FFF1FEE0FFF1FEA0DFB1D25913591CF
:10205000459154910E942435159507952FEFC21A8A
:10206000D20AE4CF60E070E080EC9FE7E110905886
:1020700021E029836A837B838C839D83E8CECF9282
:10208000DF92EF92FF920F931F93CF93DF937C0128
:102090006B018A01FC01C081D1814F3F510509F0DC
:1020A000B0F4E881F9810480F581E02D4B5F5F4F4A
:1020B000CE010995009759F0FC010383DF91CF9180
:1020C0001F910F91FF90EF90DF90CF900895E881DE
:1020D000F9810280F381E02DB601CE01099581E0FE
:1020E000F701828390E080E0E9CF1F93CF93DF93E5
:1020F000EC01162F6A817B816115710589F04C8195
:102100005D81FB0183818417150651F4440F551F2F
:102110004F5F5F4F888199810E943F109B838A8324
:102120008A819B81009759F02C813D81A9014F5FE5
:102130005F4F5D834C83820F931FFC011483DF91FB
:10214000CF911F9108959F92AF92BF92CF92DF924D
:10215000EF92FF920F931F93CF93DF9300D000D0A5
:102160001F92CDB7DEB78C010E94D50DD82EF80195
:102170001286F12CE12C60EFC62EC8010E94D50D0D
:10218000F8011286D81609F4B3C0811113C082E099
:1021900090E00F900F900F900F900F90DF91CF91E4
:1021A0001F910F91FF90EF90DF90CF90BF90AF9075
:1021B0009F9008958C3509F099C0C8010E94D50DF3
:1021C000882329F3E5E9F1E0853709F083C0F801B8
:1021D000128654E0952EB12CA12CC8010E94D50D79
:1021E0008823A9F2813434F48053803130F083E0C5
:1021F00090E0CFCF8F7D8753F8CF44E0AA0CBB1C73
:102200004A95E1F7A82AF80112869A949110E5CF31
:10221000C501985D8115944020F47501F3E0FF221B
:10222000ACCFC5019C5D81159440A8F483E0B82231
:10223000B701762F6627770F770F6A297B2990E001
:1022400080E00196603871058105910540F4C80170
:102250000E94751092CFB50190E080E0F3CF198213
:10226000262F2F7320682A8326E0969587957795E9
:1022700067952A95D1F76032710580F4606C6B83A5
:102280005E01E4E0AE0EB11CF50162915F016623D0
:1022900009F473CFC8010E947510F6CF262F2F7353
:1022A00020682B8386E0769567958A95E1F7603103
:1022B000710538F4606E6C835E01F5E0AF0EB11C01
:1022C000E3CF60686C83CD825E0126E0A20EB11C74
:1022D000DBCF32969081992309F489CF8913F9CF06
:1022E0008181882309F483CFF8011286682FAFCF4C
:1022F00082819381892B19F484E090E04ACF90E0A9
:1023000080E047CF6F927F928F929F92AF92BF9261
:10231000CF92DF92EF92FF920F931F93CF93DF93B1
:10232000EC012A813B812C5F3F4F4C815D81443021
:10233000510588F58901F90180E0942FB22FAE2F65
:10234000A21BA91730F4F190A1E0F110A0E08A2BB4
:10235000F6CF811120C082E0EB018C83FB01802F3E
:102360008B1B891728F4E80189918E018193F7CF9F
:10237000640F751FFB011082DF91CF911F910F91A8
:10238000FF90EF90DF90CF90BF90AF909F908F9095
:102390007F906F9008958B01F901E40FF51F108273
:1023A000888199814C815D81DC011396ED91FC91CE
:1023B0003A01E89477F86901C60CD71C3097C1F050
:1023C000A381A615170481F449017F01B4E0EB0E47
:1023D000F11C8C149D0429F1D401AD904D01D7015D
:1023E000BD907D01AB14A9F30190F081E02DE6CF03
:1023F0006A817B810E943F10FC01A881B9811396FC
:102400008D919C911497918380831496FC93EE9305
:1024100013971B821A8285E0E8018C83F983E88395
:10242000ABCF82818F5F8283F6CFDB01ED91FC9190
:1024300011970280F381E02DBC01CD010994AF9288
:10244000BF92CF92DF92EF92FF920F931F93CF93A1
:10245000DF93EC018B018C8180FF24C0A881B981BE
:10246000FB018381948130E020E00097D9F0A81728
:10247000B907D1F5F8016081718112968C9112979C
:10248000815012968C93129781110CC08D919C9162
:1024900011972115310529F1F90191838083CD012F
:1024A0000E9415128C81807631F1209721F1F880FD
:1024B0005801F5E1AF0EB11C8FEFF816D1F06F2D7A
:1024C000C5010E94A90D6C01FC01E580B8010E94C4
:1024D0001F12F801818DF6018083F801F18EFE2C28
:1024E000EBCF94838383DBCF9C01FC0180819181BE
:1024F000BCCFF882F9821C82DF91CF911F910F919E
:10250000FF90EF90DF90CF90BF90AF9008950F9322
:102510001F93CF93DF93EC01088119818B819C81FC
:10252000009749F0FC01208131813C832B83B80165
:102530000E941512F3CF68817981CE010596DF9153
:10254000CF911F910F910C94670EFC010190002018
:10255000E9F73197AF01481B590BBC018CE592E0BC
:102560000C947E0A8F929F92AF92BF920F931F930B
:10257000CF93DF93CDB7DEB7A1970FB6F894DEBF48
:102580000FBECDBF19A2423008F44AE08E010F5DA4
:102590001F4F842E912CB12CA12CA50194010E94D7
:1025A0004B36E62FB901CA01EA30F4F4E05DD801F8
:1025B000EE938D01232B242B252B79F790E080E0DF
:1025C000109719F0CD010E94A512A1960FB6F894AC
:1025D000DEBF0FBECDBFDF91CF911F910F91BF9096
:1025E000AF909F908F900895E95CE1CF4AE00C9402
:1025F000B212CF92DF92EF92FF92CF93DF936C01F2
:10260000990FEE08FF08F7FE19C06DE28CE592E025
:102610000E941E0BEC0166277727CB016C197D0900
:102620008E099F094AE00E94B2128C0F9D1FDF9114
:10263000CF91FF90EF90DF90CF9008954AE0C701CF
:10264000B601DF91CF91FF90EF90DF90CF900C9487
:10265000B212CF93DF930E946B0BEC0188EA91E0FA
:102660000E94A5128C0F9D1FDF91CF9108950F93AB
:102670001F93CF938C01C62FFC01638387E496E000
:102680000E946B0BF8018081082E000C990B0E94B0
:10269000F9128DE396E00E946B0B8BE296E0CC235F
:1026A00011F084E396E00E946B0B8AE396E0CF91F1
:1026B0001F910F910C942913EF92FF920F931F9388
:1026C000CF93DF937C018B01EA0181E196E00E94C8
:1026D0006B0BC7010E946B0B85E096E00E946B0BB1
:1026E000C8010E946B0B89EF95E00E946B0BCE0135
:1026F0000E946B0B86EF95E0DF91CF911F910F91B8
:10270000FF90EF900C942913CF93DF936DE78CE546
:1027100092E00E941E0BEC0188EA91E00E94A51253
:102720008C0F9D1FDF91CF9108954F925F926F9212
:102730007F928F929F92AF92BF92EF92FF920F93F0
:102740001F93CF93DF932A013B0148015901853044
:1027500009F480C008F061C0843009F46FC0E091D2
:102760000103F09102031481CFE8DAE04CEAE42E91
:102770004AE0F42E8BEE9AE00E946B0BC7010E9498
:102780006B0B82EE9AE00E946B0B812F110F990B5D
:102790000E94F91287ED9AE00E946B0BCE010E9415
:1027A0006B0B82EC9AE00E946B0B8091B3049091CA
:1027B000B404A091B504B091B604A3019201281B02
:1027C000390B4A0B5B0BCA01B9010E94F61280EB70
:1027D0009AE00E946B0B8091B3049091B404A09195
:1027E000B504B091B604A5019401281B390B4A0B1E
:1027F0005B0BCA01B9010E94F612DF91CF911F91C4
:102800000F91FF90EF90BF90AF909F908F907F902F
:102810006F905F904F900C948413863039F187301D
:1028200009F09DCFE0910903F0910A031481C3E7F9
:10283000DAE084E9E82E8AE0F82E9CCFE0910303E9
:10284000F09104031481CAE8DAE036EAE32E3AE0B4
:10285000F32E90CFE0910503F09106031481C1E8B7
:10286000DAE021EAE22E2AE0F22E84CFE09107039B
:10287000F09108031481C8E7DAE09AE9E92E9AE0BA
:10288000F92E78CFCF92DF92EF92FF920F931F93A2
:10289000CF93DF93EC018881813009F4D1C06A01C4
:1028A0007B01813090F08230D1F48DE093E00E9482
:1028B000F80B8BE293E0DF91CF911F910F91FF9086
:1028C000EF90DF90CF900C94F80B8981853009F45C
:1028D0007DC070F48330F1F1843009F45AC0DF9187
:1028E000CF911F910F91FF90EF90DF90CF900895BF
:1028F000863009F488C0873091F7E0910903F091A0
:102900000A03309761F38681882349F381A18111FD
:10291000E6CF8E819F81A885B985C18AD28AE38A54
:10292000F48A8C0D9D1DAE1DBF1D858B968BA78BCC
:10293000B08F81E082A3CF010E94640C0E811F81C1
:10294000288539850C0D1D1D2E1D3F1DB701A601C3
:1029500087E01CC0E0910103F0910203309709F475
:10296000BECF8681882309F4BACF0E811F812885C6
:102970003985C18AD28AE38AF48A0C0D1D1D2E1D69
:102980003F1D058B168B278B308F83E00E9495139C
:10299000A6CFE0910303F0910403309709F49FCF91
:1029A0008681882309F49BCF0E811F812885398574
:1029B000C18AD28AE38AF48A0C0D1D1D2E1D3F1D8B
:1029C000058B168B278B308F84E0E0CFE0910503D9
:1029D000F0910603309709F482CF8681882309F4A9
:1029E0007ECF0E811F8128853985C586D686E786EC
:1029F000F08A0C0D1D1D2E1D3F1D018B128B238B8C
:102A0000348B85E0C3CFE0910703F0910803309742
:102A100009F465CF8681882309F461CF0E811F8177
:102A200028853985C586D686E786F08A0C0D1D1D5A
:102A30002E1D3F1D018B128B238B348B86E0A6CF7E
:102A40008981E091FB02F091FC02882339F081300A
:102A500009F045CFE091FD02F091FE02309709F4B4
:102A60003ECFCE80DF80E884F9844C0D5D1D6E1D65
:102A70007F1D418B528B638B748B31CF2F923F9292
:102A80004F925F926F927F928F929F92AF92BF927E
:102A9000CF92DF92EF92FF920F931F93CF93DF932A
:102AA00000D000D0CDB7DEB72A013B010DE3809FF7
:102AB00090011124912C8901C9018B579C4F9A8355
:102AC00089838AE0882E19019EE4290E311CE98150
:102AD000FA818081981608F092C0A92CB12CC80107
:102AE000899C800D911D112485509D4FFC01E25B56
:102AF000FF4F20812330B9F0805B9F4FFC01C080E5
:102B0000D180E280F380C114D104E104F10469F4BE
:102B1000B301A201C101989C800D911D1124855023
:102B20009D4F0E9442149394D2CFC40CD51CE61C36
:102B3000F71CE1EDF3E030E020E08081811126C058
:102B4000FFE0F29FC001F39F900D1124DC01AD5313
:102B5000BC4F8A9CF0018B9CF00D1124E00FF11FFB
:102B6000E75BFC4F282D01900D922A95E1F78550E7
:102B70009D4FFC01EE52FF4FC082D182E282F38270
:102B80008A529F4F21E0FC012083CDCF2F5F3F4F22
:102B90003F962031310589F681E09AE00E946B0B67
:102BA0008A9CC0018B9C900D1124800F911F855031
:102BB0009D4F9C838B83FC01E25BFF4F608170E043
:102BC00090E080E04AE00E94B21286EF99E00E9415
:102BD0006B0BEB81FC81E15BFF4F608170E090E06B
:102BE00080E04AE00E94B21285EE99E00E946B0BF1
:102BF000C701B6010E94F6120E94841394CF0F9071
:102C00000F900F900F90DF91CF911F910F91FF9038
:102C1000EF90DF90CF90BF90AF909F908F907F907C
:102C20006F905F904F903F902F9008950F931F9358
:102C3000CF93DF938C01D62FC42F8BE597E00E94B2
:102C40006B0BC8010E946B0B80E597E00E946B0B39
:102C500086E397E0DD2311F08CE397E00E946B0B95
:102C600081E497E00E946B0B8BE297E0CC2311F09C
:102C700081E397E00E946B0BDF91CF911F910F9141
:102C80000C9484130F931F93CF938C01C62F81E173
:102C900097E00E946B0BC8010E946B0B86E097E0E7
:102CA0000E946B0B8BEF96E0CC2311F081E097E054
:102CB0000E946B0BCF911F910F910C948413CF92B4
:102CC000DF92EF92FF920F931F93CF938C01C62F49
:102CD00069017A0181EE96E00E946B0BC8010E94A7
:102CE0006B0B86ED96E00E946B0B8EEB96E0CC238F
:102CF00011F084EC96E00E946B0B89EC96E00E9448
:102D00006B0BC701B6010E94F612CF911F910F9174
:102D1000FF90EF90DF90CF900C9484137F928F926E
:102D20009F92AF92BF92CF92DF92EF92FF920F935A
:102D30001F93CF93DF93EC01762E49015A0167016F
:102D4000780184EA96E00E946B0BCE010E946B0B27
:102D500089E996E00E946B0B83E796E0772011F0FB
:102D600089E796E00E946B0B8BE896E00E946B0B64
:102D7000C501B4010E94F6128EE796E00E946B0B2B
:102D8000C701B6010E94F612DF91CF911F910F91FA
:102D9000FF90EF90DF90CF90BF90AF909F908F907B
:102DA0007F900C948413EF92FF920F931F93CF9315
:102DB0007C018B01C42F8CED95E00E946B0BC70149
:102DC0000E946B0B80ED95E00E946B0BC8010E9486
:102DD0006B0B85EC95E00E946B0B8AEB95E0CC23A6
:102DE00011F080EC95E00E946B0BCF911F910F9139
:102DF000FF90EF900C948413CF92DF92EF92FF92AA
:102E00000F931F93CF93DF938C01EB0169017A013C
:102E100080EA95E00E946B0BC8010E946B0B84E96D
:102E200095E00E946B0BCE010E946B0B89E895E048
:102E30000E946B0BC701B6010E94F612DF91CF9181
:102E40001F910F91FF90EF90DF90CF900C9484131F
:102E5000009711F00C94A51290E080E008950F9374
:102E60001F93CF93DF93C091FB02D091FC02882384
:102E700021F0C091FD02D091FE02209709F45FC0BD
:102E8000613009F456C008F451C0623009F454C0EE
:102E900087EB99E00E946B0B6C8170E090E080E022
:102EA0004AE00E94B2128CE999E00E946B0BC801C3
:102EB0000E946B0B87E899E00E946B0B6A8D7B8DFB
:102EC0008C8D9D8D0091B3041091B4042091B504B4
:102ED0003091B604601B710B820B930B0E94F612AB
:102EE00085E799E00E946B0B6E8D7F8D88A199A17B
:102EF0000091B3041091B4042091B5043091B6044C
:102F0000601B710B820B930B0E94F61284E699E012
:102F10000E946B0BCE010D960E94281781E699E066
:102F2000DF91CF911F910F910C9429130AE519E0BD
:102F3000AFCF01E519E0ACCF09E419E0A9CFDF91EB
:102F4000CF911F910F9108959091BB04911104C0EE
:102F50009091BC04992371F09091BD0491110AC025
:102F60006091C204882321F0813021F46091C30470
:102F70000C942F170895CF93DF93EC016E838CE3AD
:102F800095E00E946B0B8F8198850E94281783E340
:102F900095E00E946B0B8C81082E000C990B0E940F
:102FA000F91289E295E00E946B0B8E8181110AC0B3
:102FB00087E195E00E946B0B86E295E0DF91CF916F
:102FC0000C94291380E295E0F5CF60E080910C012C
:102FD00090910D010E94BB1760E080910E019091CD
:102FE0000F010E94BB1760E08091100190911101C8
:102FF0000E94BB1760E080911201909113010E9422
:10300000BB1760E080911401909115010E94BB17DD
:1030100060E080911601909117010E94BB1760E05B
:1030200080911801909119010E94BB1780911A019B
:1030300090911B01009719F060E00E94BB1760E0BF
:1030400080911C0190911D010C9437131F93CF9315
:10305000DF93EC01162F8E81882321F060E0CE01F2
:103060000E94BB178D81813021F460E08C810E9429
:10307000FC061C836D81812F0E942A078D8181307F
:1030800021F460E08C810E94FC068FE695E00E94AE
:103090006B0B8F8198850E94281786E595E00E942A
:1030A0006B0B8C81082E000C990B0E94F912DF919A
:1030B000CF911F910C948413CF93DF93EC010E9466
:1030C00026188C810E94D30621E0892B09F420E088
:1030D0002A878C810E94D30621E0892B09F420E005
:1030E0002B878C810E94D30621E0892B09F420E0F4
:1030F0002C871D8A1E8A1F8A188EDF91CF91089512
:103100009F92AF92BF92CF92DF92EF92FF920F9376
:103110001F93CF93DF938A01452B09F468C0E9011F
:103120006B016596FC016081CE010E94A90DFC0136
:10313000BB24BA94892B09F0B5807601E894F7F89E
:10314000AA24A3946701C00ED11E992493943097AA
:1031500009F44DC0AA2009F43FC08481843069F08D
:10316000853049F1823079F5DF010D900020E9F7D3
:103170001197CD018E1B9F0B07C00190F081E02DB0
:1031800090E080E0309781F79F77E816F90621F507
:10319000D801AC15BD05E1F46B2DCE01DF91CF91C7
:1031A0001F910F91FF90EF90DF90CF90BF90AF9065
:1031B0009F900C94A90DA081B181FD0134961396C6
:1031C0008C9190E0E2CF90E080E0F0E0E0E0DDCFB5
:1031D0009D9181919817E9F2A9246B2DCE010E944F
:1031E000A90DFC01892B09F4B2CFB580B0CF90E0D6
:1031F00080E0DF91CF911F910F91FF90EF90DF90D2
:10320000CF90BF90AF909F900895FC0120813181B5
:10321000C9014A964281538164817581009759F0B2
:10322000D9015E96EC91E03211F090E080E00097D9
:1032300011F00C94801890E080E00895CF93DF9314
:10324000EB010E940519009741F0FC012481263012
:1032500021F48081DF91CF9108958881FBCFCF92B7
:10326000DF92EF92FF92CF93DF9300D000D01F92B6
:10327000CDB7DEB70E940519DC01009709F445C0FF
:103280001496EC911497E250ED3008F03EC0F0E057
:10329000E45BF64E0C9496377519851973198719E6
:1032A0005919851985198519671985196719851996
:1032B0008B19CC908C2D0F900F900F900F900F903A
:1032C000DF91CF91FF90EF90DF90CF900895CD9058
:1032D000DD90ED90FC908FEFC816D104E104F1046D
:1032E00049F340F312C08D919C910E94CE0E3A8317
:1032F0004B835C836D83CA80DB80EC80FD80223051
:1033000051F3233041F3213051F0C12CD3CF8D91B3
:103310009C910496EACFCD90DD90ED90FC9020E05A
:1033200030E0A901C701B6010E94913787FDEDCFBA
:1033300020E030E04FE753E4C701B6010E94BE34FD
:1033400018161CF3C701B6010E946237C62EB2CF11
:10335000CF92DF92EF92FF92CF93DF9300D000D015
:103360001F92CDB7DEB70E940519DC01009709F462
:103370004AC01496EC911497E250ED3008F043C027
:10338000F0E0EB53F64E0C949637F319031AF1194B
:10339000071AD219031A031A031AE219031AE719B2
:1033A000031A0B1A6C9170E090E080E00F900F9080
:1033B0000F900F900F90DF91CF91FF90EF90DF90E3
:1033C000CF9008956D917D918D919C91EFCF8D91CE
:1033D0009D910D90BC91A02DB7FD15C0BC01CD01F4
:1033E000E5CF8D919C910E94CE0E3A834B835C83F6
:1033F0006D83CA80DB80EC80FD80223041F1233078
:1034000041F1213061F060E070E0CB01CFCF8D91D0
:103410009C910496E8CFCD90DD90ED90FC9020E05B
:1034200030E0A901C701B6010E94913787FDEBCFBB
:103430002FEF3FEF4FE75FE4C701B6010E94BE34B4
:1034400018160CF3C701B6010E946237AFCFF7FC24
:10345000DACFC701B601AACF8F929F92AF92BF92E7
:10346000CF92DF92EF92FF920F931F93CF93DF9350
:1034700000D000D000D0CDB7DEB749015A016701B6
:103480007801FB0101900020E9F73197E61BF70B6B
:103490009A8389837C836B83ED838F2F8F778E83D1
:1034A000CE0101960E9405190097B9F0FC01248114
:1034B0002A3041F02C3089F480819181A281B3813E
:1034C000B7FD0BC0CE0101960E94A819861697067B
:1034D000A806B90610F44B015C01C501B401C6167B
:1034E000D706E806F90610F4C701B60126960FB60E
:1034F000F894DEBF0FBECDBFDF91CF911F910F912A
:10350000FF90EF90DF90CF90BF90AF909F908F9003
:1035100008954F925F926F927F92AF92BF92CF9237
:10352000DF92EF92FF920F931F93CF93DF939091CF
:10353000BB04911105C09091BC04992309F4E8C023
:103540009091BD049111E4C0823008F0E1C0811176
:103550000AC0E091FB02F091FC02309759F481E03F
:103560008093C204D5C0E091FD02F091FE02309735
:1035700009F487C09089992309F480C001891289D0
:1035800023893489041715072607370708F482C0F2
:10359000882309F4CCC082E08093C304B9C08F892A
:1035A0008F5F8F8B9D89891708F4ADC08FA58436F6
:1035B00058F40E946634A30192010E94E2358FA55F
:1035C000681710F01F8A9FC01F8A888D882351F0CA
:1035D0009D899501281B31099217130609F05CF4A7
:1035E000890F8D8B8B89823008F08DC0B701A601C1
:1035F0000E943E1588C087ED90E00E946B0B6D899C
:1036000070E090E080E04AE00E94B21284ED90E029
:103610000E942913E7CFCD8EDE8EEF8EF8A273C005
:103620008DA5811170C089A19AA1ABA1BCA1A701F0
:103630009601281B390B4A0B5B0BDA01C901B7FD58
:1036400062C08DA19EA1AFA1B8A58C199D09AE093C
:10365000BF09181619061A061B060CF054C08FA5D0
:10366000843610F00DA7BECF0E946634A3019201EC
:103670000E94E2358FA56817A8F345C0882309F496
:103680006ECF81E089CF1092C204E091FB02F091ED
:10369000FC0208C08823B9F31092C304E091FD0234
:1036A000F091FE02309781F00091B7041091B804B8
:1036B0002091B9043091BA04040F151F261F371F3B
:1036C000018B128B238B348B6A017B01182FCBEF7C
:1036D000D2E0AA24AA94B12C94E6492E512C612C54
:1036E000712C01E08C89882371F08EA5893011F04E
:1036F000181309C08A89813009F48DCF08F44FCF9F
:10370000823009F48DCF6E9633E0C733D30751F77B
:10371000DF91CF911F910F91FF90EF90DF90CF90AD
:10372000BF90AF907F906F905F904F90089582E030
:1037300017CFBF92CF92DF92EF92FF920F931F931A
:10374000CF93DF93EC01198D1F3F81F0612F4596D8
:103750000E94A90DFC018081898F309709F477C000
:1037600014828FEF8583BF01812F76C06C0135E015
:10377000C30ED11CE880F9808F89882341F0C601EF
:103780000E943B0EE62FF72F182F309749F71F891D
:10379000988D191324C0103109F459C0110F6D8987
:1037A0007E89D701ED91FC91B4E01B9FA00111240B
:1037B000C616D70609F044C00190F081E02DBA0189
:1037C000C7010995009709F442C020E1F601DC0128
:1037D00001900D922A95E1F79E8B8D8B188F0D89A4
:1037E0001E898F8921E0280F2F8BE4E08E9FC00176
:1037F0001124080F191F90E1B92E203111F48FE028
:10380000B82EF6E0BF9EB0011124D701ED91FC91D6
:103810000190F081E02DC7010995F801938382831F
:10382000892B09F4B12CD801BC9211961C92012B62
:1038300071F0C6010E943B0EE62FF72F182F8DCF97
:103840000480F581E02DC7010995009729F681E0F4
:103850008A8360E070E08FEFDF91CF911F910F912D
:10386000FF90EF90DF90CF90BF9008954F925F92BE
:103870006F927F928F929F92AF92BF92CF92DF9280
:10388000EF92FF920F931F93CF93DF9300D000D05E
:103890001F92CDB7DEB78C017B01B42E0E94190EAA
:1038A0006C01892B09F048C0C8010E94D50D8636ED
:1038B00009F4A9C124F5873229F08B3561F18232F0
:1038C00009F0A8C1D80115961C921E921497129661
:1038D0008D919C911397892B39F48D919C910E9425
:1038E000AE05F80193838283C8010E94A3106C0186
:1038F000892B11F5B701C8010E9482111DC08437C0
:1039000009F460C18B3709F47BC08E3609F082C19F
:1039100063EC71E060C180E4D70114968C93149736
:10392000E114F10421F08FEF8C9311968C93B11078
:103930001AC025E0C22ED12CC6010F900F900F9017
:103940000F900F90DF91CF911F910F91FF90EF900B
:10395000DF90CF90BF90AF909F908F907F906F90AF
:103960005F904F900895F8011286C8010E94190EC9
:10397000009751F56DE5C8010E94E50D8111DCCF7E
:10398000BA94D8011B966D907C90C3010E94991B3C
:10399000A82E4B01672B21F494E0C92ED12CCCCF5B
:1039A000F70161816F3F91F0C30145960E94A90D17
:1039B000DC011596AC92F701A1824B2DB401C80130
:1039C0000E94361C009739F06C01B6CFD7018C935A
:1039D00011968C93F2CFC8010E94190E0097A1F79F
:1039E0006DE5C8010E94E50D8111A6CF6CE2C8010A
:1039F0000E94E50D8111C5CF83E0C82ED12C9CCF4C
:103A000080E2F7018483E114F10419F08FEF8083E1
:103A10008183BB2009F48DCFD8011A961C92C8016E
:103A20000E94190E009781F66DE7C8010E94E50D0E
:103A3000811182CFBA94F801158214828281938118
:103A4000892B49F4808191810E94AE05D80113969B
:103A50009C938E931297C8010E94D50D8732F9F07E
:103A60008232E9F0C8010E94D50DD82E0E94C30D04
:103A7000882311F2F80112866D2DC8010E9475107D
:103A8000C8010E94D50DD82E0E94C30D8111F2CF1E
:103A9000D80112968D919C91892B41F47DCFC8015C
:103AA0000E94A3106C01892B09F046CFC8010E9427
:103AB000190E6C01892B09F03FCF6AE3C8010E94FF
:103AC000E50D882309F498CFD8011296ED91FC9169
:103AD000139714968D919C911597E80FF91F1482F6
:103AE00014966D917C9115977F771B966D907C90C5
:103AF0001C9712968D919C910496272F2F77BA2DA3
:103B0000B078AB2EA22AE894A7F89301AC017A2DE5
:103B1000C7010E9480186C01009761F5C3010E94E3
:103B2000991B482E4B01672B09F436CFC3010E9425
:103B3000991B582E962FC92ED72EC114D10409F4E3
:103B40002BCFF4015582D70111966C916F3F71F024
:103B5000C30145960E94A90DFC014582D70111962B
:103B60005C92B401C8010E94821107C0F701408233
:103B70005182F7CFB3010E941F124B2DB601C8012D
:103B80000E94361C6C01892B09F0D6CEC8010E9418
:103B9000190E6C01892B09F0CFCE6DE7C8010E9488
:103BA000E50D8111C9CE6CE2C8010E94E50D8823A4
:103BB00009F422CFC8010E94190E6C01892B09F467
:103BC0003ACFBACE86E0D70114968C93149781E051
:103BD0008C9368EB71E0C8010F900F900F900F90DD
:103BE0000F90DF91CF911F910F91FF90EF90DF9099
:103BF000CF90BF90AF909F908F907F906F905F908D
:103C00004F900C94F60D86E0F701848310826DEBE3
:103C100071E0E1CFC8010E94D50D4801FDE08F0E93
:103C2000911CB12C782CA92C803384F08A3384F435
:103C30003FE3B316A9F0D8011A961C92B394F4018D
:103C400081934F01C8010E94D50DEECF8B3281F3D5
:103C500093ED980F923060F3982F9F7D953441F348
:103C60000B0D111DD8011D961C92872D9A2D0E94B7
:103C7000CE0E3A834B835C836D838A819B81AC81BA
:103C8000BD812230A9F0233059F0213009F0B4CEA3
:103C90002EE0F701248380839183A283B3834CCEEB
:103CA0002AE0F701248380839183A283B38344CEE7
:103CB0002CE0F7CF4F925F926F927F92AF92BF92BC
:103CC000CF92DF92EF92FF920F931F93CF93DF93E8
:103CD000CDB7DEB7C25FD1090FB6F894DEBF0FBE15
:103CE000CDBF5E012EECA20EB11C82E091E0F50189
:103CF00091838083128214821382C5010596968B6C
:103D0000858B178A84E0808F8FEF818F168E878F47
:103D10009E012F5F3F4F790110E000E00E94C00735
:103D200060936402709365028093660290936702C9
:103D30008CE592E00E94BA0A97FD02C00C948C2B8D
:103D40000E94C00740906402509065026090660235
:103D5000709067026419750986099709409060029E
:103D60005090610260906202709063026415750564
:103D700086059705E8F20F37110561F48CE592E0AE
:103D80000E94DC0A892B31F08CE592E00E94BA0A8D
:103D90000A97A1F7E1E0F0E0EC0FFD1FE00FF11F43
:103DA00010820530110578F045E050E068EC71E0D4
:103DB000CE0101960E947E39892B29F486E797E08F
:103DC0000E942913E9C5F50160817181C50105963D
:103DD0000E94670EF501128200811181F501838135
:103DE0009481009751F0FC0120813181F5013483E9
:103DF0002383B8010E941512F1CF168ECF57DF4FE3
:103E0000B982A882C158D040CD57DF4F198218829D
:103E1000C358D040CB57DF4F19821882C558D040C5
:103E2000C957DF4F1882C758D04021E030E02C0F2F
:103E30003D1FC857DF4F39832883C858D040C55726
:103E4000DF4F1882CB58D040C457DF4FB982A882C9
:103E5000CC58D0404AE0B501665E7F4FCE018F5707
:103E60009F4F0E94361C8C01892B69F4C657DF4F87
:103E70008881CA58D040882331F0F501868D83FFB0
:103E800002C003E010E0CD57DF4F88819981C3580D
:103E9000D040009751F0CF57DF4FE881F981C158EA
:103EA000D040608171810E94151201151105F1F059
:103EB0008FEF94E00E946B0BF801EE0FFF1FE356AB
:103EC000FC4F859194910E946B0B8CEF94E00E94C3
:103ED00029138CE592E00E94DC0A181619060CF0F2
:103EE0005BC58CE592E00E94BA0AF3CFCF57DF4F53
:103EF000B982A882C158D0408EEC91E0CD57DF4FF7
:103F000099838883C358D04083E0CB57DF4F8883A1
:103F1000C558D040CA57DF4F1881C658D0401078D6
:103F20001068CA57DF4F1883C658D040CE018F574C
:103F30009F4F0E940519009709F42EC5FC0184814A
:103F4000882309F429C51068CA57DF4F1883C6585B
:103F5000D040CE018F579F4F0E940519DC0100977A
:103F600009F4D9C01496EC911497E250ED3008F0A2
:103F7000D2C0F0E0E254F04E0C94963790208B20A3
:103F80008E20BA208B208B208B208B20CB1F8B2068
:103F90007B208B20BE208D919D910D90BC91A02DFA
:103FA0008115F0E89F07A105B10508F0B4C0BC0178
:103FB000693D91E0790709F455C10CF0FDC16837FE
:103FC000F1E07F0709F486C60CF051C1673331E098
:103FD000730709F46DC50CF00EC16D3251E0750721
:103FE00009F485C40CF0FBC06C3291E0790709F448
:103FF00086C4693E93E0790709F413C70CF0B4C393
:104000006836710511F40C94F8290CF043C3653639
:10401000710511F40C9451280CF016C36436710527
:1040200009F079C00E94C0076B017C01C092360282
:10403000D0923702E0923802F092390284EC94E098
:104040000E94520C1092BB041092BD04E1EDF3E00B
:1040500081EC94E010823F968E179F07D9F7E0918C
:104060000103F0910203309719F084810E94EC075C
:10407000E0910303F0910403309719F084810E94CA
:10408000EC07E0910503F0910603309721F060E022
:1040900084810E94FC06E0910703F09108033097A9
:1040A00021F060E084810E94FC06E0910903F09118
:1040B0000A03309729F015A260E084810E94FC0673
:1040C0008CE191E00E946B0B80913A0290913B024F
:1040D000A0913C02B0913D02A7019601281B390B2B
:1040E0004A0B5B0BCA01B9010E94F6120E948413AD
:1040F0000E94E51751C48D919D910D90BC91A02D0A
:104100008C019D0110582F4F3F4F01151105214083
:10411000310508F44CCF89EA93E052CE8D919C9101
:104120000E94CE0EC251DF4F2883CE5ED040C151D7
:10413000DF4F3883CF5ED040C051DF4F4883C05F30
:10414000D040CF50DF4F5883C15FD040CE50DF4FBB
:104150006883C25FD040C151DF4FC880D980EA80F8
:10416000FB80CF5ED040223039F1233089F12130FD
:1041700091F608C08D919C910496D2CFCD90DD90A0
:10418000ED90FC9020E030E040E057ECC701B60134
:104190000E94913787FDBFCF20E03EEF4FEF56E4FE
:1041A000C701B6010E94BE3418160CF4B4CFC70183
:1041B000B6010E945B37FCCED701C6019058AF4FC5
:1041C000BF4F0097A140B10508F0A5CFB601F0CED2
:1041D000C11480E8D806E104F104C0F39CCF6F322B
:1041E000E1E07E0709F440C46633F1E07F0709F09F
:1041F00000CF60E05EC4633721E0720709F481C339
:104200003CF5693341E0740709F0F3CE00911201E7
:10421000109113010E94C007F801618B728B838B90
:10422000948BC584D684E784F088DC01CB018C0DA7
:104230009D1DAE1DBF1D858B968BA78BB08F81E01A
:1042400080A346E453E06CE473E081E593E02DC481
:10425000643751E0750709F4B8C3653781E0780722
:1042600009F0C7CE683D714009F478C095C3613943
:1042700091E0790709F440C4B4F56E37F1E07F07A7
:1042800009F41CC424F56D3731E0730709F0B1CE91
:10429000EE24EA94FE2C00E010E021E030E040E063
:1042A00050E062ED71E0C5010E942C1A9B01AC0147
:1042B000E0911201F09113012187328743875487DF
:1042C00064E673E08EE693E00E94FC1665C36238F4
:1042D00041E0740709F413C5603951E0750709F02E
:1042E00088CE60E00AC46B3981E0780709F42CC4F9
:1042F00064F46339E1E07E0709F404C46A39F1E04B
:104300007F0709F076CE60E020C46D3921E07207A6
:1043100009F440C4683D31E0730709F06ACE10EC3F
:10432000E12E17E2F12E09E010E021E030E040E05C
:1043300050E06CED71E0C5010E942C1A9B01AC01AC
:10434000E0911401F091150121873287438754874A
:1043500068E373E081E493E00E94FC16CF57DF4FDF
:10436000B982A882C158D0408CED91E0CD57DF4F83
:1043700099838883C358D04088E0CB57DF4F888328
:10438000C558D040CA57DF4F8881C658D040807882
:104390008068CA57DF4F8883C658D040CE018F57F8
:1043A0009F4F0E94A8196093270170932801809362
:1043B000290190932A0155C36F3942E0740709F42B
:1043C00023C40CF084C0653F81E0780709F404C47D
:1043D00054F5623EE1E07E0709F4BCC3C4F46C3DD1
:1043E00021E0720709F005CE15E3E12EF12C00E083
:1043F00010E022E030E040E050E065EE71E0C50101
:104400000E942C1A809114019091150175C4663E8A
:1044100031E0730709F486C4643F41E0740709F092
:10442000E8CD60E0DAC3683552E0750709F4E3C30C
:10443000C4F4603492E0790709F0DBCD15E3E12E96
:10444000F12C00E010E022E030E040E050E065EECA
:1044500071E0C5010E942C1A8091180190911901F8
:104460004BC46935E2E07E0709F4BCC36B35F2E06A
:104470007F0709F0BECD00911A0110911B010115B3
:10448000110509F489C20E94C007AB01BC01F80103
:10449000418B528B638B748B85859685A785B089FC
:1044A000840F951FA61FB71F858B968BA78BB08F88
:1044B000FF24F394F2A2C8010E94640CF801F4A254
:1044C00047EF52E06DEF72E082E093E0EEC26438B5
:1044D00023E0720709F4FCC30CF075C0643A42E0B3
:1044E000740709F432C40CF054C0603A82E07807D3
:1044F00009F07FCD10ECE12E17E2F12E09E010E07B
:1045000021E030E040E050E06CED71E0C5010E9438
:104510002C1A9B01AC01E0911A01F0911B0130971C
:1045200051F0258736874787508B68ED72E081EE22
:1045300092E00E94FC16CF57DF4FB982A882C15883
:10454000D0408CED91E0CD57DF4F99838883C358DD
:10455000D04088E0CB57DF4F8883C558D040CA573A
:10456000DF4F8881C658D04080788068CA57DF4FB7
:104570008883C658D040CE018F579F4F0E94A819FC
:104580006093230170932401809325019093260169
:1045900068C2693A92E0790709F483C36A3AE2E0B3
:1045A0007E0709F026CDE0911A01F0911B013097AA
:1045B00009F4F2C181E081A34BEA52E067EB72E0BB
:1045C0008CEB92E072C2603DF3E07F0709F4D7C341
:1045D000BCF4653833E0730709F472C3673843E00D
:1045E000740709F006CD80911C0190911D010E9475
:1045F000520C45E952E06BE972E080EA92E055C264
:10460000643354E0750709F4F0C3603685E0780739
:1046100009F0EFCC80910E0190910F01892B09F4E4
:10462000BBC115E3E12EF12C00E010E022E030E008
:1046300040E050E065EE71E0C5010E942C1A8091C7
:104640000E0190910F01EAC36636710509F4C7C6E1
:104650006736710509F05FCD0E94C0076B017C01D0
:104660008091BB0481110FC00E94A106C092B304C7
:10467000D092B404E092B504F092B604B701A6015A
:1046800080E00E943E1543E054E069E074E084E17C
:1046900094E00BC26C3D710509F481C40CF05AC062
:1046A0006936710509F441C7693C710509F033CDDC
:1046B000CF57DF4FB982A882C158D04081EFE82E92
:1046C00081E0F82ECD57DF4FF982E882C358D04001
:1046D00015E0CB57DF4F1883C558D040CA57DF4F7E
:1046E0008881C658D04080788068CA57DF4F888359
:1046F000C658D040CE018F579F4F0E942F190E945D
:104700008906CF57DF4FB982A882C158D040CD5714
:10471000DF4FF982E882C358D040CB57DF4F188370
:10472000C558D040CA57DF4F8881C658D0408078DE
:104730008068CA57DF4F8883C658D040CE018F5754
:104740009F4F0E94A8199B01AC016BE574E081E6C4
:1047500094E0BACD6D3D710509F459C4683E7340CB
:1047600009F0D9CC60E05EC3643125E0720709F43A
:10477000BAC30CF05CC0633344E0740709F455C35A
:10478000E4F56233744009F0C6CCCF57DF4FB982ED
:10479000A882C158D04089EE91E0CD57DF4F998370
:1047A0008883C358D04087E0CB57DF4F8883C558F4
:1047B000D040CA57DF4F8881C658D0408078806883
:1047C000CA57DF4F8883C658D040CE018F579F4FBE
:1047D0000E94A8196B017C01C0920801D0920901C6
:1047E000E0920A01F0920B010E945C06A70196017B
:1047F0006BEE74E083EF94E067CD683394E0790763
:1048000009F465C36933744009F085CC81E0809375
:10481000BF058FEA95E0909301018093000141E08C
:1048200068EC74E083ED94E00E94D316B5C06F3558
:10483000F5E07F0709F459C30CF041C0653135E05C
:10484000730709F44CC36E35754009F064CCCF573B
:10485000DF4FB982A882C158D04089EE91E0CD5790
:10486000DF4F99838883C358D04087E0CB57DF4F11
:104870008883C558D040CA57DF4F8881C658D0407A
:1048800080788068CA57DF4F8883C658D040CE01F1
:104890008F579F4F0E94A8196B017C01C09208019D
:1048A000D0920901E0920A01F0920B010E945C068D
:1048B000A701960163EA74E08BEA94E005CD6436C3
:1048C00055E0750709F463C36536754009F023CCDC
:1048D00081E08093990589E895E0909301018093A8
:1048E000000141E060E874E08BE894E09DCF61E076
:1048F00080911001909111010E94BB174DC060E0A2
:10490000F7CFEE24EA94FE2C00E010E021E030E046
:1049100040E050E062ED71E0C5010E942C1A9B015D
:10492000AC01E0911001F09111012187328743879A
:1049300054876FE873E089E993E00E94FC16CF5733
:10494000DF4FB982A882C158D04082ED91E0CD57A7
:10495000DF4F99838883C358D04089E0CB57DF4F1E
:104960008883C558D040CA57DF4F8881C658D04089
:1049700080788068CA57DF4F8883C658D040CE0100
:104980008F579F4F0E94A81960932B0170932C01A1
:1049900080932D0190932E01C5010E948712CE5065
:1049A000DF4F0FB6F894DEBF0FBECDBFDF91CF91C2
:1049B0001F910F91FF90EF90DF90CF90BF90AF903D
:1049C0007F906F905F904F90089510ECE12E17E26A
:1049D000F12E09E010E021E030E040E050E06CED25
:1049E00071E0C5010E942C1A9B01AC01E0911001FD
:1049F000F0911101258736874787508B62E873E075
:104A00008BE893E00E94FC16CF57DF4FB982A88253
:104A1000C158D0408CED91E0CD57DF4F998388830A
:104A2000C358D04088E0CB57DF4F8883C558D0406B
:104A3000CA57DF4F8881C658D04080788068CA57EF
:104A4000DF4F8883C658D040CE018F579F4F0E94BA
:104A5000A81960932F0170933001809331019093D6
:104A600032010E94AC0E98CF0091100110911101FB
:104A70000E94C007F801618B728B838B948BC58475
:104A8000D684E784F088DC01CB018C0D9D1DAE1D22
:104A9000BF1D858B968BA78BB08F81E080A343E7EA
:104AA00053E069E773E08EE793E00E945C1374CFF4
:104AB00061E080911201909113011ECF10ECE12E64
:104AC00017E2F12E09E010E021E030E040E050E094
:104AD0006CED71E0C5010E942C1A9B01AC01E091C4
:104AE0001201F0911301258736874787508B66E5C1
:104AF00073E08FE593E0E8CB61E080911401909141
:104B00001501FACE00911401109115010E94C00701
:104B1000F801658776878787908BC184D284E38488
:104B2000F484DC01CB018C0D9D1DAE1DBF1D818B5E
:104B3000928BA38BB48B81E0858B48E253E06EE2CD
:104B400073E083E393E0B1CF61E08091160190912F
:104B50001701D2CE10ECE12E17E2F12E09E010E0A1
:104B600021E030E040E050E06CED71E0C5010E94D2
:104B70002C1A9B01AC01E0911601F09117012187DD
:104B800032874387548769E173E082E293E00E94B1
:104B9000FC1667CF00911601109117010E94C00703
:104BA000F801658776878787908BC184D284E384F8
:104BB000F484DC01CB018C0D9D1DAE1DBF1D818BCE
:104BC000928BA38BB48B81E0858B48E053E06EE041
:104BD00073E083E193E069CF61E0809118019091E7
:104BE00019018ACE80911A0190911B0161E0009712
:104BF00009F082CED1CE80911A0190911B0160E024
:104C0000009709F079CEC8CEEE24EA94FE2C00E09D
:104C100010E021E030E040E050E062ED71E0C501DD
:104C20000E942C1A9B01AC01E0911A01F0911B012A
:104C3000309779F0211531054105510521F0218783
:104C400032874387548767EE72E081EF92E00E94DB
:104C5000FC16CF57DF4FB982A882C158D04082EDF1
:104C600091E0CD57DF4F99838883C358D04089E0C6
:104C7000CB57DF4F8883C558D040CA57DF4F888154
:104C8000C658D04080788068CA57DF4F8883C6589E
:104C9000D040CE018F579F4F0E942F198093220141
:104CA0007BCEE0911A01F0911B01309709F474CE8C
:104CB00011A242EC52E06DEC72E082ED92E0F5CE92
:104CC00061E080911C0190911D010E94371364CE18
:104CD00060E0F7CF15E3E12EF12C00E010E022E0D8
:104CE00030E040E050E065EE71E0C5010E942C1A12
:104CF00080911001909111010E9426184DCE15E36C
:104D0000E12EF12C00E010E022E030E040E050E045
:104D100065EE71E0C5010E942C1A809112019091FC
:104D20001301EACF15E3E12EF12C00E010E022E0C0
:104D300030E040E050E065EE71E0C5010E942C1AC1
:104D40008091160190911701D7CF80911A0190910F
:104D50001B01892B09F420CE15E3E12EF12C00E094
:104D600010E022E030E040E050E065EE71E0C50187
:104D70000E942C1A80911A0190911B01BDCF15E35E
:104D8000E12EF12C00E010E022E030E040E050E0C5
:104D900065EE71E0C5010E942C1AF62E00911C01EF
:104DA00010911D01F8018485882331F060E0808135
:104DB0000E94FC06F8011486F801F08261E08F2D54
:104DC0000E942A0760E0F80180810E94FC0681E5CC
:104DD00092E00E946B0BF8018081082E000C990B69
:104DE0000E94F9120E948413D7CD80910C019091FA
:104DF0000D01892B09F4D0CD15E3E12EF12C00E053
:104E000010E022E030E040E050E065EE71E0C501E6
:104E10000E942C1A80910C0190910D010E945C1847
:104E2000BBCD61E08FEA95E067CDCF57DF4FB98208
:104E3000A882C158D04021EFE22E21E0F22ECD57BA
:104E4000DF4FF982E882C358D04015E0CB57DF4FDF
:104E50001883C558D040CA57DF4F8881C658D04004
:104E600080788068CA57DF4F8883C658D040CE010B
:104E70008F579F4F0E942F190E948906CF57DF4FEF
:104E8000B982A882C158D040CD57DF4FF982E8825D
:104E9000C358D040CB57DF4F1883C558D040CA57AE
:104EA000DF4F8881C658D04080788068CA57DF4F6E
:104EB0008883C658D040CE018F579F4F0E94A819B3
:104EC0009B01AC016CED74E082EE94E0FDC91092A0
:104ED000BF0540E064EB74E08FEB94E0A5CC61E0AB
:104EE00089E895E009CD60E0FBCFCF57DF4FB9826D
:104EF000A882C158D04091EFE92E91E0F92ECD570C
:104F0000DF4FF982E882C358D04015E0CB57DF4F1E
:104F10001883C558D040CA57DF4F8881C658D04043
:104F200080788068CA57DF4F8883C658D040CE014A
:104F30008F579F4F0E942F190E948906CF57DF4F2E
:104F4000B982A882C158D040CD57DF4FF982E8829C
:104F5000C358D040CB57DF4F1883C558D040CA57ED
:104F6000DF4F8881C658D04080788068CA57DF4FAD
:104F70008883C658D040CE018F579F4F0E94A819F2
:104F80009B01AC0164E974E08AE994E09DC9109248
:104F9000990540E06CE674E087E794E045CCCF5794
:104FA000DF4FB982A882C158D04087EF91E0CD573A
:104FB000DF4F99838883C358D04088E0CB57DF4FB9
:104FC0008883C558D040CA57DF4F8881C658D04023
:104FD00080788068CA57DF4F8883C658D040CE019A
:104FE0008F579F4F0E94A8196B017C01C0924F02FE
:104FF000D0925002E0925102F09252020E94AC0E06
:10500000A701960161E474E080E594E05DC9C251B6
:10501000DF4F1882CE5ED040CF57DF4FB982A882D3
:10502000C158D04080E092E0CD57DF4F998388830C
:10503000C358D04085E0CB57DF4F8883C558D04058
:10504000CA57DF4F8881C658D04080788068CA57D9
:10505000DF4F8883C658D040BE0162517F4FCE01DA
:105060008F579F4F0E941E19182F81E395E011233F
:1050700011F08BE195E0909306018093050185E0A6
:10508000111186E0809307010E94AC0E4FE154E0BD
:10509000112311F044E254E06AE274E086E394E004
:1050A00004CD0E94C0076B017C01C0923A02D092ED
:1050B0003B02E0923C02F0923D0284EC94E00E94BC
:1050C000520C1092BC041092BD04C092B304D09252
:1050D000B404E092B504F092B60481E08093BB047E
:1050E0008DE093E00E94F80B8BE293E00E94F80BB6
:1050F0000BEF12E0F8018489882341F08289813026
:1051000009F03EC1C58ED68EE78EF0A2025E1F4F1B
:10511000F3E007331F0771F7E1EDF3E081EC94E072
:1051200010823F968E179F07D9F7E091FB02F0910E
:10513000FC02309721F0118A128A138A148AE091B6
:10514000FD02F091FE02309721F0118A128A138A33
:10515000148AE0910903F0910A033097A9F0118AAB
:10516000128A138A148A158A168A178A108E118E4B
:10517000128E138E148E158E168E178E10A212A2FA
:1051800013A214A281E085A38DE092E00E9429136E
:1051900084EC91E00E946B0B609108017091090111
:1051A00080910A0190910B010E94F61282EB91E02E
:1051B0000E946B0B80910001909101018F5A9540E4
:1051C00009F40AC18CE591E00E946B0B8EE991E035
:1051D0000E946B0B60914F027091500280915102BE
:1051E000909152020E94F6120E948413E0902F01C7
:1051F000F0903001009131011091320120912B018A
:1052000030912C0140912D0150912E0160916E053D
:105210008AE991E00E948E16E0905405F0905505C1
:105220000091560510915705209150053091510578
:10523000409152055091530560914D0585E991E0EB
:105240000E948E162091270130912801409129015A
:1052500050912A016091370580E991E00E945F1624
:105260002091240530912505409126055091270570
:10527000609121058AE891E00E945F16E090230189
:10528000F090240100912501109126012091220126
:1052900030E050E040E06091E00484E891E00E945A
:1052A0008E16609106058FE791E00E94421660918C
:1052B000C70484E791E00E9442164091BF056091C7
:1052C000B5058BE691E00E94161640919905609114
:1052D0008F0582E691E00E94161680913A02909125
:1052E0003B02A0913C02B0913D02E0910C01F09193
:1052F0000D0180839183A283B383E0910E01F0912D
:105300000F0180839183A283B383E0911001F09118
:10531000110180839183A283B383E0911201F09104
:10532000130180839183A283B383E0911401F091F0
:10533000150180839183A283B383E0911601F091DC
:10534000170180839183A283B383E0911801F091C8
:10535000190180839183A283B383E0911A01F091B4
:105360001B01309721F080839183A283B383E09166
:105370001C01F0911D0180879187A287B3870CCB18
:10538000823009F0C3CE41A452A463A474A460E0A7
:1053900070E0CB01141415041604170434F40E94B1
:1053A0006634A30192010E94E2356C0D7D1D8E1DB5
:1053B0009F1DF80161A372A383A394A381A592A565
:1053C000A3A5B4A58C0D9D1DAE1DBF1D85A396A3E1
:1053D000A7A3B0A715A69ACE8FE591E0F5CE809150
:1053E000BB0481110C94DE1E0E94E5170C94DE1E96
:1053F000C251DF4F1882CE5ED040CF57DF4FB98207
:10540000A882C158D04086E092E0CD57DF4F998303
:105410008883C358D04086E0CB57DF4F8883C55878
:10542000D040CA57DF4F8881C658D0408078806806
:10543000CA57DF4F8883C658D040BE0162517F4FA4
:10544000CE018F579F4F0E941E19182F0E94C00730
:105450002091BB04211166C01093BC04112369F193
:105460006093B3047093B4048093B5049093B6042E
:105470000E94A1068DE093E00E94F80B8BE293E07E
:105480000E94F80BE091FB02F091FC02309721F0B2
:10549000118A128A138A148AE091FD02F091FE02A9
:1054A000309721F0118A128A138A148A4091BC0421
:1054B0006EEE73E088EF93E0B7C90E94A106E09119
:1054C0000103F0910203309719F084810E94EC07E8
:1054D000E0910303F0910403309719F084810E9456
:1054E000EC07E0910503F0910603309721F060E0AE
:1054F00084810E94FC06E0910703F0910803309735
:1055000021F060E084810E94FC06E0910903F091A3
:105510000A03309721F060E084810E94FC060E941B
:10552000AC0EC4CF1111C2CFFACFC251DF4F1882D7
:10553000CE5ED040CF57DF4FB982A882C158D0404D
:105540008DE092E0CD57DF4F99838883C358D040D8
:1055500086E0CB57DF4F8883C558D040CA57DF4F0E
:105560008881C658D04080788068CA57DF4F8883CA
:10557000C658D040BE0162517F4FCE018F579F4F1A
:105580000E941E19182F0E94C0076B017C01809198
:10559000BB04882309F4BCC01093BD04112309F493
:1055A0003DC0C092BE04D092BF04E092C004F0920D
:1055B000C1040E94A106E0910103F091020330971B
:1055C00019F084810E94EC07E0910303F091040339
:1055D000309719F084810E94EC078091C7048823DA
:1055E000B9F08091D504811113C084EC94E00E943D
:1055F000520CC092D604D092D704E092D804F09214
:10560000D90481E08093D504F8941092C60478946C
:10561000412F64ED73E083EE93E006C98091BE04F0
:105620009091BF04A091C004B091C104B701A6013C
:10563000481B590B6A0B7B0BEBEFF2E08489882344
:10564000A1F08289813009F048C0858D968DA78DA3
:10565000B0A10097A105B10541F0840F951FA61FC9
:10566000B71F858F968FA78FB0A37E9633E0E73361
:10567000F30721F78091C704882351F28091D50464
:10568000882331F2F8946091CC047091CD0480911C
:10569000CE049091CF044090D6045090D7046090EF
:1056A000D8047090D9046419750986099709C60E43
:1056B000D71EE81EF91EC092CC04D092CD04E09211
:1056C000CE04F092CF041092C60478941092D504C0
:1056D00084EC94E00E94520C9BCF823031F681A181
:1056E00092A1A3A1B4A1840F951FA61FB71F81A3E8
:1056F00092A3A3A3B4A385A196A1A7A1B0A5840F4B
:10570000951FA61FB71F85A396A3A7A3B0A7ADCFCC
:10571000112309F4AFCF61CF8A30910511F40C94B5
:10572000BB1EF70181937F010F5F1F4F0F371105DC
:1057300011F00C948E1E0C94BB1ECB01BA010C947C
:10574000C138CB010C943838CB010C949C371F9294
:105750000F920FB60F9211242F933F938F939F9325
:10576000AF93BF938091540290915502A09156023D
:10577000B09157023091530223E0230F2D3758F593
:105780000196A11DB11D2093530280935402909362
:105790005502A0935602B0935702809158029091FF
:1057A0005902A0915A02B0915B020196A11DB11D50
:1057B0008093580290935902A0935A02B0935B02CF
:1057C000BF91AF919F918F913F912F910F900FBEFD
:1057D0000F901F90189526E8230F0296A11DB11D6A
:1057E000D2CF1F920F920FB60F9211242F933F9397
:1057F0004F935F936F937F938F939F93AF93BF93D9
:10580000EF93FF93E0912001F09121010995FF9121
:10581000EF91BF91AF919F918F917F916F915F9128
:105820004F913F912F910F900FBE0F901F901895A1
:105830001F920F920FB60F9211242F933F934F9305
:105840005F936F937F938F939F93AF93BF93EF93E8
:10585000FF93E0911E01F0911F010995FF91EF91D7
:10586000BF91AF919F918F917F916F915F914F9178
:105870003F912F910F900FBE0F901F9018951F9280
:105880000F920FB60F9211242F933F934F935F9374
:105890006F937F938F939F93AF93BF93EF93FF93F8
:1058A00080914B0290914C02A0914D02B0914E021A
:1058B000892B8A2B8B2BD1F190914A02E0914802DF
:1058C000F091490280818927808380914B029091D9
:1058D0004C02A0914D02B0914E02181619061A06FC
:1058E0001B069CF480914B0290914C02A0914D02BA
:1058F000B0914E020197A109B10980934B02909398
:105900004C02A0934D02B0934E02FF91EF91BF91D4
:10591000AF919F918F917F916F915F914F913F9147
:105920002F910F900FBE0F901F901895809104013A
:105930000E94EC07EACF1F920F920FB60F9211242C
:105940002F933F934F935F936F937F938F939F9387
:10595000AF93BF93EF93FF938CE592E00E94FC0A14
:10596000FF91EF91BF91AF919F918F917F916F9137
:105970005F914F913F912F910F900FBE0F901F900D
:1059800018951F920F920FB60F9211242F938F9399
:105990009F93EF93FF93E0916C02F0916D028081F1
:1059A000E0917202F091730282FD1BC090818091A0
:1059B00075028F5F8F7320917602821741F0E0911C
:1059C0007502F0E0E45AFD4F958F80937502FF91C8
:1059D000EF919F918F912F910F900FBE0F901F907D
:1059E00018958081F4CFEF92FF920F931F93CF937E
:1059F000DF93EC01162F7A01022F6C8382E08D83F6
:105A00008BEA91E098878F831E82188219821A820E
:105A10001B8262E0812F0E942A07098742E050E042
:105A2000B701CE010D960E9494391F86812F0E94E6
:105A3000D30621E0892B09F420E02A87812F0E94D8
:105A4000D30621E0892B09F420E02B87812F0E94C7
:105A5000D30621E0892B09F420E02C87188A198AC3
:105A60001A8A1B8A1C8A1D8A1E8A1F8A188E84E144
:105A7000898F1A8E1B8E1C8E1D8E1E8E1F8E18A255
:105A800019A21BA21AA21DA21CA2DF91CF911F91E5
:105A90000F91FF90EF9008953F924F925F926F9217
:105AA0007F928F929F92AF92BF92CF92DF92EF92AE
:105AB000FF920F931F93CF93DF9310925F02109288
:105AC0005E0288EE93E0A0E0B0E0809360029093E5
:105AD0006102A0936202B093630287E891E0909321
