:100000000C94F5050C94082F0C94E12E0C94E32F1E
:100010000C941D060C941D060C941D060C942F2F99
:100020000C941D060C941D060C941D060C941D06C4
:100030000C941D060C941D060C941D060C941D06B4
:100040000C94972E0C941D060C94B12F0C948B2FAE
:100050000C941D060C941D060C941D060C941D0694
:100060000C941D060C941D06546F6F44656570005A
:100070004E6F4D656D6F727900496E76616C696483
:10008000496E70757400496E636F6D706C65746550
:10009000496E70757400456D707479496E70757431
:1000A000004F6B00CDCCCC3D0AD7233C17B7D138DD
:1000B00077CC2B329595E6241FB14F0A00002041E2
:1000C0000000C84200401C4620BCBE4CCA1B0E5A51
:1000D000AEC59D74227D007B226C6576656C223AEC
:1000E00022303031222C22646576696365223A22FF
:1000F000434F4E54524F4C4C4552222C2264657350
:1001000063223A225052207468726573686F6C647F
:100110002063617070656420617420007B226C65CF
:1001200076656C223A22303030222C226465766962
:100130006365223A22534C4D222C22706172616D0C
:10014000223A2274696D657374616D705F70696EB7
:10015000222C2276616C7565223A007B226C6576D2
:10016000656C223A22303037222C2264657669632E
:1001700065223A22434F4E54524F4C4C4552222C4A
:10018000226576656E74223A22454E44222C2274F2
:10019000696D657374616D70223A004C4800524875
:1001A000004C455645525F4C48004C455645525F01
:1001B000524800534C4D004D4943524F53434F500A
:1001C00045004C49434B004C415345520050554D5E
:1001D00050320050554D500043554532004355456F
:1001E00000222C2274726163655F696E7465727699
:1001F000616C223A002C226163746976655F6C65DC
:10020000766572223A22007B226C6576656C223A12
:1002100022303030222C22646576696365223A22CE
:10022000434F4E54524F4C4C4552222C2270617217
:10023000616469676D223A2246495845445F5241DC
:1002400054494F222C2274696D656F7574223A00EF
:100250007B226C6576656C223A22303037222C2264
:10026000646576696365223A22434F4E54524F4C7F
:100270004C4552222C226576656E74223A225354E4
:10028000415254222C2274696D657374616D702221
:100290003A307D007B226C6576656C223A223030E4
:1002A00030222C22646576696365223A224D4943E7
:1002B000524F53434F5045222C22706172616D2280
:1002C0003A22747269676765725F70696E222C22C8
:1002D00076616C7565223A00464952454400746562
:1002E0007374004D4943524F53434F504500494E9C
:1002F000444550454E44454E54006D6F6465004C76
:100300004153455200434F4E54494E47454E5400C9
:100310006D6F6465004C41534552006475726174A1
:10032000696F6E004C415345520066726571756588
:100330006E6379004C415345520046495245440092
:1003400074657374004C415345520046495245440C
:1003500000746573740050554D50320064757261BD
:1003600074696F6E0050554D5032004649524544F5
:1003700000746573740050554D500064757261745B
:10038000696F6E0050554D50004649524544007407
:100390006573740043554532006475726174696F0A
:1003A0006E0043554532006672657175656E6379FE
:1003B0000043554532004649524544007465737404
:1003C00000435545006475726174696F6E00435552
:1003D00045006672657175656E6379004355450029
:1003E000A100960086007900700068007B226C6591
:1003F00076656C223A22303036222C226465736393
:10040000223A22436F6D6D616E64206E6F742066B8
:100410006F756E64227D006C657665725F66696CCF
:1004200074657200434F4E54524F4C4C455200730A
:10043000657373696F6E5F70617573656400434FB8
:100440004E54524F4C4C455200746573745F6D6F3F
:10045000646500434F4E54524F4C4C455200464940
:1004600052454400746573745F636861696E00434C
:100470004F4E54524F4C4C45520050554D50005029
:10048000554D5032006163746976655F70756D70AB
:1004900000434F4E54524F4C4C45520074726163AE
:1004A000655F696E74657276616C00434F4E54529D
:1004B0004F4C4C455200726174696F00434F4E546B
:1004C000524F4C4C4552007265696E666F7263659F
:1004D00064004C455645525F4C48007265696E6633
:1004E0006F72636564004C455645525F4C4800721C
:1004F0006174696F004C455645525F4C4800746901
:100500006D656F7574004C455645525F4C480072DE
:1005100065696E666F72636564004C455645525F4F
:100520005248007265696E666F72636564004C457F
:100530005645525F524800726174696F004C4556CF
:1005400045525F52480074696D656F7574004C4583
:100550005645525F524800227D007B226C657665CD
:100560006C223A22303036222C2264657363223AA0
:10057000220044495341524D45440041524D4544A7
:1005800000227D002C2264657363223A2200222C13
:100590002270696E223A007B226C6576656C223A85
:1005A00022303031222C22646576696365223A223A
:1005B00000222C22706172616D223A2270696E22D3
:1005C0002C2276616C7565223A007B226C6576651B
:1005D0006C223A22303030222C22646576696365C1
:1005E000223A2200222C2276616C7565223A002282
:1005F0002C22706172616D223A22007B226C65763A
:10060000656C223A22303030222C22646576696390
:1006100065223A220066616C73650074727565002C
:10062000222C2276616C7565223A00222C227061A0
:1006300072616D223A22007B226C6576656C223AEB
:1006400022303030222C22646576696365223A229A
:1006500000227D00222C2276616C7565223A2200F0
:10066000222C22706172616D223A22007B226C651D
:1006700076656C223A22303030222C22646576690D
:100680006365223A220044495341524D454400419A
:10069000524D454400227D002C2264657363223A4A
:1006A00022007B226C6576656C223A223030312242
:1006B0002C22646576696365223A224D4943524F84
:1006C00053434F5045222C2270696E223A006661D6
:1006D0006C73650074727565002C226475726174A8
:1006E000696F6E223A002C226672657175656E63C1
:1006F00079223A00222C2261726D6564223A007BD5
:10070000226C6576656C223A22303030222C2264CD
:100710006576696365223A220066616C73650074D0
:10072000727565002C226475726174696F6E223A6D
:1007300000222C2261726D6564223A007B226C6576
:1007400076656C223A22303030222C22646576693C
:100750006365223A220066616C7365007472756588
:1007600000222C2261726D6564223A007B226C6546
:1007700076656C223A22303030222C22646576690C
:100780006365223A220066616C7365007472756558
:100790000066616C73650074727565002C22726569
:1007A000696E666F72636564223A00222C22617260
:1007B0006D6564223A007B226C6576656C223A2274
:1007C000303030222C22646576696365223A22003B
:1007D000027B226C6576656C223A22303030222C06
:1007E00022646576696365223A22434F4E54524F24
:1007F0004C4C4552222C22736B65746368223A225A
:1008000066722E696E6F222C2276657273696F6E26
:10081000223A2276322E302E30222C2262617564EA
:100820005F72617465223A3131353230302C227377
:1008300063686564756C65223A2246495845445F91
:10084000524154494F227D002C22656E645F7469C9
:100850006D657374616D70223A002C226576656E49
:1008600074223A224C49434B222C227374617274D5
:100870005F74696D657374616D70223A00222C2279
:1008800070696E223A007B226C6576656C223A2292
:10089000303037222C22646576696365223A220063
:1008A0002C22656E645F74696D657374616D70226E
:1008B0003A002C226576656E74223A225354494DD3
:1008C000222C2273746172745F74696D6573746134
:1008D0006D70223A007B226C6576656C223A22307C
:1008E0003037222C22646576696365223A224C41B6
:1008F000534552222C2270696E223A002C226576D2
:10090000656E74223A2254494D455354414D50224C
:100910002C2274696D657374616D70223A007B22BC
:100920006C6576656C223A22303038222C22646560
:1009300076696365223A224D4943524F53434F50E3
:1009400045222C2270696E223A002C226576656E53
:1009500074223A2254494D455354414D50222C2281
:1009600074696D657374616D70223A007B226C65E9
:1009700076656C223A22303039222C226465766901
:100980006365223A22534C4D222C2270696E223A22
:100990000000000000240027002A000000000025BD
:1009A0000028002B0000000000230026002900047E
:1009B0000404040404040402020202020203030306
:1009C0000303030102040810204080010204081000
:1009D00020010204081020000000080002010000AD
:1009E0000304070000000000000000444953415286
:1009F0004D45440041524D454400227D002C226467
:100A0000657363223A22007B226C6576656C223A1C
:100A100022303031222C22646576696365223A22C5
:100A2000534C4D222C2270696E223A0054494D4598
:100A30004F555400494E4143544956450041435493
:100A400049564500227D002C226F7269656E7461E3
:100A500074696F6E223A22002C22656E645F74699D
:100A60006D657374616D70223A00222C227374617B
:100A700072745F74696D657374616D70223A002CD5
:100A8000226576656E74223A225052455353222CC9
:100A900022636C617373223A22007B226C65766557
:100AA0006C223A22303037222C22646576696365E5
:100AB000223A225357495443485F4C4556455222E7
:100AC0002C2270696E223A002C227363686564756B
:100AD0006C65645F6174223A002C227461726765F0
:100AE00074223A007B226C6576656C223A223030A3
:100AF00036222C226572726F725F636F6465223AD0
:100B000022455F50454E44494E475F46554C4C2266
:100B10002C2264657363223A2250656E64696E67A5
:100B200020616374696F6E207175657565206675E7
:100B30006C6C20E2809420616374696F6E20647233
:100B40006F70706564222C22616374696F6E5F74CC
:100B5000797065223A005354494D00494E46555329
:100B6000494F4E00494E465553494F4E00544F4E43
:100B70004500544F4E45004C415345520050554D91
:100B8000505F320050554D50004355455F32004391
:100B90005545002C22656E645F74696D65737461E0
:100BA0006D70223A00222C2273746172745F746932
:100BB0006D657374616D70223A002C226576656EE6
:100BC00074223A2200222C2270696E223A007B2283
:100BD0006C6576656C223A22303037222C226465AF
:100BE00076696365223A2200913011241FBECFEF4F
:100BF000D8E0DEBFCDBF12E0A0E0B1E0ECEEFAE756
:100C000002C005900D92A634B107D9F725E0A6E4FD
:100C1000B2E001C01D92AD3FB207E1F715E0C5EFAC
:100C2000D5E004C02197FE010E94673BC43FD10775
:100C3000C9F70E94E6330C94743D0C940000CF93E6
:100C4000DF93EC0188819981DC01ED91FC910190A9
:100C5000F081E02D64E270E00995009741F02FE10A
:100C6000FC01238321E02283DF91CF91089521E0CD
:100C70002A83FACFCF92DF92EF92FF920F931F93C6
:100C80007E2DEFE0F3E0128A138A51E0548B658BDE
:100C9000668B178A108E69E066A764E667A712AABA
:100CA00064E06093990310925D0363E060935E03D8
:100CB00010925F031092600310926103109262031E
:100CC000C0909905D0909A05E0909B05F0909C0506
:100CD000C0926303D0926403E0926503F0926603CE
:100CE00010926703709368030C0D1D1D2E1D3F1D90
:100CF0000093690310936A0320936B0330936C0392
:100D0000FC0181859285A385B48580936D039093C2
:100D10006E03A0936F03B09370031092710387E08A
:100D200080937203009373031093740320937503ED
:100D3000309376038091070590910805A0910905ED
:100D4000B0910A058093770390937803A093790379
:100D5000B0937A0350937B0340937C0310927D03FE
:100D600010927E0310927F03109280038091CB0437
:100D70009091CC04A091CD04B091CE0480938103D6
:100D800090938203A0938303B09384031F910F91E8
:100D9000FF90EF90DF90CF9008956093CB04709315
:100DA000CC048093CD049093CE0430919903EDE56B
:100DB000F3E020E023130DC03091D603EAE9F3E01D
:100DC00020E02317B1F04081413071F02F5F3A9657
:100DD000F8CF4081413019F02F5F3A96EBCF668310
:100DE000778380879187F8CF668377838087918721
:100DF000EDCF089590912103992339F090913F030D
:100E000021E030E0992319F0089530E020E09EE1E0
:100E1000929FF001939FF00D1124E15FFC4F858BB1
:100E2000178AF2CFE5EEF3E010823F9684E0E53DCD
:100E3000F807D1F70895833081F028F4813099F0D4
:100E40008230A9F008958730A9F08830C9F0843045
:100E5000B1F4809180008F7D03C0809180008F77F6
:100E600080938000089584B58F7784BD089584B5FC
:100E70008F7DFBCF8091B0008F778093B000089575
:100E80008091B0008F7DF9CFCF93DF93282F30E092
:100E9000F901E952F64F8491F901ED53F64FD491DF
:100EA000F901E155F64FC491CC23A1F081110E94C4
:100EB0001B07EC2FF0E0EE0FFF1FEB55F64FA5914F
:100EC000B491EC91ED2381E090E009F480E0DF91B2
:100ED000CF91089580E090E0FACF1F93CF93DF93F6
:100EE000282F30E0F901E952F64F8491F901ED53D2
:100EF000F64FD491F901E155F64FC491CC23A9F0F6
:100F0000162F81110E941B07EC2FF0E0EE0FFF1F40
:100F1000E556F64FA591B4918FB7F894EC91111165
:100F200008C0D095DE23DC938FBFDF91CF911F9156
:100F30000895DE2BF8CFCF93DF9390E0FC01ED53C3
:100F4000F64F24918155964FFC0184918823C9F076
:100F500090E0880F991FFC01EF56F64FA591B491D0
:100F6000FC01E556F64FC591D49161110DC09FB7B4
:100F7000F8948C91209582238C9388812823288350
:100F80009FBFDF91CF910895623051F49FB7F894DD
:100F90003C91822F809583238C93E8812E2BEFCF79
:100FA0008FB7F894EC912E2B2C938FBFEACF3FB7DD
:100FB000F89480916A0290916B02A0916C02B091BA
:100FC0006D0226B5A89B05C02F3F19F00196A11D03
:100FD000B11D3FBFBA2FA92F982F8827BC01CD0183
:100FE000620F711D811D911D42E0660F771F881FE2
:100FF000991F4A95D1F708958F929F92AF92BF9211
:10100000CF92DF92EF92FF920E94D7074B015C01D3
:1010100084E6C82ED12CE12CF12C0E94D707681948
:1010200079098A099B09683E734081059105A8F3F7
:1010300021E0C21AD108E108F10888EE880E83E0A9
:10104000981EA11CB11CC114D104E104F10429F7BC
:10105000FF90EF90DF90CF90BF90AF909F908F90D8
:1010600008952FB7F894609166027091670280919D
:101070006802909169022FBF08950F931F93CF9339
:10108000DF93C0910D03D0910E03209781F081E092
:101090008A830E943108088519852A853B85601B53
:1010A000710B820B930B6C837D838E839F83DF9107
:1010B000CF911F910F910895089590910401891384
:1010C0000BC0E0EDF7E0E4919FEF90930401E13075
:1010D00049F028F0E23061F060E00C946D07109266
:1010E0006E00FACF90916F009D7F90936F00F4CFC8
:1010F000909170009D7F9093700091E09093B0006C
:101100009091B100987F94609093B1001092B300D9
:10111000E3CF4F925F926F927F928F929F92AF92A6
:10112000BF92CF92DF92EF92FF920F931F93CF93D4
:10113000DF9300D000D01F92CDB7DEB78B0129011D
:101140003A01909104018917C9F09F3F09F47EC0CC
:101150000F900F900F900F900F90DF91CF911F91F4
:101160000F91FF90EF90DF90CF90BF90AF909F9046
:101170008F907F906F905F904F900895E0EDF7E033
:1011800094919D8397FDE4CF61E00E949B078D8140
:10119000882321F09D81923009F04AC14801B12C89
:1011A000A12C60E072E18AE790E0A50198010E941D
:1011B000B33929833A834B835C8369017A0181E0E7
:1011C000C81AD108E108F1089FEFC916D104E1045B
:1011D000F10409F00CF401C160E472E48FE090E0E6
:1011E000A50198010E94B33969017A0181E0C81A0A
:1011F000D108E108F1089D81923009F0A2C08FEF7B
:10120000C816D104E104F10409F00CF4E6C160E968
:1012100070ED83E090E0A50198010E94B339690167
:101220007A0191E0C91AD108E108F1088FEFC816D8
:10123000D104E104F10411F00CF07FC183E090913E
:10124000B100987F892B8093B100CFC080930401B7
:10125000E0EDF7E094919D839F3F09F479CF9130C1
:1012600041F150F0923009F446C09D8197FD70CF56
:1012700061E00E949B078ECF14BC15BC94B59260B0
:1012800094BD95B5916095BD282F30E0F901E155E9
:10129000F64FE491F0E0EE0FFF1FE556F64F459153
:1012A0005491F901ED53F64FE491E0934C021D8205
:1012B0006BCF109280001092810090918100986015
:1012C0009093810090918100916090938100282FEC
:1012D00030E0F901E155F64FE491F0E0EE0FFF1F29
:1012E000E556F64F45915491F901ED53F64FE491CF
:1012F000E0934B0249CF1092B0001092B100909150
:10130000B00092609093B0009091B1009160909382
:10131000B100282F30E0F901E155F64FE491F0E0FB
:10132000EE0FFF1FE556F64F45915491509356022C
:1013300040935502F901ED53F64FE491E0935702C3
:1013400023CF9FEFC916D104E104F10409F00CF496
:101350006DC068E478EE81E090E0A50198010E94FC
:10136000B33969017A0181E0C81AD108E108F108AE
:101370009D81992309F4FAC08FEFC816D104E104C6
:10138000F10411F00CF0FBC0EFC064E274EF80E0F8
:1013900090E0A50194010E94B33969017A0181E0CE
:1013A000C81AD108E108F10885E09FEFC916D104F9
:1013B000E104F10409F008F442CF62E17AE780E049
:1013C00090E0A50194010E94B33969017A0181E09E
:1013D000C81AD108E108F108E5C081E09D819111AA
:1013E0002ECF95B5987F892B85BD2FEF3FEFA901B3
:1013F000411451046104710409F043C09D8191308E
:1014000009F45EC0923009F46DC09111A1CEC7BC41
:10141000209351023093520240935302509354024E
:1014200080916E00826080936E0092CE82E0D6CF73
:10143000B12CA12C60E072E18AE790E0A50198014F
:101440000E94B33969017A0181E0C81AD108E10824
:10145000F108C114D10491E0E906F10404F591E02A
:101460008D81813011F680918100887F892B809356
:1014700081002FEF3FEFA901411451046104710471
:10148000F9F0D801AA0FBB1FA30192010E94D23923
:1014900028EE33E040E050E00E941C3AAFCF68E411
:1014A00078EE81E090E0A50198010E94B3396901CE
:1014B0007A0181E0C81AD108E108F10893E0D0CFA1
:1014C000D0928900C092880020934D0230934E0242
:1014D00040934F025093500280916F00826080933E
:1014E0006F0036CEC092B300209358023093590259
:1014F00040935A0250935B02809170008260809307
:10150000700026CE84E09FEFC916D104E104F104F7
:1015100009F008F466CFC980DA80EB80FC808AE0AD
:10152000F594E794D794C7948A95D1F781E0C81AC7
:10153000D108E108F10885E054CF68E478EE81E055
:1015400090E0A50198010E94B33969017A0181E018
:10155000C81AD108E108F1089FEFC916D104E104C7
:10156000F10411F00CF011CF84E069CE83E09FEF1D
:10157000C916D104E104F10409F00CF432CF62E1A0
:101580007AE780E090E0A50194010E94B3396901F7
:101590007A0181E0C81AD108E108F1089D819923F8
:1015A00009F4B0CF86E09FEFC916D104E104F1043D
:1015B00009F008F444CEC980DA80EB80FC809AE020
:1015C000F594E794D794C7949A95D1F781E0C81A17
:1015D000D108E108F10887E032CE82E030CEAF9248
:1015E000BF92CF92DF92EF92FF920F931F93CF9310
:1015F000DF936C017B018B01040F151FEB015E0172
:10160000AE18BF08C017D10759F06991D601ED9106
:10161000FC910190F081E02DC6010995892B79F7A5
:10162000C501DF91CF911F910F91FF90EF90DF9057
:10163000CF90BF90AF900895FC01538D448D252F1E
:1016400030E0842F90E0821B930B541710F0CF965C
:10165000089501970895FC01918D828D981761F08E
:10166000A28DAE0FBF2FB11D5D968C91928D9F5FA5
:101670009F73928F90E008958FEF9FEF0895FC0184
:10168000918D828D981731F0828DE80FF11D858D37
:1016900090E008958FEF9FEF0895FC01918D228DCA
:1016A000892F90E0805C9F4F821B91098F7399274F
:1016B00008958EE692E00E944D0B21E0892B09F4FB
:1016C00020E0822F089580E090E0892B29F00E948D
:1016D000590B81110C9400000895FC01A48DA80FF2
:1016E000B92FB11DA35ABF4F2C91848D90E0019664
:1016F0008F739927848FA689B7892C93A089B18984
:101700008C91837080648C93938D848D981306C024
:101710000288F389E02D80818F7D80830895EF9288
:10172000FF920F931F93CF93DF93EC0181E0888F9B
:101730009B8D8C8D98131AC0E889F989808185FF6B
:1017400015C09FB7F894EE89FF896083E889F9890D
:1017500080818370806480839FBF81E090E0DF910F
:10176000CF911F910F91FF90EF900895F62E0B8D62
:1017700010E00F5F1F4F0F731127E02E8C8D8E111D
:101780000CC00FB607FCFACFE889F989808185FF84
:10179000F5CFCE010E946D0BF1CFEB8DEC0FFD2F3D
:1017A000F11DE35AFF4FF0829FB7F8940B8FEA893F
:1017B000FB8980818062CFCF0F931F93CF93DF93FC
:1017C0008C01D0E0C0E0F801EC0FFD1F64916623AE
:1017D00041F08EE692E00E948F0B892B11F021964A
:1017E000F2CFCE01DF91CF911F910F910895CF934A
:1017F000DF93EC01888D8823B9F0AA89BB89E88939
:10180000F9898C9185FD03C0808186FD0DC00FB6DE
:1018100007FCF7CF8C9185FFF2CF808185FFEDCF5C
:10182000CE010E946D0BE9CFDF91CF910895CF9249
:10183000DF92EF92FF921F93CF93DF93EC016A0147
:101840007B018C810E94440711E0892B09F410E090
:101850008B85181721F0CD8ADE8AEF8AF88E8D8964
:101860009E89AF89B88DB701A601481B590B6A0B39
:101870007B0B898D90E0B0E0A0E084179507A60768
:10188000B70798F48C85181781F01C878A8518177C
:10189000A9F0CA8EDB8EEC8EFD8EEAA1FBA13097FB
:1018A00021F0B701A601898509951B87DF91CF91AA
:1018B0001F91FF90EF90DF90CF900895CE8EDF8E36
:1018C000E8A2F9A2ECA1FDA1309779F389850995E9
:1018D000ECCFFC01158213861486158616861786B2
:1018E000108A118A128A138A148A158A168A138E0C
:1018F0008681882311F0848183830895CF92DF92BB
:10190000EF92FF920F931F93CF93DF93EC018E81A1
:10191000811103C08D89882369F18C810D851E8515
:101920002F8538896A017B01C01AD10AE20AF30ABD
:101930009701860137FD18C009891A892B893C89CE
:10194000401B510B620B730B141615061606170677
:101950005CF061E0DF91CF911F910F91FF90EF90CC
:10196000DF90CF900C946D0760E00E946D078D8929
:1019700081111D8ADF91CF911F910F91FF90EF9000
:10198000DF90CF900895CF93DF93EC0161E08881E1
:101990000E946D0781E08C870E9431086D877E87E9
:1019A0008F87988BDF91CF910895CF92DF92EF923E
:1019B000FF92CF93DF93EC016A017B0169857A8501
:1019C0008B859C850E9494389B01AC0160E070E09F
:1019D00080E89FE30E94BA3A20E030E040E05FE315
:1019E0000E94F53820E030E04AE754E40E94F538E0
:1019F000CD8EDE8EEF8EF8A220E030E040E05FE397
:101A00000E944E3A0E94333BC60ED71EE81EF91EB6
:101A1000C9A2DAA2EBA2FCA28FA191E089278FA331
:101A2000DF91CF91FF90EF90DF90CF900895CF920C
:101A3000DF92EF92FF92CF93DF93EC016A017B017B
:101A40008D899E89AF89B88DAB019601281B390B12
:101A50004A0B5B0BDA01C901B7FD49C0898D9A8D2C
:101A6000AB8DBC8DAB019601281B390B4A0B5B0B70
:101A7000DA01C901181619061A061B06C4F18EA14F
:101A80008823A9F189859A85AB85BC850197A10535
:101A9000B10551F461E08C81DF91CF91FF90EF901F
:101AA000DF90CF900C946D0789A19AA1ABA1BCA146
:101AB000AB019601281B390B4A0B5B0BDA01C901FC
:101AC000B7FD04C0A601CE010E94D50C8C819FA158
:101AD000992311F061E0E0CF60E00E946D071FA242
:101AE000DF91CF91FF90EF90DF90CF90089560E06D
:101AF0008C810E946D071FA2898D9A8DAB8DBC8D44
:101B0000C81AD90AEA0AFB0A8EA1882331F01C14EC
:101B10001D041E041F040CF41EA288A5882301F3D3
:101B20001C141D041E041F04DCF618A6D9CF8F92C6
:101B30009F92AF92BF92CF92DF92EF92FF920F935C
:101B40001F93CF93DF93EC018E81811104C088A194
:101B5000882309F445C07B0189899A89AB89BC89AE
:101B60004A015B01881A990AAA0ABB0AC501B40195
:101B700097FD53C00D891E892F89388D4A01570161
:101B8000801A910AA20AB30A95018401101611065F
:101B9000120613060CF441C02A8D2223A9F10C8DE4
:101BA0001D8D2E8D3F8D200F311F2115310511F414
:101BB00021E030E0FB8C50E040E00E941C3A6017CE
:101BC0007107D8F4F1100AC069857A8520E030E009
:101BD000A9018C810E94890881E08B8F81E0898F27
:101BE000DF91CF911F910F91FF90EF90DF90CF90F9
:101BF000BF90AF909F908F900895FF2079F38C81D4
:101C00000E945D081B8EEACF69857A8520E030E06E
:101C1000A9018C810E948908E1CF898D882301F375
:101C20008C810E945D08198E1B8E88A18823C1F2C9
:101C300018A2D6CF6F3FA9F0E62FE295EF7044E0EF
:101C4000E49F90011124DC01ED91FC91E20FF31F60
:101C50006F7082819381B6E06B9F800D911D11247E
:101C6000089590E080E00895982F80336CF08A33D7
:101C700024F08F3524F08B3724F481E008958134EB
:101C80001CF081E09B350CF080E00895FC0182851A
:101C900081110AC0A781B085CD0101969087878305
:101CA0008C91818781E08287818508951F93CF93EE
:101CB000DF93EC01162F0E94460E811306C01A8690
:101CC00081E0DF91CF911F91089580E0FACF0F93CB
:101CD0001F93CF93DF938C01EB018991882369F0E7
:101CE000C8010E94460E882379F0FE013197908149
:101CF00098130DC0F8011286F0CF90E080E0DF91DC
:101D0000CF911F910F91089582E090E0F8CF83E08A
:101D100090E0F5CFCF93DF93EC01CE010E94460E09
:101D20008B304CF489305CF4882359F081E08E8349
:101D300090E080E00BC08D3011F08032B9F71A8648
:101D4000ECCF8E81811105C081E090E0DF91CF91D1
:101D5000089582E090E0FACFDC0152969C91529770
:101D6000915084E0989F900111245096ED91FC9140
:101D7000E20FF31F228133812115310579F0418172
:101D80008081481758F481E0840F818386E0489F62
:101D9000200D311D11242115310521F460E070E082
:101DA0008FEF0895B901892F8295807F840F089560
:101DB000DF92EF92FF920F931F93CF93DF93EC018B
:101DC0007B01D12C688979898A89D816E0F484E06E
:101DD000D89E80011124060F171FD80112966D910D
:101DE0007C916115710541F0D701ED91FC91028064
:101DF000F381E02DC7010995F80113821282108248
:101E00001182D394DFCF1A8A8FEF8C8BC617D70736
:101E100061F0D701ED91FC910280F381E02DC701C3
:101E20000995D98BC88B84E08B8BDF91CF911F9163
:101E30000F91FF90EF90DF900895EF920F931F9313
:101E400000915C0210915D0220915E0230915F0270
:101E500041E08091000190910101835D954009F47A
:101E600040E0E0900701609124038091050190918A
:101E700006010E943A0680914A02882309F446C06E
:101E800080919903833018F083E08093710310925E
:101E90003F0381E08093400380934103809342039A
:101EA00080934303109244031092450310925B0306
:101EB00094E690935C038093D60310929A0387E094
:101EC00080939B0380910B0590910C05A0910D05CB
:101ED000B0910E0580939C0390939D03A0939E0365
:101EE000B0939F038091070590910805A091090583
:101EF000B0910A058093A0039093A103A093A2033D
:101F0000B093A3031F910F91EF9008951092410396
:101F1000F9CF4F925F926F927F928F929F92AF9282
:101F2000BF92CF92DF92EF92FF920F931F93CF93C6
:101F3000DF9300D000D01F92CDB7DEB7DC012C912B
:101F40002B32E1F12D32D9F50196EE24E394FC0118
:101F5000208130ED320F3A3010F02E3291F58C01A5
:101F600060E070E0CB01F801219130ED832E820E0C
:101F700039E0381508F444C06A3949E97407840720
:101F800049E1940708F046C0AAE0B0E09B01AC012B
:101F90000E94D239912CB12CA12C240135014094FE
:101FA000509460947094461657066806790690F12E
:101FB000680D791D8A1D9B1D8F01D5CF0196E12CDF
:101FC000C6CF198229813A814B815C816D8170E095
:101FD00080E090E00F900F900F900F900F90DF91A6
:101FE000CF911F910F91FF90EF90DF90CF90BF9016
:101FF000AF909F908F907F906F905F904F900895DB
:10200000211108C0EE2051F161307105810550E8C1
:102010009507A0F0F12CBAE08B2E912CA12CB12CBD
:102020006115710530E883079105F8F0A501940169
:102030000E941C3ACA01B901F394F2CF22E029832D
:102040009B01AC0188279927DC01821B930BA40B11
:10205000B50B8A839B83AC83BD83B4CF23E02983F4
:102060006A837B838C839D83ADCFF801D8012D914A
:102070008D0130ED320F3A3010F4F394F6CF2E325A
:1020800001F58F010F5F1F4FF8010F5F1F4F208178
:10209000A0EDDA2ED20EB9E0BD1598F06C3CECEC58
:1020A0007E07ECE08E07910578F7AAE0B0E09B018F
:1020B000AC010E94D2396D0D711D811D911DFA94E4
:1020C000E3CF20812F7D10E000E0253409F050C0DF
:1020D00021812D32B1F53296CC24C394DF0110E07A
:1020E00000E02F2D0F2C000C330BEAE0BE2EFD017B
:1020F000DD9040ED4D0D4A30B0F5B09EA001B19E8F
:10210000500D11240D2DDD0C110B00531109040F7E
:10211000151FA801420F531F4732510544F3CC202D
:10212000B9F080E090E0A0E0B0E8E11003C080E00A
:1021300090E0DC0121E029838A839B83AC83BD830B
:1021400041CF2B3219F03196C12CC8CF3296FCCF3B
:1021500080E090E0A0E8BFEFE110ECCF80E090E0FD
:10216000A0E8BFE7E7CFCC2019F011950195110940
:102170002081211126CF0F0D111DF7FC1A950E9409
:1021800094384CEBA42E40E0B42E101611063CF00F
:1021900011950195110954EAA52E50E0B52ED12CC8
:1021A000C12C01151105E9F0F6E0CF16D104A9F014
:1021B00000FF0DC0F601EE0FFF1FEE0FFF1FEA0D2F
:1021C000FB1D25913591459154910E94F538159547
:1021D00007952FEFC21AD20AE4CF60E070E080ECDE
:1021E0009FE7E110905821E029836A837B838C83E9
:1021F0009D83E8CECF92DF92EF92FF920F931F93D1
:10220000CF93DF937C016B018A01FC01C081D181F6
:102210004F3F510509F0B0F4E881F9810480F58160
:10222000E02D4B5F5F4FCE010995009759F0FC01FF
:102230000383DF91CF911F910F91FF90EF90DF907B
:10224000CF900895E881F9810280F381E02DB601F5
:10225000CE01099581E0F701828390E080E0E9CF2B
:102260001F93CF93DF93EC01162F6A817B81611559
:10227000710589F04C815D81FB018381841715060E
:1022800051F4440F551F4F5F5F4F888199810E9421
:10229000FA109B838A838A819B81009759F02C8155
:1022A0003D81A9014F5F5F4F5D834C83820F931F78
:1022B000FC011483DF91CF911F9108959F92AF92FB
:1022C000BF92CF92DF92EF92FF920F931F93CF9323
:1022D000DF9300D000D01F92CDB7DEB78C010E94F3
:1022E000460ED82EF8011286F12CE12C60EFC62E96
:1022F000C8010E94460EF8011286D81609F4B3C030
:10230000811113C082E090E00F900F900F900F901A
:102310000F90DF91CF911F910F91FF90EF90DF9081
:10232000CF90BF90AF909F9008958C3509F099C0E1
:10233000C8010E94460E882329F3E7E9F1E08537BA
:1023400009F083C0F801128654E0952EB12CA12C1F
:10235000C8010E94460E8823A9F2813434F48053C8
:10236000803130F083E090E0CFCF8F7D8753F8CF7E
:1023700044E0AA0CBB1C4A95E1F7A82AF801128692
:102380009A949110E5CFC501985D8115944020F491
:102390007501F3E0FF22ACCFC5019C5D811594402F
:1023A000A8F483E0B822B701762F6627770F770F5E
:1023B0006A297B2990E080E00196603871058105EB
:1023C000910540F4C8010E94301192CFB50190E010
:1023D00080E0F3CF1982262F2F7320682A8326E00E
:1023E00096958795779567952A95D1F7603271050F
:1023F00080F4606C6B835E01E4E0AE0EB11CF5010D
:1024000062915F01662309F473CFC8010E94301105
:10241000F6CF262F2F7320682B8386E0769567955D
:102420008A95E1F76031710538F4606E6C835E0166
:10243000F5E0AF0EB11CE3CF60686C83CD825E0126
:1024400026E0A20EB11CDBCF32969081992309F4CD
:1024500089CF8913F9CF8181882309F483CFF801CB
:102460001286682FAFCF82819381892B19F484E083
:1024700090E04ACF90E080E047CF6F927F928F92BA
:102480009F92AF92BF92CF92DF92EF92FF920F9303
:102490001F93CF93DF93EC012A813B812C5F3F4F49
:1024A0004C815D814430510588F58901F90180E056
:1024B000942FB22FAE2FA21BA91730F4F190A1E0F8
:1024C000F110A0E08A2BF6CF811120C082E0EB0151
:1024D0008C83FB01802F8B1B891728F4E8018991DD
:1024E0008E018193F7CF640F751FFB011082DF917E
:1024F000CF911F910F91FF90EF90DF90CF90BF9001
:10250000AF909F908F907F906F9008958B01F9010D
:10251000E40FF51F1082888199814C815D81DC0177
:102520001396ED91FC913A01E89477F86901C60C95
:10253000D71C3097C1F0A381A615170481F4490177
:102540007F01B4E0EB0EF11C8C149D0429F1D40141
:10255000AD904D01D701BD907D01AB14A9F3019061
:10256000F081E02DE6CF6A817B810E94FA10FC01A8
:10257000A881B98113968D919C9114979183808342
:102580001496FC93EE9313971B821A8285E0E80160
:102590008C83F983E883ABCF82818F5F8283F6CF10
:1025A000DB01ED91FC9111970280F381E02DBC01DC
:1025B000CD010994AF92BF92CF92DF92EF92FF923A
:1025C0000F931F93CF93DF93EC018B018C8180FFDE
:1025D00024C0A881B981FB018381948130E020E08F
:1025E0000097D9F0A817B907D1F5F801608171817A
:1025F00012968C911297815012968C93129781119A
:102600000CC08D919C9111972115310529F1F9018B
:1026100091838083CD010E94D0128C81807631F12C
:10262000209721F1F8805801F5E1AF0EB11C8FEF32
:10263000F816D1F06F2DC5010E941A0E6C01FC0135
:10264000E580B8010E94DA12F801818DF6018083DD
:10265000F801F18EFE2CEBCF94838383DBCF9C01BA
:10266000FC0180819181BCCFF882F9821C82DF91CC
:10267000CF911F910F91FF90EF90DF90CF90BF907F
:10268000AF9008950F931F93CF93DF93EC010881D0
:1026900019818B819C81009749F0FC012081318157
:1026A0003C832B83B8010E94D012F3CF68817981DB
:1026B000CE010596DF91CF911F910F910C94D80E0A
:1026C000FC0101900020E9F73197AF01481B590B3D
:1026D000BC018EE692E00C94EF0A8F929F92AF922B
:1026E000BF920F931F93CF93DF93CDB7DEB7A19720
:1026F0000FB6F894DEBF0FBECDBF19A2423008F46A
:102700004AE08E010F5D1F4F842E912CB12CA12C1D
:10271000A50194010E941C3AE62FB901CA01EA30D2
:10272000F4F4E05DD801EE938D01232B242B252BAF
:1027300079F790E080E0109719F0CD010E946013C6
:10274000A1960FB6F894DEBF0FBECDBFDF91CF913B
:102750001F910F91BF90AF909F908F900895E95C6B
:10276000E1CF4AE00C946D13CF92DF92EF92FF928B
:10277000CF93DF936C01990FEE08FF08F7FE19C0A5
:102780006DE28EE692E00E948F0BEC0166277727C0
:10279000CB016C197D098E099F094AE00E946D13D7
:1027A0008C0F9D1FDF91CF91FF90EF90DF90CF9026
:1027B00008954AE0C701B601DF91CF91FF90EF90F5
:1027C000DF90CF900C946D13CF93DF930E94DC0BBE
:1027D000EC018AEA91E00E9460138C0F9D1FDF914B
:1027E000CF910895CF93C82F8093DA0487E09AE0C1
:1027F0000E94DC0B8091D804082E000C990B0E94DB
:10280000B4138DEF99E00E94DC0B8BEE99E0CC23A2
:1028100011F084EF99E00E94DC0B8AEF99E0CF91F0
:102820000C94E4130F931F93CF938C01C62FFC01DC
:10283000638382EA96E00E94DC0BF8018081082E17
:10284000000C990B0E94B41388E996E00E94DC0BFF
:1028500086E896E0CC2311F08FE896E00E94DC0B2E
:1028600085E996E0CF911F910F910C94E413EF92BC
:10287000FF920F931F93CF93DF937C018B01EA01AB
:102880008CE696E00E94DC0BC7010E94DC0B80E620
:1028900096E00E94DC0BC8010E94DC0B84E596E008
:1028A0000E94DC0BCE010E94DC0B81E596E0DF91FB
:1028B000CF911F910F91FF90EF900C94E413CF9361
:1028C000DF936DE78EE692E00E948F0BEC018AEABF
:1028D00091E00E9460138C0F9D1FDF91CF910895AE
:1028E0004F925F926F927F928F929F92AF92BF9220
:1028F000EF92FF920F931F93CF93DF932A013B0137
:1029000048015901853009F480C008F061C0843065
:1029100009F46FC0E0911503F09116031481C2E72A
:10292000DBE04FE8E42E4BE0F42E8EEC9BE00E94BF
:10293000DC0BC7010E94DC0B85EC9BE00E94DC0BEA
:10294000812F110F990B0E94B4138AEB9BE00E9418
:10295000DC0BCE010E94DC0B85EA9BE00E94DC0BC5
:102960008091C7049091C804A091C904B091CA0491
:10297000A3019201281B390B4A0B5B0BCA01B90159
:102980000E94B11383E99BE00E94DC0B8091C70495
:102990009091C804A091C904B091CA04A501940102
:1029A000281B390B4A0B5B0BCA01B9010E94B113FA
:1029B000DF91CF911F910F91FF90EF90BF90AF905B
:1029C0009F908F907F906F905F904F900C945F14CA
:1029D000863039F1873009F09DCFE0911D03F091E9
:1029E0001E031481C6E5DBE087E7E82E8BE0F82EB6
:1029F0009CCFE0911703F09118031481CDE6DBE042
:102A000039E8E32E3BE0F32E90CFE0911903F091EB
:102A10001A031481C4E6DBE024E8E22E2BE0F22E58
:102A200084CFE0911B03F0911C031481CBE5DBE024
:102A30009DE7E92E9BE0F92E78CFCF92DF92EF92BF
:102A4000FF920F931F93CF93DF93EC018881813026
:102A500009F4D1C06A017B01813090F08230D1F459
:102A600081E293E00E94690C8FE393E0DF91CF91C4
:102A70001F910F91FF90EF90DF90CF900C94690C15
:102A80008981853009F47DC070F48330F1F18430A0
:102A900009F45AC0DF91CF911F910F91FF90EF90F1
:102AA000DF90CF900895863009F488C0873091F781
:102AB000E0911D03F0911E03309761F38681882316
:102AC00049F385A18111E6CF8E819F81A885B985C3
:102AD000C58AD68AE78AF08E8C0D9D1DAE1DBF1D5E
:102AE000818F928FA38FB48F81E086A3CF010E9444
:102AF000D50C0E811F81288539850C0D1D1D2E1DBD
:102B00003F1DB701A60187E01CC0E0911503F091BD
:102B10001603309709F4BECF8681882309F4BACF13
:102B20000E811F8128853985C18AD28AE38AF48A79
:102B30000C0D1D1D2E1D3F1D058B168B278B308FF9
:102B400083E00E947014A6CFE0911703F091180360
:102B5000309709F49FCF8681882309F49BCF0E819B
:102B60001F8128853985C18AD28AE38AF48A0C0DAF
:102B70001D1D2E1D3F1D058B168B278B308F84E06E
:102B8000E0CFE0911903F0911A03309709F482CF56
:102B90008681882309F47ECF0E811F81288539859F
:102BA000C586D686E786F08A0C0D1D1D2E1D3F1D9D
:102BB000018B128B238B348B85E0C3CFE0911B03F9
:102BC000F0911C03309709F465CF8681882309F4BE
:102BD00061CF0E811F8128853985C586D686E78617
:102BE000F08A0C0D1D1D2E1D3F1D018B128B238B9A
:102BF000348B86E0A6CF8981E0910F03F09110031A
:102C0000882339F0813009F045CFE0911103F0912C
:102C10001203309709F43ECFCE80DF80E884F98438
:102C20004C0D5D1D6E1D7F1D418B528B638B748B14
:102C300031CF2F923F924F925F926F927F928F92FD
:102C40009F92AF92BF92CF92DF92EF92FF920F933B
:102C50001F93CF93DF9300D000D0CDB7DEB72A010A
:102C60003B010DE3809F90011124912C8901C90142
:102C700087569C4F9A8389838AE0882E19019EE4A7
:102C8000290E311CE981FA818081981608F092C0E2
:102C9000A92CB12CC801899C800D911D1124815F44
:102CA0009C4FFC01E25BFF4F20812330B9F0805B39
:102CB0009F4FFC01C080D180E280F380C114D10419
:102CC000E104F10469F4B301A201C101989C800DF3
:102CD000911D1124815F9C4F0E941D159394D2CFAA
:102CE000C40CD51CE61CF71CE5EEF3E030E020E058
:102CF0008081811126C0FFE0F29FC001F39F900DFB
:102D00001124DC01A952BC4F8A9CF0018B9CF00D70
:102D10001124E00FF11FE35AFC4F282D01900D9272
:102D20002A95E1F7815F9C4FFC01EE52FF4FC08274
:102D3000D182E282F3828A529F4F21E0FC012083FC
:102D4000CDCF2F5F3F4F3F962031310589F684EE7E
:102D50009AE00E94DC0B8A9CC0018B9C900D112490
:102D6000800F911F815F9C4F9C838B83FC01E25BF2
:102D7000FF4F608170E090E080E04AE00E946D13B8
:102D800089ED9AE00E94DC0BEB81FC81E15BFF4F57
:102D9000608170E090E080E04AE00E946D1388EC72
:102DA0009AE00E94DC0BC701B6010E94B1130E9499
:102DB0005F1494CF0F900F900F900F90DF91CF91F1
:102DC0001F910F91FF90EF90DF90CF90BF90AF9049
:102DD0009F908F907F906F905F904F903F902F903B
:102DE00008950F931F93CF93DF938C01D62FC42F99
:102DF00086EB97E00E94DC0BC8010E94DC0B8BEA9B
:102E000097E00E94DC0B81E997E0DD2311F087E970
:102E100097E00E94DC0B8CE997E00E94DC0B86E8CF
:102E200097E0CC2311F08CE897E00E94DC0BDF9157
:102E3000CF911F910F910C945F140F931F93CF9319
:102E40008C01C62F8CE697E00E94DC0BC8010E9423
:102E5000DC0B81E697E00E94DC0B86E597E0CC2353
:102E600011F08CE597E00E94DC0BCF911F910F9140
:102E70000C945F14CF92DF92EF92FF920F931F9307
:102E8000CF938C01C62F69017A018CE397E00E94F1
:102E9000DC0BC8010E94DC0B81E397E00E94DC0B95
:102EA00089E197E0CC2311F08FE197E00E94DC0BE1
:102EB00084E297E00E94DC0BC701B6010E94B113C7
:102EC000CF911F910F91FF90EF90DF90CF900C94D6
:102ED0005F147F928F929F92AF92BF92CF92DF92B8
:102EE000EF92FF920F931F93CF93DF93EC01762E17
:102EF00049015A01670178018FEF96E00E94DC0BCF
:102F0000CE010E94DC0B84EF96E00E94DC0B8EEC7D
:102F100096E0772011F084ED96E00E94DC0B86EEBF
:102F200096E00E94DC0BC501B4010E94B11389ED4B
:102F300096E00E94DC0BC701B6010E94B113DF913D
:102F4000CF911F910F91FF90EF90DF90CF90BF90A6
:102F5000AF909F908F907F900C945F14EF92FF92B0
:102F60000F931F93CF937C018B01C42F87E396E0CF
:102F70000E94DC0BC7010E94DC0B8BE296E00E94F2
:102F8000DC0BC8010E94DC0B80E296E00E94DC0BA7
:102F900085E196E0CC2311F08BE196E00E94DC0BFA
:102FA000CF911F910F91FF90EF900C945F14CF92EF
:102FB000DF92EF92FF920F931F93CF93DF938C01D9
:102FC000EB0169017A018BEF95E00E94DC0BC801EF
:102FD0000E94DC0B8FEE95E00E94DC0BCE010E947C
:102FE000DC0B84EE95E00E94DC0BC701B6010E9469
:102FF000B113DF91CF911F910F91FF90EF90DF9070
:10300000CF900C945F14009711F00C94601390E033
:1030100080E008950F931F93CF93DF93C0910F0328
:10302000D0911003882321F0C0911103D091120395
:10303000209709F45FC0613009F456C008F451C00C
:10304000623009F454C08AE99AE00E94DC0B6C817A
:1030500070E090E080E04AE00E946D138FE79AE014
:103060000E94DC0BC8010E94DC0B8AE69AE00E94F9
:10307000DC0B6A8D7B8D8C8D9D8D0091C70410912A
:10308000C8042091C9043091CA04601B710B820BE3
:10309000930B0E94B11388E59AE00E94DC0B6E8DC1
:1030A0007F8D88A199A10091C7041091C804209137
:1030B000C9043091CA04601B710B820B930B0E94F0
:1030C000B11387E49AE00E94DC0BCE010D960E94BA
:1030D000031884E49AE0DF91CF911F910F910C9433
:1030E000E4130DE31AE0AFCF04E31AE0ACCF0CE237
:1030F0001AE0A9CFDF91CF911F910F910895909180
:10310000CF04911104C09091D004992371F0909153
:10311000D10491110AC06091D604882321F0813036
:1031200021F46091D7040C940A180895CF93DF938B
:10313000EC016E8387E995E00E94DC0B8F81988516
:103140000E9403188EE895E00E94DC0B8C81082E0B
:10315000000C990B0E94B41384E895E00E94DC0BEC
:103160008E8181110AC082E795E00E94DC0B81E824
:1031700095E0DF91CF910C94E4138BE795E0F5CFC8
:1031800060E080910C0190910D010E94961860E022
:1031900080910E0190910F010E94961860E080913D
:1031A0001001909111010E94961860E08091120127
:1031B000909113010E94961860E080911401909103
:1031C00015010E94961860E08091160190911701F8
:1031D0000E94961860E080911801909119010E9458
:1031E000961880911A0190911B01009719F060E0E8
:1031F0000E94961860E080911C0190911D010C9432
:1032000012141F93CF93DF93EC01162F8E81882326
:1032100021F060E0CE010E9496188D81813021F46A
:1032200060E08C810E946D071C836D81812F0E945C
:103230009B078D81813021F460E08C810E946D07B5
:103240008AEC95E00E94DC0B8F8198850E94031820
:1032500081EB95E00E94DC0B8C81082E000C990B11
:103260000E94B413DF91CF911F910C945F14CF9300
:10327000DF93EC010E9401198C810E94440721E038
:10328000892B09F420E02A878C810E94440721E0E1
:10329000892B09F420E02B878C810E94440721E0D0
:1032A000892B09F420E02C871D8A1E8A1F8A188E1C
:1032B000DF91CF9108959F92AF92BF92CF92DF920C
:1032C000EF92FF920F931F93CF93DF938A01452BC9
:1032D00009F468C0E9016B016596FC016081CE01CB
:1032E0000E941A0EFC01BB24BA94892B09F0B58008
:1032F0007601E894F7F8AA24A3946701C00ED11EC2
:1033000099249394309709F44DC0AA2009F43FC042
:103310008481843069F0853049F1823079F5DF01AC
:103320000D900020E9F71197CD018E1B9F0B07C070
:103330000190F081E02D90E080E0309781F79F7759
:10334000E816F90621F5D801AC15BD05E1F46B2DA1
:10335000CE01DF91CF911F910F91FF90EF90DF9001
:10336000CF90BF90AF909F900C941A0EA081B18126
:10337000FD01349613968C9190E0E2CF90E080E0CE
:10338000F0E0E0E0DDCF9D9181919817E9F2A9246A
:103390006B2DCE010E941A0EFC01892B09F4B2CFCD
:1033A000B580B0CF90E080E0DF91CF911F910F9179
:1033B000FF90EF90DF90CF90BF90AF909F900895D7
:1033C000FC0120813181C9014A9642815381648187
:1033D0007581009759F0D9015E96EC91E03211F0B9
:1033E00090E080E0009711F00C945B1990E080E091
:1033F0000895CF93DF93EB010E94E019009741F00D
:10340000FC012481263021F48081DF91CF91089541
:103410008881FBCFCF92DF92EF92FF92CF93DF9321
:1034200000D000D01F92CDB7DEB70E94E019DC01BA
:10343000009709F445C01496EC911497E250ED30D2
:1034400008F03EC0F0E0E95DF54E0C94673B501A81
:10345000601A4E1A621A341A601A601A601A421AF6
:10346000601A421A601A661ACC908C2D0F900F9039
:103470000F900F900F90DF91CF91FF90EF90DF9022
:10348000CF900895CD90DD90ED90FC908FEFC81611
:10349000D104E104F10449F340F312C08D919C91F1
:1034A0000E94890F3A834B835C836D83CA80DB80E3
:1034B000EC80FD80223051F3233041F3213051F074
:1034C000C12CD3CF8D919C910496EACFCD90DD9005
:1034D000ED90FC9020E030E0A901C701B6010E9408
:1034E000623B87FDEDCF20E030E04FE753E4C701BA
:1034F000B6010E948F3818161CF3C701B6010E944E
:10350000333BC62EB2CFCF92DF92EF92FF92CF9392
:10351000DF9300D000D01F92CDB7DEB70E94E01934
:10352000DC01009709F44AC01496EC911497E2501C
:10353000ED3008F043C0F0E0E056F54E0C94673BE8
:10354000CE1ADE1ACC1AE21AAD1ADE1ADE1ADE1A0A
:10355000BD1ADE1AC21ADE1AE61A6C9170E090E00B
:1035600080E00F900F900F900F900F90DF91CF9110
:10357000FF90EF90DF90CF9008956D917D918D91A8
:103580009C91EFCF8D919D910D90BC91A02DB7FD99
:1035900015C0BC01CD01E5CF8D919C910E94890F92
:1035A0003A834B835C836D83CA80DB80EC80FD8033
:1035B000223041F1233041F1213061F060E070E0D0
:1035C000CB01CFCF8D919C910496E8CFCD90DD902B
:1035D000ED90FC9020E030E0A901C701B6010E9407
:1035E000623B87FDEBCF2FEF3FEF4FE75FE4C70173
:1035F000B6010E948F3818160CF3C701B6010E945D
:10360000333BAFCFF7FCDACFC701B601AACF8F9219
:103610009F92AF92BF92CF92DF92EF92FF920F9361
:103620001F93CF93DF9300D000D000D0CDB7DEB78B
:1036300049015A0167017801FB0101900020E9F777
:103640003197E61BF70B9A8389837C836B83ED8329
:103650008F2F8F778E83CE0101960E94E0190097FD
:10366000B9F0FC0124812A3041F02C3089F48081AA
:103670009181A281B381B7FD0BC0CE0101960E945A
:10368000831A86169706A806B90610F44B015C014A
:10369000C501B401C616D706E806F90610F4C7013D
:1036A000B60126960FB6F894DEBF0FBECDBFDF91F0
:1036B000CF911F910F91FF90EF90DF90CF90BF902F
:1036C000AF909F908F900895CF92DF92EF92FF92EC
:1036D000CF93DF9300D000D01F92CDB7DEB70E940A
:1036E000E019DC01009709F446C01496EC91149798
:1036F000E250ED3008F03FC0F0E0EF57F44E0C948C
:10370000673BC01BBB1BBE1BD11B8E1BBB1BBB1B4C
:10371000BB1B9D1BBB1BAA1BBB1BD51B6C9170E06D
:10372000CB010F900F900F900F900F90DF91CF91E2
:10373000FF90EF90DF90CF9008958D919D910D9027
:10374000BC91A02D811520E89207A105B10598F440
:10375000BC01E6CF8D919D910D90BC91A02D6C0187
:103760007D0120E8D20EE11CF11CC114D10421E03E
:10377000E206F10468F370E060E0D2CF8D919C9195
:103780000E94890F3A834B835C836D83CA80DB8000
:10379000EC80FD80223031F1233081F1213059F766
:1037A00008C08D919C910496EBCFCD90DD90ED906B
:1037B000FC9020E030E040E057ECC701B6010E94E9
:1037C000623B87FDD8CF20E03EEF4FEF56E4C701C4
:1037D000B6010E948F38181674F2C701B6010E9414
:1037E0002C3B9ECFD701C6019058AF4FBF4F0097DB
:1037F000A140B10508F0BFCFB60192CFC11480E857
:10380000D806E104F104C0F3B6CF0F931F93CF9312
:10381000DF93EC018B010E94E019FC01892B29F058
:1038200084818A3051F08C30C1F0F801808191811F
:10383000DF91CF911F910F91089580819181A28195
:10384000B38181159048A105B10578F7CE01DF91CC
:10385000CF911F910F910C94641B80819181A28163
:10386000B3819058AF4FBF4F0097A140B105E8F624
:10387000EDCF4F925F926F927F92AF92BF92CF92B5
:10388000DF92EF92FF920F931F93CF93DF9390916C
:10389000CF04911105C09091D004992309F4E8C098
:1038A0009091D1049111E4C0823008F0E1C08111FF
:1038B0000AC0E0910F03F0911003309759F481E0B2
:1038C0008093D604D5C0E0911103F0911203309794
:1038D00009F487C09089992309F480C0018912896D
:1038E00023893489041715072607370708F482C08F
:1038F000882309F4CCC082E08093D704B9C08F89B3
:103900008F5F8F8B9D89891708F4ADC08FA5843692
:1039100058F40E943738A30192010E94B3398FA551
:10392000681710F01F8A9FC01F8A888D882351F066
:103930009D899501281B31099217130609F05CF443
:10394000890F8D8B8B89823008F08DC0B701A6015D
:103950000E94191688C087ED90E00E94DC0B6D89EB
:1039600070E090E080E04AE00E946D1384ED90E00A
:103970000E94E413E7CFCD8EDE8EEF8EF8A273C0E7
:103980008DA5811170C089A19AA1ABA1BCA1A7018D
:103990009601281B390B4A0B5B0BDA01C901B7FDF5
:1039A00062C08DA19EA1AFA1B8A58C199D09AE09D9
:1039B000BF09181619061A061B060CF054C08FA56D
:1039C000843610F00DA7BECF0E943738A3019201B4
:1039D0000E94B3398FA56817A8F345C0882309F45E
:1039E0006ECF81E089CF1092D604E0910F03F09161
:1039F000100308C08823B9F31092D704E091110393
:103A0000F0911203309781F00091CB041091CC0417
:103A10002091CD043091CE04040F151F261F371FAF
:103A2000018B128B238B348B6A017B01182FCFE023
:103A3000D3E0AA24AA94B12C94E6492E512C612CEF
:103A4000712C01E08C89882371F08EA5893011F0EA
:103A5000181309C08A89813009F48DCF08F44FCF3B
:103A6000823009F48DCF6E9633E0CB34D30751F713
:103A7000DF91CF911F910F91FF90EF90DF90CF904A
:103A8000BF90AF907F906F905F904F90089582E0CD
:103A900017CFBF92CF92DF92EF92FF920F931F93B7
:103AA000CF93DF93EC01198D1F3F81F0612F459675
:103AB0000E941A0EFC018081898F309709F477C02B
:103AC00014828FEF8583BF01812F76C06C0135E0B2
:103AD000C30ED11CE880F9808F89882341F0C6018C
:103AE0000E94AC0EE62FF72F182F309749F71F8949
:103AF000988D191324C0103109F459C0110F6D8924
:103B00007E89D701ED91FC91B4E01B9FA0011124A7
:103B1000C616D70609F044C00190F081E02DBA0125
:103B2000C7010995009709F442C020E1F601DC01C4
:103B300001900D922A95E1F79E8B8D8B188F0D8940
:103B40001E898F8921E0280F2F8BE4E08E9FC00112
:103B50001124080F191F90E1B92E203111F48FE0C4
:103B6000B82EF6E0BF9EB0011124D701ED91FC9173
:103B70000190F081E02DC7010995F80193838283BC
:103B8000892B09F4B12CD801BC9211961C92012BFF
:103B900071F0C6010E94AC0EE62FF72F182F8DCFC3
:103BA0000480F581E02DC7010995009729F681E091
:103BB0008A8360E070E08FEFDF91CF911F910F91CA
:103BC000FF90EF90DF90CF90BF9008954F925F925B
:103BD0006F927F928F929F92AF92BF92CF92DF921D
:103BE000EF92FF920F931F93CF93DF9300D000D0FB
:103BF0001F92CDB7DEB78C017B01B42E0E948A0ED6
:103C00006C01892B09F048C0C8010E94460E863617
:103C100009F4A9C124F5873229F08B3561F182328C
:103C200009F0A8C1D80115961C921E9214971296FD
:103C30008D919C911397892B39F48D919C910E94C1
:103C40001F06F80193838283C8010E945E116C01F4
:103C5000892B11F5B701C8010E943D121DC08437A0
:103C600009F460C18B3709F47BC08E3609F082C13C
:103C700065EC71E060C180E4D70114968C931497D1
:103C8000E114F10421F08FEF8C9311968C93B11015
:103C90001AC025E0C22ED12CC6010F900F900F90B4
:103CA0000F900F90DF91CF911F910F91FF90EF90A8
:103CB000DF90CF90BF90AF909F908F907F906F904C
:103CC0005F904F900895F8011286C8010E948A0EF5
:103CD000009751F56DE5C8010E94560E8111DCCFA9
:103CE000BA94D8011B966D907C90C3010E94491D27
:103CF000A82E4B01672B21F494E0C92ED12CCCCFF8
:103D0000F70161816F3F91F0C30145960E941A0E41
:103D1000DC011596AC92F701A1824B2DB401C801CC
:103D20000E94E61D009739F06C01B6CFD7018C9345
:103D300011968C93F2CFC8010E948A0E0097A1F7CA
:103D40006DE5C8010E94560E8111A6CF6CE2C80134
:103D50000E94560E8111C5CF83E0C82ED12C9CCF76
:103D600080E2F7018483E114F10419F08FEF80837E
:103D70008183BB2009F48DCFD8011A961C92C8010B
:103D80000E948A0E009781F66DE7C8010E94560EC8
:103D9000811182CFBA94F8011582148282819381B5
:103DA000892B49F4808191810E941F06D8011396C6
:103DB0009C938E931297C8010E94460E8732F9F0A9
:103DC0008232E9F0C8010E94460ED82E0E94340EBD
:103DD000882311F2F80112866D2DC8010E9430115E
:103DE000C8010E94460ED82E0E94340E8111F2CFD7
:103DF000D80112968D919C91892B41F47DCFC801F9
:103E00000E945E116C01892B09F046CFC8010E9407
:103E10008A0E6C01892B09F03FCF6AE3C8010E942A
:103E2000560E882309F498CFD8011296ED91FC9193
:103E3000139714968D919C911597E80FF91F148292
:103E400014966D917C9115977F771B966D907C9061
:103E50001C9712968D919C910496272F2F77BA2D3F
:103E6000B078AB2EA22AE894A7F89301AC017A2D82
:103E7000C7010E945B196C01009761F5C3010E94A4
:103E8000491D482E4B01672B09F436CFC3010E9410
:103E9000491D582E962FC92ED72EC114D10409F4CE
:103EA0002BCFF4015582D70111966C916F3F71F0C1
:103EB000C30145960E941A0EFC014582D701119656
:103EC0005C92B401C8010E943D1207C0F701408214
:103ED0005182F7CFB3010E94DA124B2DB601C8010F
:103EE0000E94E61D6C01892B09F0D6CEC8010E9404
:103EF0008A0E6C01892B09F0CFCE6DE7C8010E94B4
:103F0000560E8111C9CE6CE2C8010E94560E88235C
:103F100009F422CFC8010E948A0E6C01892B09F492
:103F20003ACFBACE86E0D70114968C93149781E0ED
:103F30008C936AEB71E0C8010F900F900F900F9077
:103F40000F90DF91CF911F910F91FF90EF90DF9035
:103F5000CF90BF90AF909F908F907F906F905F9029
:103F60004F900C94670E86E0F701848310826FEB0C
:103F700071E0E1CFC8010E94460E4801FDE08F0EBE
:103F8000911CB12C782CA92C803384F08A3384F4D2
:103F90003FE3B316A9F0D8011A961C92B394F4012A
:103FA00081934F01C8010E94460EEECF8B3281F300
:103FB00093ED980F923060F3982F9F7D953441F3E5
:103FC0000B0D111DD8011D961C92872D9A2D0E9454
:103FD000890F3A834B835C836D838A819B81AC819B
:103FE000BD812230A9F0233059F0213009F0B4CE40
:103FF0002EE0F701248380839183A283B3834CCE88
:104000002AE0F701248380839183A283B38344CE83
:104010002CE0F7CF4F925F926F927F928F929F9298
:10402000AF92BF92CF92DF92EF92FF920F931F93C6
:10403000CF93DF93CDB7DEB7CF5FD1090FB6F8943A
:10404000DEBF0FBECDBF6E012EECC20ED11C82E0D2
:1040500091E0F60191838083128214821382C6015B
:104060000596968B858B178A84E0808F8FEF818FE2
:10407000168E878F9E012F5F3F4F790110E000E081
:104080000E943108609376027093770280937802E1
:10409000909379028EE692E00E942B0B97FD02C06E
:1040A0000C947C2E0E9431088090760290907702CA
:1040B000A0907802B0907902681979098A099B0961
:1040C0008090720290907302A0907402B09075027A
:1040D000681579058A059B05E8F20F37110561F42B
:1040E0008EE692E00E944D0B892B31F08EE692E035
:1040F0000E942B0B0A97A1F7E1E0F0E0EC0FFD1F07
:10410000E00FF11F10820530110578F045E050E016
:104110006AEC71E0CE0101960E944F3D892B29F493
:1041200081ED97E00E94E41345C6F601608171813C
:10413000C60105960E94D80EF601128200811181F7
:10414000F60183819481009751F0FC012081318137
:10415000F60134832383B8010E94D012F1CF168E6A
:10416000CF57DF4FD982C882C158D040CD57DF4FDB
:1041700019821882C358D040CB57DF4F198218825A
:10418000C558D040C957DF4F1882C758D04021E0EA
:1041900030E02C0F3D1FC857DF4F39832883C858A4
:1041A000D040C557DF4F1882CB58D040C457DF4F9F
:1041B000D982C882CC58D0404AE0B601665E7F4FB3
:1041C000CE018F579F4F0E94E61D8C01892B69F409
:1041D000C657DF4F8881CA58D040882331F0F60196
:1041E000868D83FF02C003E010E0CD57DF4F88814A
:1041F0009981C358D040009751F0CF57DF4FE881E5
:10420000F981C158D040608171810E94D01201159E
:104210001105F1F08AE595E00E94DC0BF801EE0F44
:10422000FF1FE052FC4F859194910E94DC0B87E5C3
:1042300095E00E94E4138EE692E00E944D0B181662
:1042400019060CF0B7C58EE692E00E942B0BF3CF57
:10425000CF57DF4FD982C882C158D04080ED91E05E
:10426000CD57DF4F99838883C358D04083E0CB5725
:10427000DF4F8883C558D040CA57DF4F1881C658D2
:10428000D04010781068CA57DF4F1883C658D04006
:10429000CE018F579F4F0E94E019009709F48AC5FD
:1042A000FC018481882309F485C51068CA57DF4F53
:1042B0001883C658D040CE018F579F4F0E94641B71
:1042C000893DF1E09F0709F482C00CF032C18837C4
:1042D00031E0930709F401C70CF07EC0873351E049
:1042E000950709F4F5C5ECF58D32F1E09F0709F467
:1042F0000EC544F560E08C3231E0930709F408C53F
:104300008C3A32E0930709F4CCC70CF080C3893CA7
:10431000910511F40C944A2A0CF0DEC28636910500
:1043200011F40C94232D0CF050C28436910511F435
:104330000C94962C8536910511F40C94E72A8CEE9A
:1043400093E0F0CE8F3241E0940709F49DC560E020
:10435000863351E09507A1F68091120190911301E7
:10436000DBC48337E1E09E0709F4D9C434F589330F
:1043700021E0920729F600911201109113010E9489
:104380003108F801618B728B838B948B85849684C2
:10439000A784B088DC01CB01880D991DAA1DBB1D27
:1043A000858B968BA78BB08F81E080A349E853E083
:1043B0006FE873E084E993E088C5843731E09307C0
:1043C00009F413C5853741E0940709F099CF883D7A
:1043D000914009F480C0EEC4813951E0950709F499
:1043E00097C5D4F58E37F1E09F0709F473C524F51E
:1043F0008D3731E0930709F083CFEE24EA94FE2C49
:1044000000E010E021E030E040E050E064ED71E0D9
:10441000C6010E94071B9B01AC01E0911201F091C3
:104420001301218732874387548767EA73E081EB62
:1044300093E00E94D717BEC4823841E0940709F484
:1044400061C660E0803951E0950709F059CF80914D
:1044500014019091150160C48B39E1E09E0709F4C5
:104460007BC584F4833921E0920709F453C560E0E9
:104470008A3931E0930709F043CF8091160190917A
:1044800017014AC48D3941E0940709F487C5883D76
:1044900051E0950709F034CF10ECE12E17E2F12E30
:1044A00009E010E021E030E040E050E06EED71E026
:1044B000C6010E94071B9B01AC01E0911401F09121
:1044C000150121873287438754876BE773E084E8BF
:1044D00093E00E94D717CF57DF4FD982C882C158C7
:1044E000D0408EED91E0CD57DF4F99838883C3583C
:1044F000D04088E0CB57DF4F8883C558D040CA579B
:10450000DF4F8881C658D04080788068CA57DF4F17
:104510008883C658D040CE018F579F4F0E94831A80
:104520006093290170932A0180932B0190932C01B1
:10453000A8C48F39E2E09E0709F466C50CF088C074
:10454000853F21E0920709F44BC574F5823E41E0B6
:10455000940709F403C5C4F48C3DE1E09E0709F01B
:10456000CFCE15E3E12EF12C00E010E022E030E0A8
:1045700040E050E067EE71E0C6010E94071B8091A9
:10458000140190911501BBC5863EF1E09F0709F427
:10459000CCC560E0843F21E0920709F0B1CE809164
:1045A000180190911901B8C3883532E0930709F4D6
:1045B00022C5C4F4803452E0950709F0A1CE15E37A
:1045C000E12EF12C00E010E022E030E040E050E08D
:1045D00067EE71E0C6010E94071B8091180190915F
:1045E00019018DC58935E2E09E0709F4FBC48B35BE
:1045F000F2E09F0709F084CE00911A0110911B018F
:104600000115110509F4D6C30E943108AB01BC01A4
:10461000F801458B568B678B708F85859685A785AE
:10462000B089840F951FA61FB71F818F928FA38F0C
:10463000B48FFF24F394F6A2C8010E94D50CF801B0
:10464000F0A64AE353E060E473E085E493E03DC400
:10465000843823E0920709F43EC50CF075C0843A13
:1046600042E0940709F474C50CF054C0803AE2E0CB
:104670009E0709F045CE10ECE12E17E2F12E09E07D
:1046800010E021E030E040E050E06EED71E0C60166
:104690000E94071B9B01AC01E0911A01F0911B01E4
:1046A000309751F0258736874787508B6BE173E051
:1046B00084E293E00E94D717CF57DF4FD982C88298
:1046C000C158D0408EED91E0CD57DF4F998388835C
:1046D000C358D04088E0CB57DF4F8883C558D040BF
:1046E000CA57DF4F8881C658D04080788068CA5743
:1046F000DF4F8883C658D040CE018F579F4F0E940E
:10470000831A60932501709326018093270190936B
:104710002801B7C3893AF2E09F0709F4C2C48A3A74
:1047200022E0920709F0ECCDE0911A01F0911B0113
:10473000309709F43FC381E085A34EEE52E06AEF63
:1047400072E08FEF92E0C1C3803D33E0930709F43C
:1047500019C5BCF4853853E0950709F4B4C487380B
:10476000E3E09E0709F0CCCD80911C0190911D01E2
:104770000E94C30C48ED52E06EED72E083EE92E0D1
:10478000A4C38433F4E09F0709F432C5803625E0E2
:10479000920709F0B5CD80910E0190910F01892B00
:1047A00009F408C315E3E12EF12C00E010E022E04B
:1047B00030E040E050E067EE71E0C6010E94071B68
:1047C00080910E0190910F012CC58836910511F44E
:1047D0000C944D2D14F40C942F2D8936910509F06D
:1047E000AECDC251DF4F1882CE5ED040CF57DF4FE3
:1047F000D982C882C158D04085E192E0CD57DF4FC1
:1048000099838883C358D04086E0CB57DF4F888395
:10481000C558D040CA57DF4F8881C658D0408078ED
:104820008068CA57DF4F8883C658D040BE016251A6
:104830007F4FCE018F579F4F0E94F919182F0E946A
:1048400031084B015C018091CF04882311F40C9452
:104850006B2E1093D104112311F40C94EA2D809245
:10486000D2049092D304A092D404B092D5040E94B2
:104870001207E0911503F0911603309719F0848127
:104880000E945D08E0911703F0911803309719F02A
:1048900084810E945D088091E7048823B9F08091AB
:1048A000F504811113C084EE94E00E94C30C809241
:1048B000F6049092F704A092F804B092F90481E013
:1048C0008093F504F8941092E6047894412F6FE2F7
:1048D00074E08EE394E085C5843851E0950709F4CF
:1048E00054C00CF045C08D3D910509F426C68A37A9
:1048F000F1E09F0709F449C08C3D910509F01FCDF7
:10490000CF57DF4FD982C882C158D0408FEF91E096
:10491000CD57DF4F99838883C358D04088E0CB5769
:10492000DF4F8883C558D040CA57DF4F8881C658AB
:10493000D04080788068CA57DF4F8883C658D040FF
:10494000CE018F579F4F0E94831A4B015C018092CA
:104950005C0290925D02A0925E02B0925F020E94A1
:104960001D0FA50194016CE974E08BEA94E061CD20
:10497000883E21E0920749F0813A32E0930709F43A
:1049800053C48E3D914009F0DACCC251DF4F1982F9
:104990001882CE5ED040CF57DF4FD982C882C1582F
:1049A000D0408CE192E0CD57DF4F99838883C35884
:1049B000D04086E0CB57DF4F8883C558D040CA57D8
:1049C000DF4F8881C658D04080788068CA57DF4F53
:1049D0008883C658D040BE0162517F4FCE018F57A9
:1049E0009F4F0E94051C20E08130910529F021E0B5
:1049F0008230910509F029E020933D039C01990F35
:104A0000440B550B67E174E084E294E012CD8D34E1
:104A100054E0950711F40C94702E6CF58333F4E098
:104A20009F0709F47EC484F4893E33E0930709F4B8
:104A30003CC4823344E0940709F43BC4883E93406D
:104A400009F07DCC60E032C48933E4E09E0709F4CC
:104A5000BAC48C34F4E09F0711F40C94742E88339C
:104A6000944009F06CCC1092E30540E06FE075E0F3
:104A70008AE195E0B6C48E3535E0930709F4BAC4EF
:104A80000CF0E5C0843155E0950709F4B1C48531D7
:104A9000E5E09E0709F4A8C48839944009F04FCC9A
:104AA0008BE090E0C650DF4F99838883CA5FD04087
:104AB000CF57DF4FD982C882C158D04087EE91E0EE
:104AC000CD57DF4F99838883C358D04083E0CB57BD
:104AD000DF4F8883C558D040CA57DF4F8881C658FA
:104AE000D04080788068CA57DF4F8883C658D0404E
:104AF000BE0166507F4FCE018F579F4F0E94051C0D
:104B0000089714F40C94762E8BE0A82EB12CC45088
:104B1000DF4FB982A882CC5FD040C251DF4FD9822B
:104B2000C882CE5ED04097EEE92E91E0F92EC051BA
:104B3000DF4FF982E882C05FD04013E0CE50DF4FF4
:104B40001883C25FD040CD50DF4F8881C35FD04013
:104B500080788068CD50DF4F8883C35FD040BE012E
:104B600064507F4FCE0182519F4F0E94051C0E97CB
:104B700014F00C94792EC250DF4FB982A882CE5F18
:104B8000D040CC50DF4FD982C882C45FD040CA50D9
:104B9000DF4FF982E882C65FD040C850DF4F1883EC
:104BA000C85FD040C750DF4F8881C95FD040807850
:104BB0008068C750DF4F8883C95FD040BE01625014
:104BC0007F4FCE018C509F4F0E94051C40916B007F
:104BD0009091D804985021E030E001C0220F9A95BE
:104BE000EAF72095242320936B0090916B0091119C
:104BF00005C0909168009E7F909368008093D804D0
:104C000062E00E949B078091D8040E94440721E043
:104C1000019709F020E02093E3048091680081600F
:104C20008093680080916B009091D804985021E0A7
:104C300030E001C0220F9A95EAF7822B80936B0037
:104C40008CE191E00E94DC0B8091D804C9C28436CB
:104C500025E0920709F416C4853635E0930709F478
:104C600002C48F35954009F06ACBCF57DF4FD98208
:104C7000C882C158D04049EFE42E41E0F42ECD5710
:104C8000DF4FF982E882C358D04015E0CB57DF4FA1
:104C90001883C558D040CA57DF4F8881C658D040C6
:104CA00080788068CA57DF4F8883C658D040CE01CD
:104CB0008F579F4F0E940A1A0E94FA06CF57DF4F64
:104CC000D982C882C158D040CD57DF4FF982E882DF
:104CD000C358D040CB57DF4F1883C558D040CA5770
:104CE000DF4F8881C658D04080788068CA57DF4F30
:104CF0008883C658D040CE018F579F4F0E94831A99
:104D00009B01AC016FEE74E085EF94E092CB61E023
:104D100080911001909111010E9496184BC0EE24D1
:104D2000EA94FE2C00E010E021E030E040E050E0AA
:104D300064ED71E0C6010E94071B9B01AC01E0918C
:104D40001001F0911101218732874387548762ED6A
:104D500073E08CED93E00E94D717CF57DF4FD982D5
:104D6000C882C158D04084ED91E0CD57DF4F998380
:104D70008883C358D04089E0CB57DF4F8883C5581C
:104D8000D040CA57DF4F8881C658D04080788068AD
:104D9000CA57DF4F8883C658D040CE018F579F4FE8
:104DA0000E94831A60932D0170932E0180932F012E
:104DB00090933001C6010E944213C150DF4F0FB6DD
:104DC000F894DEBF0FBECDBFDF91CF911F910F9141
:104DD000FF90EF90DF90CF90BF90AF909F908F901B
:104DE0007F906F905F904F90089510ECE12E17E246
:104DF000F12E09E010E021E030E040E050E06EEDFF
:104E000071E0C6010E94071B9B01AC01E0911001FB
:104E1000F0911101258736874787508B65EC73E049
:104E20008EEC93E00E94D717CF57DF4FD982C8820C
:104E3000C158D0408EED91E0CD57DF4F99838883E4
:104E4000C358D04088E0CB57DF4F8883C558D04047
:104E5000CA57DF4F8881C658D04080788068CA57CB
:104E6000DF4F8883C658D040CE018F579F4F0E9496
:104E7000831A6093310170933201809333019093D0
:104E800034010E941D0F96CF009110011091110165
:104E90000E943108F801618B728B838B948B85841F
:104EA0009684A784B088DC01CB01880D991DAA1DCA
:104EB000BB1D858B968BA78BB08F81E080A346EBC3
:104EC00053E06CEB73E081EC93E00E94371472CFF7
:104ED00061E042CA10ECE12E17E2F12E09E010E089
:104EE00021E030E040E050E06EED71E0C6010E944C
:104EF000071B9B01AC01E0911201F0911301258782
:104F000036874787508B69E973E082EA93E091CA5C
:104F100061E09DCA00911401109115010E943108B1
:104F2000F801658776878787908B81849284A38434
:104F3000B484DC01CB01880D991DAA1DBB1D818B9A
:104F4000928BA38BB48B81E0858B4BE653E061E7BA
:104F500073E086E793E0B9CF61E08FCA10ECE12EF1
:104F600017E2F12E09E010E021E030E040E050E0EF
:104F70006EED71E0C6010E94071B9B01AC01E09140
:104F80001601F091170121873287438754876CE51A
:104F900073E085E693E00E94D71773CF0091160166
:104FA000109117010E943108F8016587768787877D
:104FB000908B81849284A384B484DC01CB01880D1E
:104FC000991DAA1DBB1D818B928BA38BB48B81E095
:104FD000858B4BE453E061E573E086E593E075CFA4
:104FE00061E0DDCA80911A0190911B0161E0009798
:104FF00009F092CEDFCE80911A0190911B0160E002
:10500000009709F089CED6CEEE24EA94FE2C00E07B
:1050100010E021E030E040E050E064ED71E0C601D6
:105020000E94071B9B01AC01E0911A01F0911B014A
:10503000309779F0211531054105510521F021877F
:105040003287438754876AE273E084E393E00E94E7
:10505000D717CF57DF4FD982C882C158D04084EDCF
:1050600091E0CD57DF4F99838883C358D04089E0C2
:10507000CB57DF4F8883C558D040CA57DF4F888150
:10508000C658D04080788068CA57DF4F8883C6589A
:10509000D040CE018F579F4F0E940A1A809324015F
:1050A00089CEE0911A01F0911B01309749F015A2C9
:1050B00045E053E060E173E085E193E00E9437143E
:1050C00010924A02DECE61E080911C0190911D0198
:1050D0000E9412146FCE60E0F7CF15E3E12EF12CA1
:1050E00000E010E022E030E040E050E067EE71E0E8
:1050F000C6010E94071B80911001909111010E942E
:10510000011958CE15E3E12EF12C00E010E022E069
:1051100030E040E050E067EE71E0C6010E94071BFE
:105120008091120190911301EACF15E3E12EF12C49
:1051300000E010E022E030E040E050E067EE71E097
:10514000C6010E94071B8091160190911701D7CFCD
:1051500080911A0190911B01892B09F42BCE15E344
:10516000E12EF12C00E010E022E030E040E050E0E1
:1051700067EE71E0C6010E94071B80911A019091B1
:105180001B01BDCF15E3E12EF12C00E010E022E081
:1051900030E040E050E067EE71E0C6010E94071B7E
:1051A000F62E00911C0110911D01F80184858823C1
:1051B00031F060E080810E946D07F8011486F801EB
:1051C000F08261E08F2D0E949B0760E0F8018081F2
:1051D0000E946D0784E992E00E94DC0BF801808157
:1051E000082E000C990B0E94B4130E945F14E2CDAC
:1051F00080910C0190910D01892B09F4DBCD15E311
:10520000E12EF12C00E010E022E030E040E050E040
:1052100067EE71E0C6010E94071B80910C0190911E
:105220000D010E943719C6CDCF57DF4FD982C882F2
:10523000C158D0408BEE91E0CD57DF4F99838883E2
:10524000C358D04085E0CB57DF4F8883C558D04046
:10525000CA57DF4F8881C658D04080788068CA57C7
:10526000DF4F8883C658D040CE018F579F4F0E9492
:10527000831A61362AEE72078105910520F060E6F7
:105280007AEE80E090E060930B0570930C058093BC
:105290000D0590930E0580914A02882309F48ACD6A
:1052A000F0CD81E080934A02ECCD61E083ED95E0A2
:1052B00033CDCF57DF4FD982C882C158D04081EF5C
:1052C00091E0CD57DF4F99838883C358D04087E062
:1052D000CB57DF4F8883C558D040CA57DF4F8881EE
:1052E000C658D04080788068CA57DF4F8883C65838
:1052F000D040CE018F579F4F0E94831A4B015C0113
:105300008092080190920901A0920A01B0920B01CB
:105310000E94CD06A501940166E475E08EE495E057
:1053200088C8CF57DF4FD982C882C158D04059EFC3
:10533000E52E51E0F52ECD57DF4FF982E882C358B4
:10534000D04015E0CB57DF4F1883C558D040CA571F
:10535000DF4F8881C658D04080788068CA57DF4FB9
:105360008883C658D040CE018F579F4F0E940A1A9B
:105370000E94FA06CF57DF4FD982C882C158D04069
:10538000CD57DF4FF982E882C358D040CB57DF4F6B
:105390001883C558D040CA57DF4F8881C658D040BF
:1053A00080788068CA57DF4F8883C658D040CE01C6
:1053B0008F579F4F0E94831A9B01AC0167E375E0F2
:1053C0008DE395E036C881E08093E30583ED95E0B9
:1053D000909301018093000141E063E275E08EE269
:1053E00095E00E94AE17E6CC61E08DEA95E094CCA2
:1053F00060E0FBCFCF57DF4FD982C882C158D04081
:1054000081EF91E0CD57DF4F99838883C358D04017
:1054100087E0CB57DF4F8883C558D040CA57DF4F4E
:105420008881C658D04080788068CA57DF4F88830B
:10543000C658D040CE018F579F4F0E94831A4B0110
:105440005C018092080190920901A0920A01B09239
:105450000B010E94CD06A50194016EEF74E086E079
:1054600095E00C94192281E08093BD058DEA95E0CA
:10547000909301018093000141E06BED74E086EEB2
:1054800094E0AFCF1092BD0540E067EC74E082ED90
:1054900094E0A7CFCF57DF4FD982C882C158D04000
:1054A00039EFE32E31E0F32ECD57DF4FF982E8825A
:1054B000C358D04015E0CB57DF4F1883C558D040B4
:1054C000CA57DF4F8881C658D04080788068CA5755
:1054D000DF4F8883C658D040CE018F579F4F0E9420
:1054E0000A1A0E94FA06CF57DF4FD982C882C158E4
:1054F000D040CD57DF4FF982E882C358D040CB5718
:10550000DF4F1883C558D040CA57DF4F8881C6582F
:10551000D04080788068CA57DF4F8883C658D04013
:10552000CE018F579F4F0E94831A9B01AC0166EBFF
:1055300074E08CEB94E00C941922C251DF4F188276
:10554000CE5ED040CF57DF4FD982C882C158D040FD
:1055500088E092E0CD57DF4F99838883C358D040CD
:1055600085E0CB57DF4F8883C558D040CA57DF4FFF
:105570008881C658D04080788068CA57DF4F8883BA
:10558000C658D040BE0162517F4FCE018F579F4F0A
:105590000E94F919182F85E595E0112311F08FE38A
:1055A00095E0909306018093050185E0111186E056
:1055B000809307010E941D0F4AE754E0112311F068
:1055C0004FE754E065E874E081E994E07ECC0E9406
:1055D00031084B015C018092460290924702A092F2
:1055E0004802B092490284EE94E00E94C30C1092EB
:1055F000D0041092D1048092C7049092C804A09263
:10560000C904B092CA0481E08093CF0481E293E0A0
:105610000E94690C8FE393E00E94690C2BE4E22E58
:1056200023E0F22E0FE013E0F8018489882341F093
:105630008289813009F04BC1858E968EA78EB0A2EB
:10564000025E1F4FE016F10679F7E5EEF3E085ED17
:1056500094E010823F968E179F07D9F7E0910F03D1
:10566000F0911003309721F0118A128A138A148A5C
:10567000E0911103F0911203309721F0118A128A00
:10568000138A148AE0911D03F0911E033097A9F04C
:10569000158A168A178A108E118E128E138E148E0A
:1056A000158E168E178E10A211A212A213A214A28A
:1056B00016A217A210A681E081A780E592E00E94C1
:1056C000E41387E092E00E94DC0B60910801709186
:1056D000090180910A0190910B010E94B11385EF9D
:1056E00091E00E94DC0B8091000190910101835DAB
:1056F000954009F418C18BE991E00E94DC0B81EE22
:1057000091E00E94DC0B60915C0270915D028091DF
:105710005E0290915F020E94B1130E945F14E090BC
:105720003101F09032010091330110913401209148
:105730002D0130912E0140912F0150913001609147
:1057400092058DED91E00E946917E0907805F09048
:10575000790500917A0510917B05209174053091AF
:10576000750540917605509177056091710588ED3A
:1057700091E00E9469172091290130912A014091FE
:105780002B0150912C0160915B0583ED91E00E940B
:105790003A17209148053091490540914A055091AA
:1057A0004B05609145058DEC91E00E943A17E09021
:1057B0002501F090260100912701109128012091E8
:1057C000240130E050E040E06091000587EC91E07A
:1057D0000E94691760912A0582EC91E00E941D17D2
:1057E0006091E70487EB91E00E941D176091DA0455
:1057F00083EB91E00E941D174091E3056091D9056C
:105800008AEA91E00E94F1164091BD056091B305CE
:1058100081EA91E00E94F116809146029091470240
:10582000A0914802B0914902E0910C01F0910D0164
:1058300080839183A283B383E0910E01F0910F01E5
:1058400080839183A283B383E0911001F0911101D1
:1058500080839183A283B383E0911201F0911301BD
:1058600080839183A283B383E0911401F0911501A9
:1058700080839183A283B383E0911601F091170195
:1058800080839183A283B383E0911801F091190181
:1058900080839183A283B383E0911A01F0911B016D
:1058A000309721F080839183A283B383E0911C0120
:1058B000F0911D0180879187A287B3878093DF04D1
:1058C0009093E004A093E104B093E20473CA8230A1
:1058D00009F0B6CE41A452A463A474A460E070E0C1
:1058E000CB01141415041604170434F40E9437383D
:1058F000A30192010E94B339680D791D8A1D9B1D79
:10590000F80161A372A383A394A381A592A5A3A583
:10591000B4A5880D991DAA1DBB1D85A396A3A7A399
:10592000B0A715A68DCE8EE991E0E7CE80916402F6
:10593000811140CA0E9431084B015C0180926002D3
:1059400090926102A0926202B09263028091E70499
:105950008823B9F08091F504811113C084EE94E09E
:105960000E94C30C8092F6049092F704A092F8046F
:10597000B092F90481E08093F504F8941092E60463
:1059800078948090600290906102A0906202B09042
:1059900063021092CF041092D104E5EEF3E085ED9E
:1059A00094E010823F968E179F07D9F7E091150378
:1059B000F0911603309719F084810E945D08E09100
:1059C0001703F0911803309719F084810E945D0845
:1059D000E0911903F0911A03309721F060E084817F
:1059E0000E946D07E0911B03F0911C03309721F09A
:1059F00060E084810E946D07E0911D03F0911E0319
:105A0000309729F011A660E084810E946D078BE534
:105A100091E00E94DC0B8091460290914702A09198
:105A20004802B0914902A5019401281B390B4A0B89
:105A30005B0BCA01B9010E94B1130E945F1481E09F
:105A400080936402B7C98091CF0481110C94902097
:105A50000E94C01880E00E94F2130C9490200E94D3
:105A600031084B015C018091CF0481110FC00E946D
:105A700012078092C7049092C804A092C904B09201
:105A8000CA04B501A40180E00E9419164EE554E055
:105A900064E674E08FE694E018CAC251DF4F1882C2
:105AA000CE5ED040CF57DF4FD982C882C158D04098
:105AB0008EE092E0CD57DF4F99838883C358D04062
:105AC00086E0CB57DF4F8883C558D040CA57DF4F99
:105AD0008881C658D04080788068CA57DF4F888355
