:100000000C94C6050C94E82B0C94C12B0C94C32CB7
:100010000C94EE050C94EE050C94EE050C940F2C4C
:100020000C94EE050C94EE050C94EE050C94EE0584
:100030000C94EE050C94EE050C94EE050C94EE0574
:100040000C94772B0C94EE050C94912C0C946B2C47
:100050000C94EE050C94EE050C94EE050C94EE0554
:100060000C94EE050C94EE05546F6F4465657000BA
:100070004E6F4D656D6F727900496E76616C696483
:10008000496E70757400496E636F6D706C65746550
:10009000496E70757400456D707479496E70757431
:1000A000004F6B00CDCCCC3D0AD7233C17B7D138DD
:1000B00077CC2B329595E6241FB14F0A00002041E2
:1000C0000000C84200401C4620BCBE4CCA1B0E5A51
:1000D000AEC59D74227D007B226C6576656C223AEC
:1000E00022303031222C22646576696365223A22FF
:1000F000434F4E54524F4C4C4552222C2264657350
:1001000063223A225052207468726573686F6C647F
:100110002063617070656420617420007B226C65CF
:1001200076656C223A22303030222C226465766962
:100130006365223A22534C4D222C22706172616D0C
:10014000223A2274696D657374616D705F70696EB7
:10015000222C2276616C7565223A007B226C6576D2
:10016000656C223A22303037222C2264657669632E
:1001700065223A22434F4E54524F4C4C4552222C4A
:10018000226576656E74223A22454E44222C2274F2
:10019000696D657374616D70223A004C4800524875
:1001A000007B226C6576656C223A22303030222C3E
:1001B000226F6D697373696F6E5F696E74657276B5
:1001C000616C223A004C455645525F4C48004C4504
:1001D0005645525F524800534C4D004D4943524FD3
:1001E00053434F5045004C49434B004C41534552FB
:1001F0000050554D50320050554D5000435545323A
:100200000043554500227D007B226C6576656C229B
:100210003A22303030222C22646576696365223AB6
:1002200022434F4E54524F4C4C4552222C22706167
:1002300072616469676D223A224F4D495353494FA9
:100240004E222C226163746976655F6C65766572F7
:10025000223A22007B226C6576656C223A2230308D
:1002600037222C22646576696365223A22434F4E19
:1002700054524F4C4C4552222C226576656E7422A6
:100280003A225354415254222C2274696D6573747E
:10029000616D70223A307D007B226C6576656C2240
:1002A0003A22303030222C22646576696365223A26
:1002B000224D4943524F53434F5045222C227061E7
:1002C00072616D223A22747269676765725F706944
:1002D0006E222C2276616C7565223A0046495245A1
:1002E000440074657374004D4943524F53434F505B
:1002F0004500494E444550454E44454E54006D6FAF
:100300006465004C4153455200434F4E54494E479B
:10031000454E54006D6F6465004C41534552006476
:1003200075726174696F6E004C415345520066727C
:10033000657175656E6379004C41534552004649BD
:100340005245440074657374004C41534552004655
:100350004952454400746573740050554D50320045
:100360006475726174696F6E0050554D503200466D
:100370004952454400746573740050554D500064F3
:1003800075726174696F6E0050554D500046495248
:1003900045440074657374004355453200647572BA
:1003A0006174696F6E004355453200667265717500
:1003B000656E637900435545320046495245440015
:1003C0007465737400435545006475726174696F98
:1003D0006E00435545006672657175656E63790000
:1003E00043554500A1009600860079007000680022
:1003F0007B226C6576656C223A22303036222C22C4
:1004000064657363223A22436F6D6D616E64206E82
:100410006F7420666F756E64227D007365737369F7
:100420006F6E5F70617573656400434F4E54524F39
:100430004C4C455200746573745F6D6F6465004386
:100440004F4E54524F4C4C45520046495245440081
:10045000746573745F636861696E00434F4E5452F4
:100460004F4C4C4552006F6D697373696F6E5F69D5
:100470006E74657276616C00434F4E54524F4C4C13
:1004800045520050554D500050554D50320061635B
:10049000746976655F70756D7000434F4E54524FAE
:1004A0004C4C4552007265696E666F7263656400FC
:1004B0004C455645525F4C48007265696E666F72D6
:1004C000636564004C455645525F4C48007265694F
:1004D0006E666F72636564004C455645525F5248C4
:1004E000007265696E666F72636564004C455645BF
:1004F000525F524800227D007B226C6576656C223B
:100500003A22303036222C2264657363223A22006C
:1005100044495341524D45440041524D4544002207
:100520007D002C2264657363223A2200222C227003
:10053000696E223A007B226C6576656C223A223025
:100540003031222C22646576696365223A220022CA
:100550002C22706172616D223A2270696E222C2207
:1005600076616C7565223A007B226C6576656C223B
:100570003A22303030222C22646576696365223A53
:100580002200222C2276616C7565223A00222C22F0
:10059000706172616D223A22007B226C6576656C17
:1005A000223A22303030222C22646576696365223B
:1005B0003A220066616C7365007472756500222CC6
:1005C0002276616C7565223A00222C22706172617C
:1005D0006D223A22007B226C6576656C223A2230CD
:1005E0003030222C22646576696365223A2200222B
:1005F0007D00222C2276616C7565223A2200222C25
:1006000022706172616D223A22007B226C657665F0
:100610006C223A22303030222C2264657669636580
:10062000223A220044495341524D45440041524D23
:10063000454400227D002C2264657363223A220027
:100640007B226C6576656C223A22303031222C2276
:10065000646576696365223A224D4943524F53439C
:100660004F5045222C2270696E223A0066616C73ED
:10067000650074727565002C226475726174696F0F
:100680006E223A002C226672657175656E6379225E
:100690003A00222C2261726D6564223A007B226C42
:1006A0006576656C223A22303030222C22646576E1
:1006B000696365223A220066616C73650074727525
:1006C00065002C226475726174696F6E223A002293
:1006D0002C2261726D6564223A007B226C6576651E
:1006E0006C223A22303030222C22646576696365B0
:1006F000223A220066616C7365007472756500228F
:100700002C2261726D6564223A007B226C657665ED
:100710006C223A22303030222C226465766963657F
:10072000223A220066616C7365007472756500661A
:10073000616C73650074727565002C227265696E58
:10074000666F72636564223A00222C2261726D65C5
:1007500064223A007B226C6576656C223A22303046
:1007600030222C22646576696365223A2200027B7E
:10077000226C6576656C223A22303030222C22645D
:100780006576696365223A22434F4E54524F4C4C72
:100790004552222C22736B65746368223A226F6D76
:1007A000697373696F6E2E696E6F222C2276657283
:1007B00073696F6E223A2276322E302E30222C222E
:1007C000626175645F72617465223A31313532302D
:1007D000302C227363686564756C65223A224F4D34
:1007E000495353494F4E227D002C22656E645F743D
:1007F000696D657374616D70223A002C22657665AF
:100800006E74223A224C49434B222C22737461723B
:10081000745F74696D657374616D70223A00222C87
:100820002270696E223A007B226C6576656C223AF2
:1008300022303037222C22646576696365223A22A1
:10084000002C22656E645F74696D657374616D70F0
:10085000223A002C226576656E74223A225354495E
:100860004D222C2273746172745F74696D657374A8
:10087000616D70223A007B226C6576656C223A22AB
:10088000303037222C22646576696365223A224C27
:1008900041534552222C2270696E223A002C226567
:1008A00076656E74223A2254494D455354414D5059
:1008B000222C2274696D657374616D70223A007B1D
:1008C000226C6576656C223A22303038222C226404
:1008D0006576696365223A224D4943524F53434F2F
:1008E0005045222C2270696E223A002C22657665D2
:1008F0006E74223A2254494D455354414D50222C96
:100900002274696D657374616D70223A007B226C8C
:100910006576656C223A22303039222C2264657665
:10092000696365223A22534C4D222C2270696E2253
:100930003A0000000000240027002A000000000008
:10094000250028002B0000000000230026002900BD
:100950000404040404040404020202020202030365
:10096000030303030102040810204080010204086D
:1009700010200102040810200000000800020100FD
:100980000003040700000000000000004449534138
:10099000524D45440041524D454400227D002C22D9
:1009A00064657363223A22007B226C6576656C2253
:1009B0003A22303031222C22646576696365223A0E
:1009C00022534C4D222C2270696E223A0054494D1C
:1009D000454F555400494E41435449564500414303
:1009E0005449564500227D002C226F7269656E7451
:1009F0006174696F6E223A22002C22656E645F7406
:100A0000696D657374616D70223A00222C227374D3
:100A10006172745F74696D657374616D70223A0000
:100A20002C226576656E74223A2250524553532229
:100A30002C22636C617373223A22007B226C6576F0
:100A4000656C223A22303037222C22646576696345
:100A500065223A225357495443485F4C4556455204
:100A6000222C2270696E223A002C2273636865641E
:100A7000756C65645F6174223A002C227461726740
:100A80006574223A007B226C6576656C223A2230CE
:100A90003036222C226572726F725F636F6465223A
:100AA0003A22455F50454E44494E475F46554C4CAF
:100AB000222C2264657363223A2250656E64696E4B
:100AC0006720616374696F6E207175657565206656
:100AD000756C6C20E2809420616374696F6E206491
:100AE000726F70706564222C22616374696F6E5F2F
:100AF00074797065223A005354494D00494E465569
:100B000053494F4E00494E465553494F4E00544F9E
:100B10004E4500544F4E45004C41534552005055F0
:100B20004D505F320050554D50004355455F3200E7
:100B3000435545002C22656E645F74696D6573745E
:100B4000616D70223A00222C2273746172745F749A
:100B5000696D657374616D70223A002C226576654B
:100B60006E74223A2200222C2270696E223A007B97
:100B7000226C6576656C223A22303037222C226452
:100B80006576696365223A220000712D11241FBE2B
:100B9000CFEFD8E0DEBFCDBF12E0A0E0B1E0ECEDDA
:100BA000F4E702C005900D92AA32B107D9F725E00B
:100BB000AAE2B2E001C01D92A83DB207E1F715E03C
:100BC000C6ECD5E004C02197FE010E945F38C53C09
:100BD000D107C9F70E94BE300C946C3A0C94000007
:100BE000CF93DF93EC0188819981DC01ED91FC9139
:100BF0000190F081E02D64E270E00995009741F0EA
:100C00002FE1FC01238321E02283DF91CF9108951E
:100C100021E02A83FACFEEEEF2E031E0328B138A44
:100C2000348B418F528F638F748F158E168E178E73
:100C300010A239E036A734E637A712AA33E0309382
:100C4000780310923C0330933D0310923E031092C0
:100C50003F0310924003109241034091740550915C
:100C60007505609176057091770540934203509326
:100C7000430360934403709345031092460320930B
:100C80004703109248031092490310924A031092AE
:100C90004B03FC0181859285A385B48580934C0329
:100CA00090934D03A0934E03B0934F0310925003C3
:100CB00087E08093510310925203109253031092D5
:100CC0005403109255038091E6049091E704A0919B
:100CD000E804B091E9048093560390935703A093DE
:100CE0005803B09359030895E4ECF3E010823F9663
:100CF00084E0E43BF807D1F70895833081F028F4CD
:100D0000813099F08230A9F008958730A9F08830B9
:100D1000C9F08430B1F4809180008F7D03C0809150
:100D200080008F7780938000089584B58F7784BD8D
:100D3000089584B58F7DFBCF8091B0008F7780932D
:100D4000B00008958091B0008F7DF9CFCF93DF93ED
:100D5000282F30E0F901E858F64F8491F901EC5959
:100D6000F64FD491F901E05BF64FC491CC23A1F08A
:100D700081110E947D06EC2FF0E0EE0FFF1FEA5B71
:100D8000F64FA591B491EC91ED2381E090E009F448
:100D900080E0DF91CF91089580E090E0FACF1F933B
:100DA000CF93DF93282F30E0F901E858F64F849174
:100DB000F901EC59F64FD491F901E05BF64FC4917B
:100DC000CC23A9F0162F81110E947D06EC2FF0E0B4
:100DD000EE0FFF1FE45CF64FA591B4918FB7F89426
:100DE000EC91111108C0D095DE23DC938FBFDF9109
:100DF000CF911F910895DE2BF8CFCF93DF9390E032
:100E0000FC01EC59F64F2491805B964FFC018491D4
:100E10008823C9F090E0880F991FFC01EE5CF64F23
:100E2000A591B491FC01E45CF64FC591D491611198
:100E30000DC09FB7F8948C91209582238C93888164
:100E4000282328839FBFDF91CF910895623051F40A
:100E50009FB7F8943C91822F809583238C93E881EF
:100E60002E2BEFCF8FB7F894EC912E2B2C938FBFB6
:100E7000EACF3FB7F8948091490290914A02A0913D
:100E80004B02B0914C0226B5A89B05C02F3F19F02C
:100E90000196A11DB11D3FBFBA2FA92F982F8827FA
:100EA000BC01CD01620F711D811D911D42E0660FD5
:100EB000771F881F991F4A95D1F708958F929F92A7
:100EC000AF92BF92CF92DF92EF92FF920E943907CA
:100ED0004B015C0184E6C82ED12CE12CF12C0E9440
:100EE0003907681979098A099B09683E73408105A9
:100EF0009105A8F321E0C21AD108E108F10888EEB3
:100F0000880E83E0981EA11CB11CC114D104E10419
:100F1000F10429F7FF90EF90DF90CF90BF90AF9052
:100F20009F908F9008952FB7F8946091450270912B
:100F3000460280914702909148022FBF08950F9377
:100F40001F93CF93DF93C091EC02D091ED022097D5
:100F500081F081E08A830E949307088519852A859C
:100F60003B85601B710B820B930B6C837D838E839F
:100F70009F83DF91CF911F910F91089508959091D4
:100F8000040189130BC0EEE6F7E0E4919FEF909324
:100F90000401E13049F028F0E23061F060E00C94A7
:100FA000CF0610926E00FACF90916F009D7F9093C4
:100FB0006F00F4CF909170009D7F9093700091E04E
:100FC0009093B0009091B100987F94609093B1009D
:100FD0001092B300E3CF4F925F926F927F928F9205
:100FE0009F92AF92BF92CF92DF92EF92FF920F93B8
:100FF0001F93CF93DF9300D000D01F92CDB7DEB701
:101000008B0129013A01909104018917C9F09F3F92
:1010100009F47EC00F900F900F900F900F90DF910A
:10102000CF911F910F91FF90EF90DF90CF90BF90E5
:10103000AF909F908F907F906F905F904F900895AA
:10104000EEE6F7E094919D8397FDE4CF61E00E9486
:10105000FD068D81882321F09D81923009F04AC1DF
:101060004801B12CA12C60E072E18AE790E0A50173
:1010700098010E94AB3629833A834B835C836901D4
:101080007A0181E0C81AD108E108F1089FEFC9167A
:10109000D104E104F10409F00CF401C160E472E44C
:1010A0008FE090E0A50198010E94AB3669017A01BA
:1010B00081E0C81AD108E108F1089D81923009F059
:1010C000A2C08FEFC816D104E104F10409F00CF4BA
:1010D000E6C160E970ED83E090E0A50198010E940F
:1010E000AB3669017A0191E0C91AD108E108F1082B
:1010F0008FEFC816D104E104F10411F00CF07FC1A8
:1011000083E09091B100987F892B8093B100CFC08C
:1011100080930401EEE6F7E094919D839F3F09F4EC
:1011200079CF913041F150F0923009F446C09D8161
:1011300097FD70CF61E00E94FD068ECF14BC15BCF8
:1011400094B5926094BD95B5916095BD282F30E01F
:10115000F901E05BF64FE491F0E0EE0FFF1FE45C75
:10116000F64F45915491F901EC59F64FE491E09313
:101170002F021D826BCF10928000109281009091FF
:10118000810098609093810090918100916090938C
:101190008100282F30E0F901E05BF64FE491F0E0A8
:1011A000EE0FFF1FE45CF64F45915491F901EC59A5
:1011B000F64FE491E0932E0249CF1092B0001092C6
:1011C000B1009091B00092609093B0009091B10006
:1011D00091609093B100282F30E0F901E05BF64F69
:1011E000E491F0E0EE0FFF1FE45CF64F459154915F
:1011F0005093390240933802F901EC59F64FE491CB
:10120000E0933A0223CF9FEFC916D104E104F10421
:1012100009F00CF46DC068E478EE81E090E0A5017F
:1012200098010E94AB3669017A0181E0C81AD108A1
:10123000E108F1089D81992309F4FAC08FEFC816DF
:10124000D104E104F10411F00CF0FBC0EFC064E242
:1012500074EF80E090E0A50194010E94AB36690133
:101260007A0181E0C81AD108E108F10885E09FEF12
:10127000C916D104E104F10409F008F442CF62E197
:101280007AE780E090E0A50194010E94AB36690105
:101290007A0181E0C81AD108E108F108E5C081E0CF
:1012A0009D8191112ECF95B5987F892B85BD2FEF0C
:1012B0003FEFA901411451046104710409F043C0D6
:1012C0009D81913009F45EC0923009F46DC0911196
:1012D000A1CEC7BC2093340230933502409336022E
:1012E0005093370280916E00826080936E0092CEA0
:1012F00082E0D6CFB12CA12C60E072E18AE790E0C9
:10130000A50198010E94AB3669017A0181E0C81AF3
:10131000D108E108F108C114D10491E0E906F10413
:1013200004F591E08D81813011F680918100887FF4
:10133000892B809381002FEF3FEFA90141145104C5
:1013400061047104F9F0D801AA0FBB1FA301920137
:101350000E94CA3628EE33E040E050E00E94143785
:10136000AFCF68E478EE81E090E0A50198010E949B
:10137000AB3669017A0181E0C81AD108E108F108A9
:1013800093E0D0CFD0928900C092880020933002A1
:1013900030933102409332025093330280916F00B8
:1013A000826080936F0036CEC092B30020933B02E0
:1013B00030933C0240933D0250933E028091700076
:1013C00082608093700026CE84E09FEFC916D1041E
:1013D000E104F10409F008F466CFC980DA80EB80FB
:1013E000FC808AE0F594E794D794C7948A95D1F766
:1013F00081E0C81AD108E108F10885E054CF68E41B
:1014000078EE81E090E0A50198010E94AB36690179
:101410007A0181E0C81AD108E108F1089FEFC916E6
:10142000D104E104F10411F00CF011CF84E069CE95
:1014300083E09FEFC916D104E104F10409F00CF434
:1014400032CF62E17AE780E090E0A50194010E944A
:10145000AB3669017A0181E0C81AD108E108F108C8
:101460009D81992309F4B0CF86E09FEFC916D1047E
:10147000E104F10409F008F444CEC980DA80EB807D
:10148000FC809AE0F594E794D794C7949A95D1F7A5
:1014900081E0C81AD108E108F10887E032CE82E085
:1014A00030CEAF92BF92CF92DF92EF92FF920F9326
:1014B0001F93CF93DF936C017B018B01040F151FEA
:1014C000EB015E01AE18BF08C017D10759F0699152
:1014D000D601ED91FC910190F081E02DC6010995B6
:1014E000892B79F7C501DF91CF911F910F91FF9063
:1014F000EF90DF90CF90BF90AF900895FC01538D97
:10150000448D252F30E0842F90E0821B930B5417DD
:1015100010F0CF96089501970895FC01918D828D6A
:10152000981761F0A28DAE0FBF2FB11D5D968C9103
:10153000928D9F5F9F73928F90E008958FEF9FEF42
:101540000895FC01918D828D981731F0828DE80FFE
:10155000F11D858D90E008958FEF9FEF0895FC01B8
:10156000918D228D892F90E0805C9F4F821B910985
:101570008F73992708958DE492E00E94AF0A21E0CD
:10158000892B09F420E0822F089580E090E0892BD8
:1015900029F00E94BB0A81110C9400000895FC01FF
:1015A000A48DA80FB92FB11DA35ABF4F2C91848DC4
:1015B00090E001968F739927848FA689B7892C9321
:1015C000A089B1898C91837080648C93938D848D74
:1015D000981306C00288F389E02D80818F7D808377
:1015E0000895EF92FF920F931F93CF93DF93EC0137
:1015F00081E0888F9B8D8C8D98131AC0E889F989BA
:10160000808185FF15C09FB7F894EE89FF896083BC
:10161000E889F98980818370806480839FBF81E03D
:1016200090E0DF91CF911F910F91FF90EF9008957F
:10163000F62E0B8D10E00F5F1F4F0F731127E02E5A
:101640008C8D8E110CC00FB607FCFACFE889F98992
:10165000808185FFF5CFCE010E94CF0AF1CFEB8DBF
:10166000EC0FFD2FF11DE35AFF4FF0829FB7F89466
:101670000B8FEA89FB8980818062CFCF0F931F9304
:10168000CF93DF938C01D0E0C0E0F801EC0FFD1F99
:101690006491662341F08DE492E00E94F10A892B67
:1016A00011F02196F2CFCE01DF91CF911F910F91D2
:1016B0000895CF93DF93EC01888D8823B9F0AA8930
:1016C000BB89E889F9898C9185FD03C0808186FDFD
:1016D0000DC00FB607FCF7CF8C9185FFF2CF80814C
:1016E00085FFEDCFCE010E94CF0AE9CFDF91CF91E8
:1016F0000895CF92DF92EF92FF921F93CF93DF93E3
:10170000EC016A017B018C810E94A60611E0892B05
:1017100009F410E08B85181721F0CD8ADE8AEF8A54
:10172000F88E8D899E89AF89B88DB701A601481BB7
:10173000590B6A0B7B0B898D90E0B0E0A0E0841719
:101740009507A607B70798F48C85181781F01C87B2
:101750008A851817A9F0CA8EDB8EEC8EFD8EEAA161
:10176000FBA1309721F0B701A601898509951B8758
:10177000DF91CF911F91FF90EF90DF90CF90089570
:10178000CE8EDF8EE8A2F9A2ECA1FDA1309779F30D
:1017900089850995ECCFFC01158213861486158680
:1017A00016861786108A118A128A138A148A158A55
:1017B000168A138E8681882311F08481838308958D
:1017C000CF92DF92EF92FF920F931F93CF93DF930D
:1017D000EC018E81811103C08D89882369F18C8190
:1017E0000D851E852F8538896A017B01C01AD10AB3
:1017F000E20AF30A9701860137FD18C009891A89A0
:101800002B893C89401B510B620B730B1416150678
:10181000160617065CF061E0DF91CF911F910F91E2
:10182000FF90EF90DF90CF900C94CF0660E00E9485
:10183000CF068D8981111D8ADF91CF911F910F9164
:10184000FF90EF90DF90CF900895CF93DF93EC015E
:1018500061E088810E94CF0681E08C870E94930717
:101860006D877E878F87988BDF91CF910895CF9278
:10187000DF92EF92FF92CF93DF93EC016A017B013D
:1018800069857A858B859C850E948C359B01AC018E
:1018900060E070E080E89FE30E94B23720E030E033
:1018A00040E05FE30E94ED3520E030E04AE754E499
:1018B0000E94ED35C98EDA8EEB8EFC8E20E030E092
:1018C00040E05FE30E9446370E942B38C60ED71EC9
:1018D000E81EF91ECD8EDE8EEF8EF8A28BA191E070
:1018E00089278BA3DF91CF91FF90EF90DF90CF906E
:1018F0000895CF92DF92EF92FF92CF93DF93EC01A6
:101900006A017B0189899A89AB89BC89AB019601FF
:10191000281B390B4A0B5B0BDA01C901B7FD49C023
:101920008D899E89AF89B88DAB019601281B390B33
:101930004A0B5B0BDA01C901181619061A061B06B9
:10194000C4F18AA18823A9F189859A85AB85BC85D4
:101950000197A105B10551F461E08C81DF91CF9130
:10196000FF90EF90DF90CF900C94CF068D8D9E8DE1
:10197000AF8DB8A1AB019601281B390B4A0B5B0B4D
:10198000DA01C901B7FD04C0A601CE010E94370CDF
:101990008C819BA1992311F061E0E0CF60E00E946F
:1019A000CF061BA2DF91CF91FF90EF90DF90CF90F9
:1019B000089560E08C810E94CF061BA28D899E89CC
:1019C000AF89B88DC81AD90AEA0AFB0A8AA1882306
:1019D00031F01C141D041E041F040CF41AA28CA167
:1019E000882301F31C141D041E041F04DCF61CA232
:1019F000D9CF8F929F92AF92BF92CF92DF92EF9208
:101A0000FF920F931F93CF93DF93EC018E8181118F
:101A100004C088A1882309F445C07B0189899A897B
:101A2000AB89BC894A015B01881A990AAA0ABB0AD8
:101A3000C501B40197FD53C00D891E892F89388DCA
:101A40004A015701801A910AA20AB30A950184013A
:101A500010161106120613060CF441C02A8D22231B
:101A6000A9F10C8D1D8D2E8D3F8D200F311F21155D
:101A7000310511F421E030E0FB8C50E040E00E94A1
:101A8000143760177107D8F4F1100AC069857A8598
:101A900020E030E0A9018C810E94EB0781E08B8F70
:101AA00081E0898FDF91CF911F910F91FF90EF908F
:101AB000DF90CF90BF90AF909F908F900895FF20C0
:101AC00079F38C810E94BF071B8EEACF69857A85E6
:101AD00020E030E0A9018C810E94EB07E1CF898DE5
:101AE000882301F38C810E94BF07198E1B8E88A169
:101AF0008823C1F218A2D6CF6F3FA9F0E62FE29556
:101B0000EF7044E0E49F90011124DC01ED91FC9121
:101B1000E20FF31F6F7082819381B6E06B9F800D9F
:101B2000911D1124089590E080E00895982F80334E
:101B30006CF08A3324F08F3524F08B3724F481E065
:101B4000089581341CF081E09B350CF080E008950D
:101B5000FC01828581110AC0A781B085CD01019663
:101B6000908787838C91818781E082878185089522
:101B70001F93CF93DF93EC01162F0E94A80D8113C2
:101B800006C01A8681E0DF91CF911F91089580E011
:101B9000FACF0F931F93CF93DF938C01EB018991C1
:101BA000882369F0C8010E94A80D882379F0FE01FE
:101BB0003197908198130DC0F8011286F0CF90E014
:101BC00080E0DF91CF911F910F91089582E090E026
:101BD000F8CF83E090E0F5CFCF93DF93EC01CE0117
:101BE0000E94A80D8B304CF489305CF4882359F0A6
:101BF00081E08E8390E080E00BC08D3011F0803268
:101C0000B9F71A86ECCF8E81811105C081E090E092
:101C1000DF91CF91089582E090E0FACFDC015296F7
:101C20009C915297915084E0989F90011124509676
:101C3000ED91FC91E20FF31F2281338121153105D3
:101C400079F041818081481758F481E0840F8183C5
:101C500086E0489F200D311D11242115310521F406
:101C600060E070E08FEF0895B901892F8295807F41
:101C7000840F0895DF92EF92FF920F931F93CF93FB
:101C8000DF93EC017B01D12C688979898A89D81688
:101C9000E0F484E0D89E80011124060F171FD801BC
:101CA00012966D917C916115710541F0D701ED910E
:101CB000FC910280F381E02DC7010995F8011382A0
:101CC000128210821182D394DFCF1A8A8FEF8C8B0D
:101CD000C617D70761F0D701ED91FC910280F3811F
:101CE000E02DC7010995D98BC88B84E08B8BDF91E0
:101CF000CF911F910F91FF90EF90DF900895409149
:101D00000701509108016091090170910A01209129
:101D10000B0180910501909106010C940B064F92E6
:101D20005F926F927F928F929F92AF92BF92CF926B
:101D3000DF92EF92FF920F931F93CF93DF9300D028
:101D400000D01F92CDB7DEB7DC012C912B32E1F130
:101D50002D32D9F50196EE24E394FC01208130ED7B
:101D6000320F3A3010F02E3291F58C0160E070E0C5
:101D7000CB01F801219130ED832E820E39E0381528
:101D800008F444C06A3949E97407840749E19407B3
:101D900008F046C0AAE0B0E09B01AC010E94CA3640
:101DA000912CB12CA12C24013501409450946094C5
:101DB0007094461657066806790690F1680D791DED
:101DC0008A1D9B1D8F01D5CF0196E12CC6CF1982AC
:101DD00029813A814B815C816D8170E080E090E0E7
:101DE0000F900F900F900F900F90DF91CF911F9158
:101DF0000F91FF90EF90DF90CF90BF90AF909F90AA
:101E00008F907F906F905F904F900895211108C040
:101E1000EE2051F161307105810550E89507A0F081
:101E2000F12CBAE08B2E912CA12CB12C61157105EF
:101E300030E883079105F8F0A50194010E9414375A
:101E4000CA01B901F394F2CF22E029839B01AC01CE
:101E500088279927DC01821B930BA40BB50B8A837F
:101E60009B83AC83BD83B4CF23E029836A837B83C8
:101E70008C839D83ADCFF801D8012D918D0130ED7C
:101E8000320F3A3010F4F394F6CF2E3201F58F0171
:101E90000F5F1F4FF8010F5F1F4F2081A0EDDA2E5B
:101EA000D20EB9E0BD1598F06C3CECEC7E07ECE08E
:101EB0008E07910578F7AAE0B0E09B01AC010E9483
:101EC000CA366D0D711D811D911DFA94E3CF2081DD
:101ED0002F7D10E000E0253409F050C021812D3223
:101EE000B1F53296CC24C394DF0110E000E02F2D31
:101EF0000F2C000C330BEAE0BE2EFD01DD9040ED0F
:101F00004D0D4A30B0F5B09EA001B19E500D112488
:101F10000D2DDD0C110B00531109040F151FA80125
:101F2000420F531F4732510544F3CC20B9F080E0F3
:101F300090E0A0E0B0E8E11003C080E090E0DC01B8
:101F400021E029838A839B83AC83BD8341CF2B32DD
:101F500019F03196C12CC8CF3296FCCF80E090E0CA
:101F6000A0E8BFEFE110ECCF80E090E0A0E8BFE791
:101F7000E7CFCC2019F0119501951109208121118D
:101F800026CF0F0D111DF7FC1A950E948C354CEBD6
:101F9000A42E40E0B42E101611063CF011950195C8
:101FA000110954EAA52E50E0B52ED12CC12C0115F3
:101FB0001105E9F0F6E0CF16D104A9F000FF0DC03D
:101FC000F601EE0FFF1FEE0FFF1FEA0DFB1D25911F
:101FD0003591459154910E94ED35159507952FEF58
:101FE000C21AD20AE4CF60E070E080EC9FE7E11013
:101FF000905821E029836A837B838C839D83E8CE7C
:10200000CF92DF92EF92FF920F931F93CF93DF93C4
:102010007C016B018A01FC01C081D1814F3F5105D8
:1020200009F0B0F4E881F9810480F581E02D4B5F7F
:102030005F4FCE010995009759F0FC010383DF91B2
:10204000CF911F910F91FF90EF90DF90CF90089567
:10205000E881F9810280F381E02DB601CE01099576
:1020600081E0F701828390E080E0E9CF1F93CF9376
:10207000DF93EC01162F6A817B816115710589F070
:102080004C815D81FB0183818417150651F4440F57
:10209000551F4F5F5F4F888199810E9400109B837D
:1020A0008A838A819B81009759F02C813D81A90107
:1020B0004F5F5F4F5D834C83820F931FFC0114833E
:1020C000DF91CF911F9108959F92AF92BF92CF92CF
:1020D000DF92EF92FF920F931F93CF93DF9300D085
:1020E00000D01F92CDB7DEB78C010E94A80DD82E6C
:1020F000F8011286F12CE12C60EFC62EC8010E9477
:10210000A80DF8011286D81609F4B3C0811113C0C6
:1021100082E090E00F900F900F900F900F90DF9162
:10212000CF911F910F91FF90EF90DF90CF90BF90D4
:10213000AF909F9008958C3509F099C0C8010E9416
:10214000A80D882329F3E7E9F1E0853709F083C07A
:10215000F801128654E0952EB12CA12CC8010E94E2
:10216000A80D8823A9F2813434F48053803130F0F3
:1021700083E090E0CFCF8F7D8753F8CF44E0AA0C67
:10218000BB1C4A95E1F7A82AF80112869A9491108F
:10219000E5CFC501985D8115944020F47501F3E009
:1021A000FF22ACCFC5019C5D81159440A8F483E06B
:1021B000B822B701762F6627770F770F6A297B2918
:1021C00090E080E00196603871058105910540F44A
:1021D000C8010E94361092CFB50190E080E0F3CFA5
:1021E0001982262F2F7320682A8326E096958795DB
:1021F000779567952A95D1F76032710580F4606C08
:102200006B835E01E4E0AE0EB11CF50162915F01EB
:10221000662309F473CFC8010E943610F6CF262F2B
:102220002F7320682B8386E0769567958A95E1F772
:102230006031710538F4606E6C835E01F5E0AF0EBD
:10224000B11CE3CF60686C83CD825E0126E0A20EF4
:10225000B11CDBCF32969081992309F489CF891381
:10226000F9CF8181882309F483CFF8011286682F82
:10227000AFCF82819381892B19F484E090E04ACF1B
:1022800090E080E047CF6F927F928F929F92AF92C3
:10229000BF92CF92DF92EF92FF920F931F93CF9353
:1022A000DF93EC012A813B812C5F3F4F4C815D81A4
:1022B0004430510588F58901F90180E0942FB22F4F
:1022C000AE2FA21BA91730F4F190A1E0F110A0E00D
:1022D0008A2BF6CF811120C082E0EB018C83FB01B9
:1022E000802F8B1B891728F4E80189918E01819337
:1022F000F7CF640F751FFB011082DF91CF911F9103
:102300000F91FF90EF90DF90CF90BF90AF909F9094
:102310008F907F906F9008958B01F901E40FF51F66
:102320001082888199814C815D81DC011396ED9149
:10233000FC913A01E89477F86901C60CD71C3097F4
:10234000C1F0A381A615170481F449017F01B4E00F
:10235000EB0EF11C8C149D0429F1D401AD904D01BC
:10236000D701BD907D01AB14A9F30190F081E02D60
:10237000E6CF6A817B810E940010FC01A881B981AF
:1023800013968D919C911497918380831496FC935E
:10239000EE9313971B821A8285E0E8018C83F98300
:1023A000E883ABCF82818F5F8283F6CFDB01ED9133
:1023B000FC9111970280F381E02DBC01CD010994BD
:1023C000AF92BF92CF92DF92EF92FF920F931F9343
:1023D000CF93DF93EC018B018C8180FF24C0A88117
:1023E000B981FB018381948130E020E00097D9F02E
:1023F000A817B907D1F5F8016081718112968C9107
:102400001297815012968C93129781110CC08D9166
:102410009C9111972115310529F1F9019183808350
:10242000CD010E94D6118C81807631F1209721F167
:10243000F8805801F5E1AF0EB11C8FEFF816D1F01E
:102440006F2DC5010E947C0D6C01FC01E580B80177
:102450000E94E011F801818DF6018083F801F18E70
:10246000FE2CEBCF94838383DBCF9C01FC01808126
:102470009181BCCFF882F9821C82DF91CF911F91AC
:102480000F91FF90EF90DF90CF90BF90AF900895A5
:102490000F931F93CF93DF93EC01088119818B81F8
:1024A0009C81009749F0FC01208131813C832B8382
:1024B000B8010E94D611F3CF68817981CE010596CB
:1024C000DF91CF911F910F910C943A0EFC01019076
:1024D0000020E9F73197AF01481B590BBC018DE48F
:1024E00092E00C94510A8F929F92AF92BF920F93F9
:1024F0001F93CF93DF93CDB7DEB7A1970FB6F894B4
:10250000DEBF0FBECDBF19A2423008F44AE08E01F3
:102510000F5D1F4F842E912CB12CA12CA50194018D
:102520000E941437E62FB901CA01EA30F4F4E05DE5
:10253000D801EE938D01232B242B252B79F790E0E6
:1025400080E0109719F0CD010E946612A1960FB697
:10255000F894DEBF0FBECDBFDF91CF911F910F91D9
:10256000BF90AF909F908F900895E95CE1CF4AE0D3
:102570000C947312CF92DF92EF92FF92CF93DF937E
:102580006C01990FEE08FF08F7FE19C06DE28DE4AB
:1025900092E00E94F10AEC0166277727CB016C19C3
:1025A0007D098E099F094AE00E9473128C0F9D1FBE
:1025B000DF91CF91FF90EF90DF90CF9008954AE0A8
:1025C000C701B601DF91CF91FF90EF90DF90CF90E0
:1025D0000C947312CF93DF930E943E0BEC018AEAB6
:1025E00091E00E9466128C0F9D1FDF91CF9108959C
:1025F000CF93C82F8093B90488EA99E00E943E0BDC
:102600008091B704082E000C990B0E94BA128EE933
:1026100099E00E943E0B8CE899E0CC2311F085E90B
:1026200099E00E943E0B8BE999E0CF910C94EA125D
:102630000F931F93CF938C01C62FFC01638380E41B
:1026400096E00E943E0BF8018081082E000C990B49
:102650000E94BA1286E396E00E943E0B84E296E066
:10266000CC2311F08DE296E00E943E0B83E396E0CE
:10267000CF911F910F910C94EA12EF92FF920F935A
:102680001F93CF93DF937C018B01EA018AE096E0F0
:102690000E943E0BC7010E943E0B8EEF95E00E9408
:1026A0003E0BC8010E943E0B82EF95E00E943E0B5C
:1026B000CE010E943E0B8FEE95E0DF91CF911F91EE
:1026C0000F91FF90EF900C94EA12CF93DF936DE798
:1026D0008DE492E00E94F10AEC018AEA91E00E9406
:1026E00066128C0F9D1FDF91CF9108954F925F92DC
:1026F0006F927F928F929F92AF92BF92EF92FF92D2
:102700000F931F93CF93DF932A013B014801590197
:10271000853009F480C008F061C0843009F46FC0CE
:10272000E091F402F091F5021481C3E1DBE040E3B3
:10273000E42E4BE0F42E8FE69BE00E943E0BC70197
:102740000E943E0B86E69BE00E943E0B812F110FFC
:10275000990B0E94BA128BE59BE00E943E0BCE01C2
:102760000E943E0B86E49BE00E943E0B8091A604F3
:102770009091A704A091A804B091A904A30192018B
:10278000281B390B4A0B5B0BCA01B9010E94B71217
:1027900084E39BE00E943E0B8091A6049091A704E5
:1027A000A091A804B091A904A5019401281B390B9C
:1027B0004A0B5B0BCA01B9010E94B712DF91CF919E
:1027C0001F910F91FF90EF90BF90AF909F908F90CF
:1027D0007F906F905F904F900C946513863039F125
:1027E000873009F09DCFE091FC02F091FD02148149
:1027F000C7EFDAE088E1E82E8BE0F82E9CCFE0917D
:10280000F602F091F7021481CEE0DBE03AE2E32E2B
:102810003BE0F32E90CFE091F802F091F9021481A1
:10282000C5E0DBE025E2E22E2BE0F22E84CFE09142
:10283000FA02F091FB021481CCEFDAE09EE1E92E7E
:102840009BE0F92E78CFCF92DF92EF92FF920F9319
:102850001F93CF93DF93EC018881813009F4D1C0BD
:102860006A017B01813090F08230D1F480E093E006
:102870000E94CB0B8EE193E0DF91CF911F910F91DE
:10288000FF90EF90DF90CF900C94CB0B8981853037
:1028900009F47DC070F48330F1F1843009F45AC03A
:1028A000DF91CF911F910F91FF90EF90DF90CF902C
:1028B0000895863009F488C0873091F7E091FC02D2
:1028C000F091FD02309761F38681882349F381A15D
:1028D0008111E6CF8E819F81A885B985C18AD28A70
:1028E000E38AF48A8C0D9D1DAE1DBF1D858B968BD2
:1028F000A78BB08F81E082A3CF010E94370C0E819D
:102900001F81288539850C0D1D1D2E1D3F1DB7010A
:10291000A60187E01CC0E091F402F091F502309727
:1029200009F4BECF8681882309F4BACF0E811F81B6
:1029300028853985C18AD28AE38AF48A0C0D1D1D47
:102940002E1D3F1D058B168B278B308F83E00E9439
:102950007613A6CFE091F602F091F702309709F4D2
:102960009FCF8681882309F49BCF0E811F81288504
:102970003985C18AD28AE38AF48A0C0D1D1D2E1D69
:102980003F1D058B168B278B308F84E0E0CFE091C5
:10299000F802F091F902309709F482CF86818823FA
:1029A00009F47ECF0E811F8128853985C586D6869C
:1029B000E786F08A0C0D1D1D2E1D3F1D018B128B0D
:1029C000238B348B85E0C3CFE091FA02F091FB02B8
:1029D000309709F465CF8681882309F461CF0E8191
:1029E0001F8128853985C586D686E786F08A0C0D35
:1029F0001D1D2E1D3F1D018B128B238B348B86E0FA
:102A0000A6CF8981E091EE02F091EF02882339F0A0
:102A1000813009F045CFE091F002F091F10230975A
:102A200009F43ECFCE80DF80E884F9844C0D5D1D33
:102A30006E1D7F1D418B528B638B748B31CF2F9218
:102A40003F924F925F926F927F928F929F92AF923E
:102A5000BF92CF92DF92EF92FF920F931F93CF938B
:102A6000DF9300D000D0CDB7DEB72A013B010DE3E4
:102A7000809F90011124912C8901C90188589C4F95
:102A80009A8389838AE0882E19019EE4290E311CDD
:102A9000E981FA818081981608F092C0A92CB12CA6
:102AA000C801899C800D911D112482519D4FFC010C
:102AB000E25BFF4F20812330B9F0805B9F4FFC0128
:102AC000C080D180E280F380C114D104E104F1041C
:102AD00069F4B301A201C101989C800D911D1124DC
:102AE00082519D4F0E9423149394D2CFC40CD51CC5
:102AF000E61CF71CE4ECF3E030E020E0808181117B
:102B000026C0FFE0F29FC001F39F900D1124DC016D
:102B1000AA54BC4F8A9CF0018B9CF00D1124E00F4D
:102B2000F11FE45CFC4F282D01900D922A95E1F7EE
:102B300082519D4FFC01EE52FF4FC082D182E28252
:102B4000F3828A529F4F21E0FC012083CDCF2F5F7B
:102B50003F4F3F962031310589F685E89AE00E9483
:102B60003E0B8A9CC0018B9C900D1124800F911FFD
:102B700082519D4F9C838B83FC01E25BFF4F608100
:102B800070E090E080E04AE00E9473128AE79AE0E9
:102B90000E943E0BEB81FC81E15BFF4F608170E0A6
:102BA00090E080E04AE00E94731289E69AE00E9479
:102BB0003E0BC701B6010E94B7120E94651394CF65
:102BC0000F900F900F900F90DF91CF911F910F9169
:102BD000FF90EF90DF90CF90BF90AF909F908F903D
:102BE0007F906F905F904F903F902F9008950F933C
:102BF0001F93CF93DF938C01D62FC42F84E597E0EA
:102C00000E943E0BC8010E943E0B89E497E00E949F
:102C10003E0B8FE297E0DD2311F085E397E00E9401
:102C20003E0B8AE397E00E943E0B84E297E0CC23C0
:102C300011F08AE297E00E943E0BDF91CF911F9145
:102C40000F910C9465130F931F93CF938C01C62F94
:102C50008AE097E00E943E0BC8010E943E0B8FEF76
:102C600096E00E943E0B84EF96E0CC2311F08AEFB1
:102C700096E00E943E0BCF911F910F910C9465132B
:102C8000CF92DF92EF92FF920F931F93CF938C011D
:102C9000C62F69017A018AED96E00E943E0BC801B9
:102CA0000E943E0B8FEC96E00E943E0B87EB96E075
:102CB000CC2311F08DEB96E00E943E0B82EC96E067
:102CC0000E943E0BC701B6010E94B712CF911F911F
:102CD0000F91FF90EF90DF90CF900C9465137F924F
:102CE0008F929F92AF92BF92CF92DF92EF92FF921C
:102CF0000F931F93CF93DF93EC01762E49015A0176
:102D0000670178018DE996E00E943E0BCE010E949A
:102D10003E0B82E996E00E943E0B8CE696E077201F
:102D200011F082E796E00E943E0B84E896E00E9454
:102D30003E0BC501B4010E94B71287E796E00E94DE
:102D40003E0BC701B6010E94B712DF91CF911F91D0
:102D50000F91FF90EF90DF90CF90BF90AF909F903A
:102D60008F907F900C946513EF92FF920F931F93B7
:102D7000CF937C018B01C42F85ED95E00E943E0B23
:102D8000C7010E943E0B89EC95E00E943E0BC801F2
:102D90000E943E0B8EEB95E00E943E0B83EB95E08C
:102DA000CC2311F089EB95E00E943E0BCF911F914F
:102DB0000F91FF90EF900C946513CF92DF92EF92FA
:102DC000FF920F931F93CF93DF938C01EB01690167
:102DD0007A0189E995E00E943E0BC8010E943E0BF2
:102DE0008DE895E00E943E0BCE010E943E0B82E8EA
:102DF00095E00E943E0BC701B6010E94B712DF9119
:102E0000CF911F910F91FF90EF90DF90CF900C9496
:102E10006513009711F00C94661290E080E008951D
:102E20000F931F93CF93DF93C091EE02D091EF02E7
:102E3000882321F0C091F002D091F102209709F48B
:102E40005FC0613009F456C008F451C0623009F423
:102E500054C08BE39AE00E943E0B6C8170E090E0DE
:102E600080E04AE00E94731280E29AE00E943E0BEA
:102E7000C8010E943E0B8BE09AE00E943E0B6A8DD7
:102E80007B8D8C8D9D8D0091A6041091A7042091BF
:102E9000A8043091A904601B710B820B930B0E9454
:102EA000B71289EF99E00E943E0B6E8D7F8D88A14D
:102EB00099A10091A6041091A7042091A804309133
:102EC000A904601B710B820B930B0E94B71288EE52
:102ED00099E00E943E0BCE010D960E94091785EEE7
:102EE00099E0DF91CF911F910F910C94EA120EEDB2
:102EF00019E0AFCF05ED19E0ACCF0DEC19E0A9CF8B
:102F0000DF91CF911F910F9108959091AE0491118F
:102F100004C09091AF04992371F09091B004911185
:102F20000AC06091B504882321F0813021F46091BA
:102F3000B6040C9410170895CF93DF93EC016E83C1
:102F400085E395E00E943E0B8F8198850E940917CA
:102F50008CE295E00E943E0B8C81082E000C990BB0
:102F60000E94BA1282E295E00E943E0B8E8181118E
:102F70000AC080E195E00E943E0B8FE195E0DF9171
:102F8000CF910C94EA1289E195E0F5CF60E0809151
:102F90000C0190910D010E949C1760E080910E0140
:102FA00090910F010E949C1760E080911001909118
:102FB00011010E949C1760E0809112019091130111
:102FC0000E949C1760E080911401909115010E946D
:102FD0009C1760E080911601909117010E949C1748
:102FE00060E080911801909119010E949C178091D6
:102FF0001A0190911B01009719F060E00E949C1744
:1030000060E080911C0190911D010C9418131F9396
:10301000CF93DF93EC01162F8E81882321F060E09F
:10302000CE010E949C178D81813021F460E08C815B
:103030000E94CF061C836D81812F0E94FD068D8129
:10304000813021F460E08C810E94CF0688E695E013
:103050000E943E0B8F8198850E9409178FE495E0AE
:103060000E943E0B8C81082E000C990B0E94BA1214
:10307000DF91CF911F910C946513CF93DF93EC01F7
:103080000E9407188C810E94A60621E0892B09F472
:1030900020E02A878C810E94A60621E0892B09F472
:1030A00020E02B878C810E94A60621E0892B09F461
:1030B00020E02C871D8A1E8A1F8A188EDF91CF91EF
:1030C00008959F92AF92BF92CF92DF92EF92FF92BC
:1030D0000F931F93CF93DF938A01452B09F468C0A8
:1030E000E9016B016596FC016081CE010E947C0DB7
:1030F000FC01BB24BA94892B09F0B5807601E894D1
:10310000F7F8AA24A3946701C00ED11E99249394C2
:10311000309709F44DC0AA2009F43FC0848184305F
:1031200069F0853049F1823079F5DF010D9000209A
:10313000E9F71197CD018E1B9F0B07C00190F0811D
:10314000E02D90E080E0309781F79F77E816F90650
:1031500021F5D801AC15BD05E1F46B2DCE01DF9151
:10316000CF911F910F91FF90EF90DF90CF90BF9084
:10317000AF909F900C947C0DA081B181FD0134969D
:1031800013968C9190E0E2CF90E080E0F0E0E0E0F8
:10319000DDCF9D9181919817E9F2A9246B2DCE0185
:1031A0000E947C0DFC01892B09F4B2CFB580B0CF11
:1031B00090E080E0DF91CF911F910F91FF90EF9011
:1031C000DF90CF90BF90AF909F900895FC01208139
:1031D0003181C9014A96428153816481758100978A
:1031E00059F0D9015E96EC91E03211F090E080E068
:1031F000009711F00C94611890E080E00895CF934F
:10320000DF93EB010E94E618009741F0FC01248156
:10321000263021F48081DF91CF9108958881FBCF02
:10322000CF92DF92EF92FF92CF93DF9300D000D046
:103230001F92CDB7DEB70E94E618DC01009709F4B3
:103240004AC01496EC911497E250ED3008F043C058
:10325000F0E0E35DF64E0C945F385B196B19591979
:103260006F193A196B196B196B194A196B194F19A8
:103270006B1973196C9170E090E080E00F900F90E3
:103280000F900F900F90DF91CF91FF90EF90DF9014
:10329000CF9008956D917D918D919C91EFCF8D91FF
:1032A0009D910D90BC91A02DB7FD15C0BC01CD0125
:1032B000E5CF8D919C910E948F0E3A834B835C8366
:1032C0006D83CA80DB80EC80FD80223041F12330A9
:1032D00041F1213061F060E070E0CB01CFCF8D9102
:1032E0009C910496E8CFCD90DD90ED90FC9020E08D
:1032F00030E0A901C701B6010E945A3887FDEBCF23
:103300002FEF3FEF4FE75FE4C701B6010E9487351B
:1033100018160CF3C701B6010E942B38AFCFF7FC8B
:10332000DACFC701B601AACF8F929F92AF92BF9218
:10333000CF92DF92EF92FF920F931F93CF93DF9381
:1033400000D000D000D0CDB7DEB749015A016701E7
:103350007801FB0101900020E9F73197E61BF70B9C
:103360009A8389837C836B83ED838F2F8F778E8302
:10337000CE0101960E94E6180097B9F0FC01248165
:103380002A3041F02C3089F480819181A281B3816F
:10339000B7FD0BC0CE0101960E9410198616970644
:1033A000A806B90610F44B015C01C501B401C616AC
:1033B000D706E806F90610F4C701B60126960FB63F
:1033C000F894DEBF0FBECDBFDF91CF911F910F915B
:1033D000FF90EF90DF90CF90BF90AF909F908F9035
:1033E0000895CF92DF92EF92FF92CF93DF9300D0B8
:1033F00000D01F92CDB7DEB70E94E618DC0100971F
:1034000009F446C01496EC911497E250ED3008F0A0
:103410003FC0F0E0E25FF54E0C945F384D1A481A59
:103420004B1A5E1A1B1A481A481A481A2A1A481ABE
:10343000371A481A621A6C9170E0CB010F900F9006
:103440000F900F900F90DF91CF91FF90EF90DF9052
:10345000CF9008958D919D910D90BC91A02D8115D7
:1034600020E89207A105B10598F4BC01E6CF8D9143
:103470009D910D90BC91A02D6C017D0120E8D20E94
:10348000E11CF11CC114D10421E0E206F10468F34F
:1034900070E060E0D2CF8D919C910E948F0E3A83B4
:1034A0004B835C836D83CA80DB80EC80FD8022309F
:1034B00031F1233081F1213059F708C08D919C9171
:1034C0000496EBCFCD90DD90ED90FC9020E030E0C5
:1034D00040E057ECC701B6010E945A3887FDD8CFAB
:1034E00020E03EEF4FEF56E4C701B6010E9487355A
:1034F000181674F2C701B6010E9424389ECFD70176
:10350000C6019058AF4FBF4F0097A140B10508F0DA
:10351000BFCFB60192CFC11480E8D806E104F10410
:10352000C0F3B6CF0F931F93CF93DF93EC018B01C2
:103530000E94E618FC01892B29F084818A3051F021
:103540008C30C1F0F80180819181DF91CF911F9182
:103550000F91089580819181A281B3818115904856
:10356000A105B10578F7CE01DF91CF911F910F91A1
:103570000C94F11980819181A281B3819058AF4F51
:10358000BF4F0097A140B105E8F6EDCF4F925F9293
:103590006F927F92AF92BF92CF92DF92EF92FF92A3
:1035A0000F931F93CF93DF939091AE04911105C0B9
:1035B0009091AF04992309F4E8C09091B00491115F
:1035C000E4C0823008F0E1C081110AC0E091EE024F
:1035D000F091EF02309759F481E08093B504D5C0A3
:1035E000E091F002F091F102309709F487C09089E0
:1035F000992309F480C00189128923893489041729
:1036000015072607370708F482C0882309F4CCC0C1
:1036100082E08093B604B9C08F898F5F8F8B9D89BC
:10362000891708F4ADC08FA5843658F40E942F3551
:10363000A30192010E94AB368FA5681710F01F8A74
:103640009FC01F8A888D882351F09D899501281B72
:1036500031099217130609F05CF4890F8D8B8B8961
:10366000823008F08DC0B701A6010E941F1588C0E6
:1036700087ED90E00E943E0B6D8970E090E080E065
:103680004AE00E94731284ED90E00E94EA12E7CFB4
:10369000CD8EDE8EEF8EF8A273C08DA5811170C025
:1036A00089A19AA1ABA1BCA1A7019601281B390B46
:1036B0004A0B5B0BDA01C901B7FD62C08DA19EA167
:1036C000AFA1B8A58C199D09AE09BF091816190636
:1036D0001A061B060CF054C08FA5843610F00DA7F7
:1036E000BECF0E942F35A30192010E94AB368FA559
:1036F0006817A8F345C0882309F46ECF81E089CF0D
:103700001092B504E091EE02F091EF0208C0882318
:10371000B9F31092B604E091F002F091F102309703
:1037200081F00091AA041091AB042091AC04309177
:10373000AD04040F151F261F371F018B128B238B1F
:10374000348B6A017B01182FCEEED2E0AA24AA9412
:10375000B12C94E6492E512C612C712C01E08C89FE
:10376000882371F08EA5893011F0181309C08A8959
:10377000813009F48DCF08F44FCF823009F48DCF1A
:103780006E9633E0CA32D30751F7DF91CF911F9184
:103790000F91FF90EF90DF90CF90BF90AF907F9010
:1037A0006F905F904F90089582E017CFBF92CF92B5
:1037B000DF92EF92FF920F931F93CF93DF93EC0171
:1037C000198D1F3F81F0612F45960E947C0DFC01F1
:1037D0008081898F309709F477C014828FEF8583B9
:1037E000BF01812F76C06C0135E0C30ED11CE8808B
:1037F000F9808F89882341F0C6010E940E0EE62FC2
:10380000F72F182F309749F71F89988D191324C067
:10381000103109F459C0110F6D897E89D701ED91DE
:10382000FC91B4E01B9FA0011124C616D70609F035
:1038300044C00190F081E02DBA01C70109950097BD
:1038400009F442C020E1F601DC0101900D922A95B5
:10385000E1F79E8B8D8B188F0D891E898F8921E052
:10386000280F2F8BE4E08E9FC0011124080F191F31
:1038700090E1B92E203111F48FE0B82EF6E0BF9E12
:10388000B0011124D701ED91FC910190F081E02D60
:10389000C7010995F80193838283892B09F4B12C20
:1038A000D801BC9211961C92012B71F0C6010E94A6
:1038B0000E0EE62FF72F182F8DCF0480F581E02D07
:1038C000C7010995009729F681E08A8360E070E0DE
:1038D0008FEFDF91CF911F910F91FF90EF90DF90CD
:1038E000CF90BF9008954F925F926F927F928F9288
:1038F0009F92AF92BF92CF92DF92EF92FF920F937F
:103900001F93CF93DF9300D000D01F92CDB7DEB7C7
:103910008C017B01B42E0E94EC0D6C01892B09F007
:1039200048C0C8010E94A80D863609F4A9C124F533
:10393000873229F08B3561F1823209F0A8C1D801B4
:1039400015961C921E92149712968D919C91139726
:10395000892B39F48D919C910E94F005F801938395
:103960008283C8010E9464106C01892B11F5B70194
:10397000C8010E9443111DC0843709F460C18B3710
:1039800009F47BC08E3609F082C165EC71E060C13C
:1039900080E4D70114968C931497E114F10421F07C
:1039A0008FEF8C9311968C93B1101AC025E0C22E24
:1039B000D12CC6010F900F900F900F900F90DF91B8
:1039C000CF911F910F91FF90EF90DF90CF90BF901C
:1039D000AF909F908F907F906F905F904F900895E1
:1039E000F8011286C8010E94EC0D009751F56DE5B3
:1039F000C8010E94B80D8111DCCFBA94D8011B9682
:103A00006D907C90C3010E94D61BA82E4B01672BA2
:103A100021F494E0C92ED12CCCCFF70161816F3F06
:103A200091F0C30145960E947C0DDC011596AC9285
:103A3000F701A1824B2DB401C8010E94731C0097AD
:103A400039F06C01B6CFD7018C9311968C93F2CFDD
:103A5000C8010E94EC0D0097A1F76DE5C8010E9416
:103A6000B80D8111A6CF6CE2C8010E94B80D81117A
:103A7000C5CF83E0C82ED12C9CCF80E2F701848390
:103A8000E114F10419F08FEF80838183BB2009F4E6
:103A90008DCFD8011A961C92C8010E94EC0D009798
:103AA00081F66DE7C8010E94B80D811182CFBA94EA
:103AB000F8011582148282819381892B49F48081D7
:103AC00091810E94F005D80113969C938E931297D2
:103AD000C8010E94A80D8732F9F08232E9F0C801CE
:103AE0000E94A80DD82E0E94960D882311F2F8018D
:103AF00012866D2DC8010E943610C8010E94A80DC3
:103B0000D82E0E94960D8111F2CFD80112968D9178
:103B10009C91892B41F47DCFC8010E9464106C01F7
:103B2000892B09F046CFC8010E94EC0D6C01892B4E
:103B300009F03FCF6AE3C8010E94B80D882309F459
:103B400098CFD8011296ED91FC91139714968D9110
:103B50009C911597E80FF91F148214966D917C9132
:103B600015977F771B966D907C901C9712968D9180
:103B70009C910496272F2F77BA2DB078AB2EA22ACE
:103B8000E894A7F89301AC017A2DC7010E9461184F
:103B90006C01009761F5C3010E94D61B482E4B01B2
:103BA000672B09F436CFC3010E94D61B582E962FDF
:103BB000C92ED72EC114D10409F42BCFF40155829C
:103BC000D70111966C916F3F71F0C30145960E9429
:103BD0007C0DFC014582D70111965C92B401C801AD
:103BE0000E94431107C0F70140825182F7CFB30111
:103BF0000E94E0114B2DB601C8010E94731C6C019C
:103C0000892B09F0D6CEC8010E94EC0D6C01892BDE
:103C100009F0CFCE6DE7C8010E94B80D8111C9CE61
:103C20006CE2C8010E94B80D882309F422CFC801B4
:103C30000E94EC0D6C01892B09F43ACFBACE86E0D4
:103C4000D70114968C93149781E08C936AEB71E002
:103C5000C8010F900F900F900F900F90DF91CF91B0
:103C60001F910F91FF90EF90DF90CF90BF90AF909A
:103C70009F908F907F906F905F904F900C94C90DA4
:103C800086E0F701848310826FEB71E0E1CFC80119
:103C90000E94A80D4801FDE08F0E911CB12C782CDC
:103CA000A92C803384F08A3384F43FE3B316A9F05F
:103CB000D8011A961C92B394F40181934F01C80164
:103CC0000E94A80DEECF8B3281F393ED980F9230C6
:103CD00060F3982F9F7D953441F30B0D111DD80192
:103CE0001D961C92872D9A2D0E948F0E3A834B832E
:103CF0005C836D838A819B81AC81BD812230A9F078
:103D0000233059F0213009F0B4CE2EE0F70124839E
:103D100080839183A283B3834CCE2AE0F70124836E
:103D200080839183A283B38344CE2CE0F7CF4F925C
:103D30005F926F927F928F929F92AF92BF92CF923B
:103D4000DF92EF92FF920F931F93CF93DF93CDB744
:103D5000DEB7CF5FD1090FB6F894DEBF0FBECDBF7F
:103D60006E012EECC20ED11C82E091E0F60191832F
:103D70008083128214821382C6010596968B858BEE
:103D8000178A84E0808F8FEF818F168E878F9E0138
:103D90002F5F3F4F790110E000E00E94930760938E
:103DA00055027093560280935702909358028DE407
:103DB00092E00E948D0A97FD02C00C945C2B0E9439
:103DC00093078090550290905602A0905702B090B1
:103DD0005802681979098A099B09809051029090CC
:103DE0005202A0905302B0905402681579058A05DA
:103DF0009B05E8F20F37110561F48DE492E00E9413
:103E0000AF0A892B31F08DE492E00E948D0A0A9767
:103E1000A1F7E1E0F0E0EC0FFD1FE00FF11F1082D1
:103E20000530110578F045E050E06AEC71E0CE0114
:103E300001960E94473A892B29F48FE697E00E9469
:103E4000EA129DC4F60160817181C60105960E9447
:103E50003A0EF601128200811181F601838194816C
:103E6000009751F0FC0120813181F60134832383D6
:103E7000B8010E94D611F1CF168ECF57DF4FD982ED
:103E8000C882C158D040CD57DF4F19821882C3581D
:103E9000D040CB57DF4F19821882C558D040C95740
:103EA000DF4F1882C758D04021E030E02C0F3D1F73
:103EB000C857DF4F39832883C858D040C557DF4FD4
:103EC0001882CB58D040C457DF4FD982C882CC5813
:103ED000D0404AE0B601665E7F4FCE018F579F4FBC
:103EE0000E94731C8C01892B69F4C657DF4F8881AF
:103EF000CA58D040882331F0F601868D83FF02C076
:103F000003E010E0CD57DF4F88819981C358D0403E
:103F1000009751F0CF57DF4FE881F981C158D04069
:103F2000608171810E94D61101151105F1F088EFB1
:103F300094E00E943E0BF801EE0FFF1FEC51FC4F86
:103F4000859194910E943E0B85EF94E00E94EA12C5
:103F50008DE492E00E94AF0A181619060CF00FC407
:103F60008DE492E00E948D0AF3CFCF57DF4FD982C4
:103F7000C882C158D04080ED91E0CD57DF4F998382
:103F80008883C358D04083E0CB57DF4F8883C55820
:103F9000D040CA57DF4F1881C658D04010781068FB
:103FA000CA57DF4F1883C658D040CE018F579F4F56
:103FB0000E94E618009709F4E2C3FC01848188237B
:103FC00009F4DDC31068CA57DF4F1883C658D040C4
:103FD000CE018F579F4F0E94F119893DF1E09F0755
:103FE00009F47CC00CF02CC1883731E0930709F448
:103FF00070C50CF078C0873351E0950709F44DC4C3
:10400000BCF58D32F1E09F0709F466C314F560E05A
:104010008C3231E0930709F460C3893E33E09307A3
:1040200009F47BC60CF00DC38836910511F40C948D
:1040300069290CF077C28536910509F40DC70CF09B
:104040004BC28436910511F40C94D02880EF93E094
:10405000F6CE8F3241E0940709F4FBC360E086336B
:1040600051E09507D1F6809112019091130139C367
:104070008337E1E09E0709F437C334F5893321E043
:10408000920759F600911201109113010E949307B3
:10409000F801618B728B838B948B85849684A784C3
:1040A000B088DC01CB01880D991DAA1DBB1D858B35
:1040B000968BA78BB08F81E080A34DE853E063E936
:1040C00073E088E993E0E6C3843731E0930709F4AD
:1040D00071C3853741E0940709F09FCF883D914037
:1040E00009F480C04CC3813951E0950709F4F5C348
:1040F000D4F58E37F1E09F0709F4D1C324F58D374D
:1041000031E0930709F089CFEE24EA94FE2C00E019
:1041100010E021E030E040E050E064ED71E0C601E5
:104120000E9494199B01AC01E0911201F0911301DE
:1041300021873287438754876BEA73E085EB93E0EE
:104140000E94DD161CC3823841E0940709F4D6C4EE
:1041500060E0803951E0950709F05FCF809114014C
:1041600090911501BEC28B39E1E09E0709F4D9C3D5
:1041700084F4833921E0920709F4B1C360E08A39FD
:1041800031E0930709F049CF809116019091170112
:10419000A8C28D3941E0940709F4E5C3883D51E098
:1041A000950709F03ACF10ECE12E17E2F12E09E065
:1041B00010E021E030E040E050E06EED71E0C6013B
:1041C0000E9494199B01AC01E0911401F09115013A
:1041D00021873287438754876FE773E088E893E04D
:1041E0000E94DD16CF57DF4FD982C882C158D04018
:1041F0008EED91E0CD57DF4F99838883C358D0402F
:1042000088E0CB57DF4F8883C558D040CA57DF4F6F
:104210008881C658D04080788068CA57DF4F88832D
:10422000C658D040CE018F579F4F0E9410196093FF
:10423000290170932A0180932B0190932C0106C3CE
:104240008F39E2E09E0709F4C4C30CF088C0853FB3
:1042500021E0920709F4A9C374F5823E41E0940776
:1042600009F461C3C4F48C3DE1E09E0709F0D5CEAA
:1042700015E3E12EF12C00E010E022E030E040E018
:1042800050E067EE71E0C6010E949419809114011C
:104290009091150130C4863EF1E09F0709F441C4B6
:1042A00060E0843F21E0920709F0B7CE80911801C9
:1042B0009091190116C2883532E0930709F480C342
:1042C000C4F4803452E0950709F0A7CE15E3E12E3F
:1042D000F12C00E010E022E030E040E050E067EE3A
:1042E00071E0C6010E949419809118019091190102
:1042F00002C48935E2E09E0709F459C38B35F2E028
:104300009F0709F08ACE00911A0110911B01011537
:10431000110509F434C20E949307AB01BC01F801F6
:10432000418B528B638B748B85859685A785B0896D
:10433000840F951FA61FB71F858B968BA78BB08FF9
:10434000FF24F394F2A2C8010E94370CF801F4A2F2
:104350004EE353E064E473E089E493E09BC2843865
:1043600023E0920709F4B3C30CF075C0843A42E02D
:10437000940709F4E9C30CF054C0803AE2E09E07C8
:1043800009F04BCE10ECE12E17E2F12E09E010E01F
:1043900021E030E040E050E06EED71E0C6010E94A7
:1043A00094199B01AC01E0911A01F0911B01309727
:1043B00051F0258736874787508B6FE173E088E29D
:1043C00093E00E94DD16CF57DF4FD982C882C158D3
:1043D000D0408EED91E0CD57DF4F99838883C3584D
:1043E000D04088E0CB57DF4F8883C558D040CA57AC
:1043F000DF4F8881C658D04080788068CA57DF4F29
:104400008883C658D040CE018F579F4F0E94101905
:1044100060932501709326018093270190932801D2
:1044200015C2893AF2E09F0709F43AC38A3A22E0BA
:10443000920709F0F2CDE0911A01F0911B0130973B
:1044400009F49DC181E081A342EF52E06EEF72E07A
:1044500083E093E01FC2803D33E0930709F48EC3ED
:10446000BCF4853853E0950709F429C38738E3E0A5
:104470009E0709F0D2CD80911C0190911D010E94F0
:10448000250C4CED52E062EE72E087EE92E002C243
:104490008433F4E09F0709F4A7C3803625E0920730
:1044A00009F0BBCD80910E0190910F01892B09F489
:1044B00066C115E3E12EF12C00E010E022E030E0CF
:1044C00040E050E067EE71E0C6010E9494198091CF
:1044D0000E0190910F01A1C38636910509F4EDC636
:1044E0008736910509F0B2CD0E9493074B015C011C
:1044F0008091AE0481110FC00E9474068092A604C0
:104500009092A704A092A804B092A904B501A401B6
:1045100080E00E941F154AE454E060E574E08BE5FA
:1045200094E0B8C18B3C910509F45EC40CF07DC0E9
:104530008936910509F08ACDC251DF4F1882CE5ECF
:10454000D040CF57DF4FD982C882C158D04081E0D8
:1045500092E0CD57DF4F99838883C358D04086E0DF
:10456000CB57DF4F8883C558D040CA57DF4F88816B
:10457000C658D04080788068CA57DF4F8883C658B5
:10458000D040BE0162517F4FCE018F579F4F0E9496
:10459000FF18182F0E9493074B015C018091AE0415
:1045A000882309F4B0C71093B004112309F42EC76F
:1045B0008092B1049092B204A092B304B092B40479
:1045C0000E947406E091F402F091F502309719F020
:1045D00084810E94BF07E091F602F091F7023097C4
:1045E00019F084810E94BF078091C6048823B9F026
:1045F0008091D404811113C083EC94E00E94250CB7
:104600008092D5049092D604A092D704B092D80498
:1046100081E08093D404F8941092C5047894412FDB
:104620006BE174E08AE294E088C38D3D910509F462
:1046300091C360E0883E934009F008CD8EEA95E092
:1046400050C08839E4E09E0709F463C7FCF489335D
:1046500024E0920709F463C364F48833944009F0BA
:10466000F5CC1092BE0540E06DEC74E088ED94E06E
:1046700064C38C3454E0950709F449C78D349440E1
:1046800009F0E4CC81E00E94F81279C08531F5E0B0
:104690009F0709F455C344F460E08431954009F064
:1046A000D5CC88E895E01DC0843645E0940709F430
:1046B00049C38536954009F0C9CC81E080939805BF
:1046C00088E895E0909301018093000141E069EB57
:1046D00074E084EC94E031C361E08091100190912A
:1046E00011010E949C174BC0EE24EA94FE2C00E0BE
:1046F00010E021E030E040E050E064ED71E0C60100
:104700000E9494199B01AC01E0911001F0911101FC
:10471000218732874387548766ED73E080EE93E00C
:104720000E94DD16CF57DF4FD982C882C158D040D2
:1047300084ED91E0CD57DF4F99838883C358D040F3
:1047400089E0CB57DF4F8883C558D040CA57DF4F29
:104750008881C658D04080788068CA57DF4F8883E8
:10476000C658D040CE018F579F4F0E9410196093BA
:104770002D0170932E0180932F0190933001C6017B
:104780000E944812C150DF4F0FB6F894DEBF0FBE33
:10479000CDBFDF91CF911F910F91FF90EF90DF90F0
:1047A000CF90BF90AF909F908F907F906F905F90D1
:1047B0004F90089510ECE12E17E2F12E09E010E081
:1047C00021E030E040E050E06EED71E0C6010E9473
:1047D00094199B01AC01E0911001F0911101258722
:1047E00036874787508B69EC73E082ED93E00E9437
:1047F000DD16CF57DF4FD982C882C158D0408EED29
:1048000091E0CD57DF4F99838883C358D04088E02B
:10481000CB57DF4F8883C558D040CA57DF4F8881B8
:10482000C658D04080788068CA57DF4F8883C65802
:10483000D040CE018F579F4F0E94101960933101D5
:104840007093320180933301909334010E947F0E64
:1048500096CF00911001109111010E949307F80169
:10486000618B728B838B948B85849684A784B088AC
:10487000DC01CB01880D991DAA1DBB1D858B968B74
:10488000A78BB08F81E080A34AEB53E060EC73E02C
:1048900085EC93E00E943D1372CF61E0E4CB10EC15
:1048A000E12E17E2F12E09E010E021E030E040E0D7
:1048B00050E06EED71E0C6010E9494199B01AC01BD
:1048C000E0911201F0911301258736874787508BBD
:1048D0006DE973E086EA93E033CC61E03FCC009170
:1048E0001401109115010E949307F80165877687DE
:1048F0008787908B81849284A384B484DC01CB016C
:10490000880D991DAA1DBB1D818B928BA38BB48B27
:1049100081E0858B4FE653E065E773E08AE793E03B
:10492000B9CF61E031CC10ECE12E17E2F12E09E0B5
:1049300010E021E030E040E050E06EED71E0C601B3
:104940000E9494199B01AC01E0911601F0911701AE
:10495000218732874387548760E673E089E693E0D6
:104960000E94DD1673CF00911601109117010E946D
:104970009307F801658776878787908B8184928477
:10498000A384B484DC01CB01880D991DAA1DBB1D35
:10499000818B928BA38BB48B81E0858B4FE453E0AA
:1049A00065E573E08AE593E075CF61E07FCC8091A7
:1049B0001A0190911B0161E0009709F092CEDFCEC1
:1049C00080911A0190911B0160E0009709F089CE57
:1049D000D6CEEE24EA94FE2C00E010E021E030E098
:1049E00040E050E064ED71E0C6010E9494199B0123
:1049F000AC01E0911A01F0911B01309779F021157B
:104A000031054105510521F02187328743875487BD
:104A10006EE273E088E393E00E94DD16CF57DF4F2C
:104A2000D982C882C158D04084ED91E0CD57DF4F84
:104A300099838883C358D04089E0CB57DF4F888360
:104A4000C558D040CA57DF4F8881C658D0408078BB
:104A50008068CA57DF4F8883C658D040CE018F5731
:104A60009F4F0E94E618DC01009709F4E8C01496F5
:104A7000EC911497E250ED3008F0E1C0F0E0ED5B0E
:104A8000FA4D0C945F382F261F262D265926102606
:104A90001F261F261F2614261F2621261F265D26B9
:104AA000E0911A01F0911B01309709F468CE11A230
:104AB00049E053E064E173E089E193E0EBCE61E02B
:104AC00080911C0190911D010E94181358CE60E046
:104AD000F7CF15E3E12EF12C00E010E022E030E00A
:104AE00040E050E067EE71E0C6010E9494198091A9
:104AF0001001909111010E94071841CE15E3E12E9B
:104B0000F12C00E010E022E030E040E050E067EE01
:104B100071E0C6010E9494198091120190911301D5
:104B2000EACF15E3E12EF12C00E010E022E030E0C6
:104B300040E050E067EE71E0C6010E949419809158
:104B4000160190911701D7CF80911A0190911B0106
:104B5000892B09F414CE15E3E12EF12C00E010E0CE
:104B600022E030E040E050E067EE71E0C6010E94D4
:104B7000941980911A0190911B01BDCF15E3E12E8C
:104B8000F12C00E010E022E030E040E050E067EE81
:104B900071E0C6010E949419F62E00911C0110913B
:104BA0001D01F8018485882331F060E080810E9436
:104BB000CF06F8011486F801F08261E08F2D0E9483
:104BC000FD0660E0F80180810E94CF0688E992E04E
:104BD0000E943E0BF8018081082E000C990B0E9468
:104BE000BA120E946513CBCD80910C0190910D01FA
:104BF000892B09F4C4CD15E3E12EF12C00E010E07F
:104C000022E030E040E050E067EE71E0C6010E9433
:104C1000941980910C0190910D010E943D18AFCD27
:104C20008C9080922401ABCD8D909D90AD90BC90E6
:104C30002FEF82169104A104B10499F390F3812C13
:104C4000F0CF8D909D90AD90BC903FEF8316910476
:104C5000A104B10431F328F3F2CF8D919C910E940D
:104C60008F0EC251DF4F2883CE5ED040C151DF4F3F
:104C70003883CF5ED040C051DF4F4883C05FD04003
:104C8000CF50DF4F5883C15FD040CE50DF4F688395
:104C9000C25FD040C151DF4F88809980AA80BB801D
:104CA000CF5ED040223039F1233071F1213039F616
:104CB00008C08D919C910496D2CF8D909D90AD901F
:104CC000BC9020E030E0A901C501B4010E945A382F
:104CD00087FDB5CF20E030E04FE753E4C501B401D4
:104CE0000E94873518160CF4AACFC501B4010E94A2
:104CF0002B38862E96CF4FEF84169104A104B10471
:104D000009F008F48ECF9BCF5FEF85169104A104C4
:104D1000B10409F008F485CF92CF61E08FCC81E037
:104D20008093BE058EEA95E0909301018093000187
:104D300041E061EE74E08CEE94E00E94B4161FCD69
:104D400061E0AFCC1092980540E065EA74E080EB3A
:104D500094E0F3CFC251DF4F1882CE5ED040CF57E0
:104D6000DF4FD982C882C158D0408BEE91E0CD5739
:104D7000DF4F99838883C358D04085E0CB57DF4FFE
:104D80008883C558D040CA57DF4F8881C658D04065
:104D900080788068CA57DF4F8883C658D040BE01EC
:104DA00062517F4FCE018F579F4F0E94FF18182FDF
:104DB00080E395E0112311F08AE195E090930601DC
:104DC0008093050185E0111186E080930B010E941C
:104DD0007F0E43E854E0112311F048E854E06EE8F8
:104DE00074E08AE994E056CDCF57DF4FD982C8826C
:104DF000C158D04081EF91E0CD57DF4F9983888330
:104E0000C358D04088E0CB57DF4F8883C558D04087
:104E1000CA57DF4F8881C658D04080788068CA570B
:104E2000DF4F8883C658D040CE018F579F4F0E94D6
:104E300010194B015C018092070190920801A09229
:104E40000901B0920A010E947F0EA501940166E655
:104E500074E088E794E074C90E9493074B015C01F9
:104E600080922A0290922B02A0922C02B0922D02E4
:104E700083EC94E00E94250C1092AF041092B004D1
:104E80008092A6049092A704A092A804B092A904CC
:104E900081E08093AE0480E093E00E94CB0B8EE132
:104EA00093E00E94CB0B2AE2E22E23E0F22E0EEEDC
:104EB00012E0F8018489882341F08289813009F069
:104EC00040C1858E968EA78EB0A2025E1F4FE0165F
:104ED000F10679F7E4ECF3E010823F9624E0E43B3E
:104EE000F207D1F7E091EE02F091EF02309721F056
:104EF000118A128A138A148AE091F002F091F10269
:104F0000309721F0118A128A138A148AE091FC02E8
:104F1000F091FD023097A9F0118A128A138A148A3F
:104F2000158A168A178A108E118E128E138E148E81
:104F3000158E168E178E10A212A213A214A281E053
:104F400085A384E592E00E94EA1288E092E00E9444
:104F50003E0B80910001909101018E5A954009F419
:104F60001CC18BE991E00E943E0B85E092E00E941B
:104F7000EA12E0903101F09032010091330110917A
:104F8000340120912D0130912E0140912F0150913B
:104F9000300160916D0581E092E00E946F16E09013
:104FA0005305F09054050091550510915605209138
:104FB0004F05309150054091510550915205609137
:104FC0004C058CEF91E00E946F16209129013091E1
:104FD0002A0140912B0150912C016091360587EFF9
:104FE00091E00E94401620912305309124054091C4
:104FF0002505509126056091200581EF91E00E94E2
:105000004016E0902501F0902601009127011091B3
:1050100028012091240130E050E040E06091DF045D
:105020008BEE91E00E946F166091050586EE91E08F
:105030000E9423166091C6048BED91E00E94231616
:105040006091B90487ED91E00E9423164091BE055E
:105050006091B4058EEC91E00E94F715409198059F
:1050600060918E0585EC91E00E94F71581EA91E050
:105070000E943E0B60910701709108018091090127
:1050800090910A010E94B7120E94651380912A0232
:1050900090912B02A0912C02B0912D02E0910C0175
:1050A000F0910D0180839183A283B383E0910E017F
:1050B000F0910F0180839183A283B383E09110016B
:1050C000F091110180839183A283B383E091120157
:1050D000F091130180839183A283B383E091140143
:1050E000F091150180839183A283B383E09116012F
:1050F000F091170180839183A283B383E09118011B
:10510000F091190180839183A283B383E0911A0106
:10511000F0911B01309721F080839183A283B383A8
:10512000E0911C01F0911D0180879187A287B387D0
:105130008093BE049093BF04A093C004B093C104B5
:105140001ECB823009F0C1CE41A452A463A474A442
:1051500060E070E0CB01141415041604170434F455
:105160000E942F35A30192010E94AB36680D791D74
:105170008A1D9B1DF80161A372A383A394A381A53B
:1051800092A5A3A5B4A5880D991DAA1DBB1D85A335
:1051900096A3A7A3B0A715A698CE8EE991E0E3CE7B
:1051A000809143028111EBCA0E9493074B015C017D
:1051B00080923F0290924002A0924102B09242023D
:1051C0008091C6048823B9F08091D404811113C062
:1051D00083EC94E00E94250C8092D5049092D60432
:1051E000A092D704B092D80481E08093D404F894BC
:1051F0001092C504789480903F0290904002A09055
:105200004102B09042021092AE041092B004E4EC5D
:10521000F3E084EB94E010823F968E179F07D9F756
:10522000E091F402F091F502309719F084810E9428
:10523000BF07E091F602F091F702309719F08481F0
:105240000E94BF07E091F802F091F902309721F037
:1052500060E084810E94CF06E091FA02F091FB02A7
:10526000309721F060E084810E94CF06E091FC023B
:10527000F091FD02309729F015A260E084810E9430
:10528000CF068BE591E00E943E0B80912A0290911F
:105290002B02A0912C02B0912D02A5019401281B94
:1052A000390B4A0B5B0BCA01B9010E94B7120E946D
:1052B000651381E08093430262CA8091AE0481113C
:1052C0000C941D1F0E94C61780E00E94F8120C94D7
:1052D0001D1FC251DF4F1882CE5ED040CF57DF4F27
:1052E000D982C882C158D0408AEF91E0CD57DF4FB4
:1052F00099838883C358D04086E0CB57DF4F88839B
:10530000C558D040CA57DF4F8881C658D0408078F2
:105310008068CA57DF4F8883C658D040BE016251AB
:105320007F4FCE018F579F4F0E94FF18182F0E946A
:1053300093072091AE04211166C01093AF0411238E
:1053400069F16093A6047093A7048093A8049093D6
:10535000A9040E94740680E093E00E94CB0B8EE1CA
:1053600093E00E94CB0BE091EE02F091EF023097B8
:1053700021F0118A128A138A148AE091F002F091C6
:10538000F102309721F0118A128A138A148A40910F
:10539000AF0465E374E08FE394E0CFCC0E94740621
:1053A000E091F402F091F502309719F084810E94A7
:1053B000BF07E091F602F091F702309719F084816F
:1053C0000E94BF07E091F802F091F902309721F0B6
:1053D00060E084810E94CF06E091FA02F091FB0226
:1053E000309721F060E084810E94CF06E091FC02BA
:1053F000F091FD02309721F060E084810E94CF0699
:105400000E947F0EC4CF1111C2CFFACF8091B10498
:105410009091B204A091B304B091B404B501A40179
:10542000481B590B6A0B7B0BEEEEF2E02AE233E0ED
:1054300084898823A1F08289813009F049C0858D53
:10544000968DA78DB0A10097A105B10541F0840FFD
:10545000951FA61FB71F858F968FA78FB0A37E9627
:105460002E173F0729F78091C604882309F4D7C86F
:105470008091D404882309F4D2C8F8946091CB04B5
:105480007091CC048091CD049091CE044090D504CD
:105490005090D6046090D7047090D80464197509B0
:1054A00086099709860E971EA81EB91E8092CB0406
:1054B0009092CC04A092CD04B092CE041092C50478
:1054C00078941092D40483EC94E00E94250CA7C831
:1054D000823029F681A192A1A3A1B4A1840F951FC6
:1054E000A61FB71F81A392A3A3A3B4A385A196A1CE
:1054F000A7A1B0A5840F951FA61FB71F85A396A3CC
:10550000A7A3B0A7ACCF112309F4ADCF6DC880E03D
:10551000BAC88BE0A82EB12CC650DF4FB982A88242
:10552000CA5FD040CF57DF4FD982C882C158D04020
:1055300007EE11E0CD57DF4F19830883C358D040E1
:1055400093E0F92ECB57DF4FF882C558D040CA57A9
:10555000DF4F8881C658D04080788068CA57DF4FB7
:105560008883C658D040BE0166507F4FCE018F570A
:105570009F4F0E94921A08970CF49AC0C450DF4FB4
:10558000B982A882CC5FD040C251DF4FD982C88295
:10559000CE5ED040C051DF4F19830883C05FD0403A
:1055A000CE50DF4FF882C25FD040CD50DF4F8881B0
:1055B000C35FD04080788068CD50DF4F8883C35F61
:1055C000D040BE0164507F4FCE0182519F4F0E9458
:1055D000921A0E970CF06EC0C250DF4FB982A882AB
:1055E000CE5FD040CC50DF4FD982C882C45FD0405C
:1055F000CA50DF4F19830883C65FD040C850DF4FC1
:10560000F882C85FD040C750DF4F8881C95FD04063
:1056100080788068C750DF4F8883C95FD040BE0163
:1056200062507F4FCE018C509F4F0E94921A409142
:105630006B009091B704985021E030E001C0220F38
:105640009A95EAF72095242320936B0090916B00A4
:10565000911105C0909168009E7F9093680080939F
:10566000B70462E00E94FD068091B7040E94A6067E
:1056700021E0019709F020E02093C20480916800A6
:1056800081608093680080916B009091B70498507E
:1056900021E030E001C0220F9A95EAF7822B809337
:1056A0006B008CE191E00E943E0B8091B70494CA9C
:1056B00088E0BDCF8DE0BBCF8A30910511F40C940A
:1056C000FA1EF70181937F010F5F1F4F0F371105FE
:1056D00011F00C94CD1E0C94FA1ECB01BA010C945F
:1056E0008A39CB010C940139CB010C9465381F9297
:1056F0000F920FB60F9211242F933F938F939F9386
:10570000AF93BF938091450290914602A0914702CA
:10571000B09148023091440223E0230F2D3758F511
:105720000196A11DB11D20934402809345029093E0
:105730004602A0934702B09348028091490290919B
:105740004A02A0914B02B0914C020196A11DB11DDD
:105750008093490290934A02A0934B02B0934C026B
:10576000BF91AF919F918F913F912F910F900FBE5D
:105770000F901F90189526E8230F0296A11DB11DCA
:10578000D2CF1F920F920FB60F9211242F933F93F7
:105790004F935F936F937F938F939F93AF93BF9339
:1057A000EF93FF93E0912201F09123010995FF917E
:1057B000EF91BF91AF919F918F917F916F915F9189
:1057C0004F913F912F910F900FBE0F901F90189502
:1057D0001F920F920FB60F9211242F933F934F9366
:1057E0005F936F937F938F939F93AF93BF93EF9349
:1057F000FF93E0912001F09121010995FF91EF9134
:10580000BF91AF919F918F917F916F915F914F91D8
:105810003F912F910F900FBE0F901F9018951F92E0
:105820000F920FB60F9211242F933F934F935F93D4
:105830006F937F938F939F93AF93BF93EF93FF9358
:1058400080913B0290913C02A0913D02B0913E02BA
:10585000892B8A2B8B2BD1F190913A02E09138025F
:10586000F091390280818927808380913B02909159
:105870003C02A0913D02B0913E02181619061A068C
:105880001B069CF480913B0290913C02A0913D024A
:10589000B0913E020197A109B10980933B02909318
:1058A0003C02A0933D02B0933E02FF91EF91BF9165
:1058B000AF919F918F917F916F915F914F913F91A8
:1058C0002F910F900FBE0F901F901895809104019B
:1058D0000E94BF07EACF1F920F920FB60F921124BA
:1058E0002F933F934F935F936F937F938F939F93E8
:1058F000AF93BF93EF93FF938DE492E00E94CF0AA2
:10590000FF91EF91BF91AF919F918F917F916F9197
:105910005F914F913F912F910F900FBE0F901F906D
:1059200018951F920F920FB60F9211242F938F93F9
:105930009F93EF93FF93E0915D02F0915E0280816F
:10594000E0916302F091640282FD1BC0908180911E
:1059500066028F5F8F7320916702821741F0E0919A
:105960006602F0E0E35BFD4F958F80936602FF9146
:10597000EF919F918F912F910F900FBE0F901F90DD
:1059800018958081F4CF1F920F920FB60F921124B9
:10599000CF92DF92EF92FF921F932F933F934F93FB
:1059A0005F936F937F938F939F93AF93BF93CF93A7
:1059B000DF93EF93FF93C091EA02D091EB0283B1A2
:1059C00090E02881285002C0959587952A95E2F7A6
:1059D000182F117080FF13C08B85811110C081E0DA
:1059E00089830E949307CF80D884E984FA846C1954
:1059F0007D098E099F096B837C838D839E831B8722
:105A0000FF91EF91DF91CF91BF91AF919F918F91D6
:105A10007F916F915F914F913F912F911F91FF90D7
:105A2000EF90DF90CF900F900FBE0F901F901895C2
:105A3000EF92FF920F931F93CF93DF93EC01162FFA
:105A40007A01022F6C8382E08D838DEA91E0988742
:105A50008F831E82188219821A821B8262E0812F34
:105A60000E94FD06098742E050E0B701CE010D9685
:105A70000E945D3A1F86812F0E94A60621E0892B95
:105A800009F420E02A87812F0E94A60621E0892BB5
:105A900009F420E02B87812F0E94A60621E0892BA4
:105AA00009F420E02C87188A198A1A8A1B8A1C8A12
:105AB0001D8A1E8A1F8A188E84E1898F1A8E1B8E7A
:105AC0001C8E1D8E1E8E1F8E18A219A21BA21AA23A
:105AD0001DA21CA2DF91CF911F910F91FF90EF901B
