:100000000C94D7050C94712D0C944A2D0C944C2E05
:100010000C94FF050C94FF050C94FF050C94982D8F
:100020000C94FF050C94FF050C94FF050C94FF0540
:100030000C94FF050C94FF050C94FF050C94FF0530
:100040000C94002D0C94FF050C941A2E0C94F42D96
:100050000C94FF050C94FF050C94FF050C94FF0510
:100060000C94FF050C94FF05546F6F446565700098
:100070004E6F4D656D6F727900496E76616C696483
:10008000496E70757400496E636F6D706C65746550
:10009000496E70757400456D707479496E70757431
:1000A000004F6B00CDCCCC3D0AD7233C17B7D138DD
:1000B00077CC2B329595E6241FB14F0A00002041E2
:1000C0000000C84200401C4620BCBE4CCA1B0E5A51
:1000D000AEC59D74227D007B226C6576656C223AEC
:1000E00022303031222C22646576696365223A22FF
:1000F000434F4E54524F4C4C4552222C2264657350
:1001000063223A225052207468726573686F6C647F
:100110002063617070656420617420007B226C65CF
:1001200076656C223A22303030222C226465766962
:100130006365223A22534C4D222C22706172616D0C
:10014000223A2274696D657374616D705F70696EB7
:10015000222C2276616C7565223A007B226C6576D2
:10016000656C223A22303037222C2264657669632E
:1001700065223A22434F4E54524F4C4C4552222C4A
:10018000226576656E74223A22454E44222C2274F2
:10019000696D657374616D70223A004C4800524875
:1001A000007B226C6576656C223A22303030222C3E
:1001B000226F6D697373696F6E5F696E74657276B5
:1001C000616C223A004C455645525F4C48004C4504
:1001D0005645525F524800534C4D004D4943524FD3
:1001E00053434F5045004C49434B004C41534552FB
:1001F0000050554D50320050554D5000435545323A
:100200000043554500227D007B226C6576656C229B
:100210003A22303030222C22646576696365223AB6
:1002200022434F4E54524F4C4C4552222C22706167
:1002300072616469676D223A224F4D495353494FA9
:100240004E222C226163746976655F6C65766572F7
:10025000223A22007B226C6576656C223A2230308D
:1002600037222C22646576696365223A22434F4E19
:1002700054524F4C4C4552222C226576656E7422A6
:100280003A225354415254222C2274696D6573747E
:10029000616D70223A307D007B226C6576656C2240
:1002A0003A22303030222C22646576696365223A26
:1002B000224D4943524F53434F5045222C227061E7
:1002C00072616D223A22747269676765725F706944
:1002D0006E222C2276616C7565223A0046495245A1
:1002E000440074657374004D4943524F53434F505B
:1002F0004500494E444550454E44454E54006D6FAF
:100300006465004C4153455200434F4E54494E479B
:10031000454E54006D6F6465004C41534552006476
:1003200075726174696F6E004C415345520066727C
:10033000657175656E6379004C41534552004649BD
:100340005245440074657374004C41534552004655
:100350004952454400746573740050554D50320045
:100360006475726174696F6E0050554D503200466D
:100370004952454400746573740050554D500064F3
:1003800075726174696F6E0050554D500046495248
:1003900045440074657374004355453200647572BA
:1003A0006174696F6E004355453200667265717500
:1003B000656E637900435545320046495245440015
:1003C0007465737400435545006475726174696F98
:1003D0006E00435545006672657175656E63790000
:1003E00043554500A1009600860079007000680022
:1003F0007B226C6576656C223A22303036222C22C4
:1004000064657363223A22436F6D6D616E64206E82
:100410006F7420666F756E64227D006C6576657200
:100420005F66696C74657200434F4E54524F4C4C7A
:1004300045520073657373696F6E5F7061757365A4
:100440006400434F4E54524F4C4C455200746573F8
:10045000745F6D6F646500434F4E54524F4C4C4572
:100460005200464952454400746573745F63686185
:10047000696E00434F4E54524F4C4C4552006F6DC5
:10048000697373696F6E5F696E74657276616C0013
:10049000434F4E54524F4C4C45520050554D500016
:1004A00050554D5032006163746976655F70756DAB
:1004B0007000434F4E54524F4C4C45520072656988
:1004C0006E666F72636564004C455645525F4C48DA
:1004D000007265696E666F72636564004C455645CF
:1004E000525F4C48007265696E666F7263656400A6
:1004F0004C455645525F5248007265696E666F7290
:10050000636564004C455645525F524800227D00A9
:100510007B226C6576656C223A22303036222C22A2
:1005200064657363223A220044495341524D454465
:100530000041524D454400227D002C2264657363C6
:10054000223A2200222C2270696E223A007B226C11
:100550006576656C223A22303031222C2264657631
:10056000696365223A2200222C22706172616D2239
:100570003A2270696E222C2276616C7565223A00EF
:100580007B226C6576656C223A22303030222C2238
:10059000646576696365223A2200222C2276616CBA
:1005A0007565223A00222C22706172616D223A2216
:1005B000007B226C6576656C223A22303030222C2A
:1005C00022646576696365223A220066616C736510
:1005D000007472756500222C2276616C7565223A72
:1005E00000222C22706172616D223A22007B226C03
:1005F0006576656C223A22303030222C2264657692
:10060000696365223A2200227D00222C2276616CE9
:100610007565223A2200222C22706172616D223AA5
:1006200022007B226C6576656C223A2230303022C3
:100630002C22646576696365223A2200444953415D
:10064000524D45440041524D454400227D002C222C
:1006500064657363223A22007B226C6576656C22A6
:100660003A22303031222C22646576696365223A61
:10067000224D4943524F53434F5045222C2270691B
:100680006E223A0066616C73650074727565002CA9
:10069000226475726174696F6E223A002C22667250
:1006A000657175656E6379223A00222C2261726D44
:1006B0006564223A007B226C6576656C223A2230B2
:1006C0003030222C22646576696365223A22006606
:1006D000616C73650074727565002C2264757261BB
:1006E00074696F6E223A00222C2261726D65642259
:1006F0003A007B226C6576656C223A2230303022DB
:100700002C22646576696365223A220066616C7307
:1007100065007472756500222C2261726D65642219
:100720003A007B226C6576656C223A2230303022AA
:100730002C22646576696365223A220066616C73D7
:100740006500747275650066616C7365007472751E
:1007500065002C227265696E666F72636564223A69
:1007600000222C2261726D6564223A007B226C6546
:1007700076656C223A22303030222C22646576690C
:100780006365223A2200027B226C6576656C223A10
:1007900022303030222C22646576696365223A2249
:1007A000434F4E54524F4C4C4552222C22736B6592
:1007B000746368223A226F6D697373696F6E2E6974
:1007C0006E6F222C2276657273696F6E223A2276E2
:1007D000322E302E30222C22626175645F72617479
:1007E00065223A3131353230302C227363686564CA
:1007F000756C65223A224F4D495353494F4E227D25
:10080000002C22656E645F74696D657374616D7030
:10081000223A002C226576656E74223A224C4943B6
:100820004B222C2273746172745F74696D657374EA
:10083000616D70223A00222C2270696E223A007B90
:10084000226C6576656C223A22303037222C226485
:100850006576696365223A22002C22656E645F74B6
:10086000696D657374616D70223A002C226576653E
:100870006E74223A225354494D222C2273746172B1
:10088000745F74696D657374616D70223A007B22C8
:100890006C6576656C223A22303037222C226465F2
:1008A00076696365223A224C41534552222C2270CC
:1008B000696E223A002C226576656E74223A2254C3
:1008C000494D455354414D50222C2274696D657336
:1008D00074616D70223A007B226C6576656C223AF9
:1008E00022303038222C22646576696365223A22F0
:1008F0004D4943524F53434F5045222C2270696E4D
:10090000223A002C226576656E74223A2254494DB3
:10091000455354414D50222C2274696D65737461A6
:100920006D70223A007B226C6576656C223A22302B
:100930003039222C22646576696365223A22534C51
:100940004D222C2270696E223A0000000000240023
:1009500027002A0000000000250028002B000000CE
:1009600000002300260029000404040404040404F5
:10097000020202020202030303030303010204084A
:1009800010204080010204081020010204081020F9
:10099000000000080002010000030407000000003E
:1009A0000000000044495341524D45440041524D1E
:1009B000454400227D002C2264657363223A2200A4
:1009C0007B226C6576656C223A22303031222C22F3
:1009D000646576696365223A22534C4D222C22705D
:1009E000696E223A004C455645525F4C48004C45D2
:1009F0005645525F524800227D002C226F72696575
:100A00006E746174696F6E223A22002C22656E64E6
:100A10005F74696D657374616D70223A00222C22D7
:100A200073746172745F74696D657374616D702243
:100A30003A002C226576656E74223A225052455354
:100A400053222C22636C617373223A2200222C22DF
:100A500070696E223A007B226C6576656C223A22C0
:100A6000303037222C22646576696365223A220091
:100A700054494D454F555400494E414354495645FC
:100A800000414354495645002C22736368656475E0
:100A90006C65645F6174223A002C22746172676530
:100AA00074223A007B226C6576656C223A223030E3
:100AB00036222C226572726F725F636F6465223A10
:100AC00022455F50454E44494E475F46554C4C22A7
:100AD0002C2264657363223A2250656E64696E67E6
:100AE00020616374696F6E20717565756520667528
:100AF0006C6C20E2809420616374696F6E20647274
:100B00006F70706564222C22616374696F6E5F740C
:100B1000797065223A005354494D00494E46555369
:100B2000494F4E00494E465553494F4E00544F4E83
:100B30004500544F4E45004C415345520050554DD1
:100B4000505F320050554D505F31004355455F3284
:100B5000004355455F31002C22656E645F74696DFA
:100B6000657374616D70223A00222C227374617275
:100B7000745F74696D657374616D70223A002C2224
:100B80006576656E74223A2200222C2270696E22EC
:100B90003A007B226C6576656C223A22303037222F
:100BA0002C22646576696365223A2200FA2E1124AC
:100BB0001FBECFEFD8E0DEBFCDBF12E0A0E0B1E0B6
:100BC000EEE0F8E702C005900D92AA33B107D9F71D
:100BD00026E0AAE3B2E001C01D92AA30B207E1F715
:100BE00015E0C7EDD5E004C02197FE010E94F83959
:100BF000C63DD107C9F70E9452320C94053C0C94B3
:100C00000000CF93DF93EC0188819981DC01ED91A5
:100C1000FC910190F081E02D64E270E0099500976D
:100C200041F02FE1FC01238321E02283DF91CF916A
:100C3000089521E02A83FACFCF92EF920F93FC011F
:100C400091E0909311031092120390931303409339
:100C500018035093190360931A0370931B031092A7
:100C60001C0310921D0310921E0310921F0389E0B3
:100C700080932D0384E680932E031092310393E03A
:100C800090938F0310924D0390934E0300934F0364
:100C9000109250031092510310925203109253037A
:100CA0008091A6059091A705A091A805B091A905EE
:100CB0008093540390935503A0935603B093570326
:100CC0001092580320935903263009F0CE2CC0927D
:100CD0005A0310925B0310925C0310925D03109212
:100CE0005E0381859285A385B48580935F0390938D
:100CF0006003A0936103B09362031092630387E0E3
:100D00008093640389E080936503109266031092D8
:100D10006703109268031092690380911405909103
:100D20001505A0911605B091170580936A0390935D
:100D30006B03A0936C03B0936D030F91EF90CF9072
:100D40000895E2EEF3E01082709684E0E23EF80748
:100D5000D1F70895833081F028F4813099F0823002
:100D6000A9F008958730A9F08830C9F08430B1F433
:100D7000809180008F7D03C0809180008F77809369
:100D80008000089584B58F7784BD089584B58F7DE4
:100D9000FBCF8091B0008F778093B0000895809151
:100DA000B0008F7DF9CFCF93DF93282F30E0F9018A
:100DB000E057F64F8491F901E458F64FD491F901C8
:100DC000E859F64FC491CC23A1F081110E94AA06E4
:100DD000EC2FF0E0EE0FFF1FE25AF64FA591B49111
:100DE000EC91ED2381E090E009F480E0DF91CF9178
:100DF000089580E090E0FACF1F93CF93DF93282FE0
:100E000030E0F901E057F64F8491F901E458F64FCC
:100E1000D491F901E859F64FC491CC23A9F0162FCB
:100E200081110E94AA06EC2FF0E0EE0FFF1FEC5A92
:100E3000F64FA591B4918FB7F894EC91111108C0B9
:100E4000D095DE23DC938FBFDF91CF911F91089562
:100E5000DE2BF8CFCF93DF9390E0FC01E458F64F00
:100E600024918859964FFC0184918823C9F090E021
:100E7000880F991FFC01E65BF64FA591B491FC0128
:100E8000EC5AF64FC591D49161110DC09FB7F894FB
:100E90008C91209582238C938881282328839FBF5F
:100EA000DF91CF910895623051F49FB7F8943C914F
:100EB000822F809583238C93E8812E2BEFCF8FB7E1
:100EC000F894EC912E2B2C938FBFEACF3FB7F89478
:100ED00080915A0290915B02A0915C02B0915D02F8
:100EE00026B5A89B05C02F3F19F00196A11DB11D85
:100EF0003FBFBA2FA92F982F8827BC01CD01620FC1
:100F0000711D811D911D42E0660F771F881F991F7B
:100F10004A95D1F708958F929F92AF92BF92CF9248
:100F2000DF92EF92FF920E9466074B015C0184E61C
:100F3000C82ED12CE12CF12C0E9466076819790982
:100F40008A099B09683E734081059105A8F321E059
:100F5000C21AD108E108F10888EE880E83E0981ED5
:100F6000A11CB11CC114D104E104F10429F7FF90C4
:100F7000EF90DF90CF90BF90AF909F908F900895AB
:100F80002FB7F894609156027091570280915802E1
:100F9000909159022FBF08950F931F93CF93DF9322
:100FA000C091FD02D091FE02209781F081E08A83FA
:100FB0000E94C007088519852A853B85601B710B37
:100FC000820B930B6C837D838E839F83DF91CF9104
:100FD0001F910F91089508959091070189130BC0F7
:100FE000E6E8F7E0E4919FEF90930701E13049F0E4
:100FF00028F0E23061F060E00C94FC0610926E0084
:10100000FACF90916F009D7F90936F00F4CF9091F5
:1010100070009D7F9093700091E09093B00090914C
:10102000B100987F94609093B1001092B300E3CF29
:101030004F925F926F927F928F929F92AF92BF92E8
:10104000CF92DF92EF92FF920F931F93CF93DF9394
:1010500000D000D01F92CDB7DEB78B0129013A0135
:10106000909107018917C9F09F3F09F47EC00F9046
:101070000F900F900F900F90DF91CF911F910F91D4
:10108000FF90EF90DF90CF90BF90AF909F908F90A8
:101090007F906F905F904F900895E6E8F7E094910D
:1010A0009D8397FDE4CF61E00E942A078D8188230C
:1010B00021F09D81923009F04AC14801B12CA12C48
:1010C00060E072E18AE790E0A50198010E9444384F
:1010D00029833A834B835C8369017A0181E0C81AD2
:1010E000D108E108F1089FEFC916D104E104F10429
:1010F00009F00CF401C160E472E48FE090E0A50116
:1011000098010E94443869017A0181E0C81AD10827
:10111000E108F1089D81923009F0A2C08FEFC81656
:10112000D104E104F10409F00CF4E6C160E970EDCA
:1011300083E090E0A50198010E94443869017A019A
:1011400091E0C91AD108E108F1088FEFC816D1045F
:10115000E104F10411F00CF07FC183E09091B10043
:10116000987F892B8093B100CFC080930701E6E878
:10117000F7E094919D839F3F09F479CF913041F13D
:1011800050F0923009F446C09D8197FD70CF61E028
:101190000E942A078ECF14BC15BC94B5926094BDF2
:1011A00095B5916095BD282F30E0F901E859F64FCB
:1011B000E491F0E0EE0FFF1FEC5AF64F4591549189
:1011C000F901E458F64FE491E09340021D826BCFA1
:1011D000109280001092810090918100986090930D
:1011E000810090918100916090938100282F30E0E0
:1011F000F901E859F64FE491F0E0EE0FFF1FEC5AC9
:10120000F64F45915491F901E458F64FE491E0937B
:101210003F0249CF1092B0001092B1009091B000FF
:1012200092609093B0009091B10091609093B10062
:10123000282F30E0F901E859F64FE491F0E0EE0F85
:10124000FF1FEC5AF64F4591549150934A02409338
:101250004902F901E458F64FE491E0934B0223CFA1
:101260009FEFC916D104E104F10409F00CF46DC03C
:1012700068E478EE81E090E0A50198010E9444388E
:1012800069017A0181E0C81AD108E108F1089D815D
:10129000992309F4FAC08FEFC816D104E104F104D0
:1012A00011F00CF0FBC0EFC064E274EF80E090E05E
:1012B000A50194010E94443869017A0181E0C81AAD
:1012C000D108E108F10885E09FEFC916D104E104D7
:1012D000F10409F008F442CF62E17AE780E090E09F
:1012E000A50194010E94443869017A0181E0C81A7D
:1012F000D108E108F108E5C081E09D8191112ECF70
:1013000095B5987F892B85BD2FEF3FEFA90141143B
:1013100051046104710409F043C09D81913009F4C6
:101320005EC0923009F46DC09111A1CEC7BC20936C
:101330004502309346024093470250934802809101
:101340006E00826080936E0092CE82E0D6CFB12C88
:10135000A12C60E072E18AE790E0A50198010E946B
:10136000443869017A0181E0C81AD108E108F1081E
:10137000C114D10491E0E906F10404F591E08D81F6
:10138000813011F680918100887F892B80938100C4
:101390002FEF3FEFA9014114510461047104F9F0EA
:1013A000D801AA0FBB1FA30192010E94633828EE47
:1013B00033E040E050E00E94AD38AFCF68E478EE13
:1013C00081E090E0A50198010E94443869017A010A
:1013D00081E0C81AD108E108F10893E0D0CFD0929B
:1013E0008900C092880020934102309342024093CA
:1013F00043025093440280916F00826080936F009B
:1014000036CEC092B30020934C0230934D024093ED
:101410004E0250934F028091700082608093700062
:1014200026CE84E09FEFC916D104E104F10409F04F
:1014300008F466CFC980DA80EB80FC808AE0F594FE
:10144000E794D794C7948A95D1F781E0C81AD10858
:10145000E108F10885E054CF68E478EE81E090E09F
:10146000A50198010E94443869017A0181E0C81AF7
:10147000D108E108F1089FEFC916D104E104F10495
:1014800011F00CF011CF84E069CE83E09FEFC91614
:10149000D104E104F10409F00CF432CF62E17AE7FF
:1014A00080E090E0A50194010E94443869017A012E
:1014B00081E0C81AD108E108F1089D81992309F457
:1014C000B0CF86E09FEFC916D104E104F10409F022
:1014D00008F444CEC980DA80EB80FC809AE0F59471
:1014E000E794D794C7949A95D1F781E0C81AD108A8
:1014F000E108F10887E032CE82E030CEAF92BF92B1
:10150000CF92DF92EF92FF920F931F93CF93DF93CF
:101510006C017B018B01040F151FEB015E01AE18FE
:10152000BF08C017D10759F06991D601ED91FC9120
:101530000190F081E02DC6010995892B79F7C5014D
:10154000DF91CF911F910F91FF90EF90DF90CF909F
:10155000BF90AF900895FC01538D448D252F30E04E
:10156000842F90E0821B930B541710F0CF960895B0
:1015700001970895FC01918D828D981761F0A28DDD
:10158000AE0FBF2FB11D5D968C91928D9F5F9F73A3
:10159000928F90E008958FEF9FEF0895FC01918D59
:1015A000828D981731F0828DE80FF11D858D90E0C6
:1015B00008958FEF9FEF0895FC01918D228D892F63
:1015C00090E0805C9F4F821B91098F73992708954B
:1015D0008EE592E00E94DC0A21E0892B09F420E0EC
:1015E000822F089580E090E0892B29F00E94E80A7C
:1015F00081110C9400000895FC01A48DA80FB92F4F
:10160000B11DA35ABF4F2C91848D90E001968F732A
:101610009927848FA689B7892C93A089B1898C9149
:10162000837080648C93938D848D981306C0028898
:10163000F389E02D80818F7D80830895EF92FF9262
:101640000F931F93CF93DF93EC0181E0888F9B8DE5
:101650008C8D98131AC0E889F989808185FF15C09F
:101660009FB7F894EE89FF896083E889F9898081C2
:101670008370806480839FBF81E090E0DF91CF9191
:101680001F910F91FF90EF900895F62E0B8D10E0B3
:101690000F5F1F4F0F731127E02E8C8D8E110CC022
:1016A0000FB607FCFACFE889F989808185FFF5CF6D
:1016B000CE010E94FC0AF1CFEB8DEC0FFD2FF11D46
:1016C000E35AFF4FF0829FB7F8940B8FEA89FB89AA
:1016D00080818062CFCF0F931F93CF93DF938C01D4
:1016E000D0E0C0E0F801EC0FFD1F6491662341F0EB
:1016F0008EE592E00E941E0B892B11F02196F2CF0D
:10170000CE01DF91CF911F910F910895CF93DF9379
:10171000EC01888D8823B9F0AA89BB89E889F98909
:101720008C9185FD03C0808186FD0DC00FB607FC3E
:10173000F7CF8C9185FFF2CF808185FFEDCFCE0171
:101740000E94FC0AE9CFDF91CF910895CF92DF92FA
:10175000EF92FF921F93CF93DF93EC016A017B011D
:101760008C810E94D30611E0892B09F410E08B854F
:10177000181721F0CD8ADE8AEF8AF88E8D899E892E
:10178000AF89B88DB701A601481B590B6A0B7B0BBB
:10179000898D90E0B0E0A0E084179507A607B70711
:1017A00098F48C85181781F01C878A851817A9F082
:1017B000CA8EDB8EEC8EFD8EEAA1FBA1309721F064
:1017C000B701A601898509951B87DF91CF911F91EC
:1017D000FF90EF90DF90CF900895CE8EDF8EE8A23D
:1017E000F9A2ECA1FDA1309779F389850995ECCF99
:1017F000FC01158213861486158616861786108AB4
:10180000118A128A138A148A158A168A138E86817F
:10181000882311F0848183830895CF92DF92EF9221
:10182000FF920F931F93CF93DF93EC018E81811171
:1018300003C08D89882369F18C810D851E852F85D4
:1018400038896A017B01C01AD10AE20AF30A9701BA
:10185000860137FD18C009891A892B893C89401BEC
:10186000510B620B730B14161506160617065CF067
:1018700061E0DF91CF911F910F91FF90EF90DF908A
:10188000CF900C94FC0660E00E94FC068D898111CB
:101890001D8ADF91CF911F910F91FF90EF90DF9004
:1018A000CF900895CF93DF93EC0161E088810E948F
:1018B000FC0681E08C870E94C0076D877E878F873A
:1018C000988BDF91CF910895CF92DF92EF92FF92A4
:1018D000CF93DF93EC016A017B0169857A858B8563
:1018E0009C850E9425379B01AC0160E070E080E898
:1018F0009FE30E944B3920E030E040E05FE30E942C
:10190000863720E030E04AE754E40E948637CD8EE7
:10191000DE8EEF8EF8A220E030E040E05FE30E9430
:10192000DF380E94C439C60ED71EE81EF91EC9A2B0
:10193000DAA2EBA2FCA28FA191E089278FA3DF910D
:10194000CF91FF90EF90DF90CF900895CF92DF92EC
:10195000EF92FF92CF93DF93EC016A017B018D89B7
:101960009E89AF89B88DAB019601281B390B4A0BB4
:101970005B0BDA01C901B7FD49C0898D9A8DAB8D2A
:10198000BC8DAB019601281B390B4A0B5B0BDA01AE
:10199000C901181619061A061B06C4F18EA1882360
:1019A000A9F189859A85AB85BC850197A105B1050B
:1019B00051F461E08C81DF91CF91FF90EF90DF9047
:1019C000CF900C94FC0689A19AA1ABA1BCA1AB015C
:1019D0009601281B390B4A0B5B0BDA01C901B7FDD5
:1019E00004C0A601CE010E94640C8C819FA19923A2
:1019F00011F061E0E0CF60E00E94FC061FA2DF91E1
:101A0000CF91FF90EF90DF90CF90089560E08C81B0
:101A10000E94FC061FA2898D9A8DAB8DBC8DC81AC1
:101A2000D90AEA0AFB0A8EA1882331F01C141D048E
:101A30001E041F040CF41EA288A5882301F31C14A5
:101A40001D041E041F04DCF618A6D9CF8F929F92A6
:101A5000AF92BF92CF92DF92EF92FF920F931F93BC
:101A6000CF93DF93EC018E81811104C088A188237C
:101A700009F445C07B0189899A89AB89BC894A01EF
:101A80005B01881A990AAA0ABB0AC501B40197FD2D
:101A900053C00D891E892F89388D4A015701801A3C
:101AA000910AA20AB30A95018401101611061206C2
:101AB00013060CF441C02A8D2223A9F10C8D1D8D33
:101AC0002E8D3F8D200F311F2115310511F421E09E
:101AD00030E0FB8C50E040E00E94AD3860177107A9
:101AE000D8F4F1100AC069857A8520E030E0A901B8
:101AF0008C810E94180881E08B8F81E0898FDF91B3
:101B0000CF911F910F91FF90EF90DF90CF90BF90FA
:101B1000AF909F908F900895FF2079F38C810E9461
:101B2000EC071B8EEACF69857A8520E030E0A901B9
:101B30008C810E941808E1CF898D882301F38C8164
:101B40000E94EC07198E1B8E88A18823C1F218A26F
:101B5000D6CF6F3FA9F0E62FE295EF7044E0E49F07
:101B600090011124DC01ED91FC91E20FF31F6F70E5
:101B700082819381B6E06B9F800D911D11240895A1
:101B800090E080E00895982F80336CF08A3324F041
:101B90008F3524F08B3724F481E0089581341CF0D4
:101BA00081E09B350CF080E00895FC018285811175
:101BB0000AC0A781B085CD010196908787838C915B
:101BC000818781E08287818508951F93CF93DF937A
:101BD000EC01162F0E94D50D811306C01A8681E0F4
:101BE000DF91CF911F91089580E0FACF0F931F935B
:101BF000CF93DF938C01EB018991882369F0C801B1
:101C00000E94D50D882379F0FE01319790819813B9
:101C10000DC0F8011286F0CF90E080E0DF91CF9107
:101C20001F910F91089582E090E0F8CF83E090E05B
:101C3000F5CFCF93DF93EC01CE010E94D50D8B3011
:101C40004CF489305CF4882359F081E08E8390E075
:101C500080E00BC08D3011F08032B9F71A86ECCFDE
:101C60008E81811105C081E090E0DF91CF910895D0
:101C700082E090E0FACFDC0152969C91529791500D
:101C800084E0989F900111245096ED91FC91E20F11
:101C9000F31F228133812115310579F04181808143
:101CA000481758F481E0840F818386E0489F200D17
:101CB000311D11242115310521F460E070E08FEF12
:101CC0000895B901892F8295807F840F0895DF924E
:101CD000EF92FF920F931F93CF93DF93EC017B0161
:101CE000D12C688979898A89D816E0F484E0D89E55
:101CF00080011124060F171FD80112966D917C9157
:101D00006115710541F0D701ED91FC910280F381DD
:101D1000E02DC7010995F801138212821082118209
:101D2000D394DFCF1A8A8FEF8C8BC617D70761F059
:101D3000D701ED91FC910280F381E02DC701099557
:101D4000D98BC88B84E08B8BDF91CF911F910F9142
:101D5000FF90EF90DF900895CF92EF920F93409114
:101D60000A0150910B0160910C0170910D01C0901E
:101D70000001E09001010091020120910E0180918B
:101D80000801909109010E941C0680913E0288235F
:101D900009F449C080918F03833018F083E0809369
:101DA000630310922F0381E080933003809331030B
:101DB00080933203809333031092340310923503DF
:101DC00010924B0394E690934C038093D2031092AD
:101DD000900387E08093910389E080939203809140
:101DE000180590911905A0911A05B0911B058093D3
:101DF000930390939403A0939503B09396038091DB
:101E0000140590911505A0911605B09117058093C2
:101E1000970390939803A0939903B0939A030F911B
:101E2000EF90CF90089510923103F9CF4F925F92C7
:101E30006F927F928F929F92AF92BF92CF92DF92DA
:101E4000EF92FF920F931F93CF93DF9300D000D0B8
:101E50001F92CDB7DEB7DC012C912B32E1F12D3290
:101E6000D9F50196EE24E394FC01208130ED320F88
:101E70003A3010F02E3291F58C0160E070E0CB0129
:101E8000F801219130ED832E820E39E0381508F4E7
:101E900044C06A3949E97407840749E1940708F0A6
:101EA00046C0AAE0B0E09B01AC010E946338912CCF
:101EB000B12CA12C2401350140945094609470946D
:101EC000461657066806790690F1680D791D8A1D39
:101ED0009B1D8F01D5CF0196E12CC6CF1982298198
:101EE0003A814B815C816D8170E080E090E00F90E1
:101EF0000F900F900F900F90DF91CF911F910F9146
:101F0000FF90EF90DF90CF90BF90AF909F908F9019
:101F10007F906F905F904F900895211108C0EE2040
:101F200051F161307105810550E89507A0F0F12C61
:101F3000BAE08B2E912CA12CB12C6115710530E8E3
:101F400083079105F8F0A50194010E94AD38CA01FC
:101F5000B901F394F2CF22E029839B01AC018827D9
:101F60009927DC01821B930BA40BB50B8A839B83FF
:101F7000AC83BD83B4CF23E029836A837B838C83C6
:101F80009D83ADCFF801D8012D918D0130ED320F39
:101F90003A3010F4F394F6CF2E3201F58F010F5F33
:101FA0001F4FF8010F5F1F4F2081A0EDDA2ED20ED8
:101FB000B9E0BD1598F06C3CECEC7E07ECE08E07C8
:101FC000910578F7AAE0B0E09B01AC010E9463386C
:101FD0006D0D711D811D911DFA94E3CF20812F7D20
:101FE00010E000E0253409F050C021812D32B1F518
:101FF0003296CC24C394DF0110E000E02F2D0F2C8B
:10200000000C330BEAE0BE2EFD01DD9040ED4D0DDE
:102010004A30B0F5B09EA001B19E500D11240D2D97
:10202000DD0C110B00531109040F151FA801420FFD
:10203000531F4732510544F3CC20B9F080E090E0C3
:10204000A0E0B0E8E11003C080E090E0DC0121E016
:1020500029838A839B83AC83BD8341CF2B3219F0C4
:102060003196C12CC8CF3296FCCF80E090E0A0E83A
:10207000BFEFE110ECCF80E090E0A0E8BFE7E7CF52
:10208000CC2019F01195019511092081211126CF3D
:102090000F0D111DF7FC1A950E9425374CEBA42E4D
:1020A00040E0B42E101611063CF01195019511096F
:1020B00054EAA52E50E0B52ED12CC12C01151105E6
:1020C000E9F0F6E0CF16D104A9F000FF0DC0F6014B
:1020D000EE0FFF1FEE0FFF1FEA0DFB1D259135913F
:1020E000459154910E948637159507952FEFC21A96
:1020F000D20AE4CF60E070E080EC9FE7E1109058F6
:1021000021E029836A837B838C839D83E8CECF92F1
:10211000DF92EF92FF920F931F93CF93DF937C0197
:102120006B018A01FC01C081D1814F3F510509F04B
:10213000B0F4E881F9810480F581E02D4B5F5F4FB9
:10214000CE010995009759F0FC010383DF91CF91EF
:102150001F910F91FF90EF90DF90CF900895E8814D
:10216000F9810280F381E02DB601CE01099581E06D
:10217000F701828390E080E0E9CF1F93CF93DF9354
:10218000EC01162F6A817B816115710589F04C8104
:102190005D81FB0183818417150651F4440F551F9F
:1021A0004F5F5F4F888199810E9487109B838A834C
:1021B0008A819B81009759F02C813D81A9014F5F55
:1021C0005F4F5D834C83820F931FFC011483DF916B
:1021D000CF911F9108959F92AF92BF92CF92DF92BD
:1021E000EF92FF920F931F93CF93DF9300D000D015
:1021F0001F92CDB7DEB78C010E94D50DD82EF80105
:102200001286F12CE12C60EFC62EC8010E94D50D7C
:10221000F8011286D81609F4B3C0811113C082E008
:1022200090E00F900F900F900F900F90DF91CF9153
:102230001F910F91FF90EF90DF90CF90BF90AF90E4
:102240009F9008958C3509F099C0C8010E94D50D62
:10225000882329F3EAE9F1E0853709F083C0F80122
:10226000128654E0952EB12CA12CC8010E94D50DE8
:102270008823A9F2813434F48053803130F083E034
:1022800090E0CFCF8F7D8753F8CF44E0AA0CBB1CE2
:102290004A95E1F7A82AF80112869A949110E5CFA1
:1022A000C501985D8115944020F47501F3E0FF228B
:1022B000ACCFC5019C5D81159440A8F483E0B822A1
:1022C000B701762F6627770F770F6A297B2990E071
:1022D00080E00196603871058105910540F4C801E0
:1022E0000E94BD1092CFB50190E080E0F3CF19823B
:1022F000262F2F7320682A8326E096958795779559
:1023000067952A95D1F76032710580F4606C6B8314
:102310005E01E4E0AE0EB11CF50162915F0166233F
:1023200009F473CFC8010E94BD10F6CF262F2F737A
:1023300020682B8386E0769567958A95E1F7603172
:10234000710538F4606E6C835E01F5E0AF0EB11C70
:10235000E3CF60686C83CD825E0126E0A20EB11CE3
:10236000DBCF32969081992309F489CF8913F9CF75
:102370008181882309F483CFF8011286682FAFCFBB
:1023800082819381892B19F484E090E04ACF90E018
:1023900080E047CF6F927F928F929F92AF92BF92D1
:1023A000CF92DF92EF92FF920F931F93CF93DF9321
:1023B000EC012A813B812C5F3F4F4C815D81443091
:1023C000510588F58901F90180E0942FB22FAE2FD5
:1023D000A21BA91730F4F190A1E0F110A0E08A2B24
:1023E000F6CF811120C082E0EB018C83FB01802FAE
:1023F0008B1B891728F4E80189918E018193F7CF0F
:10240000640F751FFB011082DF91CF911F910F9117
:10241000FF90EF90DF90CF90BF90AF909F908F9004
:102420007F906F9008958B01F901E40FF51F1082E2
:10243000888199814C815D81DC011396ED91FC913D
:102440003A01E89477F86901C60CD71C3097C1F0BF
:10245000A381A615170481F449017F01B4E0EB0EB6
:10246000F11C8C149D0429F1D401AD904D01D701CC
:10247000BD907D01AB14A9F30190F081E02DE6CF72
:102480006A817B810E948710FC01A881B981139623
:102490008D919C911497918380831496FC93EE9375
:1024A00013971B821A8285E0E8018C83F983E88305
:1024B000ABCF82818F5F8283F6CFDB01ED91FC9100
:1024C00011970280F381E02DBC01CD010994AF92F8
:1024D000BF92CF92DF92EF92FF920F931F93CF9311
:1024E000DF93EC018B018C8180FF24C0A881B9812E
:1024F000FB018381948130E020E00097D9F0A81798
:10250000B907D1F5F8016081718112968C9112970B
:10251000815012968C93129781110CC08D919C91D1
:1025200011972115310529F1F90191838083CD019E
:102530000E945D128C81807631F1209721F1F88024
:102540005801F5E1AF0EB11C8FEFF816D1F06F2DE9
:10255000C5010E94A90D6C01FC01E580B8010E9433
:102560006712F801818DF6018083F801F18EFE2C4F
:10257000EBCF94838383DBCF9C01FC01808191812D
:10258000BCCFF882F9821C82DF91CF911F910F910D
:10259000FF90EF90DF90CF90BF90AF9008950F9392
:1025A0001F93CF93DF93EC01088119818B819C816C
:1025B000009749F0FC01208131813C832B83B801D5
:1025C0000E945D12F3CF68817981CE010596DF917B
:1025D000CF911F910F910C94670EFC010190002088
:1025E000E9F73197AF01481B590BBC018EE592E02A
:1025F0000C947E0A8F929F92AF92BF920F931F937B
:10260000CF93DF93CDB7DEB7A1970FB6F894DEBFB7
:102610000FBECDBF19A2423008F44AE08E010F5D13
:102620001F4F842E912CB12CA12CA50194010E9446
:10263000AD38E62FB901CA01EA30F4F4E05DD80103
:10264000EE938D01232B242B252B79F790E080E04E
:10265000109719F0CD010E94ED12A1960FB6F894D3
:10266000DEBF0FBECDBFDF91CF911F910F91BF9005
:10267000AF909F908F900895E95CE1CF4AE00C9471
:10268000FA12CF92DF92EF92FF92CF93DF936C0119
:10269000990FEE08FF08F7FE19C06DE28EE592E093
:1026A0000E941E0BEC0166277727CB016C197D0970
:1026B0008E099F094AE00E94FA128C0F9D1FDF913C
:1026C000CF91FF90EF90DF90CF9008954AE0C7013F
:1026D000B601DF91CF91FF90EF90DF90CF900C94F7
:1026E000FA12CF93DF930E946B0BEC018DEA91E01D
:1026F0000E94ED128C0F9D1FDF91CF910895CF9313
:10270000C82F8093E70480EC99E00E946B0B8091C6
:10271000E504082E000C990B0E94411386EB99E00A
:102720000E946B0B84EA99E0CC2311F08DEA99E0CA
:102730000E946B0B83EB99E0CF910C9471130F9374
:102740001F93CF938C01C62FFC01638388E596E02D
:102750000E946B0BF8018081082E000C990B0E94DF
:1027600041138EE496E00E946B0B8CE396E0CC2341
:1027700011F085E496E00E946B0B8BE496E0CF911C
:102780001F910F910C947113EF92FF920F931F936F
:10279000CF93DF937C018B01EA0182E296E00E94F5
:1027A0006B0BC7010E946B0B86E196E00E946B0BDE
:1027B000C8010E946B0B8AE096E00E946B0BCE0171
:1027C0000E946B0B87E096E0DF91CF911F910F91F4
:1027D000FF90EF900C947113CF93DF936DE78EE52C
:1027E00092E00E941E0BEC018DEA91E00E94ED1236
:1027F0008C0F9D1FDF91CF9108954F925F926F9242
:102800007F928F929F92AF92BF92EF92FF920F931F
:102810001F93CF93DF932A013B0148015901853073
:1028200009F480C008F061C0843009F46FC0E09101
:102830000503F09106031481C2E3DBE041E5E42ED9
:102840004BE0F42E82E99BE00E946B0BC7010E94D3
:102850006B0B89E89BE00E946B0B812F110F990B8A
:102860000E9441138EE79BE00E946B0BCE010E94F9
:102870006B0B89E69BE00E946B0B8091D3049091D7
:10288000D404A091D504B091D604A3019201281BD1
:10289000390B4A0B5B0BCA01B9010E943E1387E555
:1028A0009BE00E946B0B8091D3049091D404A09183
:1028B000D504B091D604A5019401281B390B4A0B0D
:1028C0005B0BCA01B9010E943E13DF91CF911F91AA
:1028D0000F91FF90EF90BF90AF909F908F907F905F
:1028E0006F905F904F900C94EC13863039F18730E5
:1028F00009F09DCFE0910D03F0910E031481C6E124
:10290000DBE087E3E82E8BE0F82E9CCFE091070315
:10291000F09108031481CDE2DBE03BE4E32E3BE0E1
:10292000F32E90CFE0910903F0910A031481C4E2E1
:10293000DBE024E4E22E2BE0F22E84CFE0910B03C7
:10294000F0910C031481CBE1DBE09DE3E92E9BE0E9
:10295000F92E78CFCF92DF92EF92FF920F931F93D1
:10296000CF93DF93EC018881813009F4D1C06A01F3
:102970007B01813090F08230D1F481E193E00E94BC
:10298000F80B8FE293E0DF91CF911F910F91FF90B1
:10299000EF90DF90CF900C94F80B8981853009F48B
:1029A0007DC070F48330F1F1843009F45AC0DF91B6
:1029B000CF911F910F91FF90EF90DF90CF900895EE
:1029C000863009F488C0873091F7E0910D03F091CB
:1029D0000E03309761F38681882349F385A1811125
:1029E000E6CF8F819885A985BA85C58AD68AE78A78
:1029F000F08E8C0D9D1DAE1DBF1D818F928FA38FFC
:102A0000B48F81E086A3CF010E94640C0F811885EA
:102A100029853A850C0D1D1D2E1D3F1DB701A601F0
:102A200087E01CC0E0910503F0910603309709F49C
:102A3000BECF8681882309F4BACF0F8118852985F6
:102A40003A85C18AD28AE38AF48A0C0D1D1D2E1D97
:102A50003F1D058B168B278B308F83E00E94FD1363
:102A6000A6CFE0910703F0910803309709F49FCFB8
:102A70008681882309F49BCF0F81188529853A85A3
:102A8000C18AD28AE38AF48A0C0D1D1D2E1D3F1DBA
:102A9000058B168B278B308F84E0E0CFE091090304
:102AA000F0910A03309709F482CF8681882309F4D4
:102AB0007ECF0F81188529853A85C586D686E7861B
:102AC000F08A0C0D1D1D2E1D3F1D018B128B238BBB
:102AD000348B85E0C3CFE0910B03F0910C0330976A
:102AE00009F465CF8681882309F461CF0F811885A9
:102AF00029853A85C586D686E786F08A0C0D1D1D88
:102B00002E1D3F1D018B128B238B348B86E0A6CFAD
:102B10008981E091FF02F0910003882339F0813030
:102B200009F045CFE0910103F0910203309709F4D9
:102B30003ECFCF80D884E984FA844C0D5D1D6E1D94
:102B40007F1D418B528B638B748B31CF2F923F92C1
:102B50004F925F926F927F928F929F92AF92BF92AD
:102B6000CF92DF92EF92FF920F931F93CF93DF9359
:102B700000D000D0CDB7DEB72A013B0103E4809F2F
:102B800090011124912C8901C90181579C4F9A838E
:102B900089834BE0842E19019EE4290E311CE981C2
:102BA000FA818081981608F0A0C0A92CB12CC80128
:102BB000899C800D911D112481509D4FFC01E25B89
:102BC000FF4F2081233039F1805B9F4FFC018081D2
:102BD000893021F09091E40489131DC08A9CF00192
:102BE0008B9CF00D1124E00FF11FE05BFC4FC080C7
:102BF000D180E280F380C114D104E104F10469F4CE
:102C0000B301A201C101989C800D911D1124815036
:102C10009D4F0E94AA149394C2CFC40CD51CE61CED
:102C2000F71CE2EEF3E090E080E02081211125C066
:102C300024E0880F991F2A95E1F7DC01AD52BC4FC3
:102C40008A9CF0018B9CF00D1124E00FF11FE35BD7
:102C5000FC4F282D01900D922A95E1F781509D4F50
:102C6000FC01E152FF4FC082D182E282F3828D519A
:102C70009F4F21E0FC012083CECF019670968031DA
:102C8000910599F684EA9AE00E946B0B8A9CC00138
:102C90008B9C900D1124800F911F81509D4F9C8320
:102CA0008B83FC01E25BFF4F608170E090E080E08D
:102CB0004AE00E94FA1289E99AE00E946B0BEB81CC
:102CC000FC81E15BFF4F608170E090E080E04AE0D2
:102CD0000E94FA1288E89AE00E946B0BC701B601C5
:102CE0000E943E130E94EC1396CF0F900F900F900E
:102CF0000F90DF91CF911F910F91FF90EF90DF9098
:102D0000CF90BF90AF909F908F907F906F905F908B
:102D10004F903F902F9008950F931F93CF93DF9381
:102D20008C01D62FC42F8CE697E00E946B0BC80154
:102D30000E946B0B81E697E00E946B0B87E497E0A3
:102D4000DD2311F08DE497E00E946B0B82E597E0A4
:102D50000E946B0B8CE397E0CC2311F082E497E0A8
:102D60000E946B0BDF91CF911F910F910C94EC138C
:102D70000F931F93CF938C01C62F82E297E00E949E
:102D80006B0BC8010E946B0B87E197E00E946B0BF5
:102D90008CE097E0CC2311F082E197E00E946B0B6E
:102DA000CF911F910F910C94EC13CF92DF92EF9281
:102DB000FF920F931F93CF938C01C62F69017A0165
:102DC00082EF96E00E946B0BC8010E946B0B87EEAE
:102DD00096E00E946B0B8FEC96E0CC2311F085ED12
:102DE00096E00E946B0B8AED96E00E946B0BC70188
:102DF000B6010E943E13CF911F910F91FF90EF906B
:102E0000DF90CF900C94EC137F928F929F92AF92B1
:102E1000BF92CF92DF92EF92FF920F931F93CF93C7
:102E2000DF93EC01762E49015A016701780185EBA9
:102E300096E00E946B0BCE010E946B0B8AEA96E033
:102E40000E946B0B84E896E0772011F08AE896E008
:102E50000E946B0B8CE996E00E946B0BC501B401DC
:102E60000E943E138FE896E00E946B0BC701B601EB
:102E70000E943E13DF91CF911F910F91FF90EF9031
:102E8000DF90CF90BF90AF909F908F907F900C94E9
:102E9000EC13EF92FF920F931F93CF937C018B0162
:102EA000C42F8DEE95E00E946B0BC7010E946B0B47
:102EB00081EE95E00E946B0BC8010E946B0B86EDC2
:102EC00095E00E946B0B8BEC95E0CC2311F081ED2B
:102ED00095E00E946B0BCF911F910F91FF90EF90A7
:102EE0000C94EC13CF92DF92EF92FF920F931F930B
:102EF000CF93DF938C01EB0169017A0181EB95E0BF
:102F00000E946B0BC8010E946B0B85EA95E00E9442
:102F10006B0BCE010E946B0B8AE995E00E946B0B54
:102F2000C701B6010E943E13DF91CF911F910F910F
:102F3000FF90EF90DF90CF900C94EC13009711F07E
:102F40000C94ED1290E080E00895EF92FF920F93C1
:102F50001F93CF93DF93C091FF02D091000388238A
:102F600021F0C0910103D0910203209709F472C0AF
:102F7000613009F469C008F464C0623009F467C0C4
:102F800095EEE92E99E0F92E811104C08EEEE82E1F
:102F900089E0F82E86E59AE00E946B0BC7010E943B
:102FA0006B0B8DE49AE00E946B0B6C8170E090E0FB
:102FB00080E04AE00E94FA1282E39AE00E946B0BE2
:102FC000C8010E946B0B8DE19AE00E946B0B6A8D29
:102FD0007B8D8C8D9D8D0091D3041091D404209114
:102FE000D5043091D604601B710B820B930B0E94A9
:102FF0003E138BE09AE00E946B0B6E8D7F8D88A153
:1030000099A10091D3041091D4042091D50430915A
:10301000D604601B710B820B930B0E943E138AEF48
:1030200099E00E946B0BCE010D960E949E1787EFD0
:1030300099E0DF91CF911F910F91FF90EF900C9449
:10304000711301E81AE09CCF08E71AE099CF00E776
:103050001AE096CFDF91CF911F910F91FF90EF90E3
:1030600008959091DB04911104C09091DC049923A0
:1030700071F09091DD0491110AC06091E2048823FF
:1030800021F0813021F46091E3040C94A517089598
:10309000CF93DF93EC016E838DE495E00E946B0B80
:1030A0008F8198850E949E1784E495E00E946B0BA7
:1030B0008C81082E000C990B0E9441138AE395E045
:1030C0000E946B0B8E8181110AC088E295E00E94FC
:1030D0006B0B87E395E0DF91CF910C94711381E343
:1030E00095E0F5CF60E080910F01909110010E9472
:1030F000481860E080911101909112010E944818D7
:1031000060E080911301909114010E94481860E0E2
:1031100080911501909116010E94481860E08091FD
:103120001701909118010E94481860E080911901E0
:1031300090911A010E94481860E080911B019091C3
:103140001C010E94481880911D0190911E0100975A
:1031500019F060E00E94481860E080911F01909192
:1031600020010C949F131F93CF93DF93EC01162F34
:103170008E81882321F060E0CE010E9448188D8165
:10318000813021F460E08C810E94FC061C836D81FB
:10319000812F0E942A078D81813021F460E08C818B
:1031A0000E94FC0680E895E00E946B0B8F81988559
:1031B0000E949E1787E695E00E946B0B8C81082E7B
:1031C000000C990B0E944113DF91CF911F910C9439
:1031D000EC13CF93DF93EC010E94B3188C810E9413
:1031E000D30621E0892B09F420E02A878C810E94F4
:1031F000D30621E0892B09F420E02B878C810E94E3
:10320000D30621E0892B09F420E02C871D8A1E8A31
:103210001F8A188EDF91CF9108959F92AF92BF922F
:10322000CF92DF92EF92FF920F931F93CF93DF9392
:103230008A01452B09F468C0E9016B016596FC0120
:103240006081CE010E94A90DFC01BB24BA94892B98
:1032500009F0B5807601E894F7F8AA24A3946701F1
:10326000C00ED11E99249394309709F44DC0AA2022
:1032700009F43FC08481843069F0853049F182309F
:1032800079F5DF010D900020E9F71197CD018E1B34
:103290009F0B07C00190F081E02D90E080E0309717
:1032A00081F79F77E816F90621F5D801AC15BD0521
:1032B000E1F46B2DCE01DF91CF911F910F91FF9023
:1032C000EF90DF90CF90BF90AF909F900C94A90D9E
:1032D000A081B181FD01349613968C9190E0E2CFEC
:1032E00090E080E0F0E0E0E0DDCF9D9181919817E3
:1032F000E9F2A9246B2DCE010E94A90DFC01892BB6
:1033000009F4B2CFB580B0CF90E080E0DF91CF91EB
:103310001F910F91FF90EF90DF90CF90BF90AF90F3
:103320009F900895FC0120813181C9014A96428114
:10333000538164817581009759F0D9015E96EC91B3
:10334000E03211F090E080E0009711F00C940D193C
:1033500090E080E00895CF93DF93EB010E949219F3
:10336000009741F0FC012481263021F48081DF9117
:10337000CF9108958881FBCFCF92DF92EF92FF9299
:10338000CF93DF9300D000D01F92CDB7DEB70E945D
:103390009219DC01009709F44AC01496EC91149735
:1033A000E250ED3008F043C0F0E0E752F64E0C94E6
:1033B000F839071A171A051A1B1AE619171A171AD5
:1033C000171AF619171AFB19171A1F1A6C9170E0C1
:1033D00090E080E00F900F900F900F900F90DF9192
:1033E000CF91FF90EF90DF90CF9008956D917D91F8
:1033F0008D919C91EFCF8D919D910D90BC91A02DC1
:10340000B7FD15C0BC01CD01E5CF8D919C910E9407
:10341000160F3A834B835C836D83CA80DB80EC801C
:10342000FD80223041F1233041F1213061F060E034
:1034300070E0CB01CFCF8D919C910496E8CFCD90D9
:10344000DD90ED90FC9020E030E0A901C701B601CD
:103450000E94F33987FDEBCF2FEF3FEF4FE75FE49B
:10346000C701B6010E94203718160CF3C701B60138
:103470000E94C439AFCFF7FCDACFC701B601AACF9B
:103480008F929F92AF92BF92CF92DF92EF92FF9274
:103490000F931F93CF93DF9300D000D000D0CDB710
:1034A000DEB749015A0167017801FB010190002054
:1034B000E9F73197E61BF70B9A8389837C836B834B
:1034C000ED838F2F8F778E83CE0101960E94921904
:1034D0000097B9F0FC0124812A3041F02C3089F4A6
:1034E00080819181A281B381B7FD0BC0CE0101968D
:1034F0000E94BC1986169706A806B90610F44B015F
:103500005C01C501B401C616D706E806F90610F439
:10351000C701B60126960FB6F894DEBF0FBECDBF29
:10352000DF91CF911F910F91FF90EF90DF90CF909F
:10353000BF90AF909F908F900895CF92DF92EF92BF
:10354000FF92CF93DF9300D000D01F92CDB7DEB7AC
:103550000E949219DC01009709F446C01496EC9180
:103560001497E250ED3008F03FC0F0E0E654F54E1D
:103570000C94F839F91AF41AF71A0A1BC71AF41A34
:10358000F41AF41AD61AF41AE31AF41A0E1B6C91F0
:1035900070E0CB010F900F900F900F900F90DF9184
:1035A000CF91FF90EF90DF90CF9008958D919D91F6
:1035B0000D90BC91A02D811520E89207A105B105C1
:1035C00098F4BC01E6CF8D919D910D90BC91A02DFA
:1035D0006C017D0120E8D20EE11CF11CC114D10464
:1035E00021E0E206F10468F370E060E0D2CF8D9153
:1035F0009C910E94160F3A834B835C836D83CA8033
:10360000DB80EC80FD80223031F1233081F12130EC
:1036100059F708C08D919C910496EBCFCD90DD9029
:10362000ED90FC9020E030E040E057ECC701B6019F
:103630000E94F33987FDD8CF20E03EEF4FEF56E4EC
:10364000C701B6010E942037181674F2C701B601EF
:103650000E94BD399ECFD701C6019058AF4FBF4FD2
:103660000097A140B10508F0BFCFB60192CFC114B9
:1036700080E8D806E104F104C0F3B6CF0F931F939E
:10368000CF93DF93EC018B010E949219FC01892BEF
:1036900029F084818A3051F08C30C1F0F8018081AA
:1036A0009181DF91CF911F910F9108958081918138
:1036B000A281B38181159048A105B10578F7CE01AB
:1036C000DF91CF911F910F910C949D1A8081918170
:1036D000A281B3819058AF4FBF4F0097A140B10571
:1036E000E8F6EDCF4F925F926F927F92AF92BF92CA
:1036F000CF92DF92EF92FF920F931F93CF93DF93BE
:103700009091DB04911105C09091DC04992309F498
:10371000EAC09091DD049111E6C0823008F0E3C068
:103720008093E40481110AC0E091FF02F09100034C
:10373000309759F481E08093E204D5C0E091010311
:10374000F0910203309709F487C09089992309F416
:1037500080C0018912892389348904171507260737
:10376000370708F482C0882309F4CCC082E0809334
:10377000E304B9C08F898F5F8F8B9D89891708F407
:10378000ADC08FA5843658F40E94C836A3019201BB
:103790000E9444388FA5681710F01F8A9FC01F8AA7
:1037A000888D882351F09D899501281B3109921736
:1037B000130609F05CF4890F8D8B8B89823008F039
:1037C0008DC0B701A6010E94A61588C087ED90E0C4
:1037D0000E946B0B6D8970E090E080E04AE00E94EF
:1037E000FA1284ED90E00E947113E7CFCD8EDE8E49
:1037F000EF8EF8A273C08DA5811170C089A19AA126
:10380000ABA1BCA1A7019601281B390B4A0B5B0B8E
:10381000DA01C901B7FD62C08DA19EA1AFA1B8A513
:103820008C199D09AE09BF09181619061A061B0640
:103830000CF054C08FA5843610F00DA7BECF0E94A7
:10384000C836A30192010E9444388FA56817A8F3D7
:1038500045C0882309F46ECF81E089CF1092E2043D
:10386000E091FF02F091000308C08823B9F31092A1
:10387000E304E0910103F0910203309781F000919D
:10388000D7041091D8042091D9043091DA04040FA0
:10389000151F261F371F018B128B238B348B6A0158
:1038A0007B01182FCFEFD2E0AA24AA94B12C94E682
:1038B000492E512C612C712C01E08C89882371F0E8
:1038C0008EA5893011F0181309C08A89813009F456
:1038D0008DCF08F44FCF823009F48DCF6E9633E050
:1038E000CB33D30751F7DF91CF911F910F91FF9009
:1038F000EF90DF90CF90BF90AF907F906F905F90F0
:103900004F90089582E017CFBF92CF92DF92EF924F
:10391000FF920F931F93CF93DF93EC01198D1F3FFD
:1039200081F0612F45960E94A90DFC018081898F4D
:10393000309709F477C014828FEF8583BF01812F00
:1039400076C06C0135E0C30ED11CE880F9808F8908
:10395000882341F0C6010E943B0EE62FF72F182F57
:10396000309749F71F89988D191324C0103109F435
:1039700059C0110F6D897E89D701ED91FC91B4E09A
:103980001B9FA0011124C616D70609F044C0019060
:10399000F081E02DBA01C7010995009709F442C0F2
:1039A00020E1F601DC0101900D922A95E1F79E8B52
:1039B0008D8B188F0D891E898F8921E0280F2F8B01
:1039C000E4E08E9FC0011124080F191F90E1B92E69
:1039D000203111F48FE0B82EF6E0BF9EB001112423
:1039E000D701ED91FC910190F081E02DC70109957F
:1039F000F80193838283892B09F4B12CD801BC92FE
:103A000011961C92012B71F0C6010E943B0EE62F0D
:103A1000F72F182F8DCF0480F581E02DC701099570
:103A2000009729F681E08A8360E070E08FEFDF91F4
:103A3000CF911F910F91FF90EF90DF90CF90BF90AB
:103A400008954F925F926F927F928F929F92AF9262
:103A5000BF92CF92DF92EF92FF920F931F93CF937B
:103A6000DF9300D000D01F92CDB7DEB78C017B0171
:103A7000B42E0E94190E6C01892B09F048C0C801B0
:103A80000E94D50D863609F4A9C124F5873229F0A4
:103A90008B3561F1823209F0A8C1D80115961C92CC
:103AA0001E92149712968D919C911397892B39F43D
:103AB0008D919C910E940106F80193838283C80135
:103AC0000E94EB106C01892B11F5B701C8010E940F
:103AD000CA111DC0843709F460C18B3709F47BC05B
:103AE0008E3609F082C168EC71E060C180E4D701D4
:103AF00014968C931497E114F10421F08FEF8C93BA
:103B000011968C93B1101AC025E0C22ED12CC6019B
:103B10000F900F900F900F900F90DF91CF911F910A
:103B20000F91FF90EF90DF90CF90BF90AF909F905C
:103B30008F907F906F905F904F900895F80112865C
:103B4000C8010E94190E009751F56DE5C8010E9449
:103B5000E50D8111DCCFBA94D8011B966D907C9055
:103B6000C3010E94841CA82E4B01672B21F494E012
:103B7000C92ED12CCCCFF70161816F3F91F0C301E9
:103B800045960E94A90DDC011596AC92F701A18221
:103B90004B2DB401C8010E94211D009739F06C0122
:103BA000B6CFD7018C9311968C93F2CFC8010E94A7
:103BB000190E0097A1F76DE5C8010E94E50D81116E
:103BC000A6CF6CE2C8010E94E50D8111C5CF83E04C
:103BD000C82ED12C9CCF80E2F7018483E114F1043C
:103BE00019F08FEF80838183BB2009F48DCFD8013A
:103BF0001A961C92C8010E94190E009781F66DE773
:103C0000C8010E94E50D811182CFBA94F801158296
:103C1000148282819381892B49F4808191810E9451
:103C20000106D80113969C938E931297C8010E94A7
:103C3000D50D8732F9F08232E9F0C8010E94D50D26
:103C4000D82E0E94C30D882311F2F80112866D2D23
:103C5000C8010E94BD10C8010E94D50DD82E0E9437
:103C6000C30D8111F2CFD80112968D919C91892BB1
:103C700041F47DCFC8010E94EB106C01892B09F043
:103C800046CFC8010E94190E6C01892B09F03FCF65
:103C90006AE3C8010E94E50D882309F498CFD80192
:103CA0001296ED91FC91139714968D919C91159716
:103CB000E80FF91F148214966D917C9115977F7708
:103CC0001B966D907C901C9712968D919C910496FA
:103CD000272F2F77BA2DB078AB2EA22AE894A7F819
:103CE0009301AC017A2DC7010E940D196C01009758
:103CF00061F5C3010E94841C482E4B01672B09F417
:103D000036CFC3010E94841C582E962FC92ED72E61
:103D1000C114D10409F42BCFF4015582D7011196B7
:103D20006C916F3F71F0C30145960E94A90DFC0193
:103D30004582D70111965C92B401C8010E94CA1154
:103D400007C0F70140825182F7CFB3010E9467128A
:103D50004B2DB601C8010E94211D6C01892B09F071
:103D6000D6CEC8010E94190E6C01892B09F0CFCE66
:103D70006DE7C8010E94E50D8111C9CE6CE2C80152
:103D80000E94E50D882309F422CFC8010E94190E74
:103D90006C01892B09F43ACFBACE86E0D70114968C
:103DA0008C93149781E08C936DEB71E0C8010F90B8
:103DB0000F900F900F900F90DF91CF911F910F9167
:103DC000FF90EF90DF90CF90BF90AF909F908F903B
:103DD0007F906F905F904F900C94F60D86E0F70106
:103DE0008483108262EC71E0E1CFC8010E94D50D9E
:103DF0004801FDE08F0E911CB12C782CA92C80334A
:103E000084F08A3384F43FE3B316A9F0D8011A96FC
:103E10001C92B394F40181934F01C8010E94D50D07
:103E2000EECF8B3281F393ED980F923060F3982FA1
:103E30009F7D953441F30B0D111DD8011D961C92E9
:103E4000872D9A2D0E94160F3A834B835C836D83D6
:103E50008A819B81AC81BD812230A9F0233059F049
:103E6000213009F0B4CE2EE0F701248380839183C2
:103E7000A283B3834CCE2AE0F7012483808391830D
:103E8000A283B38344CE2CE0F7CF4F925F926F9220
:103E90007F928F929F92AF92BF92CF92DF92EF92DA
:103EA000FF920F931F93CF93DF93CDB7DEB7CF5F12
:103EB000D1090FB6F894DEBF0FBECDBF6E012EEC58
:103EC000C20ED11C85E091E0F601918380831282BD
:103ED00014821382C6010596968B858B178A84E01F
:103EE000808F8FEF818F168E878F9E012F5F3F4FC0
:103EF000790110E000E00E94C007609366027093B1
:103F0000670280936802909369028EE592E00E94B6
:103F1000BA0A97FD02C00C94E52C0E94C00780905D
:103F2000660290906702A0906802B09069026819DA
:103F300079098A099B098090620290906302A0909F
:103F40006402B0906502681579058A059B05E8F260
:103F50000F37110561F48EE592E00E94DC0A892B8F
:103F600031F08EE592E00E94BA0A0A97A1F7E1E0EB
:103F7000F0E0EC0FFD1FE00FF11F1082053011057E
:103F800078F045E050E06DEC71E0CE0101960E94C2
:103F9000E03B892B29F487E897E00E947113F8C56C
:103FA000F60160817181C60105960E94670EF601D7
:103FB000128200811181F60183819481009751F072
:103FC000FC0120813181F60134832383B8010E94F2
:103FD0005D12F1CF168ECF57DF4FD982C882C158FC
:103FE000D040CD57DF4F19821882C358D040CB57ED
:103FF000DF4F19821882C558D040C957DF4F188249
:10400000C758D04021E030E02C0F3D1FC857DF4F8C
:1040100039832883C858D040C557DF4F1882CB5802
:10402000D040C457DF4FD982C882CC58D0404AE034
:10403000B601665E7F4FCE018F579F4F0E94211DB4
:104040008C01892B69F4C657DF4F8881CA58D0404C
:10405000882331F0F601868D83FF02C003E010E073
:10406000CD57DF4F88819981C358D040009751F0D8
:10407000CF57DF4FE881F981C158D040608171810D
:104080000E945D1201151105F1F080E195E00E949A
:104090006B0BF801EE0FFF1FEC51FC4F85919491D3
:1040A0000E946B0B8DE095E00E9471138EE592E00B
:1040B0000E94DC0A181619060CF06AC58EE592E01B
:1040C0000E94BA0AF3CFCF57DF4FD982C882C158B6
:1040D000D04083ED91E0CD57DF4F99838883C3585B
:1040E000D04083E0CB57DF4F8883C558D040CA57B4
:1040F000DF4F1881C658D04010781068CA57DF4F7C
:104100001883C658D040CE018F579F4F0E949219F6
:10411000009709F43DC5FC018481882309F438C562
:104120001068CA57DF4F1883C658D040CE018F574A
:104130009F4F0E949D1A8C01893DF1E09F0709F471
:1041400084C00CF031C1883731E0930709F4CDC643
:104150000CF080C08733914009F4A8C5083381E092
:104160001807ECF50D3291E0190709F4BEC444F5C7
:1041700060E00C32F1E01F0709F4B8C4013AF2E044
:104180001F0709F4D6C70CF084C30936110511F4D2
:104190000C94CA2B0CF0C5C20636110511F40C9410
:1041A000662B0CF04DC20436110511F40C94D92A7B
:1041B0000536110511F40C94352980EF93E0EDCE0E
:1041C0000F3221E0120709F44DC560E0063331E0FB
:1041D0001307A1F680911501909116018BC4033746
:1041E00041E0140709F489C434F5093381E0180764
:1041F00029F600911501109116010E94C007F801DF
:10420000618B728B838B948B85849684A784B08812
:10421000DC01CB01880D991DAA1DBB1D858B968BDA
:10422000A78BB08F81E080A34DE853E063E973E092
:1042300088E993E038C5043791E0190709F4C3C44D
:104240000537E1E01E0709F099CF083D114009F458
:104250007DC09EC48139F1E09F0709F447C5CCF5C4
:104260008E3731E0930709F423C51CF58D37914053
:1042700009F084CFEE24EA94FE2C00E010E021E067
:1042800030E040E050E067ED71E0C6010E94401A66
:104290009B01AC01E0911501F09116012187328755
:1042A000438754876BEA73E085EB93E00E947217B3
:1042B0006FC4023881E0180709F42CC660E00039A9
:1042C00091E0190709F05ACF8091170190911801D8
:1042D00011C48B39E1E09E0709F42CC57CF48339C5
:1042E00021E0920709F404C560E08A39914009F0A1
:1042F00045CF8091190190911A01FCC38D3941E09D
:10430000940709F439C5883D914009F037CF10EC86
:10431000E12E17E2F12E09E010E021E030E040E06C
:1043200050E061EE71E0C6010E94401A9B01AC01B1
:10433000E0911701F0911801218732874387548754
:104340006FE773E088E893E00E947217CF57DF4F62
:10435000D982C882C158D04081EE91E0CD57DF4F5D
:1043600099838883C358D04088E0CB57DF4F888338
:10437000C558D040CA57DF4F8881C658D040807892
:104380008068CA57DF4F8883C658D040CE018F5708
:104390009F4F0E94BC1960932C0170932D01809354
:1043A0002E0190932F015BC40F3982E0180709F4A6
:1043B00019C50CF088C0053FE1E01E0709F4FEC4F2
:1043C00074F5023E21E0120709F4B6C4C4F40C3DB2
:1043D00041E0140709F0D2CE15E3E12EF12C00E004
:1043E00010E022E030E040E050E06AEE71E0C6010B
:1043F0000E94401A809117019091180188C5063ECD
:1044000051E0150709F499C560E0043F81E0180701
:1044100009F0B4CE80911B0190911C016BC308354B
:1044200092E0190709F4D5C4C4F40034F2E01F0780
:1044300009F0A4CE15E3E12EF12C00E010E022E01B
:1044400030E040E050E06AEE71E0C6010E94401AA0
:1044500080911B0190911C015AC5093522E0120779
:1044600009F4AEC40B3532E0130709F087CE009192
:104470001D0110911E010115110509F489C30E9447
:10448000C007AB01BC01F801458B568B678B708F61
:1044900085859685A785B089840F951FA61FB71FB0
:1044A000818F928FA38FB48FFF24F394F6A2C8015B
:1044B0000E94640CF801F0A64EE353E064E473E05C
:1044C00089E493E0F0C3043843E0140709F40BC512
:1044D0000CF075C0043A82E0180709F441C50CF0ED
:1044E00054C0003AE2E01E0709F048CE10ECE12E7D
:1044F00017E2F12E09E010E021E030E040E050E06A
:1045000061EE71E0C6010E94401A9B01AC01E0918E
:104510001D01F0911E01309751F02587368747879E
:10452000508B6FE173E088E293E00E947217CF57DF
:10453000DF4FD982C882C158D04081EE91E0CD577B
:10454000DF4F99838883C358D04088E0CB57DF4F33
:104550008883C558D040CA57DF4F8881C658D0409D
:1045600080788068CA57DF4F8883C658D040CE0114
:104570008F579F4F0E94BC196093280170932901A7
:1045800080932A0190932B016AC3093AF2E01F0736
:1045900009F48FC40A3A22E0120709F0EFCDE09146
:1045A0001D01F0911E01309709F4F2C281E085A34C
:1045B00042EF52E06EEF72E083E093E074C3003D9F
:1045C00033E0130709F4E6C4BCF4053853E01507DB
:1045D00009F481C4073883E0180709F0CFCD809132
:1045E0001F01909120010E94520C4CED52E062EEAE
:1045F00072E087EE92E057C3043394E0190709F4A0
:10460000FFC40036E5E01E0709F0B8CD8091110126
:1046100090911201892B09F4BBC215E3E12EF12C14
:1046200000E010E022E030E040E050E06AEE71E0AF
:10463000C6010E94401A8091110190911201F9C4A3
:104640000736110511F40C94722B0836110509F088
:10465000B4CDC251DF4F1882CE5ED040CF57DF4F6E
:10466000D982C882C158D04083E092E0CD57DF4F55
:1046700099838883C358D04086E0CB57DF4F888327
:10468000C558D040CA57DF4F8881C658D04080787F
:104690008068CA57DF4F8883C658D040BE01625138
:1046A0007F4FCE018F579F4F0E94AB19182F0E944A
:1046B000C0072091DB0421110C94C62B1093DC045D
:1046C000112311F40C94902B6093D3047093D404B1
:1046D0008093D5049093D6040E94A10681E193E0D3
:1046E0000E94F80B8FE293E00E94F80BE091FF022A
:1046F000F0910003309721F0118A128A138A148AEC
:10470000E0910103F0910203309721F0118A128A9F
:10471000138A148A4091DC046DE474E087E594E028
:10472000E9C00A3731E0130709F461C00CF052C048
:104730000B3C110509F461C50D3D110509F03DCD96
:10474000C251DF4F1882CE5ED040CF57DF4FD982A3
:10475000C882C158D04084EF91E0CD57DF4F998394
:104760008883C358D04085E0CB57DF4F8883C55836
:10477000D040CA57DF4F8881C658D04080788068C3
:10478000CA57DF4F8883C658D040BE0162517F4F61
:10479000CE018F579F4F0E94AB19182F82E695E0EC
:1047A000112311F08CE495E09093090180930801A6
:1047B00085E0111186E080930E010E94AC0E4BE95A
:1047C00054E0112311F040EA54E066EA74E082EB11
:1047D00094E069C20E3D51E0150749F0083E81E0C2
:1047E000180729F0043891E0190709F0E6CCC25106
:1047F000DF4F19821882CE5ED040CF57DF4FD9826B
:10480000C882C158D04081E192E0CD57DF4F9983F3
:104810008883C358D04086E0CB57DF4F8883C55884
:10482000D040CA57DF4F8881C658D0408078806812
:10483000CA57DF4F8883C658D040BE0162517F4FB0
:10484000CE018F579F4F0E943E1B4C01B12C8130EF
:10485000910531F0BB24B394029711F029E0B22EF8
:104860000A3751E0150711F00C94C22CB0920201E6
:104870000E94AC0EE1E0BE120C94D32CB092CA059B
:104880009401990C440B550B6BE174E088E294E0C1
:104890000DCD0C34E4E01E0711F40C94DF2C6CF504
:1048A000093E23E0120709F485C46CF40C3A42E097
:1048B000140709F47BC460E0083E134009F07DCC86
:1048C00080EE95E017C1083384E0180709F474C43A
:1048D0000933144009F071CC81E08093F00580EE3B
:1048E00095E0909304018093030141E069EF74E047
:1048F00084E095E00E9449174BC10431E5E01E07B2
:1049000009F462C40CF0DFC00D3424E0120711F486
:104910000C94DB2C0839144009F04FCC8BE0A82E06
:10492000B12CC650DF4FB982A882CA5FD040CF57A2
:10493000DF4FD982C882C158D0409AEEE92E91E06B
:10494000F92ECD57DF4FF982E882C358D04013E0EB
:10495000CB57DF4F1883C558D040CA57DF4F8881E7
:10496000C658D04080788068CA57DF4F8883C658C1
:10497000D040BE0166507F4FCE018F579F4F0E949F
:104980003E1B089714F40C94E12CC450DF4FB982FD
:10499000A882CC5FD040C251DF4FD982C882CE5EA0
:1049A000D040C051DF4FF982E882C05FD040CE5086
:1049B000DF4F1883C25FD040CD50DF4F8881C35F87
:1049C000D04080788068CD50DF4F8883C35FD0406F
:1049D000BE0164507F4FCE0182519F4F0E943E1B0B
:1049E0000E9714F00C94E32C8BE090E0C250DF4F54
:1049F00099838883CE5FD040CC50DF4FD982C88264
:104A0000C45FD040CA50DF4FF982E882C65FD04011
:104A100083E0C850DF4F8883C85FD040C750DF4F66
:104A20008881C95FD04080788068C750DF4F888315
:104A3000C95FD040BE0162507F4FCE018C509F4F66
:104A40000E943E1B40916B009091E504985021E03C
:104A500030E001C0220F9A95EAF720952423209395
:104A60006B0090916B00911105C0909168009E7F42
:104A7000909368008093E50462E00E942A07809189
:104A8000E5040E94D30621E0019709F020E020937D
:104A9000F0048091680081608093680080916B00D1
:104AA0009091E504985021E030E001C0220F9A95E2
:104AB000EAF7822B80936B008CE191E00E946B0BF4
:104AC0008091E50495C2043645E0140709F48DC3CE
:104AD000053655E0150709F479C30531154009F08D
:104AE0006CCB61E08AEB95E005C061E08091130139
:104AF000909114010E9448184BC0EE24EA94FE2CB9
:104B000000E010E021E030E040E050E067ED71E0CF
:104B1000C6010E94401A9B01AC01E0911301F09183
:104B20001401218732874387548766ED73E080EE56
:104B300093E00E947217CF57DF4FD982C882C158C5
:104B4000D04087ED91E0CD57DF4F99838883C358DC
:104B5000D04089E0CB57DF4F8883C558D040CA5733
:104B6000DF4F8881C658D04080788068CA57DF4FB1
:104B70008883C658D040CE018F579F4F0E94BC19E2
:104B8000609330017093310180933201909333012F
:104B9000C6010E94CF12C150DF4F0FB6F894DEBF9E
:104BA0000FBECDBFDF91CF911F910F91FF90EF907E
:104BB000DF90CF90BF90AF909F908F907F906F903D
:104BC0005F904F90089510ECE12E17E2F12E09E06E
:104BD00010E021E030E040E050E061EE71E0C6011D
:104BE0000E94401A9B01AC01E0911301F091140165
:104BF000258736874787508B69EC73E082ED93E019
:104C00000E947217CF57DF4FD982C882C158D04057
:104C100081EE91E0CD57DF4F99838883C358D04010
:104C200088E0CB57DF4F8883C558D040CA57DF4F45
:104C30008881C658D04080788068CA57DF4F888303
:104C4000C658D040CE018F579F4F0E94BC19609329
:104C500034017093350180933601909337010E949F
:104C6000AC0E96CF00911301109114010E94C00761
:104C7000F801618B728B838B948B85849684A784D7
:104C8000B088DC01CB01880D991DAA1DBB1D858B49
:104C9000968BA78BB08F81E080A34AEB53E060EC4A
:104CA00073E085EC93E00E94C41372CF61E092CA76
:104CB00010ECE12E17E2F12E09E010E021E030E0E7
:104CC00040E050E061EE71E0C6010E94401A9B0195
:104CD000AC01E0911501F0911601258736874787D1
:104CE000508B6DE973E086EA93E0E0CA61E0ECCABC
:104CF00000911701109118010E94C007F801658703
:104D000076878787908B81849284A384B484DC0126
:104D1000CB01880D991DAA1DBB1D818B928BA38B86
:104D2000B48B81E0858B4FE653E065E773E08AE75B
:104D300093E0B9CF61E0DDCA10ECE12E17E2F12E6D
:104D400009E010E021E030E040E050E061EE71E089
:104D5000C6010E94401A9B01AC01E0911901F0913B
:104D60001A01218732874387548760E673E089E61A
:104D700093E00E94721773CF0091190110911A01EC
:104D80000E94C007F801658776878787908B8184AA
:104D90009284A384B484DC01CB01880D991DAA1DE3
:104DA000BB1D818B928BA38BB48B81E0858B4FE4F1
:104DB00053E065E573E08AE593E075CF61E02ACBC7
:104DC00080911D0190911E0161E0009709F092CE43
:104DD000DFCE80911D0190911E0160E0009709F0E7
:104DE00089CED6CEEE24EA94FE2C00E010E021E03D
:104DF00030E040E050E067ED71E0C6010E94401AEB
:104E00009B01AC01E0911D01F0911E01309779F0FA
:104E1000211531054105510521F02187328743874E
:104E200054876EE273E088E393E00E947217CF57D5
:104E3000DF4FD982C882C158D04087ED91E0CD576D
:104E4000DF4F99838883C358D04089E0CB57DF4F29
:104E50008883C558D040CA57DF4F8881C658D04094
:104E600080788068CA57DF4F8883C658D040CE010B
:104E70008F579F4F0E949219DC01009709F4EBC0F5
:104E80001496EC911497E250ED3008F0E4C0F0E095
:104E9000E45BF84D0C94F8393B282B283928652819
:104EA0001C282B282B282B2820282B282D282B2882
:104EB0006928E0911D01F0911E01309749F015A27B
:104EC00049E053E064E173E089E193E00E94C41398
:104ED00010923E02C4CE61E080911F0190912001AA
:104EE0000E949F1355CE60E0F7CF15E3E12EF12C21
:104EF00000E010E022E030E040E050E06AEE71E0D7
:104F0000C6010E94401A80911301909114010E94E1
:104F1000B3183ECE15E3E12EF12C00E010E022E0C4
:104F200030E040E050E06AEE71E0C6010E94401AB5
:104F30008091150190911601EACF15E3E12EF12C35
:104F400000E010E022E030E040E050E06AEE71E086
:104F5000C6010E94401A8091190190911A01D7CF81
:104F600080911D0190911E01892B09F411CE15E34A
:104F7000E12EF12C00E010E022E030E040E050E0D3
:104F80006AEE71E0C6010E94401A80911D01909165
:104F90001E01BDCF15E3E12EF12C00E010E022E070
:104FA00030E040E050E06AEE71E0C6010E94401A35
:104FB000F62E00911F0110912001F80184858823AD
:104FC00031F060E080810E94FC06F8011486F8014F
:104FD000F08261E08F2D0E942A0760E0F801808155
:104FE0000E94FC0688E992E00E946B0BF801808128
:104FF000082E000C990B0E9441130E94EC13C8CD9F
:1050000080910F0190911001892B09F4C1CD15E316
:10501000E12EF12C00E010E022E030E040E050E032
:105020006AEE71E0C6010E94401A80910F019091D2
:1050300010010E94E918ACCD8C9080922701A8CD78
:105040008D909D90AD90BC902FEF82169104A1049D
:10505000B10499F390F3812CF0CF8D909D90AD9099
:10506000BC903FEF83169104A104B10431F328F3FF
:10507000F2CF8D919C910E94160FC251DF4F288371
:10508000CE5ED040C151DF4F3883CF5ED040C0519B
:10509000DF4F4883C05FD040CF50DF4F5883C15FA0
:1050A000D040CE50DF4F6883C25FD040C151DF4F48
:1050B00088809980AA80BB80CF5ED040223039F1B1
:1050C000233071F1213039F608C08D919C910496FE
:1050D000D2CF8D909D90AD90BC9020E030E0A901A2
:1050E000C501B4010E94F33987FDB5CF20E030E05F
:1050F0004FE753E4C501B4010E94203718160CF4A1
:10510000AACFC501B4010E94C439862E96CF4FEFB5
:1051100084169104A104B10409F008F48ECF9BCF4A
:105120005FEF85169104A104B10409F008F485CF5E
:1051300092CFCF57DF4FD982C882C158D0408EEE70
:1051400091E0CD57DF4F99838883C358D04085E0E5
:10515000CB57DF4F8883C558D040CA57DF4F88816F
:10516000C658D04080788068CA57DF4F8883C658B9
:10517000D040CE018F579F4F0E94BC196136EAEE96
:105180007E078105910520F060E67AEE80E090E0F0
:10519000609318057093190580931A0590931B0569
:1051A00080913E02882309F4F3CC59CD81E08093AD
:1051B0003E0255CD61E084CB1092F00540E065EEF3
:1051C00074E080EF94E096CB60E08CCC81E080933B
:1051D000CA058AEB95E0909304018093030141E0B6
:1051E00061ED74E08CED94E085CB1092CA0540E04F
:1051F0006DEB74E088EC94E07DCBCF57DF4FD98224
:10520000C882C158D0408AEF91E0CD57DF4F9983D3
:105210008883C358D04088E0CB57DF4F8883C55878
:10522000D040CA57DF4F8881C658D0408078806808
:10523000CA57DF4F8883C658D040CE018F579F4F43
:105240000E94BC194B015C0180920A0190920B01F3
:10525000A0920C01B0920D010E94AC0EA501940128
:105260006EE774E080E994E021C80E94C0074B011A
:105270005C0180923A0290923B02A0923C02B09272
:105280003D0281EF94E00E94520C1092DC041092D7
:10529000DD048092D3049092D404A092D504B092FD
:1052A000D60481E08093DB0481E193E00E94F80B57
:1052B0008FE293E00E94F80B3BE3E32E33E0F32E02
:1052C0000FEF12E0F8018489882341F08289813050
:1052D00009F040C1858E968EA78EB0A2025E1F4F48
:1052E000E016F10679F7E2EEF3E01082709624E022
:1052F000E23EF207D1F7E091FF02F0910003309710
:1053000021F0118A128A138A148AE0910103F09124
:105310000203309721F0118A128A138A148AE091CD
:105320000D03F0910E033097A9F0158A168A178A9B
:10533000108E118E128E138E148E158E168E178E61
:1053400010A211A212A213A214A216A217A210A6B2
:1053500081E081A784E592E00E94711388E092E0E9
:105360000E946B0B8091030190910401805E954037
:1053700009F41CC18BE991E00E946B0B85E092E07F
:105380000E947113E0903401F090350100913601D4
:10539000109137012091300130913101409132015B
:1053A0005091330160919F0581E092E00E940417C3
:1053B000E0908505F090860500918705109188059D
:1053C000209181053091820540918305509184059B
:1053D00060917E058CEF91E00E94041720912C01D2
:1053E00030912D0140912E0150912F01609168055F
:1053F00087EF91E00E94D516209155053091560512
:1054000040915705509158056091520581EF91E008
:105410000E94D516E0902801F090290100912A0100
:1054200010912B012091270130E050E040E0609185
:105430000D058BEE91E00E9404176091370586EE12
:1054400091E00E94B8166091F4048BED91E00E9407
:10545000B8166091E70487ED91E00E94B81640917C
:10546000F0056091E6058EEC91E00E948C1640916B
:10547000CA056091C00585EC91E00E948C1681EA16
:1054800091E00E946B0B60910A0170910B01809179
:105490000C0190910D010E943E130E94EC1380912B
:1054A0003A0290913B02A0913C02B0913D02E09102
:1054B0000F01F091100180839183A283B383E09167
:1054C0001101F091120180839183A283B383E09153
:1054D0001301F091140180839183A283B383E0913F
:1054E0001501F091160180839183A283B383E0912B
:1054F0001701F091180180839183A283B383E09117
:105500001901F0911A0180839183A283B383E09102
:105510001B01F0911C0180839183A283B383E091EE
:105520001D01F0911E01309721F080839183A283A9
:10553000B383E0911F01F091200180879187A287BA
:10554000B3878093EC049093ED04A093EE04B093A2
:10555000EF041ECB823009F0C1CE41A452A463A453
:1055600074A460E070E0CB01141415041604170451
:1055700034F40E94C836A30192010E944438680D99
:10558000791D8A1D9B1DF80161A372A383A394A3B7
:1055900081A592A5A3A5B4A5880D991DAA1DBB1D23
:1055A00085A396A3A7A3B0A715A698CE8EE991E0F0
:1055B000E3CE809154028111EBCA0E94C0074B01D7
:1055C0005C018092500290925102A0925202B092DD
:1055D00053028091F4048823B9F08091020581116F
:1055E00013C081EF94E00E94520C809203059092C8
:1055F0000405A0920505B092060581E0809302059E
:10560000F8941092F3047894809050029090510294
:10561000A0905202B09053021092DB041092DD046D
:10562000E2EEF3E082EE94E0108270968E179F0710
:10563000D9F7E0910503F0910603309719F08481C2
:105640000E94EC07E0910703F0910803309719F0EE
:1056500084810E94EC07E0910903F0910A033097DE
:1056600021F060E084810E94FC06E0910B03F09140
:105670000C03309721F060E084810E94FC06E091E9
:105680000D03F0910E03309729F011A660E084819C
:105690000E94FC068BE591E00E946B0B80913A0220
:1056A00090913B02A0913C02B0913D02A501940172
:1056B000281B390B4A0B5B0BCA01B9010E943E1330
:1056C0000E94EC1381E08093540262CA8091DB0453
:1056D00081110C94CB1F0E94721880E00E947F13EE
:1056E0000C94CB1F0E94C0074B015C018091DB042E
:1056F00081110FC00E94A1068092D3049092D4041D
:10570000A092D504B092D604B501A40180E00E9415
:10571000A61542E654E068E674E083E794E0C3CA65
:105720000E94A106E0910503F0910603309719F05D
:1057300084810E94EC07E0910703F0910803309701
:1057400019F084810E94EC07E0910903F0910A03AB
:10575000309721F060E084810E94FC06E0910B0309
:10576000F0910C03309721F060E084810E94FC06E8
:10577000E0910D03F0910E03309721F060E08481F9
:105780000E94FC060E94AC0E0C948A2311110C940A
:105790008A23F8CFC251DF4F1882CE5ED040CF5758
:1057A000DF4FD982C882C158D0408AE092E0CD57FD
:1057B000DF4F99838883C358D04086E0CB57DF4FB3
:1057C0008883C558D040CA57DF4F8881C658D0401B
:1057D00080788068CA57DF4F8883C658D040BE01A2
:1057E00062517F4FCE018F579F4F0E94AB19182FE8
:1057F0000E94C0074B015C018091DB04882309F4FF
:10580000BDC01093DD04112309F43DC08092DE0475
:105810009092DF04A092E004B092E1040E94A106FD
:10582000E0910503F0910603309719F084810E94FE
:10583000EC07E0910703F0910803309719F0848199
:105840000E94EC078091F4048823B9F0809102054E
:10585000811113C081EF94E00E94520C80920305E5
:1058600090920405A0920505B092060581E0809310
:105870000205F8941092F3047894412F63E374E0E6
:1058800082E494E037C88091DE049091DF04A09117
:10589000E004B091E104B501A401481B590B6A0B67
:1058A0007B0BEFEFF2E02BE333E084898823A1F058
:1058B0008289813009F047C0858D968DA78DB0A172
:1058C0000097A105B10541F0840F951FA61FB71FD2
:1058D000858F968FA78FB0A37E962E173F0729F747
:1058E0008091F404882349F280910205882329F2EB
:1058F000F8946091F9047091FA048091FB049091FE
:10590000FC044090030550900405609005057090DC
:1059100006056419750986099709860E971EA81E43
:10592000B91E8092F9049092FA04A092FB04B092FE
:10593000FC041092F30478941092020581EF94E035
:105940000E94520C9ACF823039F681A192A1A3A174
:10595000B4A1840F951FA61FB71F81A392A3A3A371
:10596000B4A385A196A1A7A1B0A5840F951FA61FDA
:10597000B71F85A396A3A7A3B0A7AECF112309F4A1
:10598000AFCF60CF0E3D81E0180721F4B092010146
:105990000C943824083E114011F00C943824B09235
:1059A00000010C943824B1100C94402481E08093C1
:1059B000F0050C94402481E00E947F13E9C880E048
:1059C000FBCF88E03FC88DE03DC88A30910511F4D7
:1059D0000C94A81FF70181937F010F5F1F4F0F37B2
:1059E000110511F00C947B1F0C94A81FCB01BA0178
:1059F0000C94233BCB010C949A3ACB010C94FE39C6
:105A00001F920F920FB60F9211242F933F938F93F3
:105A10009F93AF93BF938091560290915702A091AC
:105A20005802B09159023091550223E0230F2D37CF
:105A300058F50196A11DB11D209355028093560281
:105A400090935702A0935802B093590280915A0242
:105A500090915B02A0915C02B0915D020196A11D44
:105A6000B11D80935A0290935B02A0935C02B093A5
:105A70005D02BF91AF919F918F913F912F910F90B8
:105A80000FBE0F901F90189526E8230F0296A11DB8
:105A9000B11DD2CF1F920F920FB60F9211242F93E8
:105AA0003F934F935F936F937F938F939F93AF93A6
:105AB000BF93EF93FF93E0912501F09126010995A3
:105AC000FF91EF91BF91AF919F918F917F916F91D6
:105AD0005F914F913F912F910F900FBE0F901F90AC
