:100000000C94FB060C94172F0C94F02E0C942307E1
:100010000C9423070C9423070C9423070C943E2F75
:100020000C9423070C9423070C9423070C942307A8
:100030000C9423070C9423070C9423070C94230798
:100040000C94A62E0C9423070C94C02F0C949A2F7A
:100050000C9423070C9423070C9423070C94230778
:100060000C9423070C942307546F6F44656570004C
:100070004E6F4D656D6F727900496E76616C696483
:10008000496E70757400496E636F6D706C65746550
:10009000496E70757400456D707479496E70757431
:1000A000004F6B00CDCCCC3D0AD7233C17B7D138DD
:1000B00077CC2B329595E6241FB14F0A00002041E2
:1000C0000000C84200401C4620BCBE4CCA1B0E5A51
:1000D000AEC59D747B226C6576656C223A22303009
:1000E00037222C22646576696365223A22434F4E9B
:1000F00054524F4C4C4552222C226576656E742228
:100100003A22454E44222C2274696D657374616DE8
:1001100070223A0066616C73650074727565004CFC
:10012000455645525F4C48004C455645525F524833
:10013000004D4943524F53434F5045004C49434BA8
:10014000004C415345520050554D50320050554DD2
:1001500050004355453200435545002C22697469CF
:100160005F6D6178223A002C226974695F6D696E57
:10017000223A002C226974695F6D65616E223A0033
:100180002C22636F6E73756D7074696F6E5F6D7323
:10019000223A002C2274726163655F696E74657225
:1001A00076616C223A002C226375655F647572611A
:1001B00074696F6E223A002C2263735F6D696E75ED
:1001C000735F66726571223A007B226C6576656C9E
:1001D000223A22303030222C2263735F706C7573A8
:1001E0005F66726571223A002C22636F756E7465CA
:1001F0007262616C616E6365223A002C2263735FE8
:100200006D696E75735F70726F62223A002C2263A3
:10021000735F706C75735F70726F62223A002C228C
:1002200063735F6D696E75735F636F756E74223A89
:10023000007B226C6576656C223A22303030222CAD
:1002400022646576696365223A22434F4E54524FC9
:100250004C4C4552222C22706172616469676D2298
:100260003A225041564C4F5649414E222C2263733C
:100270005F706C75735F636F756E74223A007B22DA
:100280006C6576656C223A22303037222C22646508
:1002900076696365223A22434F4E54524F4C4C4587
:1002A00052222C226576656E74223A2253544152B2
:1002B00054222C2274696D657374616D70223A301A
:1002C0007D007B226C6576656C223A2230303022CC
:1002D0002C22646576696365223A224D4943524F68
:1002E00053434F5045222C22706172616D223A2295
:1002F000747269676765725F70696E222C2276611D
:100300006C7565223A004649524544007465737421
:10031000004D4943524F53434F504500494E4445C9
:1003200050454E44454E54006D6F6465004C41533A
:10033000455200434F4E54494E47454E54006D6F51
:100340006465004C41534552006475726174696F75
:100350006E004C41534552006672657175656E635F
:1003600079004C415345520046495245440074655A
:100370007374004C41534552004649524544007441
:100380006573740050554D50320064757261746924
:100390006F6E0050554D503200464952454400742E
:1003A0006573740050554D50006475726174696FC7
:1003B0006E0050554D5000464952454400746573D7
:1003C000740043554532006475726174696F6E0044
:1003D00043554532006672657175656E63790043F9
:1003E00055453200464952454400746573740043D4
:1003F0005545006475726174696F6E004355450020
:100400006672657175656E63790043554500A1009C
:10041000960086007900700068007B226C65766526
:100420006C223A22303036222C2264657363223AE1
:1004300022436F6D6D616E64206E6F7420666F7500
:100440006E64227D0073657373696F6E5F70617592
:1004500073656400434F4E54524F4C4C4552004319
:100460005545006C617365725F7068617365004C1F
:100470004153455200524557415244006C617365E7
:10048000725F7068617365004C415345520043537D
:100490005F424F544800747269616C5F66696C74A6
:1004A0006572004C415345520043535F4D494E55D0
:1004B0005300747269616C5F66696C746572004C9C
:1004C000415345520043535F504C55530074726979
:1004D000616C5F66696C746572004C4153455200F3
:1004E00070756C73655F6F666600435545320070CA
:1004F000756C73655F6F6E004355453200697469B2
:100500005F6D617800434F4E54524F4C4C45520042
:100510006974695F6D696E00434F4E54524F4C4C85
:100520004552006974695F6D65616E00434F4E54BA
:10053000524F4C4C455200636F6E73756D70746909
:100540006F6E00434F4E54524F4C4C4552007472E4
:100550006163655F696E74657276616C00434F4ECE
:1005600054524F4C4C4552006375655F647572611F
:1005700074696F6E00434F4E54524F4C4C455200BD
:10058000636F756E74657262616C616E6365004362
:100590004F4E54524F4C4C4552007B226C65766551
:1005A0006C223A22303036222C22646576696365EB
:1005B000223A22434F4E54524F4C4C4552222C2249
:1005C00064657363223A2243616E6E6F74206368C0
:1005D000616E676520636F756E74657262616C61D0
:1005E0006E636520647572696E67206163746976F5
:1005F000652073657373696F6E227D0063735F6D31
:10060000696E75735F6672657100434F4E54524F49
:100610004C4C45520063735F706C75735F66726516
:100620007100434F4E54524F4C4C45520063735F20
:100630006D696E75735F636F756E7400434F4E54D2
:10064000524F4C4C4552007B226C6576656C223AC9
:1006500022303036222C22646576696365223A2284
:10066000434F4E54524F4C4C4552222C22646573DA
:1006700063223A2243616E6E6F74206368616E6715
:10068000652043532D20636F756E74206475726905
:100690006E67206163746976652073657373696F33
:1006A0006E227D0063735F706C75735F636F756E30
:1006B0007400434F4E54524F4C4C4552007B226CB9
:1006C0006576656C223A22303036222C22646576BB
:1006D000696365223A22434F4E54524F4C4C455267
:1006E000222C2264657363223A2243616E6E6F741A
:1006F000206368616E67652043532B20636F756EBE
:100700007420647572696E67206163746976652010
:1007100073657373696F6E227D0063735F6D696EBD
:1007200075735F70726F6200434F4E54524F4C4C62
:1007300045520063735F706C75735F70726F620017
:10074000434F4E54524F4C4C455200227D007B2269
:100750006C6576656C223A22303036222C22646534
:100760007363223A220044495341524D45440041AB
:10077000524D454400227D002C2264657363223A69
:100780002200222C2270696E223A007B226C657650
:10079000656C223A22303031222C226465766963FE
:1007A00065223A2200222C22706172616D223A2267
:1007B00070696E222C2276616C7565223A007B226C
:1007C0006C6576656C223A22303030222C226465CA
:1007D00076696365223A2200222C2276616C756567
:1007E000223A00222C22706172616D223A22007B33
:1007F000226C6576656C223A22303030222C2264DD
:100800006576696365223A220066616C73650074DF
:1008100072756500222C2276616C7565223A002281
:100820002C22706172616D223A22007B226C657607
:10083000656C223A22303030222C2264657669635E
:1008400065223A2200227D00222C2276616C756599
:10085000223A2200222C22706172616D223A22001B
:100860007B226C6576656C223A22303030222C2255
:10087000646576696365223A220044495341524DCA
:1008800045440041524D454400227D002C226465C0
:100890007363223A22007B226C6576656C223A22D1
:1008A000303031222C22646576696365223A224D0C
:1008B0004943524F53434F5045222C2270696E22B8
:1008C0003A0066616C73650074727565002C226471
:1008D00075726174696F6E223A002C2266726571BE
:1008E00075656E6379223A00222C2261726D65640F
:1008F000223A007B226C6576656C223A22303030D9
:10090000222C22646576696365223A220066616C56
:1009100073650074727565002C2264757261746968
:100920006F6E223A00222C2261726D6564223A00B9
:100930007B226C6576656C223A22303030222C2284
:10094000646576696365223A220066616C736500AE
:100950007472756500222C2261726D6564223A0002
:100960007B226C6576656C223A22303030222C2254
:10097000646576696365223A220066616C7365007E
:10098000747275650066616C7365007472756500DC
:100990002C227265696E666F72636564223A00226A
:1009A0002C2261726D6564223A007B226C6576654B
:1009B0006C223A22303030222C22646576696365DD
:1009C000223A2200027B226C6576656C223A223044
:1009D0003030222C22646576696365223A22434FC7
:1009E0004E54524F4C4C4552222C22736B6574630B
:1009F00068223A227061766C6F7669616E2E696E3C
:100A00006F222C2276657273696F6E223A227632DB
:100A10002E302E30222C22626175645F7261746503
:100A2000223A3131353230302C2273636865647577
:100A30006C65223A225041564C4F5649414E227D18
:100A4000002C22656E645F74696D657374616D70EE
:100A5000223A002C226576656E74223A224C494374
:100A60004B222C2273746172745F74696D657374A8
:100A7000616D70223A00222C2270696E223A007B4E
:100A8000226C6576656C223A22303037222C226443
:100A90006576696365223A22002C22656E645F7474
:100AA000696D657374616D70223A002C22657665FC
:100AB0006E74223A225354494D222C22737461726F
:100AC000745F74696D657374616D70223A007B2286
:100AD0006C6576656C223A22303037222C226465B0
:100AE00076696365223A224C41534552222C22708A
:100AF000696E223A0066616C7365007472756500F8
:100B00002C2274696D657374616D70223A002C2219
:100B10006974695F6D73223A0043535F504C5553BB
:100B20000043535F4D494E555300222C2272657786
:100B30006172645F7363686564756C6564223A0012
:100B40002C22747269616C5F74797065223A22009C
:100B50007B226C6576656C223A22303037222C225B
:100B6000646576696365223A225041564C4F56229D
:100B70002C226576656E74223A22545249414C5FAC
:100B80005354415254222C22747269616C223A00EF
:100B9000414C4C5F545249414C535F434F4D504C74
:100BA000455445005245574152445F4F4D495454B6
:100BB0004544005245574152445F44454C495645CF
:100BC0005245440054524143455F535441525400EE
:100BD0002C226576656E74223A2254494D45535451
:100BE000414D50222C2274696D657374616D7022C1
:100BF0003A007B226C6576656C223A2230303822CE
:100C00002C22646576696365223A224D4943524F2E
:100C100053434F5045222C2270696E223A00000047
:100C20000000240027002A00000000002500280002
:100C30002B00000000002300260029000404040407
:100C40000404040402020202020203030303030376
:100C50000102040810204080010204081020010253
:100C6000040810200000000800020100000304072F
:100C70000000000000000000227D002C2274696D3D
:100C8000657374616D70223A00222C22747269615E
:100C90006C223A007B226C6576656C223A223030F9
:100CA00037222C22646576696365223A22504156C8
:100CB0004C4F56222C226576656E74223A220053E0
:100CC00054494D554C4154494F4E00494E46555399
:100CD000494F4E00494E465553494F4E00544F4ED2
:100CE0004500544F4E45004C415345520050554D20
:100CF000505F320050554D50004355455F32004320
:100D00005545002C22656E645F74696D657374616E
:100D10006D70223A00222C2273746172745F7469C0
:100D20006D657374616D70223A002C226576656E74
:100D300074223A2200222C2270696E223A007B2211
:100D40006C6576656C223A22303037222C2264653D
:100D500076696365223A220054494D454F55540047
:100D6000494E414354495645004143544956450074
:100D7000227D002C226F7269656E746174696F6EDA
:100D8000223A22002C22656E645F74696D6573746B
:100D9000616D70223A00222C2273746172745F7448
:100DA000696D657374616D70223A002C22657665F9
:100DB0006E74223A225052455353222C22636C61A6
:100DC0007373223A22007B226C6576656C223A228C
:100DD000303037222C22646576696365223A2253CB
:100DE00057495443485F4C45564552222C2270695E
:100DF0006E223A004B3011241FBECFEFD8E0DEBF89
:100E0000CDBF12E0A0E0B1E0E4E9FCE702C005904C
:100E10000D92A633B107D9F724E0A6E3B2E001C0F2
:100E20001D92A136B207E1F716E0CBEFD6E004C081
:100E30002197FE010E943B3CCA3FD107C9F70E949F
:100E400088330C94483E0C9400009091320389172B
:100E500098F4E82FE695E695E695F0E0E45CFC4F23
:100E6000208130E08770A90102C0559547958A9589
:100E7000E2F7CA018170089580E00895CF93DF936F
:100E8000EC0188819981DC01ED91FC910190F08168
:100E9000E02D64E270E00995009741F02FE1FC013C
:100EA000238321E02283DF91CF91089521E02A83DB
:100EB000FACF833081F028F4813099F08230A9F0A4
:100EC00008958730A9F08830C9F08430B1F480915A
:100ED00080008F7D03C0809180008F778093800099
:100EE000089584B58F7784BD089584B58F7DFBCF39
:100EF0008091B0008F778093B00008958091B0000A
:100F00008F7DF9CFCF93DF93282F30E0F901EC5993
:100F1000F34F8491F901E05BF34FD491F901E45C64
:100F2000F34FC491CC23A1F081110E945907EC2FFB
:100F3000F0E0EE0FFF1FEE5CF34FA591B491EC9142
:100F4000ED2381E090E009F480E0DF91CF910895F6
:100F500080E090E0FACF1F93CF93DF93282F30E00B
:100F6000F901EC59F34F8491F901E05BF34FD4910F
:100F7000F901E45CF34FC491CC23A9F0162F811141
:100F80000E945907EC2FF0E0EE0FFF1FE85DF34FD2
:100F9000A591B4918FB7F894EC91111108C0D09538
:100FA000DE23DC938FBFDF91CF911F910895DE2B5D
:100FB000F8CFCF93DF9390E0FC01E05BF34F2491F7
:100FC000845C934FFC0184918823C9F090E0880FE2
:100FD000991FFC01E25EF34FA591B491FC01E85D1D
:100FE000F34FC591D49161110DC09FB7F8948C91C6
:100FF000209582238C938881282328839FBFDF91AB
:10100000CF910895623051F49FB7F8943C91822FAC
:10101000809583238C93E8812E2BEFCF8FB7F894A4
:10102000EC912E2B2C938FBFEACF3FB7F894809191
:10103000560290915702A0915802B091590226B5DC
:10104000A89B05C02F3F19F00196A11DB11D3FBF00
:10105000BA2FA92F982F8827BC01CD01620F711DCF
:10106000811D911D42E0660F771F881F991F4A95C9
:10107000D1F708958F929F92AF92BF92CF92DF9255
:10108000EF92FF920E9415084B015C0184E6C82E86
:10109000D12CE12CF12C0E941508681979098A09D4
:1010A0009B09683E734081059105A8F321E0C21AAF
:1010B000D108E108F10888EE880E83E0981EA11C93
:1010C000B11CC114D104E104F10429F7FF90EF90A1
:1010D000DF90CF90BF90AF909F908F9008952FB7E3
:1010E000F894609152027091530280915402909151
:1010F00055022FBF08950F931F93CF93DF93C09195
:10110000F702D091F802209781F081E08A830E9453
:101110006F08088519852A853B85601B710B820B3A
:10112000930B6C837D838E839F83DF91CF911F917F
:101130000F91089508959091240189130BC0E4EC58
:10114000F9E0E4919FEF90932401E13049F028F019
:10115000E23061F060E00C94AB0710926E00FACFC1
:1011600090916F009D7F90936F00F4CF90917000ED
:101170009D7F9093700091E09093B0009091B100AA
:10118000987F94609093B1001092B300E3CF4F9298
:101190005F926F927F928F929F92AF92BF92CF9207
:1011A000DF92EF92FF920F931F93CF93DF9300D0C4
:1011B00000D01F92CDB7DEB78B0129013A01909183
:1011C00024018917C9F09F3F09F47EC00F900F904A
:1011D0000F900F900F90DF91CF911F910F91FF9083
:1011E000EF90DF90CF90BF90AF909F908F907F90C7
:1011F0006F905F904F900895E4ECF9E094919D8397
:1012000097FDE4CF61E00E94D9078D81882321F00A
:101210009D81923009F04AC14801B12CA12C60E0B7
:1012200072E18AE790E0A50198010E94733A298350
:101230003A834B835C8369017A0181E0C81AD10843
:10124000E108F1089FEFC916D104E104F10409F0A7
:101250000CF401C160E472E48FE090E0A501980114
:101260000E94733A69017A0181E0C81AD108E10845
:10127000F1089D81923009F0A2C08FEFC816D10409
:10128000E104F10409F00CF4E6C160E970ED83E0DB
:1012900090E0A50198010E94733A69017A0191E0FA
:1012A000C91AD108E108F1088FEFC816D104E1048A
:1012B000F10411F00CF07FC183E09091B100987FB0
:1012C000892B8093B100CFC080932401E4ECF9E036
:1012D00094919D839F3F09F479CF913041F150F073
:1012E000923009F446C09D8197FD70CF61E00E9465
:1012F000D9078ECF14BC15BC94B5926094BD95B53A
:10130000916095BD282F30E0F901E45CF34FE49142
:10131000F0E0EE0FFF1FE85DF34F45915491F901A6
:10132000E05BF34FE491E09341021D826BCF10929A
:1013300080001092810090918100986090938100CC
:1013400090918100916090938100282F30E0F90105
:10135000E45CF34FE491F0E0EE0FFF1FE85DF34F24
:1013600045915491F901E05BF34FE491E093400221
:1013700049CF1092B0001092B1009091B0009260ED
:101380009093B0009091B10091609093B100282F9C
:1013900030E0F901E45CF34FE491F0E0EE0FFF1F61
:1013A000E85DF34F4591549150934B0240934A02AC
:1013B000F901E05BF34FE491E0934C0223CF9FEF00
:1013C000C916D104E104F10409F00CF46DC068E41D
:1013D00078EE81E090E0A50198010E94733A6901DE
:1013E0007A0181E0C81AD108E108F1089D819923AA
:1013F00009F4FAC08FEFC816D104E104F10411F02A
:101400000CF0FBC0EFC064E274EF80E090E0A50157
:1014100094010E94733A69017A0181E0C81AD108E7
:10142000E108F10885E09FEFC916D104E104F10459
:1014300009F008F442CF62E17AE780E090E0A5018C
:1014400094010E94733A69017A0181E0C81AD108B7
:10145000E108F108E5C081E09D8191112ECF95B59D
:10146000987F892B85BD2FEF3FEFA90141145104CF
:101470006104710409F043C09D81913009F45EC09C
:10148000923009F46DC09111A1CEC7BC20934602E1
:1014900030934702409348025093490280916E0076
:1014A000826080936E0092CE82E0D6CFB12CA12CC8
:1014B00060E072E18AE790E0A50198010E94733A2A
:1014C00069017A0181E0C81AD108E108F108C11464
:1014D000D10491E0E906F10404F591E08D818130B9
:1014E00011F680918100887F892B809381002FEFF6
:1014F0003FEFA9014114510461047104F9F0D801CE
:10150000AA0FBB1FA30192010E94923A28EE33E07A
:1015100040E050E00E94DC3AAFCF68E478EE81E032
:1015200090E0A50198010E94733A69017A0181E077
:10153000C81AD108E108F10893E0D0CFD092890011
:10154000C0928800209342023093430240934402A9
:101550005093450280916F00826080936F0036CE79
:10156000C092B30020934D0230934E0240934F023D
:10157000509350028091700082608093700026CE5C
:1015800084E09FEFC916D104E104F10409F008F4E6
:1015900066CFC980DA80EB80FC808AE0F594E7941E
:1015A000D794C7948A95D1F781E0C81AD108E10889
:1015B000F10885E054CF68E478EE81E090E0A50181
:1015C00098010E94733A69017A0181E0C81AD10832
:1015D000E108F1089FEFC916D104E104F10411F00C
:1015E0000CF011CF84E069CE83E09FEFC916D104DF
:1015F000E104F10409F00CF432CF62E17AE780E013
:1016000090E0A50194010E94733A69017A0181E09A
:10161000C81AD108E108F1089D81992309F4B0CFD7
:1016200086E09FEFC916D104E104F10409F008F443
:1016300044CEC980DA80EB80FC809AE0F594E79490
:10164000D794C7949A95D1F781E0C81AD108E108D8
:10165000F10887E032CE82E030CEAF92BF92CF92D7
:10166000DF92EF92FF920F931F93CF93DF936C0162
:101670007B018B01040F151FEB015E01AE18BF0843
:10168000C017D10759F06991D601ED91FC910190F5
:10169000F081E02DC6010995892B79F7C501DF910D
:1016A000CF911F910F91FF90EF90DF90CF90BF905F
:1016B000AF900895FC01538D448D252F30E0842F89
:1016C00090E0821B930B541710F0CF96089501976A
:1016D0000895FC01918D828D981761F0A28DAE0F57
:1016E000BF2FB11D5D968C91928D9F5F9F73928FDE
:1016F00090E008958FEF9FEF0895FC01918D828D0A
:10170000981731F0828DE80FF11D858D90E00895D6
:101710008FEF9FEF0895FC01918D228D892F90E02E
:10172000805C9F4F821B91098F73992708958AE5EA
:1017300092E00E948B0B21E0892B09F420E0822F9C
:10174000089580E090E0892B29F00E94970B811189
:101750000C9400000895FC01A48DA80FB92FB11DB1
:10176000A35ABF4F2C91848D90E001968F739927D7
:10177000848FA689B7892C93A089B1898C918370B5
:1017800080648C93938D848D981306C00288F389AE
:10179000E02D80818F7D80830895EF92FF920F93DB
:1017A0001F93CF93DF93EC0181E0888F9B8D8C8D0D
:1017B00098131AC0E889F989808185FF15C09FB701
:1017C000F894EE89FF896083E889F98980818370C4
:1017D000806480839FBF81E090E0DF91CF911F9173
:1017E0000F91FF90EF900895F62E0B8D10E00F5F94
:1017F0001F4F0F731127E02E8C8D8E110CC00FB66A
:1018000007FCFACFE889F989808185FFF5CFCE0101
:101810000E94AB0BF1CFEB8DEC0FFD2FF11DE35AC6
:10182000FF4FF0829FB7F8940B8FEA89FB89808184
:101830008062CFCF0F931F93CF93DF938C01D0E0C3
:10184000C0E0F801EC0FFD1F6491662341F08AE5CA
:1018500092E00E94CD0B892B11F02196F2CFCE01A0
:10186000DF91CF911F910F910895CF93DF93EC01FA
:10187000888D8823B9F0AA89BB89E889F9898C9178
:1018800085FD03C0808186FD0DC00FB607FCF7CF34
:101890008C9185FFF2CF808185FFEDCFCE010E9434
:1018A000AB0BE9CFDF91CF910895CF92DF92EF920A
:1018B000FF921F93CF93DF93EC016A017B018C8130
:1018C0000E94820711E0892B09F410E08B8518171C
:1018D00021F0CD8ADE8AEF8AF88E8D899E89AF89C4
:1018E000B88DB701A601481B590B6A0B7B0B898D7C
:1018F00090E0B0E0A0E084179507A607B70798F43A
:101900008C85181781F01C878A851817A9F0CA8E54
:10191000DB8EEC8EFD8EEAA1FBA1309721F0B701A2
:10192000A601898509951B87DF91CF911F91FF90B3
:10193000EF90DF90CF900895CE8EDF8EE8A2F9A2CF
:10194000ECA1FDA1309779F389850995ECCFCF9271
:10195000DF92EF92FF920F931F93CF93DF93EC01EF
:101960008E81811103C08D89882369F18C810D8559
:101970001E852F8538896A017B01C01AD10AE20AC7
:10198000F30A9701860137FD18C009891A892B8946
:101990003C89401B510B620B730B1416150616067F
:1019A00017065CF061E0DF91CF911F910F91FF90DE
:1019B000EF90DF90CF900C94AB0760E00E94AB07F4
:1019C0008D8981111D8ADF91CF911F910F91FF9019
:1019D000EF90DF90CF900895CF93DF93EC0161E01B
:1019E00088810E94AB0781E08C870E946F086D8719
:1019F0007E878F87988BDF91CF910895CF92DF926A
:101A0000EF92FF92CF93DF93EC016A017B0169852E
:101A10007A858B859C850E9454399B01AC0160E0DE
:101A200070E080E89FE30E947A3B20E030E040E0F5
:101A30005FE30E94B53920E030E04AE754E40E94B9
:101A4000B539C98EDA8EEB8EFC8E20E030E040E0B6
:101A50005FE30E940E3B0E94F33BC60ED71EE81EBA
:101A6000F91ECD8EDE8EEF8EF8A28BA191E0892734
:101A70008BA3DF91CF91FF90EF90DF90CF900895EF
:101A8000CF92DF92EF92FF92CF93DF93EC016A0146
:101A90007B0189899A89AB89BC89AB019601281B96
:101AA000390B4A0B5B0BDA01C901B7FD49C08D89BF
:101AB0009E89AF89B88DAB019601281B390B4A0B63
:101AC0005B0BDA01C901181619061A061B06C4F1C8
:101AD0008AA18823A9F189859A85AB85BC85019760
:101AE000A105B10551F461E08C81DF91CF91FF90A8
:101AF000EF90DF90CF900C94AB078D8D9E8DAF8DC6
:101B0000B8A1AB019601281B390B4A0B5B0BDA011C
:101B1000C901B7FD04C0A601CE010E94FE0C8C8154
:101B20009BA1992311F061E0E0CF60E00E94AB0738
:101B30001BA2DF91CF91FF90EF90DF90CF9008959F
:101B400060E08C810E94AB071BA28D899E89AF89C2
:101B5000B88DC81AD90AEA0AFB0A8AA1882331F08B
:101B60001C141D041E041F040CF41AA28CA188234B
:101B700001F31C141D041E041F04DCF61CA2D9CFA3
:101B80008F929F92AF92BF92CF92DF92EF92FF928D
:101B90000F931F93CF93DF93EC018E81811104C0CB
:101BA00088A1882309F445C07B0189899A89AB897A
:101BB000BC894A015B01881A990AAA0ABB0AC501B5
:101BC000B40197FD53C00D891E892F89388D4A01B4
:101BD0005701801A910AA20AB30A950184011016CE
:101BE0001106120613060CF441C02A8D2223A9F116
:101BF0000C8D1D8D2E8D3F8D200F311F2115310530
:101C000011F421E030E0FB8C50E040E00E94DC3A2F
:101C100060177107D8F4F1100AC069857A8520E051
:101C200030E0A9018C810E94C70881E08B8F81E0A0
:101C3000898FDF91CF911F910F91FF90EF90DF90EF
:101C4000CF90BF90AF909F908F900895FF2079F331
:101C50008C810E949B081B8EEACF69857A8520E0E3
:101C600030E0A9018C810E94C708E1CF898D8823CB
:101C700001F38C810E949B08198E1B8E88A18823FA
:101C8000C1F218A2D6CF6F3FA9F0E62FE295EF7010
:101C900044E0E49F90011124DC01ED91FC91E20FFE
:101CA000F31F6F7082819381B6E06B9F800D911D51
:101CB0001124089590E080E00895982F80336CF00F
:101CC0008A3324F08F3524F08B3724F481E0089593
:101CD00081341CF081E09B350CF080E00895FC011C
:101CE000828581110AC0A781B085CD0101969087B8
:101CF00087838C91818781E08287818508951F93F6
:101D0000CF93DF93EC01162F0E946F0E811306C054
:101D10001A8681E0DF91CF911F91089580E0FACF7C
:101D20000F931F93CF93DF938C01EB01899188234D
:101D300069F0C8010E946F0E882379F0FE01319787
:101D4000908198130DC0F8011286F0CF90E080E0EA
:101D5000DF91CF911F910F91089582E090E0F8CF2D
:101D600083E090E0F5CFCF93DF93EC01CE010E94AA
:101D70006F0E8B304CF489305CF4882359F081E08D
:101D80008E8390E080E00BC08D3011F08032B9F787
:101D90001A86ECCF8E81811105C081E090E0DF9141
:101DA000CF91089582E090E0FACFDC0152969C91A9
:101DB0005297915084E0989F900111245096ED9194
:101DC000FC91E20FF31F228133812115310579F057
:101DD00041818081481758F481E0840F818386E037
:101DE000489F200D311D11242115310521F460E09B
:101DF00070E08FEF0895B901892F8295807F840F5D
:101E00000895DF92EF92FF920F931F93CF93DF938A
:101E1000EC017B01D12C688979898A89D816E0F494
:101E200084E0D89E80011124060F171FD801129656
:101E30006D917C916115710541F0D701ED91FC9197
:101E40000280F381E02DC7010995F8011382128207
:101E500010821182D394DFCF1A8A8FEF8C8BC61732
:101E6000D70761F0D701ED91FC910280F381E02D5D
:101E7000C7010995D98BC88B84E08B8BDF91CF91FB
:101E80001F910F91FF90EF90DF9008952F923F9256
:101E90004F925F926F927F928F929F92AF92BF927A
:101EA000CF92DF92EF92FF920F931F93CF93DF9326
:101EB00000D000D0CDB7DEB720913F0230911201A3
:101EC0008091040190910501A0910601B091070154
:101ED000C0900801D0900901E0900A01F0900B0138
:101EE00040910C0150910D015A834983E0910E01FC
:101EF000F0910F01FC83EB83809018019090190101
:101F0000A0901A01B0901B0140901E0150901F013B
:101F10006090200170902101E0911C01F0911D0161
:101F2000309711F4E1E0F0E040910001509101019F
:101F30006091020170910301481759076A077B07F6
:101F400010F4AC01BD0110911103112309F46BC011
:101F5000F0931F03E0931E03EB81FC81F0932103B8
:101F6000E0932003E981FA81F0932303E0932203B5
:101F70008093280390932903A0932A03B0932B0303
:101F800040932C0350932D0360932E0370932F03E3
:101F9000C816D906EA06FB0648F0D701C60148175D
:101FA00059076A077B0710F4DB01CA0180932403F9
:101FB00090932503A0932603B0932703353608F0AA
:101FC00034E630931B03253608F024E620931C03E7
:101FD000E091FF02F0910003309721F04186528694
:101FE00063867486E0910103F0910203309721F03B
:101FF00081869286A386B4860F900F900F900F90E3
:10200000DF91CF911F910F91FF90EF90DF90CF90D4
:10201000BF90AF909F908F907F906F905F904F9008
:102020003F902F9008952090110127FE02C010E8E4
:10203000212E30903E02009110012092190310E8E9
:102040001219011708F4102F10931A03F0931F03AD
:10205000E0931E03EB81FC81F0932103E0932003C6
:10206000E981FA81F0932303E0932203809328030C
:1020700090932903A0932A03B0932B0340932C033E
:1020800050932D0360932E0370932F03C816D90627
:10209000EA06FB0648F0D701C601481759076A0748
:1020A0007B0710F4DB01CA0180932403909325037E
:1020B000A0932603B0932703353608F034E6309317
:1020C0001B03253608F024E620931C0330921D03E1
:1020D000E091FF02F0910003309759F0418652865B
:1020E00063867486128E88EC90E0958F848F978F2C
:1020F000868FE0910103F0910203309709F47CCFC1
:1021000081869286A386B486E0910103F091020352
:1021100081E0828F88EC90E0958F848F978F868FF7
:102120006BCF909111039923E9F0909112039111D3
:1021300019C08230B8F481110BC081E02091F902FE
:102140003091FA02232B09F080E080931703089561
:1021500081E02091FB023091FC02232B09F080E00A
:102160008093180308954F925F926F927F928F929F
:102170009F92AF92BF92CF92DF92EF92FF920F9316
:102180001F93CF93DF9300D000D01F92CDB7DEB75F
:10219000DC012C912B32E1F12D32D9F50196EE24A0
:1021A000E394FC01208130ED320F3A3010F02E32F2
:1021B00091F58C0160E070E0CB01F801219130EDE8
:1021C000832E820E39E0381508F444C06A3949E993
:1021D0007407840749E1940708F046C0AAE0B0E01C
:1021E0009B01AC010E94923A912CB12CA12C2401AC
:1021F00035014094509460947094461657066806D2
:10220000790690F1680D791D8A1D9B1D8F01D5CF30
:102210000196E12CC6CF198229813A814B815C81DC
:102220006D8170E080E090E00F900F900F900F9024
:102230000F90DF91CF911F910F91FF90EF90DF9062
:10224000CF90BF90AF909F908F907F906F905F9056
:102250004F900895211108C0EE2051F161307105B1
:10226000810550E89507A0F0F12CBAE08B2E912C57
:10227000A12CB12C6115710530E883079105F8F0A8
:10228000A50194010E94DC3ACA01B901F394F2CF8E
:1022900022E029839B01AC0188279927DC01821B5E
:1022A000930BA40BB50B8A839B83AC83BD83B4CF04
:1022B00023E029836A837B838C839D83ADCFF801E0
:1022C000D8012D918D0130ED320F3A3010F4F39496
:1022D000F6CF2E3201F58F010F5F1F4FF8010F5F10
:1022E0001F4F2081A0EDDA2ED20EB9E0BD1598F077
:1022F0006C3CECEC7E07ECE08E07910578F7AAE0E9
:10230000B0E09B01AC010E94923A6D0D711D811DE0
:10231000911DFA94E3CF20812F7D10E000E0253459
:1023200009F050C021812D32B1F53296CC24C394EE
:10233000DF0110E000E02F2D0F2C000C330BEAE042
:10234000BE2EFD01DD9040ED4D0D4A30B0F5B09E42
:10235000A001B19E500D11240D2DDD0C110B005369
:102360001109040F151FA801420F531F47325105D1
:1023700044F3CC20B9F080E090E0A0E0B0E8E110B8
:1023800003C080E090E0DC0121E029838A839B8305
:10239000AC83BD8341CF2B3219F03196C12CC8CF0D
:1023A0003296FCCF80E090E0A0E8BFEFE110ECCFE8
:1023B00080E090E0A0E8BFE7E7CFCC2019F01195CE
:1023C000019511092081211126CF0F0D111DF7FC58
:1023D0001A950E9454394CEBA42E40E0B42E1016EE
:1023E00011063CF011950195110954EAA52E50E013
:1023F000B52ED12CC12C01151105E9F0F6E0CF1650
:10240000D104A9F000FF0DC0F601EE0FFF1FEE0F83
:10241000FF1FEA0DFB1D25913591459154910E94B6
:10242000B539159507952FEFC21AD20AE4CF60E0AF
:1024300070E080EC9FE7E110905821E029836A83E7
:102440007B838C839D83E8CECF92DF92EF92FF92C5
:102450000F931F93CF93DF937C016B018A01FC01E3
:10246000C081D1814F3F510509F0B0F4E881F98175
:102470000480F581E02D4B5F5F4FCE0109950097F9
:1024800059F0FC010383DF91CF911F910F91FF90D1
:10249000EF90DF90CF900895E881F9810280F38179
:1024A000E02DB601CE01099581E0F701828390E02D
:1024B00080E0E9CF1F93CF93DF93EC01162F6A8161
:1024C0007B816115710589F04C815D81FB01838100
:1024D0008417150651F4440F551F4F5F5F4F8881D5
:1024E00099810E9424129B838A838A819B81009711
:1024F00059F02C813D81A9014F5F5F4F5D834C8373
:10250000820F931FFC011483DF91CF911F910895D7
:102510009F92AF92BF92CF92DF92EF92FF920F9372
:102520001F93CF93DF9300D000D01F92CDB7DEB7BB
:102530008C010E946F0ED82EF8011286F12CE12C2E
:1025400060EFC62EC8010E946F0EF8011286D816E1
:1025500009F4B3C0811113C082E090E00F900F9096
:102560000F900F900F90DF91CF911F910F91FF90DF
:10257000EF90DF90CF90BF90AF909F9008958C35F3
:1025800009F099C0C8010E946F0E882329F3E3E681
:10259000F1E0853709F083C0F801128654E0952EEA
:1025A000B12CA12CC8010E946F0E8823A9F281349E
:1025B00034F48053803130F083E090E0CFCF8F7DD2
:1025C0008753F8CF44E0AA0CBB1C4A95E1F7A82A30
:1025D000F80112869A949110E5CFC501985D811596
:1025E000944020F47501F3E0FF22ACCFC5019C5D5F
:1025F00081159440A8F483E0B822B701762F6627AE
:10260000770F770F6A297B2990E080E00196603888
:1026100071058105910540F4C8010E945A1292CFBC
:10262000B50190E080E0F3CF1982262F2F73206848
:102630002A8326E096958795779567952A95D1F711
:102640006032710580F4606C6B835E01E4E0AE0E75
:10265000B11CF50162915F01662309F473CFC801D3
:102660000E945A12F6CF262F2F7320682B8386E004
:10267000769567958A95E1F76031710538F4606E5B
:102680006C835E01F5E0AF0EB11CE3CF60686C8334
:10269000CD825E0126E0A20EB11CDBCF3296908186
:1026A000992309F489CF8913F9CF8181882309F40B
:1026B00083CFF8011286682FAFCF82819381892B57
:1026C00019F484E090E04ACF90E080E047CF6F9229
:1026D0007F928F929F92AF92BF92CF92DF92EF92B2
:1026E000FF920F931F93CF93DF93EC012A813B81DD
:1026F0002C5F3F4F4C815D814430510588F5890145
:10270000F90180E0942FB22FAE2FA21BA91730F44D
:10271000F190A1E0F110A0E08A2BF6CF811120C04A
:1027200082E0EB018C83FB01802F8B1B891728F43F
:10273000E80189918E018193F7CF640F751FFB012A
:102740001082DF91CF911F910F91FF90EF90DF905A
:10275000CF90BF90AF909F908F907F906F90089593
:102760008B01F901E40FF51F1082888199814C815A
:102770005D81DC011396ED91FC913A01E89477F8C4
:102780006901C60CD71C3097C1F0A381A6151704A8
:1027900081F449017F01B4E0EB0EF11C8C149D041F
:1027A00029F1D401AD904D01D701BD907D01AB144D
:1027B000A9F30190F081E02DE6CF6A817B810E9430
:1027C0002412FC01A881B98113968D919C911497D4
:1027D000918380831496FC93EE9313971B821A8245
:1027E00085E0E8018C83F983E883ABCF82818F5F3A
:1027F0008283F6CFDB01ED91FC9111970280F3818A
:10280000E02DBC01CD010994AF92BF92CF92DF922F
:10281000EF92FF920F931F93CF93DF93EC018B0105
:102820008C8180FF24C0A881B981FB0183819481C0
:1028300030E020E00097D9F0A817B907D1F5F801EA
:102840006081718112968C911297815012968C93AF
:10285000129781110CC08D919C9111972115310512
:1028600029F1F90191838083CD010E94FA138C81B3
:10287000807631F1209721F1F8805801F5E1AF0E13
:10288000B11C8FEFF816D1F06F2DC5010E94430ED9
:102890006C01FC01E580B8010E940414F801818DEF
:1028A000F6018083F801F18EFE2CEBCF94838383B5
:1028B000DBCF9C01FC0180819181BCCFF882F98241
:1028C0001C82DF91CF911F910F91FF90EF90DF90CD
:1028D000CF90BF90AF9008950F931F93CF93DF9346
:1028E000EC01088119818B819C81009749F0FC01E2
:1028F000208131813C832B83B8010E94FA13F3CFEE
:1029000068817981CE010596DF91CF911F910F915A
:102910000C94010FFC0101900020E9F73197AF0101
:10292000481B590BBC018AE592E00C942D0B8F9249
:102930009F92AF92BF920F931F93CF93DF93CDB728
:10294000DEB7A1970FB6F894DEBF0FBECDBF19A2B8
:10295000423008F44AE08E010F5D1F4F842E912C07
:10296000B12CA12CA50194010E94DC3AE62FB901FB
:10297000CA01EA30F4F4E05DD801EE938D01232B17
:10298000242B252B79F790E080E0109719F0CD01EA
:102990000E948A14A1960FB6F894DEBF0FBECDBF79
:1029A000DF91CF911F910F91BF90AF909F908F902B
:1029B0000895E95CE1CFCF92DF92EF92FF92CF933F
:1029C000DF936C01990FEE08FF08F7FE19C06DE266
:1029D0008AE592E00E94CD0BEC0166277727CB01B8
:1029E0006C197D098E099F094AE00E9497148C0F8B
:1029F0009D1FDF91CF91FF90EF90DF90CF900895D2
:102A00004AE0C701B601DF91CF91FF90EF90DF90D0
:102A1000CF900C9497144AE00C949714682F70E0B0
:102A200090E080E04AE00C949714CF93DF936DE739
:102A30008AE592E00E94CD0BEC0186E791E00E94CE
:102A40008A148C0F9D1FDF91CF9108954F925F9252
:102A50006F927F928F929F92AF92BF92EF92FF926E
:102A60000F931F93CF93DF932A013B014801590134
:102A7000853009F480C008F061C0843009F46FC06B
:102A8000E091FF02F09100031481C2EEDCE04FEF11
:102A9000E42E4CE0F42E8EE39DE00E941A0CC70158
:102AA0000E941A0C85E39DE00E941A0C812F110FE1
:102AB000990B0E94DB148AE29DE00E941A0CCE0161
:102AC0000E941A0C85E19DE00E941A0C80910D0372
:102AD00090910E03A0910F03B0911003A3019201F6
:102AE000281B390B4A0B5B0BCA01B9010E940B155D
:102AF00083E09DE00E941A0C80910D0390910E03DB
:102B0000A0910F03B0911003A5019401281B390B6C
:102B10004A0B5B0BCA01B9010E940B15DF91CF91E3
:102B20001F910F91FF90EF90BF90AF909F908F906B
:102B30007F906F905F904F900C941515863039F10F
:102B4000873009F09DCFE0910703F09108031481CD
:102B5000CFEBDCE087EEE82E8CE0F82E9CCFE09106
:102B60000103F09102031481CDEDDCE039EFE32E97
:102B70003CE0F32E90CFE0910303F0910403148125
:102B8000C4EDDCE024EFE22E2CE0F22E84CFE091C5
:102B90000503F09106031481CBECDCE09DEEE92EF9
:102BA0009CE0F92E78CF0F931F93CF93DF938C0186
:102BB000D62FC42F8AEA99E00E941A0CC8010E94FD
:102BC0001A0C8FE999E00E941A0C85E899E0DD2340
:102BD00011F08BE899E00E941A0C80E999E00E94BC
:102BE0001A0C8AE799E0CC2311F080E899E00E9462
:102BF0001A0CDF91CF911F910F910C9415150F9323
:102C00001F93CF938C01C62F80E699E00E941A0C87
:102C1000C8010E941A0C85E599E00E941A0C8AE40A
:102C200099E0CC2311F080E599E00E941A0CCF9135
:102C30001F910F910C941515CF92DF92EF92FF9296
:102C40000F931F93CF938C01C62F69017A0180E304
:102C500099E00E941A0CC8010E941A0C85E299E0C2
:102C60000E941A0C8DE099E0CC2311F083E199E0E9
:102C70000E941A0C88E199E00E941A0CC701B60163
:102C80000E940B15CF911F910F91FF90EF90DF9055
:102C9000CF900C9415157F928F929F92AF92BF9216
:102CA000CF92DF92EF92FF920F931F93CF93DF9318
:102CB000EC01762E49015A016701780183EF98E013
:102CC0000E941A0CCE010E941A0C88EE98E00E9415
:102CD0001A0C82EC98E0772011F088EC98E00E94C2
:102CE0001A0C8AED98E00E941A0CC501B4010E94EA
:102CF0000B158DEC98E00E941A0CC701B6010E94DA
:102D00000B15DF91CF911F910F91FF90EF90DF9006
:102D1000CF90BF90AF909F908F907F900C9415159F
:102D2000EF92FF920F931F93CF937C018B01C42FDF
:102D30008BE298E00E941A0CC7010E941A0C8FE1E6
:102D400098E00E941A0CC8010E941A0C84E198E0D5
:102D50000E941A0C89E098E0CC2311F08FE098E0F3
:102D60000E941A0CCF911F910F91FF90EF900C943D
:102D70001515CF92DF92EF92FF920F931F93CF938F
:102D8000DF938C01EB0169017A018FEE97E00E94DD
:102D90001A0CC8010E941A0C83EE97E00E941A0CCC
:102DA000CE010E941A0C88ED97E00E941A0CC70110
:102DB000B6010E940B15DF91CF911F910F91FF90EB
:102DC000EF90DF90CF900C941515CF92DF92EF9299
:102DD000FF920E946F086B017C01C0923602D09274
:102DE0003702E0923802F092390280914F03882333
:102DF000B9F080915D03811113C08CE493E00E94CF
:102E0000EC0CC0925E03D0925F03E0926003F092FC
:102E1000610381E080935D03F89410924E037894EF
:102E2000C0903602D0903702E0903802F09039021C
:102E3000109211031092120310923003E091FF02DE
:102E4000F0910003309719F084810E949B08E09173
:102E50000103F0910203309719F084810E949B08CE
:102E6000E0910303F0910403309721F060E0848146
:102E70000E94AB07E0910503F0910603309721F023
:102E800060E084810E94AB07E0910703F0910803A2
:102E9000309729F015A260E084810E94AB0760E0C2
:102EA00086E00E94AB0784ED90E00E941A0C8091AE
:102EB0003A0290913B02A0913C02B0913D02A701E1
:102EC0009601281B390B4A0B5B0BCA01B9010E9402
:102ED0000B15FF90EF90DF90CF900C941515CF93CA
:102EE000DF930E941A0CEC0186E791E00E948A149D
:102EF0008C0F9D1FDF91CF910895CF92DF92EF92BB
:102F0000FF92CF93DF93EC016A017B0184E99CE09F
:102F10000E941A0CCE010E941A0C89E89CE00E94C3
:102F20001A0CC9EFD2E088AD0E940E158BE79CE029
:102F30000E941A0C8C899D89AE89BF89A7019601D0
:102F4000281B390B4A0B5B0BCA01B9010E940B15F8
:102F500088E79CE0DF91CF91FF90EF90DF90CF90DA
:102F60000C946F170F931F93CF938C01C62FFC0106
:102F7000638386E998E00E941A0CF8018081082E8C
:102F8000000C990B0E94DB148CE898E00E941A0C4C
:102F90008AE798E0CC2311F083E898E00E941A0CAD
:102FA00089E898E0CF911F910F910C946F17EF92E1
:102FB000FF920F931F93CF93DF937C018B01EA0164
:102FC00080E698E00E941A0CC7010E941A0C84E562
:102FD00098E00E941A0CC8010E941A0C88E498E03C
:102FE0000E941A0CCE010E941A0C85E498E0DF9131
:102FF000CF911F910F91FF90EF900C946F17009756
:1030000011F00C948A1490E080E008950F931F93C0
:10301000CF93DF93C091F902D091FA02882321F077
:10302000C091FB02D091FC02209709F45BC0613093
:1030300009F452C008F44DC0623009F450C086EC67
:103040009DE00E941A0C8C810E940E158BEA9DE077
:103050000E941A0CC8010E941A0C86E99DE00E9489
:103060001A0C6A8D7B8D8C8D9D8D00910D031091B6
:103070000E0320910F0330911003601B710B820B24
:10308000930B0E940B1584E89DE00E941A0C6E8D34
:103090007F8D88A199A100910D0310910E032091BD
:1030A0000F0330911003601B710B820B930B0E9476
:1030B0000B1583E79DE00E941A0CCE010D960E942D
:1030C000FF1780E79DE0DF91CF911F910F910C9446
:1030D0006F1709E61DE0B3CF00E61DE0B0CF08E5AD
:1030E0001DE0ADCFDF91CF911F910F910895909189
:1030F0001103992371F09091120391110AC060910C
:103100001703882321F0813021F4609118030C9477
:1031100006180895CF93DF93EC016E838BE897E058
:103120000E941A0C8F8198850E94FF1782E897E011
:103130000E941A0C8C81082E000C990B0E94DB1443
:1031400088E797E00E941A0C8E8181110AC086E6FA
:1031500097E00E941A0C85E797E0DF91CF910C94DD
:103160006F178FE697E0F5CF60E080912501909191
:1031700026010E948A1860E0809127019091280121
:103180000E948A1860E08091290190912A010E9492
:103190008A1860E080912B0190912C010E948A187E
:1031A00060E080912D0190912E010E948A1860E0CC
:1031B00080912F01909130010E948A1860E08091E7
:1031C0003101909132010E948A18809133019091CF
:1031D0003401009719F060E00E948A1860E0809145
:1031E0003501909136010C94B2171F93CF93DF9362
:1031F000EC01162F8E81882321F060E0CE010E9421
:103200008A188D81813021F460E08C810E94AB07A7
:103210001C836D81812F0E94D9078D81813021F41B
:1032200060E08C810E94AB078EEB97E00E941A0C45
:103230008F8198850E94FF1785EA97E00E941A0CFB
:103240008C81082E000C990B0E94DB14DF91CF912A
:103250001F910C941515CF93DF93EC010E94F51884
:103260008C810E94820721E0892B09F420E02A87C3
:103270008C810E94820721E0892B09F420E02B87B2
:103280008C810E94820721E0892B09F420E02C87A1
:103290001D8A1E8A1F8A188EDF91CF9108959F92F2
:1032A000AF92BF92CF92DF92EF92FF920F931F9354
:1032B000CF93DF938A01452B09F468C0E9016B01C4
:1032C0006596FC016081CE010E94430EFC01BB2487
:1032D000BA94892B09F0B5807601E894F7F8AA240E
:1032E000A3946701C00ED11E99249394309709F4DA
:1032F0004DC0AA2009F43FC08481843069F0853034
:1033000049F1823079F5DF010D900020E9F711973E
:10331000CD018E1B9F0B07C00190F081E02D90E046
:1033200080E0309781F79F77E816F90621F5D801FC
:10333000AC15BD05E1F46B2DCE01DF91CF911F914E
:103340000F91FF90EF90DF90CF90BF90AF909F9044
:103350000C94430EA081B181FD01349613968C919B
:1033600090E0E2CF90E080E0F0E0E0E0DDCF9D9102
:1033700081919817E9F2A9246B2DCE010E94430E8A
:10338000FC01892B09F4B2CFB580B0CF90E080E08A
:10339000DF91CF911F910F91FF90EF90DF90CF9031
:1033A000BF90AF909F900895FC0120813181C901A9
:1033B0004A964281538164817581009759F0D90101
:1033C0005E96EC91E03211F090E080E0009711F011
:1033D0000C944F1990E080E00895CF930E94D41987
:1033E000FC01892B41F194819A30E1F040F499235A
:1033F00011F19630A9F0C1E08C2FCF9108959C3047
:1034000089F09E30C1F7C1E020E030E0A901608181
:103410007181828193810E944F398111EDCF0BC060
:10342000C081EACFC1E080819181A281B381892BE3
:103430008A2B8B2B09F7C0E0DFCFCF92DF92EF9280
:10344000FF92CF93DF9300D000D01F92CDB7DEB7AD
:103450000E94D419DC01009709F445C01496EC9140
:103460001497E250ED3008F03EC0F0E0E65CF54E17
:103470000C943B3C631A731A611A751A471A731A33
:10348000731A731A551A731A551A731A791ACC903B
:103490008C2D0F900F900F900F900F90DF91CF9188
:1034A000FF90EF90DF90CF900895CD90DD90ED905C
:1034B000FC908FEFC816D104E104F10449F340F306
:1034C00012C08D919C910E94B3103A834B835C8310
:1034D0006D83CA80DB80EC80FD80223051F3233085
:1034E00041F3213051F0C12CD3CF8D919C910496A2
:1034F000EACFCD90DD90ED90FC9020E030E0A90186
:10350000C701B6010E94223C87FDEDCF20E030E0EC
:103510004FE753E4C701B6010E944F3918161CF358
:10352000C701B6010E94F33BC62EB2CFCF92DF9205
:10353000EF92FF92CF93DF9300D000D01F92CDB7D0
:10354000DEB70E94D419DC01009789F11496EC9142
:103550001497E250ED3058F5F0E0EF54F54E0C942E
:103560003B3CDC1AD71ADA1AED1ABE1AD71AD71A48
:10357000D71ACD1AD71ACD1AD71AF11A6C9170E052
:10358000CB010F900F900F900F900F90DF91CF9184
:10359000FF90EF90DF90CF9008958D919D910D90C9
:1035A000BC91A02DBC010097A140B10548F370E08B
:1035B00060E0E6CF8D919C910E94B3103A834B83DB
:1035C0005C836D83CA80DB80EC80FD80223029F132
:1035D000233059F1213059F708C08D919C91049600
:1035E000EBCFCD90DD90ED90FC9020E030E0A90194
:1035F000C701B6010E94223C87FDD9CF20E03FEFF2
:103600004FE757E4C701B6010E944F3918167CF204
:10361000C701B6010E94F33BB3CFC114D10481E0CE
:10362000E806F10420F6B601ABCFC114D10421E0C5
:10363000E206F104C0F3BBCF0F931F93CF93DF9348
:10364000EC018B010E94D419FC01892B29F08481A3
:103650008A3051F08C30B9F0F80180819181DF918E
:10366000CF911F910F91089580819181A281B381A3
:103670000097A140B10580F7CE01DF91CF911F9156
:103680000F910C94961A80819181A281B381B7FD2C
:10369000E3CF0097A140B105FCF6EECFCF92DF92C9
:1036A000EF92FF92CF93DF9300D000D01F92CDB75F
:1036B000DEB70E94D419DC01009709F44AC01496C1
:1036C000EC911497E250ED3008F043C0F0E0E5597A
:1036D000F44E0C943B3C991BA91B971BAD1B781B0C
:1036E000A91BA91BA91B881BA91B8D1BA91BB11BEF
:1036F0006C9170E090E080E00F900F900F900F9031
:103700000F90DF91CF91FF90EF90DF90CF900895D1
:103710006D917D918D919C91EFCF8D919D910D90AB
:10372000BC91A02DB7FD15C0BC01CD01E5CF8D9199
:103730009C910E94B3103A834B835C836D83CA8053
:10374000DB80EC80FD80223041F1233041F12130DB
:1037500061F060E070E0CB01CFCF8D919C91049639
:10376000E8CFCD90DD90ED90FC9020E030E0A90115
:10377000C701B6010E94223C87FDEBCF2FEF3FEF40
:103780004FE75FE4C701B6010E944F3918160CF3EA
:10379000C701B6010E94F33BAFCFF7FCDACFC701F8
:1037A000B601AACF8F929F92AF92BF92CF92DF9233
:1037B000EF92FF920F931F93CF93DF9300D000D02F
:1037C00000D0CDB7DEB749015A0167017801FB018E
:1037D00001900020E9F73197E61BF70B9A83898364
:1037E0007C836B83ED838F2F8F778E83CE01019641
:1037F0000E94D4190097B9F0FC0124812A3041F0CD
:103800002C3089F480819181A281B381B7FD0BC0F6
:10381000CE0101960E944E1B86169706A806B90691
:1038200010F44B015C01C501B401C616D706E806C9
:10383000F90610F4C701B60126960FB6F894DEBF5C
:103840000FBECDBFDF91CF911F910F91FF90EF90F1
:10385000DF90CF90BF90AF909F908F9008954F9240
:103860005F926F927F928F929F92AF92BF92CF9210
:10387000DF92EF92FF920E94F73820E137E240E0BA
:1038800050E00E94733A6F5F7F4F8F4F9F4F90E0E1
:1038900080E00E9454396B017C01812C912C5401F1
:1038A00020E030E040E050E4C701B6010E94223C35
:1038B00087FD15C020E030E040E05FE3C701B601BE
:1038C0000E94B5396B017C0128E132E741E35FE3F7
:1038D000C501B4010E940E3B4B015C01E1CF20E029
:1038E00030E040E85FE3C701B6010E940D3B6B0189
:1038F0007C0120E030E040E05FE30E94B539A701A1
:1039000096010E94B5399B01AC01C701B6010E9426
:103910000D3B2B013C012FE93AEA4AEA5EE3C7017D
:10392000B6010E94B539A70196010E94B539A701D9
:1039300096010E94B5399B01AC01C301B2010E94FE
:103940000E3BA50194010E940E3B9B01AC016DE86A
:103950007DE583E191E40E940D3BFF90EF90DF90C5
:10396000CF90BF90AF909F908F907F906F905F901F
:103970004F900895BF92CF92DF92EF92FF920F93F4
:103980001F93CF93DF93EC01198D1F3F81F0612FBF
:1039900045960E94430EFC018081898F309709F47F
:1039A00077C014828FEF8583BF01812F76C06C01B1
:1039B00035E0C30ED11CE880F9808F89882341F05F
:1039C000C6010E94D50EE62FF72F182F309749F722
:1039D0001F89988D191324C0103109F459C0110F93
:1039E0006D897E89D701ED91FC91B4E01B9FA00108
:1039F0001124C616D70609F044C00190F081E02DCD
:103A0000BA01C7010995009709F442C020E1F60107
:103A1000DC0101900D922A95E1F79E8B8D8B188F1A
:103A20000D891E898F8921E0280F2F8BE4E08E9F5E
:103A3000C0011124080F191F90E1B92E203111F493
:103A40008FE0B82EF6E0BF9EB0011124D701ED91B2
:103A5000FC910190F081E02DC7010995F801938355
:103A60008283892B09F4B12CD801BC9211961C9247
:103A7000012B71F0C6010E94D50EE62FF72F182FEB
:103A80008DCF0480F581E02DC7010995009729F6B7
:103A900081E08A8360E070E08FEFDF91CF911F912A
:103AA0000F91FF90EF90DF90CF90BF9008954F92CD
:103AB0005F926F927F928F929F92AF92BF92CF92BE
:103AC000DF92EF92FF920F931F93CF93DF9300D07B
:103AD00000D01F92CDB7DEB78C017B01B42E0E94BF
:103AE000B30E6C01892B09F048C0C8010E946F0E0B
:103AF000863609F4A9C124F5873229F08B3561F1A6
:103B0000823209F0A8C1D80115961C921E92149712
:103B100012968D919C911397892B39F48D919C91DC
:103B20000E943E07F80193838283C8010E94881295
:103B30006C01892B11F5B701C8010E9467131DC0E4
:103B4000843709F460C18B3709F47BC08E3609F0E5
:103B500082C161E971E060C180E4D70114968C9361
:103B60001497E114F10421F08FEF8C9311968C934C
:103B7000B1101AC025E0C22ED12CC6010F900F90B3
:103B80000F900F900F90DF91CF911F910F91FF90A9
:103B9000EF90DF90CF90BF90AF909F908F907F90ED
:103BA0006F905F904F900895F8011286C8010E94AF
:103BB000B30E009751F56DE5C8010E947F0E81118B
:103BC000DCCFBA94D8011B966D907C90C3010E9403
:103BD000BA1CA82E4B01672B21F494E0C92ED12CDE
:103BE000CCCFF70161816F3F91F0C30145960E94F0
:103BF000430EDC011596AC92F701A1824B2DB40166
:103C0000C8010E94571D009739F06C01B6CFD7014B
:103C10008C9311968C93F2CFC8010E94B30E00973B
:103C2000A1F76DE5C8010E947F0E8111A6CF6CE25D
:103C3000C8010E947F0E8111C5CF83E0C82ED12C10
:103C40009CCF80E2F7018483E114F10419F08FEF37
:103C500080838183BB2009F48DCFD8011A961C92F2
:103C6000C8010E94B30E009781F66DE7C8010E945B
:103C70007F0E811182CFBA94F8011582148282815D
:103C80009381892B49F4808191810E943E07D8015C
:103C900013969C938E931297C8010E946F0E8732E1
:103CA000F9F08232E9F0C8010E946F0ED82E0E940E
:103CB0005D0E882311F2F80112866D2DC8010E9455
:103CC0005A12C8010E946F0ED82E0E945D0E8111FB
:103CD000F2CFD80112968D919C91892B41F47DCF22
:103CE000C8010E9488126C01892B09F046CFC801D7
:103CF0000E94B30E6C01892B09F03FCF6AE3C80123
:103D00000E947F0E882309F498CFD8011296ED9176
:103D1000FC91139714968D919C911597E80FF91FBC
:103D2000148214966D917C9115977F771B966D90F8
:103D30007C901C9712968D919C910496272F2F773B
:103D4000BA2DB078AB2EA22AE894A7F89301AC0163
:103D50007A2DC7010E944F196C01009761F5C301CC
:103D60000E94BA1C482E4B01672B09F436CFC301C1
:103D70000E94BA1C582E962FC92ED72EC114D104DA
:103D800009F42BCFF4015582D70111966C916F3F46
:103D900071F0C30145960E94430EFC014582D70194
:103DA00011965C92B401C8010E94671307C0F70125
:103DB00040825182F7CFB3010E9404144B2DB6010B
:103DC000C8010E94571D6C01892B09F0D6CEC8018D
:103DD0000E94B30E6C01892B09F0CFCE6DE7C801AC
:103DE0000E947F0E8111C9CE6CE2C8010E947F0E35
:103DF000882309F422CFC8010E94B30E6C01892BDD
:103E000009F43ACFBACE86E0D70114968C93149772
:103E100081E08C9366E871E0C8010F900F900F90DD
:103E20000F900F90DF91CF911F910F91FF90EF9026
:103E3000DF90CF90BF90AF909F908F907F906F90CA
:103E40005F904F900C94900E86E0F701848310826F
:103E50006BE871E0E1CFC8010E946F0E4801FDE000
:103E60008F0E911CB12C782CA92C803384F08A33CE
:103E700084F43FE3B316A9F0D8011A961C92B394C8
:103E8000F40181934F01C8010E946F0EEECF8B3277
:103E900081F393ED980F923060F3982F9F7D9534C6
:103EA00041F30B0D111DD8011D961C92872D9A2DE3
:103EB0000E94B3103A834B835C836D838A819B811C
:103EC000AC81BD812230A9F0233059F0213009F0B6
:103ED000B4CE2EE0F701248380839183A283B38341
:103EE0004CCE2AE0F701248380839183A283B3839D
:103EF00044CE2CE0F7CF2F923F924F925F926F9279
:103F00007F928F929F92AF92BF92CF92DF92EF9269
:103F1000FF920F931F93CF93DF93CDB7DEB7C55FAB
:103F2000D1090FB6F894DEBF0FBECDBF6E012EECE7
:103F3000C20ED11C82E291E0F6019183808312824D
:103F400014821382C6010596968B858B178A84E0AE
:103F5000808F8FEF818F168E878F9E012F5F3F4F4F
:103F6000790110E000E00E946F0860936202709394
:103F7000630280936402909365028AE592E00E9456
:103F8000690B97FD02C00C94812E0E946F088090EF
:103F9000620290906302A0906402B090650268197A
:103FA00079098A099B0980905E0290905F02A09037
:103FB0006002B0906102681579058A059B05E8F2F8
:103FC0000F37110561F48AE592E00E948B0B892B73
:103FD00031F08AE592E00E94690B0A97A1F7E1E0CF
:103FE000F0E0EC0FFD1FE00FF11F1082053011050E
:103FF00070F045E050E066E971E0CE0101960E9464
:10400000233E892B21F485EC99E00C94D62AF60105
:1040100060817181C60105960E94010FF60112822E
:1040200000811181F60183819481009751F0FC0198
:1040300020813181F60134832383B8010E94FA1371
:10404000F1CF168ECF57DF4FD982C882C158D040EA
:10405000CD57DF4F19821882C358D040CB57DF4F5E
:1040600019821882C558D040C957DF4F1882C758E7
:10407000D04021E030E02C0F3D1FC857DF4F39837F
:104080002883C858D040C557DF4F1882CB58D0403E
:10409000C457DF4FD982C882CC58D0404AE0B6011D
:1040A000665E7F4FCE018F579F4F0E94571D8C0138
:1040B000892B69F4C657DF4F8881CA58D0408823BE
:1040C00031F0F601868D83FF02C003E010E0CD578A
:1040D000DF4F88819981C358D040009751F0CF5766
:1040E000DF4FE881F981C158D040608171810E9421
:1040F000FA1301151105F9F08EE497E00E941A0CED
:10410000F801EE0FFF1FE25FFB4F859194910E9433
:104110001A0C8BE497E00E946F178AE592E00E94E8
:104120008B0B1816190614F00C942F298AE592E0CF
:104130000E94690BF2CFCF57DF4FD982C882C15896
:10414000D0408CE991E0CD57DF4F99838883C358E5
:10415000D04083E0CB57DF4F8883C558D040CA5743
:10416000DF4F1881C658D04010781068CA57DF4F0B
:104170001883C658D040CE018F579F4F0E94D41944
:10418000009711F40C942F29FC018481882311F4E9
:104190000C942F291068CA57DF4F1883C658D04097
:1041A000CE018F579F4F0E94D419DC01009709F46C
:1041B0003CC21496EC911497E250ED3008F035C2F1
:1041C000F0E0EB51FF4D0C943B3C1A2315231823D0
:1041D00044231523152315231523F2201523052326
:1041E000152348238D919D910D90BC91A02D811593
:1041F000F0E89F07A105B10508F017C2BC01693DB1
:1042000091E0790709F4B8C20CF066C36837F1E0B1
:104210007F0711F40C94BB290CF0B7C2673331E06F
:10422000730709F47AC70CF070C26D3251E075075C
:1042300009F4AEC60CF05DC26C3291E0790709F466
:10424000AFC6673D710511F40C94EB2B0CF0A1C5C2
:10425000603D710511F40C94D02A0CF01AC5663635
:10426000710511F40C94172E0CF07EC464367105A0
:1042700011F40C940F2E6536710509F0D6C10E9419
:104280006F084B015C0180923A0290923B02A0922F
:104290003C02B0923D028CE493E00E94EC0C8092D0
:1042A0000D0390920E03A0920F03B092100381E0D1
:1042B000809311031092120380911D03A0910103BA
:1042C000B0910203E091FF02F091000330901903D6
:1042D00020901A03882311F40C94B62C80E01097D8
:1042E00011F016968C91309711F40C94BB2C282F5A
:1042F0008681932D222311F40C94922E882311F49D
:104300000C94BF2C822D9093190380931A03890F6C
:1043100080933203813818F080E8809332038091D3
:10432000320381110C94CA2C10923003309219037D
:1043300020921A038EE792E00E946F1781E392E0C9
:104340000E941A0C809111010E940E158EE192E0DC
:104350000E941A0C809110010E940E158DE092E0CF
:104360000E941A0C809112010E940E158BEF91E0B1
:104370000E941A0C80913F020E940E1588EE91E077
:104380000E941A0C80913E02882311F40C940B2E8B
:104390008AE191E00E941A0C0E94151589EC91E0C7
:1043A0000E941A0C60911E0170911F0180912001E2
:1043B000909121010E940B1587EB91E00E941A0C4D
:1043C000609118017091190180911A0190911B015F
:1043D0000E940B1586EA91E00E941A0C60911C0164
:1043E00070911D0190E080E04AE00E94971483E9FB
:1043F00091E00E941A0C60910E0170910F0190E003
:1044000080E04AE00E94971480E891E00E941A0C34
:1044100060910C0170910D0190E080E04AE00E94F3
:10442000971483E791E00E941A0C60910801709143
:10443000090180910A0190910B010E940B1587E6FA
:1044400091E00E941A0C6091040170910501809125
:104450000601909107010E940B158BE591E00E94E7
:104460001A0C6091000170910101809102019091FC
:1044700003010E940B150E941515E0901C01F0909D
:104480001D0110E000E020911E0130911F014091BC
:104490002001509121016091F60387E591E00E948F
:1044A0004B16E090DC03F090DD030091DE031091E9
:1044B000DF03209118013091190140911A015091A8
:1044C0001B016091D50382E591E00E944B1620917B
:1044D000C2033091C3034091C4035091C50360915E
:1044E000BF038DE491E00E941C162091AC03309133
:1044F000AD034091AE035091AF036091A90387E4EF
:1045000091E00E941C16E0901301F09014010091BC
:104510001501109116012091170130E050E040E0A4
:104520006091680381E491E00E944B1660918E03D4
:104530008CE391E00E94FF1560914F0381E391E0CD
:104540000E94FF154091470460913D0488E291E08C
:104550000E94D31540912104609117048FE191E0EE
:104560000E94D31580913A0290913B02A0913C02A7
:10457000B0913D02E0912501F09126018083918365
:10458000A283B383E0912701F09128018083918376
:10459000A283B383E0912901F0912A018083918362
:1045A000A283B383E0912B01F0912C01808391834E
:1045B000A283B383E0912D01F0912E01808391833A
:1045C000A283B383E0912F01F09130018083918326
:1045D000A283B383E0913101F09132018083918312
:1045E000A283B383E0913301F0913401309721F03D
:1045F00080839183A283B383E0913501F0913601EA
:1046000080879187A287B3872AC68D919D910D904F
:10461000BC91A02D8C019D0110582F4F3F4F0115CB
:1046200011052140310508F4E9CD8AE194E0BEC7C7
:104630008D919C910E94B310C251DF4F2883CE5EB2
:10464000D040C151DF4F3883CF5ED040C051DF4FE3
:104650004883C05FD040CF50DF4F5883C15FD04008
:10466000CE50DF4F6883C25FD040C151DF4F88809A
:104670009980AA80BB80CF5ED040223039F12330B0
:1046800089F1213091F608C08D919C910496D2CF8A
:104690008D909D90AD90BC9020E030E040E057ECD4
:1046A000C501B4010E94223C87FDBFCF20E03EEF50
:1046B0004FEF56E4C501B4010E944F3918160CF4AF
:1046C000B4CFC501B4010E94EC3B99CDD501C40122
:1046D0009058AF4FBF4F0097A140B10508F0A5CF4C
:1046E000B4018DCD811480E89806A104B104C0F313
:1046F0009CCF6F32E1E07E0709F4EBC46633F1E052
:104700007F0709F09ECD60E009C5633721E072079D
:1047100009F448C43CF5693341E0740709F091CDD0
:1047200000912B0110912C010E946F08F801618B00
:10473000728B838B948B85849684A784B088DC01EC
:10474000CB01880D991DAA1DBB1D858B968BA78B50
:10475000B08F81E080A347EB53E06DEB73E082EC18
:1047600093E0D8C4643751E0750709F469C465372C
:1047700081E0780709F065CD6D37F1E07F07B1F191
:104780006E37714009F459C46AC5613991E07907FF
:1047900009F4E9C40CF064C06E37F1E07F0709F456
:1047A000C2C40CF051C06D3731E0730709F049CD38
:1047B000EE24EA94FE2C00E010E021E030E040E03E
:1047C00050E060EA71E0C6010E94D21B9B01AC017F
:1047D000E0912B01F0912C01218732874387548788
:1047E00065ED73E08FED93E00E94B916CF57DF4F70
:1047F000D982C882C158D04080EA91E0CD57DF4FBE
:1048000099838883C358D04089E0CB57DF4F888392
:10481000C558D040CA57DF4F8881C658D0408078ED
:104820008068CA57DF4F8883C658D040CE018F5763
:104830009F4F0E944E1B6093180170931901809343
:104840001A0190931B01F9C3623841E0740709F41F
:10485000A7C5603951E0750709F0F3CC60E084C466
:104860006B3981E0780709F4A6C464F46339E1E0A8
:104870007E0709F47EC46A39F1E07F0709F0E1CCD4
:1048800060E09AC46D3921E0720709F4B8C4683D4C
:1048900031E0730709F0D5CC10ECE12E17E2F12ED0
:1048A00009E010E021E030E040E050E06AEA71E029
:1048B000C6010E94D21B9B01AC01E0912D01F09139
:1048C0002E01218732874387548769EA73E082EBA0
:1048D00093E00E94B916C3C46F3942E0740709F42B
:1048E000E4C40CF084C0653F81E0780709F4A9C4F2
:1048F00054F5623EE1E07E0709F463C4C4F46C3D04
:1049000021E0720709F09DCC15E3E12EF12C00E0C7
:1049100010E022E030E040E050E063EB71E0C601DF
:104920000E94D21B80912D0190912E0136C5663ECA
:1049300031E0730709F447C5643F41E0740709F0AB
:1049400080CC60E07FC4683552E0750709F4A4C4E8
:10495000C4F4603492E0790709F073CC15E3E12EDA
:10496000F12C00E010E022E030E040E050E063EBAA
:1049700071E0C6010E94D21B8091310190913201F9
:104980000CC56935E2E07E0709F461C46B35F2E0DD
:104990007F0709F056CC00913301109134010115C5
:1049A000110509F45CC40E946F08AB01BC01F80159
:1049B000418B528B638B748B85859685A785B089D7
:1049C000840F951FA61FB71F858B968BA78BB08F63
:1049D000FF24F394F2A2C8010E94FE0CF801F4A295
:1049E00048E653E06EE673E083E793E093C36438F0
:1049F00023E0720709F4BDC40CF075C0643A42E0CC
:104A0000740709F4F3C40CF054C0603A82E07807EC
:104A100009F017CC10ECE12E17E2F12E09E010E0BE
:104A200021E030E040E050E06AEA71E0C6010E9417
:104A3000D21B9B01AC01E0913301F091340130971E
:104A400051F0258736874787508B69E473E082E50C
:104A500093E00E94B916CF57DF4FD982C882C15860
:104A6000D0408AEA91E0CD57DF4F99838883C358BD
:104A7000D04088E0CB57DF4F8883C558D040CA5715
:104A8000DF4F8881C658D04080788068CA57DF4F92
:104A90008883C658D040CE018F579F4F0E944E1B2F
:104AA0006093130170931401809315019093160184
:104AB000D6C3693A92E0790709F444C46A3AE2E05D
:104AC0007E0709F0BECBE0913301F09134013097BD
:104AD00009F4C5C381E081A34CE153E068E273E0CF
:104AE0008DE293E017C3603DF3E07F0709F498C4BB
:104AF000BCF4653833E0730709F433C4673843E026
:104B0000740709F09ECB80913501909136010E9487
:104B1000EC0C46E053E06CE073E081E193E0FAC214
:104B2000643354E0750709F4B1C4603685E0780752
:104B300009F087CB8091270190912801892B09F4F6
:104B40008EC315E3E12EF12C00E010E022E030E00E
:104B500040E050E063EB71E0C6010E94D21B8091FF
:104B6000270190912801ABC46E3C710509F4B2C4D1
:104B70000CF0E3C46936710509F057CDCF57DF4F0C
:104B8000D982C882C158D0408DE092E0CD57DF4F26
:104B900099838883C358D04086E0CB57DF4F888302
:104BA000C558D040CA57DF4F8881C658D04080785A
:104BB0008068CA57DF4F8883C658D040CE018F57D0
:104BC0009F4F0E94D419009711F40C94202EFC01E1
:104BD0008481863011F00C94202ECE018F579F4F88
:104BE0000E94ED19182F0E946F084B015C01809103
:104BF0001103882311F40C947D2E112311F40C94CD
:104C0000232E81E080931203809213039092140369
:104C1000A0921503B0921603E091FF02F0910003F9
:104C2000309719F084810E949B08E0910103F09174
:104C30000203309719F084810E949B08E0910703DA
:104C4000F0910803309721F060E084810E94AB0767
:104C500080914F038823B9F080915D03811113C0C7
:104C60008CE493E00E94EC0C80925E0390925F03D0
:104C7000A0926003B092610381E080935D03F89499
:104C800010924E037894412F65E474E084E594E03B
:104C90006BC5633D710509F4F9C40CF040C0613D7A
:104CA000710509F4B9C4623D710509F0BECCCF5756
:104CB000DF4FD982C882C158D04080EA91E0CD57F9
:104CC000DF4F99838883C358D04089E0CB57DF4FAB
:104CD0008883C558D040CA57DF4F8881C658D04016
:104CE00080788068CA57DF4F8883C658D040CE018D
:104CF0008F579F4F0E944E1B4B015C0180921E01FB
:104D000090921F01A0922001B09221010E94460FB3
:104D1000A501940165E176E082E296E0DACD653D99
:104D2000710509F424C50CF4E9C4CF57DF4FD982CB
:104D3000C882C158D04088ED91E0CD57DF4F9983AC
:104D40008883C358D04088E0CB57DF4F8883C5584D
:104D5000D040CA57DF4F8881C658D04080788068DD
:104D6000CA57DF4F8883C658D040CE018F579F4F18
:104D70000E94961A8C0190930F0180930E010E945D
:104D8000460F980150E040E06EE475E08DE595E057
:104D9000A0CD653B92E0790709F4D5C50CF0CDC0F4
:104DA0006A3D710509F483C50CF040C0683D71058A
:104DB00009F445C5693D710509F037CCCF57DF4F80
:104DC000D982C882C158D0408AEE91E0CD57DF4FDA
:104DD00099838883C358D04087E0CB57DF4F8883BF
:104DE000C558D040CA57DF4F8881C658D040807818
:104DF0008068CA57DF4F8883C658D040CE018F578E
:104E00009F4F0E944E1B4B015C01809204019092C7
:104E10000501A0920601B09207010E94460FA5016C
:104E2000940160E175E088E195E053CD633BF2E0E9
:104E30007F0709F475C50CF07CC56B3D710509F061
:104E4000F4CB08EC10E0C251DF4F19830883CE5E2B
:104E5000D040CF57DF4FD982C882C158D0408AEFA7
:104E600091E0CD57DF4F99838883C358D04088E0C5
:104E7000CB57DF4F8883C558D040CA57DF4F888152
:104E8000C658D04080788068CA57DF4F8883C6589C
:104E9000D040BE0162517F4FCE018F579F4F0E947D
:104EA0001C1B7C01C251DF4F19830883CE5ED040AA
:104EB000CF57DF4FD982C882C158D04083E092E0FB
:104EC000CD57DF4F99838883C358D04089E0CB57B3
:104ED000DF4F8883C558D040CA57DF4F8881C658F6
:104EE000D04080788068CA57DF4F8883C658D0404A
:104EF000BE0162517F4FCE018F579F4F0E941C1BF6
:104F00008C0181E08093E903F092EC03E092EB03E3
:104F10001093EE030093ED03970150E040E06FEE35
:104F200074E088EF94E00E94B916980150E040E0E8
:104F300060EE74E08AEE94E0CCCC683E33E0730718
:104F400009F4C0C29CF4663B52E0750709F405C53C
:104F5000673B724009F069CB81E080930C034FE519
:104F600054E063E674E08FE694E0D4C0643195E0E9
:104F7000790709F4ADC26531E5E07E0709F4A4C202
:104F8000693E734009F051CB61E087E394E005C0CE
:104F900061E08091290190912A010E948A185FC1E5
:104FA00060E0F7CFEE24EA94FE2C00E010E021E070
:104FB00030E040E050E060EA71E0C6010E94D21BA0
:104FC0009B01AC01E0912901F0912A0121873287F0
:104FD0004387548760E074E08AE094E00E94B91649
:104FE000CF57DF4FD982C882C158D04080EA91E0C4
:104FF000CD57DF4F99838883C358D04089E0CB5782
:10500000DF4F8883C558D040CA57DF4F8881C658C4
:10501000D04080788068CA57DF4F8883C658D04018
:10502000CE018F579F4F0E944E1B60931E017093BD
:105030001F0180932001909321010E94460F0FC110
:1050400010ECE12E17E2F12E09E010E021E030E053
:1050500040E050E06AEA71E0C6010E94D21B9B0169
:10506000AC01E0912901F0912A0125873687478715
:10507000508B63EF73E08CEF93E00E94B916CF572B
:10508000DF4FD982C882C158D0408AEA91E0CD571B
:10509000DF4F99838883C358D04088E0CB57DF4FD8
:1050A0008883C558D040CA57DF4F8881C658D04042
:1050B00080788068CA57DF4F8883C658D040CE01B9
:1050C0008F579F4F0E94961A90931D0180931C0149
:1050D000B4CF0091290110912A010E946F08F801B4
:1050E000618B728B838B948B85849684A784B08824
:1050F000DC01CB01880D991DAA1DBB1D858B968BEC
:10510000A78BB08F81E080A344EE53E06AEE73E09A
:105110008FEE93E00E94D717A2C061E080912B012F
:1051200090912C013ACF10ECE12E17E2F12E09E01C
:1051300010E021E030E040E050E06AEA71E0C601B2
:105140000E94D21B9B01AC01E0912B01F0912C013C
:10515000258736874787508B67EC73E080ED93E0B7
:105160000E94B9166ACF61E080912D0190912E01C5
:1051700014CF00912D0110912E010E946F08F801AB
:10518000658776878787908B81849284A384B48493
:10519000DC01CB01880D991DAA1DBB1D818B928B53
:1051A000A38BB48B81E0858B49E953E06FE973E011
:1051B00084EA93E0AFCF61E080912F0190913001BC
:1051C000ECCE10ECE12E17E2F12E09E010E021E028
:1051D00030E040E050E06AEA71E0C6010E94D21B74
:1051E0009B01AC01E0912F01F091300121873287C2
:1051F000438754876AE873E083E993E06ACB0091C0
:105200002F01109130010E946F08F80165877687A1
:105210008787908B81849284A384B484DC01CB0142
:10522000880D991DAA1DBB1D818B928BA38BB48BFE
:1052300081E0858B49E753E06FE773E084E893E012
:1052400069CF61E08091310190913201A6CE8091C9
:1052500033019091340161E0009709F09ECEC601C0
:105260000E946C14CB50DF4F0FB6F894DEBF0FBE18
:10527000CDBFDF91CF911F910F91FF90EF90DF9005
:10528000CF90BF90AF909F908F907F906F905F90E6
:105290004F903F902F900895809133019091340169
:1052A00060E0009709F079CEDACFEE24EA94FE2C84
:1052B00000E010E021E030E040E050E060EA71E022
:1052C000C6010E94D21B9B01AC01E0913301F09119
:1052D0003401309779F0211531054105510521F050
:1052E000218732874387548768E573E082E693E03D
:1052F0000E94B916CF57DF4FD982C882C158D0401B
:1053000080EA91E0CD57DF4F99838883C358D0401E
:1053100089E0CB57DF4F8883C558D040CA57DF4F4D
:105320008881C658D04080788068CA57DF4F88830C
:10533000C658D040CE018F579F4F0E941D1A8093B0
:1053400017018DCFE0913301F0913401309709F4CA
:1053500086CF11A243E353E06EE373E083E493E06E
:10536000D9CE61E080913501909136010E94B2174B
:1053700076CF60E0F7CF15E3E12EF12C00E010E0EE
:1053800022E030E040E050E063EB71E0C6010E94B3
:10539000D21B8091290190912A010E94F5185FCFBC
:1053A00015E3E12EF12C00E010E022E030E040E0D7
:1053B00050E063EB71E0C6010E94D21B80912B018B
:1053C00090912C01EACF15E3E12EF12C00E010E0E2
:1053D00022E030E040E050E063EB71E0C6010E9463
:1053E000D21B80912F0190913001D7CF8091330152
:1053F00090913401892B09F432CF15E3E12EF12C81
:1054000000E010E022E030E040E050E063EB71E0CB
:10541000C6010E94D21B8091330190913401BDCF0F
:1054200015E3E12EF12C00E010E022E030E040E056
:1054300050E063EB71E0C6010E94D21BF62E009192
:10544000350110913601F8018485882331F060E040
:1054500080810E94AB07F8011486F801F08261E0B8
:105460008F2D0E94D90760E0F80180810E94AB0770
:1054700082EC92E00E941A0CF8018081082E000C48
:10548000990B0E94DB140E941515E9CE809125012D
:1054900090912601892B09F4E2CE15E3E12EF12C3F
:1054A00000E010E022E030E040E050E063EB71E02B
:1054B000C6010E94D21B80912501909126010E9475
:1054C0002B19CDCE60E061CD61E081E194E065CD46
:1054D00060E0FBCFCF57DF4FD982C882C158D040A0
:1054E00087EB91E0CD57DF4F99838883C358D04035
:1054F0008BE0CB57DF4F8883C558D040CA57DF4F6A
:105500008881C658D04080788068CA57DF4F88832A
:10551000C658D040CE018F579F4F0E941D1A182F9A
:10552000809312010E94460F212F30E050E040E0AE
:1055300063E377E080E497E0CCC9CF57DF4FD982AF
:10554000C882C158D04087EB91E0CD57DF4F998397
:105550008883C358D0408BE0CB57DF4F8883C55832
:10556000D040CA57DF4F8881C658D04080788068C5
:10557000CA57DF4F8883C658D040CE018F579F4F00
:105580000E941D1A182F80933F020E94460F212F60
:1055900030E050E040E06AE177E088E297E099C9C6
:1055A00080911103882329F08DEB96E00E946F17FC
:1055B00056CECF57DF4FD982C882C158D04083EC36
:1055C00091E0CD57DF4F99838883C358D04085E061
:1055D000CB57DF4F8883C558D040CA57DF4F8881EB
:1055E000C658D04080788068CA57DF4F8883C65835
:1055F000D040CE018F579F4F0E941D1A182F8093C5
:1056000011010E94460F212F30E050E040E064EA93
:1056100076E082EB96E05DC980911103882319F052
:1056200087E496E0C3CFCF57DF4FD982C882C158F5
:10563000D04083EC91E0CD57DF4F99838883C358E6
:10564000D04085E0CB57DF4F8883C558D040CA573C
:10565000DF4F8881C658D04080788068CA57DF4FB6
:105660008883C658D040CE018F579F4F0E941D1A85
:10567000182F809310010E94460F212F30E050E038
:1056800040E06DE276E08CE396E023C9CF57DF4F30
:10569000D982C882C158D04080EA91E0CD57DF4F0F
:1056A00099838883C358D04089E0CB57DF4F8883E4
:1056B000C558D040CA57DF4F8881C658D04080783F
:1056C0008068CA57DF4F8883C658D040CE018F57B5
:1056D0009F4F0E944E1B4B015C01809218019092DB
:1056E0001901A0921A01B0921B010E94460FA50158
:1056F00094016CEF75E08AE096E0EBC880911103AD
:10570000882319F08AE995E051CFCF57DF4FD9822E
:10571000C882C158D04089EC91E0CD57DF4F9983C2
:105720008883C358D0408EE0CB57DF4F8883C5585D
:10573000D040CA57DF4F8881C658D04080788068F3
:10574000CA57DF4F8883C658D040CE018F579F4F2E
:105750000E94ED19182F80933E020E94460F412FA0
:1057600060E875E08FE895E00E94901678CDCF57FD
:10577000DF4FD982C882C158D0408AEA91E0CD5724
:10578000DF4F99838883C358D04088E0CB57DF4FE1
:105790008883C558D040CA57DF4F8881C658D0404B
:1057A00080788068CA57DF4F8883C658D040CE01C2
:1057B0008F579F4F0E94961A8C0190931D018093E2
:1057C0001C010E94460F980150E040E068E675E039
:1057D00085E795E07EC8CF57DF4FD982C882C15890
:1057E000D0408AEA91E0CD57DF4F99838883C35830
:1057F000D04088E0CB57DF4F8883C558D040CA5788
:10580000DF4F8881C658D04080788068CA57DF4F04
:105810008883C658D040CE018F579F4F0E94961A5A
:105820008C0190930D0180930C010E94460F98010A
:1058300050E040E067E375E083E495E04AC8CF5765
:10584000DF4FD982C882C158D04081EE91E0CD5758
:10585000DF4F99838883C358D04088E0CB57DF4F10
:105860008883C558D040CA57DF4F8881C658D0407A
:1058700080788068CA57DF4F8883C658D040CE01F1
:105880008F579F4F0E944E1B4B015C018092080175
:1058900090920901A0920A01B0920B010E94460F5A
:1058A000A501940163E275E08CE295E012C8CF5740
:1058B000DF4FD982C882C158D04082EF91E0CD57E6
:1058C000DF4F99838883C358D04087E0CB57DF4FA1
:1058D0008883C558D040CA57DF4F8881C658D0400A
:1058E00080788068CA57DF4F8883C658D040CE0181
:1058F0008F579F4F0E944E1B4B015C01809200010D
:1059000090920101A0920201B09203010E94460F01
:10591000A50194016DEF74E085E095E00C94692495
:1059200010920B0345EC54E06DEC74E08AED94E0CA
:10593000F1CB81E080930B0349EA54E062EB74E021
:105940008FEB94E0E7CB82E080930B034EE854E0CA
:1059500066E974E083EA94E0DDCB10920C0345E73E
:1059600054E06CE774E088E894E0D4CB309709F019
:105970008681109739F4932D882309F4D5C180E0EE
:105980000C948321282F16968C910C94792190E009
:105990000C94822180E480937C0080917A00806462
:1059A00080937A0080917A0086FDFCCF0091780088
:1059B00010917900012E000C220B330BC501B401AC
:1059C000602771278227932780169106A206B306C7
:1059D00011F00E9446390091190310911A03100F1B
:1059E000113850F030E8039FC0011124612F70E09E
:1059F0000E94273C062F10E842E3CD50DF4F48833A
:105A0000C35FD040ECE3F3E020E111922A95E9F77F
:105A1000802F8117A0F4E82FE695E695E695F0E053
:105A2000E45CFC4F982F977021E030E001C0220F1A
:105A30009A95EAF79081922B90838F5FEACFFF24AB
:105A4000FA94F10E4F2C512C712C612C3FEF431A1C
:105A5000530A630A730AFF2009F45EC00E94F738F4
:105A6000A30192010E94733AE62ECB50DF4F688368
:105A7000C55FD0408F2D0E942507CC50DF4F888313
:105A8000C45FD0408E2D0E942507F7FC16C0EF2D75
:105A9000E695E695E695F0E0E45CFC4F90812F2DCD
:105AA000277041E050E002C0440F551F2A95E2F7ED
:105AB0009A01882359F1292B2083CB50DF4F58813D
:105AC000C55FD04057FD1BC0EE2DE695E695E695E7
:105AD000F0E0E45CFC4F20819E2D977041E050E0A7
