:100000000C9401060C94652E0C943E2E0C94402FFB
:100010000C9429060C9429060C9429060C948C2E19
:100020000C9429060C9429060C9429060C94290694
:100030000C9429060C9429060C9429060C94290684
:100040000C94F42D0C9429060C940E2F0C94E82E8D
:100050000C9429060C9429060C9429060C94290664
:100060000C9429060C942906546F6F446565700042
:100070004E6F4D656D6F727900496E76616C696483
:10008000496E70757400496E636F6D706C65746550
:10009000496E70757400456D707479496E70757431
:1000A000004F6B00CDCCCC3D0AD7233C17B7D138DD
:1000B00077CC2B329595E6241FB14F0A00002041E2
:1000C0000000C84200401C4620BCBE4CCA1B0E5A51
:1000D000AEC59D74227D007B226C6576656C223AEC
:1000E00022303031222C22646576696365223A22FF
:1000F000434F4E54524F4C4C4552222C2264657350
:1001000063223A225052207468726573686F6C647F
:100110002063617070656420617420007B226C65CF
:1001200076656C223A22303030222C226465766962
:100130006365223A22534C4D222C22706172616D0C
:10014000223A2274696D657374616D705F70696EB7
:10015000222C2276616C7565223A007B226C6576D2
:10016000656C223A22303037222C2264657669632E
:1001700065223A22434F4E54524F4C4C4552222C4A
:10018000226576656E74223A22454E44222C2274F2
:10019000696D657374616D70223A004C4800524875
:1001A000007B226C6576656C223A22303030222C3E
:1001B000227661726961626C655F696E74657276E0
:1001C000616C223A004C455645525F4C48004C4504
:1001D0005645525F524800534C4D004D4943524FD3
:1001E00053434F5045004C49434B004C41534552FB
:1001F0000050554D50320050554D5000435545323A
:100200000043554500222C2274726163655F696E5C
:1002100074657276616C223A002C2261637469768F
:10022000655F6C65766572223A22007B226C65768A
:10023000656C223A22303030222C22646576696364
:1002400065223A22434F4E54524F4C4C4552222C79
:1002500022706172616469676D223A225641524987
:1002600041424C455F494E54455256414C222C2246
:1002700074696D656F7574223A007B226C657665D2
:100280006C223A22303037222C226465766963650D
:10029000223A22434F4E54524F4C4C4552222C226C
:1002A0006576656E74223A225354415254222C22B0
:1002B00074696D657374616D70223A307D007B22C4
:1002C0006C6576656C223A22303030222C226465CF
:1002D00076696365223A224D4943524F53434F504A
:1002E00045222C22706172616D223A227472696714
:1002F0006765725F70696E222C2276616C7565226B
:100300003A0046495245440074657374004D4943B0
:10031000524F53434F504500494E444550454E447B
:10032000454E54006D6F6465004C41534552004387
:100330004F4E54494E47454E54006D6F6465004C16
:1003400041534552006475726174696F6E004C418F
:10035000534552006672657175656E6379004C4154
:100360005345520046495245440074657374004C2D
:100370004153455200464952454400746573740028
:1003800050554D5032006475726174696F6E005043
:10039000554D50320046495245440074657374000F
:1003A00050554D50006475726174696F6E00505500
:1003B0004D500046495245440074657374004355DE
:1003C0004532006475726174696F6E004355453241
:1003D000006672657175656E63790043554532003C
:1003E00046495245440074657374004355450064A2
:1003F00075726174696F6E00435545006672657170
:1004000075656E63790043554500A100960086002E
:100410007900700068007B226C6576656C223A2258
:10042000303036222C2264657363223A22436F6D8A
:100430006D616E64206E6F7420666F756E64227DD0
:10044000006C657665725F66696C74657200434F17
:100450004E54524F4C4C45520073657373696F6E26
:100460005F70617573656400434F4E54524F4C4C3E
:10047000455200746573745F6D6F646500434F4E41
:1004800054524F4C4C455200464952454400746505
:1004900073745F636861696E00434F4E54524F4CF2
:1004A0004C45520050554D500050554D5032006152
:1004B00063746976655F70756D7000434F4E54527A
:1004C0004F4C4C45520074726163655F696E746590
:1004D0007276616C00434F4E54524F4C4C45520063
:1004E00076695F696E74657276616C00434F4E5435
:1004F000524F4C4C4552007265696E666F7263656F
:1005000064004C455645525F4C48007265696E6602
:100510006F72636564004C455645525F4C480074E9
:10052000696D656F7574004C455645525F4C4800C7
:100530007265696E666F72636564004C455645521C
:100540005F5248007265696E666F72636564004C45
:10055000455645525F52480074696D656F75740069
:100560004C455645525F524800227D007B226C6507
:1005700076656C223A22303036222C226465736311
:10058000223A220044495341524D45440041524DC4
:10059000454400227D002C2264657363223A2200C8
:1005A000222C2270696E223A007B226C6576656C83
:1005B000223A22303031222C22646576696365222A
:1005C0003A2200222C22706172616D223A227069F7
:1005D0006E222C2276616C7565223A007B226C6556
:1005E00076656C223A22303030222C22646576699E
:1005F0006365223A2200222C2276616C7565223ACC
:1006000000222C22706172616D223A22007B226CE2
:100610006576656C223A22303030222C2264657671
:10062000696365223A220066616C736500747275B5
:100630006500222C2276616C7565223A00222C22FC
:10064000706172616D223A22007B226C6576656C66
:10065000223A22303030222C22646576696365228A
:100660003A2200227D00222C2276616C7565223AA6
:100670002200222C22706172616D223A22007B22BC
:100680006C6576656C223A22303030222C2264650B
:1006900076696365223A220044495341524D4544EC
:1006A0000041524D454400227D002C226465736355
:1006B000223A22007B226C6576656C223A22303029
:1006C00031222C22646576696365223A224D4943C2
:1006D000524F53434F5045222C2270696E223A00EC
:1006E00066616C73650074727565002C22647572A6
:1006F0006174696F6E223A002C22667265717565AD
:100700006E6379223A00222C2261726D6564223A6E
:10071000007B226C6576656C223A22303030222CC8
:1007200022646576696365223A220066616C7365AE
:100730000074727565002C226475726174696F6E45
:10074000223A00222C2261726D6564223A007B22DB
:100750006C6576656C223A22303030222C2264653A
:1007600076696365223A220066616C736500747273
:10077000756500222C2261726D6564223A007B222D
:100780006C6576656C223A22303030222C2264650A
:1007900076696365223A220066616C736500747243
:1007A00075650066616C73650074727565002C2256
:1007B0007265696E666F72636564223A00222C224C
:1007C00061726D6564223A007B226C6576656C22ED
:1007D0003A22303030222C22646576696365223AF1
:1007E0002200027B226C6576656C223A2230303022
:1007F000222C22646576696365223A22434F4E5467
:10080000524F4C4C4552222C22736B657463682204
:100810003A2276692E696E6F222C22766572736990
:100820006F6E223A2276322E302E30222C226261D6
:1008300075645F72617465223A3131353230302C23
:10084000227363686564756C65223A225641524989
:1008500041424C455F494E54455256414C227D0021
:100860002C22656E645F74696D657374616D7022AE
:100870003A002C226576656E74223A224C49434B2D
:10088000222C2273746172745F74696D6573746174
:100890006D70223A00222C2270696E223A007B226F
:1008A0006C6576656C223A22303037222C226465E2
:1008B00076696365223A22002C22656E645F746952
:1008C0006D657374616D70223A002C226576656ED9
:1008D00074223A225354494D222C2273746172744B
:1008E0005F74696D657374616D70223A007B226C70
:1008F0006576656C223A22303037222C2264657688
:10090000696365223A224C41534552222C22706978
:100910006E223A002C226576656E74223A22544982
:100920004D455354414D50222C2274696D657374AA
:10093000616D70223A007B226C6576656C223A22EA
:10094000303038222C22646576696365223A224D64
:100950004943524F53434F5045222C2270696E2217
:100960003A002C226576656E74223A2254494D4530
:100970005354414D50222C2274696D657374616D1E
:1009800070223A007B226C6576656C223A22303008
:1009900039222C22646576696365223A22534C4DD4
:1009A000222C2270696E223A0000000000240027E9
:1009B000002A0000000000250028002B0000000095
:1009C0000023002600290004040404040404040293
:1009D00002020202020303030303030102040810DC
:1009E00020408001020408102001020408102000A9
:1009F00000000800020100000304070000000000DE
:100A000000000044495341524D45440041524D4578
:100A10004400227D002C2264657363223A22007B0D
:100A2000226C6576656C223A22303031222C2264A9
:100A30006576696365223A22534C4D222C227069F7
:100A40006E223A0054494D454F555400494E41439A
:100A5000544956450041435449564500227D002CD7
:100A6000226F7269656E746174696F6E223A22003A
:100A70002C22656E645F74696D657374616D70229C
:100A80003A00222C2273746172745F74696D65730D
:100A900074616D70223A002C226576656E74223A7C
:100AA000225052455353222C22636C617373223AB5
:100AB00022007B226C6576656C223A223030372228
:100AC0002C22646576696365223A22535749544360
:100AD000485F4C45564552222C2270696E223A00DE
:100AE0002C227363686564756C65645F6174223A77
:100AF000002C22746172676574223A007B226C6557
:100B000076656C223A22303036222C226572726F62
:100B1000725F636F6465223A22455F50454E4449D7
:100B20004E475F46554C4C222C2264657363223A33
:100B30002250656E64696E6720616374696F6E2010
:100B400071756575652066756C6C20E28094206116
:100B50006374696F6E2064726F70706564222C22FA
:100B6000616374696F6E5F74797065223A005354E3
:100B7000494D00494E465553494F4E00494E465542
:100B800053494F4E00544F4E4500544F4E45004C74
:100B9000415345520050554D505F320050554D5015
:100BA000004355455F3200435545002C22656E6475
:100BB0005F74696D657374616D70223A00222C2236
:100BC00073746172745F74696D657374616D7022A2
:100BD0003A002C226576656E74223A2200222C227D
:100BE00070696E223A007B226C6576656C223A222F
:100BF000303037222C22646576696365223A220000
:100C0000EE2F11241FBECFEFD8E0DEBFCDBF12E024
:100C1000A0E0B1E0E4EBF9E702C005900D92A43446
:100C2000B107D9F725E0A4E4B2E001C01D92AB3FC3
:100C3000B207E1F716E0C1E0D6E004C02197FE015B
:100C40000E94CB3AC030D107C9F70E9443330C94BD
:100C5000D83C0C940000CF93DF93EC0188819981FC
:100C6000DC01ED91FC910190F081E02D64E270E0F7
:100C70000995009741F02FE1FC01238321E02283B5
:100C8000DF91CF91089521E02A83FACFCF92EF929E
:100C9000FF920F931F93EDE0F3E032E0328B138A63
:100CA00031E0348B41A752A763A774A711A212A207
:100CB00013A214A215A216A217A210A615A649E007
:100CC00046A744E647A712AA44E040939703109230
:100CD0005B0343E040935C0310925D0310925E035C
:100CE00010925F0310926003409197055091980510
:100CF0006091990570919A05409361035093620346
:100D0000609363037093640310926503C09266035B
:100D10004E0D5F1D601F711F409367035093680362
:100D20006093690370936A03FC0181859285A385B2
:100D3000B48580936B0390936C03A0936D03B09381
:100D40006E0310926F0387E08093700340937103EA
:100D5000509372036093730370937403809105053D
:100D600090910605A0910705B09108058093750341
:100D700090937603A0937703B0937803309379032D
:100D800020937A0310927B0310927C0310927D03D0
:100D900010927E038091C9049091CA04A091CB0463
:100DA000B091CC0480937F0390938003A093810340
:100DB000B09382031F910F91FF90EF90CF90089511
:100DC0006093C9047093CA048093CB049093CC04BD
:100DD00030919703EBE5F3E020E023130DC0309151
:100DE000D403E8E9F3E020E02317B1F0408141307B
:100DF00071F02F5F3A96F8CF4081413019F02F5FA4
:100E00003A96EBCF6683778380879187F8CF6683A6
:100E1000778380879187EDCF0895E3EEF3E010822A
:100E20003F9684E0E33DF807D1F70895833081F0E1
:100E300028F4813099F08230A9F008958730A9F024
:100E40008830C9F08430B1F4809180008F7D03C078
:100E5000809180008F7780938000089584B58F778C
:100E600084BD089584B58F7DFBCF8091B0008F77CE
:100E70008093B00008958091B0008F7DF9CFCF931B
:100E8000DF93282F30E0F901E151F64F8491F90109
:100E9000E552F64FD491F901E953F64FC491CC23B2
:100EA000A1F081110E941607EC2FF0E0EE0FFF1F5A
:100EB000E354F64FA591B491EC91ED2381E090E0DD
:100EC00009F480E0DF91CF91089580E090E0FACFBF
:100ED0001F93CF93DF93282F30E0F901E151F64FB4
:100EE0008491F901E552F64FD491F901E953F64F97
:100EF000C491CC23A9F0162F81110E941607EC2F64
:100F0000F0E0EE0FFF1FED54F64FA591B4918FB7AF
:100F1000F894EC91111108C0D095DE23DC938FBFBB
:100F2000DF91CF911F910895DE2BF8CFCF93DF9300
:100F300090E0FC01E552F64F24918953964FFC0155
:100F400084918823C9F090E0880F991FFC01E75530
:100F5000F64FA591B491FC01ED54F64FC591D49193
:100F600061110DC09FB7F8948C91209582238C93CA
:100F70008881282328839FBFDF91CF910895623015
:100F800051F49FB7F8943C91822F809583238C93E2
:100F9000E8812E2BEFCF8FB7F894EC912E2B2C936A
:100FA0008FBFEACF3FB7F8948091680290916902B1
:100FB000A0916A02B0916B0226B5A89B05C02F3F95
:100FC00019F00196A11DB11D3FBFBA2FA92F982F6F
:100FD0008827BC01CD01620F711D811D911D42E06A
:100FE000660F771F881F991F4A95D1F708958F9232
:100FF0009F92AF92BF92CF92DF92EF92FF920E94A8
:10100000D2074B015C0184E6C82ED12CE12CF12CD7
:101010000E94D207681979098A099B09683E7340C2
:1010200081059105A8F321E0C21AD108E108F10871
:1010300088EE880E83E0981EA11CB11CC114D10457
:10104000E104F10429F7FF90EF90DF90CF90BF907B
:10105000AF909F908F9008952FB7F894609164029D
:101060007091650280916602909167022FBF08958A
:101070000F931F93CF93DF93C0910B03D0910C0379
:10108000209781F081E08A830E942C0808851985C9
:101090002A853B85601B710B820B930B6C837D83D0
:1010A0008E839F83DF91CF911F910F9108950895B3
:1010B0009091040189130BC0E2EEF7E0E4919FEFF9
:1010C00090930401E13049F028F0E23061F060E0F3
:1010D0000C94680710926E00FACF90916F009D7F7C
:1010E00090936F00F4CF909170009D7F909370006B
:1010F00091E09093B0009091B100987F94609093AC
:10110000B1001092B300E3CF4F925F926F927F9243
:101110008F929F92AF92BF92CF92DF92EF92FF9207
:101120000F931F93CF93DF9300D000D01F92CDB7C2
:10113000DEB78B0129013A01909104018917C9F0AA
:101140009F3F09F47EC00F900F900F900F900F906B
:10115000DF91CF911F910F91FF90EF90DF90CF9093
:10116000BF90AF909F908F907F906F905F904F90C7
:101170000895E2EEF7E094919D8397FDE4CF61E05E
:101180000E9496078D81882321F09D81923009F07D
:101190004AC14801B12CA12C60E072E18AE790E0DD
:1011A000A50198010E94173929833A834B835C83F8
:1011B00069017A0181E0C81AD108E108F1089FEFBE
:1011C000C916D104E104F10409F00CF401C160E492
:1011D00072E48FE090E0A50198010E94173969013F
:1011E0007A0181E0C81AD108E108F1089D819230A6
:1011F00009F0A2C08FEFC816D104E104F10409F090
:101200000CF4E6C160E970ED83E090E0A50198017F
:101210000E94173969017A0191E0C91AD108E108E1
:10122000F1088FEFC816D104E104F10411F00CF0BD
:101230007FC183E09091B100987F892B8093B100AA
:10124000CFC080930401E2EEF7E094919D839F3F2D
:1012500009F479CF913041F150F0923009F446C051
:101260009D8197FD70CF61E00E9496078ECF14BCE0
:1012700015BC94B5926094BD95B5916095BD282F2D
:1012800030E0F901E953F64FE491F0E0EE0FFF1F73
:10129000ED54F64F45915491F901E552F64FE49122
:1012A000E0934A021D826BCF109280001092810061
:1012B000909181009860909381009091810091605D
:1012C00090938100282F30E0F901E953F64FE49123
:1012D000F0E0EE0FFF1FED54F64F45915491F901E8
:1012E000E552F64FE491E093490249CF1092B000E5
:1012F0001092B1009091B00092609093B0009091E4
:10130000B10091609093B100282F30E0F901E953CA
:10131000F64FE491F0E0EE0FFF1FED54F64F4591CC
:1013200054915093540240935302F901E552F64F01
:10133000E491E093550223CF9FEFC916D104E10455
:10134000F10409F00CF46DC068E478EE81E090E0FF
:10135000A50198010E94173969017A0181E0C81A34
:10136000D108E108F1089D81992309F4FAC08FEFB3
:10137000C816D104E104F10411F00CF0FBC0EFC079
:1013800064E274EF80E090E0A50194010E941739B7
:1013900069017A0181E0C81AD108E108F10885E005
:1013A0009FEFC916D104E104F10409F008F442CF1B
:1013B00062E17AE780E090E0A50194010E9417398C
:1013C00069017A0181E0C81AD108E108F108E5C095
:1013D00081E09D8191112ECF95B5987F892B85BD98
:1013E0002FEF3FEFA901411451046104710409F08A
:1013F00043C09D81913009F45EC0923009F46DC004
:101400009111A1CEC7BC20934F023093500240935C
:1014100051025093520280916E00826080936E0060
:1014200092CE82E0D6CFB12CA12C60E072E18AE7A7
:1014300090E0A50198010E94173969017A0181E0C5
:10144000C81AD108E108F108C114D10491E0E906F5
:10145000F10404F591E08D81813011F680918100D5
:10146000887F892B809381002FEF3FEFA9014114E2
:10147000510461047104F9F0D801AA0FBB1FA30144
:1014800092010E94363928EE33E040E050E00E949D
:101490008039AFCF68E478EE81E090E0A501980153
:1014A0000E94173969017A0181E0C81AD108E10860
:1014B000F10893E0D0CFD0928900C09288002093A9
:1014C0004B0230934C0240934D0250934E02809158
:1014D0006F00826080936F0036CEC092B30020937D
:1014E000560230935702409358025093590280910C
:1014F000700082608093700026CE84E09FEFC91652
:10150000D104E104F10409F008F466CFC980DA805F
:10151000EB80FC808AE0F594E794D794C7948A9591
:10152000D1F781E0C81AD108E108F10885E054CF6D
:1015300068E478EE81E090E0A50198010E941739F7
:1015400069017A0181E0C81AD108E108F1089FEF2A
:10155000C916D104E104F10411F00CF011CF84E0BC
:1015600069CE83E09FEFC916D104E104F10409F0CC
:101570000CF432CF62E17AE780E090E0A5019401BB
:101580000E94173969017A0181E0C81AD108E1087F
:10159000F1089D81992309F4B0CF86E09FEFC91629
:1015A000D104E104F10409F008F444CEC980DA80E2
:1015B000EB80FC809AE0F594E794D794C7949A95D1
:1015C000D1F781E0C81AD108E108F10887E032CEEE
:1015D00082E030CEAF92BF92CF92DF92EF92FF9235
:1015E0000F931F93CF93DF936C017B018B01040F4B
:1015F000151FEB015E01AE18BF08C017D10759F0E7
:101600006991D601ED91FC910190F081E02DC60128
:101610000995892B79F7C501DF91CF911F910F9122
:10162000FF90EF90DF90CF90BF90AF900895FC01B6
:10163000538D448D252F30E0842F90E0821B930B37
:10164000541710F0CF96089501970895FC01918DDD
:10165000828D981761F0A28DAE0FBF2FB11D5D96E0
:101660008C91928D9F5F9F73928F90E008958FEF82
:101670009FEF0895FC01918D828D981731F0828D36
:10168000E80FF11D858D90E008958FEF9FEF08958D
:10169000FC01918D228D892F90E0805C9F4F821BF1
:1016A00091098F73992708958CE692E00E94480B68
:1016B00021E0892B09F420E0822F089580E090E05A
:1016C000892B29F00E94540B81110C94000008957D
:1016D000FC01A48DA80FB92FB11DA35ABF4F2C91A7
:1016E000848D90E001968F739927848FA689B7899E
:1016F0002C93A089B1898C91837080648C93938D95
:10170000848D981306C00288F389E02D80818F7D37
:1017100080830895EF92FF920F931F93CF93DF93EF
:10172000EC0181E0888F9B8D8C8D98131AC0E8891D
:10173000F989808185FF15C09FB7F894EE89FF89EC
:101740006083E889F98980818370806480839FBF8A
:1017500081E090E0DF91CF911F910F91FF90EF908A
:101760000895F62E0B8D10E00F5F1F4F0F7311279A
:10177000E02E8C8D8E110CC00FB607FCFACFE889D5
:10178000F989808185FFF5CFCE010E94680BF1CFEA
:10179000EB8DEC0FFD2FF11DE35AFF4FF0829FB749
:1017A000F8940B8FEA89FB8980818062CFCF0F93F9
:1017B0001F93CF93DF938C01D0E0C0E0F801EC0FD2
:1017C000FD1F6491662341F08CE692E00E948A0B33
:1017D000892B11F02196F2CFCE01DF91CF911F918D
:1017E0000F910895CF93DF93EC01888D8823B9F092
:1017F000AA89BB89E889F9898C9185FD03C080811C
:1018000086FD0DC00FB607FCF7CF8C9185FFF2CF98
:10181000808185FFEDCFCE010E94680BE9CFDF917B
:10182000CF910895CF92DF92EF92FF921F93CF93C3
:10183000DF93EC016A017B018C810E943F0711E07C
:10184000892B09F410E08B85181721F0CD8ADE8AE8
:10185000EF8AF88E8D899E89AF89B88DB701A60170
:10186000481B590B6A0B7B0B898D90E0B0E0A0E020
:1018700084179507A607B70798F48C85181781F089
:101880001C878A851817A9F0CA8EDB8EEC8EFD8E18
:10189000EAA1FBA1309721F0B701A601898509953E
:1018A0001B87DF91CF911F91FF90EF90DF90CF903A
:1018B0000895CE8EDF8EE8A2F9A2ECA1FDA13097AB
:1018C00079F389850995ECCFFC011582138614867E
:1018D000158616861786108A118A128A138A148A28
:1018E000158A168A138E8681882311F0848183835A
:1018F0000895CF92DF92EF92FF920F931F93CF93B1
:10190000DF93EC018E81811103C08D89882369F1F9
:101910008C810D851E852F8538896A017B01C01A4F
:10192000D10AE20AF30A9701860137FD18C0098936
:101930001A892B893C89401B510B620B730B1416BF
:101940001506160617065CF061E0DF91CF911F9136
:101950000F91FF90EF90DF90CF900C94680760E0BC
:101960000E9468078D8981111D8ADF91CF911F9197
:101970000F91FF90EF90DF90CF900895CF93DF937A
:10198000EC0161E088810E94680781E08C870E94F9
:101990002C086D877E878F87988BDF91CF91089574
:1019A000CF92DF92EF92FF92CF93DF93EC016A0127
:1019B0007B0169857A858B859C850E94F8379B0120
:1019C000AC0160E070E080E89FE30E941E3A20E0F6
:1019D00030E040E05FE30E94593820E030E04AE721
:1019E00054E40E945938CD8EDE8EEF8EF8A220E0AE
:1019F00030E040E05FE30E94B2390E94973AC60EA1
:101A0000D71EE81EF91EC9A2DAA2EBA2FCA28FA182
:101A100091E089278FA3DF91CF91FF90EF90DF9026
:101A2000CF900895CF92DF92EF92FF92CF93DF9302
:101A3000EC016A017B018D899E89AF89B88DAB016C
:101A40009601281B390B4A0B5B0BDA01C901B7FD64
:101A500049C0898D9A8DAB8DBC8DAB019601281B39
:101A6000390B4A0B5B0BDA01C901181619061A0665
:101A70001B06C4F18EA18823A9F189859A85AB85BF
:101A8000BC850197A105B10551F461E08C81DF911E
:101A9000CF91FF90EF90DF90CF900C94680789A1D1
:101AA0009AA1ABA1BCA1AB019601281B390B4A0B33
:101AB0005B0BDA01C901B7FD04C0A601CE010E948B
:101AC000D00C8C819FA1992311F061E0E0CF60E000
:101AD0000E9468071FA2DF91CF91FF90EF90DF90E7
:101AE000CF90089560E08C810E9468071FA2898DC5
:101AF0009A8DAB8DBC8DC81AD90AEA0AFB0A8EA151
:101B0000882331F01C141D041E041F040CF41EA2B3
:101B100088A5882301F31C141D041E041F04DCF691
:101B200018A6D9CF8F929F92AF92BF92CF92DF9299
:101B3000EF92FF920F931F93CF93DF93EC018E816F
:101B4000811104C088A1882309F445C07B018989DB
:101B50009A89AB89BC894A015B01881A990AAA0A49
:101B6000BB0AC501B40197FD53C00D891E892F8999
:101B7000388D4A015701801A910AA20AB30A9501C9
:101B8000840110161106120613060CF441C02A8DAA
:101B90002223A9F10C8D1D8D2E8D3F8D200F311F1D
:101BA0002115310511F421E030E0FB8C50E040E0DC
:101BB0000E94803960177107D8F4F1100AC0698556
:101BC0007A8520E030E0A9018C810E94840881E0C0
:101BD0008B8F81E0898FDF91CF911F910F91FF90C3
:101BE000EF90DF90CF90BF90AF909F908F9008952F
:101BF000FF2079F38C810E9458081B8EEACF6985FB
:101C00007A8520E030E0A9018C810E948408E1CF30
:101C1000898D882301F38C810E945808198E1B8EB0
:101C200088A18823C1F218A2D6CF6F3FA9F0E62F72
:101C3000E295EF7044E0E49F90011124DC01ED9106
:101C4000FC91E20FF31F6F7082819381B6E06B9F6E
:101C5000800D911D1124089590E080E00895982F43
:101C600080336CF08A3324F08F3524F08B3724F4E2
:101C700081E0089581341CF081E09B350CF080E018
:101C80000895FC01828581110AC0A781B085CD012C
:101C90000196908787838C91818781E082878185F7
:101CA00008951F93CF93DF93EC01162F0E94410EEE
:101CB000811306C01A8681E0DF91CF911F910895AC
:101CC00080E0FACF0F931F93CF93DF938C01EB014A
:101CD0008991882369F0C8010E94410E882379F018
:101CE000FE013197908198130DC0F8011286F0CF54
:101CF00090E080E0DF91CF911F910F91089582E0F5
:101D000090E0F8CF83E090E0F5CFCF93DF93EC0144
:101D1000CE010E94410E8B304CF489305CF4882354
:101D200059F081E08E8390E080E00BC08D3011F09F
:101D30008032B9F71A86ECCF8E81811105C081E01F
:101D400090E0DF91CF91089582E090E0FACFDC013E
:101D500052969C915297915084E0989F9001112443
:101D60005096ED91FC91E20FF31F228133812115F2
:101D7000310579F041818081481758F481E0840F62
:101D8000818386E0489F200D311D112421153105E6
:101D900021F460E070E08FEF0895B901892F8295FA
:101DA000807F840F0895DF92EF92FF920F931F932D
:101DB000CF93DF93EC017B01D12C688979898A89E3
:101DC000D816E0F484E0D89E80011124060F171F76
:101DD000D80112966D917C916115710541F0D70182
:101DE000ED91FC910280F381E02DC7010995F80186
:101DF0001382128210821182D394DFCF1A8A8FEF5E
:101E00008C8BC617D70761F0D701ED91FC9102804A
:101E1000F381E02DC7010995D98BC88B84E08B8BAA
:101E2000DF91CF911F910F91FF90EF90DF90089578
:101E3000CF92EF92FF920F931F93E0905A02F0908F
:101E40005B0200915C0210915D0221E08091000133
:101E500090910101815D954009F420E040910701D6
:101E6000509108016091090170910A01C0900B0125
:101E700080910501909106010E94460680914802DA
:101E8000882309F448C080919703833018F083E0D9
:101E900080936F0310923D0381E080933E03809313
:101EA0003F038093400380934103109242031092BA
:101EB00043031092590394E690935A038093D403FA
:101EC0001092980387E0809399038091090590917F
:101ED0000A05A0910B05B0910C0580939A0390938D
:101EE0009B03A0939C03B0939D0380910505909163
:101EF0000605A0910705B091080580939E03909375
:101F00009F03A093A003B093A1031F910F91FF9093
:101F1000EF90CF90089510923F03F7CF4F925F92CA
:101F20006F927F928F929F92AF92BF92CF92DF92E9
:101F3000EF92FF920F931F93CF93DF9300D000D0C7
:101F40001F92CDB7DEB7DC012C912B32E1F12D329F
:101F5000D9F50196EE24E394FC01208130ED320F97
:101F60003A3010F02E3291F58C0160E070E0CB0138
:101F7000F801219130ED832E820E39E0381508F4F6
:101F800044C06A3949E97407840749E1940708F0B5
:101F900046C0AAE0B0E09B01AC010E943639912C0A
:101FA000B12CA12C2401350140945094609470947C
:101FB000461657066806790690F1680D791D8A1D48
:101FC0009B1D8F01D5CF0196E12CC6CF19822981A7
:101FD0003A814B815C816D8170E080E090E00F90F0
:101FE0000F900F900F900F90DF91CF911F910F9155
:101FF000FF90EF90DF90CF90BF90AF909F908F9029
:102000007F906F905F904F900895211108C0EE204F
:1020100051F161307105810550E89507A0F0F12C70
:10202000BAE08B2E912CA12CB12C6115710530E8F2
:1020300083079105F8F0A50194010E948039CA0137
:10204000B901F394F2CF22E029839B01AC018827E8
:102050009927DC01821B930BA40BB50B8A839B830E
:10206000AC83BD83B4CF23E029836A837B838C83D5
:102070009D83ADCFF801D8012D918D0130ED320F48
:102080003A3010F4F394F6CF2E3201F58F010F5F42
:102090001F4FF8010F5F1F4F2081A0EDDA2ED20EE7
:1020A000B9E0BD1598F06C3CECEC7E07ECE08E07D7
:1020B000910578F7AAE0B0E09B01AC010E943639A7
:1020C0006D0D711D811D911DFA94E3CF20812F7D2F
:1020D00010E000E0253409F050C021812D32B1F527
:1020E0003296CC24C394DF0110E000E02F2D0F2C9A
:1020F000000C330BEAE0BE2EFD01DD9040ED4D0DEE
:102100004A30B0F5B09EA001B19E500D11240D2DA6
:10211000DD0C110B00531109040F151FA801420F0C
:10212000531F4732510544F3CC20B9F080E090E0D2
:10213000A0E0B0E8E11003C080E090E0DC0121E025
:1021400029838A839B83AC83BD8341CF2B3219F0D3
:102150003196C12CC8CF3296FCCF80E090E0A0E849
:10216000BFEFE110ECCF80E090E0A0E8BFE7E7CF61
:10217000CC2019F01195019511092081211126CF4C
:102180000F0D111DF7FC1A950E94F8374CEBA42E89
:1021900040E0B42E101611063CF01195019511097E
:1021A00054EAA52E50E0B52ED12CC12C01151105F5
:1021B000E9F0F6E0CF16D104A9F000FF0DC0F6015A
:1021C000EE0FFF1FEE0FFF1FEA0DFB1D259135914E
:1021D000459154910E945938159507952FEFC21AD1
:1021E000D20AE4CF60E070E080EC9FE7E110905805
:1021F00021E029836A837B838C839D83E8CECF9201
:10220000DF92EF92FF920F931F93CF93DF937C01A6
:102210006B018A01FC01C081D1814F3F510509F05A
:10222000B0F4E881F9810480F581E02D4B5F5F4FC8
:10223000CE010995009759F0FC010383DF91CF91FE
:102240001F910F91FF90EF90DF90CF900895E8815C
:10225000F9810280F381E02DB601CE01099581E07C
:10226000F701828390E080E0E9CF1F93CF93DF9363
:10227000EC01162F6A817B816115710589F04C8113
:102280005D81FB0183818417150651F4440F551FAE
:102290004F5F5F4F888199810E94FF109B838A83E3
:1022A0008A819B81009759F02C813D81A9014F5F64
:1022B0005F4F5D834C83820F931FFC011483DF917A
:1022C000CF911F9108959F92AF92BF92CF92DF92CC
:1022D000EF92FF920F931F93CF93DF9300D000D024
:1022E0001F92CDB7DEB78C010E94410ED82EF801A7
:1022F0001286F12CE12C60EFC62EC8010E94410E1F
:10230000F8011286D81609F4B3C0811113C082E017
:1023100090E00F900F900F900F900F90DF91CF9162
:102320001F910F91FF90EF90DF90CF90BF90AF90F3
:102330009F9008958C3509F099C0C8010E94410E04
:10234000882329F3EBE9F1E0853709F083C0F80130
:10235000128654E0952EB12CA12CC8010E94410E8A
:102360008823A9F2813434F48053803130F083E043
:1023700090E0CFCF8F7D8753F8CF44E0AA0CBB1CF1
:102380004A95E1F7A82AF80112869A949110E5CFB0
:10239000C501985D8115944020F47501F3E0FF229A
:1023A000ACCFC5019C5D81159440A8F483E0B822B0
:1023B000B701762F6627770F770F6A297B2990E080
:1023C00080E00196603871058105910540F4C801EF
:1023D0000E94351192CFB50190E080E0F3CF1982D1
:1023E000262F2F7320682A8326E096958795779568
:1023F00067952A95D1F76032710580F4606C6B8324
:102400005E01E4E0AE0EB11CF50162915F0166234E
:1024100009F473CFC8010E943511F6CF262F2F7310
:1024200020682B8386E0769567958A95E1F7603181
:10243000710538F4606E6C835E01F5E0AF0EB11C7F
:10244000E3CF60686C83CD825E0126E0A20EB11CF2
:10245000DBCF32969081992309F489CF8913F9CF84
:102460008181882309F483CFF8011286682FAFCFCA
:1024700082819381892B19F484E090E04ACF90E027
:1024800080E047CF6F927F928F929F92AF92BF92E0
:10249000CF92DF92EF92FF920F931F93CF93DF9330
:1024A000EC012A813B812C5F3F4F4C815D814430A0
:1024B000510588F58901F90180E0942FB22FAE2FE4
:1024C000A21BA91730F4F190A1E0F110A0E08A2B33
:1024D000F6CF811120C082E0EB018C83FB01802FBD
:1024E0008B1B891728F4E80189918E018193F7CF1E
:1024F000640F751FFB011082DF91CF911F910F9127
:10250000FF90EF90DF90CF90BF90AF909F908F9013
:102510007F906F9008958B01F901E40FF51F1082F1
:10252000888199814C815D81DC011396ED91FC914C
:102530003A01E89477F86901C60CD71C3097C1F0CE
:10254000A381A615170481F449017F01B4E0EB0EC5
:10255000F11C8C149D0429F1D401AD904D01D701DB
:10256000BD907D01AB14A9F30190F081E02DE6CF81
:102570006A817B810E94FF10FC01A881B9811396BA
:102580008D919C911497918380831496FC93EE9384
:1025900013971B821A8285E0E8018C83F983E88314
:1025A000ABCF82818F5F8283F6CFDB01ED91FC910F
:1025B00011970280F381E02DBC01CD010994AF9207
:1025C000BF92CF92DF92EF92FF920F931F93CF9320
:1025D000DF93EC018B018C8180FF24C0A881B9813D
:1025E000FB018381948130E020E00097D9F0A817A7
:1025F000B907D1F5F8016081718112968C9112971B
:10260000815012968C93129781110CC08D919C91E0
:1026100011972115310529F1F90191838083CD01AD
:102620000E94D5128C81807631F1209721F1F880BB
:102630005801F5E1AF0EB11C8FEFF816D1F06F2DF8
:10264000C5010E94150E6C01FC01E580B8010E94D5
:10265000DF12F801818DF6018083F801F18EFE2CE6
:10266000EBCF94838383DBCF9C01FC01808191813C
:10267000BCCFF882F9821C82DF91CF911F910F911C
:10268000FF90EF90DF90CF90BF90AF9008950F93A1
:102690001F93CF93DF93EC01088119818B819C817B
:1026A000009749F0FC01208131813C832B83B801E4
:1026B0000E94D512F3CF68817981CE010596DF9112
:1026C000CF911F910F910C94D30EFC01019000202B
:1026D000E9F73197AF01481B590BBC018CE692E03A
:1026E0000C94EA0A8F929F92AF92BF920F931F931E
:1026F000CF93DF93CDB7DEB7A1970FB6F894DEBFC7
:102700000FBECDBF19A2423008F44AE08E010F5D22
:102710001F4F842E912CB12CA12CA50194010E9455
:102720008039E62FB901CA01EA30F4F4E05DD8013E
:10273000EE938D01232B242B252B79F790E080E05D
:10274000109719F0CD010E946513A1960FB6F89469
:10275000DEBF0FBECDBFDF91CF911F910F91BF9014
:10276000AF909F908F900895E95CE1CF4AE00C9480
:102770007213CF92DF92EF92FF92CF93DF936C01AF
:10278000990FEE08FF08F7FE19C06DE28CE692E0A3
:102790000E948A0BEC0166277727CB016C197D0913
:1027A0008E099F094AE00E9472138C0F9D1FDF91D2
:1027B000CF91FF90EF90DF90CF9008954AE0C7014E
:1027C000B601DF91CF91FF90EF90DF90CF900C9406
:1027D0007213CF93DF930E94D70BEC018EEA91E046
:1027E0000E9465138C0F9D1FDF91CF910895CF93A9
:1027F000C82F8093D8048FE19AE00E94D70B809174
:10280000D604082E000C990B0E94B91385E19AE0BA
:102810000E94D70B83E09AE0CC2311F08CE09AE081
:102820000E94D70B82E19AE0CF910C94E9130F93A9
:102830001F93CF938C01C62FFC01638384EB96E03A
:102840000E94D70BF8018081082E000C990B0E9482
:10285000B9138AEA96E00E94D70B88E996E0CC2368
:1028600011F081EA96E00E94D70B87EA96E0CF91BB
:102870001F910F910C94E913EF92FF920F931F9306
:10288000CF93DF937C018B01EA018EE796E00E94F3
:10289000D70BC7010E94D70B82E796E00E94D70BA7
:1028A000C8010E94D70B86E696E00E94D70BCE01A6
:1028B0000E94D70B83E696E0DF91CF911F910F9195
:1028C000FF90EF900C94E913CF93DF936DE78CE6C4
:1028D00092E00E948A0BEC018EEA91E00E9465135F
:1028E0008C0F9D1FDF91CF9108954F925F926F9251
:1028F0007F928F929F92AF92BF92EF92FF920F932F
:102900001F93CF93DF932A013B0148015901853082
:1029100009F480C008F061C0843009F46FC0E09110
:102920001303F09114031481CAE8DBE047EAE42EB4
:102930004BE0F42E86EE9BE00E94D70BC7010E946D
:10294000D70B8DED9BE00E94D70B812F110F990BB8
:102950000E94B91382ED9BE00E94D70BCE010E942A
:10296000D70B8DEB9BE00E94D70B8091C504909113
:10297000C604A091C704B091C804A3019201281B0A
:10298000390B4A0B5B0BCA01B9010E94B6138BEAE3
:102990009BE00E94D70B8091C5049091C604A09142
:1029A000C704B091C804A5019401281B390B4A0B38
:1029B0005B0BCA01B9010E94B613DF91CF911F9141
:1029C0000F91FF90EF90BF90AF909F908F907F906E
:1029D0006F905F904F900C946414863039F187307B
:1029E00009F09DCFE0911B03F0911C031481CEE60A
:1029F000DBE08FE8E82E8BE0F82E9CCFE09115030A
:102A0000F09116031481C5E8DBE031EAE32E3BE0E8
:102A1000F32E90CFE0911703F09118031481CCE7C7
:102A2000DBE02CE9E22E2BE0F22E84CFE0911903BB
:102A3000F0911A031481C3E7DBE095E9E92E9BE0EE
:102A4000F92E78CFCF92DF92EF92FF920F931F93E0
:102A5000CF93DF93EC018881813009F4D1C06A0102
:102A60007B01813090F08230D1F48FE193E00E94BD
:102A7000640C8DE393E0DF91CF911F910F91FF9054
:102A8000EF90DF90CF900C94640C8981853009F42D
:102A90007DC070F48330F1F1843009F45AC0DF91C5
:102AA000CF911F910F91FF90EF90DF90CF900895FD
:102AB000863009F488C0873091F7E0911B03F091CC
:102AC0001C03309761F38681882349F385A1811126
:102AD000E6CF8E819F81A885B985C58AD68AE78A87
:102AE000F08E8C0D9D1DAE1DBF1D818F928FA38F0B
:102AF000B48F81E086A3CF010E94D00C0E811F818C
:102B0000288539850C0D1D1D2E1D3F1DB701A60101
:102B100087E01CC0E0911303F0911403309709F48F
:102B2000BECF8681882309F4BACF0E811F81288504
:102B30003985C18AD28AE38AF48A0C0D1D1D2E1DA7
:102B40003F1D058B168B278B308F83E00E947514F9
:102B5000A6CFE0911503F0911603309709F49FCFAB
:102B60008681882309F49BCF0E811F8128853985B2
:102B7000C18AD28AE38AF48A0C0D1D1D2E1D3F1DC9
:102B8000058B168B278B308F84E0E0CFE091170305
:102B9000F0911803309709F482CF8681882309F4D5
:102BA0007ECF0E811F8128853985C586D686E7862A
:102BB000F08A0C0D1D1D2E1D3F1D018B128B238BCA
:102BC000348B85E0C3CFE0911903F0911A0330975D
:102BD00009F465CF8681882309F461CF0E811F81B6
:102BE00028853985C586D686E786F08A0C0D1D1D99
:102BF0002E1D3F1D018B128B238B348B86E0A6CFBD
:102C00008981E0910D03F0910E03882339F0813022
:102C100009F045CFE0910F03F0911003309709F4CC
:102C20003ECFCE80DF80E884F9844C0D5D1D6E1DA3
:102C30007F1D418B528B638B748B31CF2F923F92D0
:102C40004F925F926F927F928F929F92AF92BF92BC
:102C5000CF92DF92EF92FF920F931F93CF93DF9368
:102C600000D000D0CDB7DEB72A013B010DE3809F35
:102C700090011124912C8901C90189569C4F9A8396
:102C800089838AE0882E19019EE4290E311CE9818E
:102C9000FA818081981608F092C0A92CB12CC80145
:102CA000899C800D911D1124835F9C4FFC01E25B88
:102CB000FF4F20812330B9F0805B9F4FFC01C08023
:102CC000D180E280F380C114D104E104F10469F4FD
:102CD000B301A201C101989C800D911D1124835F55
:102CE0009C4F0E9422159394D2CFC40CD51CE61C95
:102CF000F71CE3EEF3E030E020E08081811126C094
:102D0000FFE0F29FC001F39F900D1124DC01AB5254
:102D1000BC4F8A9CF0018B9CF00D1124E00FF11F39
:102D2000E55AFC4F282D01900D922A95E1F7835F1B
:102D30009C4FFC01EE52FF4FC082D182E282F382AF
:102D40008A529F4F21E0FC012083CDCF2F5F3F4F60
:102D50003F962031310589F68CEF9AE00E94D70B1F
:102D60008A9CC0018B9C900D1124800F911F835F62
:102D70009C4F9C838B83FC01E25BFF4F608170E082
:102D800090E080E04AE00E94721381EF9AE00E9496
:102D9000D70BEB81FC81E15BFF4F608170E090E03D
:102DA00080E04AE00E94721380EE9AE00E94D70B06
:102DB000C701B6010E94B6130E94641494CF0F900D
:102DC0000F900F900F90DF91CF911F910F91FF9077
:102DD000EF90DF90CF90BF90AF909F908F907F90BB
:102DE0006F905F904F903F902F9008950F931F9397
:102DF000CF93DF938C01D62FC42F88EC97E00E94ED
:102E0000D70BC8010E94D70B8DEB97E00E94D70B20
:102E100083EA97E0DD2311F089EA97E00E94D70B5F
:102E20008EEA97E00E94D70B88E997E0CC2311F057
:102E30008EE997E00E94D70BDF91CF911F910F9100
:102E40000C9464140F931F93CF938C01C62F8EE7BD
:102E500097E00E94D70BC8010E94D70B83E797E049
:102E60000E94D70B88E697E0CC2311F08EE697E01E
:102E70000E94D70BCF911F910F910C946414CF92A5
:102E8000DF92EF92FF920F931F93CF938C01C62F87
:102E900069017A018EE497E00E94D70BC8010E9475
:102EA000D70B83E497E00E94D70B8BE297E0CC230B
:102EB00011F081E397E00E94D70B86E397E00E9430
:102EC000D70BC701B6010E94B613CF911F910F9186
:102ED000FF90EF90DF90CF900C9464147F928F92CC
:102EE0009F92AF92BF92CF92DF92EF92FF920F9399
:102EF0001F93CF93DF93EC01762E49015A016701AE
:102F0000780181E197E00E94D70BCE010E94D70B98
:102F100086E097E00E94D70B80EE96E0772011F0D4
:102F200086EE96E00E94D70B88EF96E00E94D70BC2
:102F3000C501B4010E94B6138BEE96E00E94D70B38
:102F4000C701B6010E94B613DF91CF911F910F9177
:102F5000FF90EF90DF90CF90BF90AF909F908F90B9
:102F60007F900C946414EF92FF920F931F93CF9372
:102F70007C018B01C42F89E496E00E94D70BC70126
:102F80000E94D70B8DE396E00E94D70BC8010E94E8
:102F9000D70B82E396E00E94D70B87E296E0CC2322
:102FA00011F08DE296E00E94D70BCF911F910F9107
:102FB000FF90EF900C946414CF92DF92EF92FF9207
:102FC0000F931F93CF93DF938C01EB0169017A017B
:102FD0008DE096E00E94D70BC8010E94D70B81E0DC
:102FE00096E00E94D70BCE010E94D70B86EF95E0AA
:102FF0000E94D70BC701B6010E94B613DF91CF9193
:103000001F910F91FF90EF90DF90CF900C9464147C
:10301000009711F00C94651390E080E008950F93F1
:103020001F93CF93DF93C0910D03D0910E0388239C
:1030300021F0C0910F03D0911003209709F45FC0D5
:10304000613009F456C008F451C0623009F454C02C
:1030500082EB9AE00E94D70B6C8170E090E080E0F8
:103060004AE00E94721387E99AE00E94D70BC801D8
:103070000E94D70B82E89AE00E94D70B6A8D7B8D65
:103080008C8D9D8D0091C5041091C6042091C704BC
:103090003091C804601B710B820B930B0E94B61316
:1030A00080E79AE00E94D70B6E8D7F8D88A199A151
:1030B0000091C5041091C6042091C7043091C80442
:1030C000601B710B820B930B0E94B6138FE59AE085
:1030D0000E94D70BCE010D960E9408188CE59AE04D
:1030E000DF91CF911F910F910C94E91305E51AE040
:1030F000AFCF0CE41AE0ACCF04E41AE0A9CFDF9123
:10310000CF911F910F9108959091CD04911104C01A
:103110009091CE04992371F09091CF0491110AC03F
:103120006091D404882321F0813021F46091D5048A
:103130000C940F180895CF93DF93EC016E8389EA06
:1031400095E00E94D70B8F8198850E94081880EA2D
:1031500095E00E94D70B8C81082E000C990B0E94E1
:10316000B91386E995E00E94D70B8E8181110AC0C0
:1031700084E895E00E94D70B83E995E0DF91CF9139
:103180000C94E9138DE895E0F5CF60E08091100193
:10319000909111010E949B1860E080911201909122
:1031A00013010E949B1860E0809114019091150119
:1031B0000E949B1860E080911601909117010E9477
:1031C0009B1860E080911801909119010E949B1852
:1031D00060E080911A0190911B010E949B1860E0B1
:1031E00080911C0190911D010E949B1880911E01ED
:1031F00090911F01009719F060E00E949B1860E019
:1032000080912001909121010C9417141F93CF936A
:10321000DF93EC01162F8E81882321F060E0CE0130
:103220000E949B188D81813021F460E08C810E9486
:1032300068071C836D81812F0E9496078D818130E4
:1032400021F460E08C810E9468078CED95E00E947B
:10325000D70B8F8198850E94081883EC95E00E9417
:10326000D70B8C81082E000C990B0E94B913DF91AB
:10327000CF911F910C946414CF93DF93EC010E94C3
:1032800006198C810E943F0721E0892B09F420E078
:103290002A878C810E943F0721E0892B09F420E0D6
:1032A0002B878C810E943F0721E0892B09F420E0C5
:1032B0002C871D8A1E8A1F8A188EDF91CF91089550
:1032C0009F92AF92BF92CF92DF92EF92FF920F93B5
:1032D0001F93CF93DF938A01452B09F468C0E9015E
:1032E0006B016596FC016081CE010E94150EFC0108
:1032F000BB24BA94892B09F0B5807601E894F7F8DD
:10330000AA24A3946701C00ED11E992493943097E8
:1033100009F44DC0AA2009F43FC08481843069F0CB
:10332000853049F1823079F5DF010D900020E9F711
:103330001197CD018E1B9F0B07C00190F081E02DEE
:1033400090E080E0309781F79F77E816F90621F545
:10335000D801AC15BD05E1F46B2DCE01DF91CF9105
:103360001F910F91FF90EF90DF90CF90BF90AF90A3
:103370009F900C94150EA081B181FD013496139697
:103380008C9190E0E2CF90E080E0F0E0E0E0DDCFF3
:103390009D9181919817E9F2A9246B2DCE010E948D
:1033A000150EFC01892B09F4B2CFB580B0CF90E0A7
:1033B00080E0DF91CF911F910F91FF90EF90DF9010
:1033C000CF90BF90AF909F900895FC0120813181F4
:1033D000C9014A964281538164817581009759F0F1
:1033E000D9015E96EC91E03211F090E080E0009718
:1033F00011F00C94601990E080E00895CF93DF9372
:10340000EB010E94E519009741F0FC012481263070
:1034100021F48081DF91CF9108958881FBCFCF92F5
:10342000DF92EF92FF92CF93DF9300D000D01F92F4
:10343000CDB7DEB70E94E519DC01009709F44AC058
:103440001496EC911497E250ED3008F043C0F0E090
:10345000E45DF54E0C94CB3A5A1A6A1A581A6E1A51
:10346000391A6A1A6A1A6A1A491A6A1A4E1A6A1AAA
:10347000721A6C9170E090E080E00F900F900F90C6
:103480000F900F90DF91CF91FF90EF90DF90CF9052
:1034900008956D917D918D919C91EFCF8D919D912E
:1034A0000D90BC91A02DB7FD15C0BC01CD01E5CF9D
:1034B0008D919C910E948E0F3A834B835C836D8328
:1034C000CA80DB80EC80FD80223041F1233041F165
:1034D000213061F060E070E0CB01CFCF8D919C9105
:1034E0000496E8CFCD90DD90ED90FC9020E030E0A8
:1034F000A901C701B6010E94C63A87FDEBCF2FEFA5
:103500003FEF4FE75FE4C701B6010E94F33718169B
:103510000CF3C701B6010E94973AAFCFF7FCDACFA0
:10352000C701B601AACF8F929F92AF92BF92CF925E
:10353000DF92EF92FF920F931F93CF93DF9300D010
:1035400000D000D0CDB7DEB749015A01670178013C
:10355000FB0101900020E9F73197E61BF70B9A83F6
:1035600089837C836B83ED838F2F8F778E83CE014E
:1035700001960E94E5190097B9F0FC0124812A30D8
:1035800041F02C3089F480819181A281B381B7FD13
:103590000BC0CE0101960E940F1A86169706A80648
:1035A000B90610F44B015C01C501B401C616D7067B
:1035B000E806F90610F4C701B60126960FB6F8948E
:1035C000DEBF0FBECDBFDF91CF911F910F91FF9056
:1035D000EF90DF90CF90BF90AF909F908F90089525
:1035E000CF92DF92EF92FF92CF93DF9300D000D083
:1035F0001F92CDB7DEB70E94E519DC01009709F4F0
:1036000046C01496EC911497E250ED3008F03FC09C
:10361000F0E0E35FF44E0C94CB3A4C1B471B4A1B83
:103620005D1B1A1B471B471B471B291B471B361BD0
:10363000471B611B6C9170E0CB010F900F900F90B6
:103640000F900F90DF91CF91FF90EF90DF90CF9090
:1036500008958D919D910D90BC91A02D811520E82C
:103660009207A105B10598F4BC01E6CF8D919D911B
:103670000D90BC91A02D6C017D0120E8D20EE11CC3
:10368000F11CC114D10421E0E206F10468F370E0FA
:1036900060E0D2CF8D919C910E948E0F3A834B8334
:1036A0005C836D83CA80DB80EC80FD80223031F149
:1036B000233081F1213059F708C08D919C910496F7
:1036C000EBCFCD90DD90ED90FC9020E030E040E03D
:1036D00057ECC701B6010E94C63A87FDD8CF20E05B
:1036E0003EEF4FEF56E4C701B6010E94F3371816BC
:1036F00074F2C701B6010E94903A9ECFD701C6016D
:103700009058AF4FBF4F0097A140B10508F0BFCF11
:10371000B60192CFC11480E8D806E104F104C0F3E9
:10372000B6CF0F931F93CF93DF93EC018B010E94D1
:10373000E519FC01892B29F084818A3051F08C3005
:10374000C1F0F80180819181DF91CF911F910F919C
:10375000089580819181A281B38181159048A1054E
:10376000B10578F7CE01DF91CF911F910F910C94A5
:10377000F01A80819181A281B3819058AF4FBF4FE1
:103780000097A140B105E8F6EDCF4F925F926F929E
:103790007F92AF92BF92CF92DF92EF92FF920F9300
:1037A0001F93CF93DF939091CD04911105C0909119
:1037B000CE04992309F4E8C09091CF049111E4C09C
:1037C000823008F0E1C081110AC0E0910D03F09150
:1037D0000E03309759F481E08093D404D5C0E09172
:1037E0000F03F0911003309709F487C09089992353
:1037F00009F480C0018912892389348904171507C7
:103800002607370708F482C0882309F4CCC082E079
:103810008093D504B9C08F898F5F8F8B9D8989175D
:1038200008F4ADC08FA5843658F40E949B37A301DD
:1038300092010E9417398FA5681710F01F8A9FC048
:103840001F8A888D882351F09D899501281B310995
:103850009217130609F05CF4890F8D8B8B898230E7
:1038600008F08DC0B701A6010E941E1688C087ED22
:1038700090E00E94D70B6D8970E090E080E04AE014
:103880000E94721384ED90E00E94E913E7CFCD8E81
:10389000DE8EEF8EF8A273C08DA5811170C089A154
:1038A0009AA1ABA1BCA1A7019601281B390B4A0B19
:1038B0005B0BDA01C901B7FD62C08DA19EA1AFA16A
:1038C000B8A58C199D09AE09BF09181619061A0664
:1038D0001B060CF054C08FA5843610F00DA7BECF88
:1038E0000E949B37A30192010E9417398FA5681788
:1038F000A8F345C0882309F46ECF81E089CF1092E8
:10390000D404E0910D03F0910E0308C08823B9F3AD
:103910001092D504E0910F03F0911003309781F0DD
:103920000091C9041091CA042091CB043091CC04B9
:10393000040F151F261F371F018B128B238B348B0F
:103940006A017B01182FCDE0D3E0AA24AA94B12C00
:1039500094E6492E512C612C712C01E08C8988232E
:1039600071F08EA5893011F0181309C08A89813051
:1039700009F48DCF08F44FCF823009F48DCF6E96C5
:1039800033E0C934D30751F7DF91CF911F910F91E5
:10399000FF90EF90DF90CF90BF90AF907F906F90AF
:1039A0005F904F90089582E017CFBF92CF92DF9241
:1039B000EF92FF920F931F93CF93DF93EC01198D3A
:1039C0001F3F81F0612F45960E94150EFC018081FA
:1039D000898F309709F477C014828FEF8583BF01F8
:1039E000812F76C06C0135E0C30ED11CE880F980D0
:1039F0008F89882341F0C6010E94A70EE62FF72F7A
:103A0000182F309749F71F89988D191324C010314A
:103A100009F459C0110F6D897E89D701ED91FC9190
:103A2000B4E01B9FA0011124C616D70609F044C0BC
:103A30000190F081E02DBA01C7010995009709F4C2
:103A400042C020E1F601DC0101900D922A95E1F7D8
:103A50009E8B8D8B188F0D891E898F8921E0280FF1
:103A60002F8BE4E08E9FC0011124080F191F90E1F5
:103A7000B92E203111F48FE0B82EF6E0BF9EB001D0
:103A80001124D701ED91FC910190F081E02DC70147
:103A90000995F80193838283892B09F4B12CD8010D
:103AA000BC9211961C92012B71F0C6010E94A70EC8
:103AB000E62FF72F182F8DCF0480F581E02DC70159
:103AC0000995009729F681E08A8360E070E08FEF26
:103AD000DF91CF911F910F91FF90EF90DF90CF90EA
:103AE000BF9008954F925F926F927F928F929F92B4
:103AF000AF92BF92CF92DF92EF92FF920F931F93FC
:103B0000CF93DF9300D000D01F92CDB7DEB78C01EA
:103B10007B01B42E0E94850E6C01892B09F048C0F0
:103B2000C8010E94410E863609F4A9C124F58732E6
:103B300029F08B3561F1823209F0A8C1D8011596C0
:103B40001C921E92149712968D919C911397892B1B
:103B500039F48D919C910E942B06F8019383828306
:103B6000C8010E9463116C01892B11F5B701C801CE
:103B70000E9442121DC0843709F460C18B3709F4DA
:103B80007BC08E3609F082C169EC71E060C180E4CF
:103B9000D70114968C931497E114F10421F08FEF60
:103BA0008C9311968C93B1101AC025E0C22ED12CA3
:103BB000C6010F900F900F900F900F90DF91CF9153
:103BC0001F910F91FF90EF90DF90CF90BF90AF903B
:103BD0009F908F907F906F905F904F900895F80125
:103BE0001286C8010E94850E009751F56DE5C80147
:103BF0000E94510E8111DCCFBA94D8011B966D90B2
:103C00007C90C3010E94D51CA82E4B01672B21F488
:103C100094E0C92ED12CCCCFF70161816F3F91F098
:103C2000C30145960E94150EDC011596AC92F70172
:103C3000A1824B2DB401C8010E94721D009739F07A
:103C40006C01B6CFD7018C9311968C93F2CFC8013B
:103C50000E94850E0097A1F76DE5C8010E94510EE4
:103C60008111A6CF6CE2C8010E94510E8111C5CF0F
:103C700083E0C82ED12C9CCF80E2F7018483E1142D
:103C8000F10419F08FEF80838183BB2009F48DCF7D
:103C9000D8011A961C92C8010E94850E009781F6E1
:103CA0006DE7C8010E94510E811182CFBA94F801CC
:103CB0001582148282819381892B49F480819181BC
:103CC0000E942B06D80113969C938E931297C801DD
:103CD0000E94410E8732F9F08232E9F0C8010E9459
:103CE000410ED82E0E942F0E882311F2F801128661
:103CF0006D2DC8010E943511C8010E94410ED82EB9
:103D00000E942F0E8111F2CFD80112968D919C91B5
:103D1000892B41F47DCFC8010E9463116C01892B6E
:103D200009F046CFC8010E94850E6C01892B09F06D
:103D30003FCF6AE3C8010E94510E882309F498CF4F
:103D4000D8011296ED91FC91139714968D919C9148
:103D50001597E80FF91F148214966D917C911597B1
:103D60007F771B966D907C901C9712968D919C91FD
:103D70000496272F2F77BA2DB078AB2EA22AE8947D
:103D8000A7F89301AC017A2DC7010E9460196C015C
:103D9000009761F5C3010E94D51C482E4B01672B8B
:103DA00009F436CFC3010E94D51C582E962FC92E78
:103DB000D72EC114D10409F42BCFF4015582D701B9
:103DC00011966C916F3F71F0C30145960E94150EDC
:103DD000FC014582D70111965C92B401C8010E9492
:103DE000421207C0F70140825182F7CFB3010E940F
:103DF000DF124B2DB601C8010E94721D6C01892B88
:103E000009F0D6CEC8010E94850E6C01892B09F0FD
:103E1000CFCE6DE7C8010E94510E8111C9CE6CE270
:103E2000C8010E94510E882309F422CFC8010E94C4
:103E3000850E6C01892B09F43ACFBACE86E0D70102
:103E400014968C93149781E08C936EEB71E0C8010B
:103E50000F900F900F900F900F90DF91CF911F91C7
:103E60000F91FF90EF90DF90CF90BF90AF909F9019
:103E70008F907F906F905F904F900C94620E86E0D1
:103E8000F7018483108263EC71E0E1CFC8010E94E6
:103E9000410E4801FDE08F0E911CB12C782CA92C0D
:103EA000803384F08A3384F43FE3B316A9F0D80159
:103EB0001A961C92B394F40181934F01C8010E9499
:103EC000410EEECF8B3281F393ED980F923060F379
:103ED000982F9F7D953441F30B0D111DD8011D9630
:103EE0001C92872D9A2D0E948E0F3A834B835C8300
:103EF0006D838A819B81AC81BD812230A9F0233002
:103F000059F0213009F0B4CE2EE0F70124838083EC
:103F10009183A283B3834CCE2AE0F701248380836C
:103F20009183A283B38344CE2CE0F7CF4F925F926C
:103F30006F927F928F929F92AF92BF92CF92DF92B9
:103F4000EF92FF920F931F93CF93DF93CDB7DEB71E
:103F5000CF5FD1090FB6F894DEBF0FBECDBF6E01A3
:103F60002EECC20ED11C82E091E0F6019183808399
:103F7000128214821382C6010596968B858B178A4E
:103F800084E0808F8FEF818F168E878F9E012F5F49
:103F90003F4F790110E000E00E942C08609374020A
:103FA0007093750280937602909377028CE692E08C
:103FB0000E94260B97FD02C00C94D92D0E942C085C
:103FC0008090740290907502A0907602B090770273
:103FD000681979098A099B09809070029090710292
:103FE000A0907202B0907302681579058A059B054E
:103FF000E8F20F37110561F48CE692E00E94480B5D
:10400000892B31F08CE692E00E94260B0A97A1F7EB
:10401000E1E0F0E0EC0FFD1FE00FF11F1082053032
:10402000110578F045E050E06EEC71E0CE010196AC
:104030000E94B33C892B29F483EE97E00E94E91398
:1040400090C5F60160817181C60105960E94D30E6C
:10405000F601128200811181F6018381948100971B
:1040600051F0FC0120813181F60134832383B801B2
:104070000E94D512F1CF168ECF57DF4FD982C8825A
:10408000C158D040CD57DF4F19821882C358D04055
:10409000CB57DF4F19821882C558D040C957DF4F20
:1040A0001882C758D04021E030E02C0F3D1FC85780
:1040B000DF4F39832883C858D040C557DF4F188257
:1040C000CB58D040C457DF4FD982C882CC58D0409B
:1040D0004AE0B601665E7F4FCE018F579F4F0E9428
:1040E000721D8C01892B69F4C657DF4F8881CA582D
:1040F000D040882331F0F601868D83FF02C003E0B3
:1041000010E0CD57DF4F88819981C358D040009788
:1041100051F0CF57DF4FE881F981C158D04060811D
:1041200071810E94D51201151105F1F08CE695E020
:104130000E94D70BF801EE0FFF1FE65FFB4F859142
:1041400094910E94D70B89E695E00E94E9138CE6D2
:1041500092E00E94480B181619060CF002C58CE676
:1041600092E00E94260BF3CFCF57DF4FD982C8824F
:10417000C158D04084ED91E0CD57DF4F99838883BB
:10418000C358D04083E0CB57DF4F8883C558D04019
:10419000CA57DF4F1881C658D04010781068CA57E8
:1041A000DF4F1883C658D040CE018F579F4F0E94D3
:1041B000E519009709F4D5C4FC018481882309F42A
:1041C000D0C41068CA57DF4F1883C658D040CE01FC
:1041D0008F579F4F0E94F01A893DF1E09F0709F425
:1041E00081C00CF031C1883731E0930709F466C60D
:1041F0000CF07DC0873351E0950709F440C5E4F524
:104200008D32F1E09F0709F459C43CF560E08C322F
:1042100031E0930709F453C4813A32E0930709F47B
:1042200071C70CF08BC38C3C910509F4E4C70CF00A
:10423000DEC28636910511F40C94B62B0CF050C2F8
:104240008436910511F40C94292B8536910511F4CF
:104250000C946B2986E194E0F1CE8F3241E0940713
:1042600009F4E9C460E0863351E09507A9F680912E
:1042700016019091170127C48337E1E09E0709F4E6
:1042800025C434F5893321E0920731F600911601F7
:10429000109117010E942C08F801618B728B838B9F
:1042A000948B85849684A784B088DC01CB01880D2B
:1042B000991DAA1DBB1D858B968BA78BB08F81E0A6
:1042C00080A343EB53E069EB73E08EEB93E0D4C43F
:1042D000843731E0930709F45FC4853741E09407E0
:1042E00009F09ACF883D914009F480C03AC48139E1
:1042F00051E0950709F4E3C4D4F58E37F1E09F0748
:1043000009F4BFC424F58D3731E0930709F084CF59
:10431000EE24EA94FE2C00E010E021E030E040E0E2
:1043200050E068ED71E0C6010E94931A9B01AC0158
:10433000E0911601F0911701218732874387548756
:1043400061ED73E08BED93E00E94DC170AC48238C4
:1043500041E0940709F4C7C560E0803951E0950752
:1043600009F05ACF8091180190911901ACC38B3993
:10437000E1E09E0709F4C7C484F4833921E0920781
:1043800009F49FC460E08A3931E0930709F044CF13
:1043900080911A0190911B0196C38D3941E09407D9
:1043A00009F4D3C4883D51E0950709F035CF10ECEE
:1043B000E12E17E2F12E09E010E021E030E040E0CC
:1043C00050E062EE71E0C6010E94931A9B01AC01BD
:1043D000E0911801F09119012187328743875487B2
:1043E00065EA73E08EEA93E00E94DC17CF57DF4F57
:1043F000D982C882C158D04082EE91E0CD57DF4FBC
:1044000099838883C358D04088E0CB57DF4F888397
:10441000C558D040CA57DF4F8881C658D0408078F1
:104420008068CA57DF4F8883C658D040CE018F5767
:104430009F4F0E940F1A60932D0170932E0180935D
:104440002F0190933001F4C38F39E2E09E0709F405
:10445000B2C40CF088C0853F21E0920709F497C4EC
:1044600074F5823E41E0940709F44FC4C4F48C3DD6
:10447000E1E09E0709F0D0CE15E3E12EF12C00E03B
:1044800010E022E030E040E050E06BEE71E0C60169
:104490000E94931A809118019091190121C5863EBE
:1044A000F1E09F0709F432C560E0843F21E0920704
:1044B00009F0B2CE80911C0190911D0104C3883592
:1044C00032E0930709F46EC4C4F4803452E09507D7
:1044D00009F0A2CE15E3E12EF12C00E010E022E07D
:1044E00030E040E050E06BEE71E0C6010E94931AAC
:1044F00080911C0190911D01F3C48935E2E09E0773
:1045000009F447C48B35F2E09F0709F085CE00918E
:104510001E0110911F010115110509F422C30E940B
:104520002C08AB01BC01F801458B568B678B708F53
:1045300085859685A785B089840F951FA61FB71F0F
:10454000818F928FA38FB48FFF24F394F6A2C801BA
:104550000E94D00CF801F0A644E653E06AE673E04E
:104560008FE693E089C3843823E0920709F4A4C45A
:104570000CF075C0843A42E0940709F4DAC40CF0F8
:1045800054C0803AE2E09E0709F046CE10ECE12EDE
:1045900017E2F12E09E010E021E030E040E050E0C9
:1045A00062EE71E0C6010E94931A9B01AC01E0919A
:1045B0001E01F0911F01309751F0258736874787FC
:1045C000508B65E473E08EE493E00E94DC17CF57D4
:1045D000DF4FD982C882C158D04082EE91E0CD57DA
:1045E000DF4F99838883C358D04088E0CB57DF4F93
:1045F0008883C558D040CA57DF4F8881C658D040FD
:1046000080788068CA57DF4F8883C658D040CE0173
:104610008F579F4F0E940F1A6093290170932A01B0
:1046200080932B0190932C0103C3893AF2E09F07FA
:1046300009F428C48A3A22E0920709F0EDCDE0910E
:104640001E01F0911F01309709F48BC281E085A310
:1046500048E153E064E273E089E293E00DC3803DFA
:1046600033E0930709F47FC4BCF4853853E0950721
:1046700009F41AC48738E3E09E0709F0CDCD809194
:104680002001909121010E94BE0C42E053E068E0BD
:1046900073E08DE093E0F0C28433F4E09F0709F407
:1046A00098C4803625E0920709F0B6CD80911201BA
:1046B00090911301892B09F454C215E3E12EF12CDA
:1046C00000E010E022E030E040E050E06BEE71E00E
:1046D000C6010E94931A809112019091130192C415
:1046E0008836910511F40C94E02B14F40C94C22B31
:1046F0008936910509F0AECDC251DF4F1882CE5EEA
:10470000D040CF57DF4FD982C882C158D04083E113
:1047100092E0CD57DF4F99838883C358D04086E01D
:10472000CB57DF4F8883C558D040CA57DF4F8881A9
:10473000C658D04080788068CA57DF4F8883C658F3
:10474000D040BE0162517F4FCE018F579F4F0E94D4
:10475000FE19182F0E942C084B015C018091CD049A
:10476000882311F40C94FE2C1093CF04112311F420
:104770000C947D2C8092D0049092D104A092D2040B
:10478000B092D3040E940D07E0911303F09114033B
:10479000309719F084810E945808E0911503F09138
:1047A0001603309719F084810E9458088091E5041F
:1047B0008823B9F08091F304811113C082EE94E054
:1047C0000E94BE0C8092F4049092F504A092F6042C
:1047D000B092F70481E08093F304F8941092E4041B
:1047E0007894412F69E574E088E694E0DCC48A3768
:1047F00051E0950709F460C00CF052C08C3D910562
:1048000009F431C58D3D910509F024CDC251DF4F2A
:104810001882CE5ED040CF57DF4FD982C882C158B0
:10482000D04086E092E0CD57DF4F99838883C3580C
:10483000D04085E0CB57DF4F8883C558D040CA575A
:10484000DF4F8881C658D04080788068CA57DF4FD4
:104850008883C658D040BE0162517F4FCE018F572A
:104860009F4F0E94FE19182F83E595E0112311F048
:104870008DE395E0909306018093050185E0111189
:1048800086E080930B010E94180F44EA54E0112344
:1048900011F049EA54E06FEA74E08BEB94E0ECC16C
:1048A0008E3DF1E09F0741F0883E21E0920721F024
:1048B0008438914009F0CECCC251DF4F1982188262
:1048C000CE5ED040CF57DF4FD982C882C158D0408A
:1048D0008AE192E0CD57DF4F99838883C358D04057
:1048E00086E0CB57DF4F8883C558D040CA57DF4F8B
:1048F0008881C658D04080788068CA57DF4F888347
:10490000C658D040BE0162517F4FCE018F579F4F96
:104910000E94911B20E08130910529F021E0823036
:10492000910509F029E020933B039C01990F440B6A
:10493000550B61E474E08EE494E006CD8C3444E0E1
:10494000940711F40C94032D0CF059C0893EE3E058
:104950009E0709F418C46CF48C3A22E0920709F41B
:104960000EC460E0883E934009F074CC81ED95E080
:10497000AAC0883344E0940709F418C4893354E08A
:10498000950709F402C48233944009F063CCCF57F1
:10499000DF4FD982C882C158D04085EF91E0CD5712
:1049A000DF4F99838883C358D04087E0CB57DF4FD0
:1049B0008883C558D040CA57DF4F8881C658D04039
:1049C00080788068CA57DF4F8883C658D040CE01B0
:1049D0008F579F4F0E940F1A4B015C0180920C0170
:1049E00090920D01A0920E01B0920F010E94E0067C
:1049F000A501940168E575E080E695E0A5CC8531D8
:104A0000F5E09F0709F4DAC39CF4883934E0930792
:104A100011F40C94062D843145E0940709F4D2C3B7
:104A20008D34944009F016CC81E00E94F71399C0B0
:104A30008436E5E09E0709F4D6C38536F5E09F0786
:104A400009F4C2C38E35954009F004CCCF57DF4F2F
:104A5000D982C882C158D04085EF91E0CD57DF4F51
:104A600099838883C358D04087E0CB57DF4F888332
:104A7000C558D040CA57DF4F8881C658D04080788B
:104A80008068CA57DF4F8883C658D040CE018F5701
:104A90009F4F0E940F1A4B015C0180920C01909273
:104AA0000D01A0920E01B0920F010E94E006A50137
:104AB00094016FE175E087E295E046CC61E080917A
:104AC0001401909115010E949B184BC0EE24EA94AA
:104AD000FE2C00E010E021E030E040E050E068ED26
:104AE00071E0C6010E94931A9B01AC01E091140190
:104AF000F091150121873287438754876CEF73E06B
:104B000086E094E00E94DC17CF57DF4FD982C8823D
:104B1000C158D04088ED91E0CD57DF4F998388830D
:104B2000C358D04089E0CB57DF4F8883C558D04069
:104B3000CA57DF4F8881C658D04080788068CA57EE
:104B4000DF4F8883C658D040CE018F579F4F0E94B9
:104B50000F1A609331017093320180933301909367
:104B60003401C6010E944713C150DF4F0FB6F894BD
:104B7000DEBF0FBECDBFDF91CF911F910F91FF9090
:104B8000EF90DF90CF90BF90AF909F908F907F90ED
:104B90006F905F904F90089510ECE12E17E2F12E88
:104BA00009E010E021E030E040E050E062EE71E02A
:104BB000C6010E94931A9B01AC01E0911401F0918F
:104BC0001501258736874787508B6FEE73E088EF96
:104BD00093E00E94DC17CF57DF4FD982C882C158BB
:104BE000D04082EE91E0CD57DF4F99838883C35840
:104BF000D04088E0CB57DF4F8883C558D040CA5794
:104C0000DF4F8881C658D04080788068CA57DF4F10
:104C10008883C658D040CE018F579F4F0E940F1AED
:104C2000609335017093360180933701909338017A
:104C30000E94180F96CF00911401109115010E9447
:104C40002C08F801618B728B838B948B85849684FE
:104C5000A784B088DC01CB01880D991DAA1DBB1D5E
:104C6000858B968BA78BB08F81E080A340EE53E0BD
:104C700066EE73E08BEE93E00E943C1472CF61E02D
:104C8000F6CA10ECE12E17E2F12E09E010E021E067
:104C900030E040E050E062EE71E0C6010E94931AFD
:104CA0009B01AC01E0911601F09117012587368731
:104CB0004787508B63EC73E08CEC93E045CB61E06D
:104CC00051CB00911801109119010E942C08F80194
:104CD000658776878787908B81849284A384B48448
:104CE000DC01CB01880D991DAA1DBB1D818B928B08
:104CF000A38BB48B81E0858B45E953E06BE973E0CE
:104D000080EA93E0B9CF61E043CB10ECE12E17E2EB
:104D1000F12E09E010E021E030E040E050E062EEEA
:104D200071E0C6010E94931A9B01AC01E0911A0147
:104D3000F0911B01218732874387548766E873E02F
:104D40008FE893E00E94DC1773CF00911A01109155
:104D50001B010E942C08F801658776878787908B56
:104D600081849284A384B484DC01CB01880D991DD5
:104D7000AA1DBB1D818B928BA38BB48B81E0858B8D
:104D800045E753E06BE773E080E893E075CF61E0BF
:104D900091CB80911E0190911F0161E0009709F075
:104DA00092CEDFCE80911E0190911F0160E00097AE
:104DB00009F089CED6CEEE24EA94FE2C00E010E075
:104DC00021E030E040E050E068ED71E0C6010E9473
:104DD000931A9B01AC01E0911E01F0911F013097E5
:104DE00079F0211531054105510521F021873287E0
:104DF0004387548764E573E08EE593E00E94DC17F7
:104E0000CF57DF4FD982C882C158D04088ED91E09A
:104E1000CD57DF4F99838883C358D04089E0CB5763
:104E2000DF4F8883C558D040CA57DF4F8881C658A6
:104E3000D04080788068CA57DF4F8883C658D040FA
:104E4000CE018F579F4F0E94E519DC01009709F4AE
:104E5000EBC01496EC911497E250ED3008F0E4C0EA
:104E6000F0E0EB5CF84D0C94CB3A2428142822286F
:104E70004E28052814281428142809281428162830
:104E800014285228E0911E01F0911F01309749F03B
:104E900015A24FE253E06AE373E08FE393E00E94D0
:104EA0003C1410924802C4CE61E0809120019091A0
:104EB00021010E94171455CE60E0F7CF15E3E12ED3
:104EC000F12C00E010E022E030E040E050E06BEE3A
:104ED00071E0C6010E94931A80911401909115010E
:104EE0000E9406193ECE15E3E12EF12C00E010E001
:104EF00022E030E040E050E06BEE71E0C6010E943D
:104F0000931A8091160190911701EACF15E3E12ED3
:104F1000F12C00E010E022E030E040E050E06BEEE9
:104F200071E0C6010E94931A80911A0190911B01B1
:104F3000D7CF80911E0190911F01892B09F411CECA
:104F400015E3E12EF12C00E010E022E030E040E03B
:104F500050E06BEE71E0C6010E94931A80911E0131
:104F600090911F01BDCF15E3E12EF12C00E010E080
:104F700022E030E040E050E06BEE71E0C6010E94BC
:104F8000931AF62E0091200110912101F8018485D9
:104F9000882331F060E080810E946807F801148660
:104FA000F801F08261E08F2D0E94960760E0F80121
:104FB00080810E9468078EEB92E00E94D70BF80177
:104FC0008081082E000C990B0E94B9130E94641472
:104FD000C8CD8091100190911101892B09F4C1CDA8
:104FE00015E3E12EF12C00E010E022E030E040E09B
:104FF00050E06BEE71E0C6010E94931A809110019F
:10500000909111010E943C19ACCD8C9080922801A6
:10501000A8CD8D909D90AD90BC902FEF82169104FD
:10502000A104B10499F390F3812CF0CF8D909D9061
:10503000AD90BC903FEF83169104A104B10431F30D
:1050400028F3F2CF8D919C910E948E0FC251DF4FB9
:105050002883CE5ED040C151DF4F3883CF5ED04031
:10506000C051DF4F4883C05FD040CF50DF4F5883DF
:10507000C15FD040CE50DF4F6883C25FD040C15186
:10508000DF4F88809980AA80BB80CF5ED0402230DD
:1050900039F1233071F1213039F608C08D919C919E
:1050A0000496D2CF8D909D90AD90BC9020E030E0E2
:1050B000A901C501B4010E94C63A87FDB5CF20E021
:1050C00030E04FE753E4C501B4010E94F3371816EE
:1050D0000CF4AACFC501B4010E94973A862E96CF50
:1050E0004FEF84169104A104B10409F008F48ECFA7
:1050F0009BCF5FEF85169104A104B10409F008F479
:1051000085CF92CFCF57DF4FD982C882C158D040C8
:105110008FEE91E0CD57DF4F99838883C358D040FD
:1051200085E0CB57DF4F8883C558D040CA57DF4F43
:105130008881C658D04080788068CA57DF4F8883FE
:10514000C658D040CE018F579F4F0E940F1A61362C
:10515000EAEE7E078105910520F060E67AEE80E0B8
:1051600090E06093090570930A0580930B05909376
:105170000C0580914802882309F4F3CC59CD81E0D5
:105180008093480255CD61E0F1CB81E08093E10549
:1051900081ED95E0909301018093000141E064E48A
:1051A00075E08FE495E00E94B317DBCC1092E10527
:1051B00040E060E375E08BE395E0F5CF61E08BEADA
:1051C00095E081CC60E0FBCF81E08093BB058BEA6A
:1051D00095E0909301018093000141E06BE075E060
:1051E00086E195E0E0CF1092BB0540E067EF74E008
:1051F00082E095E0D8CFCF57DF4FD982C882C1581F
:10520000D0408DEF91E0CD57DF4F99838883C3580D
:10521000D04088E0CB57DF4F8883C558D040CA576D
:10522000DF4F8881C658D04080788068CA57DF4FEA
:105230008883C658D040CE018F579F4F0E940F1AC7
:105240004B015C018092070190920801A092090134
:10525000B0920A010E94180FA501940160EE74E05B
:105260008CEE94E071C8CF57DF4FD982C882C15805
:10527000D0408DEF91E0CD57DF4F99838883C3589D
:10528000D04088E0CB57DF4F8883C558D040CA57FD
:10529000DF4F8881C658D04080788068CA57DF4F7A
:1052A0008883C658D040CE018F579F4F0E940F1A57
:1052B0004B015C0180925A0290925B02A0925C02C8
:1052C000B0925D020E94180FA501940166EC74E093
:1052D00085ED94E039C80E942C084B015C01809256
:1052E000440290924502A0924602B092470282EE9A
:1052F00094E00E94BE0C1092CE041092CF048092D3
:10530000C5049092C604A092C704B092C80481E07C
:105310008093CD048FE193E00E94640C8DE393E0D1
:105320000E94640C29E4E22E23E0F22E0DE013E04B
:10533000F8018489882341F08289813009F05AC1BB
:10534000858E968EA78EB0A2025E1F4FE016F106E4
:1053500079F7E3EEF3E010823F9624E0E33DF207B5
:10536000D1F7E0910D03F0910E03309721F0118AEF
:10537000128A138A148AE0910F03F0911003309778
:1053800021F0118A128A138A148AE0911B03F0918A
:105390001C033097A9F0158A168A178A108E118E71
:1053A000128E138E148E158E168E178E10A211A2C9
:1053B00012A213A214A216A217A210A681E081A71E
:1053C0008AE792E00E94E9138BE292E00E94D70BF9
:1053D00060910C0170910D0180910E0190910F016F
:1053E0000E94B61389E192E00E94D70B80910001E0
:1053F00090910101815D954009F428C18BE991E00C
:105400000E94D70B85E092E00E94D70B60915A0270
:1054100070915B0280915C0290915D020E94B613D4
:105420000E946414E0903501F0903601009137013C
:1054300010913801209131013091320140913301B6
:10544000509134016091900581E092E00E946E17C6
:10545000E0907605F0907705009178051091790538
:105460002091720530917305409174055091750536
:1054700060916F058CEF91E00E946E1720912D01D5
:1054800030912E0140912F015091300160915905CA
:1054900087EF91E00E943F17209146053091470524
:1054A00040914805509149056091430581EF91E095
:1054B0000E943F17E0902901F0902A0100912B01F2
:1054C00010912C012091280130E050E040E06091E3
:1054D000FE048BEE91E00E946E176091280586EE27
:1054E00091E00E9422176091E5048BED91E00E940B
:1054F00022176091D80487ED91E00E942217409115
:10550000E1056091D7058EEC91E00E94F61640917E
:10551000BB056091B10585EC91E00E94F61681EA29
:1055200091E00E94D70B6091070170910801809172
:10553000090190910A010E94B6130E94641480919F
:10554000440290914502A0914602B0914702E09139
:105550001001F091110180839183A283B383E091C4
:105560001201F091130180839183A283B383E091B0
:105570001401F091150180839183A283B383E0919C
:105580001601F091170180839183A283B383E09188
:105590001801F091190180839183A283B383E09174
:1055A0001A01F0911B0180839183A283B383E09160
:1055B0001C01F0911D0180839183A283B383E0914C
:1055C0001E01F0911F01309721F080839183A28307
:1055D000B383E0912001F091210180879187A28718
:1055E000B3878093DD049093DE04A093DF04B0932F
:1055F000E004B7CA823009F0A7CE41A452A463A444
:1056000074A460E070E0CB011414150416041704B0
:1056100034F40E949B37A30192010E941739680D50
:10562000791D8A1D9B1DF80161A372A383A394A316
:1056300081A592A5A3A5B4A5880D991DAA1DBB1D82
:1056400085A396A3A7A3B0A715A67ECE8EE991E069
:10565000D7CE80916202811184CA0E942C084B012E
:105660005C0180925E0290925F02A0926002B09212
:1056700061028091E5048823B9F08091F3048111DF
:1056800013C082EE94E00E94BE0C8092F4049092CB
:10569000F504A092F604B092F70481E08093F3043D
:1056A000F8941092E404789480905E0290905F02E7
:1056B000A0906002B09061021092CD041092CF04CD
:1056C000E3EEF3E083ED94E010823F968E179F07A0
:1056D000D9F7E0911303F0911403309719F0848106
:1056E0000E945808E0911503F0911603309719F0C5
:1056F00084810E945808E0911703F09118033097B5
:1057000021F060E084810E946807E0911903F09124
:105710001A03309721F060E084810E946807E091CD
:105720001B03F0911C03309729F011A660E08481DF
:105730000E9468078BE591E00E94D70B809144029C
:1057400090914502A0914602B0914702A5019401B3
:10575000281B390B4A0B5B0BCA01B9010E94B61317
:105760000E94641481E080936202FBC98091CD04A1
:1057700081110C941C200E94C51880E00E94F71330
:105780000C941C200E942C084B015C018091CD04DC
:1057900081110FC00E940D078092C5049092C6042B
:1057A000A092C704B092C804B501A40180E00E9491
:1057B0001E1648E854E06EE874E089E994E05CCA9B
:1057C000C251DF4F1882CE5ED040CF57DF4FD98213
:1057D000C882C158D0408CE092E0CD57DF4F99830A
:1057E0008883C358D04086E0CB57DF4F8883C558A5
:1057F000D040CA57DF4F8881C658D0408078806833
:10580000CA57DF4F8883C658D040BE0162517F4FD0
:10581000CE018F579F4F0E94FE19182F0E942C080F
:105820002091CD04211166C01093CE04112369F19B
:105830006093C5047093C6048093C7049093C80412
:105840000E940D078FE193E00E94640C8DE393E0CA
:105850000E94640CE0910D03F0910E03309721F04B
:10586000118A128A138A148AE0910F03F0911003AF
:10587000309721F0118A128A138A148A4091CE043B
:1058800063E774E08DE794E08ECC0E940D07E09111
:105890001303F0911403309719F084810E94580883
:1058A000E0911503F0911603309719F084810E945E
:1058B0005808E0911703F0911803309721F060E049
:1058C00084810E946807E0911903F0911A033097D0
:1058D00021F060E084810E946807E0911B03F09151
:1058E0001C03309721F060E084810E9468070E94C9
:1058F000180FC4CF1111C2CFFACF8091D00490916C
:10590000D104A091D204B091D304B501A401481BE5
:10591000590B6A0B7B0BEDE0F3E029E433E084895B
:105920008823A1F08289813009F04CC0858D968D45
:10593000A78DB0A10097A105B10541F0840F951F77
:10594000A61FB71F858F968FA78FB0A37E962E17A1
:105950003F0729F78091E504882311F40C94F12383
:105960008091F304882311F40C94F123F89460914E
:10597000EA047091EB048091EC049091ED04409066
:10598000F4045090F5046090F6047090F7046419E4
:10599000750986099709860E971EA81EB91E809262
:1059A000EA049092EB04A092EC04B092ED04109201
:1059B000E40478941092F30482EE94E00E94BE0C0A
:1059C0000C94F123823009F0C1CF81A192A1A3A14F
:1059D000B4A1840F951FA61FB71F81A392A3A3A3F1
:1059E000B4A385A196A1A7A1B0A5840F951FA61F5A
:1059F000B71F85A396A3A7A3B0A7A8CF112309F427
:105A0000A9CF0C94D62380E00C9415258BE0A82E0A
:105A1000B12CC650DF4FB982A882CA5FD040CF57A1
:105A2000DF4FD982C882C158D0400BEE11E0CD576C
:105A3000DF4F19830883C358D04093E0F92ECB572A
:105A4000DF4FF882C558D040CA57DF4F8881C6580B
:105A5000D04080788068CA57DF4F8883C658D040CE
:105A6000BE0166507F4FCE018F579F4F0E94911B02
:105A700008970CF49AC0C450DF4FB982A882CC5F5B
:105A8000D040C251DF4FD982C882CE5ED040C051D3
:105A9000DF4F19830883C05FD040CE50DF4FF882BC
:105AA000C25FD040CD50DF4F8881C35FD040807847
:105AB0008068CD50DF4F8883C35FD040BE01645003
:105AC0007F4FCE0182519F4F0E94911B0E970CF089
:105AD0006EC0C250DF4FB982A882CE5FD040CC509A
