:100000000C9407060C94F52E0C94CE2E0C94D02F45
:100010000C942F060C942F060C942F060C941C2F76
:100020000C942F060C942F060C942F060C942F067C
:100030000C942F060C942F060C942F060C942F066C
:100040000C94842E0C942F060C949E2F0C94782FD5
:100050000C942F060C942F060C942F060C942F064C
:100060000C942F060C942F06546F6F446565700036
:100070004E6F4D656D6F727900496E76616C696483
:10008000496E70757400496E636F6D706C65746550
:10009000496E70757400456D707479496E70757431
:1000A000004F6B00CDCCCC3D0AD7233C17B7D138DD
:1000B00077CC2B329595E6241FB14F0A00002041E2
:1000C0000000C84200401C4620BCBE4CCA1B0E5A51
:1000D000AEC59D74227D007B226C6576656C223AEC
:1000E00022303031222C22646576696365223A22FF
:1000F000434F4E54524F4C4C4552222C2264657350
:1001000063223A225052207468726573686F6C647F
:100110002063617070656420617420007B226C65CF
:1001200076656C223A22303030222C226465766962
:100130006365223A22534C4D222C22706172616D0C
:10014000223A2274696D657374616D705F70696EB7
:10015000222C2276616C7565223A007B226C6576D2
:10016000656C223A22303037222C2264657669632E
:1001700065223A22434F4E54524F4C4C4552222C4A
:10018000226576656E74223A22454E44222C2274F2
:10019000696D657374616D70223A004C4800524875
:1001A000007B226C6576656C223A22303030222C3E
:1001B000227661726961626C655F696E74657276E0
:1001C000616C223A004C455645525F4C48004C4504
:1001D0005645525F524800534C4D004D4943524FD3
:1001E00053434F5045004C49434B004C41534552FB
:1001F0000050554D50320050554D5000435545323A
:100200000043554500222C2274726163655F696E5C
:1002100074657276616C223A002C2261637469768F
:10022000655F6C65766572223A22007B226C65768A
:10023000656C223A22303030222C22646576696364
:1002400065223A22434F4E54524F4C4C4552222C79
:1002500022706172616469676D223A225641524987
:1002600041424C455F494E54455256414C222C2246
:1002700074696D656F7574223A007B226C657665D2
:100280006C223A22303037222C226465766963650D
:10029000223A22434F4E54524F4C4C4552222C226C
:1002A0006576656E74223A225354415254222C22B0
:1002B00074696D657374616D70223A307D007B22C4
:1002C0006C6576656C223A22303030222C226465CF
:1002D00076696365223A224D4943524F53434F504A
:1002E00045222C22706172616D223A227472696714
:1002F0006765725F70696E222C2276616C7565226B
:100300003A0046495245440074657374004D4943B0
:10031000524F53434F504500494E444550454E447B
:10032000454E54006D6F6465004C41534552004387
:100330004F4E54494E47454E54006D6F6465004C16
:1003400041534552006475726174696F6E004C418F
:10035000534552006672657175656E6379004C4154
:100360005345520046495245440074657374004C2D
:100370004153455200464952454400746573740028
:1003800050554D5032006475726174696F6E005043
:10039000554D50320046495245440074657374000F
:1003A00050554D50006475726174696F6E00505500
:1003B0004D500046495245440074657374004355DE
:1003C0004532006475726174696F6E004355453241
:1003D000006672657175656E63790043554532003C
:1003E00046495245440074657374004355450064A2
:1003F00075726174696F6E00435545006672657170
:1004000075656E63790043554500A100960086002E
:100410007900700068007B226C6576656C223A2258
:10042000303036222C2264657363223A22436F6D8A
:100430006D616E64206E6F7420666F756E64227DD0
:10044000006C657665725F66696C74657200434F17
:100450004E54524F4C4C45520073657373696F6E26
:100460005F70617573656400434F4E54524F4C4C3E
:10047000455200746573745F6D6F646500434F4E41
:1004800054524F4C4C455200464952454400746505
:1004900073745F636861696E00434F4E54524F4CF2
:1004A0004C45520050554D500050554D5032006152
:1004B00063746976655F70756D7000434F4E54527A
:1004C0004F4C4C45520074726163655F696E746590
:1004D0007276616C00434F4E54524F4C4C45520063
:1004E00076695F696E74657276616C00434F4E5435
:1004F000524F4C4C4552007265696E666F7263656F
:1005000064004C455645525F4C48007265696E6602
:100510006F72636564004C455645525F4C480074E9
:10052000696D656F7574004C455645525F4C4800C7
:100530007265696E666F72636564004C455645521C
:100540005F5248007265696E666F72636564004C45
:10055000455645525F52480074696D656F75740069
:100560004C455645525F524800227D007B226C6507
:1005700076656C223A22303036222C226465736311
:10058000223A220044495341524D45440041524DC4
:10059000454400227D002C2264657363223A2200C8
:1005A000222C2270696E223A007B226C6576656C83
:1005B000223A22303031222C22646576696365222A
:1005C0003A2200222C22706172616D223A227069F7
:1005D0006E222C2276616C7565223A007B226C6556
:1005E00076656C223A22303030222C22646576699E
:1005F0006365223A2200222C2276616C7565223ACC
:1006000000222C22706172616D223A22007B226CE2
:100610006576656C223A22303030222C2264657671
:10062000696365223A220066616C736500747275B5
:100630006500222C2276616C7565223A00222C22FC
:10064000706172616D223A22007B226C6576656C66
:10065000223A22303030222C22646576696365228A
:100660003A2200227D00222C2276616C7565223AA6
:100670002200222C22706172616D223A22007B22BC
:100680006C6576656C223A22303030222C2264650B
:1006900076696365223A220044495341524D4544EC
:1006A0000041524D454400227D002C226465736355
:1006B000223A22007B226C6576656C223A22303029
:1006C00031222C22646576696365223A224D4943C2
:1006D000524F53434F5045222C2270696E223A00EC
:1006E00066616C73650074727565002C22647572A6
:1006F0006174696F6E223A002C22667265717565AD
:100700006E6379223A00222C2261726D6564223A6E
:10071000007B226C6576656C223A22303030222CC8
:1007200022646576696365223A220066616C7365AE
:100730000074727565002C226475726174696F6E45
:10074000223A00222C2261726D6564223A007B22DB
:100750006C6576656C223A22303030222C2264653A
:1007600076696365223A220066616C736500747273
:10077000756500222C2261726D6564223A007B222D
:100780006C6576656C223A22303030222C2264650A
:1007900076696365223A220066616C736500747243
:1007A00075650066616C73650074727565002C2256
:1007B0007265696E666F72636564223A00222C224C
:1007C00061726D6564223A007B226C6576656C22ED
:1007D0003A22303030222C22646576696365223AF1
:1007E0002200027B226C6576656C223A2230303022
:1007F000222C22646576696365223A22434F4E5467
:10080000524F4C4C4552222C22736B657463682204
:100810003A2276692E696E6F222C22766572736990
:100820006F6E223A2276322E302E30222C226261D6
:1008300075645F72617465223A3131353230302C23
:10084000227363686564756C65223A225641524989
:1008500041424C455F494E54455256414C227D0021
:100860002C22656E645F74696D657374616D7022AE
:100870003A002C226576656E74223A224C49434B2D
:10088000222C2273746172745F74696D6573746174
:100890006D70223A00222C2270696E223A007B226F
:1008A0006C6576656C223A22303037222C226465E2
:1008B00076696365223A22002C22656E645F746952
:1008C0006D657374616D70223A002C226576656ED9
:1008D00074223A225354494D222C2273746172744B
:1008E0005F74696D657374616D70223A007B226C70
:1008F0006576656C223A22303037222C2264657688
:10090000696365223A224C41534552222C22706978
:100910006E223A002C226576656E74223A22544982
:100920004D455354414D50222C2274696D657374AA
:10093000616D70223A007B226C6576656C223A22EA
:10094000303038222C22646576696365223A224D64
:100950004943524F53434F5045222C2270696E2217
:100960003A002C226576656E74223A2254494D4530
:100970005354414D50222C2274696D657374616D1E
:1009800070223A007B226C6576656C223A22303008
:1009900039222C22646576696365223A22534C4DD4
:1009A000222C2270696E223A0000000000240027E9
:1009B000002A0000000000250028002B0000000095
:1009C0000023002600290004040404040404040293
:1009D00002020202020303030303030102040810DC
:1009E00020408001020408102001020408102000A9
:1009F00000000800020100000304070000000000DE
:100A000000000044495341524D45440041524D4578
:100A10004400227D002C2264657363223A22007B0D
:100A2000226C6576656C223A22303031222C2264A9
:100A30006576696365223A22534C4D222C227069F7
:100A40006E223A004C455645525F4C48004C455684
:100A500045525F524800227D002C226F7269656EFC
:100A6000746174696F6E223A22002C22656E645F95
:100A700074696D657374616D70223A00222C227363
:100A8000746172745F74696D657374616D70223A1C
:100A9000002C226576656E74223A225052455353DB
:100AA000222C22636C617373223A2200222C227062
:100AB000696E223A007B226C6576656C223A2230A0
:100AC0003037222C22646576696365223A2200540D
:100AD000494D454F555400494E41435449564500F0
:100AE000414354495645002C227363686564756C14
:100AF00065645F6174223A002C22746172676574C8
:100B0000223A007B226C6576656C223A22303036C0
:100B1000222C226572726F725F636F6465223A22C3
:100B2000455F50454E44494E475F46554C4C222C3C
:100B30002264657363223A2250656E64696E672091
:100B4000616374696F6E2071756575652066756C7B
:100B50006C20E2809420616374696F6E2064726F10
:100B600070706564222C22616374696F6E5F7479A2
:100B70007065223A005354494D00494E4655534939
:100B80004F4E00494E465553494F4E00544F4E4527
:100B900000544F4E45004C415345520050554D5066
:100BA0005F320050554D505F31004355455F320074
:100BB0004355455F31002C22656E645F74696D6535
:100BC0007374616D70223A00222C22737461727406
:100BD0005F74696D657374616D70223A002C2265D3
:100BE00076656E74223A2200222C2270696E223AB7
:100BF000007B226C6576656C223A22303037222CDD
:100C000022646576696365223A2200007E301124F1
:100C10001FBECFEFD8E0DEBFCDBF12E0A0E0B1E055
:100C2000E8EEFAE702C005900D92A634B107D9F7B5
:100C300026E0A6E4B2E001C01D92AA31B207E1F7B6
:100C400016E0C7E0D6E004C02197FE010E94653B94
:100C5000C630D107C9F70E94D6330C94723D0C946C
:100C60000000CF93DF93EC0188819981DC01ED9145
:100C7000FC910190F081E02D64E270E0099500970D
:100C800041F02FE1FC01238321E02283DF91CF910A
:100C9000089521E02A83FACF8F92AF92CF92EF92FC
:100CA000FF920F931F93CF93DF93CDB7DEB73C85B1
:100CB000E2E0E093210310922203E1E0E0932303BA
:100CC000409338035093390360933A0370933B0386
:100CD00010923003109231031092320310923303BA
:100CE000109234031092350310923603109237039A
:100CF00010923C0349E040933D0344E640933E0399
:100D00001092410344E040939F0310925D0343E03F
:100D100040935E03A0925F03109260031092610300
:100D200010926203109263034091B6055091B7058B
:100D30006091B8057091B9054093640350936503C1
:100D4000609366037093670310926803C09269030F
:100D5000E6E0CE12382D30936A034E0D5F1D601F02
:100D6000711F40936B0350936C0360936D037093FA
:100D70006E03FC0181859285A385B48580936F0302
:100D800090937003A0937103B09372031092730356
:100D900087E08093740389E0809375034093760322
:100DA00050937703609378037093790340912405FF
:100DB00050912505609126057091270540937A038F
:100DC00050937B0360937C0370937D0391E0909339
:100DD0007E0320937F0380938003109281031092FF
:100DE000820310928303109284038091E704909110
:100DF000E804A091E904B091EA04809385039093FC
:100E00008603A0938703B0938803DF91CF911F914E
:100E10000F91FF90EF90CF90AF908F9008956093D7
:100E2000E7047093E8048093E9049093EA04309116
:100E30009F03EDE5F3E020E023130DC03091E203C2
:100E4000E0EAF3E020E02317B1F04081413071F097
:100E50002F5F3B96F8CF4081413019F02F5F3B96D2
:100E6000EBCF6783708781879287F8CF678370871E
:100E700081879287EDCF0895E2EFF3E010827096BC
:100E800084E0E23FF807D1F70895833081F028F439
:100E9000813099F08230A9F008958730A9F0883028
:100EA000C9F08430B1F4809180008F7D03C08091BF
:100EB00080008F7780938000089584B58F7784BDFC
:100EC000089584B58F7DFBCF8091B0008F7780939C
:100ED000B00008958091B0008F7DF9CFCF93DF935C
:100EE000282F30E0F901E151F64F8491F901E552E4
:100EF000F64FD491F901E953F64FC491CC23A1F0F8
:100F000081110E944507EC2FF0E0EE0FFF1FE35424
:100F1000F64FA591B491EC91ED2381E090E009F4B6
:100F200080E0DF91CF91089580E090E0FACF1F93A9
:100F3000CF93DF93282F30E0F901E151F64F8491F0
:100F4000F901E552F64FD491F901E953F64FC491F6
:100F5000CC23A9F0162F81110E944507EC2FF0E059
:100F6000EE0FFF1FED54F64FA591B4918FB7F89493
:100F7000EC91111108C0D095DE23DC938FBFDF9177
:100F8000CF911F910895DE2BF8CFCF93DF9390E0A0
:100F9000FC01E552F64F24918953964FFC01849150
:100FA0008823C9F090E0880F991FFC01E755F64FA0
:100FB000A591B491FC01ED54F64FC591D491611106
:100FC0000DC09FB7F8948C91209582238C938881D3
:100FD000282328839FBFDF91CF910895623051F479
:100FE0009FB7F8943C91822F809583238C93E8815E
:100FF0002E2BEFCF8FB7F894EC912E2B2C938FBF25
:10100000EACF3FB7F89480916A0290916B02A09169
:101010006C02B0916D0226B5A89B05C02F3F19F058
:101020000196A11DB11D3FBFBA2FA92F982F882768
:10103000BC01CD01620F711D811D911D42E0660F43
:10104000771F881F991F4A95D1F708958F929F9215
:10105000AF92BF92CF92DF92EF92FF920E9401086F
:101060004B015C0184E6C82ED12CE12CF12C0E94AE
:101070000108681979098A099B09683E734081054E
:101080009105A8F321E0C21AD108E108F10888EE21
:10109000880E83E0981EA11CB11CC114D104E10488
:1010A000F10429F7FF90EF90DF90CF90BF90AF90C1
:1010B0009F908F9008952FB7F89460916602709179
:1010C000670280916802909169022FBF08950F9383
:1010D0001F93CF93DF93C0910D03D0910E03209700
:1010E00081F081E08A830E945B08088519852A8542
:1010F0003B85601B710B820B930B6C837D838E830E
:101100009F83DF91CF911F910F9108950895909142
:10111000070189130BC0E2EEF7E0E4919FEF909393
:101120000701E13049F028F0E23061F060E00C9412
:10113000970710926E00FACF90916F009D7F909369
:101140006F00F4CF909170009D7F9093700091E0BC
:101150009093B0009091B100987F94609093B1000B
:101160001092B300E3CF4F925F926F927F928F9273
:101170009F92AF92BF92CF92DF92EF92FF920F9326
:101180001F93CF93DF9300D000D01F92CDB7DEB76F
:101190008B0129013A01909107018917C9F09F3FFE
:1011A00009F47EC00F900F900F900F900F90DF9179
:1011B000CF911F910F91FF90EF90DF90CF90BF9054
:1011C000AF909F908F907F906F905F904F90089519
:1011D000E2EEF7E094919D8397FDE4CF61E00E94F9
:1011E000C5078D81882321F09D81923009F04AC185
:1011F0004801B12CA12C60E072E18AE790E0A501E2
:1012000098010E94B13929833A834B835C83690139
:101210007A0181E0C81AD108E108F1089FEFC916E8
:10122000D104E104F10409F00CF401C160E472E4BA
:101230008FE090E0A50198010E94B13969017A011F
:1012400081E0C81AD108E108F1089D81923009F0C7
:10125000A2C08FEFC816D104E104F10409F00CF428
:10126000E6C160E970ED83E090E0A50198010E947D
:10127000B13969017A0191E0C91AD108E108F10890
:101280008FEFC816D104E104F10411F00CF07FC116
:1012900083E09091B100987F892B8093B100CFC0FB
:1012A00080930701E2EEF7E094919D839F3F09F45C
:1012B00079CF913041F150F0923009F446C09D81D0
:1012C00097FD70CF61E00E94C5078ECF14BC15BC9E
:1012D00094B5926094BD95B5916095BD282F30E08E
:1012E000F901E953F64FE491F0E0EE0FFF1FED54E2
:1012F000F64F45915491F901E552F64FE491E09390
:101300004C021D826BCF1092800010928100909150
:1013100081009860909381009091810091609093FA
:101320008100282F30E0F901E953F64FE491F0E015
:10133000EE0FFF1FED54F64F45915491F901E55220
:10134000F64FE491E0934B0249CF1092B000109217
:10135000B1009091B00092609093B0009091B10074
:1013600091609093B100282F30E0F901E953F64FD6
:10137000E491F0E0EE0FFF1FED54F64F45915491CC
:101380005093560240935502F901E552F64FE4910D
:10139000E093570223CF9FEFC916D104E104F10473
:1013A00009F00CF46DC068E478EE81E090E0A501EE
:1013B00098010E94B13969017A0181E0C81AD10807
:1013C000E108F1089D81992309F4FAC08FEFC8164E
:1013D000D104E104F10411F00CF0FBC0EFC064E2B1
:1013E00074EF80E090E0A50194010E94B139690199
:1013F0007A0181E0C81AD108E108F10885E09FEF81
:10140000C916D104E104F10409F008F442CF62E105
:101410007AE780E090E0A50194010E94B13969016A
:101420007A0181E0C81AD108E108F108E5C081E03D
:101430009D8191112ECF95B5987F892B85BD2FEF7A
:101440003FEFA901411451046104710409F043C044
:101450009D81913009F45EC0923009F46DC0911104
:10146000A1CEC7BC20935102309352024093530245
:101470005093540280916E00826080936E0092CEF1
:1014800082E0D6CFB12CA12C60E072E18AE790E037
:10149000A50198010E94B13969017A0181E0C81A59
:1014A000D108E108F108C114D10491E0E906F10482
:1014B00004F591E08D81813011F680918100887F63
:1014C000892B809381002FEF3FEFA9014114510434
:1014D00061047104F9F0D801AA0FBB1FA3019201A6
:1014E0000E94D03928EE33E040E050E00E941A3AE2
:1014F000AFCF68E478EE81E090E0A50198010E940A
:10150000B13969017A0181E0C81AD108E108F1080E
:1015100093E0D0CFD0928900C092880020934D02F2
:1015200030934E0240934F025093500280916F00CF
:10153000826080936F0036CEC092B3002093580231
:101540003093590240935A0250935B02809170008D
:1015500082608093700026CE84E09FEFC916D1048C
:10156000E104F10409F008F466CFC980DA80EB8069
:10157000FC808AE0F594E794D794C7948A95D1F7D4
:1015800081E0C81AD108E108F10885E054CF68E489
:1015900078EE81E090E0A50198010E94B1396901DF
:1015A0007A0181E0C81AD108E108F1089FEFC91655
:1015B000D104E104F10411F00CF011CF84E069CE04
:1015C00083E09FEFC916D104E104F10409F00CF4A3
:1015D00032CF62E17AE780E090E0A50194010E94B9
:1015E000B13969017A0181E0C81AD108E108F1082E
:1015F0009D81992309F4B0CF86E09FEFC916D104ED
:10160000E104F10409F008F444CEC980DA80EB80EB
:10161000FC809AE0F594E794D794C7949A95D1F713
:1016200081E0C81AD108E108F10887E032CE82E0F3
:1016300030CEAF92BF92CF92DF92EF92FF920F9394
:101640001F93CF93DF936C017B018B01040F151F58
:10165000EB015E01AE18BF08C017D10759F06991C0
:10166000D601ED91FC910190F081E02DC601099524
:10167000892B79F7C501DF91CF911F910F91FF90D1
:10168000EF90DF90CF90BF90AF900895FC01538D05
:10169000448D252F30E0842F90E0821B930B54174C
:1016A00010F0CF96089501970895FC01918D828DD9
:1016B000981761F0A28DAE0FBF2FB11D5D968C9172
:1016C000928D9F5F9F73928F90E008958FEF9FEFB1
:1016D0000895FC01918D828D981731F0828DE80F6D
:1016E000F11D858D90E008958FEF9FEF0895FC0127
:1016F000918D228D892F90E0805C9F4F821B9109F4
:101700008F73992708958EE692E00E94770B21E06F
:10171000892B09F420E0822F089580E090E0892B46
:1017200029F00E94830B81110C9400000895FC01A4
:10173000A48DA80FB92FB11DA35ABF4F2C91848D32
:1017400090E001968F739927848FA689B7892C938F
:10175000A089B1898C91837080648C93938D848DE2
:10176000981306C00288F389E02D80818F7D8083E5
:101770000895EF92FF920F931F93CF93DF93EC01A5
:1017800081E0888F9B8D8C8D98131AC0E889F98928
:10179000808185FF15C09FB7F894EE89FF8960832B
:1017A000E889F98980818370806480839FBF81E0AC
:1017B00090E0DF91CF911F910F91FF90EF900895EE
:1017C000F62E0B8D10E00F5F1F4F0F731127E02EC9
:1017D0008C8D8E110CC00FB607FCFACFE889F98901
:1017E000808185FFF5CFCE010E94970BF1CFEB8D65
:1017F000EC0FFD2FF11DE35AFF4FF0829FB7F894D5
:101800000B8FEA89FB8980818062CFCF0F931F9372
:10181000CF93DF938C01D0E0C0E0F801EC0FFD1F07
:101820006491662341F08EE692E00E94B90B892B09
:1018300011F02196F2CFCE01DF91CF911F910F9140
:101840000895CF93DF93EC01888D8823B9F0AA899E
:10185000BB89E889F9898C9185FD03C0808186FD6B
:101860000DC00FB607FCF7CF8C9185FFF2CF8081BA
:1018700085FFEDCFCE010E94970BE9CFDF91CF918D
:101880000895CF92DF92EF92FF921F93CF93DF9351
:10189000EC016A017B018C810E946E0711E0892BAB
:1018A00009F410E08B85181721F0CD8ADE8AEF8AC3
:1018B000F88E8D899E89AF89B88DB701A601481B26
:1018C000590B6A0B7B0B898D90E0B0E0A0E0841788
:1018D0009507A607B70798F48C85181781F01C8721
:1018E0008A851817A9F0CA8EDB8EEC8EFD8EEAA1D0
:1018F000FBA1309721F0B701A601898509951B87C7
:10190000DF91CF911F91FF90EF90DF90CF900895DE
:10191000CE8EDF8EE8A2F9A2ECA1FDA1309779F37B
:1019200089850995ECCFFC011582138614861586EE
:1019300016861786108A118A128A138A148A158AC3
:10194000168A138E8681882311F0848183830895FB
:10195000CF92DF92EF92FF920F931F93CF93DF937B
:10196000EC018E81811103C08D89882369F18C81FE
:101970000D851E852F8538896A017B01C01AD10A21
:10198000E20AF30A9701860137FD18C009891A890E
:101990002B893C89401B510B620B730B14161506E7
:1019A000160617065CF061E0DF91CF911F910F9151
:1019B000FF90EF90DF90CF900C94970760E00E942B
:1019C00097078D8981111D8ADF91CF911F910F910A
:1019D000FF90EF90DF90CF900895CF93DF93EC01CD
:1019E00061E088810E94970781E08C870E945B08F4
:1019F0006D877E878F87988BDF91CF910895CF92E7
:101A0000DF92EF92FF92CF93DF93EC016A017B01AB
:101A100069857A858B859C850E9492389B01AC01F3
:101A200060E070E080E89FE30E94B83A20E030E098
:101A300040E05FE30E94F33820E030E04AE754E4FE
:101A40000E94F338CD8EDE8EEF8EF8A220E030E0DB
:101A500040E05FE30E944C3A0E94313BC60ED71E25
:101A6000E81EF91EC9A2DAA2EBA2FCA28FA191E0A6
:101A700089278FA3DF91CF91FF90EF90DF90CF90D8
:101A80000895CF92DF92EF92FF92CF93DF93EC0114
:101A90006A017B018D899E89AF89B88DAB01960162
:101AA000281B390B4A0B5B0BDA01C901B7FD49C092
:101AB000898D9A8DAB8DBC8DAB019601281B390B9E
:101AC0004A0B5B0BDA01C901181619061A061B0628
:101AD000C4F18EA18823A9F189859A85AB85BC853F
:101AE0000197A105B10551F461E08C81DF91CF919F
:101AF000FF90EF90DF90CF900C94970789A19AA167
:101B0000ABA1BCA1AB019601281B390B4A0B5B0BA7
:101B1000DA01C901B7FD04C0A601CE010E94FF0C85
:101B20008C819FA1992311F061E0E0CF60E00E94D9
:101B300097071FA2DF91CF91FF90EF90DF90CF909A
:101B4000089560E08C810E9497071FA2898D9A8D6D
:101B5000AB8DBC8DC81AD90AEA0AFB0A8EA188236C
:101B600031F01C141D041E041F040CF41EA288A5D1
:101B7000882301F31C141D041E041F04DCF618A6A0
:101B8000D9CF8F929F92AF92BF92CF92DF92EF9276
:101B9000FF920F931F93CF93DF93EC018E818111FE
:101BA00004C088A1882309F445C07B0189899A89EA
:101BB000AB89BC894A015B01881A990AAA0ABB0A47
:101BC000C501B40197FD53C00D891E892F89388D39
:101BD0004A015701801A910AA20AB30A95018401A9
:101BE00010161106120613060CF441C02A8D22238A
:101BF000A9F10C8D1D8D2E8D3F8D200F311F2115CC
:101C0000310511F421E030E0FB8C50E040E00E940F
:101C10001A3A60177107D8F4F1100AC069857A85FD
:101C200020E030E0A9018C810E94B30881E08B8F15
:101C300081E0898FDF91CF911F910F91FF90EF90FD
:101C4000DF90CF90BF90AF909F908F900895FF202E
:101C500079F38C810E9487081B8EEACF69857A858B
:101C600020E030E0A9018C810E94B308E1CF898D8A
:101C7000882301F38C810E948708198E1B8E88A10E
:101C80008823C1F218A2D6CF6F3FA9F0E62FE295C4
:101C9000EF7044E0E49F90011124DC01ED91FC9190
:101CA000E20FF31F6F7082819381B6E06B9F800D0E
:101CB000911D1124089590E080E00895982F8033BD
:101CC0006CF08A3324F08F3524F08B3724F481E0D4
:101CD000089581341CF081E09B350CF080E008957C
:101CE000FC01828581110AC0A781B085CD010196D2
:101CF000908787838C91818781E082878185089591
:101D00001F93CF93DF93EC01162F0E94700E811367
:101D100006C01A8681E0DF91CF911F91089580E07F
:101D2000FACF0F931F93CF93DF938C01EB0189912F
:101D3000882369F0C8010E94700E882379F0FE01A3
:101D40003197908198130DC0F8011286F0CF90E082
:101D500080E0DF91CF911F910F91089582E090E094
:101D6000F8CF83E090E0F5CFCF93DF93EC01CE0185
:101D70000E94700E8B304CF489305CF4882359F04B
:101D800081E08E8390E080E00BC08D3011F08032D6
:101D9000B9F71A86ECCF8E81811105C081E090E001
:101DA000DF91CF91089582E090E0FACFDC01529666
:101DB0009C915297915084E0989F900111245096E5
:101DC000ED91FC91E20FF31F228133812115310542
:101DD00079F041818081481758F481E0840F818334
:101DE00086E0489F200D311D11242115310521F475
:101DF00060E070E08FEF0895B901892F8295807FB0
:101E0000840F0895DF92EF92FF920F931F93CF9369
:101E1000DF93EC017B01D12C688979898A89D816F6
:101E2000E0F484E0D89E80011124060F171FD8012A
:101E300012966D917C916115710541F0D701ED917C
:101E4000FC910280F381E02DC7010995F80113820E
:101E5000128210821182D394DFCF1A8A8FEF8C8B7B
:101E6000C617D70761F0D701ED91FC910280F3818D
:101E7000E02DC7010995D98BC88B84E08B8BDF914E
:101E8000CF911F910F91FF90EF90DF9008958F9267
:101E9000AF92CF92EF92FF920F931F93E0905C026C
:101EA000F0905D0200915E0210915F0221E080914E
:101EB000030190910401805F954009F420E0409176
:101EC0000A0150910B0160910C0170910D018091FC
:101ED00000018F9380900101A0900201C0900E013B
:101EE00080910801909109010E944C060F90809109
:101EF0004A02882309F44DC080919F03833018F073
:101F000083E08093730310923F0381E0809340034A
:101F100080934103809342038093430310924403D0
:101F20001092450310925B0394E690935C038093B8
:101F3000E2031092A00387E08093A10389E08093DD
:101F4000A2038091280590912905A0912A05B091BE
:101F50002B058093A3039093A403A093A503B093B0
:101F6000A6038091240590912505A0912605B091A6
:101F700027058093A7039093A803A093A903B09388
:101F8000AA031F910F91FF90EF90CF90AF908F9089
:101F9000089510924103F5CF4F925F926F927F9216
:101FA0008F929F92AF92BF92CF92DF92EF92FF9269
:101FB0000F931F93CF93DF9300D000D01F92CDB724
:101FC000DEB7DC012C912B32E1F12D32D9F50196EF
:101FD000EE24E394FC01208130ED320F3A3010F012
:101FE0002E3291F58C0160E070E0CB01F801219177
:101FF00030ED832E820E39E0381508F444C06A397A
:1020000049E97407840749E1940708F046C0AAE04B
:10201000B0E09B01AC010E94D039912CB12CA12CD5
:1020200024013501409450946094709446165706EC
:102030006806790690F1680D791D8A1D9B1D8F0138
:10204000D5CF0196E12CC6CF198229813A814B81E7
:102050005C816D8170E080E090E00F900F900F90B8
:102060000F900F90DF91CF911F910F91FF90EF9004
:10207000DF90CF90BF90AF909F908F907F906F90A8
:102080005F904F900895211108C0EE2051F161300A
:102090007105810550E89507A0F0F12CBAE08B2E70
:1020A000912CA12CB12C6115710530E883079105A5
:1020B000F8F0A50194010E941A3ACA01B901F394FB
:1020C000F2CF22E029839B01AC0188279927DC010C
:1020D000821B930BA40BB50B8A839B83AC83BD83BC
:1020E000B4CF23E029836A837B838C839D83ADCF28
:1020F000F801D8012D918D0130ED320F3A3010F4F6
:10210000F394F6CF2E3201F58F010F5F1F4FF801C8
:102110000F5F1F4F2081A0EDDA2ED20EB9E0BD1562
:1021200098F06C3CECEC7E07ECE08E07910578F7BC
:10213000AAE0B0E09B01AC010E94D0396D0D711D89
:10214000811D911DFA94E3CF20812F7D10E000E0E6
:10215000253409F050C021812D32B1F53296CC24BE
:10216000C394DF0110E000E02F2D0F2C000C330B87
:10217000EAE0BE2EFD01DD9040ED4D0D4A30B0F598
:10218000B09EA001B19E500D11240D2DDD0C110B40
:1021900000531109040F151FA801420F531F4732A6
:1021A000510544F3CC20B9F080E090E0A0E0B0E825
:1021B000E11003C080E090E0DC0121E029838A8304
:1021C0009B83AC83BD8341CF2B3219F03196C12C58
:1021D000C8CF3296FCCF80E090E0A0E8BFEFE110DE
:1021E000ECCF80E090E0A0E8BFE7E7CFCC2019F08B
:1021F0001195019511092081211126CF0F0D111D77
:10220000F7FC1A950E9492384CEBA42E40E0B42EB5
:10221000101611063CF011950195110954EAA52EEE
:1022200050E0B52ED12CC12C01151105E9F0F6E0D6
:10223000CF16D104A9F000FF0DC0F601EE0FFF1F6D
:10224000EE0FFF1FEA0DFB1D25913591459154912D
:102250000E94F338159507952FEFC21AD20AE4CFE2
:1022600060E070E080EC9FE7E110905821E0298366
:102270006A837B838C839D83E8CECF92DF92EF923B
:10228000FF920F931F93CF93DF937C016B018A0121
:10229000FC01C081D1814F3F510509F0B0F4E881C4
:1022A000F9810480F581E02D4B5F5F4FCE010995E8
:1022B000009759F0FC010383DF91CF911F910F919B
:1022C000FF90EF90DF90CF900895E881F981028030
:1022D000F381E02DB601CE01099581E0F7018283FB
:1022E00090E080E0E9CF1F93CF93DF93EC01162FAE
:1022F0006A817B816115710589F04C815D81FB01EB
:1023000083818417150651F4440F551F4F5F5F4FAB
:10231000888199810E943D119B838A838A819B8158
:10232000009759F02C813D81A9014F5F5F4F5D837C
:102330004C83820F931FFC011483DF91CF911F9177
:1023400008959F92AF92BF92CF92DF92EF92FF9249
:102350000F931F93CF93DF9300D000D01F92CDB780
:10236000DEB78C010E94700ED82EF8011286F12C77
:10237000E12C60EFC62EC8010E94700EF801128693
:10238000D81609F4B3C0811113C082E090E00F9019
:102390000F900F900F900F90DF91CF911F910F91A1
:1023A000FF90EF90DF90CF90BF90AF909F900895F7
:1023B0008C3509F099C0C8010E94700E882329F35A
:1023C000EEE9F1E0853709F083C0F801128654E0A8
:1023D000952EB12CA12CC8010E94700E8823A9F261
:1023E000813434F48053803130F083E090E0CFCFFB
:1023F0008F7D8753F8CF44E0AA0CBB1C4A95E1F7C8
:10240000A82AF80112869A949110E5CFC501985D2B
:102410008115944020F47501F3E0FF22ACCFC50193
:102420009C5D81159440A8F483E0B822B701762F13
:102430006627770F770F6A297B2990E080E0019665
:10244000603871058105910540F4C8010E9473113F
:1024500092CFB50190E080E0F3CF1982262F2F7341
:1024600020682A8326E096958795779567952A9523
:10247000D1F76032710580F4606C6B835E01E4E03B
:10248000AE0EB11CF50162915F01662309F473CFB2
:10249000C8010E947311F6CF262F2F7320682B835B
:1024A00086E0769567958A95E1F76031710538F495
:1024B000606E6C835E01F5E0AF0EB11CE3CF606827
:1024C0006C83CD825E0126E0A20EB11CDBCF32967A
:1024D0009081992309F489CF8913F9CF81818823C9
:1024E00009F483CFF8011286682FAFCF82819381E0
:1024F000892B19F484E090E04ACF90E080E047CF48
:102500006F927F928F929F92AF92BF92CF92DF9203
:10251000EF92FF920F931F93CF93DF93EC012A81E9
:102520003B812C5F3F4F4C815D814430510588F5E4
:102530008901F90180E0942FB22FAE2FA21BA917B9
:1025400030F4F190A1E0F110A0E08A2BF6CF8111D8
:1025500020C082E0EB018C83FB01802F8B1B89174D
:1025600028F4E80189918E018193F7CF640F751FDC
:10257000FB011082DF91CF911F910F91FF90EF909F
:10258000DF90CF90BF90AF909F908F907F906F9093
:1025900008958B01F901E40FF51F1082888199815C
:1025A0004C815D81DC011396ED91FC913A01E89438
:1025B00077F86901C60CD71C3097C1F0A381A61526
:1025C000170481F449017F01B4E0EB0EF11C8C1477
:1025D0009D0429F1D401AD904D01D701BD907D013D
:1025E000AB14A9F30190F081E02DE6CF6A817B81E5
:1025F0000E943D11FC01A881B98113968D919C9197
:102600001497918380831496FC93EE9313971B8207
:102610001A8285E0E8018C83F983E883ABCF82815D
:102620008F5F8283F6CFDB01ED91FC9111970280E1
:10263000F381E02DBC01CD010994AF92BF92CF92FE
:10264000DF92EF92FF920F931F93CF93DF93EC01F2
:102650008B018C8180FF24C0A881B981FB0183811B
:10266000948130E020E00097D9F0A817B907D1F5A0
:10267000F8016081718112968C91129781501296A7
:102680008C93129781110CC08D919C9111972115FB
:10269000310529F1F90191838083CD010E94131343
:1026A0008C81807631F1209721F1F8805801F5E195
:1026B000AF0EB11C8FEFF816D1F06F2DC5010E943F
:1026C000440E6C01FC01E580B8010E941D13F80165
:1026D000818DF6018083F801F18EFE2CEBCF94837F
:1026E0008383DBCF9C01FC0180819181BCCFF88288
:1026F000F9821C82DF91CF911F910F91FF90EF9093
:10270000DF90CF90BF90AF9008950F931F93CF931A
:10271000DF93EC01088119818B819C81009749F03E
:10272000FC01208131813C832B83B8010E9413136B
:10273000F3CF68817981CE010596DF91CF911F910A
:102740000F910C94020FFC0101900020E9F73197E2
:10275000AF01481B590BBC018EE692E00C94190B9B
:102760008F929F92AF92BF920F931F93CF93DF935D
:10277000CDB7DEB7A1970FB6F894DEBF0FBECDBFC1
:1027800019A2423008F44AE08E010F5D1F4F842EDB
:10279000912CB12CA12CA50194010E941A3AE62F8C
:1027A000B901CA01EA30F4F4E05DD801EE938D017D
:1027B000232B242B252B79F790E080E0109719F03C
:1027C000CD010E94A313A1960FB6F894DEBF0FBEF1
:1027D000CDBFDF91CF911F910F91BF90AF909F9090
:1027E0008F900895E95CE1CF4AE00C94B013CF924A
:1027F000DF92EF92FF92CF93DF936C01990FEE0877
:10280000FF08F7FE19C06DE28EE692E00E94B90B58
:10281000EC0166277727CB016C197D098E099F098A
:102820004AE00E94B0138C0F9D1FDF91CF91FF9063
:10283000EF90DF90CF9008954AE0C701B601DF9195
:10284000CF91FF90EF90DF90CF900C94B013CF9387
:10285000DF930E94060CEC0181EB91E00E94A31330
:102860008C0F9D1FDF91CF910895CF93C82F809338
:10287000F7048FE19AE00E94060C8091F504082E7F
:10288000000C990B0E94F71385E19AE00E94060C58
:1028900083E09AE0CC2311F08CE09AE00E94060CD1
:1028A00082E19AE0CF910C9427140F931F93CF935A
:1028B0008C01C62FFC01638384EB96E00E94060C1A
:1028C000F8018081082E000C990B0E94F7138AEA08
:1028D00096E00E94060C88E996E0CC2311F081EA8C
:1028E00096E00E94060C87EA96E0CF911F910F9127
:1028F0000C942714EF92FF920F931F93CF93DF93C3
:102900007C018B01EA018EE796E00E94060CC7016C
:102910000E94060C82E796E00E94060CC8010E9405
:10292000060C86E696E00E94060CCE010E94060C7C
:1029300083E696E0DF91CF911F910F91FF90EF908A
:102940000C942714CF93DF936DE78EE692E00E94FC
:10295000B90BEC0181EB91E00E94A3138C0F9D1F3A
:10296000DF91CF9108954F925F926F927F928F92F5
:102970009F92AF92BF92EF92FF920F931F93CF93CC
:10298000DF932A013B0148015901853009F480C0D9
:1029900008F061C0843009F46FC0E0911503F09134
:1029A00016031481C1E9DBE040EBE42E4BE0F42E8A
:1029B00081EF9BE00E94060CC7010E94060C88EE86
:1029C0009BE00E94060C812F110F990B0E94F713B8
:1029D0008DED9BE00E94060CCE010E94060C88EC57
:1029E0009BE00E94060C8091E3049091E404A09186
:1029F000E504B091E604A3019201281B390B4A0BB0
:102A00005B0BCA01B9010E94F41386EB9BE00E94A4
:102A1000060C8091E3049091E404A091E504B09148
:102A2000E604A5019401281B390B4A0B5B0BCA0174
:102A3000B9010E94F413DF91CF911F910F91FF9084
:102A4000EF90BF90AF909F908F907F906F905F902E
:102A50004F900C94A214863039F1873009F09DCF45
:102A6000E0911D03F0911E031481C5E7DBE086E9C8
:102A7000E82E8BE0F82E9CCFE0911703F09118031D
:102A80001481CCE8DBE03AEAE32E3BE0F32E90CF72
:102A9000E0911903F0911A031481C3E8DBE023EA03
:102AA000E22E2BE0F22E84CFE0911B03F0911C0369
:102AB0001481CAE7DBE09CE9E92E9BE0F92E78CF90
:102AC000CF92DF92EF92FF920F931F93CF93DF93FA
:102AD000EC018881813009F4D1C06A017B01813029
:102AE00090F08230D1F481E293E00E94930C8FE366
:102AF00093E0DF91CF911F910F91FF90EF90DF90C6
:102B0000CF900C94930C8981853009F47DC070F4CA
:102B10008330F1F1843009F45AC0DF91CF911F91D5
:102B20000F91FF90EF90DF90CF900895863009F4D9
:102B300088C0873091F7E0911D03F0911E03309714
:102B400061F38681882349F385A18111E6CF8F81C6
:102B50009885A985BA85C58AD68AE78AF08E8C0DB4
:102B60009D1DAE1DBF1D818F928FA38FB48F81E0FD
:102B700086A3CF010E94FF0C0F81188529853A8515
:102B80000C0D1D1D2E1D3F1DB701A60187E01CC0A9
:102B9000E0911503F0911603309709F4BECF8681BA
:102BA000882309F4BACF0F81188529853A85C18A0F
:102BB000D28AE38AF48A0C0D1D1D2E1D3F1D058B44
:102BC000168B278B308F83E00E94B314A6CFE09141
:102BD0001703F0911803309709F49FCF868188235B
:102BE00009F49BCF0F81188529853A85C18AD28A3D
:102BF000E38AF48A0C0D1D1D2E1D3F1D058B168BBF
:102C0000278B308F84E0E0CFE0911903F0911A0315
:102C1000309709F482CF8681882309F47ECF0F8113
:102C2000188529853A85C586D686E786F08A0C0DF3
:102C30001D1D2E1D3F1D018B128B238B348B85E0B8
:102C4000C3CFE0911B03F0911C03309709F465CFCB
:102C50008681882309F461CF0F81188529853A85FB
:102C6000C586D686E786F08A0C0D1D1D2E1D3F1DDC
:102C7000018B128B238B348B86E0A6CF8981E09168
:102C80000F03F0911003882339F0813009F045CF0C
:102C9000E0911103F0911203309709F43ECFCF80F9
:102CA000D884E984FA844C0D5D1D6E1D7F1D418B17
:102CB000528B638B748B31CF2F923F924F925F92E6
:102CC0006F927F928F929F92AF92BF92CF92DF923C
:102CD000EF92FF920F931F93CF93DF9300D000D01A
:102CE000CDB7DEB72A013B0103E4809F9001112498
:102CF000912C8901C90181569C4F9A8389834BE0AD
:102D0000842E19019EE4290E311CE981FA8180810B
:102D1000981608F0A0C0A92CB12CC801899C800D80
:102D2000911D1124815F9C4FFC01E25BFF4F2081CC
:102D3000233039F1805B9F4FFC018081893021F085
:102D40009091F40489131DC08A9CF0018B9CF00DB6
:102D50001124E00FF11FE05AFC4FC080D180E280C7
:102D6000F380C114D104E104F10469F4B301A201B8
:102D7000C101989C800D911D1124815F9C4F0E9480
:102D800060159394C2CFC40CD51CE61CF71CE2EF6F
:102D9000F3E090E080E02081211125C024E0880F3D
:102DA000991F2A95E1F7DC01AD51BC4F8A9CF001D7
:102DB0008B9CF00D1124E00FF11FE35AFC4F282DDE
:102DC00001900D922A95E1F7815F9C4FFC01E15241
:102DD000FF4FC082D182E282F3828D519F4F21E06A
:102DE000FC012083CECF019670968031910599F633
:102DF00083E09BE00E94060C8A9CC0018B9C900D96
:102E00001124800F911F815F9C4F9C838B83FC0159
:102E1000E25BFF4F608170E090E080E04AE00E945A
:102E2000B01388EF9AE00E94060CEB81FC81E15B15
:102E3000FF4F608170E090E080E04AE00E94B013B4
:102E400087EE9AE00E94060CC701B6010E94F413B7
:102E50000E94A21496CF0F900F900F900F90DF91C9
:102E6000CF911F910F91FF90EF90DF90CF90BF9087
:102E7000AF909F908F907F906F905F904F903F901A
:102E80002F9008950F931F93CF93DF938C01D62F2C
:102E9000C42F88EC97E00E94060CC8010E94060C23
:102EA0008DEB97E00E94060C83EA97E0DD2311F09A
:102EB00089EA97E00E94060C8EEA97E00E94060CD1
:102EC00088E997E0CC2311F08EE997E00E94060C88
:102ED000DF91CF911F910F910C94A2140F931F9328
:102EE000CF938C01C62F8EE797E00E94060CC80195
:102EF0000E94060C83E797E00E94060C88E697E0A4
:102F0000CC2311F08EE697E00E94060CCF911F9122
:102F10000F910C94A214CF92DF92EF92FF920F9335
:102F20001F93CF938C01C62F69017A018EE497E03D
:102F30000E94060CC8010E94060C83E497E00E94E0
:102F4000060C8BE297E0CC2311F081E397E00E941E
:102F5000060C86E397E00E94060CC701B6010E94AA
:102F6000F413CF911F910F91FF90EF90DF90CF90CE
:102F70000C94A2147F928F929F92AF92BF92CF92A5
:102F8000DF92EF92FF920F931F93CF93DF93EC01A9
:102F9000762E49015A016701780181E197E00E948C
:102FA000060CCE010E94060C86E097E00E94060CFB
:102FB00080EE96E0772011F086EE96E00E94060CF7
:102FC00088EF96E00E94060CC501B4010E94F4133C
:102FD0008BEE96E00E94060CC701B6010E94F41326
:102FE000DF91CF911F910F91FF90EF90DF90CF90E5
:102FF000BF90AF909F908F907F900C94A214EF920F
:10300000FF920F931F93CF937C018B01C42F89E410
:1030100096E00E94060CC7010E94060C8DE396E024
:103020000E94060CC8010E94060C82E396E00E94F2
:10303000060C87E296E0CC2311F08DE296E00E9428
:10304000060CCF911F910F91FF90EF900C94A2145A
:10305000CF92DF92EF92FF920F931F93CF93DF9364
:103060008C01EB0169017A018DE096E00E94060C6B
:10307000C8010E94060C81E096E00E94060CCE0179
:103080000E94060C86EF95E00E94060CC701B6016F
:103090000E94F413DF91CF911F910F91FF90EF9059
:1030A000DF90CF900C94A214009711F00C94A3130E
:1030B00090E080E00895EF92FF920F931F93CF93DB
:1030C000DF93C0910F03D0911003882321F0C091AA
:1030D0001103D0911203209709F472C0613009F4F2
:1030E00069C008F464C0623009F467C094E4E92E52
:1030F0009AE0F92E811104C08DE4E82E8AE0F82EC2
:1031000085EB9AE00E94060CC7010E94060C8CEA2F
:103110009AE00E94060C6C8170E090E080E04AE04A
:103120000E94B01381E99AE00E94060CC8010E9437
:10313000060C8CE79AE00E94060C6A8D7B8D8C8DC4
:103140009D8D0091E3041091E4042091E5043091F9
:10315000E604601B710B820B930B0E94F4138AE64A
:103160009AE00E94060C6E8D7F8D88A199A1009136
:10317000E3041091E4042091E5043091E604601B1F
:10318000710B820B930B0E94F41389E59AE00E9465
:10319000060CCE010D960E94541886E59AE0DF9148
:1031A000CF911F910F91FF90EF900C94271400EE98
:1031B0001AE09CCF07ED1AE099CF0FEC1AE096CFFA
:1031C000DF91CF911F910F91FF90EF900895909113
:1031D000EB04911104C09091EC04992371F090914B
:1031E000ED0491110AC06091F204882321F081302E
:1031F00021F46091F3040C945B180895CF93DF934E
:10320000EC016E8389EA95E00E94060C8F81988517
:103210000E94541880EA95E00E94060C8C81082ECA
:10322000000C990B0E94F71386E995E00E94060CAA
:103230008E8181110AC084E895E00E94060C83E922
:1032400095E0DF91CF910C9427148DE895E0F5CFB0
:1032500060E080911301909114010E94FE1860E0DB
:1032600080911501909116010E94FE1860E08091F6
:103270001701909118010E94FE1860E080911901D9
:1032800090911A010E94FE1860E080911B019091BC
:103290001C010E94FE1860E080911D0190911E01AA
:1032A0000E94FE1860E080911F01909120010E9411
:1032B000FE188091210190912201009719F060E0A1
:1032C0000E94FE1860E080912301909124010C94EB
:1032D00055141F93CF93DF93EC01162F8E81882313
:1032E00021F060E0CE010E94FE188D81813021F432
:1032F00060E08C810E9497071C836D81812F0E9462
:10330000C5078D81813021F460E08C810E94970790
:103310008CED95E00E94060C8F8198850E945418D0
:1033200083EC95E00E94060C8C81082E000C990B12
:103330000E94F713DF91CF911F910C94A214CF93A9
:10334000DF93EC010E9469198C810E946E0721E0D5
:10335000892B09F420E02A878C810E946E0721E0E6
:10336000892B09F420E02B878C810E946E0721E0D5
:10337000892B09F420E02C871D8A1E8A1F8A188E4B
:10338000DF91CF9108959F92AF92BF92CF92DF923B
:10339000EF92FF920F931F93CF93DF938A01452BF8
:1033A00009F468C0E9016B016596FC016081CE01FA
:1033B0000E94440EFC01BB24BA94892B09F0B5800D
:1033C0007601E894F7F8AA24A3946701C00ED11EF1
:1033D00099249394309709F44DC0AA2009F43FC072
:1033E0008481843069F0853049F1823079F5DF01DC
:1033F0000D900020E9F71197CD018E1B9F0B07C0A0
:103400000190F081E02D90E080E0309781F79F7788
:10341000E816F90621F5D801AC15BD05E1F46B2DD0
:10342000CE01DF91CF911F910F91FF90EF90DF9030
:10343000CF90BF90AF909F900C94440EA081B1812B
:10344000FD01349613968C9190E0E2CF90E080E0FD
:10345000F0E0E0E0DDCF9D9181919817E9F2A92499
:103460006B2DCE010E94440EFC01892B09F4B2CFD2
:10347000B580B0CF90E080E0DF91CF911F910F91A8
:10348000FF90EF90DF90CF90BF90AF909F90089506
:10349000FC0120813181C9014A96428153816481B6
:1034A0007581009759F0D9015E96EC91E03211F0E8
:1034B00090E080E0009711F00C94C31990E080E058
:1034C0000895CF93DF93EB010E94481A009741F0D3
:1034D000FC012481263021F48081DF91CF91089571
:1034E0008881FBCFCF92DF92EF92FF92CF93DF9351
:1034F00000D000D01F92CDB7DEB70E94481ADC0181
:10350000009709F44AC01496EC911497E250ED30FC
:1035100008F043C0F0E0E157F54E0C94653BBD1A4E
:10352000CD1ABB1AD11A9C1ACD1ACD1ACD1AAC1AC3
:10353000CD1AB11ACD1AD51A6C9170E090E080E0E6
:103540000F900F900F900F900F90DF91CF91FF9001
:10355000EF90DF90CF9008956D917D918D919C912A
:10356000EFCF8D919D910D90BC91A02DB7FD15C011
:10357000BC01CD01E5CF8D919C910E94CC0F3A8387
:103580004B835C836D83CA80DB80EC80FD802230BE
:1035900041F1233041F1213061F060E070E0CB0176
:1035A000CFCF8D919C910496E8CFCD90DD90ED909A
:1035B000FC9020E030E0A901C701B6010E94603B09
:1035C00087FDEBCF2FEF3FEF4FE75FE4C701B60179
:1035D0000E948D3818160CF3C701B6010E94313BCA
:1035E000AFCFF7FCDACFC701B601AACF8F929F9277
:1035F000AF92BF92CF92DF92EF92FF920F931F9301
:10360000CF93DF9300D000D000D0CDB7DEB7490113
:103610005A0167017801FB0101900020E9F7319719
:10362000E61BF70B9A8389837C836B83ED838F2F53
:103630008F778E83CE0101960E94481A0097B9F0C9
:10364000FC0124812A3041F02C3089F48081918161
:10365000A281B381B7FD0BC0CE0101960E94721A00
:1036600086169706A806B90610F44B015C01C50141
:10367000B401C616D706E806F90610F4C701B6016C
:1036800026960FB6F894DEBF0FBECDBFDF91CF9167
:103690001F910F91FF90EF90DF90CF90BF90AF9070
:1036A0009F908F900895CF92DF92EF92FF92CF93E9
:1036B000DF9300D000D01F92CDB7DEB70E94481A2A
:1036C000DC01009709F446C01496EC911497E2507F
:1036D000ED3008F03FC0F0E0E059F44E0C94653B4B
:1036E000AF1BAA1BAD1BC01B7D1BAA1BAA1BAA1BC1
:1036F0008C1BAA1B991BAA1BC41B6C9170E0CB01ED
:103700000F900F900F900F900F90DF91CF91FF903F
:10371000EF90DF90CF9008958D919D910D90BC9189
:10372000A02D811520E89207A105B10598F4BC01F0
:10373000E6CF8D919D910D90BC91A02D6C017D01E6
:1037400020E8D20EE11CF11CC114D10421E0E206F4
:10375000F10468F370E060E0D2CF8D919C910E94FB
:10376000CC0F3A834B835C836D83CA80DB80EC8013
:10377000FD80223031F1233081F1213059F708C02A
:103780008D919C910496EBCFCD90DD90ED90FC90C7
:1037900020E030E040E057ECC701B6010E94603BFA
:1037A00087FDD8CF20E03EEF4FEF56E4C701B601CA
:1037B0000E948D38181674F2C701B6010E942A3B88
:1037C0009ECFD701C6019058AF4FBF4F0097A14081
:1037D000B10508F0BFCFB60192CFC11480E8D8067A
:1037E000E104F104C0F3B6CF0F931F93CF93DF939F
:1037F000EC018B010E94481AFC01892B29F084817D
:103800008A3051F08C30C1F0F80180819181DF91D4
:10381000CF911F910F91089580819181A281B381F1
:1038200081159048A105B10578F7CE01DF91CF91C0
:103830001F910F910C94531B80819181A281B381C0
:103840009058AF4FBF4F0097A140B105E8F6EDCFBC
:103850004F925F926F927F92AF92BF92CF92DF9220
:10386000EF92FF920F931F93CF93DF939091EB040E
:10387000911105C09091EC04992309F4EAC090914C
:10388000ED049111E6C0823008F0E3C08093F404A7
:1038900081110AC0E0910F03F0911003309759F4A1
:1038A00081E08093F204D5C0E0911103F0911203FE
:1038B000309709F487C09089992309F480C0018961
:1038C000128923893489041715072607370708F456
:1038D00082C0882309F4CCC082E08093F304B9C08D
:1038E0008F898F5F8F8B9D89891708F4ADC08FA555
:1038F000843658F40E943538A30192010E94B139F0
:103900008FA5681710F01F8A9FC01F8A888D882393
:1039100051F09D899501281B31099217130609F072
:103920005CF4890F8D8B8B89823008F08DC0B701D4
:10393000A6010E945C1688C087ED90E00E94060CEC
:103940006D8970E090E080E04AE00E94B01384ED61
:1039500090E00E942714E7CFCD8EDE8EEF8EF8A286
:1039600073C08DA5811170C089A19AA1ABA1BCA122
:10397000A7019601281B390B4A0B5B0BDA01C90121
:10398000B7FD62C08DA19EA1AFA1B8A58C199D09FC
:10399000AE09BF09181619061A061B060CF054C00A
:1039A0008FA5843610F00DA7BECF0E943538A30135
:1039B00092010E94B1398FA56817A8F345C08823EA
:1039C00009F46ECF81E089CF1092F204E0910F03E9
:1039D000F091100308C08823B9F31092F304E0912A
:1039E0001103F0911203309781F00091E7041091D8
:1039F000E8042091E9043091EA04040F151F261F02
:103A0000371F018B128B238B348B6A017B01182F9C
:103A1000CFE0D3E0AA24AA94B12C94E6492E512CED
:103A2000612C712C01E08C89882371F08EA589307E
:103A300011F0181309C08A89813009F48DCF08F478
:103A40004FCF823009F48DCF6E9633E0CB34D3075D
:103A500051F7DF91CF911F910F91FF90EF90DF9081
:103A6000CF90BF90AF907F906F905F904F900895F0
:103A700082E017CFBF92CF92DF92EF92FF920F9327
:103A80001F93CF93DF93EC01198D1F3F81F0612FBE
:103A900045960E94440EFC018081898F309709F47D
:103AA00077C014828FEF8583BF01812F76C06C01B0
:103AB00035E0C30ED11CE880F9808F89882341F05E
:103AC000C6010E94D60EE62FF72F182F309749F720
:103AD0001F89988D191324C0103109F459C0110F92
:103AE0006D897E89D701ED91FC91B4E01B9FA00107
:103AF0001124C616D70609F044C00190F081E02DCC
:103B0000BA01C7010995009709F442C020E1F60106
:103B1000DC0101900D922A95E1F79E8B8D8B188F19
:103B20000D891E898F8921E0280F2F8BE4E08E9F5D
:103B3000C0011124080F191F90E1B92E203111F492
:103B40008FE0B82EF6E0BF9EB0011124D701ED91B1
:103B5000FC910190F081E02DC7010995F801938354
:103B60008283892B09F4B12CD801BC9211961C9246
:103B7000012B71F0C6010E94D60EE62FF72F182FE9
:103B80008DCF0480F581E02DC7010995009729F6B6
:103B900081E08A8360E070E08FEFDF91CF911F9129
:103BA0000F91FF90EF90DF90CF90BF9008954F92CC
:103BB0005F926F927F928F929F92AF92BF92CF92BD
:103BC000DF92EF92FF920F931F93CF93DF9300D07A
:103BD00000D01F92CDB7DEB78C017B01B42E0E94BE
:103BE000B40E6C01892B09F048C0C8010E94700E08
:103BF000863609F4A9C124F5873229F08B3561F1A5
:103C0000823209F0A8C1D80115961C921E92149711
:103C100012968D919C911397892B39F48D919C91DB
:103C20000E943106F80193838283C8010E94A1118A
:103C30006C01892B11F5B701C8010E9480121DC0CB
:103C4000843709F460C18B3709F47BC08E3609F0E4
:103C500082C16CEC71E060C180E4D70114968C9352
:103C60001497E114F10421F08FEF8C9311968C934B
:103C7000B1101AC025E0C22ED12CC6010F900F90B2
:103C80000F900F900F90DF91CF911F910F91FF90A8
:103C9000EF90DF90CF90BF90AF909F908F907F90EC
:103CA0006F905F904F900895F8011286C8010E94AE
:103CB000B40E009751F56DE5C8010E94800E811188
:103CC000DCCFBA94D8011B966D907C90C3010E9402
:103CD0003A1DA82E4B01672B21F494E0C92ED12C5C
:103CE000CCCFF70161816F3F91F0C30145960E94EF
:103CF000440EDC011596AC92F701A1824B2DB40164
:103D0000C8010E94D71D009739F06C01B6CFD701CA
:103D10008C9311968C93F2CFC8010E94B40E009739
:103D2000A1F76DE5C8010E94800E8111A6CF6CE25B
:103D3000C8010E94800E8111C5CF83E0C82ED12C0E
:103D40009CCF80E2F7018483E114F10419F08FEF36
:103D500080838183BB2009F48DCFD8011A961C92F1
:103D6000C8010E94B40E009781F66DE7C8010E9459
:103D7000800E811182CFBA94F8011582148282815B
:103D80009381892B49F4808191810E943106D80169
:103D900013969C938E931297C8010E94700E8732DF
:103DA000F9F08232E9F0C8010E94700ED82E0E940C
:103DB0005E0E882311F2F80112866D2DC8010E9453
:103DC0007311C8010E94700ED82E0E945E0E8111E0
:103DD000F2CFD80112968D919C91892B41F47DCF21
:103DE000C8010E94A1116C01892B09F046CFC801BE
:103DF0000E94B40E6C01892B09F03FCF6AE3C80121
:103E00000E94800E882309F498CFD8011296ED9174
:103E1000FC91139714968D919C911597E80FF91FBB
:103E2000148214966D917C9115977F771B966D90F7
:103E30007C901C9712968D919C910496272F2F773A
:103E4000BA2DB078AB2EA22AE894A7F89301AC0162
:103E50007A2DC7010E94C3196C01009761F5C30157
:103E60000E943A1D482E4B01672B09F436CFC3013F
:103E70000E943A1D582E962FC92ED72EC114D10458
:103E800009F42BCFF4015582D70111966C916F3F45
:103E900071F0C30145960E94440EFC014582D70192
:103EA00011965C92B401C8010E94801207C0F7010C
:103EB00040825182F7CFB3010E941D134B2DB601F2
:103EC000C8010E94D71D6C01892B09F0D6CEC8010C
:103ED0000E94B40E6C01892B09F0CFCE6DE7C801AA
:103EE0000E94800E8111C9CE6CE2C8010E94800E32
:103EF000882309F422CFC8010E94B40E6C01892BDB
:103F000009F43ACFBACE86E0D70114968C93149771
:103F100081E08C9361EC71E0C8010F900F900F90DD
:103F20000F900F90DF91CF911F910F91FF90EF9025
:103F3000DF90CF90BF90AF909F908F907F906F90C9
:103F40005F904F900C94910E86E0F701848310826D
:103F500066EC71E0E1CFC8010E94700E4801FDE0FF
:103F60008F0E911CB12C782CA92C803384F08A33CD
:103F700084F43FE3B316A9F0D8011A961C92B394C7
:103F8000F40181934F01C8010E94700EEECF8B3275
:103F900081F393ED980F923060F3982F9F7D9534C5
:103FA00041F30B0D111DD8011D961C92872D9A2DE2
:103FB0000E94CC0F3A834B835C836D838A819B8103
:103FC000AC81BD812230A9F0233059F0213009F0B5
:103FD000B4CE2EE0F701248380839183A283B38340
:103FE0004CCE2AE0F701248380839183A283B3839C
:103FF00044CE2CE0F7CF4F925F926F927F928F92D8
:104000009F92AF92BF92CF92DF92EF92FF920F9367
:104010001F93CF93DF93CDB7DEB7CF5FD1090FB634
:10402000F894DEBF0FBECDBF6E012EECC20ED11CC8
:1040300085E091E0F60191838083128214821382DD
:10404000C6010596968B858B178A84E0808F8FEF4B
:10405000818F168E878F9E012F5F3F4F790110E071
:1040600000E00E945B086093760270937702809371
:104070007802909379028EE692E00E94550B97FDAC
:1040800002C00C94692E0E945B088090760290908A
:104090007702A0907802B0907902681979098A09AC
:1040A0009B098090720290907302A0907402B0906D
:1040B0007502681579058A059B05E8F20F37110529
:1040C00061F48EE692E00E94770B892B31F08EE648
:1040D00092E00E94550B0A97A1F7E1E0F0E0EC0FA7
:1040E000FD1FE00FF11F10820530110578F045E04B
:1040F00050E061ED71E0CE0101960E944D3D892BAB
:1041000029F483EE97E00E942714A2C5F60160818E
:104110007181C60105960E94020FF601128200818C
:104120001181F60183819481009751F0FC01208177
:104130003181F60134832383B8010E941313F1CF38
:10414000168ECF57DF4FD982C882C158D040CD5785
:10415000DF4F19821882C358D040CB57DF4F1982E6
:104160001882C558D040C957DF4F1882C758D04071
:1041700021E030E02C0F3D1FC857DF4F39832883E3
:10418000C858D040C557DF4F1882CB58D040C457CD
:10419000DF4FD982C882CC58D0404AE0B601665E73
:1041A0007F4FCE018F579F4F0E94D71D8C01892BC7
:1041B00069F4C657DF4F8881CA58D040882331F050
:1041C000F601868D83FF02C003E010E0CD57DF4F7C
:1041D00088819981C358D040009751F0CF57DF4F65
:1041E000E881F981C158D040608171810E94131328
:1041F00001151105F1F08CE695E00E94060CF8011E
:10420000EE0FFF1FE65FFB4F859194910E94060C15
:1042100089E695E00E9427148EE692E00E94770BD3
:10422000181619060CF014C58EE692E00E94550B84
:10423000F3CFCF57DF4FD982C882C158D04087ED26
:1042400091E0CD57DF4F99838883C358D04083E0F6
:10425000CB57DF4F8883C558D040CA57DF4F1881EE
:10426000C658D04010781068CA57DF4F1883C65818
:10427000D040CE018F579F4F0E94481A009709F4F3
:10428000E7C4FC018481882309F4E2C41068CA579A
:10429000DF4F1883C658D040CE018F579F4F0E94E2
:1042A000531B8C01893DF1E09F0709F484C00CF099
:1042B00031C1883731E0930709F477C60CF080C02C
:1042C0008733914009F452C5083381E01807ECF5B3
:1042D0000D3291E0190709F468C444F560E00C322E
:1042E000F1E01F0709F462C4013AF2E01F0709F484
:1042F00080C70CF09AC30C3C110511F40C94722980
:104300000CF0DBC20636110511F40C942D2C0CF0C8
:104310004DC20436110511F40C94A02B053611057D
:1043200011F40C94E22986E194E0EDCE0F3221E005
:10433000120709F4F7C460E0063331E01307A1F671
:104340008091190190911A0135C4033741E0140797
:1043500009F433C434F5093381E0180729F60091D4
:10436000190110911A010E945B08F801618B728B90
:10437000838B948B85849684A784B088DC01CB01E1
:10438000880D991DAA1DBB1D858B968BA78BB08FA1
:1043900081E080A343EB53E069EB73E08EEB93E0A5
:1043A000E2C4043791E0190709F46DC40537E1E070
:1043B0001E0709F099CF083D114009F47DC048C49B
:1043C0008139F1E09F0709F4F1C4CCF58E3731E073
:1043D000930709F4CDC41CF58D37914009F084CFC3
:1043E000EE24EA94FE2C00E010E021E030E040E012
:1043F00050E06BED71E0C6010E94F61A9B01AC0122
:10440000E0911901F0911A0121873287438754877F
:1044100061ED73E08BED93E00E94281819C4023817
:1044200081E0180709F4D6C560E0003991E019076A
:1044300009F05ACF80911B0190911C01BBC38B39AD
:10444000E1E09E0709F4D6C47CF4833921E09207A9
:1044500009F4AEC460E08A39914009F045CF8091FB
:104460001D0190911E01A6C38D3941E0940709F406
:10447000E3C4883D914009F037CF10ECE12E17E2FC
:10448000F12E09E010E021E030E040E050E065EE80
:1044900071E0C6010E94F61A9B01AC01E0911B017C
:1044A000F0911C01218732874387548765EA73E0C6
:1044B0008EEA93E00E942818CF57DF4FD982C88236
:1044C000C158D04085EE91E0CD57DF4F9983888366
:1044D000C358D04088E0CB57DF4F8883C558D040C1
:1044E000CA57DF4F8881C658D04080788068CA5745
:1044F000DF4F8883C658D040CE018F579F4F0E9410
:10450000721A60933001709331018093320190935D
:10451000330105C40F3982E0180709F4C3C40CF055
:1045200088C0053FE1E01E0709F4A8C474F5023E07
:1045300021E0120709F460C4C4F40C3D41E0140703
:1045400009F0D2CE15E3E12EF12C00E010E022E0DC
:1045500030E040E050E06EEE71E0C6010E94F61AD5
:1045600080911B0190911C0132C5063E51E0150758
:1045700009F443C560E0043F81E0180709F0B4CEB8
:1045800080911F019091200115C3083592E0190711
:1045900009F47FC4C4F40034F2E01F0709F0A4CE8C
:1045A00015E3E12EF12C00E010E022E030E040E0E5
:1045B00050E06EEE71E0C6010E94F61A80911F0174
:1045C0009091200104C5093522E0120709F458C46E
:1045D0000B3532E0130709F087CE009121011091CD
:1045E00022010115110509F433C30E945B08AB01D8
:1045F000BC01F801458B568B678B708F858596853E
:10460000A785B089840F951FA61FB71F818F928F32
:10461000A38FB48FFF24F394F6A2C8010E94FF0C6D
:10462000F801F0A644E653E06AE673E08FE693E013
:104630009AC3043843E0140709F4B5C40CF075C0FC
:10464000043A82E0180709F4EBC40CF054C0003AB5
:10465000E2E01E0709F048CE10ECE12E17E2F12E41
:1046600009E010E021E030E040E050E065EE71E06C
:10467000C6010E94F61A9B01AC01E0912101F09164
:104680002201309751F0258736874787508B65E4A4
:1046900073E08EE493E00E942818CF57DF4FD98251
:1046A000C882C158D04085EE91E0CD57DF4F998345
:1046B0008883C358D04088E0CB57DF4F8883C558E4
:1046C000D040CA57DF4F8881C658D0408078806874
:1046D000CA57DF4F8883C658D040CE018F579F4FAF
:1046E0000E94721A60932C0170932D0180932E0109
:1046F00090932F0114C3093AF2E01F0709F439C45B
:104700000A3A22E0120709F0EFCDE0912101F09181
:104710002201309709F49CC281E085A348E153E06F
:1047200064E273E089E293E01EC3003D33E01307C7
:1047300009F490C4BCF4053853E0150709F42BC400
:10474000073883E0180709F0CFCD809123019091BD
:1047500024010E94ED0C42E053E068E073E08DE03C
:1047600093E001C3043394E0190709F4A9C40036A7
:10477000E5E01E0709F0B8CD809115019091160172
:10478000892B09F465C215E3E12EF12C00E010E05D
:1047900022E030E040E050E06EEE71E0C6010E94A1
:1047A000F61A8091150190911601A3C408361105DF
:1047B00011F40C94572C14F40C94392C093611056F
:1047C00009F0B1CDC251DF4F1882CE5ED040CF5735
:1047D000DF4FD982C882C158D04086E192E0CD57E0
:1047E000DF4F99838883C358D04086E0CB57DF4F93
:1047F0008883C558D040CA57DF4F8881C658D040FB
:1048000080788068CA57DF4F8883C658D040BE0181
:1048100062517F4FCE018F579F4F0E94611A182F10
:104820000E945B084B015C018091EB04882311F42A
:104830000C94752D1093ED04112311F40C94F42CA9
:104840008092EE049092EF04A092F004B092F104F2
:104850000E943C07E0911503F0911603309719F080
:1048600084810E948708E0911703F0911803309724
:1048700019F084810E948708809104058823B9F08B
:1048800080911205811113C081E095E00E94ED0C2A
:104890008092130590921405A0921505B09216050A
:1048A00081E080931205F894109203057894412FCB
:1048B00069E574E088E694E0EDC40A3731E0130757
:1048C00009F461C00CF052C00C3D110509F442C559
:1048D0000D3D110509F027CDC251DF4F1882CE5E84
:1048E000D040CF57DF4FD982C882C158D04089E02D
:1048F00092E0CD57DF4F99838883C358D04085E03D
:10490000CB57DF4F8883C558D040CA57DF4F8881C7
:10491000C658D04080788068CA57DF4F8883C65811
:10492000D040BE0162517F4FCE018F579F4F0E94F2
:10493000611A182F82E795E0112311F08CE595E0BC
:10494000909309018093080185E0111186E080931E
:104950000E010E94470F44EA54E0112311F049EA86
:1049600054E06FEA74E08BEB94E0FDC10E3D51E042
:10497000150749F0083E81E0180729F0043891E056
:10498000190709F0D0CCC251DF4F19821882CE5ED0
:10499000D040CF57DF4FD982C882C158D0408DE177
:1049A00092E0CD57DF4F99838883C358D04086E08B
:1049B000CB57DF4F8883C558D040CA57DF4F888117
:1049C000C658D04080788068CA57DF4F8883C65861
:1049D000D040BE0162517F4FCE018F579F4F0E9442
:1049E000F41B4C01B12C8130910531F0BB24B39400
:1049F000029711F029E0B22E0A3751E0150711F0A5
:104A00000C947A2DB09202010E94470FE1E0BE1291
:104A10000C948B2DB092DA059401990C440B550B34
:104A200061E474E08EE494E0F7CC0C34E4E01E071B
:104A300011F40C94932D0CF059C0093E23E0120799
:104A400009F418C46CF40C3A42E0140709F40EC4DB
:104A500060E0083E134009F066CC80EF95E0AAC004
:104A6000083384E0180709F418C4093394E01907DF
:104A700009F402C40233144009F055CCCF57DF4F7C
:104A8000D982C882C158D04088EF91E0CD57DF4F1E
:104A900099838883C358D04087E0CB57DF4F888302
:104AA000C558D040CA57DF4F8881C658D04080785B
:104AB0008068CA57DF4F8883C658D040CE018F57D1
:104AC0009F4F0E94721A4B015C0180920F019092DD
:104AD0001001A0921101B09212010E940F07A501CE
:104AE000940168E575E080E695E096CC0531F5E047
:104AF0001F0709F4DAC39CF4083934E0130711F4F2
:104B00000C94962D043145E0140709F4D2C30D34FA
:104B1000144009F008CC81E00E94351499C0043695
:104B200085E0180709F4D6C3053695E0190709F49E
:104B3000C2C30E35154009F0F6CBCF57DF4FD982EF
:104B4000C882C158D04088EF91E0CD57DF4F99839C
:104B50008883C358D04087E0CB57DF4F8883C55840
:104B6000D040CA57DF4F8881C658D04080788068CF
:104B7000CA57DF4F8883C658D040CE018F579F4F0A
:104B80000E94721A4B015C0180920F0190921001F9
:104B9000A0921101B09212010E940F07A501940189
:104BA0006FE175E087E295E037CC61E08091170115
:104BB000909118010E94FE184BC0EE24EA94FE2C3E
:104BC00000E010E021E030E040E050E06BED71E00B
:104BD000C6010E94F61A9B01AC01E0911701F09109
:104BE000180121873287438754876CEF73E086E092
:104BF00094E00E942818CF57DF4FD982C882C1584D
:104C0000D0408BED91E0CD57DF4F99838883C35817
:104C1000D04089E0CB57DF4F8883C558D040CA5772
:104C2000DF4F8881C658D04080788068CA57DF4FF0
:104C30008883C658D040CE018F579F4F0E94721A6A
:104C4000609334017093350180933601909337015E
:104C5000C6010E948513C150DF4F0FB6F894DEBF26
:104C60000FBECDBFDF91CF911F910F91FF90EF90BD
:104C7000DF90CF90BF90AF909F908F907F906F907C
:104C80005F904F90089510ECE12E17E2F12E09E0AD
:104C900010E021E030E040E050E065EE71E0C60158
:104CA0000E94F61A9B01AC01E0911701F0911801E6
:104CB000258736874787508B6FEE73E088EF93E048
:104CC0000E942818CF57DF4FD982C882C158D040E0
:104CD00085EE91E0CD57DF4F99838883C358D0404C
:104CE00088E0CB57DF4F8883C558D040CA57DF4F85
:104CF0008881C658D04080788068CA57DF4F888343
:104D0000C658D040CE018F579F4F0E94721A6093B1
:104D100038017093390180933A0190933B010E94CE
:104D2000470F96CF00911701109118010E945B0860
:104D3000F801618B728B838B948B85849684A78416
:104D4000B088DC01CB01880D991DAA1DBB1D858B88
:104D5000968BA78BB08F81E080A340EE53E066EE88
:104D600073E08BEE93E00E947A1472CF61E0E8CAA0
:104D700010ECE12E17E2F12E09E010E021E030E026
:104D800040E050E065EE71E0C6010E94F61A9B011A
:104D9000AC01E0911901F0911A0125873687478708
:104DA000508B63EC73E08CEC93E036CB61E042CB4C
:104DB00000911B0110911C010E945B08F80165879E
:104DC00076878787908B81849284A384B484DC0166
:104DD000CB01880D991DAA1DBB1D818B928BA38BC6
:104DE000B48B81E0858B45E953E06BE973E080EAA1
:104DF00093E0B9CF61E033CB10ECE12E17E2F12E56
:104E000009E010E021E030E040E050E065EE71E0C4
:104E1000C6010E94F61A9B01AC01E0911D01F091C0
:104E20001E01218732874387548766E873E08FE845
:104E300093E00E94281873CF00911D0110911E016C
:104E40000E945B08F801658776878787908B81844D
:104E50009284A384B484DC01CB01880D991DAA1D22
:104E6000BB1D818B928BA38BB48B81E0858B45E737
:104E700053E06BE773E080E893E075CF61E080CBAF
:104E8000809121019091220161E0009709F092CE7A
:104E9000DFCE809121019091220160E0009709F01E
:104EA00089CED6CEEE24EA94FE2C00E010E021E07C
:104EB00030E040E050E06BED71E0C6010E94F61A70
:104EC0009B01AC01E0912101F0912201309779F032
:104ED000211531054105510521F02187328743878E
:104EE000548764E573E08EE593E00E942818CF575D
:104EF000DF4FD982C882C158D0408BED91E0CD57A9
:104F0000DF4F99838883C358D04089E0CB57DF4F68
:104F10008883C558D040CA57DF4F8881C658D040D3
:104F200080788068CA57DF4F8883C658D040CE014A
:104F30008F579F4F0E94481ADC01009709F4EBC07D
:104F40001496EC911497E250ED3008F0E4C0F0E0D4
:104F5000E455F84D0C94653B9B288B289928C5286F
:104F60007C288B288B288B2880288B288D288B28C1
:104F7000C928E0912101F0912201309749F015A252
:104F80004FE253E06AE373E08FE393E00E947A1408
:104F900010924A02C4CE61E08091230190912401D5
:104FA0000E94551455CE60E0F7CF15E3E12EF12CA9
:104FB00000E010E022E030E040E050E06EEE71E012
:104FC000C6010E94F61A80911701909118010E9463
:104FD00069193ECE15E3E12EF12C00E010E022E04D
:104FE00030E040E050E06EEE71E0C6010E94F61A3B
:104FF0008091190190911A01EACF15E3E12EF12C6D
:1050000000E010E022E030E040E050E06EEE71E0C1
:10501000C6010E94F61A80911D0190911E01D7CF02
:105020008091210190912201892B09F411CE15E381
:10503000E12EF12C00E010E022E030E040E050E012
:105040006EEE71E0C6010E94F61A809121019091E6
:105050002201BDCF15E3E12EF12C00E010E022E0AB
:1050600030E040E050E06EEE71E0C6010E94F61ABA
:10507000F62E0091230110912401F80184858823E4
:1050800031F060E080810E949707F8011486F801F2
:10509000F08261E08F2D0E94C50760E0F8018081F9
:1050A0000E9497078EEB92E00E94060CF801808127
:1050B000082E000C990B0E94F7130E94A214C8CD71
:1050C0008091130190911401892B09F4C1CD15E34E
:1050D000E12EF12C00E010E022E030E040E050E072
:1050E0006EEE71E0C6010E94F61A80911301909154
:1050F00014010E949F19ACCD8C9080922B01A8CDF9
:105100008D909D90AD90BC902FEF82169104A104DC
:10511000B10499F390F3812CF0CF8D909D90AD90D8
:10512000BC903FEF83169104A104B10431F328F33E
:10513000F2CF8D919C910E94CC0FC251DF4F2883FA
:10514000CE5ED040C151DF4F3883CF5ED040C051DA
:10515000DF4F4883C05FD040CF50DF4F5883C15FDF
:10516000D040CE50DF4F6883C25FD040C151DF4F87
:1051700088809980AA80BB80CF5ED040223039F1F0
:10518000233071F1213039F608C08D919C9104963D
:10519000D2CF8D909D90AD90BC9020E030E0A901E1
:1051A000C501B4010E94603B87FDB5CF20E030E02F
:1051B0004FE753E4C501B4010E948D3818160CF472
:1051C000AACFC501B4010E94313B862E96CF4FEF86
:1051D00084169104A104B10409F008F48ECF9BCF8A
:1051E0005FEF85169104A104B10409F008F485CF9E
:1051F00092CFCF57DF4FD982C882C158D04082EFBB
:1052000091E0CD57DF4F99838883C358D04085E024
:10521000CB57DF4F8883C558D040CA57DF4F8881AE
:10522000C658D04080788068CA57DF4F8883C658F8
:10523000D040CE018F579F4F0E94721A6136EAEE1E
:105240007E078105910520F060E67AEE80E090E02F
:10525000609328057093290580932A0590932B0568
:1052600080914A02882309F4F3CC59CD81E08093E0
:105270004A0255CD61E0F1CB81E08093000680EFDA
:1052800095E0909304018093030141E064E475E0AC
:105290008FE495E00E94FF17DBCC1092000640E0FF
:1052A00060E375E08BE395E0F5CF61E08AEC95E093
:1052B00081CC60E0FBCF81E08093DA058AEC95E059
:1052C000909304018093030141E06BE075E086E177
:1052D00095E0E0CF1092DA0540E067EF74E082E0FD
:1052E00095E0D8CFCF57DF4FD982C882C158D04080
:1052F00080E092E0CD57DF4F99838883C358D04038
:1053000088E0CB57DF4F8883C558D040CA57DF4F5E
:105310008881C658D04080788068CA57DF4F88831C
:10532000C658D040CE018F579F4F0E94721A4B0132
:105330005C0180920A0190920B01A0920C01B09244
:105340000D010E94470FA501940160EE74E08CEE00
:1053500094E062C8CF57DF4FD982C882C158D0408D
:1053600080E092E0CD57DF4F99838883C358D040C7
:1053700088E0CB57DF4F8883C558D040CA57DF4FEE
:105380008881C658D04080788068CA57DF4F8883AC
:10539000C658D040CE018F579F4F0E94721A4B01C2
:1053A0005C0180925C0290925D02A0925E02B092DB
:1053B0005F020E94470FA501940166EC74E085ED41
:1053C00094E02AC80E945B084B015C01809246026F
:1053D00090924702A0924802B092490281E095E083
:1053E0000E94ED0C1092EC041092ED048092E30404
:1053F0009092E404A092E504B092E60481E08093E8
:10540000EB0481E293E00E94930C8FE393E00E940F
:10541000930C3BE4E32E33E0F32E0FE013E0F801AE
:105420008489882341F08289813009F05AC1858EB0
:10543000968EA78EB0A2025E1F4FE016F10679F796
:10544000E2EFF3E01082709624E0E23FF207D1F73A
:10545000E0910F03F0911003309721F0118A128A26
:10546000138A148AE0911103F0911203309721F00E
:10547000118A128A138A148AE0911D03F0911E0387
:105480003097A9F0158A168A178A108E118E128EFF
:10549000138E148E158E168E178E10A211A212A2C4
:1054A00013A214A216A217A210A681E081A78AE770
:1054B00092E00E9427148BE292E00E94060C609119
:1054C0000F017091100180911101909112010E94C1
:1054D000F41389E192E00E94060C809103019091FF
:1054E0000401805F954009F428C18BE991E00E9496
:1054F000060C85E092E00E94060C60915C027091BF
:105500005D0280915E0290915F020E94F4130E94FE
:10551000A214E0903801F090390100913A01109105
:105520003B01209134013091350140913601509179
:1055300037016091AF0581E092E00E94BA17E090D8
:105540009505F0909605009197051091980520918A
:105550009105309192054091930550919405609189
:105560008E058CEF91E00E94BA17209130013091A6
:10557000310140913201509133016091780587EFFC
:1055800091E00E948B17209165053091660540914E
:105590006705509168056091620581EF91E00E9476
:1055A0008B17E0902C01F0902D0100912E011091AD
:1055B0002F0120912B0130E050E040E060911D056B
:1055C0008BEE91E00E94BA176091470586EE91E05C
:1055D0000E946E17609104058BED91E00E946E179A
:1055E0006091F70487ED91E00E946E1740910006EC
:1055F0006091F6058EEC91E00E9442174091DA0529
:105600006091D00585EC91E00E94421781EA91E01B
:105610000E94060C60910A0170910B0180910C01AF
:1056200090910D010E94F4130E94A21480914602F1
:1056300090914702A0914802B0914902E091130174
:10564000F091140180839183A283B383E0911501CB
:10565000F091160180839183A283B383E0911701B7
:10566000F091180180839183A283B383E0911901A3
:10567000F0911A0180839183A283B383E0911B018F
:10568000F0911C0180839183A283B383E0911D017B
:10569000F0911E0180839183A283B383E0911F0167
:1056A000F091200180839183A283B383E091210153
:1056B000F0912201309721F080839183A283B383FC
:1056C000E0912301F091240180879187A287B3871D
:1056D0008093FC049093FD04A093FE04B093FF0418
:1056E000B7CA823009F0A7CE41A452A463A474A41F
:1056F00060E070E0CB01141415041604170434F4B0
:105700000E943538A30192010E94B139680D791DBC
:105710008A1D9B1DF80161A372A383A394A381A595
:1057200092A5A3A5B4A5880D991DAA1DBB1D85A38F
:1057300096A3A7A3B0A715A67ECE8EE991E0D7CEFB
:1057400080916402811184CA0E945B084B015C0154
:105750008092600290926102A0926202B092630213
:10576000809104058823B9F080911205811113C03E
:1057700081E095E00E94ED0C809213059092140553
:10578000A0921505B092160581E080931205F89459
:105790001092030578948090600290906102A0902E
:1057A0006202B09063021092EB041092ED04E2EFFB
:1057B000F3E082EF94E0108270968E179F07D9F77E
:1057C000E0911503F0911603309719F084810E943F
:1057D0008708E0911703F0911803309719F084813E
:1057E0000E948708E0911903F0911A03309721F085
:1057F00060E084810E949707E0911B03F0911C03F5
:10580000309721F060E084810E949707E0911D03AA
:10581000F0911E03309729F011A660E084810E9468
:1058200097078BE591E00E94060C809146029091CB
:105830004702A0914802B0914902A5019401281B9A
:10584000390B4A0B5B0BCA01B9010E94F4130E9489
:10585000A21481E080936402FBC98091EB04811162
:105860000C9481200E94281980E00E9435140C9429
:1058700081200E945B084B015C018091EB04811147
:105880000FC00E943C078092E3049092E404A0922F
:10589000E504B092E604B501A40180E00E945C1624
:1058A00048E854E06EE874E089E994E05CCAC251CB
:1058B000DF4F1882CE5ED040CF57DF4FD982C882EB
:1058C000C158D0408FE092E0CD57DF4F9983888355
:1058D000C358D04086E0CB57DF4F8883C558D040AF
:1058E000CA57DF4F8881C658D04080788068CA5731
:1058F000DF4F8883C658D040BE0162517F4FCE0132
:105900008F579F4F0E94611A182F0E945B082091A9
:10591000EB04211166C01093EC04112369F160932C
:10592000E3047093E4048093E5049093E6040E94FA
:105930003C0781E293E00E94930C8FE393E00E9486
:10594000930CE0910F03F0911003309721F0118A2E
:10595000128A138A148AE0911103F091120330978E
:1059600021F0118A128A138A148A4091EC0463E7A9
:1059700074E08DE794E08ECC0E943C07E091150323
:10598000F0911603309719F084810E948708E09106
:105990001703F0911803309719F084810E9487084B
:1059A000E0911903F0911A03309721F060E08481AF
:1059B0000E949707E0911B03F0911C03309721F0A0
:1059C00060E084810E949707E0911D03F0911E031F
:1059D000309721F060E084810E9497070E94470F72
:1059E000C4CF1111C2CFFACF8091EE049091EF0491
:1059F000A091F004B091F104B501A401481B590B2A
:105A00006A0B7B0BEFE0F3E02BE433E0848988231F
:105A1000A1F08289813009F04CC0858D968DA78DCB
:105A2000B0A10097A105B10541F0840F951FA61FF5
:105A3000B71F858F968FA78FB0A37E962E173F072F
:105A400029F780910405882311F40C945724809140
:105A50001205882311F40C945724F89460910905D9
:105A600070910A0580910B0590910C0540901305EB
:105A7000509014056090150570901605641975090D
:105A800086099709860E971EA81EB91E80920905E1
:105A900090920A05A0920B05B0920C051092030596
:105AA00078941092120581E095E00E94ED0C0C9420
:105AB0005724823009F0C1CF81A192A1A3A1B4A142
:105AC000840F951FA61FB71F81A392A3A3A3B4A3FE
:105AD00085A196A1A7A1B0A5840F951FA61FB71FEA
