:100000000C9437050C9446290C941F290C945F0519
:100010000C945F050C945F050C945F050C946D299E
:100020000C945F050C945F050C945F050C945F05C0
:100030000C945F050C945F050C945F050C945F05B0
:100040000C94D5280C945F050C94EF290C94C929C5
:100050000C945F050C945F050C945F050C945F0590
:100060000C945F050C945F05546F6F4465657000D8
:100070004E6F4D656D6F727900496E76616C696483
:10008000496E70757400496E636F6D706C65746550
:10009000496E70757400456D707479496E70757431
:1000A000004F6B00CDCCCC3D0AD7233C17B7D138DD
:1000B00077CC2B329595E6241FB14F0A00002041E2
:1000C0000000C84200401C4620BCBE4CCA1B0E5A51
:1000D000AEC59D74227D007B226C6576656C223AEC
:1000E00022303031222C22646576696365223A22FF
:1000F000434F4E54524F4C4C4552222C2264657350
:1001000063223A225052207468726573686F6C647F
:100110002063617070656420617420007B226C65CF
:1001200076656C223A22303037222C22646576695B
:100130006365223A22434F4E54524F4C4C45522253
:100140002C226576656E74223A22454E44222C227A
:1001500074696D657374616D70223A004C48005289
:1001600048004C455645525F4C48004C4556455258
:100170005F5248004D4943524F53434F5045004C46
:1001800049434B004C415345520050554D503200AD
:1001900050554D5000435545320043554500222CE3
:1001A0002274726163655F696E74657276616C2238
:1001B0003A002C226163746976655F6C65766572BE
:1001C000223A22007B226C6576656C223A2230301E
:1001D00030222C22646576696365223A22434F4EB1
:1001E00054524F4C4C4552222C227061726164690A
:1001F000676D223A2246495845445F524154494F5F
:10020000222C2274696D656F7574223A007B226C12
:100210006576656C223A22303037222C226465766E
:10022000696365223A22434F4E54524F4C4C45521B
:10023000222C226576656E74223A22535441525420
:10024000222C2274696D657374616D70223A307D61
:100250000046495245440074657374004D49435249
:100260004F53434F504500494E444550454E444539
:100270004E54006D6F6465004C4153455200434F2E
:100280004E54494E47454E54006D6F6465004C41D5
:10029000534552006475726174696F6E004C41532E
:1002A0004552006672657175656E6379004C415305
:1002B00045520046495245440074657374004C41F0
:1002C00053455200464952454400746573740050CA
:1002D000554D5032006475726174696F6E005055EF
:1002E0004D503200464952454400746573740050C5
:1002F000554D50006475726174696F6E0050554DB4
:100300005000464952454400746573740043554596
:1003100032006475726174696F6E00435545320036
:100320006672657175656E637900435545320046A6
:100330004952454400746573740043554500647523
:10034000726174696F6E0043554500667265717520
:10035000656E63790043554500A1009600860079DB
:1003600000700068007B226C6576656C223A223052
:100370003036222C2264657363223A22436F6D6DFE
:10038000616E64206E6F7420666F756E64227D00EE
:1003900073657373696F6E5F706175736564004335
:1003A0004F4E54524F4C4C455200746573745F6D00
:1003B0006F646500434F4E54524F4C4C45520046BB
:1003C0004952454400746573745F636861696E00E7
:1003D000434F4E54524F4C4C45520074726163650A
:1003E0005F696E74657276616C00434F4E54524F74
:1003F0004C4C455200726174696F00434F4E545229
:100400004F4C4C4552007265696E666F726365644D
:10041000004C455645525F4C48007265696E666FE8
:1004200072636564004C455645525F4C48007261EA
:1004300074696F004C455645525F4C480074696DB5
:10044000656F7574004C455645525F4C48007265A7
:10045000696E666F72636564004C455645525F5223
:1004600048007265696E666F72636564004C45563C
:1004700045525F524800726174696F004C455645A1
:10048000525F52480074696D656F7574004C455633
:1004900045525F524800227D007B226C6576656C78
:1004A000223A22303036222C2264657363223A22AB
:1004B0000044495341524D45440041524D4544008A
:1004C000227D002C2264657363223A2200222C22B2
:1004D00070696E223A007B226C6576656C223A2246
:1004E000303031222C22646576696365223A22001D
:1004F000222C2276616C7565223A00222C227061D2
:1005000072616D223A22007B226C6576656C223A1C
:1005100022303030222C22646576696365223A22CB
:100520000066616C7365007472756500222C22761A
:10053000616C7565223A00222C22706172616D2215
:100540003A22007B226C6576656C223A223030308C
:10055000222C22646576696365223A2200227D009E
:10056000222C2276616C7565223A2200222C2270A0
:100570006172616D223A22007B226C6576656C2285
:100580003A22303030222C22646576696365223A43
:10059000220044495341524D45440041524D454487
:1005A00000227D002C2264657363223A22007B22A4
:1005B0006C6576656C223A22303031222C226465DB
:1005C00076696365223A224D4943524F53434F5057
:1005D00045222C2270696E223A0066616C736500B8
:1005E00074727565002C226475726174696F6E2275
:1005F0003A002C226672657175656E6379223A0045
:10060000222C2261726D6564223A007B226C657631
:10061000656C223A22303030222C22646576696380
:1006200065223A220066616C73650074727565001C
:100630002C226475726174696F6E223A00222C223A
:1006400061726D6564223A007B226C6576656C226E
:100650003A22303030222C22646576696365223A72
:10066000220066616C7365007472756500222C222D
:1006700061726D6564223A007B226C6576656C223E
:100680003A22303030222C22646576696365223A42
:10069000220066616C736500747275650066616C3A
:1006A00073650074727565002C227265696E666FE1
:1006B00072636564223A00222C2261726D656422A5
:1006C0003A007B226C6576656C223A22303030220B
:1006D0002C22646576696365223A2200027B226CD3
:1006E0006576656C223A22303030222C22646576A1
:1006F000696365223A22434F4E54524F4C4C455247
:10070000222C22736B65746368223A2266722E690A
:100710006E6F222C2276657273696F6E223A227692
:10072000322E302E30222C22626175645F72617429
:1007300065223A3131353230302C2273636865647A
:10074000756C65223A2246495845445F52415449E6
:100750004F227D002C22656E645F74696D65737431
:10076000616D70223A002C226576656E74223A2201
:100770004C49434B222C2273746172745F74696D0F
:10078000657374616D70223A00222C2270696E22AA
:100790003A007B226C6576656C223A223030372233
:1007A0002C22646576696365223A22002C22656EEC
:1007B000645F74696D657374616D70223A002C22F8
:1007C0006576656E74223A225354494D222C227369
:1007D000746172745F74696D657374616D70223ACF
:1007E000007B226C6576656C223A22303037222CF1
:1007F00022646576696365223A224C415345522250
:100800002C2270696E223A002C226576656E742265
:100810003A2254494D455354414D50222C2274697B
:100820006D657374616D70223A007B226C6576652C
:100830006C223A22303038222C2264657669636556
:10084000223A224D4943524F53434F5045222C22C6
:1008500070696E223A0000000000240027002A0080
:1008600000000000250028002B00000000002300ED
:100870002600290004040404040404040202020201
:100880000202030303030303010204081020408053
:1008900001020408102001020408102000000008D2
:1008A0000002010000030407000000000000000037
:1008B00054494D454F555400494E414354495645BE
:1008C0000041435449564500227D002C226F726935
:1008D000656E746174696F6E223A22002C22656E17
:1008E000645F74696D657374616D70223A00222CC7
:1008F0002273746172745F74696D657374616D7075
:10090000223A002C226576656E74223A22505245B6
:100910005353222C22636C617373223A22007B2290
:100920006C6576656C223A22303037222C22646561
:1009300076696365223A225357495443485F4C45D0
:10094000564552222C2270696E223A002C22736383
:10095000686564756C65645F6174223A002C22746A
:100960006172676574223A007B226C6576656C2241
:100970003A22303036222C226572726F725F636FBA
:100980006465223A22455F50454E44494E475F46D2
:10099000554C4C222C2264657363223A2250656EBA
:1009A00064696E6720616374696F6E207175657527
:1009B000652066756C6C20E2809420616374696FB9
:1009C0006E2064726F70706564222C22616374699A
:1009D0006F6E5F74797065223A005354494D004937
:1009E0004E465553494F4E00494E465553494F4E7A
:1009F00000544F4E4500544F4E45004C4153455214
:100A00000050554D505F320050554D5000435545F4
:100A10005F3200435545002C22656E645F74696D3A
:100A2000657374616D70223A00222C2273746172B6
:100A3000745F74696D657374616D70223A002C2265
:100A40006576656E74223A2200222C2270696E222D
:100A50003A007B226C6576656C223A223030372270
:100A60002C22646576696365223A22007A2A112471
:100A70001FBECFEFD8E0DEBFCDBF12E0A0E0B1E0F7
:100A8000E2E7FDE602C005900D92AA32B107D9F760
:100A900025E0AAE2B2E001C01D92A83CB207E1F74E
:100AA00015E0C7E3D5E004C02197FE010E94AA34F7
:100AB000C633D107C9F70E94802D0C94B7360C9429
:100AC0000000CF93DF93EC0188819981DC01ED91E7
:100AD000FC910190F081E02D64E270E009950097AF
:100AE00041F02FE1FC01238321E02283DF91CF91AC
:100AF000089521E02A83FACFCF92DF92EF92FF92FE
:100B00000F931F93EFEEF2E0128A138A91E0948B19
:100B1000858B868B178A108E89E086A784E687A747
:100B200012AA84E08093790310923D0383E08093BE
:100B30003E0310923F031092400310924103109223
:100B40004203C0906405D0906505E0906605F09082
:100B50006705C0924303D0924403E0924503F092AC
:100B600046031092470385E08093480389019A0168
:100B70000C0D1D1D2E1D3F1D0093490310934A03AC
:100B800020934B0330934C03C0902905D0902A0545
:100B9000E0902B05F0902C05C0924D03D0924E03AF
:100BA000E0924F03F09250031092510387E080933C
:100BB000520300935303109354032093550330932F
:100BC0005603C090D604D090D704E090D804F0909B
:100BD000D904C0925703D0925803E0925903F0927F
:100BE0005A0390935B0360935C0310925D03109231
:100BF0005E0310925F03109260038091AB049091AA
:100C0000AC04A091AD04B091AE04809361039093C5
:100C10006203A0936303B09364031F910F91FF904D
:100C2000EF90DF90CF9008956093AB047093AC0485
:100C30008093AD049093AE0430917903EDE3F3E03B
:100C400020E023130DC03091B603EAE7F3E020E083
:100C50002317B1F04081413071F02F5F3A96F8CF01
:100C60004081413019F02F5F3A96EBCF668377834E
:100C700080879187F8CF6683778380879187EDCFD0
:100C8000089590910103992339F090911F0321E079
:100C900030E0992319F0089530E020E09EE1929F22
:100CA000F001939FF00D1124E151FD4F858B178AC0
:100CB000F2CFE5ECF3E010823F9684E0E53BF807E5
:100CC000D1F70895833081F028F4813099F0823093
:100CD000A9F008958730A9F08830C9F08430B1F4C4
:100CE000809180008F7D03C0809180008F778093FA
:100CF0008000089584B58F7784BD089584B58F7D75
:100D0000FBCF8091B0008F778093B00008958091E1
:100D1000B0008F7DF9CFCF93DF93282F30E0F9011A
:100D2000E456F74F8491F901E857F74FD491F90150
:100D3000EC58F74FC491CC23A1F081110E946206B8
:100D4000EC2FF0E0EE0FFF1FE659F74FA591B4919D
:100D5000EC91ED2381E090E009F480E0DF91CF9108
:100D6000089580E090E0FACF1F93CF93DF93282F70
:100D700030E0F901E456F74F8491F901E857F74F55
:100D8000D491F901EC58F74FC491CC23A9F0162F58
:100D900081110E946206EC2FF0E0EE0FFF1FE05A77
:100DA000F74FA591B4918FB7F894EC91111108C049
:100DB000D095DE23DC938FBFDF91CF911F910895F3
:100DC000DE2BF8CFCF93DF9390E0FC01E857F74F8D
:100DD00024918C58974FFC0184918823D1F090E0A6
:100DE000880F991FFC01EA5AF74FA591B491FC01B5
:100DF000E05AF74FC591D491623071F49FB7F894DF
:100E00003C91822F809583238C93E8812E2B28831D
:100E10009FBFDF91CF9108958FB7F894EC912E2B5F
:100E20002C938FBFF6CF3FB7F89480914C029091EE
:100E30004D02A0914E02B0914F0226B5A89B05C06D
:100E40002F3F19F00196A11DB11D3FBFBA2FA92F49
:100E5000982F8827BC01CD01620F711D811D911D46
:100E600042E0660F771F881F991F4A95D1F70895B2
:100E70008F929F92AF92BF92CF92DF92EF92FF92AA
:100E80000E9413074B015C0184E6C82ED12CE12C93
:100E9000F12C0E941307681979098A099B09683E99
:100EA000734081059105A8F321E0C21AD108E10839
:100EB000F10888EE880E83E0981EA11CB11CC114B5
:100EC000D104E104F10429F7FF90EF90DF90CF9077
:100ED000BF90AF909F908F9008952FB7F894609136
:100EE00048027091490280914A0290914B022FBFB3
:100EF00008950F931F93CF93DF93C091ED02D0918C
:100F0000EE02209781F081E08A830E946D070885B8
:100F100019852A853B85601B710B820B930B6C83B3
:100F20007D838E839F83DF91CF911F910F910895D1
:100F300008959091040189130BC0ECEDF6E0E49163
:100F40009FEF90930401E13049F028F0E23061F026
:100F500060E00C94B40610926E00FACF90916F008E
:100F60009D7F90936F00F4CF909170009D7F909340
:100F7000700091E09093B0009091B100987F9460E0
:100F80009093B1001092B300E3CF4F925F926F92B3
:100F90007F928F929F92AF92BF92CF92DF92EF9209
:100FA000FF920F931F93CF93DF9300D000D01F9237
:100FB000CDB7DEB78B0129013A0190910401891761
:100FC000C9F09F3F09F47EC00F900F900F900F90D3
:100FD0000F90DF91CF911F910F91FF90EF90DF90D5
:100FE000CF90BF90AF909F908F907F906F905F90C9
:100FF0004F900895ECEDF6E094919D8397FDE4CF3A
:1010000061E00E94E2068D81882321F09D8192306B
:1010100009F04AC14801B12CA12C60E072E18AE7D5
:1010200090E0A50198010E94F63229833A834B8310
:101030005C8369017A0181E0C81AD108E108F108EE
:101040009FEFC916D104E104F10409F00CF401C1C9
:1010500060E472E48FE090E0A50198010E94F6320E
:1010600069017A0181E0C81AD108E108F1089D817F
:10107000923009F0A2C08FEFC816D104E104F10448
:1010800009F00CF4E6C160E970ED83E090E0A501A1
:1010900098010E94F63269017A0191E0C91AD108DB
:1010A000E108F1088FEFC816D104E104F10411F052
:1010B0000CF07FC183E09091B100987F892B8093E1
:1010C000B100CFC080930401ECEDF6E094919D83D4
:1010D0009F3F09F479CF913041F150F0923009F4FB
:1010E00046C09D8197FD70CF61E00E94E2068ECFE1
:1010F00014BC15BC94B5926094BD95B5916095BD36
:10110000282F30E0F901EC58F74FE491F0E0EE0FB2
:10111000FF1FE05AF74F45915491F901E857F74FF7
:10112000E491E09333021D826BCF10928000109205
:10113000810090918100986090938100909181004E
:10114000916090938100282F30E0F901EC58F74F1F
:10115000E491F0E0EE0FFF1FE05AF74F45915491F4
:10116000F901E857F74FE491E093320249CF10922A
:10117000B0001092B1009091B00092609093B000D6
:101180009091B10091609093B100282F30E0F90167
:10119000EC58F74FE491F0E0EE0FFF1FE05AF74FE5
:1011A0004591549150933D0240933C02F901E85718
:1011B000F74FE491E0933E0223CF9FEFC916D1048D
:1011C000E104F10409F00CF46DC068E478EE81E00C
:1011D00090E0A50198010E94F63269017A0181E050
:1011E000C81AD108E108F1089D81992309F4FAC0D1
:1011F0008FEFC816D104E104F10411F00CF0FBC02C
:10120000EFC064E274EF80E090E0A50194010E94D9
:10121000F63269017A0181E0C81AD108E108F108C3
:1012200085E09FEFC916D104E104F10409F008F448
:1012300042CF62E17AE780E090E0A50194010E944C
:10124000F63269017A0181E0C81AD108E108F10893
:10125000E5C081E09D8191112ECF95B5987F892BB6
:1012600085BD2FEF3FEFA9014114510461047104C2
:1012700009F043C09D81913009F45EC0923009F4B9
:101280006DC09111A1CEC7BC2093380230933902B2
:1012900040933A0250933B0280916E0082608093AB
:1012A0006E0092CE82E0D6CFB12CA12C60E072E12C
:1012B0008AE790E0A50198010E94F63269017A015F
:1012C00081E0C81AD108E108F108C114D10491E005
:1012D000E906F10404F591E08D81813011F68091E9
:1012E0008100887F892B809381002FEF3FEFA90138
:1012F0004114510461047104F9F0D801AA0FBB1F15
:10130000A30192010E94153328EE33E040E050E043
:101310000E945F33AFCF68E478EE81E090E0A501F2
:1013200098010E94F63269017A0181E0C81AD10859
:10133000E108F10893E0D0CFD0928900C0928800F4
:101340002093340230933502409336025093370293
:1013500080916F00826080936F0036CEC092B300A0
:1013600020933F0230934002409341025093420247
:101370008091700082608093700026CE84E09FEFA1
:10138000C916D104E104F10409F008F466CFC9805C
:10139000DA80EB80FC808AE0F594E794D794C794D8
:1013A0008A95D1F781E0C81AD108E108F10885E0F3
:1013B00054CF68E478EE81E090E0A50198010E94A6
:1013C000F63269017A0181E0C81AD108E108F10812
:1013D0009FEFC916D104E104F10411F00CF011CF14
:1013E00084E069CE83E09FEFC916D104E104F104E3
:1013F00009F00CF432CF62E17AE780E090E0A501D9
:1014000094010E94F63269017A0181E0C81AD1087C
:10141000E108F1089D81992309F4B0CF86E09FEFA0
:10142000C916D104E104F10409F008F444CEC980DE
:10143000DA80EB80FC809AE0F594E794D794C79427
:101440009A95D1F781E0C81AD108E108F10887E040
:1014500032CE82E030CEAF92BF92CF92DF92EF9247
:10146000FF920F931F93CF93DF936C017B018B014E
:10147000040F151FEB015E01AE18BF08C017D1079E
:1014800059F06991D601ED91FC910190F081E02D28
:10149000C6010995892B79F7C501DF91CF911F917D
:1014A0000F91FF90EF90DF90CF90BF90AF90089595
:1014B000FC01538D448D252F30E0842F90E0821B5A
:1014C000930B541710F0CF96089501970895FC01DF
:1014D000918D828D981761F0A28DAE0FBF2FB11D37
:1014E0005D968C91928D9F5F9F73928F90E008958F
:1014F0008FEF9FEF0895FC01918D828D981731F049
:10150000828DE80FF11D858D90E008958FEF9FEF9C
:101510000895FC01918D228D892F90E0805C9F4F72
:10152000821B91098F739927089580E592E00E94AC
:10153000890A21E0892B09F420E0822F089580E0B8
:1015400090E0892B29F00E94950A81110C940000EB
:101550000895FC01A48DA80FB92FB11DA35ABF4F48
:101560002C91848D90E001968F739927848FA689A2
:10157000B7892C93A089B1898C91837080648C93F6
:10158000938D848D981306C00288F389E02D8081A5
:101590008F7D80830895EF92FF920F931F93CF93D7
:1015A000DF93EC0181E0888F9B8D8C8D98131AC09E
:1015B000E889F989808185FF15C09FB7F894EE8985
:1015C000FF896083E889F9898081837080648083E2
:1015D0009FBF81E090E0DF91CF911F910F91FF902D
:1015E000EF900895F62E0B8D10E00F5F1F4F0F73D5
:1015F0001127E02E8C8D8E110CC00FB607FCFACF90
:10160000E889F989808185FFF5CFCE010E94A90A7A
:10161000F1CFEB8DEC0FFD2FF11DE35AFF4FF08260
:101620009FB7F8940B8FEA89FB8980818062CFCFC6
:101630000F931F93CF93DF938C01D0E0C0E0F801AC
:10164000EC0FFD1F6491662341F080E592E00E945B
:10165000CB0A892B11F02196F2CFCE01DF91CF91E9
:101660001F910F910895CF93DF93EC01888D88230C
:10167000B9F0AA89BB89E889F9898C9185FD03C0F5
:10168000808186FD0DC00FB607FCF7CF8C9185FFDA
:10169000F2CF808185FFEDCFCE010E94A90AE9CF6C
:1016A000DF91CF910895CF92DF92EF92FF921F9337
:1016B000CF93DF93EC016A017B018C810E948B0642
:1016C00011E0892B09F410E08B85181721F0CD8AE1
:1016D000DE8AEF8AF88E8D899E89AF89B88DB70131
:1016E000A601481B590B6A0B7B0B898D90E0B0E07B
:1016F000A0E084179507A607B70798F48C851817FC
:1017000081F01C878A851817A9F0CA8EDB8EEC8EB3
:10171000FD8EEAA1FBA1309721F0B701A6018985D2
:1017200009951B87DF91CF911F91FF90EF90DF907C
:10173000CF900895CE8EDF8EE8A2F9A2ECA1FDA194
:10174000309779F389850995ECCFFC0115821386D2
:101750001486158616861786108A118A128A138AAD
:10176000148A158A168A138E8681882311F0848143
:10177000838308950F931F93CF93DF93EC018E81A2
:10178000811103C08D89882301F18C810D851E850F
:101790002F853889401751076207730780F0098940
:1017A0001A892B893C89041715072607370738F053
:1017B00061E0DF91CF911F910F910C94B40660E02E
:1017C0000E94B4068D8981111D8ADF91CF911F91EE
:1017D0000F910895CF93DF93EC0161E088810E941F
:1017E000B40681E08C870E946D076D877E878F87A6
:1017F000988BDF91CF910895CF92DF92EF92FF9275
:10180000CF93DF93EC016A017B0169857A858B8533
:101810009C850E94D7319B01AC0160E070E080E8BC
:101820009FE30E94FD3320E030E040E05FE30E9450
:10183000383220E030E04AE754E40E943832C98E62
:10184000DA8EEB8EFC8E20E030E040E05FE30E9419
:1018500091330E947634C60ED71EE81EF91ECD8E37
:10186000DE8EEF8EF8A28BA191E089278BA3DF910A
:10187000CF91FF90EF90DF90CF900895CF92DF92BD
:10188000EF92FF92CF93DF93EC016A017B0189898C
:101890009A89AB89BC89C816D906EA06FB06D8F135
:1018A0008D899E89AF89B88D8C159D05AE05BF05C4
:1018B00090F18AA1882379F189859A85AB85BC85C9
:1018C0000197A105B10551F461E08C81DF91CF91C1
:1018D000FF90EF90DF90CF900C94B4068D8D9E8D8D
:1018E000AF8DB8A1C816D906EA06FB0618F0CE01DE
:1018F0000E94FC0B8C819BA1992311F061E0E6CF43
:1019000060E00E94B4061BA2DF91CF91FF90EF90A0
:10191000DF90CF90089560E08C810E94B4061BA2F6
:101920008AA1882351F08D899E89AF89B88D8C1545
:101930009D05AE05BF0508F41AA28CA1882321F3EA
:101940008D899E89AF89B88D8C159D05AE05BF0523
:10195000D8F61CA2D9CFAF92BF92CF92DF92FF925E
:101960000F931F93CF93DF93EC018E81811104C0FD
:1019700088A1882309F440C089899A89AB89BC89E8
:10198000481759076A077B0708F450C00D891E895C
:101990002F89388D041715072607370708F446C026
:1019A0002A8D2223D1F10C8D1D8D2E8D3F8D200F80
:1019B000311F2115310511F421E030E0FB8C5A0173
:1019C0006B01A81AB90ACA0ADB0AC601B50150E0C0
:1019D00040E00E945F3360177107C0F4F1100AC045
:1019E00069857A8520E030E0A9018C810E94C507D5
:1019F00081E08B8F81E0898FDF91CF911F910F91D3
:101A0000FF90DF90CF90BF90AF900895FF2091F3AB
:101A10008C810E9499071B8EEDCF69857A8520E025
:101A200030E0A9018C810E94C507E4CF898D88230D
:101A300019F38C810E949907198E1B8E88A1882327
:101A4000D9F218A2D9CF6F3FA9F0E62FE295EF7037
:101A500044E0E49F90011124DC01ED91FC91E20F40
:101A6000F31F6F7082819381B6E06B9F800D911D93
:101A70001124089590E080E00895982F80336CF051
:101A80008A3324F08F3524F08B3724F481E00895D5
:101A900081341CF081E09B350CF080E00895FC015E
:101AA000828581110AC0A781B085CD0101969087FA
:101AB00087838C91818781E08287818508951F9338
:101AC000CF93DF93EC01162F0E944F0D811306C0B8
:101AD0001A8681E0DF91CF911F91089580E0FACFBF
:101AE0000F931F93CF93DF938C01EB018991882390
:101AF00069F0C8010E944F0D882379F0FE013197EB
:101B0000908198130DC0F8011286F0CF90E080E02C
:101B1000DF91CF911F910F91089582E090E0F8CF6F
:101B200083E090E0F5CFCF93DF93EC01CE010E94EC
:101B30004F0D8B304CF489305CF4882359F081E0F0
:101B40008E8390E080E00BC08D3011F08032B9F7C9
:101B50001A86ECCF8E81811105C081E090E0DF9183
:101B6000CF91089582E090E0FACFDC0152969C91EB
:101B70005297915084E0989F900111245096ED91D6
:101B8000FC91E20FF31F228133812115310579F099
:101B900041818081481758F481E0840F818386E079
:101BA000489F200D311D11242115310521F460E0DD
:101BB00070E08FEF0895B901892F8295807F840F9F
:101BC0000895DF92EF92FF920F931F93CF93DF93CD
:101BD000EC017B01D12C688979898A89D816E0F4D7
:101BE00084E0D89E80011124060F171FD801129699
:101BF0006D917C916115710541F0D701ED91FC91DA
:101C00000280F381E02DC7010995F8011382128249
:101C100010821182D394DFCF1A8A8FEF8C8BC61774
:101C2000D70761F0D701ED91FC910280F381E02D9F
:101C3000C7010995D98BC88B84E08B8BDF91CF913D
:101C40001F910F91FF90EF90DF9008952091430234
:101C500030914402409145025091460261E08091EA
:101C60000001909101018E59954009F460E0809146
:101C700004030C947C054F925F926F927F928F9237
:101C80009F92AF92BF92CF92DF92EF92FF920F930B
:101C90001F93CF93DF9300D000D01F92CDB7DEB754
:101CA000DC012C912B32E1F12D32D9F50196EE2495
:101CB000E394FC01208130ED320F3A3010F02E32E7
:101CC00091F58C0160E070E0CB01F801219130EDDD
:101CD000832E820E39E0381508F444C06A3949E988
:101CE0007407840749E1940708F046C0AAE0B0E011
:101CF0009B01AC010E941533912CB12CA12C240125
:101D000035014094509460947094461657066806C6
:101D1000790690F1680D791D8A1D9B1D8F01D5CF25
:101D20000196E12CC6CF198229813A814B815C81D1
:101D30006D8170E080E090E00F900F900F900F9019
:101D40000F90DF91CF911F910F91FF90EF90DF9057
:101D5000CF90BF90AF909F908F907F906F905F904B
:101D60004F900895211108C0EE2051F161307105A6
:101D7000810550E89507A0F0F12CBAE08B2E912C4C
:101D8000A12CB12C6115710530E883079105F8F09D
:101D9000A50194010E945F33CA01B901F394F2CF07
:101DA00022E029839B01AC0188279927DC01821B53
:101DB000930BA40BB50B8A839B83AC83BD83B4CFF9
:101DC00023E029836A837B838C839D83ADCFF801D5
:101DD000D8012D918D0130ED320F3A3010F4F3948B
:101DE000F6CF2E3201F58F010F5F1F4FF8010F5F05
:101DF0001F4F2081A0EDDA2ED20EB9E0BD1598F06C
:101E00006C3CECEC7E07ECE08E07910578F7AAE0DD
:101E1000B0E09B01AC010E9415336D0D711D811D59
:101E2000911DFA94E3CF20812F7D10E000E025344E
:101E300009F050C021812D32B1F53296CC24C394E3
:101E4000DF0110E000E02F2D0F2C000C330BEAE037
:101E5000BE2EFD01DD9040ED4D0D4A30B0F5B09E37
:101E6000A001B19E500D11240D2DDD0C110B00535E
:101E70001109040F151FA801420F531F47325105C6
:101E800044F3CC20B9F080E090E0A0E0B0E8E110AD
:101E900003C080E090E0DC0121E029838A839B83FA
:101EA000AC83BD8341CF2B3219F03196C12CC8CF02
:101EB0003296FCCF80E090E0A0E8BFEFE110ECCFDD
:101EC00080E090E0A0E8BFE7E7CFCC2019F01195C3
:101ED000019511092081211126CF0F0D111DF7FC4D
:101EE0001A950E94D7314CEBA42E40E0B42E101668
:101EF00011063CF011950195110954EAA52E50E008
:101F0000B52ED12CC12C01151105E9F0F6E0CF1644
:101F1000D104A9F000FF0DC0F601EE0FFF1FEE0F78
:101F2000FF1FEA0DFB1D25913591459154910E94AB
:101F30003832159507952FEFC21AD20AE4CF60E028
:101F400070E080EC9FE7E110905821E029836A83DC
:101F50007B838C839D83E8CECF92DF92EF92FF92BA
:101F60000F931F93CF93DF937C016B018A01FC01D8
:101F7000C081D1814F3F510509F0B0F4E881F9816A
:101F80000480F581E02D4B5F5F4FCE0109950097EE
:101F900059F0FC010383DF91CF911F910F91FF90C6
:101FA000EF90DF90CF900895E881F9810280F3816E
:101FB000E02DB601CE01099581E0F701828390E022
:101FC00080E0E9CF1F93CF93DF93EC01162F6A8156
:101FD0007B816115710589F04C815D81FB018381F5
:101FE0008417150651F4440F551F4F5F5F4F8881CA
:101FF00099810E94AC0F9B838A838A819B81009781
:1020000059F02C813D81A9014F5F5F4F5D834C8367
:10201000820F931FFC011483DF91CF911F910895CC
:102020009F92AF92BF92CF92DF92EF92FF920F9367
:102030001F93CF93DF9300D000D01F92CDB7DEB7B0
:102040008C010E944F0DD82EF8011286F12CE12C44
:1020500060EFC62EC8010E944F0DF8011286D816F7
:1020600009F4B3C0811113C082E090E00F900F908B
:102070000F900F900F90DF91CF911F910F91FF90D4
:10208000EF90DF90CF90BF90AF909F9008958C35E8
:1020900009F099C0C8010E944F0D882329F3E2E995
:1020A000F1E0853709F083C0F801128654E0952EDF
:1020B000B12CA12CC8010E944F0D8823A9F28134B4
:1020C00034F48053803130F083E090E0CFCF8F7DC7
:1020D0008753F8CF44E0AA0CBB1C4A95E1F7A82A25
:1020E000F80112869A949110E5CFC501985D81158B
:1020F000944020F47501F3E0FF22ACCFC5019C5D54
:1021000081159440A8F483E0B822B701762F6627A2
:10211000770F770F6A297B2990E080E0019660387D
:1021200071058105910540F4C8010E94E20F92CF2C
:10213000B50190E080E0F3CF1982262F2F7320683D
:102140002A8326E096958795779567952A95D1F706
:102150006032710580F4606C6B835E01E4E0AE0E6A
:10216000B11CF50162915F01662309F473CFC801C8
:102170000E94E20FF6CF262F2F7320682B8386E074
:10218000769567958A95E1F76031710538F4606E50
:102190006C835E01F5E0AF0EB11CE3CF60686C8329
:1021A000CD825E0126E0A20EB11CDBCF329690817B
:1021B000992309F489CF8913F9CF8181882309F400
:1021C00083CFF8011286682FAFCF82819381892B4C
:1021D00019F484E090E04ACF90E080E047CF6F921E
:1021E0007F928F929F92AF92BF92CF92DF92EF92A7
:1021F000FF920F931F93CF93DF93EC012A813B81D2
:102200002C5F3F4F4C815D814430510588F5890139
:10221000F90180E0942FB22FAE2FA21BA91730F442
:10222000F190A1E0F110A0E08A2BF6CF811120C03F
:1022300082E0EB018C83FB01802F8B1B891728F434
:10224000E80189918E018193F7CF640F751FFB011F
:102250001082DF91CF911F910F91FF90EF90DF904F
:10226000CF90BF90AF909F908F907F906F90089588
:102270008B01F901E40FF51F1082888199814C814F
:102280005D81DC011396ED91FC913A01E89477F8B9
:102290006901C60CD71C3097C1F0A381A61517049D
:1022A00081F449017F01B4E0EB0EF11C8C149D0414
:1022B00029F1D401AD904D01D701BD907D01AB1442
:1022C000A9F30190F081E02DE6CF6A817B810E9425
:1022D000AC0FFC01A881B98113968D919C91149744
:1022E000918380831496FC93EE9313971B821A823A
:1022F00085E0E8018C83F983E883ABCF82818F5F2F
:102300008283F6CFDB01ED91FC9111970280F3817E
:10231000E02DBC01CD010994AF92BF92CF92DF9224
:10232000EF92FF920F931F93CF93DF93EC018B01FA
:102330008C8180FF24C0A881B981FB0183819481B5
:1023400030E020E00097D9F0A817B907D1F5F801DF
:102350006081718112968C911297815012968C93A4
:10236000129781110CC08D919C9111972115310507
:1023700029F1F90191838083CD010E9482118C8122
:10238000807631F1209721F1F8805801F5E1AF0E08
:10239000B11C8FEFF816D1F06F2DC5010E94230DEF
:1023A0006C01FC01E580B8010E948C11F801818D5F
:1023B000F6018083F801F18EFE2CEBCF94838383AA
:1023C000DBCF9C01FC0180819181BCCFF882F98236
:1023D0001C82DF91CF911F910F91FF90EF90DF90C2
:1023E000CF90BF90AF9008950F931F93CF93DF933B
:1023F000EC01088119818B819C81009749F0FC01D7
:10240000208131813C832B83B8010E948211F3CF5C
:1024100068817981CE010596DF91CF911F910F914F
:102420000C94E10DFC0101900020E9F73197AF0118
:10243000481B590BBC0180E592E00C942B0A8F924B
:102440009F92AF92BF920F931F93CF93DF93CDB71D
:10245000DEB7A1970FB6F894DEBF0FBECDBF19A2AD
:10246000423008F44AE08E010F5D1F4F842E912CFC
:10247000B12CA12CA50194010E945F33E62FB90174
:10248000CA01EA30F4F4E05DD801EE938D01232B0C
:10249000242B252B79F790E080E0109719F0CD01DF
:1024A0000E941212A1960FB6F894DEBF0FBECDBFE8
:1024B000DF91CF911F910F91BF90AF909F908F9020
:1024C0000895E95CE1CF4AE00C941F12CF92DF92AD
:1024D000EF92FF92CF93DF936C01990FEE08FF0804
:1024E000F7FE19C06DE280E592E00E94CB0AEC0194
:1024F00066277727CB016C197D098E099F094AE071
:102500000E941F128C0F9D1FDF91CF91FF90EF90C3
:10251000DF90CF9008954AE0C701B601DF91CF91D7
:10252000FF90EF90DF90CF900C941F12CF93DF932A
:102530000E94180BEC0185EA91E00E9412128C0FA8
:102540009D1FDF91CF9108950F931F93CF938C011F
:10255000C62FFC0163838EEA95E00E94180BF801F8
:102560008081082E000C990B0E94661284EA95E087
:102570000E94180B82E995E0CC2311F08BE995E0DD
:102580000E94180B81EA95E0CF911F910F910C9456
:102590009612EF92FF920F931F93CF93DF937C01DC
:1025A0008B01EA0188E795E00E94180BC7010E94A1
:1025B000180B8CE695E00E94180BC8010E94180BBE
:1025C00080E695E00E94180BCE010E94180B8DE565
:1025D00095E0DF91CF911F910F91FF90EF900C94B8
:1025E0009612CF93DF936DE780E592E00E94CB0ACD
:1025F000EC0185EA91E00E9412128C0F9D1FDF9181
:10260000CF9108954F925F926F927F928F929F9297
:10261000AF92BF92EF92FF920F931F93CF93DF93EE
:102620002A013B0148015901853009F480C008F0B6
:1026300061C0843009F46FC0E091F502F091F602B8
:102640001481C6EFD9E043E1E42E4AE0F42E82E59E
:102650009AE00E94180BC7010E94180B89E49AE0C7
:102660000E94180B812F110F990B0E9466128EE3A6
:102670009AE00E94180BCE010E94180B89E29AE0A2
:102680000E94180B8091A7049091A804A091A9041E
:10269000B091AA04A3019201281B390B4A0B5B0BD2
:1026A000CA01B9010E94631287E19AE00E94180BE7
:1026B0008091A7049091A804A091A904B091AA04C4
:1026C000A5019401281B390B4A0B5B0BCA01B90108
:1026D0000E946312DF91CF911F910F91FF90EF90B5
:1026E000BF90AF909F908F907F906F905F904F9032
:1026F0000C94F112863039F1873009F09DCFE091CA
:10270000FD02F091FE021481CAEDD9E08BEFE82EB4
:1027100089E0F82E9CCFE091F702F091F802148145
:10272000C1EFD9E03DE0E32E3AE0F32E90CFE09107
:10273000F902F091FA021481C8EED9E028E0E22E05
:102740002AE0F22E84CFE091FB02F091FC0214818A
:10275000CFEDD9E091E0E92E9AE0F92E78CFCF9233
:10276000DF92EF92FF920F931F93CF93DF93EC01D1
:102770008881813009F4D1C06A017B01813090F0F9
:102780008230D1F481E093E00E94A50B8FE193E0C9
:10279000DF91CF911F910F91FF90EF90DF90CF903D
:1027A0000C94A50B8981853009F47DC070F48330C9
:1027B000F1F1843009F45AC0DF91CF911F910F914C
:1027C000FF90EF90DF90CF900895863009F488C095
:1027D000873091F7E091FD02F091FE02309761F3AE
:1027E0008681882349F381A18111E6CF8E819F8163
:1027F000A885B985C18AD28AE38AF48A8C0D9D1D89
:10280000AE1DBF1D858B968BA78BB08F81E082A3F9
:10281000CF010E94FC0B0E811F81288539850C0D8C
:102820001D1D2E1D3F1DB701A60187E01CC0E091B4
:10283000F502F091F602309709F4BECF8681882325
:1028400009F4BACF0E811F8128853985C18AD28AC1
:10285000E38AF48A0C0D1D1D2E1D3F1D058B168B62
:10286000278B308F83E00E940213A6CFE091F702FE
:10287000F091F802309709F49FCF8681882309F4FC
:102880009BCF0E811F8128853985C18AD28AE38A30
:10289000F48A0C0D1D1D2E1D3F1D058B168B278BDD
:1028A000308F84E0E0CFE091F902F091FA023097A6
:1028B00009F482CF8681882309F47ECF0E811F819F
:1028C00028853985C586D686E786F08A0C0D1D1DBC
:1028D0002E1D3F1D018B128B238B348B85E0C3CFC4
:1028E000E091FB02F091FC02309709F465CF8681FC
:1028F000882309F461CF0E811F8128853985C5861B
:10290000D686E786F08A0C0D1D1D2E1D3F1D018BFE
:10291000128B238B348B86E0A6CF8981E091EF0266
:10292000F091F002882339F0813009F045CFE09131
:10293000F102F091F202309709F43ECFCE80DF80B1
:10294000E884F9844C0D5D1D6E1D7F1D418B528BFB
:10295000638B748B31CF2F923F924F925F926F9225
:102960007F928F929F92AF92BF92CF92DF92EF921F
:10297000FF920F931F93CF93DF9300D000D0CDB77A
:10298000DEB72A013B010DE3809F90011124912CB9
:102990008901C90187589C4F9A8389838AE0882ED0
:1029A00019019EE4290E311CE981FA818081981673
:1029B00008F092C0A92CB12CC801899C800D911DF2
:1029C000112481519D4FFC01E25BFF4F2081233098
:1029D000B9F0805B9F4FFC01C080D180E280F38022
:1029E000C114D104E104F10469F4B301A201C101ED
:1029F000989C800D911D112481519D4F0E94AF1311
:102A00009394D2CFC40CD51CE61CF71CE5ECF3E084
:102A100030E020E08081811126C0FFE0F29FC001FC
:102A2000F39F900D1124DC01A954BC4F8A9CF00146
:102A30008B9CF00D1124E00FF11FE35CFC4F282D5F
:102A400001900D922A95E1F781519D4FFC01EE52C4
:102A5000FF4FC082D182E282F3828A529F4F21E0EF
:102A6000FC012083CDCF2F5F3F4F3F9620313105B2
:102A700089F688E699E00E94180B8A9CC0018B9C1D
:102A8000900D1124800F911F81519D4F9C838B834A
:102A9000FC01E25BFF4F608170E090E080E04AE083
:102AA0000E941F128DE599E00E94180BEB81FC81BA
:102AB000E15BFF4F608170E090E080E04AE00E94BF
:102AC0001F128CE499E00E94180BC701B6010E9406
:102AD00063120E94F11294CF0F900F900F900F90FD
:102AE000DF91CF911F910F91FF90EF90DF90CF90EA
:102AF000BF90AF909F908F907F906F905F904F901E
:102B00003F902F9008950F931F93CF93DF938C01E5
:102B1000D62FC42F82EC96E00E94180BC8010E94A9
:102B2000180B87EB96E00E94180B8DE996E0DD23E9
:102B300011F083EA96E00E94180B88EA96E00E9462
:102B4000180B82E996E0CC2311F088E996E00E9408
:102B5000180BDF91CF911F910F910C94F1120F93ED
:102B60001F93CF938C01C62F88E796E00E94180B25
:102B7000C8010E94180B8DE696E00E94180B82E6B1
:102B800096E0CC2311F088E696E00E94180BCF91D6
:102B90001F910F910C94F112CF92DF92EF92FF925E
:102BA0000F931F93CF938C01C62F69017A0188E49C
:102BB00096E00E94180BC8010E94180B8DE396E066
:102BC0000E94180B85E296E0CC2311F08BE296E090
:102BD0000E94180B80E396E00E94180BC701B60113
:102BE0000E946312CF911F910F91FF90EF90DF90A1
:102BF000CF900C94F1127F928F929F92AF92BF92DE
:102C0000CF92DF92EF92FF920F931F93CF93DF93B8
:102C1000EC01762E49015A01670178018BE096E0BC
:102C20000E94180BCE010E94180B80E096E00E94D3
:102C3000180B8AED95E0772011F080EE95E00E9468
:102C4000180B82EF95E00E94180BC501B4010E9499
:102C5000631285EE95E00E94180BC701B6010E9431
:102C60006312DF91CF911F910F91FF90EF90DF9052
:102C7000CF90BF90AF909F908F907F900C94F11267
:102C8000EF92FF920F931F93CF937C018B01C42F80
:102C900083E495E00E94180BC7010E94180B87E39C
:102CA00095E00E94180BC8010E94180B8CE295E079
:102CB0000E94180B81E295E0CC2311F087E295E0A9
:102CC0000E94180BCF911F910F91FF90EF900C94E1
:102CD000F112CF92DF92EF92FF920F931F93CF9357
:102CE000DF938C01EB0169017A0187E095E00E9496
:102CF000180BC8010E94180B8BEF94E00E94180B70
:102D0000CE010E94180B80EF94E00E94180BC701BF
:102D1000B6010E946312DF91CF911F910F91FF9036
:102D2000EF90DF90CF900C94F1120F931F93CF93FD
:102D3000DF93C091EF02D091F002882321F0C0917F
:102D4000F102D091F202209709F45FC0613009F4DA
:102D500056C008F451C0623009F454C08EE199E0C5
:102D60000E94180B6C8170E090E080E04AE00E94C5
:102D70001F1283E099E00E94180BC8010E94180BF3
:102D80008EEE98E00E94180B6A8D7B8D8C8D9D8D48
:102D90000091A7041091A8042091A9043091AA04DD
:102DA000601B710B820B930B0E9463128CED98E0F9
:102DB0000E94180B6E8D7F8D88A199A10091A704A8
:102DC0001091A8042091A9043091AA04601B710BF2
:102DD000820B930B0E9463128BEC98E00E94180BFD
:102DE000CE010D960E94121288EC98E0DF91CF91EF
:102DF0001F910F910C94961201EC18E0AFCF08EBE5
:102E000018E0ACCF00EB18E0A9CFDF91CF911F9174
:102E10000F9108959091AF04911104C09091B00466
:102E2000992371F09091B10491110AC06091B60498
:102E3000882321F0813021F46091B7040C94951619
:102E40000895CF93DF93EC016E8386ED94E00E94AA
:102E5000180B8F819885009711F00E9412128DEC4B
:102E600094E00E94180B8C81082E000C990B0E9494
:102E7000661283EC94E00E94180B8E8181110AC0C7
:102E800081EB94E00E94180B80EC94E0DF91CF91ED
:102E90000C9496128AEB94E0F5CF60E080910901E2
:102EA00090910A010E94211760E080910B0190919E
:102EB0000C010E94211760E080910D0190910E019C
:102EC0000E94211760E080910F01909110010E94F3
:102ED000211760E080911101909112010E94211749
:102EE00060E080911301909114010E94211760E02D
:102EF00080911501909116010E9421178091170170
:102F000090911801009719F060E00E94211760E08D
:102F10008091190190911A010C94A4129F92AF9282
:102F2000BF92CF92DF92EF92FF920F931F93CF93B6
:102F3000DF938A01452B09F468C0E9016B016596AE
:102F4000FC016081CE010E94230DFC01BB24BA94D8
:102F5000892B09F0B5807601E894F7F8AA24A394A8
:102F60006701C00ED11E99249394309709F44DC087
:102F7000AA2009F43FC08481843069F0853049F18A
:102F8000823079F5DF010D900020E9F71197CD012E
:102F90008E1B9F0B07C00190F081E02D90E080E038
:102FA000309781F79F77E816F90621F5D801AC151F
:102FB000BD05E1F46B2DCE01DF91CF911F910F91F3
:102FC000FF90EF90DF90CF90BF90AF909F900C94C8
:102FD000230DA081B181FD01349613968C9190E070
:102FE000E2CF90E080E0F0E0E0E0DDCF9D918191E4
:102FF0009817E9F2A9246B2DCE010E94230DFC0144
:10300000892B09F4B2CFB580B0CF90E080E0DF919A
:10301000CF911F910F91FF90EF90DF90CF90BF90D5
:10302000AF909F900895FC0120813181C9014A969B
:103030004281538164817581009759F0D9015E9670
:10304000EC91E03211F090E080E0009711F00C94E8
:103050008E1790E080E00895CF93DF93EB010E94FC
:103060001318009741F0FC012481263021F480815F
:10307000DF91CF9108958881FBCFCF92DF92EF92BD
:10308000FF92CF93DF9300D000D01F92CDB7DEB771
:103090000E941318DC01009709F445C01496EC91C6
:1030A0001497E250ED3008F03EC0F0E0E65AF74EDB
:1030B0000C94AA34831893188118951867189318DC
:1030C0009318931875189318751893189918CC902D
:1030D0008C2D0F900F900F900F900F90DF91CF914C
:1030E000FF90EF90DF90CF900895CD90DD90ED9020
:1030F000FC908FEFC816D104E104F10449F340F3CA
:1031000012C08D919C910E943B0E3A834B835C834D
:103110006D83CA80DB80EC80FD80223051F3233048
:1031200041F3213051F0C12CD3CF8D919C91049665
:10313000EACFCD90DD90ED90FC9020E030E0A90149
:10314000C701B6010E94A53487FDEDCF20E030E035
:103150004FE753E4C701B6010E94D23118161CF3A1
:10316000C701B6010E947634C62EB2CFCF92DF924D
:10317000EF92FF92CF93DF9300D000D01F92CDB794
:10318000DEB70E941318DC01009709F44AC01496B8
:10319000EC911497E250ED3008F043C0F0E0ED52AE
:1031A000F74E0C94AA3401191119FF181519E018DB
:1031B000111911191119F0181119F51811191919F6
:1031C0006C9170E090E080E00F900F900F900F9066
:1031D0000F90DF91CF91FF90EF90DF90CF90089507
:1031E0006D917D918D919C91EFCF8D919D910D90E1
:1031F000BC91A02DB7FD15C0BC01CD01E5CF8D91CF
:103200009C910E943B0E3A834B835C836D83CA8002
:10321000DB80EC80FD80223041F1233041F1213010
:1032200061F060E070E0CB01CFCF8D919C9104966E
:10323000E8CFCD90DD90ED90FC9020E030E0A9014A
:10324000C701B6010E94A53487FDEBCF2FEF3FEFFA
:103250004FE75FE4C701B6010E94D23118160CF3A4
:10326000C701B6010E947634AFCFF7FCDACFC701B1
:10327000B601AACF8F929F92AF92BF92EF92FF9228
:103280000F931F93CF93DF9300D000D000D0CDB722
:10329000DEB779018A01FB0101900020E9F731973F
:1032A000E61BF70B9A8389837C836B83ED838F2FD7
:1032B0008F778E83CE0101960E941318009789F1B3
:1032C000FC0124812A3041F02C3059F58081918114
:1032D000A281B381B7FD25C0CE0101960E94B61828
:1032E0004B015C0181149104A104B104D1F0B70138
:1032F000C80186169706A806B90610F4C501B401E0
:1033000026960FB6F894DEBF0FBECDBFDF91CF91EA
:103310001F910F91FF90EF90BF90AF909F908F9073
:10332000089561E070E080E090E0EACF4F925F9214
:103330006F927F92AF92BF92CF92DF92EF92FF9205
:103340000F931F93CF93DF939091AF04911105C01A
:103350009091B004992309F4E8C09091B1049111BF
:10336000E4C0823008F0E1C081110AC0E091EF02B0
:10337000F091F002309759F481E08093B604D5C003
:10338000E091F102F091F202309709F487C0908940
:10339000992309F480C0018912892389348904178B
:1033A00015072607370708F482C0882309F4CCC024
:1033B00082E08093B704B9C08F898F5F8F8B9D891E
:1033C000891708F4ADC08FA5843658F40E947A316D
:1033D000A30192010E94F6328FA5681710F01F8A90
:1033E0009FC01F8A888D882351F09D899501281BD5
:1033F00031099217130609F05CF4890F8D8B8B89C4
:10340000823008F08DC0B701A6010E94AB1488C0BD
:1034100087ED90E00E94180B6D8970E090E080E0ED
:103420004AE00E941F1284ED90E00E949612E7CFBE
:10343000CD8EDE8EEF8EF8A273C08DA5811170C087
:1034400089A19AA1ABA1BCA1A7019601281B390BA8
:103450004A0B5B0BDA01C901B7FD62C08DA19EA1C9
:10346000AFA1B8A58C199D09AE09BF091816190698
:103470001A061B060CF054C08FA5843610F00DA759
:10348000BECF0E947A31A30192010E94F6328FA52D
:103490006817A8F345C0882309F46ECF81E089CF6F
:1034A0001092B604E091EF02F091F00208C0882378
:1034B000B9F31092B704E091F102F091F202309763
:1034C00081F00091AB041091AC042091AD043091D7
:1034D000AE04040F151F261F371F018B128B238B81
:1034E000348B6A017B01182FCFEED2E0AA24AA9474
:1034F000B12C94E6492E512C612C712C01E08C8961
:10350000882371F08EA5893011F0181309C08A89BB
:10351000813009F48DCF08F44FCF823009F48DCF7C
:103520006E9633E0CB32D30751F7DF91CF911F91E5
:103530000F91FF90EF90DF90CF90BF90AF907F9072
:103540006F905F904F90089582E017CFBF92CF9217
:10355000DF92EF92FF920F931F93CF93DF93EC01D3
:10356000198D1F3F81F0612F45960E94230DFC01AC
:103570008081898F309709F477C014828FEF85831B
:10358000BF01812F76C06C0135E0C30ED11CE880ED
:10359000F9808F89882341F0C6010E94B50DE62F7E
:1035A000F72F182F309749F71F89988D191324C0CA
:1035B000103109F459C0110F6D897E89D701ED9141
:1035C000FC91B4E01B9FA0011124C616D70609F098
:1035D00044C00190F081E02DBA01C7010995009720
:1035E00009F442C020E1F601DC0101900D922A9518
:1035F000E1F79E8B8D8B188F0D891E898F8921E0B5
:10360000280F2F8BE4E08E9FC0011124080F191F93
:1036100090E1B92E203111F48FE0B82EF6E0BF9E74
:10362000B0011124D701ED91FC910190F081E02DC2
:10363000C7010995F80193838283892B09F4B12C82
:10364000D801BC9211961C92012B71F0C6010E9408
:10365000B50DE62FF72F182F8DCF0480F581E02DC3
:10366000C7010995009729F681E08A8360E070E040
:103670008FEFDF91CF911F910F91FF90EF90DF902F
:10368000CF90BF9008954F925F926F927F928F92EA
:103690009F92AF92BF92CF92DF92EF92FF920F93E1
:1036A0001F93CF93DF9300D000D01F92CDB7DEB72A
:1036B0008C017B01B42E0E94930D6C01892B09F0C3
:1036C00048C0C8010E944F0D863609F4A9C124F5EF
:1036D000873229F08B3561F1823209F0A8C1D80117
:1036E00015961C921E92149712968D919C91139789
:1036F000892B39F48D919C910E946105F801938387
:103700008283C8010E9410106C01892B11F5B7014A
:10371000C8010E94EF101DC0843709F460C18B37C7
:1037200009F47BC08E3609F082C160EC71E060C1A3
:1037300080E4D70114968C931497E114F10421F0DE
:103740008FEF8C9311968C93B1101AC025E0C22E86
:10375000D12CC6010F900F900F900F900F90DF911A
:10376000CF911F910F91FF90EF90DF90CF90BF907E
:10377000AF909F908F907F906F905F904F90089543
:10378000F8011286C8010E94930D009751F56DE56E
:10379000C8010E945F0D8111DCCFBA94D8011B963D
:1037A0006D907C90C3010E94A61AA82E4B01672B36
:1037B00021F494E0C92ED12CCCCFF70161816F3F69
:1037C00091F0C30145960E94230DDC011596AC9241
:1037D000F701A1824B2DB401C8010E94431B009741
:1037E00039F06C01B6CFD7018C9311968C93F2CF40
:1037F000C8010E94930D0097A1F76DE5C8010E94D2
:103800005F0D8111A6CF6CE2C8010E945F0D81118E
:10381000C5CF83E0C82ED12C9CCF80E2F7018483F2
:10382000E114F10419F08FEF80838183BB2009F448
:103830008DCFD8011A961C92C8010E94930D009753
:1038400081F66DE7C8010E945F0D811182CFBA94A5
:10385000F8011582148282819381892B49F4808139
:1038600091810E946105D80113969C938E931297C3
:10387000C8010E944F0D8732F9F08232E9F0C80189
:103880000E944F0DD82E0E943D0D882311F2F801A1
:1038900012866D2DC8010E94E20FC8010E944F0DD3
:1038A000D82E0E943D0D8111F2CFD80112968D9134
:1038B0009C91892B41F47DCFC8010E9410106C01AE
:1038C000892B09F046CFC8010E94930D6C01892B0A
:1038D00009F03FCF6AE3C8010E945F0D882309F415
:1038E00098CFD8011296ED91FC91139714968D9173
:1038F0009C911597E80FF91F148214966D917C9195
:1039000015977F771B966D907C901C9712968D91E2
:103910009C910496272F2F77BA2DB078AB2EA22A30
:10392000E894A7F89301AC017A2DC7010E948E1785
:103930006C01009761F5C3010E94A61A482E4B0145
:10394000672B09F436CFC3010E94A61A582E962F72
:10395000C92ED72EC114D10409F42BCFF4015582FE
:10396000D70111966C916F3F71F0C30145960E948B
:10397000230DFC014582D70111965C92B401C80168
:103980000E94EF1007C0F70140825182F7CFB301C8
:103990000E948C114B2DB601C8010E94431B6C0183
:1039A000892B09F0D6CEC8010E94930D6C01892B9A
:1039B00009F0CFCE6DE7C8010E945F0D8111C9CE1D
:1039C0006CE2C8010E945F0D882309F422CFC80170
:1039D0000E94930D6C01892B09F43ACFBACE86E090
:1039E000D70114968C93149781E08C9365EB71E06A
:1039F000C8010F900F900F900F900F90DF91CF9113
:103A00001F910F91FF90EF90DF90CF90BF90AF90FC
:103A10009F908F907F906F905F904F900C94700D5F
:103A200086E0F701848310826AEB71E0E1CFC80180
:103A30000E944F0D4801FDE08F0E911CB12C782C97
:103A4000A92C803384F08A3384F43FE3B316A9F0C1
:103A5000D8011A961C92B394F40181934F01C801C6
:103A60000E944F0DEECF8B3281F393ED980F923081
:103A700060F3982F9F7D953441F30B0D111DD801F4
:103A80001D961C92872D9A2D0E943B0E3A834B83E4
:103A90005C836D838A819B81AC81BD812230A9F0DA
:103AA000233059F0213009F0B4CE2EE0F701248301
:103AB00080839183A283B3834CCE2AE0F7012483D1
:103AC00080839183A283B38344CE2CE0F7CF4F92BF
:103AD0005F926F927F92AF92BF92CF92DF92EF92FE
:103AE000FF920F931F93CF93DF93CDB7DEB7C25FE3
:103AF000D1090FB6F894DEBF0FBECDBF5E012EEC2C
:103B0000A20EB11C82E091E0F501918380831282C4
:103B100014821382C5010596968B858B178A84E0E3
:103B2000808F8FEF818F168E878F9E012F5F3F4F83
:103B3000790110E000E00E946D07609358027093D5
:103B4000590280935A0290935B0280E592E00E94B2
:103B5000670A97FD02C00C94BA280E946D07409036
:103B600058025090590260905A0270905B0264199A
:103B7000750986099709409054025090550260904B
:103B80005602709057026415750586059705E8F290
:103B90000F37110561F480E592E00E94890A892BB4
:103BA00031F080E592E00E94670A0A97A1F7E1E010
:103BB000F0E0EC0FFD1FE00FF11F10820530110542
:103BC00078F045E050E065EC71E0CE0101960E948E
:103BD0009236892B29F48DED96E00E949612C0C38F
:103BE000F50160817181C50105960E94E10DF50125
:103BF000128200811181F50183819481009751F037
:103C0000FC0120813181F50134832383B8010E94B6
:103C10008211F1CF168ECF57DF4FB982A882C158DB
:103C2000D040CD57DF4F19821882C358D040CB57B0
:103C3000DF4F19821882C558D040C957DF4F18820C
:103C4000C758D04021E030E02C0F3D1FC857DF4F50
:103C500039832883C858D040C557DF4F1882CB58C6
:103C6000D040C457DF4FB982A882CC58D0404AE038
:103C7000B501665E7F4FCE018F579F4F0E94431B59
:103C80008C01892B69F4C657DF4F8881CA58D04010
:103C9000882331F0F501868D83FF02C003E010E038
:103CA000CD57DF4F88819981C358D040009751F09C
:103CB000CF57DF4FE881F981C158D04060817181D1
:103CC0000E94821101151105F1F089E994E00E942A
:103CD000180BF801EE0FFF1FE75AFC4F85919491E6
:103CE0000E94180B86E994E00E94961280E592E00B
:103CF0000E94890A181619060CF032C380E592E07A
:103D00000E94670AF3CFCF57DF4FB982A882C1580C
:103D1000D0408BEC91E0CD57DF4F99838883C35817
:103D2000D04083E0CB57DF4F8883C558D040CA5777
:103D3000DF4F1881C658D04010781068CA57DF4F3F
:103D40001883C658D040CE018F579F4F0E9413183A
:103D5000009709F405C3FC018481882309F400C39A
:103D60001068CA57DF4F1883C658D040CE018F570E
:103D70009F4F0E941318DC01009709F4DAC01496D3
:103D8000EC911497E250ED3008F0D3C0F0E0E55329
:103D9000F14E0C94AA349E1F991F9C1FC81F991F97
:103DA000991F991F991FD81E991F891F991FCC1FF2
:103DB0008D919D910D90BC91A02D8115F0E89F07EC
:103DC000A105B10508F0B5C0BC016D3991E07907D6
:103DD00009F4E0C30CF06BC16437F1E07F0709F42C
:103DE000D8C20CF01FC1663331E0730709F43EC33B
:103DF0000CF003C16D3251E0750709F461C26F32F6
:103E000081E0780709F40EC36C3291E0790709F478
:103E10005FC2693EF3E07F0709F4D8C50CF013C513
:103E20006836710511F40C94D4270CF09DC46536E6
:103E3000710509F413C70CF071C46436710509F0FB
:103E400078C00E946D076B017C01C0922A02D0925B
:103E50002B02E0922C02F0922D0288EB94E00E945B
:103E6000EA0B1092AF041092B104E5ECF3E010827B
:103E70003F9644E0E53BF407D1F7E091F502F0917D
:103E8000F602309719F084810E949907E091F702B9
:103E9000F091F802309719F084810E949907E0911F
:103EA000F902F091FA02309721F060E084810E94DB
:103EB000B406E091FB02F091FC02309721F060E043
:103EC00084810E94B406E091FD02F091FE023097D9
:103ED00029F015A260E084810E94B4068CE191E093
:103EE0000E94180B80912E0290912F02A091300217
:103EF000B0913102A7019601281B390B4A0B5B0BCD
:103F0000CA01B9010E9463120E94F1120E944D176A
:103F100027C28D919D910D90BC91A02D8C019D018A
:103F200010582F4F3F4F011511052140310508F45E
:103F30004BCF85E693E051CE8D919C910E943B0E34
:103F4000C251DF4F2883CE5ED040C151DF4F38834E
:103F5000CF5ED040C051DF4F4883C05FD040CF50CC
:103F6000DF4F5883C15FD040CE50DF4F6883C25FC0
:103F7000D040C151DF4FC880D980EA80FB80CF5E3E
:103F8000D040223039F1233089F1213091F608C038
:103F90008D919C910496D2CFCD90DD90ED90FC90C8
:103FA00020E030E040E057ECC701B6010E94A534A4
:103FB00087FDBFCF20E03EEF4FEF56E4C701B601CB
:103FC0000E94D23118160CF4B4CFC701B6010E947A
:103FD0006F34FBCED701C6019058AF4FBF4F00974B
:103FE000A140B10508F0A5CFB601EFCEC11480E81D
:103FF000D806E104F104C0F39CCF6933E1E07E0709
:1040000009F468C26337F1E07F0709F463C16733DD
:1040100021E0720709F0FDCE61E080910F019091DF
:10402000100153C1603931E0730709F475C2F4F42B
:104030006D3751E0750709F41BC26E3781E07807D0
:1040400009F430C2653791E0790709F0E2CE6F39A3
:10405000F2E07F0709F4DAC0603A22E0720709F45F
:1040600016C3683D714009F07BC157C06339E1E078
:104070007E0709F453C25CF4613921E0720709F04C
:10408000C8CE61E080911101909112011EC16A3980
:1040900031E0730709F464C26B3941E0740709F039
:1040A000B8CE61E080911301909114010EC16B357F
:1040B00052E0750709F4A4C20CF072C0643F91E0AD
:1040C000790709F489C20CF056C0693DF1E07F0719
:1040D00009F4BDCF623E21E0720709F443C2683D96
:1040E00031E0730709F095CE20EC37E249E050E06B
:1040F00069ED71E0C5010E943A199B01AC01E091A4
:104100001101F0911201218732874387548764EFB0
:1041100072E08DEF92E00E946916CF57DF4FB982AF
:10412000A882C158D04089ED91E0CD57DF4F9983E7
:104130008883C358D04088E0CB57DF4F8883C55869
:10414000D040CA57DF4F8881C658D04080788068F9
:10415000CA57DF4F8883C658D040CE018F579F4F34
:104160000E94B61860932401709325018093260164
:104170009093270154C1683542E0740709F437C2AF
:10418000693552E0750709F429C2653F81E0780777
:1041900009F03FCE61E0809115019091160195C024
:1041A000693A92E0790709F4A0C20CF057C0603A6E
:1041B000F2E07F0709F450C2613A22E0720709F485
:1041C00046CF6F3932E0730709F023CE2FEF3FEF70
:1041D00040E050E06FEC71E0C5010E943A199B018C
:1041E000AC01E0911701F0911801309779F0211599
:1041F00031054105510521F02187328743875487D6
:1042000063EA72E08DEA92E00E946916CF57DF4FB1
:10421000B982A882C158D0408FEC91E0CD57DF4FD2
:1042200099838883C358D04089E0CB57DF4F888378
:10423000C558D040CA57DF4F8881C658D0408078D3
:104240008068CA57DF4F8883C658D040CE018F5749
:104250009F4F0E943D1880931F0182C0643843E045
:10426000740709F459C2ACF46A3A82E0780709F09D
:10427000D0CDE0911701F0911801309709F470C08A
:1042800081E081A347E652E063E772E088E792E0CD
:10429000EAC0653893E0790709F436C26738E3E08D
:1042A0007E0709F0B6CD8091190190911A010E9404
:1042B000EA0B41E552E067E572E08CE592E0D3C09D
:1042C00061E080910D0190910E010E94211748C07C
:1042D00060E0F7CF2FEF3FEF40E050E06FEC71E090
:1042E000C5010E943A199B01AC01E0910D01F091CA
:1042F0000E0121873287438754876BE473E085E59D
:1043000093E00E946916CF57DF4FB982A882C15847
:10431000D0408FEC91E0CD57DF4F99838883C3580D
:10432000D04089E0CB57DF4F8883C558D040CA576B
:10433000DF4F8881C658D04080788068CA57DF4FE9
:104340008883C658D040CE018F579F4F0E94B61821
:10435000609328017093290180932A0190932B0187
:10436000C5010E94F411CE50DF4F0FB6F894DEBFA6
:104370000FBECDBFDF91CF911F910F91FF90EF90B6
:10438000DF90CF90BF90AF907F906F905F904F90F5
:10439000089520EC37E249E050E069ED71E0C50195
:1043A0000E943A199B01AC01E0910D01F0910E01C0
:1043B000258736874787508B6EE373E087E493E069
:1043C0000E946916CF57DF4FB982A882C158D040EA
:1043D00089ED91E0CD57DF4F99838883C358D04052
:1043E00088E0CB57DF4F8883C558D040CA57DF4F8E
:1043F0008881C658D04080788068CA57DF4F88834C
:10440000C658D040CE018F579F4F0E94B618609378
:104410002C0170932D0180932E0190932F010E9407
:10442000260E9ECF00910D0110910E010E946D0786
:10443000F801618B728B838B948BC584D684E7845F
:10444000F088DC01CB018C0D9D1DAE1DBF1D858B41
:10445000968BA78BB08F81E080A34FE253E065E39A
:1044600073E08AE393E00E94C9127ACF60E0D5CD71
:104470002FEF3FEF40E050E06FEC71E0C5010E948C
:104480003A199B01AC01E0910F01F09110012187D5
:1044900032874387548760E273E08AE293E00E94A8
:1044A00069165ECF20EC37E249E050E069ED71E03B
:1044B000C5010E943A199B01AC01E0910F01F091F6
:1044C0001001258736874787508B62E173E08BE1C7
:1044D00093E0E5CF00910F01109110010E946D074C
:1044E000F801618B728B838B948BC584D684E784AF
:1044F000F088DC01CB018C0D9D1DAE1DBF1D858B91
:10450000968BA78BB08F81E080A342E053E068E0F8
:1045100073E08DE093E0A7CF60E0B4CD009111018E
:10452000109112010E946D07F801658776878787D1
:10453000908BC184D284E384F484DC01CB018C0DA4
:104540009D1DAE1DBF1D818B928BA38BB48B81E013
:10455000858B44EE52E06AEE72E08FEE92E083CFFC
:1045600060E0A0CD20EC37E249E050E069ED71E079
:10457000C5010E943A199B01AC01E0911301F09131
:104580001401218732874387548765ED72E08EEDF1
:1045900092E085CF00911301109114010E946D07E4
:1045A000F801658776878787908BC184D284E384FE
:1045B000F484DC01CB018C0D9D1DAE1DBF1D818BD4
:1045C000928BA38BB48B81E0858B44EC52E06AEC38
:1045D00072E08FEC92E047CF60E0DDCD8091170173
:1045E0009091180161E0009709F06FCEB9CE8091EB
:1045F00017019091180160E0009709F066CEB0CEE7
:1046000000911701109118010115110509F4A8CEA8
:104610000E946D07AB01BC01F801418B528B638B8B
:10462000748B85859685A785B089840F951FA61FF5
:10463000B71F858B968BA78BB08FFF24F394F2A2C4
:10464000C8010E94FC0BF801F4A243EB52E069EBB5
:1046500072E08EEB92E007CF20EC37E249E050E0C9
:1046600069ED71E0C5010E943A199B01AC01E0912E
:104670001701F0911801309751F025873687478749
:10468000508B64E972E08DE992E00E946916CF5781
:10469000DF4FB982A882C158D04089ED91E0CD5753
:1046A000DF4F99838883C358D04088E0CB57DF4FD2
:1046B0008883C558D040CA57DF4F8881C658D0403C
:1046C00080788068CA57DF4F8883C658D040CE01B3
:1046D0008F579F4F0E94B61860932001709321015D
:1046E00080932201909323019ACEE0911701F091DB
:1046F0001801309709F434CE11A24EE752E069E870
:1047000072E08EE892E0AFCE61E080911901909165
:104710001A010E94A41224CE60E0F7CF663671051C
:1047200009F439C46736710509F003CC0E946D079E
:104730006B017C018091AF0481110FC00E9459066A
:10474000C092A704D092A804E092A904F092AA040F
:10475000B701A60180E00E94AB144FEB53E065EC7B
:1047600073E080ED93E07FCE693C710509F4ECC104
:104770000CF05FC06936710509F0DBCBC251DF4F29
:104780001882CE5ED040CF57DF4FB982A882C15881
:10479000D04080E092E0CD57DF4F99838883C358A3
:1047A000D04086E0CB57DF4F8883C558D040CA57EA
:1047B000DF4F8881C658D04080788068CA57DF4F65
:1047C0008883C658D040BE0162517F4FCE018F57BB
:1047D0009F4F0E942C18F82E0E946D072091AF0465
:1047E000222309F1F092B104FF2009F47AC4609306
:1047F000B2047093B3048093B4049093B5040E9400
:104800005906E091F502F091F602309719F0848193
:104810000E949907E091F702F091F802309719F0A1
:1048200084810E9499074F2D60E973E08FE993E03E
:104830006AC06C3D710509F4D9C1683E734009F046
:1048400078CB60E0C4C0643145E0740709F420C14E
:104850000CF05CC0633384E0780709F4BBC0E4F576
:104860006233744009F065CBCF57DF4FB982A8821D
:10487000C158D04082EE91E0CD57DF4F99838883B5
:10488000C358D04087E0CB57DF4F8883C558D0400E
:10489000CA57DF4F8881C658D04080788068CA5791
:1048A000DF4F8883C658D040CE018F579F4F0E945C
:1048B000B6186B017C01C0920501D0920601E0920E
:1048C0000701F09208010E941406A701960165E80D
:1048D00074E08DE894E0E3CD6833F4E07F0709F4F9
:1048E000CBC06933744009F024CB81E08093AE05DE
:1048F0008EE995E0909301018093000141E062E62A
:1049000074E08DE694E00E9440162ACD6F3535E0C4
:10491000730709F4BFC00CF041C0653155E075075D
:1049200009F4B2C06E35754009F003CBCF57DF4FA5
:10493000B982A882C158D04082EE91E0CD57DF4FB6
:1049400099838883C358D04087E0CB57DF4F888353
:10495000C558D040CA57DF4F8881C658D0408078AC
:104960008068CA57DF4F8883C658D040CE018F5722
:104970009F4F0E94B6186B017C01C0920501D09236
:104980000601E0920701F09208010E941406A701B7
:1049900096016DE374E085E494E081CD643695E0A2
:1049A000790709F4C9C06536754009F0C2CA81E0CB
:1049B0008093880588E795E090930101809300013A
:1049C00041E06AE174E085E294E09DCF61E08EE928
:1049D00095E07BCCCF57DF4FB982A882C158D04039
:1049E0002AEEE22E21E0F22ECD57DF4FF982E88247
:1049F000C358D04015E0CB57DF4F1883C558D0407F
:104A0000CA57DF4F8881C658D04080788068CA571F
:104A1000DF4F8883C658D040CE018F579F4F0E94EA
:104A20003D180E944106CF57DF4FB982A882C15876
:104A3000D040CD57DF4FF982E882C358D040CB57E2
:104A4000DF4F1883C558D040CA57DF4F8881C658FA
:104A5000D04080788068CA57DF4F8883C658D040DE
:104A6000CE018F579F4F0E94B6189B01AC0166E79D
:104A700074E08CE794E013CD1092AE0540E06EE454
:104A800074E089E594E03FCF61E088E795E01DCCD4
:104A900060E0FBCFCF57DF4FB982A882C158D0402A
:104AA0009AEEE92E91E0F92ECD57DF4FF982E88298
:104AB000C358D04015E0CB57DF4F1883C558D040BE
:104AC000CA57DF4F8881C658D04080788068CA575F
:104AD000DF4F8883C658D040CE018F579F4F0E942A
:104AE0003D180E944106CF57DF4FB982A882C158B6
:104AF000D040CD57DF4FF982E882C358D040CB5722
:104B0000DF4F1883C558D040CA57DF4F8881C65839
:104B1000D04080788068CA57DF4F8883C658D0401D
:104B2000CE018F579F4F0E94B6189B01AC016EE2D9
:104B300074E084E394E0B3CC1092880540E066E032
:104B400074E081E194E0DFCECF57DF4FB982A882D5
:104B5000C158D0408AEEE82E81E0F82ECD57DF4FC5
:104B6000F982E882C358D04015E0CB57DF4F188355
:104B7000C558D040CA57DF4F8881C658D04080788A
:104B80008068CA57DF4F8883C658D040CE018F5700
:104B90009F4F0E943D180E944106CF57DF4FB982B8
:104BA000A882C158D040CD57DF4FF982E882C35860
:104BB000D040CB57DF4F1883C558D040CA57DF4F7E
:104BC0008881C658D04080788068CA57DF4F888374
:104BD000C658D040CE018F579F4F0E94B6189B01F8
:104BE000AC0165EF73E08BEF93E059CCCF57DF4F0B
:104BF000B982A882C158D04080EF91E0CD57DF4FF5
:104C000099838883C358D04088E0CB57DF4F88838F
:104C1000C558D040CA57DF4F8881C658D0408078E9
:104C20008068CA57DF4F8883C658D040CE018F575F
:104C30009F4F0E94B6186B017C01C0924302D09234
:104C40004402E0924502F09246020E94260EA7011D
:104C500096016BED73E08AEE93E021CC0E946D0724
:104C60006B017C01C0922E02D0922F02E0923002A2
:104C7000F092310288EB94E00E94EA0B1092B004AB
:104C80001092B104C092A704D092A804E092A904A3
:104C9000F092AA0481E08093AF0481E093E00E9447
:104CA000A50B8FE193E00E94A50B0FEE12E0F80137
:104CB0008489882341F08289813009F03DC1C58E05
:104CC000D68EE78EF0A2025E1F4FF3E00B321F0775
:104CD00071F7E5ECF3E010823F9624E0E53BF20744
:104CE000D1F7E091EF02F091F002309721F0118AB4
:104CF000128A138A148AE091F102F091F20230973D
:104D000021F0118A128A138A148AE091FD02F0912F
:104D1000FE023097A9F0118A128A138A148A158A22
:104D2000168A178A108E118E128E138E148E158E7F
:104D3000168E178E10A212A213A214A281E085A3D0
:104D40008DE092E00E94961284EC91E00E94180B94
:104D50006091050170910601809107019091080111
:104D60000E94631282EB91E00E94180B8091000177
:104D7000909101018E59954009F40AC18CE591E0AA
:104D80000E94180B8EE991E00E94180B609143027B
:104D90007091440280914502909146020E946312F4
:104DA0000E94F112E0902C01F0902D0100912E0153
:104DB00010912F01209128013091290140912A0161
:104DC00050912B0160915D058AE991E00E94FB15ED
:104DD000E0904305F090440500914505109146058B
:104DE00020913F0530914005409141055091420589
:104DF00060913C0585E991E00E94FB15209124011A
:104E0000309125014091260150912701609126059E
:104E100080E991E00E94CC15209113053091140592
:104E20004091150550911605609110058AE891E0B2
:104E30000E94CC15E0902001F09021010091220108
:104E40001091230120911F0130E050E040E060917B
:104E5000CF0484E891E00E94FB156091F5048FE790
:104E600091E00E94AF156091BB0484E791E00E943D
:104E7000AF154091AE056091A4058BE691E00E94CC
:104E800083154091880560917E0582E691E00E943D
:104E9000831580912E0290912F02A0913002B09143
:104EA0003102E0910901F0910A0180839183A2838C
:104EB000B383E0910B01F0910C0180839183A28375
:104EC000B383E0910D01F0910E0180839183A28361
:104ED000B383E0910F01F091100180839183A2834D
:104EE000B383E0911101F091120180839183A28339
:104EF000B383E0911301F091140180839183A28325
:104F0000B383E0911501F091160180839183A28310
:104F1000B383E0911701F0911801309721F080835D
:104F20009183A283B383E0911901F0911A018087E4
:104F30009187A287B38714CA823009F0C4CE41A4F6
:104F400052A463A474A460E070E0CB0114141504AF
:104F50001604170434F40E947A31A30192010E94CE
:104F6000F6326C0D7D1D8E1D9F1DF80161A372A38D
:104F700083A394A381A592A5A3A5B4A58C0D9D1D83
:104F8000AE1DBF1D85A396A3A7A3B0A715A69BCE54
:104F90008FE591E0F5CE8091AF0481110C94EB1D6B
:104FA0000E944D170C94EB1DC251DF4F1882CE5E4C
:104FB000D040CF57DF4FB982A882C158D04089EF87
:104FC00091E0CD57DF4F99838883C358D04086E066
:104FD000CB57DF4F8883C558D040CA57DF4F8881F1
:104FE000C658D04080788068CA57DF4F8883C6583B
:104FF000D040BE0162517F4FCE018F579F4F0E941C
:105000002C18182F0E946D072091AF04211166C043
:105010001093B004112369F16093A7047093A8045E
:105020008093A9049093AA040E94590681E093E01A
:105030000E94A50B8FE193E00E94A50BE091EF0287
:10504000F091F002309721F0118A128A138A148AA3
:10505000E091F102F091F202309721F0118A128A68
:10506000138A148A4091B0046AEA73E084EB93E0F7
:105070004ACC0E945906E091F502F091F602309771
:1050800019F084810E949907E091F702F091F802EB
:10509000309719F084810E949907E091F902F0910C
:1050A000FA02309721F060E084810E94B406E0911A
:1050B000FB02F091FC02309721F060E084810E94B5
:1050C000B406E091FD02F091FE02309721F060E01D
:1050D00084810E94B4060E94260EC4CF1111C2CF53
:1050E000FACF0091B2041091B3042091B40430912E
:1050F000B504DC01CB01801B910BA20BB30BEFEECF
:10510000F2E04BE253E024892223A1F022892130EE
:10511000B1F4058D168D278D30A1011511052105DE
:10512000310541F0080F191F2A1F3B1F058F168FED
:10513000278F30A37E964E175F0729F774CB223056
:10514000C9F701A112A123A134A1080F191F2A1F19
:105150003B1F01A312A323A334A305A116A127A1DA
:1051600030A5080F191F2A1F3B1F05A316A327A34D
:1051700030A7E0CF8A30910511F40C94C81DF701D7
:1051800081937F010F5F1F4F0F37110511F00C94B2
:105190009B1D0C94C81DCB01BA010C94D535CB01D5
:1051A0000C944C35CB010C94B0341F920F920FB677
:1051B0000F9211242F933F938F939F93AF93BF939D
:1051C0008091480290914902A0914A02B0914B020D
:1051D0003091470223E0230F2D3758F50196A11D8A
:1051E000B11D209347028093480290934902A093F7
:1051F0004A02B0934B0280914C0290914D02A091D3
:105200004E02B0914F020196A11DB11D80934C0238
:1052100090934D02A0934E02B0934F02BF91AF9175
:105220009F918F913F912F910F900FBE0F901F90E4
:10523000189526E8230F0296A11DB11DD2CF1F920B
:105240000F920FB60F9211242F933F934F935F93BA
:105250006F937F938F939F93AF93BF93EF93FF933E
:10526000E0911D01F0911E010995FF91EF91BF9111
:10527000AF919F918F917F916F915F914F913F91EE
:105280002F910F900FBE0F901F9018951F920F92A5
:105290000FB60F9211242F933F934F935F936F9309
:1052A0007F938F939F93AF93BF93EF93FF93E0917F
:1052B0001B01F0911C010995FF91EF91BF91AF91F6
:1052C0009F918F917F916F915F914F913F912F911E
:1052D0000F900FBE0F901F9018951F920F920FB650
:1052E0000F9211242F933F934F935F936F937F936C
:1052F0008F939F93AF93BF93EF93FF9380913F0260
:1053000090914002A0914102B0914202892B8A2BD8
:105310008B2BD1F190913E02E0913C02F0913D0245
:1053200080818927808380913F0290914002A091E3
:105330004102B0914202181619061A061B069CF487
:1053400080913F0290914002A0914102B0914202AF
:105350000197A109B10980933F0290934002A09365
:105360004102B0934202FF91EF91BF91AF919F91A3
:105370008F917F916F915F914F913F912F910F90FE
:105380000FBE0F901F901895809104010E949907FD
:10539000EACF1F920F920FB60F9211242F933F93D3
:1053A0004F935F936F937F938F939F93AF93BF932D
:1053B000EF93FF9380E592E00E94A90AFF91EF919D
:1053C000BF91AF919F918F917F916F915F914F911D
:1053D0003F912F910F900FBE0F901F9018951F9225
:1053E0000F920FB60F9211242F938F939F93EF93E9
:1053F000FF93E0916002F09161028081E09166028A
:10540000F091670282FD1BC09081809169028F5FDD
:105410008F7320916A02821741F0E0916902F0E0F7
:10542000E05BFD4F958F80936902FF91EF919F9113
:105430008F912F910F900FBE0F901F901895808124
:10544000F4CFEF92FF920F931F93CF93DF93EC0172
:10545000162F7A01022F6C8382E08D8388EA91E017
:1054600098878F831E82188219821A821B8262E0BB
:10547000812F0E94E206098742E050E0B701CE0189
:105480000D960E94A8361F86812F0E948B0621E070
:10549000892B09F420E02A87812F0E948B0621E0C6
:1054A000892B09F420E02B87812F0E948B0621E0B5
:1054B000892B09F420E02C87188A198A1A8A1B8AFA
:1054C0001C8A1D8A1E8A1F8A188E84E1898F1A8E73
:1054D0001B8E1C8E1D8E1E8E1F8E18A219A21BA243
:1054E0001AA21DA21CA2DF91CF911F910F91FF90D4
:1054F000EF9008953F924F925F926F927F928F92BA
:105500009F92AF92BF92CF92DF92EF92FF920F9352
:105510001F93CF93DF93109253021092520288EEA2
:1055200093E0A0E0B0E08093540290935502A093E2
:105530005602B093570284E891E090935102809311
:10554000500285EC90E090935D0280935C0284ECC5
:1055500090E090935F0280935E0280EC90E09093E5
:1055600061028093600281EC90E0909363028093EB
:10557000620282EC90E0909365028093640286EC74
:1055800090E09093670280936602109269021092F5
:105590006A0210926B0210926C0220E047E052E027
:1055A0006AE08EE995E00E94212A21E04AE052E07B
:1055B0006CE088E795E00E94212AC0902C01D090F1
:1055C0002D01E0902E01F0902F0180902801909005
:1055D0002901A0902A01B0902B0183E080935B0504
:1055E0003324339430925C050DE012E010935F0594
:1055F00000935E0510925D051092570510925805B4
:105600001092590510925A0561E00E94E20660E08E
:1056100083E00E94B4068092600590926105A0929A
:105620006205B0926305C0926405D0926505E09270
:105630006605F092670544244A94542C3201409246
:1056400068055092690560926A0570926B05109228
:105650006C0510926D0510926E0510926F051092F8
:1056600070051092710510927205C8ECD0E0D093CD
:105670007405C0937305D0937605C0937505109299
:10568000770587E080933A0530923B0510933E05FD
:1056900000933D0510923C05109236051092370597
:1056A000109238051092390561E00E94E20660E030
:1056B00087E00E94B40680923F0590924005A09238
:1056C0004105B0924205C0924305D0924405E09254
:1056D0004505F09246054092470550924805609274
:1056E000490570924A0510924B0510924C05109294
:1056F0004D0510924E0510924F05109250051092D4
:105700005105D0935305C0935205D0935505C093CE
:10571000540510925605C0902401D0902501E090C8
:105720002601F090270184E080932405309225051E
:10573000C1E1D2E0D0932805C09327051092260539
:105740001092200510922105109222051092230537
:1057500061E00E94E20660E084E00E94B406C0922C
:105760002905D0922A05E0922B05F0922C05109283
:105770002D0510922E0510922F05109230051092D3
:1057800031051092320510923305109234051092B3
:10579000350588E080930E0530920F05D0931205F1
:1057A000C09311051092100510920A0510920B0576
:1057B00010920C0510920D0561E00E94E20660E077
:1057C00088E00E94B406C0921305D0921405E092BE
:1057D0001505F092160510921705109218051092F3
:1057E000190510921A0510921B0510921C051092B3
:1057F0001D0510921E0510921F0585E08093F3048D
:1058000082E08093F40486E192E09093F704809321
:10581000F6041092F5041092EF041092F004109226
:10582000F1041092F20462E085E00E94E20685E055
:105830000E948B0621E0892B09F420E02093F804D4
:1058400085E00E948B0621E0892B09F420E020935B
:10585000F90485E00E948B0621E0892B09F420E001
:105860002093FA041092FB041092FC041092FD04A1
:105870001092FE0484E18093FF04109200051092C0
:105880000105109202051092030510920405109272
:105890000505109206051092070510920905109251
:1058A00008058090200190902101A0902201B090E5
:1058B0002301C0901F01D12CF12CE12C86E08093B4
:1058C000CD0481E08093CE0483E292E09093D104F2
:1058D0008093D0041092CF041092C9041092CA048D
:1058E0001092CB041092CC0461E086E00E94E206A4
:1058F00060E086E00E94B406C092D204D092D30445
:10590000E092D404F092D5048092D6049092D70409
:10591000A092D804B092D9041092DA041092DB0459
:105920001092DC041092DD041092DE041092DF0469
:105930001092E0041092E1041092E2041092E30449
:105940001092E4041092E5041092E6041092E70429
:105950001092E8041092E9041092EA041092EB0409
:105960001092EC041092ED041092EE0489E0809302
:10597000B80482E08093B90461E089E00E94E20605
:1059800062E08091B9040E94E2068091B9048230FD
:1059900009F4A9C0833061F489E797E090931E0170
:1059A00080931D01809169008C6080936900E99A61
:1059B0001092BA041092BB041092BC041092BD0461
:1059C0001092BE041092BF041092C0041092C10441
:1059D0001092C2041092C3041092C4041092C50421
:1059E0001092C6041092C7041092C80488EB94E089
:1059F0009093EE028093ED028CE3EAE3F1E0A1E004
:105A0000B3E001900D928A95E1F71092F0021092A6
:105A1000EF021092F2021092F1021092F402109230
:105A2000F3021092F6021092F5021092F802109210
:105A3000F7021092FA021092F9021092FC021092F0
:105A4000FB021092FE021092FD02109200031092CF
:105A5000FF021092A7041092A8041092A9041092B9
:105A6000AA0480E29EE4A0E0B0E08093AB049093AF
:105A7000AC04A093AD04B093AE041092AF041092A6
:105A8000B0041092B1041092B2041092B3041092B8
:105A9000B4041092B50481E08093B6048093B704F7
:105AA0001092030310922103109279031092B6030F
:105AB000E5ECF3E085EB94E010823F968E179F07AC
:105AC000D9F7DF91CF911F910F91FF90EF90DF9069
:105AD000CF90BF90AF909F908F907F906F905F908E
