:100000000C9407050C94371C0C94101C0C942F05B1
:100010000C942F050C942F050C942F050C945E1C4A
:100020000C942F050C942F050C942F050C942F0580
:100030000C942F050C942F050C942F050C942F0570
:100040000C94C61B0C942F050C94E01C0C94BA1C49
:100050000C942F050C942F050C942F050C942F0550
:100060000C942F050C942F05546F6F446565700038
:100070004E6F4D656D6F727900496E76616C696483
:10008000496E70757400496E636F6D706C65746550
:10009000496E70757400456D707479496E70757431
:1000A000004F6B00CDCCCC3D0AD7233C17B7D138DD
:1000B00077CC2B329595E6241FB14F0A00002041E2
:1000C0000000C84200401C4620BCBE4CCA1B0E5A51
:1000D000AEC59D74227D007B226C6576656C223AEC
:1000E00022303031222C22646576696365223A22FF
:1000F000434F4E54524F4C4C4552222C2264657350
:1001000063223A225052207468726573686F6C647F
:10011000206361707065642061742000444953411C
:10012000524D45440041524D454400227D002C2251
:1001300064657363223A2200222C2270696E223A8F
:10014000007B226C6576656C223A22303031222C9D
:1001500022646576696365223A2200222C22766148
:100160006C7565223A00222C22706172616D223A10
:1001700022007B226C6576656C223A223030302278
:100180002C22646576696365223A220066616C738D
:1001900065007472756500222C2276616C7565228B
:1001A0003A00222C22706172616D223A22007B2279
:1001B0006C6576656C223A22303030222C226465E0
:1001C00076696365223A2200227D00222C22766124
:1001D0006C7565223A2200222C22706172616D22B8
:1001E0003A22007B226C6576656C223A22303030F0
:1001F000222C22646576696365223A2200444953C1
:1002000041524D45440041524D454400227D002C51
:100210002264657363223A22007B226C6576656CEA
:10022000223A22303031222C2264657669636522BD
:100230003A224D4943524F53434F5045222C22708E
:10024000696E223A0066616C7365007472756500B0
:100250002C226475726174696F6E223A002C2266DA
:1002600072657175656E6379223A00222C22617283
:100270006D6564223A007B226C6576656C223A22B9
:10028000303030222C22646576696365223A220080
:1002900066616C73650074727565002C22647572FA
:1002A0006174696F6E223A00222C2261726D65645E
:1002B000223A007B226C6576656C223A223030301F
:1002C000222C22646576696365223A220066616C9D
:1002D0007365007472756500222C2261726D65640D
:1002E000223A007B226C6576656C223A22303030EF
:1002F000222C22646576696365223A220066616C6D
:10030000736500747275650066616C736500747264
:100310007565002C227265696E666F726365642272
:100320003A00222C2261726D6564223A007B226CB5
:100330006576656C223A22303030222C2264657654
:10034000696365223A2200022C22656E645F74693B
:100350006D657374616D70223A002C226576656E4E
:1003600074223A224C49434B222C227374617274DA
:100370005F74696D657374616D70223A00222C227E
:1003800070696E223A007B226C6576656C223A2297
:10039000303037222C22646576696365223A220068
:1003A0002C22656E645F74696D657374616D702273
:1003B0003A002C226576656E74223A225354494DD8
:1003C000222C2273746172745F74696D6573746139
:1003D0006D70223A007B226C6576656C223A223081
:1003E0003037222C22646576696365223A224C41BB
:1003F000534552222C2270696E223A002C226576D7
:10040000656E74223A2254494D455354414D502251
:100410002C2274696D657374616D70223A007B22C1
:100420006C6576656C223A22303038222C22646565
:1004300076696365223A224D4943524F53434F50E8
:1004400045222C2270696E223A007B226C6576650B
:100450006C223A22303037222C226465766963653B
:10046000223A22434F4E54524F4C4C4552222C229A
:100470006576656E74223A22454E44222C227469B8
:100480006D657374616D70223A004C4800524800EB
:100490007B226C6576656C223A22303030222C2229
:1004A0006F6D697373696F6E5F696E746572766183
:1004B0006C223A004C455645525F4C48004C45561C
:1004C00045525F5248004D4943524F53434F5045A8
:1004D000004C49434B004C415345520050554D5040
:1004E000320050554D5000435545320043554500AC
:1004F000227D007B226C6576656C223A223030309A
:10050000222C22646576696365223A22434F4E5459
:10051000524F4C4C4552222C2270617261646967C3
:100520006D223A224F4D495353494F4E222C22619E
:1005300063746976655F6C65766572223A22007B2A
:10054000226C6576656C223A22303037222C226488
:100550006576696365223A22434F4E54524F4C4CA4
:100560004552222C226576656E74223A22535441FC
:100570005254222C2274696D657374616D70223A35
:10058000307D0046495245440074657374004D49FE
:1005900043524F53434F504500494E444550454EFA
:1005A00044454E54006D6F6465004C415345520004
:1005B000434F4E54494E47454E54006D6F6465009D
:1005C0004C41534552006475726174696F6E004C02
:1005D00041534552006672657175656E6379004CD2
:1005E00041534552004649524544007465737400B6
:1005F0004C4153455200464952454400746573745A
:100600000050554D5032006475726174696F6E0010
:1006100050554D503200464952454400746573743C
:100620000050554D50006475726174696F6E0050D2
:10063000554D50004649524544007465737400435B
:10064000554532006475726174696F6E004355459B
:1006500032006672657175656E6379004355453287
:100660000046495245440074657374004355450083
:100670006475726174696F6E0043554500667265FA
:100680007175656E63790043554500A1009600863B
:10069000007900700068007B226C6576656C223AF8
:1006A00022303030222C22646576696365223A223A
:1006B000434F4E54524F4C4C4552222C22736B6583
:1006C000746368223A226F6D697373696F6E2E6965
:1006D0006E6F222C2276657273696F6E223A2276D3
:1006E000322E302E30222C22626175645F7261746A
:1006F00065223A3131353230302C227363686564BB
:10070000756C65223A224F4D495353494F4E227D15
:10071000007B226C6576656C223A22303036222CC2
:100720002264657363223A22436F6D6D616E6420AB
:100730006E6F7420666F756E64227D0074657374CD
:100740005F6D6F646500434F4E54524F4C4C4552A1
:1007500000464952454400746573745F636861697B
:100760006E00434F4E54524F4C4C4552006F6D69D2
:100770007373696F6E5F696E74657276616C004346
:100780004F4E54524F4C4C4552007265696E666F25
:1007900072636564004C455645525F4C4800726573
:1007A000696E666F72636564004C455645525F4CD6
:1007B00048007265696E666F72636564004C4556E9
:1007C00045525F5248007265696E666F7263656478
:1007D000004C455645525F524800227D007B226CFA
:1007E0006576656C223A22303036222C226465739D
:1007F00063223A220000000000240027002A0000A3
:10080000000000250028002B000000000023002627
:100810000029000404040404040404020202020285
:1008200002030303030303010204081020408001B4
:100830000204081020010204081020000000080033
:100840000201000003040700000000000000005443
:10085000494D454F555400494E4143544956450072
:1008600041435449564500227D002C226F72696530
:100870006E746174696F6E223A22002C22656E6478
:100880005F74696D657374616D70223A00222C2269
:1008900073746172745F74696D657374616D7022D5
:1008A0003A002C226576656E74223A2250524553E6
:1008B00053222C22636C617373223A22007B226CD8
:1008C0006576656C223A22303037222C22646576B8
:1008D000696365223A225357495443485F4C455651
:1008E0004552222C2270696E223A002C22736368D2
:1008F0006564756C65645F6174223A002C227461D2
:1009000072676574223A007B226C6576656C223AC8
:1009100022303036222C226572726F725F636F64F0
:1009200065223A22455F50454E44494E475F465541
:100930004C4C222C2264657363223A2250656E640B
:10094000696E6720616374696F6E20717565756586
:100950002066756C6C20E2809420616374696F6E10
:100960002064726F70706564222C22616374696FF9
:100970006E5F74797065223A005354494D00494EB8
:10098000465553494F4E00494E465553494F4E0028
:10099000544F4E4500544F4E45004C415345520074
:1009A00050554D505F320050554D50004355455FF6
:1009B0003200435545002C22656E645F74696D6595
:1009C0007374616D70223A00222C22737461727408
:1009D0005F74696D657374616D70223A002C2265D5
:1009E00076656E74223A2200222C2270696E223AB9
:1009F000007B226C6576656C223A22303037222CDF
:100A000022646576696365223A2200006B1D112419
:100A10001FBECFEFD8E0DEBFCDBF12E0A0E0B1E057
:100A2000EAE0F8E602C005900D92A431B107D9F7CB
:100A300025E0A4E1B2E001C01D92AE3AB207E1F7B1
:100A400015E0C7E0D5E004C02197FE010E94F63111
:100A5000C630D107C9F70E9471200C9403340C945E
:100A60000000CF93DF93EC0188819981DC01ED9147
:100A7000FC910190F081E02D64E270E0099500970F
:100A800041F02FE1FC01238321E02283DF91CF910C
:100A9000089521E02A83FACFE5EDF2E021E0228BF0
:100AA000138A248B618F728F838F948F158E168E8D
:100AB000178E10A289E086A784E687A712AA83E092
:100AC00080935F03109223038093240310922503E5
:100AD00010922603109227031092280380914A0552
:100AE00090914B05A0914C05B0914D058093290341
:100AF00090932A03A0932B03B0932C0310922D0301
:100B000085E080932E0310922F03109230031092F1
:100B100031031092320380910F0590911005A0913E
:100B20001105B09112058093330390933403A09381
:100B30003503B09336031092370387E08093380370
:100B40001092390310923A0310923B0310923C0327
:100B50008091BC049091BD04A091BE04B091BF04EB
:100B600080933D0390933E03A0933F03B0934003D3
:100B70000895833081F028F4813099F08230A9F013
:100B800008958730A9F08830C9F08430B1F480919D
:100B900080008F7D03C0809180008F7780938000DC
:100BA000089584B58F7784BD089584B58F7DFBCF7C
:100BB0008091B0008F778093B00008958091B0004D
:100BC0008F7DF9CFCF93DF93282F30E0F901E55CDB
:100BD000F74F8491F901E95DF74FD491F901ED5E8A
:100BE000F74FC491CC23A1F081110E94B905EC2FDD
:100BF000F0E0EE0FFF1FE75FF74FA591B491EC9186
:100C0000ED2381E090E009F480E0DF91CF91089539
:100C100080E090E0FACF1F93CF93DF93282F30E04E
:100C2000F901E55CF74F8491F901E95DF74FD49143
:100C3000F901ED5EF74FC491CC23A9F0162F811175
:100C40000E94B905EC2FF0E0EE0FFF1FE150F84FC6
:100C5000A591B4918FB7F894EC91111108C0D0957B
:100C6000DE23DC938FBFDF91CF911F910895DE2BA0
:100C7000F8CFCF93DF9390E0FC01E95DF74F24912B
:100C80008D5E974FFC0184918823D1F090E0880F0E
:100C9000991FFC01EB50F84FA591B491FC01E15074
:100CA000F84FC591D491623071F49FB7F8943C919C
:100CB000822F809583238C93E8812E2B28839FBFDE
:100CC000DF91CF9108958FB7F894EC912E2B2C9350
:100CD0008FBFF6CF3FB7F8948091320290913302E4
:100CE000A0913402B091350226B5A89B05C02F3FD4
:100CF00019F00196A11DB11D3FBFBA2FA92F982F42
:100D00008827BC01CD01620F711D811D911D42E03C
:100D1000660F771F881F991F4A95D1F708958F9204
:100D20009F92AF92BF92CF92DF92EF92FF920E947A
:100D30006A064B015C0184E6C82ED12CE12CF12C13
:100D40000E946A06681979098A099B09683E7340FE
:100D500081059105A8F321E0C21AD108E108F10844
:100D600088EE880E83E0981EA11CB11CC114D1042A
:100D7000E104F10429F7FF90EF90DF90CF90BF904E
:100D8000AF909F908F9008952FB7F89460912E02A6
:100D900070912F0280913002909131022FBF0895FF
:100DA0000F931F93CF93DF93C091D302D091D402BE
:100DB000209781F081E08A830E94C4060885198506
:100DC0002A853B85601B710B820B930B6C837D83A3
:100DD0008E839F83DF91CF911F910F910895089586
:100DE0009091000189130BC0E7E4F3E0E4919FEFD9
:100DF00090930001E13049F028F0E23061F060E0CA
:100E00000C940B0610926E00FACF90916F009D7FAC
:100E100090936F00F4CF909170009D7F909370003D
:100E200091E09093B0009091B100987F946090937E
:100E3000B1001092B300E3CF4F925F926F927F9216
:100E40008F929F92AF92BF92CF92DF92EF92FF92DA
:100E50000F931F93CF93DF9300D000D01F92CDB795
:100E6000DEB78B0129013A01909100018917C9F081
:100E70009F3F09F47EC00F900F900F900F900F903E
:100E8000DF91CF911F910F91FF90EF90DF90CF9066
:100E9000BF90AF909F908F907F906F905F904F909A
:100EA0000895E7E4F3E094919D8397FDE4CF61E03A
:100EB0000E9439068D81882321F09D81923009F0AE
:100EC0004AC14801B12CA12C60E072E18AE790E0B0
:100ED000A50198010E94423029833A834B835C83A9
:100EE00069017A0181E0C81AD108E108F1089FEF91
:100EF000C916D104E104F10409F00CF401C160E465
:100F000072E48FE090E0A50198010E9442306901EF
:100F10007A0181E0C81AD108E108F1089D81923078
:100F200009F0A2C08FEFC816D104E104F10409F062
:100F30000CF4E6C160E970ED83E090E0A501980152
:100F40000E94423069017A0191E0C91AD108E10892
:100F5000F1088FEFC816D104E104F10411F00CF090
:100F60007FC183E09091B100987F892B8093B1007D
:100F7000CFC080930001E7E4F3E094919D839F3F0D
:100F800009F479CF913041F150F0923009F446C024
:100F90009D8197FD70CF61E00E9439068ECF14BC11
:100FA00015BC94B5926094BD95B5916095BD282F00
:100FB00030E0F901ED5EF74FE491F0E0EE0FFF1F36
:100FC000E150F84F45915491F901E95DF74FE491F3
:100FD000E09315021D826BCF109280001092810069
:100FE0009091810098609093810090918100916030
:100FF00090938100282F30E0F901ED5EF74FE491E6
:10100000F0E0EE0FFF1FE150F84F45915491F901C8
:10101000E95DF74FE491E093140249CF1092B000DC
:101020001092B1009091B00092609093B0009091B6
:10103000B10091609093B100282F30E0F901ED5E8E
:10104000F74FE491F0E0EE0FFF1FE150F84F4591AC
:10105000549150931F0240931E02F901E95DF74F2E
:10106000E491E093200223CF9FEFC916D104E1045D
:10107000F10409F00CF46DC068E478EE81E090E0D2
:10108000A50198010E94423069017A0181E0C81AE5
:10109000D108E108F1089D81992309F4FAC08FEF86
:1010A000C816D104E104F10411F00CF0FBC0EFC04C
:1010B00064E274EF80E090E0A50194010E94423068
:1010C00069017A0181E0C81AD108E108F10885E0D8
:1010D0009FEFC916D104E104F10409F008F442CFEE
:1010E00062E17AE780E090E0A50194010E9442303D
:1010F00069017A0181E0C81AD108E108F108E5C068
:1011000081E09D8191112ECF95B5987F892B85BD6A
:101110002FEF3FEFA901411451046104710409F05C
:1011200043C09D81913009F45EC0923009F46DC0D6
:101130009111A1CEC7BC20931A0230931B02409399
:101140001C0250931D0280916E00826080936E009D
:1011500092CE82E0D6CFB12CA12C60E072E18AE77A
:1011600090E0A50198010E94423069017A0181E076
:10117000C81AD108E108F108C114D10491E0E906C8
:10118000F10404F591E08D81813011F680918100A8
:10119000887F892B809381002FEF3FEFA9014114B5
:1011A000510461047104F9F0D801AA0FBB1FA30117
:1011B00092010E94613028EE33E040E050E00E944E
:1011C000AB30AFCF68E478EE81E090E0A501980104
:1011D0000E94423069017A0181E0C81AD108E10811
:1011E000F10893E0D0CFD0928900C092880020937C
:1011F00016023093170240931802509319028091FF
:101200006F00826080936F0036CEC092B30020934F
:1012100021023093220240932302509324028091B2
:10122000700082608093700026CE84E09FEFC91624
:10123000D104E104F10409F008F466CFC980DA8032
:10124000EB80FC808AE0F594E794D794C7948A9564
:10125000D1F781E0C81AD108E108F10885E054CF40
:1012600068E478EE81E090E0A50198010E944230A8
:1012700069017A0181E0C81AD108E108F1089FEFFD
:10128000C916D104E104F10411F00CF011CF84E08F
:1012900069CE83E09FEFC916D104E104F10409F09F
:1012A0000CF432CF62E17AE780E090E0A50194018E
:1012B0000E94423069017A0181E0C81AD108E10830
:1012C000F1089D81992309F4B0CF86E09FEFC916FC
:1012D000D104E104F10409F008F444CEC980DA80B5
:1012E000EB80FC809AE0F594E794D794C7949A95A4
:1012F000D1F781E0C81AD108E108F10887E032CEC1
:1013000082E030CEAF92BF92CF92DF92EF92FF9207
:101310000F931F93CF93DF936C017B018B01040F1D
:10132000151FEB015E01AE18BF08C017D10759F0B9
:101330006991D601ED91FC910190F081E02DC601FB
:101340000995892B79F7C501DF91CF911F910F91F5
:10135000FF90EF90DF90CF90BF90AF900895FC0189
:10136000538D448D252F30E0842F90E0821B930B0A
:10137000541710F0CF96089501970895FC01918DB0
:10138000828D981761F0A28DAE0FBF2FB11D5D96B3
:101390008C91928D9F5F9F73928F90E008958FEF55
:1013A0009FEF0895FC01918D828D981731F0828D09
:1013B000E80FF11D858D90E008958FEF9FEF089560
:1013C000FC01918D228D892F90E0805C9F4F821BC4
:1013D00091098F739927089586E392E00E94E009AE
:1013E00021E0892B09F420E0822F089580E090E02D
:1013F000892B29F00E94EC0981110C9400000895BA
:10140000FC01A48DA80FB92FB11DA35ABF4F2C9179
:10141000848D90E001968F739927848FA689B78970
:101420002C93A089B1898C91837080648C93938D67
:10143000848D981306C00288F389E02D80818F7D0A
:1014400080830895EF92FF920F931F93CF93DF93C2
:10145000EC0181E0888F9B8D8C8D98131AC0E889F0
:10146000F989808185FF15C09FB7F894EE89FF89BF
:101470006083E889F98980818370806480839FBF5D
:1014800081E090E0DF91CF911F910F91FF90EF905D
:101490000895F62E0B8D10E00F5F1F4F0F7311276D
:1014A000E02E8C8D8E110CC00FB607FCFACFE889A8
:1014B000F989808185FFF5CFCE010E94000AF1CF26
:1014C000EB8DEC0FFD2FF11DE35AFF4FF0829FB71C
:1014D000F8940B8FEA89FB8980818062CFCF0F93CC
:1014E0001F93CF93DF938C01D0E0C0E0F801EC0FA5
:1014F000FD1F6491662341F086E392E00E94220A78
:10150000892B11F02196F2CFCE01DF91CF911F915F
:101510000F910895CF93DF93EC01888D8823B9F064
:10152000AA89BB89E889F9898C9185FD03C08081EE
:1015300086FD0DC00FB607FCF7CF8C9185FFF2CF6B
:10154000808185FFEDCFCE010E94000AE9CFDF91B7
:10155000CF910895CF92DF92EF92FF921F93CF9396
:10156000DF93EC016A017B018C810E94E20511E0AE
:10157000892B09F410E08B85181721F0CD8ADE8ABB
:10158000EF8AF88E8D899E89AF89B88DB701A60143
:10159000481B590B6A0B7B0B898D90E0B0E0A0E0F3
:1015A00084179507A607B70798F48C85181781F05C
:1015B0001C878A851817A9F0CA8EDB8EEC8EFD8EEB
:1015C000EAA1FBA1309721F0B701A6018985099511
:1015D0001B87DF91CF911F91FF90EF90DF90CF900D
:1015E0000895CE8EDF8EE8A2F9A2ECA1FDA130977E
:1015F00079F389850995ECCFFC0115821386148651
:10160000158616861786108A118A128A138A148AFA
:10161000158A168A138E8681882311F0848183832C
:1016200008950F931F93CF93DF93EC018E81811167
:1016300003C08D89882301F18C810D851E852F853E
:101640003889401751076207730780F009891A89A2
:101650002B893C89041715072607370738F061E006
:10166000DF91CF911F910F910C940B0660E00E94C7
:101670000B068D8981111D8ADF91CF911F910F91EA
:101680000895CF93DF93EC0161E088810E940B06FF
:1016900081E08C870E94C4066D877E878F87988B38
:1016A000DF91CF910895CF92DF92EF92FF92CF9387
:1016B000DF93EC016A017B0169857A858B859C85C6
:1016C0000E94232F9B01AC0160E070E080E89FE363
:1016D0000E94493120E030E040E05FE30E94842F27
:1016E00020E030E04AE754E40E94842FC98EDA8E6D
:1016F000EB8EFC8E20E030E040E05FE30E94DD30C6
:101700000E94C231C60ED71EE81EF91ECD8EDE8E97
:10171000EF8EF8A28BA191E089278BA3DF91CF9167
:10172000FF90EF90DF90CF900895AF92BF92CF924D
:10173000DF92FF920F931F93CF93DF93EC018E8183
:10174000811104C088A1882309F440C089899A893D
:10175000AB89BC89481759076A077B0708F450C052
:101760000D891E892F89388D04171507260737071D
:1017700008F446C02A8D2223D1F10C8D1D8D2E8DAB
:101780003F8D200F311F2115310511F421E030E08C
:10179000FB8C5A016B01A81AB90ACA0ADB0AC601F6
:1017A000B50150E040E00E94AB3060177107C0F413
:1017B000F1100AC069857A8520E030E0A9018C81AA
:1017C0000E941C0781E08B8F81E0898FDF91CF9190
:1017D0001F910F91FF90DF90CF90BF90AF90089531
:1017E000FF2091F38C810E94F0061B8EEDCF69855E
:1017F0007A8520E030E0A9018C810E941C07E4CFAB
:10180000898D882319F38C810E94F006198E1B8E16
:1018100088A18823D9F218A2D9CF6F3FA9F0E62F6B
:10182000E295EF7044E0E49F90011124DC01ED911A
:10183000FC91E20FF31F6F7082819381B6E06B9F82
:10184000800D911D1124089590E080E00895982F57
:1018500080336CF08A3324F08F3524F08B3724F4F6
:1018600081E0089581341CF081E09B350CF080E02C
:101870000895FC01828581110AC0A781B085CD0140
:101880000196908787838C91818781E0828781850B
:1018900008951F93CF93DF93EC01162F0E94390C0C
:1018A000811306C01A8681E0DF91CF911F910895C0
:1018B00080E0FACF0F931F93CF93DF938C01EB015E
:1018C0008991882369F0C8010E94390C882379F036
:1018D000FE013197908198130DC0F8011286F0CF68
:1018E00090E080E0DF91CF911F910F91089582E009
:1018F00090E0F8CF83E090E0F5CFCF93DF93EC0159
:10190000CE010E94390C8B304CF489305CF4882372
:1019100059F081E08E8390E080E00BC08D3011F0B3
:101920008032B9F71A86ECCF8E81811105C081E033
:1019300090E0DF91CF91089582E090E0FACFDC0152
:1019400052969C915297915084E0989F9001112457
:101950005096ED91FC91E20FF31F22813381211506
:10196000310579F041818081481758F481E0840F76
:10197000818386E0489F200D311D112421153105FA
:1019800021F460E070E08FEF0895B901892F82950E
:10199000807F840F0895DF92EF92FF920F931F9341
:1019A000CF93DF93EC017B01D12C688979898A89F7
:1019B000D816E0F484E0D89E80011124060F171F8A
:1019C000D80112966D917C916115710541F0D70196
:1019D000ED91FC910280F381E02DC7010995F8019A
:1019E0001382128210821182D394DFCF1A8A8FEF72
:1019F0008C8BC617D70761F0D701ED91FC9102805F
:101A0000F381E02DC7010995D98BC88B84E08B8BBE
:101A1000DF91CF911F910F91FF90EF90DF9008958C
:101A20006091010170910201809103019091040184
:101A30000C944C054F925F926F927F928F929F927F
:101A4000AF92BF92CF92DF92EF92FF920F931F93CC
:101A5000CF93DF9300D000D01F92CDB7DEB7DC016B
:101A60002C912B32E1F12D32D9F50196EE24E3943D
:101A7000FC01208130ED320F3A3010F02E3291F51A
:101A80008C0160E070E0CB01F801219130ED832EF4
:101A9000820E39E0381508F444C06A3949E9740700
:101AA000840749E1940708F046C0AAE0B0E09B0132
:101AB000AC010E946130912CB12CA12C2401350184
:101AC00040945094609470944616570668067906C0
:101AD00090F1680D791D8A1D9B1D8F01D5CF019650
:101AE000E12CC6CF198229813A814B815C816D81BD
:101AF00070E080E090E00F900F900F900F900F90AB
:101B0000DF91CF911F910F91FF90EF90DF90CF90D9
:101B1000BF90AF909F908F907F906F905F904F900D
:101B20000895211108C0EE2051F161307105810541
:101B300050E89507A0F0F12CBAE08B2E912CA12C47
:101B4000B12C6115710530E883079105F8F0A50106
:101B500094010E94AB30CA01B901F394F2CF22E0A4
:101B600029839B01AC0188279927DC01821B930BF9
:101B7000A40BB50B8A839B83AC83BD83B4CF23E0D6
:101B800029836A837B838C839D83ADCFF801D80141
:101B90002D918D0130ED320F3A3010F4F394F6CFE1
:101BA0002E3201F58F010F5F1F4FF8010F5F1F4F9E
:101BB0002081A0EDDA2ED20EB9E0BD1598F06C3C74
:101BC000ECEC7E07ECE08E07910578F7AAE0B0E038
:101BD0009B01AC010E9461306D0D711D811D911D35
:101BE000FA94E3CF20812F7D10E000E0253409F046
:101BF00050C021812D32B1F53296CC24C394DF013F
:101C000010E000E02F2D0F2C000C330BEAE0BE2E6D
:101C1000FD01DD9040ED4D0D4A30B0F5B09EA001C4
:101C2000B19E500D11240D2DDD0C110B0053110927
:101C3000040F151FA801420F531F4732510544F3EB
:101C4000CC20B9F080E090E0A0E0B0E8E11003C063
:101C500080E090E0DC0121E029838A839B83AC83D0
:101C6000BD8341CF2B3219F03196C12CC8CF3296AB
:101C7000FCCF80E090E0A0E8BFEFE110ECCF80E087
:101C800090E0A0E8BFE7E7CFCC2019F011950195CF
:101C900011092081211126CF0F0D111DF7FC1A9576
:101CA0000E94232F4CEBA42E40E0B42E10161106F8
:101CB0003CF011950195110954EAA52E50E0B52E7E
:101CC000D12CC12C01151105E9F0F6E0CF16D10495
:101CD000A9F000FF0DC0F601EE0FFF1FEE0FFF1F72
:101CE000EA0DFB1D25913591459154910E94842F59
:101CF000159507952FEFC21AD20AE4CF60E070E085
:101D000080EC9FE7E110905821E029836A837B8370
:101D10008C839D83E8CECF92DF92EF92FF920F9358
:101D20001F93CF93DF937C016B018A01FC01C0817B
:101D3000D1814F3F510509F0B0F4E881F981048069
:101D4000F581E02D4B5F5F4FCE010995009759F06B
:101D5000FC010383DF91CF911F910F91FF90EF90D2
:101D6000DF90CF900895E881F9810280F381E02D22
:101D7000B601CE01099581E0F701828390E080E011
:101D8000E9CF1F93CF93DF93EC01162F6A817B81FC
:101D90006115710589F04C815D81FB018381841798
:101DA000150651F4440F551F4F5F5F4F888199818D
:101DB0000E948B0E9B838A838A819B81009759F0B6
:101DC0002C813D81A9014F5F5F4F5D834C83820F62
:101DD000931FFC011483DF91CF911F9108959F926F
:101DE000AF92BF92CF92DF92EF92FF920F931F9329
:101DF000CF93DF9300D000D01F92CDB7DEB78C0118
:101E00000E94390CD82EF8011286F12CE12C60EFDB
:101E1000C62EC8010E94390CF8011286D81609F4A2
:101E2000B3C0811113C082E090E00F900F900F902B
:101E30000F900F90DF91CF911F910F91FF90EF9036
:101E4000DF90CF90BF90AF909F9008958C3509F0B0
:101E500099C0C8010E94390C882329F3E2E9F1E016
:101E6000853709F083C0F801128654E0952EB12C15
:101E7000A12CC8010E94390C8823A9F2813434F4C2
:101E80008053803130F083E090E0CFCF8F7D875357
:101E9000F8CF44E0AA0CBB1C4A95E1F7A82AF80148
:101EA00012869A949110E5CFC501985D81159440F2
:101EB00020F47501F3E0FF22ACCFC5019C5D8115D4
:101EC0009440A8F483E0B822B701762F6627770FF5
:101ED000770F6A297B2990E080E0019660387105D0
:101EE0008105910540F4C8010E94C10E92CFB50151
:101EF00090E080E0F3CF1982262F2F7320682A8389
:101F000026E096958795779567952A95D1F7603263
:101F1000710580F4606C6B835E01E4E0AE0EB11C71
:101F2000F50162915F01662309F473CFC8010E9435
:101F3000C10EF6CF262F2F7320682B8386E076956F
:101F400067958A95E1F76031710538F4606E6C83AE
:101F50005E01F5E0AF0EB11CE3CF60686C83CD820B
:101F60005E0126E0A20EB11CDBCF32969081992350
:101F700009F489CF8913F9CF8181882309F483CFAC
:101F8000F8011286682FAFCF82819381892B19F4D3
:101F900084E090E04ACF90E080E047CF6F927F925C
:101FA0008F929F92AF92BF92CF92DF92EF92FF9269
:101FB0000F931F93CF93DF93EC012A813B812C5F1A
:101FC0003F4F4C815D814430510588F58901F9010D
:101FD00080E0942FB22FAE2FA21BA91730F4F190FE
:101FE000A1E0F110A0E08A2BF6CF811120C082E0A1
:101FF000EB018C83FB01802F8B1B891728F4E801F0
:1020000089918E018193F7CF640F751FFB011082B8
:10201000DF91CF911F910F91FF90EF90DF90CF90C4
:10202000BF90AF909F908F907F906F9008958B019D
:10203000F901E40FF51F1082888199814C815D813F
:10204000DC011396ED91FC913A01E89477F869016F
:10205000C60CD71C3097C1F0A381A615170481F4D4
:1020600049017F01B4E0EB0EF11C8C149D0429F1B1
:10207000D401AD904D01D701BD907D01AB14A9F302
:102080000190F081E02DE6CF6A817B810E948B0E6A
:10209000FC01A881B98113968D919C91149791832D
:1020A00080831496FC93EE9313971B821A8285E02B
:1020B000E8018C83F983E883ABCF82818F5F8283D1
:1020C000F6CFDB01ED91FC9111970280F381E02DB9
:1020D000BC01CD010994AF92BF92CF92DF92EF92F3
:1020E000FF920F931F93CF93DF93EC018B018C81B1
:1020F00080FF24C0A881B981FB018381948130E0F5
:1021000020E00097D9F0A817B907D1F5F801608150
:10211000718112968C911297815012968C9312971E
:1021200081110CC08D919C9111972115310529F1D8
:10213000F90191838083CD010E9461108C818076AA
:1021400031F1209721F1F8805801F5E1AF0EB11C73
:102150008FEFF816D1F06F2DC5010E940D0C6C01A8
:10216000FC01E580B8010E946B10F801818DF60139
:102170008083F801F18EFE2CEBCF94838383DBCF39
:102180009C01FC0180819181BCCFF882F9821C8284
:10219000DF91CF911F910F91FF90EF90DF90CF9043
:1021A000BF90AF9008950F931F93CF93DF93EC01EF
:1021B000088119818B819C81009749F0FC01208165
:1021C00031813C832B83B8010E946110F3CF688179
:1021D0007981CE010596DF91CF911F910F910C94DB
:1021E000CB0CFC0101900020E9F73197AF01481BAF
:1021F000590BBC0186E392E00C9482098F929F9266
:10220000AF92BF920F931F93CF93DF93CDB7DEB7FB
:10221000A1970FB6F894DEBF0FBECDBF19A2423012
:1022200008F44AE08E010F5D1F4F842E912CB12CD3
:10223000A12CA50194010E94AB30E62FB901CA017F
:10224000EA30F4F4E05DD801EE938D01232B242BCA
:10225000252B79F790E080E0109719F0CD010E94CE
:10226000F110A1960FB6F894DEBF0FBECDBFDF917F
:10227000CF911F910F91BF90AF909F908F90089535
:10228000E95CE1CF4AE00C94FE10CF92DF92EF922E
:10229000FF92CF93DF936C01990FEE08FF08F7FED2
:1022A00019C06DE286E392E00E94220AEC016627E3
:1022B0007727CB016C197D098E099F094AE00E949E
:1022C000FE108C0F9D1FDF91CF91FF90EF90DF905C
:1022D000CF9008954AE0C701B601DF91CF91FF90FA
:1022E000EF90DF90CF900C94FE10CF93DF930E947D
:1022F0006F0AEC0185EA91E00E94F1108C0F9D1F9E
:10230000DF91CF9108950F931F93CF938C01C62F28
:10231000FC01638389E192E00E946F0AF8018081E9
:10232000082E000C990B0E9445118FE092E00E944C
:102330006F0A8DEF91E0CC2311F086E092E00E94CD
:102340006F0A8CE092E0CF911F910F910C94751160
:10235000EF92FF920F931F93CF93DF937C018B013A
:10236000EA0183EE91E00E946F0AC7010E946F0AA2
:1023700087ED91E00E946F0AC8010E946F0A8BEC02
:1023800091E00E946F0ACE010E946F0A88EC91E0F2
:10239000DF91CF911F910F91FF90EF900C947511E9
:1023A000CF93DF936DE786E392E00E94220AEC016F
:1023B00085EA91E00E94F1108C0F9D1FDF91CF9173
:1023C00008954F925F926F927F928F929F92AF92F9
:1023D000BF92EF92FF920F931F93CF93DF932A0147
:1023E0003B0148015901853009F480C008F061C003
:1023F000843009F46FC0E091DB02F091DC021481BB
:10240000C5E9D9E042EBE42E49E0F42E81EF99E0F2
:102410000E946F0AC7010E946F0A88EE99E00E942D
:102420006F0A812F110F990B0E9445118DED99E0D4
:102430000E946F0ACE010E946F0A88EC99E00E9408
:102440006F0A80918D0490918E04A0918F04B091B9
:102450009004A3019201281B390B4A0B5B0BCA01A4
:10246000B9010E94421186EB99E00E946F0A8091A7
:102470008D0490918E04A0918F04B0919004A501D9
:102480009401281B390B4A0B5B0BCA01B9010E944E
:102490004211DF91CF911F910F91FF90EF90BF906C
:1024A000AF909F908F907F906F905F904F900C9423
:1024B000D011863039F1873009F09DCFE091E302E9
:1024C000F091E4021481C9E7D9E08AE9E82E89E0B5
:1024D000F82E9CCFE091DD02F091DE021481C0E97C
:1024E000D9E03CEAE32E39E0F32E90CFE091DF0211
:1024F000F091E0021481C7E8D9E027EAE22E29E052
:10250000F22E84CFE091E102F091E2021481CEE755
:10251000D9E090EAE92E99E0F92E78CFCF92DF92B8
:10252000EF92FF920F931F93CF93DF93EC0188817B
:10253000813009F4D1C06A017B01813090F0823092
:10254000D1F487EE92E00E94FC0A85E093E0DF91EF
:10255000CF911F910F91FF90EF90DF90CF900C944F
:10256000FC0A8981853009F47DC070F48330F1F173
:10257000843009F45AC0DF91CF911F910F91FF90E1
:10258000EF90DF90CF900895863009F488C08730AF
:1025900091F7E091E302F091E402309761F38681D4
:1025A000882349F381A18111E6CF8E819F81A8857F
:1025B000B985C18AD28AE38AF48A8C0D9D1DAE1D2D
:1025C000BF1D858B968BA78BB08F81E082A3CF0137
:1025D0000E94530B0E811F81288539850C0D1D1D0E
:1025E0002E1D3F1DB701A60187E01CC0E091DB0254
:1025F000F091DC02309709F4BECF8681882309F47C
:10260000BACF0E811F8128853985C18AD28AE38A93
:10261000F48A0C0D1D1D2E1D3F1D058B168B278B5F
:10262000308F83E00E94E111A6CFE091DD02F091AE
:10263000DE02309709F49FCF8681882309F49BCF6F
:102640000E811F8128853985C18AD28AE38AF48A5E
:102650000C0D1D1D2E1D3F1D058B168B278B308FDE
:1026600084E0E0CFE091DF02F091E002309709F4DE
:1026700082CF8681882309F47ECF0E811F81288531
:102680003985C586D686E786F08A0C0D1D1D2E1D60
:102690003F1D018B128B238B348B85E0C3CFE091E0
:1026A000E102F091E202309709F465CF8681882338
:1026B00009F461CF0E811F8128853985C586D686AC
:1026C000E786F08A0C0D1D1D2E1D3F1D018B128B00
:1026D000238B348B86E0A6CF8981E091D502F091DF
:1026E000D602882339F0813009F045CFE091D70236
:1026F000F091D802309709F43ECFCE80DF80E88495
:10270000F9844C0D5D1D6E1D7F1D418B528B638BBB
:10271000748B31CF2F923F924F925F926F927F9244
:102720008F929F92AF92BF92CF92DF92EF92FF92E1
:102730000F931F93CF93DF9300D000D0CDB7DEB7B8
:102740002A013B010DE3809F90011124912C890106
:10275000C901815A9C4F9A8389838AE0882E190186
:102760009EE4290E311CE981FA818081981608F0D7
:1027700092C0A92CB12CC801899C800D911D1124F7
:102780008B529D4FFC01E25BFF4F20812330B9F05B
:10279000805B9F4FFC01C080D180E280F380C11438
:1027A000D104E104F10469F4B301A201C101989CD0
:1027B000800D911D11248B529D4F0E948E12939477
:1027C000D2CFC40CD51CE61CF71CEBEAF3E030E0DA
:1027D00020E08081811126C0FFE0F29FC001F39FBD
:1027E000900D1124DC01A356BC4F8A9CF0018B9CF8
:1027F000F00D1124E00FF11FED5DFC4F282D01902D
:102800000D922A95E1F78B529D4FFC01EE52FF4F3E
:10281000C082D182E282F3828A529F4F21E0FC0182
:102820002083CDCF2F5F3F4F3F962031310589F672
:1028300087E099E00E946F0A8A9CC0018B9C900DF2
:102840001124800F911F8B529D4F9C838B83FC0121
:10285000E25BFF4F608170E090E080E04AE00E9420
:10286000FE108CEF98E00E946F0AEB81FC81E15B27
:10287000FF4F608170E090E080E04AE00E94FE102F
:102880008BEE98E00E946F0AC701B6010E944211C8
:102890000E94D01194CF0F900F900F900F90DF9166
:1028A000CF911F910F91FF90EF90DF90CF90BF904D
:1028B000AF909F908F907F906F905F904F903F90E0
:1028C0002F9008950F931F93CF93DF938C01D62FF2
:1028D000C42F8DE293E00E946F0AC8010E946F0A24
:1028E00082E293E00E946F0A88E093E0DD2311F01A
:1028F0008EE093E00E946F0A83E193E00E946F0AEA
:102900008DEF92E0CC2311F083E093E00E946F0AF8
:10291000DF91CF911F910F910C94D0110F931F93C2
:10292000CF938C01C62F83EE92E00E946F0AC801FC
:102930000E946F0A88ED92E00E946F0A8DEC92E08F
:10294000CC2311F083ED92E00E946F0ACF911F918A
:102950000F910C94D011CF92DF92EF92FF920F93D0
:102960001F93CF938C01C62F69017A0183EB92E00C
:102970000E946F0AC8010E946F0A88EA92E00E94D2
:102980006F0A80E992E0CC2311F086E992E00E9480
:102990006F0A8BE992E00E946F0AC701B6010E949C
:1029A0004211CF911F910F91FF90EF90DF90CF9048
:1029B0000C94D0117F928F929F92AF92BF92CF9240
:1029C000DF92EF92FF920F931F93CF93DF93EC016F
:1029D000762E49015A016701780186E792E00E944C
:1029E0006F0ACE010E946F0A8BE692E00E946F0A86
:1029F00085E492E0772011F08BE492E00E946F0A68
:102A00008DE592E00E946F0AC501B4010E94421157
:102A100080E592E00E946F0AC701B6010E94421150
:102A2000DF91CF911F910F91FF90EF90DF90CF90AA
:102A3000BF90AF909F908F907F900C94D011EF92A9
:102A4000FF920F931F93CF937C018B01C42F8EEACB
:102A500091E00E946F0AC7010E946F0A82EA91E02A
:102A60000E946F0AC8010E946F0A87E991E00E94E4
:102A70006F0A8CE891E0CC2311F082E991E00E948A
:102A80006F0ACF911F910F91FF90EF900C94D0118E
:102A9000CF92DF92EF92FF920F931F93CF93DF932A
:102AA0008C01EB0169017A0182E791E00E946F0AD3
:102AB000C8010E946F0A86E691E00E946F0ACE016B
:102AC0000E946F0A8BE591E00E946F0AC701B60170
:102AD0000E944211DF91CF911F910F91FF90EF90D3
:102AE000DF90CF900C94D0110F931F93CF93DF936F
:102AF000C091D502D091D602882321F0C091D7028F
:102B0000D091D802209709F45FC0613009F456C013
:102B100008F451C0623009F454C08DEB98E00E9473
:102B20006F0A6C8170E090E080E04AE00E94FE1045
:102B300082EA98E00E946F0AC8010E946F0A8DE83D
:102B400098E00E946F0A6A8D7B8D8C8D9D8D00911F
:102B50008D0410918E0420918F0430919004601B9D
:102B6000710B820B930B0E9442118BE798E00E943D
:102B70006F0A6E8D7F8D88A199A100918D041091AF
:102B80008E0420918F0430919004601B710B820B96
:102B9000930B0E9442118AE698E00E946F0ACE01D0
:102BA0000D960E94F11087E698E0DF91CF911F917A
:102BB0000F910C94751100E618E0AFCF07E518E00F
:102BC000ACCF0FE418E0A9CFDF91CF911F910F9107
:102BD000089590919504911104C0909196049923C1
:102BE00071F09091970491110AC060919C04882320
:102BF00021F0813021F460919D040C9474150895A6
:102C0000CF93DF93EC016E8381E491E00E946F0A21
:102C10008F819885009711F00E94F11088E391E070
:102C20000E946F0A8C81082E000C990B0E9445119E
:102C30008EE291E00E946F0A8E8181110AC08CE1C0
:102C400091E00E946F0A8BE291E0DF91CF910C94AA
:102C5000751185E291E0F5CF60E0809109019091D6
:102C60000A010E94001660E080910B0190910C0116
:102C70000E94001660E080910D0190910E010E946B
:102C8000001660E080910F01909110010E940016E3
:102C900060E080911101909112010E94001660E0A5
:102CA00080911301909114010E94001660E08091C0
:102CB0001501909116010E940016809117019091C4
:102CC0001801009719F060E00E94001660E0809102
:102CD000190190911A010C9483119F92AF92BF92A7
:102CE000CF92DF92EF92FF920F931F93CF93DF93D8
:102CF0008A01452B09F468C0E9016B016596FC0166
:102D00006081CE010E940D0CFC01BB24BA94892B7A
:102D100009F0B5807601E894F7F8AA24A394670136
:102D2000C00ED11E99249394309709F44DC0AA2067
:102D300009F43FC08481843069F0853049F18230E4
:102D400079F5DF010D900020E9F71197CD018E1B79
:102D50009F0B07C00190F081E02D90E080E030975C
:102D600081F79F77E816F90621F5D801AC15BD0566
:102D7000E1F46B2DCE01DF91CF911F910F91FF9068
:102D8000EF90DF90CF90BF90AF909F900C940D0C80
:102D9000A081B181FD01349613968C9190E0E2CF31
:102DA00090E080E0F0E0E0E0DDCF9D918191981728
:102DB000E9F2A9246B2DCE010E940D0CFC01892B98
:102DC00009F4B2CFB580B0CF90E080E0DF91CF9131
:102DD0001F910F91FF90EF90DF90CF90BF90AF9039
:102DE0009F900895FC0120813181C9014A9642815A
:102DF000538164817581009759F0D9015E96EC91F9
:102E0000E03211F090E080E0009711F00C946D1624
:102E100090E080E00895CF92DF92EF92FF92CF93FF
:102E2000DF9300D000D01F92CDB7DEB70E94F2161C
:102E3000DC01009709F44AC01496EC911497E25013
:102E4000ED3008F043C0F0E0E85DF84E0C94F63148
:102E50005617661754176A173517661766176617D9
:102E6000451766174A1766176E176C9170E090E069
:102E700080E00F900F900F900F900F90DF91CF9107
:102E8000FF90EF90DF90CF9008956D917D918D919F
:102E90009C91EFCF8D919D910D90BC91A02DB7FD90
:102EA00015C0BC01CD01E5CF8D919C910E941A0DFA
:102EB0003A834B835C836D83CA80DB80EC80FD802A
:102EC000223041F1233041F1213061F060E070E0C7
:102ED000CB01CFCF8D919C910496E8CFCD90DD9022
:102EE000ED90FC9020E030E0A901C701B6010E94FE
:102EF000F13187FDEBCF2FEF3FEF4FE75FE4C701E5
:102F0000B6010E941E2F18160CF3C701B6010E94CD
:102F1000C231AFCFF7FCDACFC701B601AACF8F928B
:102F20009F92AF92BF92EF92FF920F931F93CF9316
:102F3000DF9300D000D000D0CDB7DEB779018A0191
:102F4000FB0101900020E9F73197E61BF70B9A830C
:102F500089837C836B83ED838F2F8F778E83CE0164
:102F600001960E94F216009789F1FC0124812A3013
:102F700041F02C3059F580819181A281B381B7FD58
:102F800025C0CE0101960E940B174B015C018114F4
:102F90009104A104B104D1F0B701C80186169706C7
:102FA000A806B90610F4C501B40126960FB6F89428
:102FB000DEBF0FBECDBFDF91CF911F910F91FF906C
:102FC000EF90BF90AF909F908F90089561E070E078
:102FD00080E090E0EACF4F925F926F927F92AF9243
:102FE000BF92CF92DF92EF92FF920F931F93CF93F6
:102FF000DF9390919504911105C0909196049923C7
:1030000009F4E8C0909197049111E4C0823008F06F
:10301000E1C081110AC0E091D502F091D60230974B
:1030200059F481E080939C04D5C0E091D702F091DF
:10303000D802309709F487C09089992309F480C099
:103040000189128923893489041715072607370750
:1030500008F482C0882309F4CCC082E080939D04E8
:10306000B9C08F898F5F8F8B9D89891708F4ADC098
:103070008FA5843658F40E94C62EA30192010E94A7
:1030800042308FA5681710F01F8A9FC01F8A888D55
:10309000882351F09D899501281B31099217130649
:1030A00009F05CF4890F8D8B8B89823008F08DC01C
:1030B000B701A6010E948A1388C087ED90E00E94A4
:1030C0006F0A6D8970E090E080E04AE00E94FE1097
:1030D00084ED90E00E947511E7CFCD8EDE8EEF8EED
:1030E000F8A273C08DA5811170C089A19AA1ABA16E
:1030F000BCA1A7019601281B390B4A0B5B0BDA0117
:10310000C901B7FD62C08DA19EA1AFA1B8A58C1960
:103110009D09AE09BF09181619061A061B060CF000
:1031200054C08FA5843610F00DA7BECF0E94C62EC6
:10313000A30192010E9442308FA56817A8F345C0F1
:10314000882309F46ECF81E089CF10929C04E0912E
:10315000D502F091D60208C08823B9F310929D04DD
:10316000E091D702F091D802309781F0009191045C
:10317000109192042091930430919404040F151F30
:10318000261F371F018B128B238B348B6A017B0127
:10319000182FC5EDD2E0AA24AA94B12C94E6492EAA
:1031A000512C612C712C01E08C89882371F08EA543
:1031B000893011F0181309C08A89813009F48DCF44
:1031C00008F44FCF823009F48DCF6E9633E0C131D1
:1031D000D30751F7DF91CF911F910F91FF90EF909F
:1031E000DF90CF90BF90AF907F906F905F904F90A7
:1031F000089582E017CFBF92CF92DF92EF92FF92B5
:103200000F931F93CF93DF93EC01198D1F3F81F034
:10321000612F45960E940D0CFC018081898F3097AB
:1032200009F477C014828FEF8583BF01812F76C0A8
:103230006C0135E0C30ED11CE880F9808F898823AA
:1032400041F0C6010E949F0CE62FF72F182F3097F0
:1032500049F71F89988D191324C0103109F459C0FA
:10326000110F6D897E89D701ED91FC91B4E01B9F10
:10327000A0011124C616D70609F044C00190F081C0
:10328000E02DBA01C7010995009709F442C020E179
:10329000F601DC0101900D922A95E1F79E8B8D8B52
:1032A000188F0D891E898F8921E0280F2F8BE4E06C
:1032B0008E9FC0011124080F191F90E1B92E2031F3
:1032C00011F48FE0B82EF6E0BF9EB0011124D701B3
:1032D000ED91FC910190F081E02DC7010995F80175
:1032E00093838283892B09F4B12CD801BC92119667
:1032F0001C92012B71F0C6010E949F0CE62FF72F44
:10330000182F8DCF0480F581E02DC7010995009716
:1033100029F681E08A8360E070E08FEFDF91CF9142
:103320001F910F91FF90EF90DF90CF90BF90089585
:103330004F925F926F927F928F929F92AF92BF92C5
:10334000CF92DF92EF92FF920F931F93CF93DF9371
:1033500000D000D01F92CDB7DEB78C017B01B42E18
:103360000E947D0C6C01892B09F048C0C8010E94A5
:10337000390C863609F4A9C124F5873229F08B353A
:1033800061F1823209F0A8C1D80115961C921E92F3
:10339000149712968D919C911397892B39F48D91E6
:1033A0009C910E943105F80193838283C8010E9499
:1033B000EF0E6C01892B11F5B701C8010E94CE0FE9
:1033C0001DC0843709F460C18B3709F47BC08E3689
:1033D00009F082C160EC71E060C180E4D70114960D
:1033E0008C931497E114F10421F08FEF8C931196D4
:1033F0008C93B1101AC025E0C22ED12CC6010F90BB
:103400000F900F900F900F90DF91CF911F910F9120
:10341000FF90EF90DF90CF90BF90AF909F908F90F4
:103420007F906F905F904F900895F8011286C801C9
:103430000E947D0C009751F56DE5C8010E94490C72
:103440008111DCCFBA94D8011B966D907C90C3019A
:103450000E94FB18A82E4B01672B21F494E0C92E83
:10346000D12CCCCFF70161816F3F91F0C30145961C
:103470000E940D0CDC011596AC92F701A1824B2D38
:10348000B401C8010E949819009739F06C01B6CFB9
:10349000D7018C9311968C93F2CFC8010E947D0CBA
:1034A0000097A1F76DE5C8010E94490C8111A6CFD4
:1034B0006CE2C8010E94490C8111C5CF83E0C82E7F
:1034C000D12C9CCF80E2F7018483E114F10419F040
:1034D0008FEF80838183BB2009F48DCFD8011A96AA
:1034E0001C92C8010E947D0C009781F66DE7C8010F
:1034F0000E94490C811182CFBA94F801158214827E
:1035000082819381892B49F4808191810E943105C8
:10351000D80113969C938E931297C8010E94390C80
:103520008732F9F08232E9F0C8010E94390CD82EB6
:103530000E94270C882311F2F80112866D2DC80114
:103540000E94C10EC8010E94390CD82E0E94270C7F
:103550008111F2CFD80112968D919C91892B41F463
:103560007DCFC8010E94EF0E6C01892B09F046CF78
:10357000C8010E947D0C6C01892B09F03FCF6AE3E2
:10358000C8010E94490C882309F498CFD8011296EB
:10359000ED91FC91139714968D919C911597E80FDE
:1035A000F91F148214966D917C9115977F771B9665
:1035B0006D907C901C9712968D919C910496272F6C
:1035C0002F77BA2DB078AB2EA22AE894A7F89301F2
:1035D000AC017A2DC7010E946D166C01009761F550
:1035E000C3010E94FB18482E4B01672B09F436CF0C
:1035F000C3010E94FB18582E962FC92ED72EC11436
:10360000D10409F42BCFF4015582D70111966C91A6
:103610006F3F71F0C30145960E940D0CFC0145827D
:10362000D70111965C92B401C8010E94CE0F07C069
:10363000F70140825182F7CFB3010E946B104B2DEE
:10364000B601C8010E9498196C01892B09F0D6CEE9
:10365000C8010E947D0C6C01892B09F0CFCE6DE76B
:10366000C8010E94490C8111C9CE6CE2C8010E94B8
:10367000490C882309F422CFC8010E947D0C6C01FB
:10368000892B09F43ACFBACE86E0D70114968C93F1
:10369000149781E08C9365EB71E0C8010F900F9057
:1036A0000F900F900F90DF91CF911F910F91FF908E
:1036B000EF90DF90CF90BF90AF909F908F907F90D2
:1036C0006F905F904F900C945A0C86E0F7018483C2
:1036D00010826AEB71E0E1CFC8010E94390C480109
:1036E000FDE08F0E911CB12C782CA92C803384F036
:1036F0008A3384F43FE3B316A9F0D8011A961C92DA
:10370000B394F40181934F01C8010E94390CEECFAC
:103710008B3281F393ED980F923060F3982F9F7D59
:10372000953441F30B0D111DD8011D961C92872D68
:103730009A2D0E941A0D3A834B835C836D838A8194
:103740009B81AC81BD812230A9F0233059F021301A
:1037500009F0B4CE2EE0F701248380839183A28305
:10376000B3834CCE2AE0F701248380839183A28324
:10377000B38344CE2CE0F7CFCB01BA010C942133B4
:10378000CB010C949832CB010C94FC311F920F9218
:103790000FB60F9211242F933F938F939F93AF9364
:1037A000BF9380912E0290912F02A0913002B09190
:1037B000310230912D0223E0230F2D3758F5019669
:1037C000A11DB11D20932D0280932E0290932F02F4
:1037D000A0933002B0933102809132029091330273
:1037E000A0913402B09135020196A11DB11D8093C4
:1037F000320290933302A0933402B0933502BF910A
:10380000AF919F918F913F912F910F900FBE0F908D
:103810001F90189526E8230F0296A11DB11DD2CF47
:103820001F920F920FB60F9211242F933F934F9335
:103830005F936F937F938F939F93AF93BF93EF9318
:10384000FF93E0911D01F0911E010995FF91EF9109
:10385000BF91AF919F918F917F916F915F914F91A8
:103860003F912F910F900FBE0F901F9018951F92B0
:103870000F920FB60F9211242F933F934F935F93A4
:103880006F937F938F939F93AF93BF93EF93FF9328
:10389000E0911B01F0911C010995FF91EF91BF91FF
:1038A000AF919F918F917F916F915F914F913F91D8
:1038B0002F910F900FBE0F901F9018951F920F928F
:1038C0000FB60F9211242F933F934F935F936F93F3
:1038D0007F938F939F93AF93BF93EF93FF938091C9
:1038E000210290912202A0912302B0912402892BFF
:1038F0008A2B8B2BD1F190912002E0911E02F09146
:103900001F02808189278083809121029091220269
:10391000A0912302B0912402181619061A061B065C
:103920009CF48091210290912202A0912302B091F7
:1039300024020197A109B1098093210290932202E8
:10394000A0932302B0932402FF91EF91BF91AF9116
:103950009F918F917F916F915F914F913F912F91A7
:103960000F900FBE0F901F901895809100010E943C
:10397000F006EACF1F920F920FB60F9211242F93E9
:103980003F934F935F936F937F938F939F93AF93E7
:10399000BF93EF93FF9386E392E00E94000AFF91AA
:1039A000EF91BF91AF919F918F917F916F915F91B7
:1039B0004F913F912F910F900FBE0F901F90189530
:1039C0001F920F920FB60F9211242F938F939F93F4
:1039D000EF93FF93E0914602F09147028081E091DE
:1039E0004C02F0914D0282FD1BC0908180914F02EC
:1039F0008F5F8F7320915002821741F0E0914F0248
:103A0000F0E0EA5CFD4F958F80934F02FF91EF91BC
:103A10009F918F912F910F900FBE0F901F9018952F
:103A20008081F4CFEF92FF920F931F93CF93DF9398
:103A3000EC01162F7A01022F6C8382E08D8388EAD5
:103A400091E098878F831E82188219821A821B82C6
:103A500062E0812F0E943906098742E050E0B701F9
:103A6000CE010D960E94F4331F86812F0E94E2053D
:103A700021E0892B09F420E02A87812F0E94E205AA
:103A800021E0892B09F420E02B87812F0E94E20599
:103A900021E0892B09F420E02C87188A198A1A8AD8
:103AA0001B8A1C8A1D8A1E8A1F8A188E84E1898FB0
:103AB0001A8E1B8E1C8E1D8E1E8E1F8E18A219A292
:103AC0001BA21AA21DA21CA2DF91CF911F910F91E0
:103AD000FF90EF9008953F924F925F926F927F9286
:103AE0008F929F92AF92BF92CF92DF92EF92FF920E
:103AF0000F931F93CF93DF931092390210923802E5
:103B000088EE93E0A0E0B0E080933A0290933B020D
:103B1000A0933C02B0933D0284E891E09093370279
:103B20008093360285EC90E09093430280934202AA
:103B300084EC90E0909345028093440280EC90E006
:103B4000909347028093460281EC90E09093490263
:103B50008093480282EC90E090934B0280934A025B
:103B600086EC90E090934D0280934C0210924F02AD
:103B700010925002109251021092520220E045EC35
:103B800051E06AE084E895E00E94121D21E048ECD3
:103B900051E06CE08EE595E00E94121DC0902C0172
:103BA000D0902D01E0902E01F0902F0180902801FF
:103BB00090902901A0902A01B0902B0183E080937E
:103BC000410533243394309242050BEC11E01093FD
:103BD0004505009344051092430510923D0510924F
:103BE0003E0510923F051092400561E00E943906A3
:103BF00060E083E00E940B068092460590924705A4
:103C0000A0924805B0924905C0924A05D0924B0552
:103C1000E0924C05F0924D0544244A94542C320114
:103C200040924E0550924F0560925005709251059A
:103C3000109252051092530510925405109255059A
:103C4000109256051092570510925805C8ECD0E016
:103C5000D0935A05C0935905D0935C05C0935B057A
:103C600010925D0587E08093200530922105109326
:103C70002405009323051092220510921C05109232
:103C80001D0510921E0510921F0561E00E94390665
:103C900060E087E00E940B06809225059092260541
:103CA000A0922705B0922805C0922905D0922A0536
:103CB000E0922B05F0922C0540922D0550922E0596
:103CC00060922F05709230051092310510923205E6
:103CD0001092330510923405109235051092360576
:103CE00010923705D0933905C0933805D0933B0522
:103CF000C0933A0510923C05C0902401D090250154
:103D0000E0902601F090270184E080930A0530922C
:103D10000B05CFECD1E0D0930E05C0930D051092AA
:103D20000C051092060510920705109208051092D6
:103D3000090561E00E94390660E084E00E940B06FC
:103D4000C0920F05D0921005E0921105F092120575
:103D50001092130510921405109215051092160575
:103D600010921705109218051092190510921A0555
:103D700010921B0588E08093F4043092F504D093F0
:103D8000F804C093F7041092F6041092F004109215
:103D9000F1041092F2041092F30461E00E943906DB
:103DA00060E088E00E940B06C092F904D092FA0409
:103DB000E092FB04F092FC041092FD041092FE04C9
:103DC0001092FF0410920005109201051092020556
:103DD00010920305109204051092050585E080936A
:103DE000D90482E08093DA0484ED91E09093DD04BD
:103DF0008093DC041092DB041092D5041092D60458
:103E00001092D7041092D80462E085E00E9439062F
:103E100085E00E94E20521E0892B09F420E020934F
:103E2000DE0485E00E94E20521E0892B09F420E010
:103E30002093DF0485E00E94E20521E0892B09F44C
:103E400020E02093E0041092E1041092E20410922A
:103E5000E3041092E40484E18093E5041092E60404
:103E60001092E7041092E8041092E9041092EA0418
:103E70001092EB041092EC041092ED041092EF04F7
:103E80001092EE048090200190902101A0902201D8
:103E9000B0902301C0901F01D12CF12CE12C86E0C1
:103EA0008093B30481E08093B40481EE91E0909319
:103EB000B7048093B6041092B5041092AF04109228
:103EC000B0041092B1041092B20461E086E00E9446
:103ED000390660E086E00E940B06C092B804D092DA
:103EE000B904E092BA04F092BB048092BC049092B0
:103EF000BD04A092BE04B092BF041092C004109200
:103F0000C1041092C2041092C3041092C40410920F
:103F1000C5041092C6041092C7041092C8041092EF
:103F2000C9041092CA041092CB041092CC041092CF
:103F3000CD041092CE041092CF041092D0041092AF
:103F4000D1041092D2041092D3041092D40489E0C8
:103F500080939E0482E080939F0461E089E00E9448
:103F6000390662E080919F040E94390680919F0487
:103F7000823009F4A9C0833061F480ED96E090931B
:103F80001E0180931D01809169008C6080936900FF
:103F9000E99A1092A0041092A1041092A204109227
:103FA000A3041092A4041092A5041092A6041092E7
:103FB000A7041092A8041092A9041092AA041092C7
:103FC000AB041092AC041092AD041092AE048EE9D2
:103FD00094E09093D4028093D3028CE3EAE3F1E07F
:103FE000A7EEB2E001900D928A95E1F71092D60209
:103FF0001092D5021092D8021092D7021092DA02D3
:104000001092D9021092DC021092DB021092DE02B2
:104010001092DD021092E0021092DF021092E20292
:104020001092E1021092E4021092E3021092E60272
:104030001092E50210928D0410928E0410928F045B
:104040001092900480E29EE4A0E0B0E0809391049E
:1040500090939204A0939304B093940410929504C7
:10406000109296041092970410929804109299045A
:1040700010929A0410929B0481E080939C04809398
:104080009D041092E9021092070310925F031092B0
:104090009C03EBEAF3E08BE994E010823F968E17E5
:1040A0009F07D9F7DF91CF911F910F91FF90EF906C
:1040B000DF90CF90BF90AF909F908F907F906F9048
:1040C0005F904F903F90089580ED96E090931C0193
:1040D00080931B0180916900836080936900E89A56
:1040E00058CFCF93DF93CDB7DEB7C65FD1090FB6F8
:1040F000F894DEBF0FBECDBF789484B5826084BDD6
:1041000084B5816084BD85B5826085BD85B58160DB
:1041100085BD80916E00816080936E001092810059
:104120008091810082608093810080918100816014
:1041300080938100809180008160809380008091D5
:10414000B10084608093B1008091B0008160809361
:10415000B00080917A00846080937A0080917A0028
:10416000826080937A0080917A00816080937A00E7
:1041700080917A00806880937A001092C1000E943A
:104180008F06E0914602F091470282E08083E09141
:104190004202F09143021082E0914402F091450204
:1041A00080E1808310924E02E0914A02F0914B022E
:1041B00086E08083E0914802F0914902808180612D
:1041C0008083E0914802F091490280818860808379
:1041D000E0914802F0914902808180688083E091FB
:1041E0004802F091490280818F7D808384E690E0CF
:1041F000A0E0B0E080933A0290933B02A0933C028F
:10420000B0933D020E948F0686E392E00E94E0098F
:10421000892B29F086E392E00E94BE09F5CF80E465
:1042200080937C0080917A00806480937A008091F2
:104230007A0086FDFCCF8090780090907900092C60
:10424000000CAA08BB080E946A068B019C01C501EC
:10425000B401602771278227932780169106A20652
:10426000B30611F00E94152F04EF11E024E630E0B0
:1042700040E050E0B801809141050E941C070E9477
:104280008F06809141050E94F0060C501E4F003DA4
:1042900027E0120759F784E895E09093D6028093BF
:1042A000D5028EE595E09093D8028093D70285EDF4
:1042B00094E09093DA028093D9028DE395E0909395
:1042C000DC028093DB028CE195E09093DE02809328
:1042D000DD0286E095E09093E0028093DF0280EFBC
:1042E00094E09093E2028093E1028FEA94E090934D
:1042F000E4028093E3028EE994E09093E6028093D7
:10430000E5022BEE37E13093A7052093A60589EE51
:1043100095E19093A9058093A8053093810520939A
:104320008005909383058093820581E080939405B6
:1043300010926E05109291041092920410929304C0
:104340001092940490915F03E3E2F3E080E098130D
:104350000DC090919C03E0E6F3E080E08917B1F096
:104360002081213071F08F5F3A96F8CF2081213083
:1043700019F08F5F3A96EBCF16821782108611865E
:10438000F8CF1682178210861186EDCF6091010159
:104390007091020180910301909104010E944C05EB
:1043A00087E996E00E94751188E199E20FB6F894CA
:1043B000A895809360000FBE909360006E013EEC64
:1043C000C30ED11CA6014B5F5F4FCB50DF4F59830B
:1043D0004883C55FD040C6010596CD50DF4F998315
:1043E0008883C35FD04016019AE1290E311CA8953D
:1043F0000E94C4064B015C0180918A05882331F03C
:10440000B501A40184E895E00E94AA0A80916405A0
:10441000882331F0B501A4018EE595E00E94AA0A37
:104420008091DB04882309F44BC08091D9040E9459
:10443000E20511E0892B09F410E08091DF041817E0
:1044400041F08092E1049092E204A092E304B092E1
:10445000E4048091E1049091E204A091E304B0911E
:10446000E404B501A401481B590B6A0B7B0B809136
:10447000E50490E0B0E0A0E084179507A607B70731
:10448000E8F48091E0041817C9F01093E0048091DB
:10449000DE04181709F4D3C18092E6049092E70471
:1044A000A092E804B092E904E091EE04F091EF04E8
:1044B000309721F0B501A40182E009951093DF0443
:1044C00080919704811134C005ED12E0F8018489D0
:1044D000882339F08289813009F407C2823009F4D7
:1044E0003BC2025E1F4F21E133E02017310771F715
:1044F0000DE913E0F80186858823A1F08285938574
:10450000A485B585A5019401281B390B4A0B5B0BCB
:10451000DA01C901B7FD06C01686B501A401C801BC
:104520000E948E12015F1F4F34E00D38130711F700
:104530008091DB029091DC02009721F0B501A4018B
:104540000E94950B8091DD029091DE02009721F090
:10455000B501A4010E94950B8091DF029091E002C9
:10456000009721F0B501A4010E94110B8091E10296
:104570009091E202009721F0B501A4010E94110B75
:104580000091E3021091E4020115110509F496C0AF
:10459000F8018681811104C084A1882309F454C2E2
:1045A000F80191A1913009F062C084A181115FC02E
:1045B00085A1882309F45BC0458956896789708D78
:1045C00084169506A606B70608F451C0818A928A19
:1045D000A38AB48A4585568567857089480D591D1B
:1045E0006A1D7B1D458B568B678B708F82A1892737
:1045F00082A3882309F446C080819181A281B3817E
:10460000892B8A2B8B2BF1F185ED93E00E946F0AA9
:10461000F8018481082E000C990B0E94451182EB51
:1046200093E00E946F0AF8016189728983899489F5
:1046300040805180628073806419750986099709EA
:104640000E94421180EA93E00E946F0AF801658996
:1046500076898789908D408051806280738064194B
:104660007509860997090E9442110E94D011F8012C
:1046700081899289A389B48988169906AA06BB06FE
:1046800008F4BDC1F80185899689A789B08D881580
:104690009905AA05BB0508F4B2C182A1882309F4D3
:1046A000AEC181859285A385B4850197A105B10529
:1046B00009F08AC161E084810E940B068091A10407
:1046C000882329F18091A004882309F1F89410929D
:1046D000A0044090A2045090A3046090A4047090A1
:1046E000A50478948EE194E00E946F0A80919F0463
:1046F000082E000C990B0E9445118CEF93E00E944C
:104700006F0AC301B2010E9442110E94D011809130
:10471000AA048823C9F08091AB049091AC04A091C5
:10472000AD04B091AE04881A990AAA0ABB0AF2E352
:104730008F169104A104B10438F060E080919E04CA
:104740000E940B061092AA0486E392E00E94E00900
:10475000181619060CF05BC627E031E0F60131832C
:104760002083128214821382CD50DF4F48815981F9
:10477000C35FD040568B458B178A84E0808F8FEFC4
:10478000818F168E878FCE0101965C0110E000E0CC
:104790000E94C40660933E0270933F0280934002E1
:1047A0009093410286E392E00E94BE0997FD02C009
:1047B0000C94692E0E94C40640903E0250903F0225
:1047C000609040027090410264197509860997094A
:1047D00040903A0250903B0260903C0270903D0243
:1047E0006415750586059705E8F20F37110561F424
:1047F00086E392E00E94E009892B31F086E392E0A3
:104800000E94BE090A97A1F7E1E0F0E0EC0FFD1F5E
:10481000E00FF11F10820530110508F420C145E0BA
:1048200050E067EE71E0CE0101960E94DE33892BE5
:1048300009F015C187E996E00E947511E5C58092DF
:10484000EA049092EB04A092EC04B092ED0486E8A6
:1048500093E00E946F0A8091DC049091DD04009740
:1048600011F00E94F1108DE793E00E946F0A809191
:10487000D904082E000C990B0E9445118AE593E09B
:104880000E946F0A6091E6047091E7048091E80449
:104890009091E9044090D5045090D6046090D704DC
:1048A0007090D80464197509860997090E9442110D
:1048B00088E493E00E946F0A6091EA047091EB042F
:1048C0008091EC049091ED044090D5045090D60472
:1048D0006090D7047090D804641975098609970907
:1048E0000E9442110E94D011E9CD858D968DA78D31
:1048F000B0A10097A105B10509F4F3CDB501A4015C
:10490000481B590B6A0B7B0B818D928DA38DB48D47
:10491000481759076A077B0708F4E3CD858E968E02
:10492000A78EB0A287A5843668F40E94C62E24E61E
:1049300030E040E050E00E944230F80187A568175F
:1049400008F0CFCDF8018389823008F0CACDB501D7
:10495000A4010E948A13C5CD85A196A1A7A1B0A5E7
:104960000097A105B10509F4BCCD88169906AA06E1
:10497000BB0608F4B6CD41A452A463A474A460E0BD
:1049800070E0CB01141415041604170434F40E94CB
:10499000C62EA30192010E944230680D791D8A1D26
:1049A0009B1DF80161A372A383A394A381A592A583
:1049B000A3A5B4A5880D991DAA1DBB1D85A396A30B
:1049C000A7A3B0A715A68DCD858D968DA78DB0A177
:1049D00088169906AA06BB0628F0B501A401C801ED
:1049E0000E94530BF801848193A1992311F061E097
:1049F00063CE60E00E940B06F80113A25FCE60E078
:104A0000F80184810E940B06F80113A282A1882379
:104A100051F085899689A789B08D88159905AA05D1
:104A2000BB0508F412A2F80184A1882309F446CE3C
:104A300085899689A789B08D88159905AA05BB0532
:104A400008F03CCE14A23ACE818A928AA38AB48A14
:104A5000858A968AA78AB08E60E08481CBCFF601E2
:104A600060817181CB50DF4F88819981C55FD040D3
:104A70000E94CB0CF601128200811181F601838124
:104A80009481009751F0FC0120813181F60134833B
:104A90002383B8010E946110F1CF168ECF57DF4FEC
:104AA000D982C882C158D040CD57DF4F19821882B1
:104AB000C358D040CB57DF4F19821882C558D04019
:104AC000C957DF4F1882C758D04021E030E02C0F83
:104AD0003D1FC857DF4F39832883C858D040C5577A
:104AE000DF4F1882CB58D040C457DF4FD982C882DD
:104AF000CC58D0404AE0B101CE018F579F4F0E9461
:104B000098198C01892B69F4C657DF4F8881CA58E0
:104B1000D040882331F0F601868D83FF02C003E088
:104B200010E0CD57DF4F88819981C358D04000975E
:104B300051F0CF57DF4FE881F981C158D0406081F3
:104B400071810E94611001151105F1F08DED97E062
:104B50000E946F0AF801EE0FFF1FE557F94F85918C
:104B600094910E946F0A8AED97E00E94751186E386
:104B700092E00E94E009181619060CF045C486E37D
:104B800092E00E94BE09F3CFCF57DF4FD982C8828F
:104B9000C158D0408DEE91E0CD57DF4F9983888387
:104BA000C358D04083E0CB57DF4F8883C558D040EF
:104BB000CA57DF4F1881C658D04010781068CA57BE
:104BC000DF4F1883C658D040CE018F579F4F0E94A9
:104BD000F216009709F418C4FC018481882309F4B3
:104BE00013C41068CA57DF4F1883C658D040CE018F
:104BF0008F579F4F0E94F216DC01009709F4D3C132
:104C00001496EC911497E250ED3008F0CCC1F0E02E
:104C1000E45FF94D0C94F631D827D327D627022824
:104C2000D327D327D327D3271926D327C327D3277F
:104C300006288D919D910D90BC91A02D8115F0E8D5
:104C40009F07A105B10508F0AEC1BC016D3991E027
:104C5000790709F4EDC40CF064C26437F1E07F0712
:104C600009F4E5C30CF018C2663331E0730709F4A8
:104C70004BC40CF0FCC16D3251E0750709F474C3EC
:104C80006F3281E0780709F41BC46C3291E0790738
:104C900009F472C3683EF3E07F0709F476C60CF0AE
:104CA000CDC56636710509F43BC70CF085C5643681
:104CB000710509F4CDC66536710509F074C10E940D
:104CC000C4064B015C018092290290922A02A092B4
:104CD0002B02B0922C028EE994E00E94410B1092BC
:104CE00096041092970480928D0490928E04A09264
:104CF0008F04B092900481E08093950487EE92E057
:104D00000E94FC0A85E093E00E94FC0A05ED12E097
:104D1000F8018489882341F08289813009F069C6CD
:104D2000858E968EA78EB0A2025E1F4FF3E00131F2
:104D30001F0771F7EBEAF3E010823F9624E0EB39AE
:104D4000F207D1F7E091D502F091D602309721F029
:104D5000118A128A138A148AE091D702F091D8023C
:104D6000309721F0118A128A138A148AE091E302A3
:104D7000F091E4023097A9F0118A128A138A148AFA
:104D8000158A168A178A108E118E128E138E148E23
:104D9000158E168E178E10A212A213A214A281E0F5
:104DA00085A38FE395E00E94751183EF94E00E9444
:104DB0006F0A80910501909106018458954009F091
:104DC00044C68DE894E00E946F0A80EF94E00E9450
:104DD0007511E0902C01F0902D0100912E011091A1
:104DE0002F01209128013091290140912A015091F1
:104DF0002B01609143058CEE94E00E94DA14E09060
:104E00002905F0902A0500912B0510912C05209181
:104E10002505309126054091270550912805609180
:104E2000220587EE94E00E94DA142091240130914B
:104E30002501409126015091270160910C0582EED9
:104E400094E00E94AB142091F9043091FA0440914F
:104E5000FB045091FC046091F6048CED94E00E94F8
:104E6000AB14E0902001F0902101009122011091FB
:104E7000230120911F0130E050E040E06091B50433
:104E800086ED94E00E94DA146091DB0481ED94E0F9
:104E90000E948E146091A10486EC94E00E948E140E
:104EA0004091940560918A058DEB94E00E94621414
:104EB00040916E056091640584EB94E00E94621459
:104EC00080E994E00E946F0A6091010170910201F3
:104ED00080910301909104010E9442110E94D0111F
:104EE0008091290290912A02A0912B02B0912C026C
:104EF000E0910901F0910A0180839183A283B38339
:104F0000E0910B01F0910C0180839183A283B38324
:104F1000E0910D01F0910E0180839183A283B38310
:104F2000E0910F01F091100180839183A283B383FC
:104F3000E0911101F091120180839183A283B383E8
:104F4000E0911301F091140180839183A283B383D4
:104F5000E0911501F091160180839183A283B383C0
:104F6000E0911701F0911801309721F0808391832F
:104F7000A283B383E0911901F0911A018087918790
:104F8000A287B38741C28D919D910D90BC91A02DB8
:104F90008C019D0110582F4F3F4F011511052140E5
:104FA000310508F452CE81E197E046CC8D919C9179
:104FB0000E941A0DC251DF4F2883CE5ED040C151EE
:104FC000DF4F3883CF5ED040C051DF4F4883C05F92
:104FD000D040CF50DF4F5883C15FD040CE50DF4F1D
:104FE0006883C25FD040C151DF4F88809980AA801A
:104FF000BB80CF5ED040223039F1233089F121309F
:1050000091F608C08D919C910496D2CF8D909D9081
:10501000AD90BC9020E030E040E057ECC501B40119
:105020000E94F13187FDBFCF20E03EEF4FEF56E405
:10503000C501B4010E941E2F18160CF4B4CFC5018F
:10504000B4010E94BB3102CED501C4019058AF4FCC
:10505000BF4F0097A140B10508F0A5CFB401F6CD30
:10506000811480E89806A104B104C0F39CCF693391
:10507000E1E07E0709F47CC26337F1E07F0709F4C1
:105080007DC1673321E0720709F004CE61E08091B1
:105090000F01909110016DC1603931E0730709F47F
:1050A00089C2F4F46D3751E0750709F42FC26E37E9
:1050B00081E0780709F444C2653791E0790709F087
:1050C000E9CD6F3932E0730709F4DAC0603A42E0A3
:1050D000740709F42AC3683D714009F095C157C0AF
:1050E0006339E1E07E0709F467C25CF4613921E0CD
:1050F000720709F0CFCD61E080911101909112010A
:1051000038C16A3931E0730709F478C26B3941E07C
:10511000740709F0BFCD61E08091130190911401F3
:1051200028C16B3552E0750709F4B8C20CF072C0A3
:10513000643F91E0790709F49DC20CF056C0693DC7
:10514000F1E07F0709F4BDCF623E21E0720709F468
:1051500057C2683D31E0730709F09CCD20EC37E27F
:1051600049E050E06BEF71E0C6010E948F179B0190
:10517000AC01E0911101F091120121873287438740
:10518000548766E276E08FE296E00E944815CF579A
:10519000DF4FD982C882C158D0408BEF91E0CD5704
:1051A000DF4F99838883C358D04088E0CB57DF4FC7
:1051B0008883C558D040CA57DF4F8881C658D04031
:1051C00080788068CA57DF4F8883C658D040CE01A8
:1051D0008F579F4F0E940B176093240170932501F6
:1051E000809326019093270168C1683542E07407D7
:1051F00009F44BC2693552E0750709F43DC2653FB9
:1052000081E0780709F046CD61E080911501909129
:105210001601AFC0693A92E0790709F4B4C20CF004
:1052200071C0603AF2E07F0709F464C2613A22E09B
:10523000720709F446CF6F3932E0730709F02ACDBF
:105240002FEF3FEF40E050E061EF71E0C6010E94B8
:105250008F179B01AC01E0911701F0911801309775
:1052600079F0211531054105510521F0218732875B
:105270004387548765ED75E08FED95E00E944815F2
:10528000CF57DF4FD982C882C158D04081EF91E01B
:10529000CD57DF4F99838883C358D04089E0CB57DF
:1052A000DF4F8883C558D040CA57DF4F8881C65822
:1052B000D04080788068CA57DF4F8883C658D04076
:1052C000CE018F579F4F0E94F216DC01009709F420
:1052D000EEC21496EC911497E250ED3008F0E7C25C
:1052E000F0E0EB58F64D0C94F631672C572C652CFA
:1052F000912C482C572C572C572C4C2C572C592C74
:10530000572C952C643843E0740709F453C2ACF46D
:105310006A3A82E0780709F0BDCCE0911701F0917C
:105320001801309709F470C081E081A349E955E084
:1053300065EA75E08AEA95E0E4C0653893E07907AC
:1053400009F430C26738E3E07E0709F0A3CC80910E
:10535000190190911A010E94410B43E855E069E858
:1053600075E08EE895E0CDC061E080910D019091EF
:105370000E010E94001648C060E0F7CF2FEF3FEF0C
:1053800040E050E061EF71E0C6010E948F179B0181
:10539000AC01E0910D01F0910E0121873287438726
:1053A00054876DE776E087E896E00E944815CF576E
:1053B000DF4FD982C882C158D04081EF91E0CD57EC
:1053C000DF4F99838883C358D04089E0CB57DF4FA4
:1053D0008883C558D040CA57DF4F8881C658D0400F
:1053E00080788068CA57DF4F8883C658D040CE0186
:1053F0008F579F4F0E940B176093280170932901CC
:1054000080932A0190932B01C6010E94D31080E063
:1054100090E0892B11F40C94F7210E94EC09882369
:1054200011F40C94EB210E9400000C94EB2120EC71
:1054300037E249E050E06BEF71E0C6010E948F1740
:105440009B01AC01E0910D01F0910E01258736879B
:105450004787508B60E776E089E796E00E94481521
:10546000CF57DF4FD982C882C158D0408BEF91E02F
:10547000CD57DF4F99838883C358D04088E0CB57FE
:10548000DF4F8883C558D040CA57DF4F8881C65840
:10549000D04080788068CA57DF4F8883C658D04094
:1054A000CE018F579F4F0E940B1760932C01709372
:1054B0002D0180932E0190932F010E94100DA4CFF7
:1054C00000910D0110910E010E94C406F801618B3C
:1054D000728B838B948B85849684A784B088DC013F
:1054E000CB01880D991DAA1DBB1D858B968BA78BA3
:1054F000B08F81E080A341E656E067E676E08CE677
:1055000096E00E94A81180CF60E0C1CD2FEF3FEF61
:1055100040E050E061EF71E0C6010E948F179B01EF
:10552000AC01E0910F01F091100121873287438790
:10553000548762E576E08CE596E00E94481564CFDA
:1055400020EC37E249E050E06BEF71E0C6010E94C9
:105550008F179B01AC01E0910F01F091100125879D
:1055600036874787508B64E476E08DE496E0E5CF9C
:1055700000910F01109110010E94C406F801618B87
:10558000728B838B948B85849684A784B088DC018E
:10559000CB01880D991DAA1DBB1D858B968BA78BF2
:1055A000B08F81E080A344E356E06AE376E08FE3C6
:1055B00096E0A7CF60E0A0CD0091110110911201FB
:1055C0000E94C406F801658776878787908B81845F
:1055D0009284A384B484DC01CB01880D991DAA1D9B
:1055E000BB1D818B928BA38BB48B81E0858B46E1B5
:1055F00056E06CE176E081E296E083CF60E08CCD0E
:1056000020EC37E249E050E06BEF71E0C6010E9408
:105610008F179B01AC01E0911301F09114012187D8
:1056200032874387548767E076E080E196E085CF54
:1056300000911301109114010E94C406F8016587BE
:1056400076878787908B81849284A384B484DC01DD
:10565000CB01880D991DAA1DBB1D818B928BA38B3D
:10566000B48B81E0858B46EF55E06CEF75E081E00F
:1056700096E047CF60E0C9CD809117019091180165
:1056800061E0009709F075CEBFCE8091170190912F
:10569000180160E0009709F06CCEB6CE00911701BA
:1056A000109118010115110509F4AECE0E94C4062F
:1056B000AB01BC01F801418B528B638B748B8585E8
:1056C0009685A785B089840F951FA61FB71F858B68
:1056D000968BA78BB08FBB24B394B2A2C8010E9453
:1056E000530BF801B4A245EE55E06BEE75E080EF88
:1056F00095E007CF20EC37E249E050E06BEF71E036
:10570000C6010E948F179B01AC01E0911701F09137
:105710001801309751F0258736874787508B66EC04
:1057200075E08FEC95E00E944815CF57DF4FD98286
:10573000C882C158D0408BEF91E0CD57DF4F99839D
:105740008883C358D04088E0CB57DF4F8883C55843
:10575000D040CA57DF4F8881C658D04080788068D3
:10576000CA57DF4F8883C658D040CE018F579F4F0E
:105770000E940B17609320017093210180932201F6
:10578000909323019ACEE0911701F0911801309780
:1057900009F43ACE11A240EB55E06BEB75E080ECDA
:1057A00095E0AFCE61E08091190190911A010E94BD
:1057B00083112ACE60E0F7CF6836710509F4DCC1A9
:1057C0000CF4B7C16B3C710509F0EDCBCF57DF4F3F
:1057D000D982C882C158D04084E092E0CD57DF4FD3
:1057E00099838883C358D04088E0CB57DF4F8883A4
:1057F000C558D040CA57DF4F8881C658D0408078FE
:105800008068CA57DF4F8883C658D040CE018F5773
:105810009F4F0E940B174B015C01809201019092F7
:105820000201A0920301B09204010E94100DA50193
:1058300094016DE677E08FE797E07FCE643135E045
:10584000730709F4BDC094F4683354E0750709F494
:10585000AFC0693384E0780709F499C0693E7340AA
:1058600009F0A1CB61E084E895E083CD6436E5E002
:105870007E0709F4B6C06536F5E07F0709F4A2C0DB
:105880006531754009F08FCB61E08EE595E071CD13
:105890008C9080921F01B8CD8D909D90AD90BC9062
:1058A0008FEF88169104A104B10499F390F3812C31
:1058B000F0CF8D909D90AD90BC909FEF8916910494
:1058C000A104B10431F328F3F2CF8D919C910E9491
:1058D0001A0DC251DF4F2883CE5ED040C151DF4F39
:1058E0003883CF5ED040C051DF4F4883C05FD04087
:1058F000CF50DF4F5883C15FD040CE50DF4F688319
:10590000C25FD040C151DF4F88809980AA80BB80A0
:10591000CF5ED040223039F1233071F1213039F699
:1059200008C08D919C910496D2CF8D909D90AD90A2
:10593000BC9020E030E0A901C501B4010E94F13122
:1059400087FDB5CF20E030E04FE753E4C501B40157
:105950000E941E2F18160CF4AACFC501B4010E9494
:10596000C231862E96CFEFEF8E169104A104B104BA
:1059700009F008F48ECF9BCFFFEF8F169104A1049E
:10598000B10409F008F485CF92CF60E06CCF81E0DC
:105990008093940584E895E0909306018093050137
:1059A00041E066EC77E081ED97E00E941F152CCD79
:1059B0001092940540E062EB77E08DEB97E0F5CF35
:1059C00060E063CF81E080936E058EE595E0909373
:1059D00006018093050141E06EE977E089EA97E0EE
:1059E000E4CF10926E0540E06AE877E085E997E041
:1059F000DCCF823009F098C941A452A463A474A4F6
:105A000060E070E0CB01141415041604170434F49C
:105A10000E94C62EA30192010E944230680D791D9A
:105A20008A1D9B1DF80161A372A383A394A381A582
:105A300092A5A3A5B4A5880D991DAA1DBB1D85A37C
:105A400096A3A7A3B0A715A66FC98AE894E0BBC91F
:105A50000E94C4064B015C018092250290922602AE
:105A6000A0922702B09228028EE994E00E94410B96
:105A70001092950410929704EBEAF3E010823F969F
:105A800044E0EB39F407D1F7E091DB02F091DC025E
:105A9000309719F084810E94F006E091DD02F091C8
:105AA000DE02309719F084810E94F006E091DF0257
:105AB000F091E002309721F060E084810E940B06B3
:105AC000E091E102F091E202309721F060E0848100
:105AD0000E940B06E091E302F091E402309729F076
