:100000000C9445060C94142C0C94ED2B0C946D065A
:100010000C946D060C946D060C946D060C943B2CA0
:100020000C946D060C946D060C946D060C946D0684
:100030000C946D060C946D060C946D060C946D0674
:100040000C94A32B0C946D060C94BD2C0C94972C43
:100050000C946D060C946D060C946D060C946D0654
:100060000C946D060C946D06546F6F4465657000BA
:100070004E6F4D656D6F727900496E76616C696483
:10008000496E70757400496E636F6D706C65746550
:10009000496E70757400456D707479496E70757431
:1000A000004F6B00CDCCCC3D0AD7233C17B7D138DD
:1000B00077CC2B329595E6241FB14F0A00002041E2
:1000C0000000C84200401C4620BCBE4CCA1B0E5A51
:1000D000AEC59D747B226C6576656C223A22303009
:1000E00037222C22646576696365223A22434F4E9B
:1000F00054524F4C4C4552222C226576656E742228
:100100003A22454E44222C2274696D657374616DE8
:1001100070223A0066616C73650074727565004CFC
:10012000455645525F4C48004C455645525F524833
:10013000004D4943524F53434F5045004C49434BA8
:100140000050554D50320050554D500043554532EA
:1001500000435545002C226974695F6D6178223A2D
:10016000002C226974695F6D696E223A002C226945
:1001700074695F6D65616E223A002C22636F6E7345
:10018000756D7074696F6E5F6D73223A002C227406
:10019000726163655F696E74657276616C223A00A4
:1001A0002C226375655F6475726174696F6E223AA3
:1001B000002C2263735F6D696E75735F6672657183
:1001C000223A007B226C6576656C223A2230303010
:1001D000222C2263735F706C75735F667265712287
:1001E0003A002C22636F756E74657262616C616E89
:1001F0006365223A002C2263735F6D696E75735FCD
:1002000070726F62223A002C2263735F706C757398
:100210005F70726F62223A002C2263735F6D696EA9
:1002200075735F636F756E74223A007B226C65761E
:10023000656C223A22303030222C22646576696364
:1002400065223A22434F4E54524F4C4C4552222C79
:1002500022706172616469676D223A225041564C86
:100260004F5649414E222C2263735F706C75735F49
:10027000636F756E74223A007B226C6576656C2222
:100280003A22303037222C22646576696365223A3F
:1002900022434F4E54524F4C4C4552222C226576ED
:1002A000656E74223A225354415254222C227469AE
:1002B0006D657374616D70223A307D004649524518
:1002C000440074657374004D4943524F53434F507B
:1002D0004500494E444550454E44454E54006D6FCF
:1002E0006465004C4153455200434F4E54494E47BC
:1002F000454E54006D6F6465004C41534552006497
:1003000075726174696F6E004C415345520066729C
:10031000657175656E6379004C41534552004649DD
:100320005245440074657374004C41534552004675
:100330004952454400746573740050554D50320065
:100340006475726174696F6E0050554D503200468D
:100350004952454400746573740050554D50006413
:1003600075726174696F6E0050554D500046495268
:1003700045440074657374004355453200647572DA
:100380006174696F6E004355453200667265717520
:10039000656E637900435545320046495245440035
:1003A0007465737400435545006475726174696FB8
:1003B0006E00435545006672657175656E63790020
:1003C00043554500A1009600860079007000680042
:1003D0007B226C6576656C223A22303036222C22E4
:1003E00064657363223A22436F6D6D616E64206EA3
:1003F0006F7420666F756E64227D00736573736918
:100400006F6E5F70617573656400434F4E54524F59
:100410004C4C45520070756C73655F6F66660043A7
:100420005545320070756C73655F6F6E00435545BE
:1004300032006974695F6D617800434F4E54524FCA
:100440004C4C4552006974695F6D696E00434F4EB4
:1004500054524F4C4C4552006974695F6D65616E32
:1004600000434F4E54524F4C4C455200636F6E73D5
:10047000756D7074696F6E00434F4E54524F4C4C03
:1004800045520074726163655F696E74657276616E
:100490006C00434F4E54524F4C4C455200637565AF
:1004A0005F6475726174696F6E00434F4E54524FB2
:1004B0004C4C455200636F756E74657262616C617D
:1004C0006E636500434F4E54524F4C4C4552007B77
:1004D000226C6576656C223A22303036222C2264FA
:1004E0006576696365223A22434F4E54524F4C4C15
:1004F0004552222C2264657363223A2243616E6E58
:100500006F74206368616E676520636F756E7465D4
:100510007262616C616E636520647572696E6720DA
:100520006163746976652073657373696F6E227D8C
:100530000063735F6D696E75735F6672657100430A
:100540004F4E54524F4C4C45520063735F706C7564
:10055000735F6672657100434F4E54524F4C4C4569
:10056000520063735F6D696E75735F636F756E7450
:1005700000434F4E54524F4C4C4552007B226C6509
:1005800076656C223A22303036222C2264657669F8
:100590006365223A22434F4E54524F4C4C455222EF
:1005A0002C2264657363223A2243616E6E6F74205D
:1005B0006368616E67652043532D20636F756E74A9
:1005C00020647572696E6720616374697665207353
:1005D000657373696F6E227D0063735F706C7573F2
:1005E0005F636F756E7400434F4E54524F4C4C45D1
:1005F00052007B226C6576656C223A2230303622BE
:100600002C22646576696365223A22434F4E545228
:100610004F4C4C4552222C2264657363223A22438C
:10062000616E6E6F74206368616E67652043532B43
:1006300020636F756E7420647572696E67206163E4
:10064000746976652073657373696F6E227D0063CC
:10065000735F6D696E75735F70726F6200434F4EAA
:1006600054524F4C4C45520063735F706C75735F0E
:1006700070726F6200434F4E54524F4C4C455200C3
:10068000227D007B226C6576656C223A2230303602
:10069000222C2264657363223A220044495341525A
:1006A0004D45440041524D454400227D002C2264BA
:1006B000657363223A2200222C2270696E223A006E
:1006C0007B226C6576656C223A22303031222C22F6
:1006D000646576696365223A2200222C2276616C79
:1006E0007565223A00222C22706172616D223A22D5
:1006F000007B226C6576656C223A22303030222CE9
:1007000022646576696365223A220066616C7365CE
:10071000007472756500222C2276616C7565223A30
:1007200000222C22706172616D223A22007B226CC1
:100730006576656C223A22303030222C2264657650
:10074000696365223A2200227D00222C2276616CA8
:100750007565223A2200222C22706172616D223A64
:1007600022007B226C6576656C223A223030302282
:100770002C22646576696365223A2200444953411C
:10078000524D45440041524D454400227D002C22EB
:1007900064657363223A22007B226C6576656C2265
:1007A0003A22303031222C22646576696365223A20
:1007B000224D4943524F53434F5045222C227069DA
:1007C0006E223A0066616C73650074727565002C68
:1007D000226475726174696F6E223A002C2266720F
:1007E000657175656E6379223A00222C2261726D03
:1007F0006564223A007B226C6576656C223A223071
:100800003030222C22646576696365223A220066C4
:10081000616C73650074727565002C226475726179
:1008200074696F6E223A00222C2261726D65642217
:100830003A007B226C6576656C223A223030302299
:100840002C22646576696365223A220066616C73C6
:1008500065007472756500222C2261726D656422D8
:100860003A007B226C6576656C223A223030302269
:100870002C22646576696365223A220066616C7396
:100880006500747275650066616C736500747275DD
:1008900065002C227265696E666F72636564223A28
:1008A00000222C2261726D6564223A007B226C6505
:1008B00076656C223A22303030222C2264657669CB
:1008C0006365223A2200027B226C6576656C223ACF
:1008D00022303030222C22646576696365223A2208
:1008E000434F4E54524F4C4C4552222C22736B6551
:1008F000746368223A227061766C6F7669616E2E3D
:10090000696E6F222C2276657273696F6E223A22AD
:1009100076322E302E30222C22626175645F726135
:100920007465223A3131353230302C227363686578
:1009300064756C65223A225041564C4F5649414EDF
:10094000227D002C22656E645F74696D657374612D
:100950006D70223A002C226576656E74223A224C24
:1009600049434B222C2273746172745F74696D6504
:100970007374616D70223A00222C2270696E223AE3
:10098000007B226C6576656C223A22303037222C4F
:1009900022646576696365223A220066616C73653C
:1009A0000074727565002C2274696D657374616DD5
:1009B00070223A002C226974695F6D73223A0043F9
:1009C000535F504C55530043535F4D494E555300B0
:1009D000222C227265776172645F73636865647547
:1009E0006C6564223A002C22747269616C5F7479C0
:1009F0007065223A22007B226C6576656C223A2271
:100A0000303037222C22646576696365223A2250A1
:100A100041564C4F56222C226576656E74223A223E
:100A2000545249414C5F5354415254222C22747207
:100A300069616C223A00414C4C5F545249414C531D
:100A40005F434F4D504C4554450052455741524429
:100A50005F4F4D4954544544005245574152445FFD
:100A600044454C4956455245440054524143455F24
:100A70005354415254002C226576656E74223A22FA
:100A800054494D455354414D50222C2274696D6593
:100A90007374616D70223A007B226C6576656C22FE
:100AA0003A22303038222C22646576696365223A16
:100AB000224D4943524F53434F5045222C227069D7
:100AC0006E223A0000000000240027002A000000E7
:100AD0000000250028002B00000000002300260055
:100AE00029000404040404040404020202020202B1
:100AF00003030303030301020408102040800102E2
:100B00000408102001020408102000000008000260
:100B10000100000304070000000000000000227D27
:100B2000002C2274696D657374616D70223A002225
:100B30002C22747269616C223A007B226C657665A6
:100B40006C223A22303037222C2264657669636544
:100B5000223A225041564C4F56222C226576656E21
:100B600074223A2200494E465553494F4E00494E91
:100B7000465553494F4E00544F4E4500544F4E4535
:100B80000050554D505F320050554D500043554573
:100B90005F3200435545002C22656E645F74696DB9
:100BA000657374616D70223A00222C227374617235
:100BB000745F74696D657374616D70223A002C22E4
:100BC0006576656E74223A2200222C2270696E22AC
:100BD0003A007B226C6576656C223A2230303722EF
:100BE0002C22646576696365223A220054494D459A
:100BF0004F555400494E41435449564500414354D2
:100C000049564500227D002C226F7269656E746121
:100C100074696F6E223A22002C22656E645F7469DB
:100C20006D657374616D70223A00222C22737461B9
:100C300072745F74696D657374616D70223A002C13
:100C4000226576656E74223A225052455353222C07
:100C500022636C617373223A22007B226C65766595
:100C60006C223A22303037222C2264657669636523
:100C7000223A225357495443485F4C455645522225
:100C80002C2270696E223A00482D11241FBECFEF2E
:100C9000D8E0DEBFCDBF12E0A0E0B1E0E0ECF2E7CB
:100CA00002C005900D92A632B107D9F724E0A6E262
:100CB000B2E001C01D92AD31B207E1F716E0C5E424
:100CC000D6E004C02197FE010E945137C434D107F9
:100CD000C9F70E94F82F0C945E390C940000909193
:100CE0001E03891798F4E82FE695E695E695F0E05F
:100CF000E751FD4F27AD30E08770A90102C055953F
:100D000047958A95E2F7CA018170089580E00895B9
:100D1000CF93DF93EC0188819981DC01ED91FC9107
:100D20000190F081E02D64E270E00995009741F0B8
:100D30002FE1FC01238321E02283DF91CF910895ED
:100D400021E02A83FACF833081F028F4813099F0B2
:100D50008230A9F008958730A9F08830C9F0843036
:100D6000B1F4809180008F7D03C0809180008F77E7
:100D700080938000089584B58F7784BD089584B5ED
:100D80008F7DFBCF8091B0008F778093B000089566
:100D90008091B0008F7DF9CFCF93DF93282F30E083
:100DA000F901E65FF44F8491F901EA50F54FD491CF
:100DB000F901EE51F54FC491CC23A1F081110E94AD
:100DC000A306EC2FF0E0EE0FFF1FE852F54FA591C0
:100DD000B491EC91ED2381E090E009F480E0DF91A3
:100DE000CF91089580E090E0FACF1F93CF93DF93E7
:100DF000282F30E0F901E65FF44F8491F901EA50C1
:100E0000F54FD491F901EE51F54FC491CC23A9F0DF
:100E1000162F81110E94A306EC2FF0E0EE0FFF1FAA
:100E2000E253F54FA591B4918FB7F894EC9111115D
:100E300008C0D095DE23DC938FBFDF91CF911F9147
:100E40000895DE2BF8CFCF93DF9390E0FC01EA50BA
:100E5000F54F24918E51954FFC0184918823D1F058
:100E600090E0880F991FFC01EC53F54FA591B491C8
:100E7000FC01E253F54FC591D491623071F49FB7F4
:100E8000F8943C91822F809583238C93E8812E2BBC
:100E900028839FBFDF91CF9108958FB7F894EC918D
:100EA0002E2B2C938FBFF6CF3FB7F894809146023C
:100EB00090914702A0914802B091490226B5A89BA3
:100EC00005C02F3F19F00196A11DB11D3FBFBA2FDC
:100ED000A92F982F8827BC01CD01620F711D811D9C
:100EE000911D42E0660F771F881F991F4A95D1F721
:100EF00008958F929F92AF92BF92CF92DF92EF921E
:100F0000FF924B015C010E9454076B017C010E941F
:100F100054076C197D098E099F09683E734081054D
:100F20009105A8F321E0821A9108A108B10888EE82
:100F3000C80E83E0D81EE11CF11C81149104A104A9
:100F4000B10429F7FF90EF90DF90CF90BF90AF9062
:100F50009F908F9008952FB7F894609142027091FE
:100F6000430280914402909145022FBF08950F9350
:100F70001F93CF93DF93C091E702D091E8022097AF
:100F800081F081E08A830E94AB07088519852A8554
:100F90003B85601B710B820B930B6C837D838E836F
:100FA0009F83DF91CF911F910F91089508959091A4
:100FB0001F0189130BC0E6ECF8E0E4919FEF9093DA
:100FC0001F01E13049F028F0E23061F060E00C945C
:100FD000F50610926E00FACF90916F009D7F90936E
:100FE0006F00F4CF909170009D7F9093700091E01E
:100FF0009093B0009091B100987F94609093B1006D
:101000001092B300E3CF4F925F926F927F928F92D4
:101010009F92AF92BF92CF92DF92EF92FF920F9387
:101020001F93CF93DF9300D000D01F92CDB7DEB7D0
:101030008B0129013A0190911F018917C9F09F3F47
:1010400009F47EC00F900F900F900F900F90DF91DA
:10105000CF911F910F91FF90EF90DF90CF90BF90B5
:10106000AF909F908F907F906F905F904F9008957A
:10107000E6ECF8E094919D8397FDE4CF61E00E9457
:1010800023078D81882321F09D81923009F04AC188
:101090004801B12CA12C60E072E18AE790E0A50143
:1010A00098010E94893529833A834B835C836901C7
:1010B0007A0181E0C81AD108E108F1089FEFC9164A
:1010C000D104E104F10409F00CF401C160E472E41C
:1010D0008FE090E0A50198010E94893569017A01AD
:1010E00081E0C81AD108E108F1089D81923009F029
:1010F000A2C08FEFC816D104E104F10409F00CF48A
:10110000E6C160E970ED83E090E0A50198010E94DE
:10111000893569017A0191E0C91AD108E108F1081D
:101120008FEFC816D104E104F10411F00CF07FC177
:1011300083E09091B100987F892B8093B100CFC05C
:1011400080931F01E6ECF8E094919D839F3F09F4A2
:1011500079CF913041F150F0923009F446C09D8131
:1011600097FD70CF61E00E9423078ECF14BC15BCA1
:1011700094B5926094BD95B5916095BD282F30E0EF
:10118000F901EE51F54FE491F0E0EE0FFF1FE2534D
:10119000F54F45915491F901EA50F54FE491E093F0
:1011A00031021D826BCF10928000109281009091CD
:1011B000810098609093810090918100916090935C
:1011C0008100282F30E0F901EE51F54FE491F0E075
:1011D000EE0FFF1FE253F54F45915491F901EA508C
:1011E000F54FE491E093300249CF1092B000109295
:1011F000B1009091B00092609093B0009091B100D6
:1012000091609093B100282F30E0F901EE51F54F35
:10121000E491F0E0EE0FFF1FE253F54F459154913A
:1012200050933B0240933A02F901EA50F54FE491A2
:10123000E0933C0223CF9FEFC916D104E104F104EF
:1012400009F00CF46DC068E478EE81E090E0A5014F
:1012500098010E94893569017A0181E0C81AD10894
:10126000E108F1089D81992309F4FAC08FEFC816AF
:10127000D104E104F10411F00CF0FBC0EFC064E212
:1012800074EF80E090E0A50194010E948935690126
:101290007A0181E0C81AD108E108F10885E09FEFE2
:1012A000C916D104E104F10409F008F442CF62E167
:1012B0007AE780E090E0A50194010E9489356901F8
:1012C0007A0181E0C81AD108E108F108E5C081E09F
:1012D0009D8191112ECF95B5987F892B85BD2FEFDC
:1012E0003FEFA901411451046104710409F043C0A6
:1012F0009D81913009F45EC0923009F46DC0911166
:10130000A1CEC7BC209336023093370240933802F7
:101310005093390280916E00826080936E0092CE6D
:1013200082E0D6CFB12CA12C60E072E18AE790E098
:10133000A50198010E94893569017A0181E0C81AE6
:10134000D108E108F108C114D10491E0E906F104E3
:1013500004F591E08D81813011F680918100887FC4
:10136000892B809381002FEF3FEFA9014114510495
:1013700061047104F9F0D801AA0FBB1FA301920107
:101380000E94A83528EE33E040E050E00E94F2359C
:10139000AFCF68E478EE81E090E0A50198010E946B
:1013A000893569017A0181E0C81AD108E108F1089C
:1013B00093E0D0CFD0928900C0928800209332026F
:1013C00030933302409334025093350280916F0082
:1013D000826080936F0036CEC092B30020933D02AE
:1013E00030933E0240933F02509340028091700040
:1013F00082608093700026CE84E09FEFC916D104EE
:10140000E104F10409F008F466CFC980DA80EB80CA
:10141000FC808AE0F594E794D794C7948A95D1F735
:1014200081E0C81AD108E108F10885E054CF68E4EA
:1014300078EE81E090E0A50198010E94893569016C
:101440007A0181E0C81AD108E108F1089FEFC916B6
:10145000D104E104F10411F00CF011CF84E069CE65
:1014600083E09FEFC916D104E104F10409F00CF404
:1014700032CF62E17AE780E090E0A50194010E941A
:10148000893569017A0181E0C81AD108E108F108BB
:101490009D81992309F4B0CF86E09FEFC916D1044E
:1014A000E104F10409F008F444CEC980DA80EB804D
:1014B000FC809AE0F594E794D794C7949A95D1F775
:1014C00081E0C81AD108E108F10887E032CE82E055
:1014D00030CEAF92BF92CF92DF92EF92FF920F93F6
:1014E0001F93CF93DF936C017B018B01040F151FBA
:1014F000EB015E01AE18BF08C017D10759F0699122
:10150000D601ED91FC910190F081E02DC601099585
:10151000892B79F7C501DF91CF911F910F91FF9032
:10152000EF90DF90CF90BF90AF900895FC01538D66
:10153000448D252F30E0842F90E0821B930B5417AD
:1015400010F0CF96089501970895FC01918D828D3A
:10155000981761F0A28DAE0FBF2FB11D5D968C91D3
:10156000928D9F5F9F73928F90E008958FEF9FEF12
:101570000895FC01918D828D981731F0828DE80FCE
:10158000F11D858D90E008958FEF9FEF0895FC0188
:10159000918D228D892F90E0805C9F4F821B910955
:1015A0008F73992708958AE492E00E94C70A21E088
:1015B000892B09F420E0822F089580E090E0892BA8
:1015C00029F00E94D30A81110C9400000895FC01B7
:1015D000A48DA80FB92FB11DA35ABF4F2C91848D94
:1015E00090E001968F739927848FA689B7892C93F1
:1015F000A089B1898C91837080648C93938D848D44
:10160000981306C00288F389E02D80818F7D808346
:101610000895EF92FF920F931F93CF93DF93EC0106
:1016200081E0888F9B8D8C8D98131AC0E889F98989
:10163000808185FF15C09FB7F894EE89FF8960838C
:10164000E889F98980818370806480839FBF81E00D
:1016500090E0DF91CF911F910F91FF90EF9008954F
:10166000F62E0B8D10E00F5F1F4F0F731127E02E2A
:101670008C8D8E110CC00FB607FCFACFE889F98962
:10168000808185FFF5CFCE010E94E70AF1CFEB8D77
:10169000EC0FFD2FF11DE35AFF4FF0829FB7F89436
:1016A0000B8FEA89FB8980818062CFCF0F931F93D4
:1016B000CF93DF938C01D0E0C0E0F801EC0FFD1F69
:1016C0006491662341F08AE492E00E94090B892B21
:1016D00011F02196F2CFCE01DF91CF911F910F91A2
:1016E0000895CF93DF93EC01888D8823B9F0AA8900
:1016F000BB89E889F9898C9185FD03C0808186FDCD
:101700000DC00FB607FCF7CF8C9185FFF2CF80811B
:1017100085FFEDCFCE010E94E70AE9CFDF91CF919F
:101720000895CF92DF92EF92FF921F93CF93DF93B2
:10173000EC016A017B018C810E94CC0611E0892BAF
:1017400009F410E08B85181721F0CD8ADE8AEF8A24
:10175000F88E8D899E89AF89B88DB701A601481B87
:10176000590B6A0B7B0B898D90E0B0E0A0E08417E9
:101770009507A607B70798F48C85181781F01C8782
:101780008A851817A9F0CA8EDB8EEC8EFD8EEAA131
:10179000FBA1309721F0B701A601898509951B8728
:1017A000DF91CF911F91FF90EF90DF90CF90089540
:1017B000CE8EDF8EE8A2F9A2ECA1FDA1309779F3DD
:1017C00089850995ECCF0F931F93CF93DF93EC019D
:1017D0008E81811103C08D89882301F18C810D8553
:1017E0001E852F853889401751076207730780F0DF
:1017F00009891A892B893C89041715072607370799
:1018000038F061E0DF91CF911F910F910C94F506B4
:1018100060E00E94F5068D8981111D8ADF91CF91CC
:101820001F910F910895CF93DF93EC0161E08881C0
:101830000E94F50662E370E080E090E00E94790784
:1018400060E08881DF91CF910C94F506AF92BF9252
:10185000CF92DF92FF920F931F93CF93DF93EC0110
:101860008E81811104C088A1882309F440C0898930
:101870009A89AB89BC89481759076A077B0708F41E
:1018800050C00D891E892F89388D0417150726072A
:10189000370708F446C02A8D2223D1F10C8D1D8D07
:1018A0002E8D3F8D200F311F2115310511F421E0C0
:1018B00030E0FB8C5A016B01A81AB90ACA0ADB0A8C
:1018C000C601B50150E040E00E94F2356017710793
:1018D000C0F4F1100AC069857A8520E030E0A901E2
:1018E0008C810E94030881E08B8F81E0898FDF91DA
:1018F000CF911F910F91FF90DF90CF90BF90AF904D
:101900000895FF2091F38C810E94D7071B8EEDCFA5
:1019100069857A8520E030E0A9018C810E94030866
:10192000E4CF898D882319F38C810E94D707198E03
:101930001B8E88A18823D9F218A2D9CF6F3FA9F0B6
:10194000E62FE295EF7044E0E49F90011124DC0162
:10195000ED91FC91E20FF31F6F7082819381B6E0ED
:101960006B9F800D911D1124089590E080E00895F3
:10197000982F80336CF08A3324F08F3524F08B3726
:1019800024F481E0089581341CF081E09B350CF053
:1019900080E00895FC01828581110AC0A781B0858D
:1019A000CD010196908787838C91818781E0828722
:1019B000818508951F93CF93DF93EC01162F0E942A
:1019C000CA0C811306C01A8681E0DF91CF911F9166
:1019D000089580E0FACF0F931F93CF93DF938C018C
:1019E000EB018991882369F0C8010E94CA0C882301
:1019F00079F0FE013197908198130DC0F80112869D
:101A0000F0CF90E080E0DF91CF911F910F9108958A
:101A100082E090E0F8CF83E090E0F5CFCF93DF93C2
:101A2000EC01CE010E94CA0C8B304CF489305CF47E
:101A3000882359F081E08E8390E080E00BC08D30E8
:101A400011F08032B9F71A86ECCF8E81811105C072
:101A500081E090E0DF91CF91089582E090E0FACFAD
:101A6000DC0152969C915297915084E0989F90018E
:101A700011245096ED91FC91E20FF31F22813381E6
:101A80002115310579F041818081481758F481E0B2
:101A9000840F818386E0489F200D311D112421157C
:101AA000310521F460E070E08FEF0895B901892FCE
:101AB0008295807F840F0895DF92EF92FF920F93BB
:101AC0001F93CF93DF93EC017B01D12C6889798937
:101AD0008A89D816E0F484E0D89E80011124060F8C
:101AE000171FD80112966D917C916115710541F017
:101AF000D701ED91FC910280F381E02DC70109959A
:101B0000F8011382128210821182D394DFCF1A8AD5
:101B10008FEF8C8BC617D70761F0D701ED91FC9141
:101B20000280F381E02DC7010995D98BC88B84E031
:101B30008B8BDF91CF911F910F91FF90EF90DF90F2
:101B400008952F923F924F925F926F927F928F9261
:101B50009F92AF92BF92CF92DF92EF92FF920F933C
:101B60001F93CF93DF9300D000D0CDB7DEB7209185
:101B70002F02309112018091040190910501A091F2
:101B80000601B0910701C0900801D0900901E090D2
:101B90000A01F0900B0140910C0150910D015A8304
:101BA0004983E0910E01F0910F01FC83EB8380905B
:101BB000130190901401A0901501B090160140906F
:101BC000190150901A0160901B0170901C01E09166
:101BD0001701F0911801309711F4E1E0F0E0409125
:101BE00000015091010160910201709103014817B9
:101BF00059076A077B0710F4AC01BD011091FD0283
:101C0000112309F46BC0F0930B03E0930A03EB81FB
:101C1000FC81F0930D03E0930C03E981FA81F093CA
:101C20000F03E0930E038093140390931503A09386
:101C30001603B0931703409318035093190360934E
:101C40001A0370931B03C816D906EA06FB0648F070
:101C5000D701C601481759076A077B0710F4DB0153
:101C6000CA018093100390931103A0931203B093C1
:101C70001303353608F034E630930703253608F0B1
:101C800024E620930803E091EF02F091F0023097F0
:101C900021F04186528663867486E091F102F091CC
:101CA000F202309721F081869286A386B4860F9047
:101CB0000F900F900F90DF91CF911F910F91FF9098
:101CC000EF90DF90CF90BF90AF909F908F907F90DC
:101CD0006F905F904F903F902F900895209011014A
:101CE00027FE02C010E8212E30902E020091100134
:101CF0002092050310E81219011708F4102F109311
:101D00000603F0930B03E0930A03EB81FC81F0934D
:101D10000D03E0930C03E981FA81F0930F03E09344
:101D20000E038093140390931503A0931603B093AE
:101D30001703409318035093190360931A03709389
:101D40001B03C816D906EA06FB0648F0D701C601F0
:101D5000481759076A077B0710F4DB01CA01809313
:101D6000100390931103A0931203B093130335361D
:101D700008F034E630930703253608F024E6209374
:101D8000080330920903E091EF02F091F0023097DE
:101D900059F04186528663867486128E88EC90E0F4
:101DA000958F848F978F868FE091F102F091F202E8
:101DB000309709F47CCF81869286A386B486E09121
:101DC000F102F091F20281E0828F88EC90E0958F31
:101DD000848F978F868F6BCF9091FD029923E9F0C6
:101DE0009091FE02911119C08230B8F481110BC09C
:101DF00081E02091E9023091EA02232B09F080E092
:101E000080930303089581E02091EB023091EC026E
:101E1000232B09F080E08093040308954F925F9292
:101E20006F927F928F929F92AF92BF92CF92DF92EA
:101E3000EF92FF920F931F93CF93DF9300D000D0C8
:101E40001F92CDB7DEB7DC012C912B32E1F12D32A0
:101E5000D9F50196EE24E394FC01208130ED320F98
:101E60003A3010F02E3291F58C0160E070E0CB0139
:101E7000F801219130ED832E820E39E0381508F4F7
:101E800044C06A3949E97407840749E1940708F0B6
:101E900046C0AAE0B0E09B01AC010E94A835912C9D
:101EA000B12CA12C2401350140945094609470947D
:101EB000461657066806790690F1680D791D8A1D49
:101EC0009B1D8F01D5CF0196E12CC6CF19822981A8
:101ED0003A814B815C816D8170E080E090E00F90F1
:101EE0000F900F900F900F90DF91CF911F910F9156
:101EF000FF90EF90DF90CF90BF90AF909F908F902A
:101F00007F906F905F904F900895211108C0EE2050
:101F100051F161307105810550E89507A0F0F12C71
:101F2000BAE08B2E912CA12CB12C6115710530E8F3
:101F300083079105F8F0A50194010E94F235CA01CA
:101F4000B901F394F2CF22E029839B01AC018827E9
:101F50009927DC01821B930BA40BB50B8A839B830F
:101F6000AC83BD83B4CF23E029836A837B838C83D6
:101F70009D83ADCFF801D8012D918D0130ED320F49
:101F80003A3010F4F394F6CF2E3201F58F010F5F43
:101F90001F4FF8010F5F1F4F2081A0EDDA2ED20EE8
:101FA000B9E0BD1598F06C3CECEC7E07ECE08E07D8
:101FB000910578F7AAE0B0E09B01AC010E94A8353A
:101FC0006D0D711D811D911DFA94E3CF20812F7D30
:101FD00010E000E0253409F050C021812D32B1F528
:101FE0003296CC24C394DF0110E000E02F2D0F2C9B
:101FF000000C330B5AE0B52EFD01DD9040ED4D0D88
:102000004A30B0F5B09EA001B19E500D11240D2DA7
:10201000DD0C110B00531109040F151FA801420F0D
:10202000531F4732510544F3CC20B9F080E090E0D3
:10203000A0E0B0E8E11003C080E090E0DC0121E026
:1020400029838A839B83AC83BD8341CF2B3219F0D4
:102050003196C12CC8CF3296FCCF80E090E0A0E84A
:10206000BFEFE110ECCF80E090E0A0E8BFE7E7CF62
:10207000CC2019F01195019511092081211126CF4D
:102080000F0D111DF7FC1A950E946A343CEBC32E0C
:1020900030E0D32E101611063CF011950195110970
:1020A00044EAC42E40E0D42EF12C0115110591F024
:1020B00000FF0CC024E0F29EF0011124EC0DFD1D88
:1020C00025913591459154910E94CB3415950795F2
:1020D000F394EBCFE110905821E029836A837B834E
:1020E0008C839D83F4CECF92DF92EF92FF920F9379
:1020F0001F93CF93DF937C016B018A01FC01C081A8
:10210000D1814F3F510509F0B0F4E881F981048095
:10211000F581E02D4B5F5F4FCE010995009759F097
:10212000FC010383DF91CF911F910F91FF90EF90FE
:10213000DF90CF900895E881F9810280F381E02D4E
:10214000B601CE01099581E0F701828390E080E03D
:10215000E9CF1F93CF93DF93EC01162F6A817B8128
:102160006115710589F04C815D81FB0183818417C4
:10217000150651F4440F551F4F5F5F4F88819981B9
:102180000E9473109B838A838A819B81009759F0F8
:102190002C813D81A9014F5F5F4F5D834C83820F8E
:1021A000931FFC011483DF91CF911F9108959F929B
:1021B000AF92BF92CF92DF92EF92FF920F931F9355
:1021C000CF93DF9300D000D01F92CDB7DEB78C0144
:1021D0000E94CA0CD82EF8011286F12CE12C60EF77
:1021E000C62EC8010E94CA0CF8011286D81609F43E
:1021F000B3C0811113C082E090E00F900F900F9058
:102200000F900F90DF91CF911F910F91FF90EF9062
:10221000DF90CF90BF90AF909F9008958C3509F0DC
:1022200099C0C8010E94CA0C882329F3ECE5F1E0AB
:10223000853709F083C0F801128654E0952EB12C41
:10224000A12CC8010E94CA0C8823A9F2813434F45D
:102250008053803130F083E090E0CFCF8F7D875383
:10226000F8CF44E0AA0CBB1C4A95E1F7A82AF80174
:1022700012869A949110E5CFC501985D811594401E
:1022800020F47501F3E0FF22ACCFC5019C5D811500
:102290009440A8F483E0B822B701762F6627770F21
:1022A000770F6A297B2990E080E0019660387105FC
:1022B0008105910540F4C8010E94A91092CFB50193
:1022C00090E080E0F3CF1982262F2F7320682A83B5
:1022D00026E096958795779567952A95D1F7603290
:1022E000710580F4606C6B835E01E4E0AE0EB11C9E
:1022F000F50162915F01662309F473CFC8010E9462
:10230000A910F6CF262F2F7320682B8386E07695B1
:1023100067958A95E1F76031710538F4606E6C83DA
:102320005E01F5E0AF0EB11CE3CF60686C83CD8237
:102330005E0126E0A20EB11CDBCF3296908199237C
:1023400009F489CF8913F9CF8181882309F483CFD8
:10235000F8011286682FAFCF82819381892B19F4FF
:1023600084E090E04ACF90E080E047CF6F927F9288
:102370008F929F92AF92BF92CF92DF92EF92FF9295
:102380000F931F93CF93DF93EC012A813B812C5F46
:102390003F4F4C815D814430510588F58901F90139
:1023A00080E0942FB22FAE2FA21BA91730F4F1902A
:1023B000A1E0F110A0E08A2BF6CF811120C082E0CD
:1023C000EB018C83FB01802F8B1B891728F4E8011C
:1023D00089918E018193F7CF640F751FFB011082E5
:1023E000DF91CF911F910F91FF90EF90DF90CF90F1
:1023F000BF90AF909F908F907F906F9008958B01CA
:10240000F901E40FF51F1082888199814C815D816B
:10241000DC011396ED91FC913A01E89477F869019B
:10242000C60CD71C3097C1F0A381A615170481F400
:1024300049017F01B4E0EB0EF11C8C149D0429F1DD
:10244000D401AD904D01D701BD907D01AB14A9F32E
:102450000190F081E02DE6CF6A817B810E947310AC
:10246000FC01A881B98113968D919C911497918359
:1024700080831496FC93EE9313971B821A8285E057
:10248000E8018C83F983E883ABCF82818F5F8283FD
:10249000F6CFDB01ED91FC9111970280F381E02DE5
:1024A000BC01CD010994AF92BF92CF92DF92EF921F
:1024B000FF920F931F93CF93DF93EC018B018C81DD
:1024C00080FF24C0A881B981FB018381948130E021
:1024D00020E00097D9F0A817B907D1F5F80160817D
:1024E000718112968C911297815012968C9312974B
:1024F00081110CC08D919C9111972115310529F105
:10250000F90191838083CD010E9449128C818076EC
:1025100031F1209721F1F8805801F5E1AF0EB11C9F
:102520008FEFF816D1F06F2DC5010E949E0C6C0143
:10253000FC01E580B8010E945312F801818DF6017B
:102540008083F801F18EFE2CEBCF94838383DBCF65
:102550009C01FC0180819181BCCFF882F9821C82B0
:10256000DF91CF911F910F91FF90EF90DF90CF906F
:10257000BF90AF9008950F931F93CF93DF93EC011B
:10258000088119818B819C81009749F0FC01208191
:1025900031813C832B83B8010E944912F3CF6881BB
:1025A0007981CE010596DF91CF911F910F910C9407
:1025B0005C0DFC0101900020E9F73197AF01481B49
:1025C000590BBC018AE492E00C94690ACF93DF9323
:1025D0006DE78AE492E00E94090BEC018FE691E03E
:1025E0000E94D9128C0F9D1FDF91CF9108950F93F8
:1025F0001F93CF93DF938C01D62FC42F8CEA98E0E2
:102600000E94560BC8010E94560B81EA98E00E9476
:10261000560B87E898E0DD2311F08DE898E00E94E2
:10262000560B82E998E00E94560B8CE798E0CC2389
:1026300011F082E898E00E94560BDF91CF911F9134
:102640000F910C94E6120F931F93CF938C01C62F1A
:1026500082E698E00E94560BC8010E94560B87E55F
:1026600098E00E94560B8CE498E0CC2311F082E5B0
:1026700098E00E94560BCF911F910F910C94E61297
:10268000EF92FF920F931F93CF937C018B01C42F86
:102690008DE297E00E94560BC7010E94560B81E223
:1026A00097E00E94560BC8010E94560B86E197E006
:1026B0000E94560B8BE097E0CC2311F081E197E06C
:1026C0000E94560BCF911F910F91FF90EF900C94A9
:1026D000E612CF93DF930E94560BEC018FE691E058
:1026E0000E94D9128C0F9D1FDF91CF910895EF9218
:1026F000FF920F931F93CF93DF937C018B01EA012D
:1027000082E697E00E94560BC7010E94560B86E5B1
:1027100097E00E94560BC8010E94560B8AE497E08E
:102720000E94560BCE010E94560B87E497E0DF9182
:10273000CF911F910F91FF90EF900C9469138F929E
:102740009F92AF92BF920F931F93CF93DF93CDB71A
:10275000DEB7A1970FB6F894DEBF0FBECDBF19A2AA
:10276000423008F44AE08E010F5D1F4F842E912CF9
:10277000B12CA12CA50194010E94F235E62FB901DC
:10278000CA01EA30F4F4E05DD801EE938D01232B09
:10279000242B252B79F790E080E0109719F0CD01DC
:1027A0000E94D912A1960FB6F894DEBF0FBECDBF1E
:1027B000DF91CF911F910F91BF90AF909F908F901D
:1027C0000895E95CE1CF9F92AF92BF92CF92DF92E2
:1027D000EF92FF920F931F93CF93DF938A01452BC4
:1027E00009F468C0E9016B016596FC016081CE01C6
:1027F0000E949E0CFC01BB24BA94892B09F0B58081
:102800007601E894F7F8AA24A3946701C00ED11EBC
:1028100099249394309709F44DC0AA2009F43FC03D
:102820008481843069F0853049F1823079F5DF01A7
:102830000D900020E9F71197CD018E1B9F0B07C06B
:102840000190F081E02D90E080E0309781F79F7754
:10285000E816F90621F5D801AC15BD05E1F46B2D9C
:10286000CE01DF91CF911F910F91FF90EF90DF90FC
:10287000CF90BF90AF909F900C949E0CA081B1819F
:10288000FD01349613968C9190E0E2CF90E080E0C9
:10289000F0E0E0E0DDCF9D9181919817E9F2A92465
:1028A0006B2DCE010E949E0CFC01892B09F4B2CF46
:1028B000B580B0CF90E080E0DF91CF911F910F9174
:1028C000FF90EF90DF90CF90BF90AF909F900895D2
:1028D000FC0120813181C9014A9642815381648182
:1028E0007581009759F0D9015E96EC91E03211F0B4
:1028F00090E080E0009711F00C94E31390E080E00A
:102900000895CF930E946814FC01892B41F19481B2
:102910009A30E1F040F4992311F19630A9F0C1E02A
:102920008C2FCF9108959C3089F09E30C1F7C1E083
:1029300020E030E0A90160817181828193810E9451
:1029400065348111EDCF0BC0C081EACFC1E0808139
:102950009181A281B381892B8A2B8B2B09F7C0E04F
:10296000DFCFCF92DF92EF92FF92CF93DF9300D031
:1029700000D01F92CDB7DEB70E946814DC0100972B
:1029800009F445C01496EC911497E250ED3008F02C
:102990003EC0F0E0E253FB4E0C945137F71407159C
:1029A000F5140915DB14071507150715E9140715A4
:1029B000E91407150D15CC908C2D0F900F900F90EA
:1029C0000F900F90DF91CF91FF90EF90DF90CF901D
:1029D0000895CD90DD90ED90FC908FEFC816D10456
:1029E000E104F10449F340F312C08D919C910E94DF
:1029F0000E0F3A834B835C836D83CA80DB80EC804F
:102A0000FD80223051F3233041F3213051F0C12CAD
:102A1000D3CF8D919C910496EACFCD90DD90ED902F
:102A2000FC9020E030E0A901C701B6010E943837D0
:102A300087FDEDCF20E030E04FE753E4C701B6015A
:102A40000E94653418161CF3C701B6010E940937AD
:102A5000C62EB2CFCF92DF92EF92FF92CF93DF9349
:102A600000D000D01F92CDB7DEB70E946814DC0101
:102A7000009789F11496EC911497E250ED3058F5D7
:102A8000F0E0EB5BFA4E0C94513770156B156E1538
:102A9000811552156B156B156B1561156B1561154D
:102AA0006B1585156C9170E0CB010F900F900F9016
:102AB0000F900F90DF91CF91FF90EF90DF90CF902C
:102AC00008958D919D910D90BC91A02DBC01009712
:102AD000A140B10548F370E060E0E6CF8D919C9194
:102AE0000E940E0F3A834B835C836D83CA80DB8028
:102AF000EC80FD80223029F1233059F1213059F743
:102B000008C08D919C910496EBCFCD90DD90ED9017
:102B1000FC9020E030E0A901C701B6010E943837DF
:102B200087FDD9CF20E03FEF4FE757E4C701B6015B
:102B30000E94653418167CF2C701B6010E9409375D
:102B4000B3CFC114D10481E0E806F10420F6B60148
:102B5000ABCFC114D10421E0E206F104C0F3BBCF36
:102B60000F931F93CF93DF93EC018B010E946814A6
:102B7000FC01892B29F084818A3051F08C30B9F026
:102B8000F80180819181DF91CF911F910F9108957C
:102B900080819181A281B3810097A140B10580F726
:102BA000CE01DF91CF911F910F910C942A15808156
:102BB0009181A281B381B7FDE3CF0097A140B10518
:102BC000FCF6EECFCF92DF92EF92FF92CF93DF939E
:102BD00000D000D01F92CDB7DEB70E946814DC0190
:102BE000009709F44AC01496EC911497E250ED3026
:102BF00008F043C0F0E0E150FA4E0C9451372D1626
:102C00003D162B1641160C163D163D163D161C168C
:102C10003D1621163D1645166C9170E090E080E05F
:102C20000F900F900F900F900F90DF91CF91FF902A
:102C3000EF90DF90CF9008956D917D918D919C9153
:102C4000EFCF8D919D910D90BC91A02DB7FD15C03A
:102C5000BC01CD01E5CF8D919C910E940E0F3A836E
:102C60004B835C836D83CA80DB80EC80FD802230E7
:102C700041F1233041F1213061F060E070E0CB019F
:102C8000CFCF8D919C910496E8CFCD90DD90ED90C3
:102C9000FC9020E030E0A901C701B6010E9438375E
:102CA00087FDEBCF2FEF3FEF4FE75FE4C701B601A2
:102CB0000E94653418160CF3C701B6010E9409374B
:102CC000AFCFF7FCDACFC701B601AACF4AE00C9428
:102CD0009F13CF92DF92EF92FF920F931F93CF93A8
:102CE0008C01C62F69017A0182E398E00E94560B9D
:102CF000C8010E94560B87E298E00E94560B8FE0B5
:102D000098E0CC2311F085E198E00E94560B8AE10F
:102D100098E00E94560BC701B6010E946616CF913B
:102D20001F910F91FF90EF90DF90CF900C94E612DF
:102D30007F928F929F92AF92BF92CF92DF92EF924B
:102D4000FF920F931F93CF93DF93EC01762E4901EF
:102D50005A016701780185EF97E00E94560BCE017A
:102D60000E94560B8AEE97E00E94560B84EC97E087
:102D7000772011F08AEC97E00E94560B8CED97E0DB
:102D80000E94560BC501B4010E9466168FEC97E0B5
:102D90000E94560BC701B6010E946616DF91CF91C3
:102DA0001F910F91FF90EF90DF90CF90BF90AF9069
:102DB0009F908F907F900C94E612CF92DF92EF92CB
:102DC000FF920F931F93CF93DF938C01EB01690167
:102DD0007A0181EF96E00E94560BC8010E94560BC3
:102DE00085EE96E00E94560BCE010E94560B8AEDAE
:102DF00096E00E94560BC701B6010E946616DF914D
:102E0000CF911F910F91FF90EF90DF90CF900C9496
:102E1000E612CF92DF92EF92FF920E94AB076B0116
:102E20007C01C0922602D0922702E0922802F09202
:102E3000290288E393E00E94130C1092FD02109285
:102E4000FE0210921C03E091EF02F091F002309725
:102E500019F084810E94D707E091F102F091F2020B
:102E6000309719F084810E94D707E091F302F09126
:102E7000F402309721F060E084810E94F506E09131
:102E8000F502F091F602309721F060E084810E9413
:102E9000F50684ED90E00E94560B80912A029091F5
:102EA0002B02A0912C02B0912D02A7019601281BA4
:102EB000390B4A0B5B0BCA01B9010E946616FF90E1
:102EC000EF90DF90CF900C94E612682F70E090E0C6
:102ED00080E04AE00C949F130F931F93CF93DF93EE
:102EE000C091E902D091EA02882321F0C091EB025F
:102EF000D091EC02209709F45BC0613009F452C014
:102F000008F44DC0623009F450C08AE59CE00E948C
:102F1000560B8C810E9465178FE39CE00E94560B34
:102F2000C8010E94560B8AE29CE00E94560B6A8DF3
:102F30007B8D8C8D9D8D0091F9021091FA0220916C
:102F4000FB023091FC02601B710B820B930B0E9401
:102F5000661688E19CE00E94560B6E8D7F8D88A1DD
:102F600099A10091F9021091FA022091FB0230918F
:102F7000FC02601B710B820B930B0E94661687E0AC
:102F80009CE00E94560BCE010D960E94D91284E05F
:102F90009CE0DF91CF911F910F910C9469130DEF7D
:102FA0001BE0B3CF04EF1BE0B0CF0CEE1BE0ADCFC6
:102FB000DF91CF911F910F9108959091FD02992378
:102FC00071F09091FE0291110AC060910303882371
:102FD00021F0813021F4609104030C946C17089562
:102FE000CF92DF92EF92FF92CF93DF93EC016A01D1
:102FF0007B018AE39BE00E94560BCE010E94560B98
:103000008FE29BE00E94560BC9EED2E08CA90E9491
:10301000651781E29BE00E94560B88899989AA89ED
:10302000BB89A7019601281B390B4A0B5B0BCA0110
:10303000B9010E9466168EE19BE0DF91CF91FF906F
:10304000EF90DF90CF900C946913CF92DF92EF92C4
:10305000FF92CF93DF936C01092E000CEE08FF085E
:1030600097FF19C06DE28AE492E00E94090BEC011F
:1030700066277727CB016C197D098E099F094AE0E5
:103080000E949F138C0F9D1FDF91CF91FF90EF90B7
:10309000DF90CF9008954AE0C701B601DF91CF914C
:1030A000FF90EF90DF90CF900C949F134F925F9220
:1030B0006F927F928F929F92AF92BF92EF92FF9208
:1030C0000F931F93CF93DF932A013B0148015901CE
:1030D000853009F470C0863009F479C0843009F471
:1030E0005EC0E091EF02F091F0021481CCE7DBE0EA
:1030F00033E9E32E3BE0F32E82ED9BE00E94560B7A
:10310000C7010E94560B89EC9BE00E94560B812F51
:10311000110F990B0E9425188EEB9BE00E94560B15
:10312000CE010E94560B89EA9BE00E94560B8091CB
:10313000F9029091FA02A091FB02B091FC02A30166
:103140009201281B390B4A0B5B0BCA01B9010E9483
:10315000661687E99BE00E94560B8091F9029091D8
:10316000FA02A091FB02B091FC02A5019401281B78
:10317000390B4A0B5B0BCA01B9010E946616DF913D
:10318000CF911F910F91FF90EF90BF90AF909F90C4
:103190008F907F906F905F904F900C94E612E0912B
:1031A000F102F091F2021481C7E7DBE02DE8E22E94
:1031B0002BE0F22EA1CFE091F302F091F402148102
:1031C000CEE6DBE098E8E92E9BE0F92E95CFE09182
:1031D000F502F091F6021481C5E6DBE081E8E82E05
:1031E0008BE0F82E89CF0F931F93CF938C01C62FBE
:1031F000FC01638388E997E00E94560BF801808107
:10320000082E000C990B0E9425188EE897E00E946A
:10321000560B8CE797E0CC2311F085E897E00E94ED
:10322000560B8BE897E0CF911F910F910C94691387
:10323000CF93DF93EC016E8380EC96E00E94560BF7
:103240008F819885009711F00E94D91287EB96E044
:103250000E94560B8C81082E000C990B0E94251899
:103260008DEA96E00E94560B8E8181110AC08BE98F
:1032700096E00E94560B8AEA96E0DF91CF910C947B
:10328000691384EA96E0F5CF60E080912001909187
:1032900021010E94181960E0809122019091230180
:1032A0000E94181960E080912401909125010E94EC
:1032B000181960E080912601909127010E94181949
:1032C00060E080912801909129010E94181960E026
:1032D00080912A0190912B010E94181960E0809141
:1032E0002C0190912D010E94181980912E0190912E
:1032F0002F01009719F060E00E94181960E080919A
:103300003001909131010C94F3184F925F926F92BB
:103310007F928F929F92AF92BF92CF92DF92EF9265
:10332000FF920E940D3420E137E240E050E00E941D
:1033300089356F5F7F4F8F4F9F4F90E080E00E94F5
:103340006A346B017C01812C912C540120E030E027
:1033500040E050E4C701B6010E94383787FD15C030
:1033600020E030E040E05FE3C701B6010E94CB34CB
:103370006B017C0128E132E741E35FE3C501B40161
:103380000E9424364B015C01E1CF20E030E040E8B0
:103390005FE3C701B6010E9423366B017C0120E088
:1033A00030E040E05FE30E94CB34A70196010E9429
:1033B000CB349B01AC01C701B6010E9423362B011F
:1033C0003C012FE93AEA4AEA5EE3C701B6010E94EE
:1033D000CB34A70196010E94CB34A70196010E942D
:1033E000CB349B01AC01C301B2010E942436A5017C
:1033F00094010E9424369B01AC016DE87DE583E1D8
:1034000091E40E942336FF90EF90DF90CF90BF9021
:10341000AF909F908F907F906F905F904F900895A6
:10342000BF92CF92DF92EF92FF920F931F93CF93B1
:10343000DF93EC01198D1F3F81F0612F45960E94AB
:103440009E0CFC018081898F309709F477C014822B
:103450008FEF8583BF01812F76C06C0135E0C30EED
:10346000D11CE880F9808F89882341F0C6010E9431
:10347000300DE62FF72F182F309749F71F89988DB9
:10348000191324C0103109F459C0110F6D897E89B8
:10349000D701ED91FC91B4E01B9FA0011124C61649
:1034A000D70609F044C00190F081E02DBA01C701B0
:1034B0000995009709F442C020E1F601DC01019072
:1034C0000D922A95E1F79E8B8D8B188F0D891E89A1
:1034D0008F8921E0280F2F8BE4E08E9FC0011124FB
:1034E000080F191F90E1B92E203111F48FE0B82E8A
:1034F000F6E0BF9EB0011124D701ED91FC9101903F
:10350000F081E02DC7010995F80193838283892B0F
:1035100009F4B12CD801BC9211961C92012B71F0C8
:10352000C6010E94300DE62FF72F182F8DCF048093
:10353000F581E02DC7010995009729F681E08A837E
:1035400060E070E08FEFDF91CF911F910F91FF90BE
:10355000EF90DF90CF90BF9008954F925F926F925F
:103560007F928F929F92AF92BF92CF92DF92EF9213
:10357000FF920F931F93CF93DF9300D000D01F9241
:10358000CDB7DEB78C017B01B42E0E940E0D6C010D
:10359000892B09F048C0C8010E94CA0C863609F47C
:1035A000A9C124F5873229F08B3561F1823209F007
:1035B000A8C1D80115961C921E92149712968D914F
:1035C0009C911397892B39F48D919C910E948806C8
:1035D000F80193838283C8010E94D7106C01892B64
:1035E00011F5B701C8010E94B6111DC0843709F456
:1035F00060C18B3709F47BC08E3609F082C16AE85E
:1036000071E060C180E4D70114968C931497E114A3
:10361000F10421F08FEF8C9311968C93B1101AC0A6
:1036200025E0C22ED12CC6010F900F900F900F9065
:103630000F90DF91CF911F910F91FF90EF90DF904E
:10364000CF90BF90AF909F908F907F906F905F9042
:103650004F900895F8011286C8010E940E0D009740
:1036600051F56DE5C8010E94DA0C8111DCCFBA94E6
:10367000D8011B966D907C90C3010E94101AA82E51
:103680004B01672B21F494E0C92ED12CCCCFF7014C
:1036900061816F3F91F0C30145960E949E0CDC0151
:1036A0001596AC92F701A1824B2DB401C8010E947E
:1036B000AD1A009739F06C01B6CFD7018C931196F3
:1036C0008C93F2CFC8010E940E0D0097A1F76DE513
:1036D000C8010E94DA0C8111A6CF6CE2C8010E94D9
:1036E000DA0C8111C5CF83E0C82ED12C9CCF80E2AB
:1036F000F7018483E114F10419F08FEF8083818353
:10370000BB2009F48DCFD8011A961C92C8010E94E3
:103710000E0D009781F66DE7C8010E94DA0C811149
:1037200082CFBA94F8011582148282819381892B09
:1037300049F4808191810E948806D80113969C9358
:103740008E931297C8010E94CA0C8732F9F0823218
:10375000E9F0C8010E94CA0CD82E0E94B80C882338
:1037600011F2F80112866D2DC8010E94A910C8013E
:103770000E94CA0CD82E0E94B80C8111F2CFD80139
:1037800012968D919C91892B41F47DCFC8010E94A6
:10379000D7106C01892B09F046CFC8010E940E0D8D
:1037A0006C01892B09F03FCF6AE3C8010E94DA0C53
:1037B000882309F498CFD8011296ED91FC911397C4
:1037C00014968D919C911597E80FF91F1482149609
:1037D0006D917C9115977F771B966D907C901C97CF
:1037E00012968D919C910496272F2F77BA2DB07841
:1037F000AB2EA22AE894A7F89301AC017A2DC70159
:103800000E94E3136C01009761F5C3010E94101A36
:10381000482E4B01672B09F436CFC3010E94101AC2
:10382000582E962FC92ED72EC114D10409F42BCFB0
:10383000F4015582D70111966C916F3F71F0C3016D
:1038400045960E949E0CFC014582D70111965C9220
:10385000B401C8010E94B61107C0F701408251822D
:10386000F7CFB3010E9453124B2DB601C8010E943D
:10387000AD1A6C01892B09F0D6CEC8010E940E0D3D
:103880006C01892B09F0CFCE6DE7C8010E94DA0CDC
:103890008111C9CE6CE2C8010E94DA0C882309F4B8
:1038A00022CFC8010E940E0D6C01892B09F43ACF7A
:1038B000BACE86E0D70114968C93149781E08C934E
:1038C0006FE771E0C8010F900F900F900F900F906D
:1038D000DF91CF911F910F91FF90EF90DF90CF90EC
:1038E000BF90AF909F908F907F906F905F904F9020
:1038F0000C94EB0C86E0F7018483108264E871E09D
:10390000E1CFC8010E94CA0C4801FDE08F0E911C56
:10391000B12C782CA92C803384F08A3384F43FE3D3
:10392000B316A9F0D8011A961C92B394F4018193AE
:103930004F01C8010E94CA0CEECF8B3281F393ED88
:10394000980F923060F3982F9F7D953441F30B0DC3
:10395000111DD8011D961C92872D9A2D0E940E0FC5
:103960003A834B835C836D838A819B81AC81BD816B
:103970002230A9F0233059F0213009F0B4CE2EE0E6
:10398000F701248380839183A283B3834CCE2AE002
:10399000F701248380839183A283B38344CE2CE0F8
:1039A000F7CF2F923F924F925F926F927F928F92BA
:1039B0009F92AF92BF92CF92DF92EF92FF920F93BE
:1039C0001F93CF93DF93CDB7DEB7C55FD1090FB695
:1039D000F894DEBF0FBECDBF6E012EECC20ED11C1F
:1039E0008DE191E0F601918380831282148213822B
:1039F000C6010596968B858B178A84E0808F8FEFA2
:103A0000818F168E878F9E012F5F3F4F790110E0C7
:103A100000E00E94AB0760935202709353028093C0
:103A20005402909355028AE492E00E94A50A97FD01
:103A300002C00C947F2B0E94AB07809052029090A2
:103A40005302A0905402B0905502681979098A096E
:103A50009B0980904E0290904F02A0905002B0902F
:103A60005102681579058A059B05E8F2E1E0F0E06E
:103A7000EC0FFD1FE00FF11F10820530110568F0FB
:103A800045E050E06FE871E0CE0101960E943939BF
:103A9000892B19F487EC98E093C7F6016081718156
:103AA000C60105960E945C0DF6011282008111810B
:103AB000F60183819481009751F0FC0120813181CE
:103AC000F60134832383B8010E944912F1CF168E88
:103AD000CF57DF4FD982C882C158D040CD57DF4F72
:103AE00019821882C358D040CB57DF4F19821882F1
:103AF000C558D040C957DF4F1882C758D04021E081
:103B000030E02C0F3D1FC857DF4F39832883C8583A
:103B1000D040C557DF4F1882CB58D040C457DF4F35
:103B2000D982C882CC58D0404AE0B601665E7F4F49
:103B3000CE018F579F4F0E94AD1A8C01892B69F4DB
:103B4000C657DF4F8881CA58D040882331F0F6012C
:103B5000868D83FF02C003E010E0CD57DF4F8881E0
:103B60009981C358D040009751F0CF57DF4FE8817B
:103B7000F981C158D040608171810E9449120115BC
:103B80001105F1F083E896E00E94560BF801EE0F64
:103B9000FF1FEC53FC4F859194910E94560B80E8D7
:103BA00096E00E9469138AE492E00E94C70A181600
:103BB00019060CF092C58AE492E00E94A50AF3CFA0
:103BC000CF57DF4FD982C882C158D04085E991E0F4
:103BD000CD57DF4F99838883C358D04083E0CB57BC
:103BE000DF4F8883C558D040CA57DF4F1881C65869
:103BF000D04010781068CA57DF4F1883C658D0409D
:103C0000CE018F579F4F0E946814009709F465C535
:103C1000FC018481882309F460C51068CA57DF4F0E
:103C20001883C658D040CE018F579F4F0E9468140A
:103C3000DC01009709F479C01496EC911497E250D6
:103C4000ED3008F072C0F0E0E85DF14E0C945137B1
:103C50009A1E951E981EC41E951E951E951E951E95
:103C6000351E951E851E951EC81E8D919D910D9029
:103C7000BC91A02D8115F0E89F07A105B10508F0C2
:103C800054C0BC016D3991E0790709F4FAC40CF015
:103C900005C16437F1E07F0709F4C8C20CF0BEC06B
:103CA000663331E0730709F466C30CF0A2C06D32CD
:103CB00051E0750709F429C26F3281E0780709F4F1
:103CC00036C36C3291E0790709F427C2643D71056F
:103CD00011F40C94D6260CF0B6C66E3C710509F4AE
:103CE0005AC70CF059C66536710511F40C94652855
:103CF0000CF0E9C564367105C1F48091FD028111B3
:103D00000E9409170E944419E8C48D919D910D905D
:103D1000BC91A02D8C019D0110582F4F3F4F0115D4
:103D200011052140310508F4ACCF80ED93E048C681
:103D30008D919C910E940E0FC251DF4F2883CE5E61
:103D4000D040C151DF4F3883CF5ED040C051DF4FEC
:103D50004883C05FD040CF50DF4F5883C15FD04011
:103D6000CE50DF4F6883C25FD040C151DF4F8880A3
:103D70009980AA80BB80CF5ED040223039F12330B9
:103D800089F1213091F608C08D919C910496D2CF93
:103D90008D909D90AD90BC9020E030E040E057ECDD
:103DA000C501B4010E94383787FDBFCF20E03EEF48
:103DB0004FEF56E4C501B4010E94653418160CF4A7
:103DC000B4CFC501B4010E9402375CCFD501C40154
:103DD0009058AF4FBF4F0097A140B10508F0A5CF55
:103DE000B40150CF811480E89806A104B104C0F357
:103DF0009CCF6933E1E07E0709F4A2C36337F1E0A9
:103E00007F0709F48CC1673321E0720709F05ECFA8
:103E100061E080912601909127017CC1603931E0F9
:103E2000730709F4AFC3CCF46D3751E0750709F49B
:103E3000A4C26E3781E0780709F427C3653791E0A3
:103E4000790709F043CF6D3781E0780709F4EFC2B5
:103E50006E37714009F4E7C140C46339E1E07E0781
:103E600009F492C35CF4613921E0720709F02ECFA6
:103E700061E080912801909129014CC16A3931E0BB
:103E8000730709F4A3C36B3941E0740709F01ECF2F
:103E900061E080912A0190912B013CC16B3552E089
:103EA000750709F440C40CF085C0643F91E07907C0
:103EB00009F409C40CF069C0693DF1E07F0719F20B
:103EC000623E21E0720709F483C3683D31E0730765
:103ED00009F0FCCEA0902801B0902901CF57DF4F08
:103EE000D982C882C158D04023EAE22E21E0F22EC6
:103EF000CD57DF4FF982E882C358D04018E0CB5746
:103F0000DF4F1883C558D040CA57DF4F8881C65845
:103F1000D04080788068CA57DF4F8883C658D04029
:103F2000CE018F579F4F0E94E215F501618772877E
:103F300083879487CF57DF4FD982C882C158D0403A
:103F4000CD57DF4FF982E882C358D040CB57DF4FBF
:103F50001883C558D040CA57DF4F8881C658D04013
:103F600080788068CA57DF4F8883C658D040CE011A
:103F70008F579F4F0E94E2159B01AC016FE573E0E4
:103F800088E693E00E94DD16A8C3683542E0740716
:103F900009F4C0C3693552E0750709F496C3653F5B
:103FA00081E0780709F092CE61E080912C01909138
:103FB0002D01B0C0693A92E0790709F46BC40CF0A6
:103FC00072C0603AF2E07F0709F407C4613A22E068
:103FD000720709F438CF6F3932E0730709F076CEF3
:103FE00000912E0110912F010115110509F475C3DF
:103FF000CF57DF4FD982C882C158D04089E991E0BC
:10400000CD57DF4F99838883C358D04089E0CB5781
:10401000DF4F8883C558D040CA57DF4F8881C658C4
:10402000D04080788068CA57DF4F8883C658D04018
:10403000CE018F579F4F0E94E215611571058105D2
:10404000910529F0F8016187728783879487CF579C
:10405000DF4FD982C882C158D04089E991E0CD575D
:10406000DF4F99838883C358D04089E0CB57DF4F17
:104070008883C558D040CA57DF4F8881C658D04082
:1040800080788068CA57DF4F8883C658D040CE01F9
:104090008F579F4F0E94E2159B01AC016EE073E0C9
:1040A00088E193E06FCF643843E0740709F409C4F2
:1040B000ACF46A3A82E0780709F008CEE0912E016C
:1040C000F0912F01309709F408C381E081A342EDFC
:1040D00052E06EED72E083EE92E04AC1653893E003
:1040E000790709F4E6C36738E3E07E0709F0EECD0F
:1040F00080913001909131010E94130C4CEB52E001
:1041000062EC72E087EC92E033C161E080912401BF
:10411000909125010E941819E0C260E0F7CFA090AD
:104120002401B0902501CF57DF4FD982C882C158F2
:10413000D04069E9E62E61E0F62ECD57DF4FF982D7
:10414000E882C358D04019E0CB57DF4F1883C558D9
:10415000D040CA57DF4F8881C658D04080788068E9
:10416000CA57DF4F8883C658D040CE018F579F4F24
:104170000E94E215F5016187728783879487CF5784
:10418000DF4FD982C882C158D040CD57DF4FF98266
:10419000E882C358D040CB57DF4F1883C558D04072
:1041A000CA57DF4F8881C658D04080788068CA5788
:1041B000DF4F8883C658D040CE018F579F4F0E9453
:1041C000E2159B01AC0166EB73E080EC93E00E948A
:1041D000DD16CF57DF4FD982C882C158D040CD57A6
:1041E000DF4FF982E882C358D040CB57DF4F1883A6
:1041F000C558D040CA57DF4F8881C658D040807814
:104200008068CA57DF4F8883C658D040CE018F5789
:104210009F4F0E94E2156093190170931A018093D9
:104220001B0190931C010E94A10D57C2A090240174
:10423000B0902501CF57DF4FD982C882C158D040F6
:1042400053EAE52E51E0F52ECD57DF4FF982E88293
:10425000C358D04018E0CB57DF4F1883C558D04023
:10426000CA57DF4F8881C658D04080788068CA57C7
:10427000DF4F8883C658D040CE018F579F4F0E9492
:10428000E215F501658776878787908BCF57DF4FDB
:10429000D982C882C158D040CD57DF4FF982E88219
:1042A000C358D040CB57DF4F1883C558D040CA57AA
:1042B000DF4F8881C658D04080788068CA57DF4F6A
:1042C0008883C658D040CE018F579F4F0E94E21579
:1042D0009B01AC0169EA73E082EB93E00E94DD167A
:1042E000CF57DF4FD982C882C158D040CD57DF4F5A
:1042F000F982E882C358D040CB57DF4F1883C558A6
:10430000D040CA57DF4F8881C658D0408078806837
:10431000CA57DF4F8883C658D040CE018F579F4F72
:104320000E942A1590931801809317017CCF009169
:104330002401109125010E94AB07F801618B728B5B
:10434000838B948B85849684A784B088DC01CB0111
:10435000880D991DAA1DBB1D858B968BA78BB08FD1
:1043600081E080A34AE953E060EA73E085EA93E0E4
:104370000E947713B2C160E04CCDA0902601B090AE
:104380002701CF57DF4FD982C882C158D04049E9B1
:10439000E42E41E0F42ECD57DF4FF982E882C35876
:1043A000D04019E0CB57DF4F1883C558D040CA57CB
:1043B000DF4F8881C658D04080788068CA57DF4F69
:1043C0008883C658D040CE018F579F4F0E94E21578
:1043D000F5016187728783879487CF57DF4FD98232
:1043E000C882C158D040CD57DF4FF982E882C35808
:1043F000D040CB57DF4F1883C558D040CA57DF4F46
:104400008881C658D04080788068CA57DF4F88833B
:10441000C658D040CE018F579F4F0E94E2159B0196
:10442000AC016BE873E085E993E00E94DD16CF579D
:10443000DF4FD982C882C158D04089E991E0CD5779
:10444000DF4F99838883C358D04089E0CB57DF4F33
:104450008883C558D040CA57DF4F8881C658D0409E
:1044600080788068CA57DF4F8883C658D040CE0115
:104470008F579F4F0E94E2156093130170931401B0
:104480008093150190931601CECEA0902601B09096
:104490002701CF57DF4FD982C882C158D04033EAB5
:1044A000E32E31E0F32ECD57DF4FF982E882C35877
:1044B000D04018E0CB57DF4F1883C558D040CA57BB
:1044C000DF4F8881C658D04080788068CA57DF4F58
:1044D0008883C658D040CE018F579F4F0E94E21567
:1044E000F501658776878787908BCF57DF4FD98215
:1044F000C882C158D040CD57DF4FF982E882C358F7
:10450000D040CB57DF4F1883C558D040CA57DF4F34
:104510008881C658D04080788068CA57DF4F88832A
:10452000C658D040CE018F579F4F0E94E2159B0185
:10453000AC016DE773E086E893E00E94DD1673CE70
:1045400000912601109127010E94AB07F801618BB1
:10455000728B838B948B85849684A784B088DC01CE
:10456000CB01880D991DAA1DBB1D858B968BA78B32
:10457000B08F81E080A34DE653E063E773E088E706
:1045800093E0F6CE60E075CC0091280110912901EE
:104590000E94AB07F801658776878787908B8184B7
:1045A0009284A384B484DC01CB01880D991DAA1DDB
:1045B000BB1D818B928BA38BB48B81E0858B4FE4E9
:1045C00053E065E573E08AE593E0D2CE60E061CC2C
:1045D000A0902A01B0902B01CF57DF4FD982C8821B
:1045E000C158D04093EAE92E91E0F92ECD57DF4F24
:1045F000F982E882C358D04018E0CB57DF4F1883C8
:10460000C558D040CA57DF4F8881C658D0408078FF
:104610008068CA57DF4F8883C658D040CE018F5775
:104620009F4F0E94E215F501618772878387948707
:10463000CF57DF4FD982C882C158D040CD57DF4F06
:10464000F982E882C358D040CB57DF4F1883C55852
:10465000D040CA57DF4F8881C658D04080788068E4
:10466000CA57DF4F8883C658D040CE018F579F4F1F
:104670000E94E2159B01AC0160E473E089E493E0E1
:1046800081CC00912A0110912B010E94AB07F80107
:10469000658776878787908B81849284A384B4848E
:1046A000DC01CB01880D991DAA1DBB1D818B928B4E
:1046B000A38BB48B81E0858B4FE253E065E373E01D
:1046C0008AE393E055CE60E070CC80912E0190910A
:1046D0002F0161E0009709F01DCDC6010E94BB12B9
:1046E000CB50DF4F0FB6F894DEBF0FBECDBFDF91CA
:1046F000CF911F910F91FF90EF90DF90CF90BF90DF
:10470000AF909F908F907F906F905F904F903F9071
:104710002F90089580912E0190912F0160E00097D5
:1047200009F0F8CCDACF00912E0110912F0101157C
:10473000110599F20E94AB074B015C01F801818AD7
:10474000928AA38AB48A85859685A785B089880DC3
:10475000991DAA1DBB1D858B968BA78BB08FFF243F
:10476000F394F2A261857285838594850E946A34F0
:104770009B01AC0160E070E080E89FE30E9490360E
:1047800020E030E040E05FE30E94CB3420E030E006
:104790004AE754E40E94CB34F801818E928EA38EB6
:1047A000B48E20E030E040E05FE30E9424360E94B7
:1047B0000937860E971EA81EB91EF801858E968EA3
:1047C000A78EB0A283A18F2583A3F4A24EE153E06C
:1047D00064E273E089E293E0CBCDA0902E01B0902B
:1047E0002F01A114B10409F478CFCF57DF4FD9823C
:1047F000C882C158D04083EAE82E81E0F82ECD5718
:10480000DF4FF982E882C358D04018E0CB57DF4F22
:104810001883C558D040CA57DF4F8881C658D0404A
:1048200080788068CA57DF4F8883C658D040CE0151
:104830008F579F4F0E94E215F5016587768787871E
:10484000908BCF57DF4FD982C882C158D040CD5707
:10485000DF4FF982E882C358D040CB57DF4F18832F
:10486000C558D040CA57DF4F8881C658D04080789D
:104870008068CA57DF4F8883C658D040CE018F5713
:104880009F4F0E94E2159B01AC016FEF72E088E040
:1048900093E078CBE0912E01F0912F01309709F44D
:1048A0001CCF11A249EE52E064EF72E089EF92E072
:1048B0005FCD61E080913001909131010E94F31849
:1048C0000CCF60E0F7CF6636710509F4E3C86936AE
:1048D000710509F02ACACF57DF4FD982C882C15863
:1048E000D04082E092E0CD57DF4F99838883C35850
:1048F000D04086E0CB57DF4F8883C558D040CA5799
:10490000DF4F8881C658D04080788068CA57DF4F13
:104910008883C658D040CE018F579F4F0E9468149D
:10492000009709F4C7C6FC018481863009F0C2C62D
:10493000CE018F579F4F0E948114182F0E94AB0702
:10494000AB01BC018091FD02882301F1112309F420
:10495000B3C681E08093FE024093FF0250930003B0
:104960006093010370930203E091EF02F091F00273
:10497000309719F084810E94D707E091F102F091FD
:10498000F202309719F084810E94D707412F6BEF14
:1049900073E08AE094E040C2613D710509F494C17E
:1049A00094F46F3C710509F429C1603D710509F06B
:1049B000BCC98091FD02882309F453C182EF95E0C0
:1049C0000E9469138ACE623D710509F4B7C1633D47
:1049D000710509F0AAC9CF57DF4FD982C882C158E3
:1049E000D04089E991E0CD57DF4F99838883C35840
:1049F000D04089E0CB57DF4F8883C558D040CA5795
:104A0000DF4F8881C658D04080788068CA57DF4F12
:104A10008883C658D040CE018F579F4F0E94E21521
:104A20004B015C018092130190921401A092150138
:104A3000B09216010E94A10DA501940161E375E0F9
:104A40008FE395E09FCA6A3D710509F488C20CF0B6
:104A500081C0673D710509F416C2E4F5653D710535
:104A600009F4DDC1663D710509F05FC9CF57DF4F1D
:104A7000D982C882C158D0408DEC91E0CD57DF4F2C
:104A800099838883C358D04088E0CB57DF4F888311
:104A9000C558D040CA57DF4F8881C658D04080786B
:104AA0008068CA57DF4F8883C658D040CE018F57E1
:104AB0009F4F0E942A158C0190930F0180930E0145
:104AC0000E94A10D980150E040E063E874E082E9A3
:104AD00094E058CA683D710509F409C2693D710541
:104AE00009F023C9CF57DF4FD982C882C158D040BF
:104AF0008FED91E0CD57DF4F99838883C358D04025
:104B000087E0CB57DF4F8883C558D040CA57DF4F67
:104B10008881C658D04080788068CA57DF4F888324
:104B2000C658D040CE018F579F4F0E94E2154B01CF
:104B30005C018092040190920501A0920601B0925E
:104B400007010E94A10DA501940165E474E08DE4C4
:104B500094E018CA693EF3E07F07B9F054F46B3D66
:104B6000710509F435C2683E734009F0DEC860E0A3
:104B70000DC0643145E0740761F06531754009F09E
:104B8000D4C861E08DEC93E0C5CA61E083EF93E0A7
:104B9000C1CA60E0F7CFCF57DF4FD982C882C15872
:104BA000D0408CEA91E0CD57DF4F99838883C3587A
:104BB000D0408BE0CB57DF4F8883C558D040CA57D1
:104BC000DF4F8881C658D04080788068CA57DF4F51
:104BD0008883C658D040CE018F579F4F0E94B11492
:104BE000182F809312010E94A10D212F30E050E078
:104BF00040E068E676E085E796E0C4C9CF57DF4F2E
:104C0000D982C882C158D0408CEA91E0CD57DF4F9D
:104C100099838883C358D0408BE0CB57DF4F88837C
:104C2000C558D040CA57DF4F8881C658D0408078D9
:104C30008068CA57DF4F8883C658D040CE018F574F
:104C40009F4F0E94B114182F80932F020E94A10D34
:104C5000212F30E050E040E06FE476E08DE596E013
:104C600091C9CF57DF4FD982C882C158D04088EB55
:104C700091E0CD57DF4F99838883C358D04085E0BA
:104C8000CB57DF4F8883C558D040CA57DF4F888144
:104C9000C658D04080788068CA57DF4F8883C6588E
:104CA000D040CE018F579F4F0E94B114182F809390
:104CB00011010E94A10D212F30E050E040E069ED8C
:104CC00075E087EE95E05EC98091FD02882319F0BA
:104CD0008CE795E075CECF57DF4FD982C882C15897
:104CE000D04088EB91E0CD57DF4F99838883C3583C
:104CF000D04085E0CB57DF4F8883C558D040CA5796
:104D0000DF4F8881C658D04080788068CA57DF4F0F
:104D10008883C658D040CE018F579F4F0E94B11450
:104D2000182F809310010E94A10D212F30E050E038
:104D300040E062E675E081E795E024C9CF57DF4F98
:104D4000D982C882C158D04089E991E0CD57DF4F60
:104D500099838883C358D04089E0CB57DF4F88833D
:104D6000C558D040CA57DF4F8881C658D040807898
:104D70008068CA57DF4F8883C658D040CE018F570E
:104D80009F4F0E94E2154B015C01809219019092A5
:104D90001A01A0921B01B0921C010E94A10DA50155
:104DA00094016AE475E087E595E0ECC88091FD0226
:104DB000882319F08FEC94E003CECF57DF4FD982D0
:104DC000C882C158D0408EEB91E0CD57DF4F998318
:104DD0008883C358D0408EE0CB57DF4F8883C558B7
:104DE000D040CA57DF4F8881C658D040807880684D
:104DF000CA57DF4F8883C658D040CE018F579F4F88
:104E00000E948114182F80932E020E94A10D412F21
:104E100065EB74E084EC94E00E9440135ECCCF57C5
:104E2000DF4FD982C882C158D04083EA91E0CD5784
:104E3000DF4F99838883C358D04088E0CB57DF4F3A
:104E40008883C558D040CA57DF4F8881C658D040A4
:104E500080788068CA57DF4F8883C658D040CE011B
:104E60008F579F4F0E942A158C01909318018093B1
:104E700017010E94A10D980150E040E06DE974E037
:104E80008AEA94E07FC8CF57DF4FD982C882C158E1
:104E9000D04083EA91E0CD57DF4F99838883C35890
:104EA000D04088E0CB57DF4F8883C558D040CA57E1
:104EB000DF4F8881C658D04080788068CA57DF4F5E
:104EC0008883C658D040CE018F579F4F0E942A1525
:104ED0008C0190930D0180930C010E94A10D98010B
:104EE00050E040E06CE674E088E794E04BC8CF57B0
:104EF000DF4FD982C882C158D04086ED91E0CD57AE
:104F0000DF4F99838883C358D04088E0CB57DF4F69
:104F10008883C558D040CA57DF4F8881C658D040D3
:104F200080788068CA57DF4F8883C658D040CE014A
:104F30008F579F4F0E94E2154B015C018092080140
:104F400090920901A0920A01B0920B010E94A10D5A
:104F5000A501940168E574E081E694E013C8CF5799
:104F6000DF4FD982C882C158D04087EE91E0CD573B
:104F7000DF4F99838883C358D04087E0CB57DF4FFA
:104F80008883C558D040CA57DF4F8881C658D04063
:104F900080788068CA57DF4F8883C658D040CE01DA
:104FA0008F579F4F0E94E2154B015C0180920001D8
:104FB00090920101A0920201B09203010E94A10D02
:104FC000A501940162E374E08AE394E00C94C21FAB
:104FD00008EC10E0C251DF4F19830883CE5ED04049
:104FE000CF57DF4FD982C882C158D0408FEE91E0B1
:104FF000CD57DF4F99838883C358D04088E0CB5783
:10500000DF4F8883C558D040CA57DF4F8881C658C4
:10501000D04080788068CA57DF4F8883C658D04018
:10502000BE0162517F4FCE018F579F4F0E94B01536
:105030007C01C251DF4F19830883CE5ED040CF5729
:10504000DF4FD982C882C158D04088EF91E0CD5758
:10505000DF4F99838883C358D04089E0CB57DF4F17
:105060008883C558D040CA57DF4F8881C658D04082
:1050700080788068CA57DF4F8883C658D040BE0109
:1050800062517F4FCE018F579F4F0E94B0158C0108
:1050900081E08093A503F092A803E092A703109308
:1050A000AA030093A903970150E040E064E274E092
:1050B0008DE294E00E94DD16980150E040E065E149
:1050C00074E08FE194E00C94C21F0E94AB074B0187
:1050D0005C0180922A0290922B02A0922C02B09244
:1050E0002D0288E393E00E94130C8092F9029092C3
:1050F000FA02A092FB02B092FC0281E08093FD02D2
:105100001092FE0280910903E091F102F091F20207
:10511000A091EF02B091F0023090050320900603B9
:10512000882361F080E0309709F08681109779F448
:10513000932D882309F4F6C280E013C0109711F074
:1051400016968C913097A1F3282F868103C0282FC3
:1051500016968C91932D222309F4E2C2882361F3E1
:10516000822D9093050380930603890F80931E037D
:10517000813818F080E880931E0380911E0381110E
:105180005FC110921C03309205032092060388E74A
:1051900092E00E9469138BE292E00E94560B80918C
:1051A00011010E94651788E192E00E94560B8091E0
:1051B00010010E94651787E092E00E94560B8091D3
:1051C00012010E94651785EF91E00E94560B8091B5
:1051D0002F020E94651782EE91E00E94560B80918B
:1051E0002E02882309F463C28AE191E00E94560BE3
:1051F0000E94E61283EC91E00E94560B6091190127
:1052000070911A0180911B0190911C010E946616F9
:1052100081EB91E00E94560B609113017091140193
:1052200080911501909116010E94661680EA91E026
:105230000E94560B609117017091180190E080E078
:105240004AE00E949F138DE891E00E94560B609106
:105250000E0170910F0190E080E04AE00E949F13E0
:105260008AE791E00E94560B60910C0170910D014C
:1052700090E080E04AE00E949F138DE691E00E945A
:10528000560B609108017091090180910A0190917B
:105290000B010E94661681E691E00E94560B609118
:1052A00004017091050180910601909107010E940F
:1052B000661685E591E00E94560B609100017091A1
:1052C000010180910201909103010E9466160E94E3
:1052D000E612E0901701F090180110E000E0209134
:1052E000190130911A0140911B0150911C016091EC
:1052F000B20381E591E00E949816E0909803F09047
:10530000990300919A0310919B032091130130910E
:1053100014014091150150911601609191038CE4A4
:1053200091E00E94981620917E0330917F03409176
:1053300080035091810360917B0387E491E00E9498
:105340006916209168033091690340916A03509176
:105350006B036091650381E491E00E94691660919E
:105360004A038CE391E00E94231360913B0381E3A5
:1053700091E00E942313409103046091F90388E2B5
:1053800091E00E94F7124091DD036091D3038FE119
:1053900091E00E94F71280912A0290912B02A09135
:1053A0002C02B0912D02E0912001F0912101808327
:1053B0009183A283B383E0912201F0912301808342
:1053C0009183A283B383E0912401F091250180832E
:1053D0009183A283B383E0912601F091270180831A
:1053E0009183A283B383E0912801F0912901808306
:1053F0009183A283B383E0912A01F0912B018083F2
:105400009183A283B383E0912C01F0912D018083DD
:105410009183A283B383E0912E01F0912F01309705
:1054200021F080839183A283B383E0913001F091D6
:10543000310180879187A287B3874FC990E090CED2
:1054400080E480937C0080917A00806480937A006D
:1054500080917A0086FDFCCF009178001091790050
:10546000012E000C220B330BC501B40160277127FC
:105470008227932780169106A206B30611F00E9498
:105480005C340091050310910603100F113850F0A1
:10549000E0E80E9FC0011124612F70E00E943D37AB
:1054A000062F10E8F2E3CD50DF4FF883C35FD04002
:1054B000E8E2F3E020E111922A95E9F7802F8117C5
:1054C000A0F4E82FE695E695E695F0E0E751FD4F6C
:1054D000982F977021E030E001C0220F9A95EAF7EB
:1054E00097AD922B97AF8F5FEACFFF24FA94F10E1E
:1054F0004F2C512C712C612C3FEF431A530A630A35
:10550000730AFF2009F45EC00E940D34A3019201CA
:105510000E948935E62ECB50DF4F6883C55FD040AF
:105520008F2D0E946F06CC50DF4F8883C45FD04020
:105530008E2D0E946F06F7FC16C0EF2DE695E695BE
:10554000E695F0E0E751FD4F97AD2F2D277041E034
:1055500050E002C0440F551F2A95E2F79A018823B4
:1055600059F1292B27AFCB50DF4F5881C55FD04071
:1055700057FD1BC0EE2DE695E695E695F0E0E75168
:10558000FD4F27AD9E2D977041E050E002C0440FC3
:10559000551F9A95E2F7CA01CC50DF4F5881C45F7E
:1055A000D040552361F0822B87AFFA9481E0481AEE
:1055B000510861087108A5CF20952923D3CF809584
:1055C0008223F2CFFF24F394EE24E39477247394A0
:1055D000F11698F48F2D0E946F06682E8FEF8F0DB5
:1055E0000E946F06681206C0E3947E1408F47E2CB5
:1055F000F394EECFEE24E394FBCF93E0971568F499
:10560000CD50DF4FE881C35FD040E150CD50DF4F38
:10561000E883C35FD040E1114BCF30920503209265
:10562000060310921D030E9485192B013C01609115
:1056300010037091110380911203909113030E9443
:105640006A34A30192010E94CB340E940937009171
:10565000140310911503209116033091170360175E
:1056600071078207930778F00091180310911903CE
:1056700020911A0330911B0360177107820793076B
:1056800010F48B019C0100932403109325032093B5
:1056900026033093270381E080931C03809220032C
:1056A00090922103A0922203B092230370CD84E153
:1056B00091E09CCD10E042C980912003909121039C
:1056C000A0912203B09123038090FF0290900003E9
:1056D000A0900103B090020388199909AA09BB0997
:1056E000840F951FA61FB71F80932003909321035B
:1056F000A0932203B09323031092FE0247C98A307D
:10570000910511F40C94361DF70181937F010F5F11
:105710001F4F0F37110511F00C94091D0C94361D05
:1057200081118CCE109205031092060310921E0375
:1057300024CDCB01BA010C947C38CB010C94F33707
:10574000CB010C9457371F920F920FB60F92112472
:105750002F933F938F939F93AF93BF938091420278
:1057600090914302A0914402B091450230914102D0
:1057700023E0230F2D3758F50196A11DB11D20936D
:1057800041028093420290934302A0934402B0935B
:1057900045028091460290914702A0914802B09143
:1057A00049020196A11DB11D8093460290934702C4
:1057B000A0934802B0934902BF91AF919F918F91FE
:1057C0003F912F910F900FBE0F901F90189526E8D4
:1057D000230F0296A11DB11DD2CF1F920F920FB6BB
:1057E0000F9211242F933F934F935F936F937F9367
:1057F0008F939F93AF93BF93EF93FF93E091340107
:10580000F09135010995FF91EF91BF91AF919F9173
:105810008F917F916F915F914F913F912F910F9059
:105820000FBE0F901F9018951F920F920FB60F92F8
:1058300011242F933F934F935F936F937F938F9395
:105840009F93AF93BF93EF93FF93E0913201F09159
:1058500033010995FF91EF91BF91AF919F918F9186
:105860007F916F915F914F913F912F910F900FBE5C
:105870000F901F9018951F920F920FB60F92112440
:105880002F933F934F935F936F937F938F939F9348
:10589000AF93BF93EF93FF9380913D0290913E02AF
:1058A000A0913F02B0914002892B8A2B8B2BD1F122
:1058B00090913C02E0913A02F0913B02808189276D
:1058C000808380913D0290913E02A0913F02B09171
:1058D0004002181619061A061B069CF480913D0218
:1058E00090913E02A0913F02B09140020197A10920
:1058F000B10980933D0290933E02A0933F02B09382
:105900004002FF91EF91BF91AF919F918F917F9155
:105910006F915F914F913F912F910F900FBE0F901C
:105920001F90189580911F010E94D707EACF1F9200
:105930000F920FB60F9211242F933F934F935F93C3
:105940006F937F938F939F93AF93BF93EF93FF9347
:105950008AE492E00E94E70AFF91EF91BF91AF9134
:105960009F918F917F916F915F914F913F912F9177
:105970000F900FBE0F901F9018951F920F920FB6A9
:105980000F9211242F938F939F93EF93FF93E091A6
:105990005A02F0915B028081E0916002F091610215
:1059A00082FD1BC09081809163028F5F8F73209175
:1059B0006402821741F0E0916302F0E0E65BFD4F84
:1059C000958F80936302FF91EF919F918F912F911B
:1059D0000F900FBE0F901F9018958081F4CFEF921B
:1059E000FF920F931F93CF93DF93EC01162F7A0151
:1059F000022F6C8382E08D8382E791E098878F830A
:105A00001E82188219821A821B8262E0812F0E94F4
:105A10002307098742E050E0B701CE010D960E94AE
:105A20004F391F86812F0E94CC0621E0892B09F473
:105A300020E02A87812F0E94CC0621E0892B09F4DF
:105A400020E02B87812F0E94CC0621E0892B09F4CE
:105A500020E02C87188A198A1A8A1B8A1C8A1D8AB8
:105A60001E8A1F8A188E84E1898F1A8E1B8E1C8EC7
:105A70001D8E1E8E1F8E18A219A21BA21AA21DA275
:105A80001CA2DF91CF911F910F91FF90EF9008958D
:105A90003F924F925F926F927F928F929F92AF92BE
:105AA000BF92CF92DF92EF92FF920F931F93CF930B
:105AB000DF9310924D0210924C0288EE93E0A0E02A
:105AC000B0E080934E0290934F02A0935002B093A7
:105AD00051028EE491E090934B0280934A0285EC50
