:100000000C9454050C94142A0C94ED290C947C0542
:100010000C947C050C947C050C947C050C943B2A78
:100020000C947C050C947C050C947C050C947C054C
:100030000C947C050C947C050C947C050C947C053C
:100040000C94A3290C947C050C94BD2A0C94972A3B
:100050000C947C050C947C050C947C050C947C051C
:100060000C947C050C947C05546F6F44656570009E
:100070004E6F4D656D6F727900496E76616C696483
:10008000496E70757400496E636F6D706C65746550
:10009000496E70757400456D707479496E70757431
:1000A000004F6B00CDCCCC3D0AD7233C17B7D138DD
:1000B00077CC2B329595E6241FB14F0A00002041E2
:1000C0000000C84200401C4620BCBE4CCA1B0E5A51
:1000D000AEC59D74227D007B226C6576656C223AEC
:1000E00022303031222C22646576696365223A22FF
:1000F000434F4E54524F4C4C4552222C2264657350
:1001000063223A225052207468726573686F6C647F
:100110002063617070656420617420007B226C65CF
:1001200076656C223A22303037222C22646576695B
:100130006365223A22434F4E54524F4C4C45522253
:100140002C226576656E74223A22454E44222C227A
:1001500074696D657374616D70223A004C48005289
:1001600048007B226C6576656C223A223030302262
:100170002C2270725F73746570223A004C455645AC
:10018000525F4C48004C455645525F5248004D491D
:1001900043524F53434F5045004C49434B004C4151
:1001A0005345520050554D50320050554D5000436C
:1001B0005545320043554500222C22747261636517
:1001C0005F696E74657276616C223A002C226163FD
:1001D000746976655F6C65766572223A22007B22CF
:1001E0006C6576656C223A22303030222C226465B0
:1001F00076696365223A22434F4E54524F4C4C4528
:1002000052222C22706172616469676D223A225019
:10021000524F47524553534956455F524154494FF7
:10022000222C2274696D656F7574223A007B226CF2
:100230006576656C223A22303037222C226465764E
:10024000696365223A22434F4E54524F4C4C4552FB
:10025000222C226576656E74223A22535441525400
:10026000222C2274696D657374616D70223A307D41
:100270000046495245440074657374004D49435229
:100280004F53434F504500494E444550454E444519
:100290004E54006D6F6465004C4153455200434F0E
:1002A0004E54494E47454E54006D6F6465004C41B5
:1002B000534552006475726174696F6E004C41530E
:1002C0004552006672657175656E6379004C4153E5
:1002D00045520046495245440074657374004C41D0
:1002E00053455200464952454400746573740050AA
:1002F000554D5032006475726174696F6E005055CF
:100300004D503200464952454400746573740050A4
:10031000554D50006475726174696F6E0050554D93
:100320005000464952454400746573740043554576
:1003300032006475726174696F6E00435545320016
:100340006672657175656E63790043554532004686
:100350004952454400746573740043554500647503
:10036000726174696F6E0043554500667265717500
:10037000656E63790043554500A1009600860079BB
:1003800000700068007B226C6576656C223A223032
:100390003036222C2264657363223A22436F6D6DDE
:1003A000616E64206E6F7420666F756E64227D00CE
:1003B00073657373696F6E5F706175736564004315
:1003C0004F4E54524F4C4C455200746573745F6DE0
:1003D0006F646500434F4E54524F4C4C455200469B
:1003E0004952454400746573745F636861696E00C7
:1003F000434F4E54524F4C4C4552007472616365EA
:100400005F696E74657276616C00434F4E54524F53
:100410004C4C45520070725F7374657000434F4ED0
:1004200054524F4C4C455200726174696F00434FF7
:100430004E54524F4C4C4552007265696E666F7255
:10044000636564004C455645525F4C4800726569CF
:100450006E666F72636564004C455645525F4C484A
:1004600000726174696F004C455645525F4C4800FC
:1004700074696D656F7574004C455645525F4C4804
:10048000007265696E666F72636564004C4556451F
:10049000525F5248007265696E666F7263656400F0
:1004A0004C455645525F524800726174696F004C6A
:1004B000455645525F52480074696D656F7574000A
:1004C0004C455645525F524800227D007B226C65A8
:1004D00076656C223A22303036222C2264657363B2
:1004E000223A220044495341524D45440041524D65
:1004F000454400227D002C2264657363223A220069
:10050000222C2270696E223A007B226C6576656C23
:10051000223A22303031222C2264657669636522CA
:100520003A2200222C2276616C7565223A00222C38
:1005300022706172616D223A22007B226C657665C1
:100540006C223A22303030222C2264657669636551
:10055000223A220066616C73650074727565002230
:100560002C2276616C7565223A00222C2270617211
:10057000616D223A22007B226C6576656C223A22FC
:10058000303030222C22646576696365223A22007D
:10059000227D00222C2276616C7565223A2200228F
:1005A0002C22706172616D223A22007B226C65768A
:1005B000656C223A22303030222C226465766963E1
:1005C00065223A220044495341524D45440041526C
:1005D0004D454400227D002C2264657363223A223B
:1005E000007B226C6576656C223A22303031222CF9
:1005F00022646576696365223A224D4943524F531E
:10060000434F5045222C2270696E223A0066616C7D
:1006100073650074727565002C226475726174696B
:100620006F6E223A002C226672657175656E637971
:10063000223A00222C2261726D6564223A007B22EC
:100640006C6576656C223A22303030222C2264654B
:1006500076696365223A220066616C736500747284
:100660007565002C226475726174696F6E223A00A0
:10067000222C2261726D6564223A007B226C6576C1
:10068000656C223A22303030222C22646576696310
:1006900065223A220066616C7365007472756500AC
:1006A000222C2261726D6564223A007B226C657691
:1006B000656C223A22303030222C226465766963E0
:1006C00065223A220066616C73650074727565007C
:1006D00066616C73650074727565002C22726569C1
:1006E0006E666F72636564223A00222C2261726D1D
:1006F0006564223A007B226C6576656C223A223072
:100700003030222C22646576696365223A22000229
:100710007B226C6576656C223A22303030222C22A6
:10072000646576696365223A22434F4E54524F4CBA
:100730004C4552222C22736B65746368223A2270F6
:10074000722E696E6F222C2276657273696F6E222B
:100750003A2276322E302E30222C22626175645F6E
:1007600072617465223A3131353230302C22736334
:10077000686564756C65223A2250524F4752455362
:10078000534956455F524154494F227D002C226502
:100790006E645F74696D657374616D70223A002CCC
:1007A000226576656E74223A224C49434B222C22F4
:1007B00073746172745F74696D657374616D7022B6
:1007C0003A00222C2270696E223A007B226C6576F8
:1007D000656C223A22303037222C226465766963B8
:1007E00065223A22002C22656E645F74696D657320
:1007F00074616D70223A002C226576656E74223A1F
:10080000225354494D222C2273746172745F7469AF
:100810006D657374616D70223A007B226C6576653C
:100820006C223A22303037222C2264657669636567
:10083000223A224C41534552222C2270696E223AB0
:10084000002C226576656E74223A2254494D455338
:1008500054414D50222C2274696D657374616D7022
:10086000223A007B226C6576656C223A2230303861
:10087000222C22646576696365223A224D494352EF
:100880004F53434F5045222C2270696E223A00008C
:10089000000000240027002A000000000025002896
:1008A000002B00000000002300260029000404049F
:1008B0000404040404020202020202030303030309
:1008C00003010204081020408001020408102001E6
:1008D00002040810200000000800020100000304C8
:1008E00007000000000000000054494D454F5554DA
:1008F00000494E41435449564500414354495645E9
:1009000000227D002C226F7269656E746174696FBC
:100910006E223A22002C22656E645F74696D6573E5
:1009200074616D70223A00222C2273746172745FBC
:1009300074696D657374616D70223A002C2265765E
:10094000656E74223A225052455353222C22636C16
:10095000617373223A22007B226C6576656C223AC1
:1009600022303037222C22646576696365223A2270
:100970005357495443485F4C45564552222C2270E8
:10098000696E223A002C227363686564756C656435
:100990005F6174223A002C22746172676574223A96
:1009A000007B226C6576656C223A22303036222C30
:1009B000226572726F725F636F6465223A22455FCF
:1009C00050454E44494E475F46554C4C222C2264BC
:1009D000657363223A2250656E64696E67206163B5
:1009E00074696F6E2071756575652066756C6C2015
:1009F000E2809420616374696F6E2064726F70701E
:100A00006564222C22616374696F6E5F747970650E
:100A1000223A005354494D00494E465553494F4ED2
:100A200000494E465553494F4E00544F4E450054D1
:100A30004F4E45004C415345520050554D505F328A
:100A40000050554D50004355455F32004355450019
:100A50002C22656E645F74696D657374616D7022BC
:100A60003A00222C2273746172745F74696D65732D
:100A700074616D70223A002C226576656E74223A9C
:100A80002200222C2270696E223A007B226C65764D
:100A9000656C223A22303037222C226465766963F5
:100AA00065223A220000482B11241FBECFEFD8E068
:100AB000DEBFCDBF12E0A0E0B1E0EEE3FFE602C092
:100AC00005900D92A033B107D9F725E0A0E3B2E07D
:100AD00001C01D92A33DB207E1F715E0C4E5D5E0E2
:100AE00004C02197FE010E949035C335D107C9F794
:100AF0000E94582E0C949D370C940000CF93DF93E6
:100B0000EC0188819981DC01ED91FC910190F081EB
:100B1000E02D64E270E00995009741F02FE1FC01BF
:100B2000238321E02283DF91CF91089521E02A835E
:100B3000FACFCF92DF92EF92FF920F931F93E5EFE0
:100B4000F2E0128A138A91E0948B858B868B178A48
:100B5000608F89E086A784E687A712AA84E0809345
:100B60007F031092430383E0809344031092450374
:100B7000109246031092470310924803C0906F05ED
:100B8000D0907005E0907105F0907205C092490315
:100B9000D0924A03E0924B03F0924C0310924D0323
:100BA00085E080934E030C0D1D1D2E1D3F1D0093EF
:100BB0004F03109350032093510330935203C0907E
:100BC0003405D0903505E0903605F0903705C09299
:100BD0005303D0925403E0925503F09256031092BF
:100BE000570387E0809358030093590310935A03E7
:100BF00020935B0330935C030091E1041091E204C5
:100C00002091E3043091E40400935D0310935E03AC
:100C100020935F03309360039093610340936203DA
:100C2000109263031092640310926503109266039E
:100C30008091B1049091B204A091B304B091B40436
:100C40008093670390936803A0936903B0936A034A
:100C50001F910F91FF90EF90DF90CF9008956093D8
:100C6000B1047093B2048093B3049093B4043091B0
:100C70007F03E3E4F3E020E023130DC03091BC03D5
:100C8000E0E8F3E020E02317B1F04081413071F05B
:100C90002F5F3A96F8CF4081413019F02F5F3A9696
:100CA000EBCF6683778380879187F8CF66837783DE
:100CB00080879187EDCF089590910703992339F0AC
:100CC0009091250321E030E0992319F0089530E058
:100CD00020E09EE1929FF001939FF00D1124EB50D4
:100CE000FD4F858B178AF2CFEBECF3E010823F9635
:100CF00084E0EB3BF807D1F70895833081F028F4C6
:100D0000813099F08230A9F008958730A9F08830B9
:100D1000C9F08430B1F4809180008F7D03C0809150
:100D200080008F7780938000089584B58F7784BD8D
:100D3000089584B58F7DFBCF8091B0008F7780932D
:100D4000B00008958091B0008F7DF9CFCF93DF93ED
:100D5000282F30E0F901EB52F74F8491F901EF535E
:100D6000F74FD491F901E355F74FC491CC23A1F08B
:100D700081110E947D06EC2FF0E0EE0FFF1FED5574
:100D8000F74FA591B491EC91ED2381E090E009F447
:100D900080E0DF91CF91089580E090E0FACF1F933B
:100DA000CF93DF93282F30E0F901EB52F74F849176
:100DB000F901EF53F74FD491F901E355F74FC4917F
:100DC000CC23A9F0162F81110E947D06EC2FF0E0B4
:100DD000EE0FFF1FE756F74FA591B4918FB7F89428
:100DE000EC91111108C0D095DE23DC938FBFDF9109
:100DF000CF911F910895DE2BF8CFCF93DF9390E032
:100E0000FC01EF53F74F24918355974FFC018491D8
:100E10008823D1F090E0880F991FFC01E157F74F2C
:100E2000A591B491FC01E756F74FC591D49162307A
:100E300071F49FB7F8943C91822F809583238C9313
:100E4000E8812E2B28839FBFDF91CF9108958FB724
:100E5000F894EC912E2B2C938FBFF6CF3FB7F894DC
:100E60008091520290915302A0915402B091550288
:100E700026B5A89B05C02F3F19F00196A11DB11DF5
:100E80003FBFBA2FA92F982F8827BC01CD01620F31
:100E9000711D811D911D42E0660F771F881F991FEC
:100EA0004A95D1F708958F929F92AF92BF92CF92B9
:100EB000DF92EF92FF920E942E074B015C0184E6C5
:100EC000C82ED12CE12CF12C0E942E07681979092B
:100ED0008A099B09683E734081059105A8F321E0CA
:100EE000C21AD108E108F10888EE880E83E0981E46
:100EF000A11CB11CC114D104E104F10429F7FF9035
:100F0000EF90DF90CF90BF90AF909F908F9008951B
:100F10002FB7F89460914E0270914F028091500269
:100F2000909151022FBF08950F931F93CF93DF939A
:100F3000C091F302D091F402209781F081E08A837E
:100F40000E948807088519852A853B85601B710BDF
:100F5000820B930B6C837D838E839F83DF91CF9174
:100F60001F910F91089508959091040189130BC06A
:100F7000EFE0F7E0E4919FEF90930401E13049F056
:100F800028F0E23061F060E00C94CF0610926E0021
:100F9000FACF90916F009D7F90936F00F4CF909166
:100FA00070009D7F9093700091E09093B0009091BD
:100FB000B100987F94609093B1001092B300E3CF9A
:100FC0004F925F926F927F928F929F92AF92BF9259
:100FD000CF92DF92EF92FF920F931F93CF93DF9305
:100FE00000D000D01F92CDB7DEB78B0129013A01A6
:100FF000909104018917C9F09F3F09F47EC00F90BA
:101000000F900F900F900F90DF91CF911F910F9144
:10101000FF90EF90DF90CF90BF90AF909F908F9018
:101020007F906F905F904F900895EFE0F7E094917C
:101030009D8397FDE4CF61E00E94FD068D818823AA
:1010400021F09D81923009F04AC14801B12CA12CB8
:1010500060E072E18AE790E0A50198010E94DC332C
:1010600029833A834B835C8369017A0181E0C81A42
:10107000D108E108F1089FEFC916D104E104F10499
:1010800009F00CF401C160E472E48FE090E0A50186
:1010900098010E94DC3369017A0181E0C81AD10805
:1010A000E108F1089D81923009F0A2C08FEFC816C7
:1010B000D104E104F10409F00CF4E6C160E970ED3B
:1010C00083E090E0A50198010E94DC3369017A0178
:1010D00091E0C91AD108E108F1088FEFC816D104D0
:1010E000E104F10411F00CF07FC183E09091B100B4
:1010F000987F892B8093B100CFC080930401EFE0EB
:10110000F7E094919D839F3F09F479CF913041F1AD
:1011100050F0923009F446C09D8197FD70CF61E098
:101120000E94FD068ECF14BC15BC94B5926094BD90
:1011300095B5916095BD282F30E0F901E355F74F43
:10114000E491F0E0EE0FFF1FE756F74F4591549101
:10115000F901EF53F74FE491E09339021D826BCF11
:10116000109280001092810090918100986090937D
:10117000810090918100916090938100282F30E050
:10118000F901E355F74FE491F0E0EE0FFF1FE7564A
:10119000F74F45915491F901EF53F74FE491E093E4
:1011A000380249CF1092B0001092B1009091B00077
:1011B00092609093B0009091B10091609093B100D3
:1011C000282F30E0F901E355F74FE491F0E0EE0FFE
:1011D000FF1FE756F74F45915491509343024093B8
:1011E0004202F901EF53F74FE491E093440223CF19
:1011F0009FEFC916D104E104F10409F00CF46DC0AD
:1012000068E478EE81E090E0A50198010E94DC336B
:1012100069017A0181E0C81AD108E108F1089D81CD
:10122000992309F4FAC08FEFC816D104E104F10440
:1012300011F00CF0FBC0EFC064E274EF80E090E0CE
:10124000A50194010E94DC3369017A0181E0C81A8A
:10125000D108E108F10885E09FEFC916D104E10447
:10126000F10409F008F442CF62E17AE780E090E00F
:10127000A50194010E94DC3369017A0181E0C81A5A
:10128000D108E108F108E5C081E09D8191112ECFE0
:1012900095B5987F892B85BD2FEF3FEFA9014114AC
:1012A00051046104710409F043C09D81913009F437
:1012B0005EC0923009F46DC09111A1CEC7BC2093DD
:1012C0003E0230933F02409340025093410280918E
:1012D0006E00826080936E0092CE82E0D6CFB12CF9
:1012E000A12C60E072E18AE790E0A50198010E94DC
:1012F000DC3369017A0181E0C81AD108E108F108FC
:10130000C114D10491E0E906F10404F591E08D8166
:10131000813011F680918100887F892B8093810034
:101320002FEF3FEFA9014114510461047104F9F05A
:10133000D801AA0FBB1FA30192010E94FB3328EE24
:1013400033E040E050E00E944534AFCF68E478EEEF
:1013500081E090E0A50198010E94DC3369017A01E7
:1013600081E0C81AD108E108F10893E0D0CFD0920B
:101370008900C092880020933A0230933B02409348
:101380003C0250933D0280916F00826080936F0019
:1013900036CEC092B300209345023093460240936C
:1013A00047025093480280917000826080937000E1
:1013B00026CE84E09FEFC916D104E104F10409F0C0
:1013C00008F466CFC980DA80EB80FC808AE0F5946F
:1013D000E794D794C7948A95D1F781E0C81AD108C9
:1013E000E108F10885E054CF68E478EE81E090E010
:1013F000A50198010E94DC3369017A0181E0C81AD5
:10140000D108E108F1089FEFC916D104E104F10405
:1014100011F00CF011CF84E069CE83E09FEFC91684
:10142000D104E104F10409F00CF432CF62E17AE76F
:1014300080E090E0A50194010E94DC3369017A010B
:1014400081E0C81AD108E108F1089D81992309F4C7
:10145000B0CF86E09FEFC916D104E104F10409F092
:1014600008F444CEC980DA80EB80FC809AE0F594E1
:10147000E794D794C7949A95D1F781E0C81AD10818
:10148000E108F10887E032CE82E030CEAF92BF9221
:10149000CF92DF92EF92FF920F931F93CF93DF9340
:1014A0006C017B018B01040F151FEB015E01AE186F
:1014B000BF08C017D10759F06991D601ED91FC9191
:1014C0000190F081E02DC6010995892B79F7C501BE
:1014D000DF91CF911F910F91FF90EF90DF90CF9010
:1014E000BF90AF900895FC01538D448D252F30E0BF
:1014F000842F90E0821B930B541710F0CF96089521
:1015000001970895FC01918D828D981761F0A28D4D
:10151000AE0FBF2FB11D5D968C91928D9F5F9F7313
:10152000928F90E008958FEF9FEF0895FC01918DC9
:10153000828D981731F0828DE80FF11D858D90E036
:1015400008958FEF9FEF0895FC01918D228D892FD3
:1015500090E0805C9F4F821B91098F7399270895BB
:1015600086E592E00E94A40A21E0892B09F420E09C
:10157000822F089580E090E0892B29F00E94B00A24
:1015800081110C9400000895FC01A48DA80FB92FBF
:10159000B11DA35ABF4F2C91848D90E001968F739B
:1015A0009927848FA689B7892C93A089B1898C91BA
:1015B000837080648C93938D848D981306C0028809
:1015C000F389E02D80818F7D80830895EF92FF92D3
:1015D0000F931F93CF93DF93EC0181E0888F9B8D56
:1015E0008C8D98131AC0E889F989808185FF15C010
:1015F0009FB7F894EE89FF896083E889F989808133
:101600008370806480839FBF81E090E0DF91CF9101
:101610001F910F91FF90EF900895F62E0B8D10E023
:101620000F5F1F4F0F731127E02E8C8D8E110CC092
:101630000FB607FCFACFE889F989808185FFF5CFDD
:10164000CE010E94C40AF1CFEB8DEC0FFD2FF11DEE
:10165000E35AFF4FF0829FB7F8940B8FEA89FB891A
:1016600080818062CFCF0F931F93CF93DF938C0144
:10167000D0E0C0E0F801EC0FFD1F6491662341F05B
:1016800086E592E00E94E60A892B11F02196F2CFBE
:10169000CE01DF91CF911F910F910895CF93DF93EA
:1016A000EC01888D8823B9F0AA89BB89E889F9897A
:1016B0008C9185FD03C0808186FD0DC00FB607FCAF
:1016C000F7CF8C9185FFF2CF808185FFEDCFCE01E2
:1016D0000E94C40AE9CFDF91CF910895CF92DF92A3
:1016E000EF92FF921F93CF93DF93EC016A017B018E
:1016F0008C810E94A60611E0892B09F410E08B85ED
:10170000181721F0CD8ADE8AEF8AF88E8D899E899E
:10171000AF89B88DB701A601481B590B6A0B7B0B2B
:10172000898D90E0B0E0A0E084179507A607B70781
:1017300098F48C85181781F01C878A851817A9F0F2
:10174000CA8EDB8EEC8EFD8EEAA1FBA1309721F0D4
:10175000B701A601898509951B87DF91CF911F915C
:10176000FF90EF90DF90CF900895CE8EDF8EE8A2AD
:10177000F9A2ECA1FDA1309779F389850995ECCF09
:10178000FC01158213861486158616861786108A24
:10179000118A128A138A148A158A168A138E8681F0
:1017A000882311F0848183830895CF92DF92EF9292
:1017B000FF920F931F93CF93DF93EC018E818111E2
:1017C00003C08D89882369F18C810D851E852F8545
:1017D00038896A017B01C01AD10AE20AF30A97012B
:1017E000860137FD18C009891A892B893C89401B5D
:1017F000510B620B730B14161506160617065CF0D8
:1018000061E0DF91CF911F910F91FF90EF90DF90FA
:10181000CF900C94CF0660E00E94CF068D89811195
:101820001D8ADF91CF911F910F91FF90EF90DF9074
:10183000CF900895CF93DF93EC0161E088810E94FF
:10184000CF0681E08C870E9488076D877E878F870F
:10185000988BDF91CF910895CF92DF92EF92FF9214
:10186000CF93DF93EC016A017B0169857A858B85D3
:101870009C850E94BD329B01AC0160E070E080E875
:101880009FE30E94E33420E030E040E05FE30E9409
:101890001E3320E030E04AE754E40E941E33C98E34
:1018A000DA8EEB8EFC8E20E030E040E05FE30E94B9
:1018B00077340E945C35C60ED71EE81EF91ECD8E09
:1018C000DE8EEF8EF8A28BA191E089278BA3DF91AA
:1018D000CF91FF90EF90DF90CF900895CF92DF925D
:1018E000EF92FF92CF93DF93EC016A017B0189892C
:1018F0009A89AB89BC89AB019601281B390B4A0B2D
:101900005B0BDA01C901B7FD49C08D899E89AF899A
:10191000B88DAB019601281B390B4A0B5B0BDA0122
:10192000C901181619061A061B06C4F18AA18823D4
:10193000A9F189859A85AB85BC850197A105B1057B
:1019400051F461E08C81DF91CF91FF90EF90DF90B7
:10195000CF900C94CF068D8D9E8DAF8DB8A1AB012D
:101960009601281B390B4A0B5B0BDA01C901B7FD45
:1019700004C0A601CE010E942C0C8C819BA199234E
:1019800011F061E0E0CF60E00E94CF061BA2DF9182
:10199000CF91FF90EF90DF90CF90089560E08C8121
:1019A0000E94CF061BA28D899E89AF89B88DC81A67
:1019B000D90AEA0AFB0A8AA1882331F01C141D0403
:1019C0001E041F040CF41AA28CA1882301F31C141A
:1019D0001D041E041F04DCF61CA2D9CF8F929F9217
:1019E000AF92BF92CF92DF92EF92FF920F931F932D
:1019F000CF93DF93EC018E81811104C088A18823ED
:101A000009F445C07B0189899A89AB89BC894A015F
:101A10005B01881A990AAA0ABB0AC501B40197FD9D
:101A200053C00D891E892F89388D4A015701801AAC
:101A3000910AA20AB30A9501840110161106120632
:101A400013060CF441C02A8D2223A9F10C8D1D8DA3
:101A50002E8D3F8D200F311F2115310511F421E00E
:101A600030E0FB8C50E040E00E9445346017710785
:101A7000D8F4F1100AC069857A8520E030E0A90128
:101A80008C810E94E00781E08B8F81E0898FDF915C
:101A9000CF911F910F91FF90EF90DF90CF90BF906B
:101AA000AF909F908F900895FF2079F38C810E94D2
:101AB000B4071B8EEACF69857A8520E030E0A90162
:101AC0008C810E94E007E1CF898D882301F38C810E
:101AD0000E94B407198E1B8E88A18823C1F218A218
:101AE000D6CF6F3FA9F0E62FE295EF7044E0E49F78
:101AF00090011124DC01ED91FC91E20FF31F6F7056
:101B000082819381B6E06B9F800D911D1124089511
:101B100090E080E00895982F80336CF08A3324F0B1
:101B20008F3524F08B3724F481E0089581341CF044
:101B300081E09B350CF080E00895FC0182858111E5
:101B40000AC0A781B085CD010196908787838C91CB
:101B5000818781E08287818508951F93CF93DF93EA
:101B6000EC01162F0E949D0D811306C01A8681E09C
:101B7000DF91CF911F91089580E0FACF0F931F93CB
:101B8000CF93DF938C01EB018991882369F0C80121
:101B90000E949D0D882379F0FE0131979081981362
:101BA0000DC0F8011286F0CF90E080E0DF91CF9178
:101BB0001F910F91089582E090E0F8CF83E090E0CC
:101BC000F5CFCF93DF93EC01CE010E949D0D8B30BA
:101BD0004CF489305CF4882359F081E08E8390E0E6
:101BE00080E00BC08D3011F08032B9F71A86ECCF4F
:101BF0008E81811105C081E090E0DF91CF91089541
:101C000082E090E0FACFDC0152969C91529791507D
:101C100084E0989F900111245096ED91FC91E20F81
:101C2000F31F228133812115310579F041818081B3
:101C3000481758F481E0840F818386E0489F200D87
:101C4000311D11242115310521F460E070E08FEF82
:101C50000895B901892F8295807F840F0895DF92BE
:101C6000EF92FF920F931F93CF93DF93EC017B01D1
:101C7000D12C688979898A89D816E0F484E0D89EC5
:101C800080011124060F171FD80112966D917C91C7
:101C90006115710541F0D701ED91FC910280F3814E
:101CA000E02DC7010995F80113821282108211827A
:101CB000D394DFCF1A8A8FEF8C8BC617D70761F0CA
:101CC000D701ED91FC910280F381E02DC7010995C8
:101CD000D98BC88B84E08B8BDF91CF911F910F91B3
:101CE000FF90EF90DF9008950F931F9300914902AA
:101CF00010914A0220914B0230914C0241E08091B8
:101D0000000190910101895A954009F440E06091E9
:101D1000050180910A030E9499051F910F91089572
:101D20004F925F926F927F928F929F92AF92BF92EB
:101D3000CF92DF92EF92FF920F931F93CF93DF9397
:101D400000D000D01F92CDB7DEB7DC012C912B3232
:101D5000E1F12D32D9F50196EE24E394FC012081C6
:101D600030ED320F3A3010F02E3291F58C0160E0F8
:101D700070E0CB01F801219130ED832E820E39E025
:101D8000381508F444C06A3949E97407840749E101
:101D9000940708F046C0AAE0B0E09B01AC010E94A5
:101DA000FB33912CB12CA12C24013501409450948B
:101DB00060947094461657066806790690F1680D8F
:101DC000791D8A1D9B1D8F01D5CF0196E12CC6CFB1
:101DD000198229813A814B815C816D8170E080E0BC
:101DE00090E00F900F900F900F900F90DF91CF9198
:101DF0001F910F91FF90EF90DF90CF90BF90AF9029
:101E00009F908F907F906F905F904F9008952111D9
:101E100008C0EE2051F161307105810550E8950749
:101E2000A0F0F12CBAE08B2E912CA12CB12C6115D5
:101E3000710530E883079105F8F0A50194010E942F
:101E40004534CA01B901F394F2CF22E029839B0102
:101E5000AC0188279927DC01821B930BA40BB50BDF
:101E60008A839B83AC83BD83B4CF23E029836A83B9
:101E70007B838C839D83ADCFF801D8012D918D019B
:101E800030ED320F3A3010F4F394F6CF2E3201F5E4
:101E90008F010F5F1F4FF8010F5F1F4F2081A0EDD3
:101EA000DA2ED20EB9E0BD1598F06C3CECEC7E0752
:101EB000ECE08E07910578F7AAE0B0E09B01AC0159
:101EC0000E94FB336D0D711D811D911DFA94E3CFAE
:101ED00020812F7D10E000E0253409F050C02181E1
:101EE0002D32B1F53296CC24C394DF0110E000E02E
:101EF0002F2D0F2C000C330BEAE0BE2EFD01DD90E0
:101F000040ED4D0D4A30B0F5B09EA001B19E500D90
:101F100011240D2DDD0C110B00531109040F151F99
:101F2000A801420F531F4732510544F3CC20B9F0AA
:101F300080E090E0A0E0B0E8E11003C080E090E035
:101F4000DC0121E029838A839B83AC83BD8341CF5D
:101F50002B3219F03196C12CC8CF3296FCCF80E0DD
:101F600090E0A0E8BFEFE110ECCF80E090E0A0E8C7
:101F7000BFE7E7CFCC2019F0119501951109208119
:101F8000211126CF0F0D111DF7FC1A950E94BD32AD
:101F90004CEBA42E40E0B42E101611063CF0119527
:101FA0000195110954EAA52E50E0B52ED12CC12C73
:101FB00001151105E9F0F6E0CF16D104A9F000FFF4
:101FC0000DC0F601EE0FFF1FEE0FFF1FEA0DFB1D08
:101FD00025913591459154910E941E331595079591
:101FE0002FEFC21AD20AE4CF60E070E080EC9FE7E6
:101FF000E110905821E029836A837B838C839D8341
:10200000E8CECF92DF92EF92FF920F931F93CF9380
:10201000DF937C016B018A01FC01C081D1814F3FBC
:10202000510509F0B0F4E881F9810480F581E02DD3
:102030004B5F5F4FCE010995009759F0FC01038378
:10204000DF91CF911F910F91FF90EF90DF90CF9094
:102050000895E881F9810280F381E02DB601CE0177
:10206000099581E0F701828390E080E0E9CF1F933A
:10207000CF93DF93EC01162F6A817B816115710587
:1020800089F04C815D81FB0183818417150651F431
:10209000440F551F4F5F5F4F888199810E94011047
:1020A0009B838A838A819B81009759F02C813D8193
:1020B000A9014F5F5F4F5D834C83820F931FFC012B
:1020C0001483DF91CF911F9108959F92AF92BF9299
:1020D000CF92DF92EF92FF920F931F93CF93DF93F4
:1020E00000D000D01F92CDB7DEB78C010E949D0DAD
:1020F000D82EF8011286F12CE12C60EFC62EC80113
:102100000E949D0DF8011286D81609F4B3C0811102
:1021100013C082E090E00F900F900F900F900F90FF
:10212000DF91CF911F910F91FF90EF90DF90CF90B3
:10213000BF90AF909F9008958C3509F099C0C80169
:102140000E949D0D882329F3E3E9F1E0853709F02A
:1021500083C0F801128654E0952EB12CA12CC80141
:102160000E949D0D8823A9F2813434F4805380317C
:1021700030F083E090E0CFCF8F7D8753F8CF44E0FD
:10218000AA0CBB1C4A95E1F7A82AF80112869A947A
:102190009110E5CFC501985D8115944020F475013B
:1021A000F3E0FF22ACCFC5019C5D81159440A8F4FB
:1021B00083E0B822B701762F6627770F770F6A2959
:1021C0007B2990E080E001966038710581059105DA
:1021D00040F4C8010E94371092CFB50190E080E032
:1021E000F3CF1982262F2F7320682A8326E0969535
:1021F0008795779567952A95D1F76032710580F4B8
:10220000606C6B835E01E4E0AE0EB11CF50162917F
:102210005F01662309F473CFC8010E943710F6CF1F
:10222000262F2F7320682B8386E0769567958A95F5
:10223000E1F76031710538F4606E6C835E01F5E0A2
:10224000AF0EB11CE3CF60686C83CD825E0126E0E7
:10225000A20EB11CDBCF32969081992309F489CF6D
:102260008913F9CF8181882309F483CFF80112867D
:10227000682FAFCF82819381892B19F484E090E09D
:102280004ACF90E080E047CF6F927F928F929F92EB
:10229000AF92BF92CF92DF92EF92FF920F931F9374
:1022A000CF93DF93EC012A813B812C5F3F4F4C8120
:1022B0005D814430510588F58901F90180E0942F52
:1022C000B22FAE2FA21BA91730F4F190A1E0F110AC
:1022D000A0E08A2BF6CF811120C082E0EB018C8335
:1022E000FB01802F8B1B891728F4E80189918E014F
:1022F0008193F7CF640F751FFB011082DF91CF919F
:102300001F910F91FF90EF90DF90CF90BF90AF9013
:102310009F908F907F906F9008958B01F901E40F4B
:10232000F51F1082888199814C815D81DC011396B3
:10233000ED91FC913A01E89477F86901C60CD71C3D
:102340003097C1F0A381A615170481F449017F01DC
:10235000B4E0EB0EF11C8C149D0429F1D401AD9076
:102360004D01D701BD907D01AB14A9F30190F0811F
:10237000E02DE6CF6A817B810E940110FC01A881DB
:10238000B98113968D919C911497918380831496B3
:10239000FC93EE9313971B821A8285E0E8018C83ED
:1023A000F983E883ABCF82818F5F8283F6CFDB0135
:1023B000ED91FC9111970280F381E02DBC01CD01DC
:1023C0000994AF92BF92CF92DF92EF92FF920F9358
:1023D0001F93CF93DF93EC018B018C8180FF24C08E
:1023E000A881B981FB018381948130E020E00097CE
:1023F000D9F0A817B907D1F5F8016081718112965B
:102400008C911297815012968C93129781110CC067
:102410008D919C9111972115310529F1F901918335
:102420008083CD010E94D7118C81807631F1209775
:1024300021F1F8805801F5E1AF0EB11C8FEFF816CD
:10244000D1F06F2DC5010E94710D6C01FC01E5807A
:10245000B8010E94E111F801818DF6018083F80135
:10246000F18EFE2CEBCF94838383DBCF9C01FC01A8
:1024700080819181BCCFF882F9821C82DF91CF915B
:102480001F910F91FF90EF90DF90CF90BF90AF9092
:1024900008950F931F93CF93DF93EC010881198167
:1024A0008B819C81009749F0FC01208131813C8324
:1024B0002B83B8010E94D711F3CF68817981CE01B7
:1024C0000596DF91CF911F910F910C942F0EFC0177
:1024D00001900020E9F73197AF01481B590BBC016F
:1024E00086E592E00C94460A8F929F92AF92BF923B
:1024F0000F931F93CF93DF93CDB7DEB7A1970FB69E
:10250000F894DEBF0FBECDBF19A2423008F44AE0F6
:102510008E010F5D1F4F842E912CB12CA12CA50193
:1025200094010E944534E62FB901CA01EA30F4F45F
:10253000E05DD801EE938D01232B242B252B79F719
:1025400090E080E0109719F0CD010E946712A196EB
:102550000FB6F894DEBF0FBECDBFDF91CF911F91B4
:102560000F91BF90AF909F908F900895E95CE1CF5D
:102570004AE00C947412682F70E090E080E04AE02A
:102580000C947412CF92DF92EF92FF92CF93DF936D
:102590006C01990FEE08FF08F7FE19C06DE286E5A1
:1025A00092E00E94E60AEC0166277727CB016C19BE
:1025B0007D098E099F094AE00E9474128C0F9D1FAD
:1025C000DF91CF91FF90EF90DF90CF9008954AE098
:1025D000C701B601DF91CF91FF90EF90DF90CF90D0
:1025E0000C947412CF93DF930E94330BEC0186EAB4
:1025F00091E00E9467128C0F9D1FDF91CF9108958B
:102600000F931F93CF938C01C62FFC01638381EE40
:1026100095E00E94330BF8018081082E000C990B85
:102620000E94C21287ED95E00E94330B85EC95E085
:10263000CC2311F08EEC95E00E94330B84ED95E0F5
:10264000CF911F910F910C94F212EF92FF920F9382
:102650001F93CF93DF937C018B01EA018BEA95E016
:102660000E94330BC7010E94330B8FE995E00E9453
:10267000330BC8010E94330B83E995E00E94330BB2
:10268000CE010E94330B80E995E0DF91CF911F913D
:102690000F91FF90EF900C94F212CF93DF936DE7C0
:1026A00086E592E00E94E60AEC0186EA91E00E944B
:1026B00067128C0F9D1FDF91CF9108954F925F920B
:1026C0006F927F928F929F92AF92BF92EF92FF9202
:1026D0000F931F93CF93DF932A013B0148015901C8
:1026E000853009F480C008F061C0843009F46FC0FF
:1026F000E091FB02F091FC021481CFE2DAE04CE4BD
:10270000E42E4AE0F42E8BE89AE00E94330BC701D6
:102710000E94330B82E89AE00E94330B812F110F45
:10272000990B0E94C21287E79AE00E94330BCE01F8
:102730000E94330B82E69AE00E94330B8091AD0435
:102740009091AE04A091AF04B091B004A3019201A6
:10275000281B390B4A0B5B0BCA01B9010E94B81246
:1027600080E59AE00E94330B8091AD049091AE0415
:10277000A091AF04B091B004A5019401281B390BBE
:102780004A0B5B0BCA01B9010E94B812DF91CF91CD
:102790001F910F91FF90EF90BF90AF909F908F90FF
:1027A0007F906F905F904F900C944D13863039F16D
:1027B000873009F09DCFE0910303F0910403148169
:1027C000C3E1DAE084E3E82E8AE0F82E9CCFE091C2
:1027D000FD02F091FE021481CAE2DAE036E4E32E53
:1027E0003AE0F32E90CFE091FF02F09100031481C4
:1027F000C1E2DAE021E4E22E2AE0F22E84CFE09179
:102800000103F09102031481C8E1DAE09AE3E92EB2
:102810009AE0F92E78CFCF92DF92EF92FF920F934A
:102820001F93CF93DF93EC018881813009F4D1C0ED
:102830006A017B01813090F08230D1F487E093E02F
:102840000E94C00B85E293E0DF91CF911F910F9121
:10285000FF90EF90DF90CF900C94C00B8981853072
:1028600009F47DC070F48330F1F1843009F45AC06A
:10287000DF91CF911F910F91FF90EF90DF90CF905C
:102880000895863009F488C0873091F7E0910303FA
:10289000F0910403309761F38681882349F381A185
:1028A0008111E6CF8E819F81A885B985C18AD28AA0
:1028B000E38AF48A8C0D9D1DAE1DBF1D858B968B02
:1028C000A78BB08F81E082A3CF010E942C0C0E81D8
:1028D0001F81288539850C0D1D1D2E1D3F1DB7013B
:1028E000A60187E01CC0E091FB02F091FC0230974A
:1028F00009F4BECF8681882309F4BACF0E811F81E7
:1029000028853985C18AD28AE38AF48A0C0D1D1D77
:102910002E1D3F1D058B168B278B308F83E00E9469
:102920005E13A6CFE091FD02F091FE02309709F40C
:102930009FCF8681882309F49BCF0E811F81288534
:102940003985C18AD28AE38AF48A0C0D1D1D2E1D99
:102950003F1D058B168B278B308F84E0E0CFE091F5
:10296000FF02F0910003309709F482CF868188231B
:1029700009F47ECF0E811F8128853985C586D686CC
:10298000E786F08A0C0D1D1D2E1D3F1D018B128B3D
:10299000238B348B85E0C3CFE0910103F0910203D8
:1029A000309709F465CF8681882309F461CF0E81C1
:1029B0001F8128853985C586D686E786F08A0C0D65
:1029C0001D1D2E1D3F1D018B128B238B348B86E02A
:1029D000A6CF8981E091F502F091F602882339F0C3
:1029E000813009F045CFE091F702F091F80230977D
:1029F00009F43ECFCE80DF80E884F9844C0D5D1D64
:102A00006E1D7F1D418B528B638B748B31CF2F9248
:102A10003F924F925F926F927F928F929F92AF926E
:102A2000BF92CF92DF92EF92FF920F931F93CF93BB
:102A3000DF9300D000D0CDB7DEB72A013B010DE314
:102A4000809F90011124312C8901C90181589C4F2C
:102A50009A8389838AE0282E49019EE4890E911C7D
:102A6000E981FA818081381608F08AC0A32CB12C44
:102A7000C801239C800D911D11248B509D4FFC019A
:102A8000E25BFF4F20812330B9F0805B9F4FFC0158
:102A9000C080D180E280F380C114D104E104F1044C
:102AA00069F4B301A201C401329C800D911D11246F
:102AB0008B509D4F0E940B143394D2CFC40CD51C65
:102AC000E61CF71CEBECF3E030E020E080818111A4
:102AD00026C0FFE0F29FC001F39F900D1124DC019E
:102AE000A354BC4F2A9CF0012B9CF00D1124E00F45
:102AF000F11FED5BFC4F222D01900D922A95E1F71D
:102B00008B509D4FFC01EE52FF4FC082D182E2827A
:102B1000F3828A529F4F21E0FC012083CDCF2F5FAB
:102B20003F4F3F962031310589F681EA99E00E94B6
:102B3000330B2A9CC0012B9C900D1124800F911FF8
:102B40008B509D4F9C838B83FC01E25BFF4F808108
:102B50000E94BB1286E999E00E94330BEB81FC8155
:102B6000E15BFF4F80810E94BB1285E899E00E94E3
:102B7000330BC701B6010E94B8120E944D139CCFBF
:102B80000F900F900F900F90DF91CF911F910F91A9
:102B9000FF90EF90DF90CF90BF90AF909F908F907D
:102BA0007F906F905F904F903F902F9008950F937C
:102BB0001F93CF93DF938C01D62FC42F85EF96E020
:102BC0000E94330BC8010E94330B8AEE96E00E94EC
:102BD000330B80ED96E0DD2311F086ED96E00E9448
:102BE000330B8BED96E00E94330B85EC96E0CC2303
:102BF00011F08BEC96E00E94330BDF91CF911F9187
:102C00000F910C944D130F931F93CF938C01C62FEC
:102C10008BEA96E00E94330BC8010E94330B80EAD6
:102C200096E00E94330B85E996E0CC2311F08BE906
:102C300096E00E94330BCF911F910F910C944D138E
:102C4000CF92DF92EF92FF920F931F93CF938C015D
:102C5000C62F69017A018BE796E00E94330BC80109
:102C60000E94330B80E796E00E94330B88E596E0E4
:102C7000CC2311F08EE596E00E94330B83E696E0BC
:102C80000E94330BC701B6010E94B812CF911F9169
:102C90000F91FF90EF90DF90CF900C944D137F92A7
:102CA0008F929F92AF92BF92CF92DF92EF92FF925C
:102CB0000F931F93CF93DF93EC01762E49015A01B6
:102CC000670178018EE396E00E94330BCE010E94EB
:102CD000330B83E396E00E94330B8DE096E0772080
:102CE00011F083E196E00E94330B85E296E00E94AA
:102CF000330BC501B4010E94B81288E196E00E942E
:102D0000330BC701B6010E94B812DF91CF911F911A
:102D10000F91FF90EF90DF90CF90BF90AF909F907A
:102D20008F907F900C944D13EF92FF920F931F930F
:102D3000CF937C018B01C42F86E795E00E94330B73
:102D4000C7010E94330B8AE695E00E94330BC8014D
:102D50000E94330B8FE595E00E94330B84E595E0EC
:102D6000CC2311F08AE595E00E94330BCF911F919F
:102D70000F91FF90EF900C944D13CF92DF92EF9252
:102D8000FF920F931F93CF93DF938C01EB016901A7
:102D90007A018AE395E00E94330BC8010E94330B4D
:102DA0008EE295E00E94330BCE010E94330B83E24A
:102DB00095E00E94330BC701B6010E94B812DF9163
:102DC000CF911F910F91FF90EF90DF90CF900C94D7
:102DD0004D130F931F93CF93DF93C091F502D091C2
:102DE000F602882321F0C091F702D091F8022097D3
:102DF00009F45BC0613009F452C008F44DC0623080
:102E000009F450C087E599E00E94330B8C810E9441
:102E1000BB128CE399E00E94330BC8010E94330B74
:102E200087E299E00E94330B6A8D7B8D8C8D9D8D9E
:102E30000091AD041091AE042091AF043091B00424
:102E4000601B710B820B930B0E94B81285E199E015
:102E50000E94330B6E8D7F8D88A199A10091AD04E6
:102E60001091AE042091AF043091B004601B710B3F
:102E7000820B930B0E94B81284E099E00E94330BFE
:102E8000CE010D960E94671281E099E0DF91CF910B
:102E90001F910F910C94F2120AEF18E0B3CF01EFDB
:102EA00018E0B0CF09EE18E0ADCFDF91CF911F91C0
:102EB0000F9108959091B504911104C09091B604BA
:102EC000992371F09091B70491110AC06091BC04EC
:102ED000882321F0813021F46091BD040C94E9161F
:102EE0000895CF93DF93EC016E8389E095E00E9413
:102EF000330B8F819885009711F00E94671280E054
:102F000095E00E94330B8C81082E000C990B0E94D7
:102F1000C21286EF94E00E94330B8E8181110AC0A9
:102F200084EE94E00E94330B83EF94E0DF91CF9125
:102F30000C94F2128DEE94E0F5CF60E080910A01DE
:102F400090910B010E94711760E080910C019091AB
:102F50000D010E94711760E080910E0190910F01A8
:102F60000E94711760E080911001909111010E9400
:102F7000711760E080911201909113010E94711706
:102F800060E080911401909115010E94711760E03A
:102F900080911601909117010E947117809118017C
:102FA00090911901009719F060E00E94711760E09C
:102FB00080911A0190911B010C9400139F92AF9283
:102FC000BF92CF92DF92EF92FF920F931F93CF9316
:102FD000DF938A01452B09F468C0E9016B0165960E
:102FE000FC016081CE010E94710DFC01BB24BA94EA
:102FF000892B09F0B5807601E894F7F8AA24A39408
:103000006701C00ED11E99249394309709F44DC0E6
:10301000AA2009F43FC08481843069F0853049F1E9
:10302000823079F5DF010D900020E9F71197CD018D
:103030008E1B9F0B07C00190F081E02D90E080E097
:10304000309781F79F77E816F90621F5D801AC157E
:10305000BD05E1F46B2DCE01DF91CF911F910F9152
:10306000FF90EF90DF90CF90BF90AF909F900C9427
:10307000710DA081B181FD01349613968C9190E081
:10308000E2CF90E080E0F0E0E0E0DDCF9D91819143
:103090009817E9F2A9246B2DCE010E94710DFC0155
:1030A000892B09F4B2CFB580B0CF90E080E0DF91FA
:1030B000CF911F910F91FF90EF90DF90CF90BF9035
:1030C000AF909F900895FC0120813181C9014A96FB
:1030D0004281538164817581009759F0D9015E96D0
:1030E000EC91E03211F090E080E0009711F00C9448
:1030F000DE1790E080E00895CF93DF93EB010E940C
:103100006318009741F0FC012481263021F480816E
:10311000DF91CF9108958881FBCFCF92DF92EF921C
:10312000FF92CF93DF9300D000D01F92CDB7DEB7D0
:103130000E946318DC01009709F445C01496EC91D5
:103140001497E250ED3008F03EC0F0E0E655F74E3F
:103150000C949035D318E318D118E518B718E31874
:10316000E318E318C518E318C518E318E918CC905C
:103170008C2D0F900F900F900F900F90DF91CF91AB
:10318000FF90EF90DF90CF900895CD90DD90ED907F
:10319000FC908FEFC816D104E104F10449F340F329
:1031A00012C08D919C910E94900E3A834B835C8358
:1031B0006D83CA80DB80EC80FD80223051F32330A8
:1031C00041F3213051F0C12CD3CF8D919C910496C5
:1031D000EACFCD90DD90ED90FC9020E030E0A901A9
:1031E000C701B6010E948B3587FDEDCF20E030E0AE
:1031F0004FE753E4C701B6010E94B83218161CF31A
:10320000C701B6010E945C35C62EB2CFCF92DF92C5
:10321000EF92FF92CF93DF9300D000D01F92CDB7F3
:10322000DEB70E946318DC01009709F44AC01496C7
:10323000EC911497E250ED3008F043C0F0E0ED5D02
:10324000F64E0C949035511961194F1965193019C2
:1032500061196119611940196119451961196919D3
:103260006C9170E090E080E00F900F900F900F90C5
:103270000F90DF91CF91FF90EF90DF90CF90089566
:103280006D917D918D919C91EFCF8D919D910D9040
:10329000BC91A02DB7FD15C0BC01CD01E5CF8D912E
:1032A0009C910E94900E3A834B835C836D83CA800D
:1032B000DB80EC80FD80223041F1233041F1213070
:1032C00061F060E070E0CB01CFCF8D919C910496CE
:1032D000E8CFCD90DD90ED90FC9020E030E0A901AA
:1032E000C701B6010E948B3587FDEBCF2FEF3FEF73
:1032F0004FE75FE4C701B6010E94B83218160CF31D
:10330000C701B6010E945C35AFCFF7FCDACFC70129
:10331000B601AACF8F929F92AF92BF92EF92FF9287
:103320000F931F93CF93DF9300D000D000D0CDB781
:10333000DEB779018A01FB0101900020E9F731979E
:10334000E61BF70B9A8389837C836B83ED838F2F36
:103350008F778E83CE0101960E946318009789F1C2
:10336000FC0124812A3041F02C3059F58081918173
:10337000A281B381B7FD25C0CE0101960E94061936
:103380004B015C0181149104A104B104D1F0B70197
:10339000C80186169706A806B90610F4C501B4013F
:1033A00026960FB6F894DEBF0FBECDBFDF91CF914A
:1033B0001F910F91FF90EF90BF90AF909F908F90D3
:1033C000089561E070E080E090E0EACF4F925F9274
:1033D0006F927F92AF92BF92CF92DF92EF92FF9265
:1033E0000F931F93CF93DF939091B504911105C074
:1033F0009091B604992309F4E4C09091B704911117
:10340000E0C0823008F0DDC081110AC0E091F50211
:10341000F091F602309759F481E08093BC04D1C05A
:10342000E091F702F091F802309709F483C0908997
:10343000992309F47CC001891289238934890417EE
:1034400015072607370708F47EC0882309F4C8C08B
:1034500082E08093BD04B5C08F898F5F8F8B9D897B
:10346000891708F4A9C08FA5843658F40E946032E9
:10347000A30192010E94DC338FA5681710F01F8A08
:103480009BC01F8A888D882351F09D899501281B38
:1034900031099217130609F05CF4890F8D8B8B8923
:1034A000823008F089C0B701A6010E94071584C0C8
:1034B00087ED90E00E94330B8D890E94BB1284ED52
:1034C00090E00E94F212EBCFCD8EDE8EEF8EF8A24E
:1034D00073C08DA5811170C089A19AA1ABA1BCA1B7
:1034E000A7019601281B390B4A0B5B0BDA01C901B6
:1034F000B7FD62C08DA19EA1AFA1B8A58C199D0991
:10350000AE09BF09181619061A061B060CF054C09E
:103510008FA5843610F00DA7C2CF0E946032A301A0
:1035200092010E94DC338FA56817A8F345C0882359
:1035300009F472CF81E08DCF1092BC04E091F502C6
:10354000F091F60208C08823B9F31092BD04E0910F
:10355000F702F091F802309781F00091B1041091D8
:10356000B2042091B3043091B404040F151F261F38
:10357000371F018B128B238B348B6A017B01182F31
:10358000C5EFD2E0AA24AA94B12C94E6492E512C7E
:10359000612C712C01E08C89882371F08EA5893013
:1035A00011F0181309C08A89813009F48DCF08F40D
:1035B00053CF823009F48DCF6E9633E0C133D307F9
:1035C00051F7DF91CF911F910F91FF90EF90DF9016
:1035D000CF90BF90AF907F906F905F904F90089585
:1035E00082E01BCFBF92CF92DF92EF92FF920F93B8
:1035F0001F93CF93DF93EC01198D1F3F81F0612F53
:1036000045960E94710DFC018081898F309709F4E5
:1036100077C014828FEF8583BF01812F76C06C0144
:1036200035E0C30ED11CE880F9808F89882341F0F2
:10363000C6010E94030EE62FF72F182F309749F787
:103640001F89988D191324C0103109F459C0110F26
:103650006D897E89D701ED91FC91B4E01B9FA0019B
:103660001124C616D70609F044C00190F081E02D60
:10367000BA01C7010995009709F442C020E1F6019B
:10368000DC0101900D922A95E1F79E8B8D8B188FAE
:103690000D891E898F8921E0280F2F8BE4E08E9FF2
:1036A000C0011124080F191F90E1B92E203111F427
:1036B0008FE0B82EF6E0BF9EB0011124D701ED9146
:1036C000FC910190F081E02DC7010995F8019383E9
:1036D0008283892B09F4B12CD801BC9211961C92DB
:1036E000012B71F0C6010E94030EE62FF72F182F51
:1036F0008DCF0480F581E02DC7010995009729F64B
:1037000081E08A8360E070E08FEFDF91CF911F91BD
:103710000F91FF90EF90DF90CF90BF9008954F9260
:103720005F926F927F928F929F92AF92BF92CF9251
:10373000DF92EF92FF920F931F93CF93DF9300D00E
:1037400000D01F92CDB7DEB78C017B01B42E0E9452
:10375000E10D6C01892B09F048C0C8010E949D0D44
:10376000863609F4A9C124F5873229F08B3561F139
:10377000823209F0A8C1D80115961C921E921497A6
:1037800012968D919C911397892B39F48D919C9170
:103790000E947E05F80193838283C8010E94651010
:1037A0006C01892B11F5B701C8010E9444111DC09D
:1037B000843709F460C18B3709F47BC08E3609F079
:1037C00082C161EC71E060C180E4D70114968C93F2
:1037D0001497E114F10421F08FEF8C9311968C93E0
:1037E000B1101AC025E0C22ED12CC6010F900F9047
:1037F0000F900F900F90DF91CF911F910F91FF903D
:10380000EF90DF90CF90BF90AF909F908F907F9080
:103810006F905F904F900895F8011286C8010E9442
:10382000E10D009751F56DE5C8010E94AD0D8111C4
:10383000DCCFBA94D8011B966D907C90C3010E9496
:10384000F21AA82E4B01672B21F494E0C92ED12C3B
:10385000CCCFF70161816F3F91F0C30145960E9483
:10386000710DDC011596AC92F701A1824B2DB401CC
:10387000C8010E948F1B009739F06C01B6CFD701A9
:103880008C9311968C93F2CFC8010E94E10D0097A2
:10389000A1F76DE5C8010E94AD0D8111A6CF6CE2C4
:1038A000C8010E94AD0D8111C5CF83E0C82ED12C77
:1038B0009CCF80E2F7018483E114F10419F08FEFCB
:1038C00080838183BB2009F48DCFD8011A961C9286
:1038D000C8010E94E10D009781F66DE7C8010E94C2
:1038E000AD0D811182CFBA94F801158214828281C4
:1038F0009381892B49F4808191810E947E05D801B2
:1039000013969C938E931297C8010E949D0D873247
:10391000F9F08232E9F0C8010E949D0DD82E0E9474
:103920008B0D882311F2F80112866D2DC8010E94BB
:103930003710C8010E949D0DD82E0E948B0D811159
:10394000F2CFD80112968D919C91892B41F47DCFB5
:10395000C8010E9465106C01892B09F046CFC8018F
:103960000E94E10D6C01892B09F03FCF6AE3C80189
:103970000E94AD0D882309F498CFD8011296ED91DD
:10398000FC91139714968D919C911597E80FF91F50
:10399000148214966D917C9115977F771B966D908C
:1039A0007C901C9712968D919C910496272F2F77CF
:1039B000BA2DB078AB2EA22AE894A7F89301AC01F7
:1039C0007A2DC7010E94DE176C01009761F5C301D3
:1039D0000E94F21A482E4B01672B09F436CFC3011F
:1039E0000E94F21A582E962FC92ED72EC114D10438
:1039F00009F42BCFF4015582D70111966C916F3FDA
:103A000071F0C30145960E94710DFC014582D701FA
:103A100011965C92B401C8010E94441107C0F701DD
:103A200040825182F7CFB3010E94E1114B2DB601C4
:103A3000C8010E948F1B6C01892B09F0D6CEC801EA
:103A40000E94E10D6C01892B09F0CFCE6DE7C80112
:103A50000E94AD0D8111C9CE6CE2C8010E94AD0D6E
:103A6000882309F422CFC8010E94E10D6C01892B43
:103A700009F43ACFBACE86E0D70114968C93149706
:103A800081E08C9366EB71E0C8010F900F900F906E
:103A90000F900F90DF91CF911F910F91FF90EF90BA
:103AA000DF90CF90BF90AF909F908F907F906F905E
:103AB0005F904F900C94BE0D86E0F70184831082D6
:103AC0006BEB71E0E1CFC8010E949D0D4801FDE064
:103AD0008F0E911CB12C782CA92C803384F08A3362
:103AE00084F43FE3B316A9F0D8011A961C92B3945C
:103AF000F40181934F01C8010E949D0DEECF8B32DE
:103B000081F393ED980F923060F3982F9F7D953459
:103B100041F30B0D111DD8011D961C92872D9A2D76
:103B20000E94900E3A834B835C836D838A819B81D4
:103B3000AC81BD812230A9F0233059F0213009F049
:103B4000B4CE2EE0F701248380839183A283B383D4
:103B50004CCE2AE0F701248380839183A283B38330
:103B600044CE2CE0F7CF4F925F926F927F92AF924C
:103B7000BF92CF92DF92EF92FF920F931F93CF935A
:103B8000DF93CDB7DEB7C25FD1090FB6F894DEBFC1
:103B90000FBECDBF5E012EECA20EB11C82E091E003
:103BA000F50191838083128214821382C5010596E8
:103BB000968B858B178A84E0808F8FEF818F168E8E
:103BC000878F9E012F5F3F4F790110E000E00E9438
:103BD000880760935E0270935F0280936002909307
:103BE000610286E592E00E94820A97FD02C00C9471
:103BF00088290E94880740905E0250905F02609082
:103C000060027090610264197509860997094090F5
:103C10005A0250905B0260905C0270905D026415E5
:103C2000750586059705E8F20F37110561F486E5FD
:103C300092E00E94A40A892B31F086E592E00E946E
:103C4000820A0A97A1F7E1E0F0E0EC0FFD1FE00F18
:103C5000F11F10820530110578F045E050E066EC68
:103C600071E0CE0101960E947837892B29F480E11A
:103C700097E00E94F21262C3F50160817181C50173
:103C800005960E942F0EF501128200811181F50127
:103C900083819481009751F0FC0120813181F501ED
:103CA00034832383B8010E94D711F1CF168ECF57EA
:103CB000DF4FB982A882C158D040CD57DF4F19825B
:103CC0001882C358D040CB57DF4F19821882C5588D
:103CD000D040C957DF4F1882C758D04021E030E0AC
:103CE0002C0F3D1FC857DF4F39832883C858D04059
:103CF000C557DF4F1882CB58D040C457DF4FB98229
:103D0000A882CC58D0404AE0B501665E7F4FCE0114
:103D10008F579F4F0E948F1B8C01892B69F4C657C8
:103D2000DF4F8881CA58D040882331F0F501868D55
:103D300083FF02C003E010E0CD57DF4F88819981F7
:103D4000C358D040009751F0CF57DF4FE881F98139
:103D5000C158D040608171810E94D71101151105B1
:103D6000F1F08CEC94E00E94330BF801EE0FFF1F92
:103D7000E758FC4F859194910E94330B89EC94E0B5
:103D80000E94F21286E592E00E94A40A1816190613
:103D90000CF0D4C286E592E00E94820AF3CFCF579E
:103DA000DF4FB982A882C158D0408CEC91E0CD574A
:103DB000DF4F99838883C358D04083E0CB57DF4FD0
:103DC0008883C558D040CA57DF4F1881C658D040A5
:103DD00010781068CA57DF4F1883C658D040CE01FC
:103DE0008F579F4F0E946318009709F4A7C2FC01E8
:103DF0008481882309F4A2C21068CA57DF4F188350
:103E0000C658D040CE018F579F4F0E946318DC01E7
:103E1000009709F4DAC01496EC911497E250ED3053
:103E200008F0D3C0F0E0E95EF04E0C949035EA1F44
:103E3000E51FE81F1420E51FE51FE51FE51F241FF0
:103E4000E51FD51FE51F18208D919D910D90BC9108
:103E5000A02D8115F0E89F07A105B10508F0B5C0B8
:103E6000BC016B3991E0790709F4AFC30CF055C17F
:103E70006437F1E07F0709F47AC20CF01FC16633A2
:103E800031E0730709F4E0C20CF003C16D3251E078
:103E9000750709F403C26F3281E0780709F4B0C2F4
:103EA0006C3291E0790709F401C2693EF3E07F07C3
:103EB00009F4C0C50CF0FBC46836710511F40C940C
:103EC000F3270CF08AC46536710509F4DBC60CF0E3
:103ED0005EC46436710509F078C00E9488076B01E2
:103EE0007C01C0923002D0923102E0923202F09214
:103EF00033028EEB94E00E941A0C1092B5041092DB
:103F0000B704EBECF3E010823F9634E0EB3BF307B1
:103F1000D1F7E091FB02F091FC02309719F0848117
:103F20000E94B407E091FD02F091FE02309719F073
:103F300084810E94B407E091FF02F0910003309762
:103F400021F060E084810E94CF06E0910103F091AE
:103F50000203309721F060E084810E94CF06E09157
:103F60000303F0910403309729F015A260E08481E7
:103F70000E94CF068CE191E00E94330B80913402C5
:103F800090913502A0913602B0913702A7019601B7
:103F9000281B390B4A0B5B0BCA01B9010E94B812EE
:103FA0000E944D130E949D17C9C18D919D910D9046
:103FB000BC91A02D8C019D0110582F4F3F4F011532
:103FC00011052140310508F44BCF85E893E051CE2F
:103FD0008D919C910E94900EC251DF4F2883CE5E3E
:103FE000D040C151DF4F3883CF5ED040C051DF4F4A
:103FF0004883C05FD040CF50DF4F5883C15FD0406F
:10400000CE50DF4F6883C25FD040C151DF4FC880C0
:10401000D980EA80FB80CF5ED040223039F1233056
:1040200089F1213091F608C08D919C910496D2CFF0
:10403000CD90DD90ED90FC9020E030E040E057EC3A
:10404000C701B6010E948B3587FDBFCF20E03EEF50
:104050004FEF56E4C701B6010E94B83218160CF4AF
:10406000B4CFC701B6010E945535FBCED701C601BA
:104070009058AF4FBF4F0097A140B10508F0A5CFB2
:10408000B601EFCEC11480E8D806E104F104C0F314
:104090009CCF6933E1E07E0709F40AC26337F1E09F
:1040A0007F0709F405C1673321E0720709F0FDCEEF
:1040B00061E08091100190911101F5C0603931E00B
:1040C000730709F417C2A4F46D3751E0750709F4BA
:1040D000BDC16E3781E0780709F4D2C1653791E040
:1040E000790709F0E2CE683D714009F41EC226C18D
:1040F0006339E1E07E0709F446C26A39F1E07F07DF
:1041000009F469C2613921E0720709F0CECE61E09D
:104110008091120190911301C6C0693532E0730796
:1041200009F479C20CF047C0623E51E0750709F40A
:1041300054C284F5683D91E0790709F4DDC1693D19
:10414000E1E07E0781F26D39F1E07F0709F0ADCE45
:1041500000911401109115010E948807F8016587EC
:1041600076878787908BC184D284E384F484DC01D2
:10417000CB018C0D9D1DAE1DBF1D818B928BA38B22
:10418000B48B81E0858B44EE52E06AEE72E08FEEF4
:1041900092E057C1653F21E0720709F436C26835E5
:1041A00032E0730709F440C2643F41E0740709F04C
:1041B0007CCE60E02BC2693A52E0750709F4CEC2AA
:1041C000DCF56F3992E0790709F437C2603AE2E032
:1041D0007E0709F47AC26B35F2E07F0709F065CEFD
:1041E00000911801109119010115110509F4A6C0DB
:1041F0000E948807AB01BC01F801418B528B638B95
:10420000748B85859685A785B089840F951FA61F19
:10421000B71F858B968BA78BB08FFF24F394F2A2E8
:10422000C8010E942C0CF801F4A243ED52E069EDA4
:1042300072E08EED92E005C1643823E0720709F464
:10424000A4C2ACF46A3A42E0740709F02ECEE091C1
:104250001801F0911901309709F470C081E081A331
:1042600047E852E063E972E088E992E0EAC0653825
:1042700053E0750709F481C2673883E0780709F0D5
:1042800014CE80911A0190911B010E941A0C41E7F3
:1042900052E067E772E08CE792E0D3C061E0809182
:1042A0000E0190910F010E94711748C060E0F7CF96
:1042B0002FEF3FEF40E050E060ED71E0C5010E945C
:1042C0008A199B01AC01E0910E01F0910F01218749
:1042D0003287438754876BE673E085E793E00E945B
:1042E000BD16CF57DF4FB982A882C158D04080EDAC
:1042F00091E0CD57DF4F99838883C358D04089E040
:10430000CB57DF4F8883C558D040CA57DF4F8881CD
:10431000C658D04080788068CA57DF4F8883C65817
:10432000D040CE018F579F4F0E94061960932901FC
:1043300070932A0180932B0190932C01C5010E9458
:104340004912CE50DF4F0FB6F894DEBF0FBECDBF7F
:10435000DF91CF911F910F91FF90EF90DF90CF9061
:10436000BF90AF907F906F905F904F90089520EC3A
:1043700037E249E050E06AED71E0C5010E948A1918
:104380009B01AC01E0910E01F0910F01258736876A
:104390004787508B6EE573E087E693E00E94BD1679
:1043A000CF57DF4FB982A882C158D0408AED91E043
:1043B000CD57DF4F99838883C358D04088E0CB57CF
:1043C000DF4F8883C558D040CA57DF4F8881C65811
:1043D000D04080788068CA57DF4F8883C658D04065
:1043E000CE018F579F4F0E94061960932D01709345
:1043F0002E0180932F01909330010E94740E9ECF66
:1044000000910E0110910F010E948807F801618B45
:10441000728B838B948BC584D684E784F088DC010F
:10442000CB018C0D9D1DAE1DBF1D858B968BA78B63
:10443000B08F81E080A34FE453E065E573E08AE547
:1044400093E00E9425137ACF60E033CE2FEF3FEF49
:1044500040E050E060ED71E0C5010E948A199B01C7
:10446000AC01E0911001F09111012187328743875F
:10447000548760E473E08AE493E00E94BD165ECF47
:1044800020EC37E249E050E06AED71E0C5010E949E
:104490008A199B01AC01E0911001F091110125876F
:1044A00036874787508B62E373E08BE393E0E5CF79
:1044B00000911001109111010E948807F801618B91
:1044C000728B838B948BC584D684E784F088DC015F
:1044D000CB018C0D9D1DAE1DBF1D858B968BA78BB3
:1044E000B08F81E080A342E253E068E273E08DE2A6
:1044F00093E0A7CF60E00CCE20EC37E249E050E03B
:104500006AED71E0C5010E948A199B01AC01E0913E
:104510001201F0911301218732874387548764E1A8
:1045200073E08DE193E00E94BD16CF57DF4FB98253
:10453000A882C158D0408AED91E0CD57DF4F9983D2
:104540008883C358D04088E0CB57DF4F8883C55855
:10455000D040CA57DF4F8881C658D04080788068E5
:10456000CA57DF4F8883C658D040CE018F579F4F20
:104570000E940619609325017093260180932701FC
:10458000909328013ACF00911201109113010E94DB
:104590008807F801658776878787908BC184D284E6
:1045A000E384F484DC01CB018C0D9D1DAE1DBF1D89
:1045B000818B928BA38BB48B81E0858B44E053E09D
:1045C0006AE073E08FE093E03CCF61E080911401FA
:1045D0009091150168CE60E0F9CF20EC37E249E018
:1045E00050E06AED71E0C5010E948A199B01AC019F
:1045F000E0911401F0911501218732874387548798
:1046000065EF72E08EEF92E038CF61E080911601A5
:104610009091170148CE809118019091190161E0A5
:10462000009709F040CE8ACE80911801909119012F
:1046300060E0009709F037CE81CE2FEF3FEF40E0EA
:1046400050E060ED71E0C5010E948A199B01AC0148
:10465000E0911801F0911901309779F02115310599
:104660004105510521F0218732874387548763EC48
:1046700072E08DEC92E00E94BD16CF57DF4FB982F9
:10468000A882C158D04080ED91E0CD57DF4F99838B
:104690008883C358D04089E0CB57DF4F8883C55803
:1046A000D040CA57DF4F8881C658D0408078806894
:1046B000CA57DF4F8883C658D040CE018F579F4FCF
:1046C0000E948D188093200139CE20EC37E249E01A
:1046D00050E06AED71E0C5010E948A199B01AC01AE
:1046E000E0911801F0911901309751F02587368734
:1046F0004787508B64EB72E08DEB92E00E94BD1611
:10470000CF57DF4FB982A882C158D0408AED91E0DF
:10471000CD57DF4F99838883C358D04088E0CB576B
:10472000DF4F8883C558D040CA57DF4F8881C658AD
:10473000D04080788068CA57DF4F8883C658D04001
:10474000CE018F579F4F0E940619609321017093ED
:10475000220180932301909324014FCEE091180110
:10476000F0911901309709F4E9CD11A24EE952E018
:1047700069EA72E08EEA92E064CE61E080911A010B
:1047800090911B010E940013D9CD60E0F7CF6636EF
:10479000710509F41FC46736710509F016CC0E9433
:1047A00088076B017C018091B50481110FC00E94C4
:1047B0007406C092AD04D092AE04E092AF04F092C1
:1047C000B004B701A60180E00E9407154FED53E049
:1047D00065EE73E080EF93E034CE6D3C710509F433
:1047E000E7C10CF05AC06936710509F499C4693CF7
:1047F000710509F0EACBCF57DF4FB982A882C158C3
:10480000D0408BEEE82E81E0F82ECD57DF4FF982B5
:10481000E882C358D04015E0CB57DF4F1883C55806
:10482000D040CA57DF4F8881C658D0408078806812
:10483000CA57DF4F8883C658D040CE018F579F4F4D
:104840000E948D180E945C06CF57DF4FB982A88264
:10485000C158D040CD57DF4FF982E882C358D040CD
:10486000CB57DF4F1883C558D040CA57DF4F8881D8
:10487000C658D04080788068CA57DF4F8883C658B2
:10488000D040CE018F579F4F0E9406199B01AC016B
:1048900068E274E08EE294E0F0CD6C3D710509F4BD
:1048A000B9C1683E734009F090CB60E0C4C0643188
:1048B00045E0740709F420C10CF05CC0633384E068
:1048C000780709F4BBC0E4F56233744009F07DCB8E
:1048D000CF57DF4FB982A882C158D04083EE91E014
:1048E000CD57DF4F99838883C358D04087E0CB579B
:1048F000DF4F8883C558D040CA57DF4F8881C658DC
:10490000D04080788068CA57DF4F8883C658D0402F
:10491000CE018F579F4F0E9406196B017C01C092F8
:104920000601D0920701E0920801F09209010E946D
:104930002F06A701960168EB74E080EC94E09DCD12
:104940006833F4E07F0709F4CBC06933744009F0A1
:104950003CCB81E08093B90589EA95E09093010111
:104960008093000141E065E974E080EA94E00E94F0
:104970009416E4CC6F3535E0730709F4BFC00CF032
:1049800041C0653155E0750709F4B2C06E35754018
:1049900009F01BCBCF57DF4FB982A882C158D04056
:1049A00083EE91E0CD57DF4F99838883C358D04081
:1049B00087E0CB57DF4F8883C558D040CA57DF4FB9
:1049C0008881C658D04080788068CA57DF4F888376
:1049D000C658D040CE018F579F4F0E9406196B01D9
:1049E0007C01C0920601D0920701E0920801F0928A
:1049F00009010E942F06A701960160E774E088E78D
:104A000094E03BCD643695E0790709F4C9C065367A
:104A1000754009F0DACA81E08093930583E895E058
:104A2000909301018093000141E06DE474E088E51A
:104A300094E09DCF61E089EA95E035CCCF57DF4F18
:104A4000B982A882C158D0402BEEE22E21E0F22E8E
:104A5000CD57DF4FF982E882C358D04015E0CB57DD
:104A6000DF4F1883C558D040CA57DF4F8881C658DA
:104A7000D04080788068CA57DF4F8883C658D040BE
:104A8000CE018F579F4F0E948D180E945C06CF5712
:104A9000DF4FB982A882C158D040CD57DF4FF9828D
:104AA000E882C358D040CB57DF4F1883C558D04059
:104AB000CA57DF4F8881C658D04080788068CA576F
:104AC000DF4F8883C658D040CE018F579F4F0E943A
:104AD00006199B01AC0169EA74E08FEA94E0CDCC41
:104AE0001092B90540E061E874E08CE894E03FCFB3
:104AF00061E083E895E0D7CB60E0FBCFCF57DF4F95
:104B0000B982A882C158D0409BEEE92E91E0F92EDF
:104B1000CD57DF4FF982E882C358D04015E0CB571C
:104B2000DF4F1883C558D040CA57DF4F8881C65819
:104B3000D04080788068CA57DF4F8883C658D040FD
:104B4000CE018F579F4F0E948D180E945C06CF5751
:104B5000DF4FB982A882C158D040CD57DF4FF982CC
:104B6000E882C358D040CB57DF4F1883C558D04098
:104B7000CA57DF4F8881C658D04080788068CA57AE
:104B8000DF4F8883C658D040CE018F579F4F0E9479
:104B900006199B01AC0161E674E087E694E06DCCF8
:104BA0001092930540E069E374E084E494E0DFCE82
:104BB000CF57DF4FB982A882C158D04081EF91E032
:104BC000CD57DF4F99838883C358D04084E0CB57BB
:104BD000DF4F8883C558D040CA57DF4F8881C658F9
:104BE000D04080788068CA57DF4F8883C658D0404D
:104BF000CE018F579F4F0E948D188093050180939F
:104C00000D03282F30E050E040E065E174E08DE1D5
:104C100094E033CCCF57DF4FB982A882C158D0403F
:104C200086EF91E0CD57DF4F99838883C358D040FA
:104C300088E0CB57DF4F8883C558D040CA57DF4F35
:104C40008881C658D04080788068CA57DF4F8883F3
:104C5000C658D040CE018F579F4F0E9406196B0156
:104C60007C01C0924902D0924A02E0924B02F0923B
:104C70004C020E94740EA70196016BEF73E08AE06C
:104C800094E0FBCB0E9488076B017C01C092340248
:104C9000D0923502E0923602F09237028EEB94E029
:104CA0000E941A0C1092B6041092B704C092AD0480
:104CB000D092AE04E092AF04F092B00481E0809311
:104CC000B50487E093E00E94C00B85E293E00E9468
:104CD000C00B05EF12E0F8018489882341F0828936
:104CE000813009F048C1C58ED68EE78EF0A2025EF3
:104CF0001F4FF3E001331F0771F7EBECF3E08BEB91
:104D000094E010823F968E179F07D9F7E091F50245
:104D1000F091F602309721F0118A128A138A148AD0
:104D2000E091F702F091F802309721F0118A128A8F
:104D3000138A148AE0910303F09104033097A9F0D9
:104D4000118A128A138A148A158A168A178A108E73
:104D5000118E128E138E148E158E168E178E10A233
:104D600012A213A214A281E085A38DE292E00E9418
:104D7000F2128EED91E00E94330B6091060170916A
:104D8000070180910801909109010E94B8128CECF2
:104D900091E00E94330B8091000190910101895AAA
:104DA000954009F414C18CE591E00E94330B88EB27
:104DB00091E00E94330B6091490270914A02809108
:104DC0004B0290914C020E94B8120E944D13E09049
:104DD0002D01F0902E0100912F01109130012091B2
:104DE000290130912A0140912B0150912C016091B1
:104DF000680584EB91E00E944F16E0904E05F0901C
:104E00004F05009150051091510520914A053091B0
:104E10004B0540914C0550914D05609147058FEA37
:104E200091E00E944F16209125013091260140917A
:104E3000270150912801609131058AEA91E00E9492
:104E4000201620911E0530911F054091200550919C
:104E5000210560911B0584EA91E00E942016E090F4
:104E60002101F09022010091230110912401209151
:104E7000200130E050E040E06091DA048EE991E0FA
:104E80000E944F166091000589E991E00E94031687
:104E90006091C1048EE891E00E9403164091B9052B
:104EA0006091AF0585E891E00E94D7154091930588
:104EB000609189058CE791E00E94D71582E691E028
:104EC0000E94330B809105010E94BB120E944D137A
:104ED0008091340290913502A0913602B091370250
:104EE000E0910A01F0910B0180839183A283B38347
:104EF000E0910C01F0910D0180839183A283B38333
:104F0000E0910E01F0910F0180839183A283B3831E
:104F1000E0911001F091110180839183A283B3830A
:104F2000E0911201F091130180839183A283B383F6
:104F3000E0911401F091150180839183A283B383E2
:104F4000E0911601F091170180839183A283B383CE
:104F5000E0911801F0911901309721F0808391833D
:104F6000A283B383E0911A01F0911B01808791879E
:104F7000A287B387E3C9823009F0B9CE41A452A415
:104F800063A474A460E070E0CB011414150416044B
:104F9000170434F40E946032A30192010E94DC33B2
:104FA0006C0D7D1D8E1D9F1DF80161A372A383A34F
:104FB00094A381A592A5A3A5B4A58C0D9D1DAE1D9E
:104FC000BF1D85A396A3A7A3B0A715A690CE8FE576
:104FD00091E0EBCE8091B50481110C94371E0E94B4
:104FE0009D170C94371EC251DF4F1882CE5ED04001
:104FF000CF57DF4FB982A882C158D0408FEF91E0E0
:10500000CD57DF4F99838883C358D04086E0CB5774
:10501000DF4F8883C558D040CA57DF4F8881C658B4
:10502000D04080788068CA57DF4F8883C658D04008
:10503000BE0162517F4FCE018F579F4F0E947C1857
:10504000182F0E9488072091B504211166C0109383
:10505000B604112369F16093AD047093AE0480939C
:10506000AF049093B0040E94740687E093E00E941E
:10507000C00B85E293E00E94C00BE091F502F09135
:10508000F602309721F0118A128A138A148AE0916D
:10509000F702F091F802309721F0118A128A138AF0
:1050A000148A4091B6046AEC73E084ED93E05FCC1F
:1050B0000E947406E091FB02F091FC02309719F017
:1050C00084810E94B407E091FD02F091FE023097C6
:1050D00019F084810E94B407E091FF02F09100036F
:1050E000309721F060E084810E94CF06E0910103B7
:1050F000F0910203309721F060E084810E94CF0696
:10510000E0910303F0910403309721F060E0848183
:105110000E94CF060E94740EC4CF1111C2CFFACFE5
:10512000C251DF4F1882CE5ED040CF57DF4FB982D9
:10513000A882C158D04086E092E0CD57DF4F9983D6
:105140008883C358D04086E0CB57DF4F8883C5584B
:10515000D040CA57DF4F8881C658D04080788068D9
:10516000CA57DF4F8883C658D040BE0162517F4F77
:10517000CE018F579F4F0E947C18182F0E948807DE
:105180006B017C018091B504882309F4BDC01093A4
:10519000B704112309F43DC0C092B804D092B904F9
:1051A000E092BA04F092BB040E947406E091FB0204
:1051B000F091FC02309719F084810E94B407E091CD
:1051C000FD02F091FE02309719F084810E94B4072D
:1051D0008091C1048823B9F08091CF04811113C05C
:1051E0008EEB94E00E941A0CC092D004D092D104AD
:1051F000E092D204F092D30481E08093CF04F8943B
:105200001092C0047894412F60EB73E08FEB93E031
:10521000AECB8091B8049091B904A091BA04B0913A
:10522000BB04B701A601481B590B6A0B7B0BE5EFCA
:10523000F2E021E333E084898823A1F08289813080
:1052400009F047C0858D968DA78DB0A10097A10567
:10525000B10541F0840F951FA61FB71F858F968F4C
:10526000A78FB0A37E962E173F0729F78091C10420
:10527000882349F28091CF04882329F2F894609121
:10528000C6047091C7048091C8049091C9044090ED
:10529000D0045090D1046090D2047090D30464196B
:1052A000750986099709C60ED71EE81EF91EC09219
:1052B000C604D092C704E092C804F092C9041092C8
:1052C000C00478941092CF048EEB94E00E941A0CE4
:1052D0009ACF823039F681A192A1A3A1B4A1840F03
:1052E000951FA61FB71F81A392A3A3A3B4A385A153
:1052F00096A1A7A1B0A5840F951FA61FB71F85A3D0
:1053000096A3A7A3B0A7AECF112309F4AFCF60CF68
:105310008A30910511F40C94141EF70181937F01DA
:105320000F5F1F4F0F37110511F00C94E71D0C9400
:10533000141ECB01BA010C94BB36CB010C9432364F
:10534000CB010C9496351F920F920FB60F92112439
:105350002F933F938F939F93AF93BF9380914E0270
:1053600090914F02A0915002B091510230914D02A4
:1053700023E0230F2D3758F50196A11DB11D209371
:105380004D0280934E0290934F02A0935002B0932F
:1053900051028091520290915302A0915402B09117
:1053A00055020196A11DB11D8093520290935302A4
:1053B000A0935402B0935502BF91AF919F918F91EA
:1053C0003F912F910F900FBE0F901F90189526E8D8
:1053D000230F0296A11DB11DD2CF1F920F920FB6BF
:1053E0000F9211242F933F934F935F936F937F936B
:1053F0008F939F93AF93BF93EF93FF93E0911E0121
:10540000F0911F010995FF91EF91BF91AF919F918D
:105410008F917F916F915F914F913F912F910F905D
:105420000FBE0F901F9018951F920F920FB60F92FC
:1054300011242F933F934F935F936F937F938F9399
:105440009F93AF93BF93EF93FF93E0911C01F09173
:105450001D010995FF91EF91BF91AF919F918F91A0
:105460007F916F915F914F913F912F910F900FBE60
:105470000F901F9018951F920F920FB60F92112444
:105480002F933F934F935F936F937F938F939F934C
:10549000AF93BF93EF93FF938091450290914602A3
:1054A000A0914702B0914802892B8A2B8B2BD1F116
:1054B00090914402E0914202F09143028081892759
:1054C00080838091450290914602A0914702B0915D
:1054D0004802181619061A061B069CF4809145020C
:1054E00090914602A0914702B09148020197A1090C
:1054F000B1098093450290934602A0934702B0936E
:105500004802FF91EF91BF91AF919F918F917F9151
:105510006F915F914F913F912F910F900FBE0F9020
:105520001F901895809104010E94B407EACF1F9242
:105530000F920FB60F9211242F933F934F935F93C7
:105540006F937F938F939F93AF93BF93EF93FF934B
:1055500086E592E00E94C40AFF91EF91BF91AF915E
:105560009F918F917F916F915F914F913F912F917B
:105570000F900FBE0F901F9018951F920F920FB6AD
:105580000F9211242F938F939F93EF93FF93E091AA
:105590006602F09167028081E0916C02F0916D02E9
:1055A00082FD1BC0908180916F028F5F8F7320916D
:1055B0007002821741F0E0916F02F0E0EA5AFD4F6D
:1055C000958F80936F02FF91EF919F918F912F9113
:1055D0000F900FBE0F901F9018958081F4CFEF921F
:1055E000FF920F931F93CF93DF93EC01162F7A0155
:1055F000022F6C8382E08D8389EA91E098878F8304
:105600001E82188219821A821B8262E0812F0E94F8
:10561000FD06098742E050E0B701CE010D960E94D9
:105620008E371F86812F0E94A60621E0892B09F460
:1056300020E02A87812F0E94A60621E0892B09F409
:1056400020E02B87812F0E94A60621E0892B09F4F8
:1056500020E02C87188A198A1A8A1B8A1C8A1D8ABC
:105660001E8A1F8A188E84E1898F1A8E1B8E1C8ECB
:105670001D8E1E8E1F8E18A219A21BA21AA21DA279
:105680001CA2DF91CF911F910F91FF90EF90089591
:105690003F924F925F926F927F928F929F92AF92C2
:1056A000BF92CF92DF92EF92FF920F931F93CF930F
:1056B000DF93109259021092580288EE93E0A0E016
:1056C000B0E080935A0290935B02A0935C02B09387
:1056D0005D0285E891E0909357028093560285EC35
:1056E00090E0909363028093620284EC90E0909348
:1056F00065028093640280EC90E09093670280934F
:10570000660281EC90E0909369028093680282ECDB
:1057100090E090936B0280936A0286EC90E0909305
:105720006D0280936C0210926F02109270021092C0
:1057300071021092720220E04DE052E06AE089EAC4
:1057400095E00E94EF2A21E040E152E06DE083E81D
:1057500095E00E94EF2AC0902D01D0902E01E0909C
:105760002F01F09030018090290190902A01A090A3
:105770002B01B0902C0183E0809366053324339491
:105780003092670503E112E010936A050093690502
:1057900010926805109262051092630510926405DC
:1057A0001092650561E00E94FD0660E083E00E94C2
:1057B000CF0680926B0590926C05A0926D05B09219
:1057C0006E05C0926F05D0927005E0927105F0925F
:1057D000720544244A94542C32014092730550922D
:1057E0007405609275057092760510927705109297
:1057F00078051092790510927A0510927B05109227
:105800007C0510927D05C8ECD0E0D0937F05C09355
:105810007E05D0938105C09380051092820587E0B4
:10582000809345053092460510934905009348053D
:1058300010924705109241051092420510924305BF
:105840001092440561E00E94FD0660E087E00E943E
:10585000CF0680924A0590924B05A0924C05B092DB
:105860004D05C0924E05D0924F05E0925005F09242
:105870005105409252055092530560925405709222
:105880005505109256051092570510925805109222
:10589000590510925A0510925B0510925C05D09341
:1058A0005E05C0935D05D0936005C0935F051092BF
:1058B0006105C0902501D0902601E0902701F0906D
:1058C000280184E080932F0530923005C7E1D2E0B3
:1058D000D0933305C09332051092310510922B05F9
:1058E00010922C0510922D0510922E0561E00E9459
:1058F000FD0660E084E00E94CF06C0923405D0929D
:105900003505E0923605F092370510923805109271
:10591000390510923A0510923B0510923C05109201
:105920003D0510923E0510923F051092400588E01B
:105930008093190530921A05D0931D05C0931C055C
:1059400010921B051092150510921605109217055E
:105950001092180561E00E94FD0660E088E00E9458
:10596000CF06C0921E05D0921F05E0922005F0924E
:105970002105109222051092230510922405109201
:1059800025051092260510922705109228051092E1
:10599000290510922A0585E08093FE0482E0809319
:1059A000FF048CE192E09093020580930105109230
:1059B00000051092FA041092FB041092FC0410925D
:1059C000FD0462E085E00E94FD0685E00E94A606D7
:1059D00021E0892B09F420E02093030585E00E9453
:1059E000A60621E0892B09F420E02093040585E038
:1059F0000E94A60621E0892B09F420E020930505EA
:105A000010920605109207051092080510920905DC
:105A100084E180930A0510920B0510920C051092F8
:105A20000D0510920E0510920F05109210051092A0
:105A30001105109212051092140510921305809012
:105A4000210190902201A0902301B0902401C090E8
:105A50002001D12CF12CE12C86E08093D80481E048
:105A60008093D90489E292E09093DC048093DB0474
:105A70001092DA041092D4041092D5041092D60435
:105A80001092D70461E086E00E94FD0660E086E0A7
:105A90000E94CF06C092DD04D092DE04E092DF04C3
:105AA000F092E0048092E1049092E204A092E30478
:105AB000B092E4041092E5041092E6041092E70418
:105AC0001092E8041092E9041092EA041092EB0498
:105AD0001092EC041092ED041092EE041092EF0478
