:100000000C9447050C94E6280C94BF280C946F05BB
:100010000C946F050C946F050C946F050C940D29CE
:100020000C946F050C946F050C946F050C946F0580
:100030000C946F050C946F050C946F050C946F0570
:100040000C9475280C946F050C948F290C946929D5
:100050000C946F050C946F050C946F050C946F0550
:100060000C946F050C946F05546F6F4465657000B8
:100070004E6F4D656D6F727900496E76616C696483
:10008000496E70757400496E636F6D706C65746550
:10009000496E70757400456D707479496E70757431
:1000A000004F6B00CDCCCC3D0AD7233C17B7D138DD
:1000B00077CC2B329595E6241FB14F0A00002041E2
:1000C0000000C84200401C4620BCBE4CCA1B0E5A51
:1000D000AEC59D74227D007B226C6576656C223AEC
:1000E00022303031222C22646576696365223A22FF
:1000F000434F4E54524F4C4C4552222C2264657350
:1001000063223A225052207468726573686F6C647F
:100110002063617070656420617420007B226C65CF
:1001200076656C223A22303037222C22646576695B
:100130006365223A22434F4E54524F4C4C45522253
:100140002C226576656E74223A22454E44222C227A
:1001500074696D657374616D70223A004C48005289
:1001600048007B226C6576656C223A223030302262
:100170002C2270725F73746570223A004C455645AC
:10018000525F4C48004C455645525F5248004D491D
:1001900043524F53434F5045004C49434B004C4151
:1001A0005345520050554D50320050554D5000436C
:1001B0005545320043554500222C22747261636517
:1001C0005F696E74657276616C223A002C226163FD
:1001D000746976655F6C65766572223A22007B22CF
:1001E0006C6576656C223A22303030222C226465B0
:1001F00076696365223A22434F4E54524F4C4C4528
:1002000052222C22706172616469676D223A225019
:10021000524F47524553534956455F524154494FF7
:10022000222C2274696D656F7574223A007B226CF2
:100230006576656C223A22303037222C226465764E
:10024000696365223A22434F4E54524F4C4C4552FB
:10025000222C226576656E74223A22535441525400
:10026000222C2274696D657374616D70223A307D41
:100270000046495245440074657374004D49435229
:100280004F53434F504500494E444550454E444519
:100290004E54006D6F6465004C4153455200434F0E
:1002A0004E54494E47454E54006D6F6465004C41B5
:1002B000534552006475726174696F6E004C41530E
:1002C0004552006672657175656E6379004C4153E5
:1002D00045520046495245440074657374004C41D0
:1002E00053455200464952454400746573740050AA
:1002F000554D5032006475726174696F6E005055CF
:100300004D503200464952454400746573740050A4
:10031000554D50006475726174696F6E0050554D93
:100320005000464952454400746573740043554576
:1003300032006475726174696F6E00435545320016
:100340006672657175656E63790043554532004686
:100350004952454400746573740043554500647503
:10036000726174696F6E0043554500667265717500
:10037000656E63790043554500A1009600860079BB
:1003800000700068007B226C6576656C223A223032
:100390003036222C2264657363223A22436F6D6DDE
:1003A000616E64206E6F7420666F756E64227D00CE
:1003B000746573745F6D6F646500434F4E54524FA4
:1003C0004C4C455200464952454400746573745F75
:1003D000636861696E00434F4E54524F4C4C455216
:1003E0000074726163655F696E74657276616C003A
:1003F000434F4E54524F4C4C45520070725F7374D1
:10040000657000434F4E54524F4C4C455200726140
:1004100074696F00434F4E54524F4C4C455200721A
:1004200065696E666F72636564004C455645525F40
:100430004C48007265696E666F72636564004C4576
:100440005645525F4C4800726174696F004C4556C6
:1004500045525F4C480074696D656F7574004C457A
:100460005645525F4C48007265696E666F726365EF
:1004700064004C455645525F5248007265696E668D
:100480006F72636564004C455645525F5248007276
:100490006174696F004C455645525F52480074695B
:1004A0006D656F7574004C455645525F5248002289
:1004B0007D007B226C6576656C223A2230303622D4
:1004C0002C2264657363223A220044495341524D01
:1004D00045440041524D454400227D002C22646574
:1004E0007363223A2200222C2270696E223A007B2A
:1004F000226C6576656C223A22303031222C2264DF
:100500006576696365223A2200222C2276616C7539
:1005100065223A00222C22706172616D223A22001B
:100520007B226C6576656C223A22303030222C2298
:10053000646576696365223A220066616C736500C2
:100540007472756500222C2276616C7565223A0002
:10055000222C22706172616D223A22007B226C652E
:1005600076656C223A22303030222C22646576691E
:100570006365223A2200227D00222C2276616C756E
:1005800065223A2200222C22706172616D223A2289
:10059000007B226C6576656C223A22303030222C4A
:1005A00022646576696365223A22004449534152C8
:1005B0004D45440041524D454400227D002C2264AB
:1005C000657363223A22007B226C6576656C223A61
:1005D00022303031222C22646576696365223A220A
:1005E0004D4943524F53434F5045222C2270696E60
:1005F000223A0066616C73650074727565002C2286
:100600006475726174696F6E223A002C226672659D
:100610007175656E6379223A00222C2261726D65D4
:1006200064223A007B226C6576656C223A22303077
:1006300030222C22646576696365223A2200666165
:100640006C73650074727565002C22647572617438
:10065000696F6E223A00222C2261726D6564223A23
:10066000007B226C6576656C223A22303030222C79
:1006700022646576696365223A220066616C73655F
:10068000007472756500222C2261726D6564223AD5
:10069000007B226C6576656C223A22303030222C49
:1006A00022646576696365223A220066616C73652F
:1006B00000747275650066616C73650074727565AF
:1006C000002C227265696E666F72636564223A005F
:1006D000222C2261726D6564223A007B226C657661
:1006E000656C223A22303030222C226465766963B0
:1006F00065223A2200027B226C6576656C223A22E2
:10070000303030222C22646576696365223A2243B8
:100710004F4E54524F4C4C4552222C22736B6574F1
:100720006368223A2270722E696E6F222C227665DF
:100730007273696F6E223A2276322E302E30222C5E
:1007400022626175645F72617465223A31313532BB
:1007500030302C227363686564756C65223A2250D0
:10076000524F47524553534956455F524154494FA2
:10077000227D002C22656E645F74696D65737461FF
:100780006D70223A002C226576656E74223A224CF6
:1007900049434B222C2273746172745F74696D65D6
:1007A0007374616D70223A00222C2270696E223AB5
:1007B000007B226C6576656C223A22303037222C21
:1007C00022646576696365223A22002C22656E6494
:1007D0005F74696D657374616D70223A002C2265D7
:1007E00076656E74223A225354494D222C2273743A
:1007F0006172745F74696D657374616D70223A0023
:100800007B226C6576656C223A22303037222C22AE
:10081000646576696365223A224C41534552222C25
:100820002270696E223A002C226576656E74223A37
:100830002254494D455354414D50222C2274696D28
:10084000657374616D70223A007B226C6576656C0D
:10085000223A22303038222C226465766963652280
:100860003A224D4943524F53434F5045222C227058
:10087000696E223A0000000000240027002A0000D0
:10088000000000250028002B0000000000230026A7
:100890000029000404040404040404020202020205
:1008A0000203030303030301020408102040800134
:1008B00002040810200102040810200000000800B3
:1008C00002010000030407000000000000000054C3
:1008D000494D454F555400494E41435449564500F2
:1008E00041435449564500227D002C226F726965B0
:1008F0006E746174696F6E223A22002C22656E64F8
:100900005F74696D657374616D70223A00222C22E8
:1009100073746172745F74696D657374616D702254
:100920003A002C226576656E74223A225052455365
:1009300053222C22636C617373223A22007B226C57
:100940006576656C223A22303037222C2264657637
:10095000696365223A225357495443485F4C4556D0
:100960004552222C2270696E223A002C2273636851
:100970006564756C65645F6174223A002C22746151
:1009800072676574223A007B226C6576656C223A48
:1009900022303036222C226572726F725F636F6470
:1009A00065223A22455F50454E44494E475F4655C1
:1009B0004C4C222C2264657363223A2250656E648B
:1009C000696E6720616374696F6E20717565756506
:1009D0002066756C6C20E2809420616374696F6E90
:1009E0002064726F70706564222C22616374696F79
:1009F0006E5F74797065223A005354494D00494E38
:100A0000465553494F4E00494E465553494F4E00A7
:100A1000544F4E4500544F4E45004C4153455200F3
:100A200050554D505F320050554D50004355455F75
:100A30003200435545002C22656E645F74696D6514
:100A40007374616D70223A00222C22737461727487
:100A50005F74696D657374616D70223A002C226554
:100A600076656E74223A2200222C2270696E223A38
:100A7000007B226C6576656C223A22303037222C5E
:100A800022646576696365223A2200001A2A1124DD
:100A90001FBECFEFD8E0DEBFCDBF12E0A0E0B1E0D7
:100AA000E6EBFCE602C005900D92A832B107D9F73B
:100AB00025E0A8E2B2E001C01D92A63CB207E1F732
:100AC00015E0C7E4D5E004C02197FE010E944C3434
:100AD000C634D107C9F70E94202D0C9459360C94C6
:100AE0000000CF93DF93EC0188819981DC01ED91C7
:100AF000FC910190F081E02D64E270E0099500978F
:100B000041F02FE1FC01238321E02283DF91CF918B
:100B1000089521E02A83FACFCF92DF92EF92FF92DD
:100B20000F931F93EDEEF2E0128A138A91E0948BFB
:100B3000858B868B178A608F89E086A784E687A7D6
:100B400012AA84E08093770310923B0383E08093A2
:100B50003C0310923D0310923E0310923F0310920B
:100B60004003C0906205D0906305E0906405F0906A
:100B70006505C0924103D0924203E0924303F09294
:100B800044031092450385E0809346030C0D1D1D20
:100B90002E1D3F1D009347031093480320934903E4
:100BA00030934A03C0902705D0902805E09029058E
:100BB000F0902A05C0924B03D0924C03E0924D0373
:100BC000F0924E0310924F0387E0809350030093FE
:100BD0005103109352032093530330935403009115
:100BE000D4041091D5042091D6043091D7040093F9
:100BF0005503109356032093570330935803909353
:100C0000590340935A0310925B0310925C031092B5
:100C10005D0310925E038091A9049091AA04A091B3
:100C2000AB04B091AC0480935F0390936003A093F6
:100C30006103B09362031F910F91FF90EF90DF90DB
:100C4000CF9008956093A9047093AA048093AB0495
:100C50009093AC0430917703EBE3F3E020E02313AF
:100C60000DC03091B403E8E7F3E020E02317B1F0C2
:100C70004081413071F02F5F3A96F8CF408141308A
:100C800019F02F5F3A96EBCF668377838087918741
:100C9000F8CF6683778380879187EDCF0895909111
:100CA000FF02992339F090911D0321E030E0992350
:100CB00019F0089530E020E09EE1929FF001939FAB
:100CC000F00D1124E351FD4F858B178AF2CF83304D
:100CD00081F028F4813099F08230A9F008958730AE
:100CE000A9F08830C9F08430B1F4809180008F7D04
:100CF00003C0809180008F7780938000089584B531
:100D00008F7784BD089584B58F7DFBCF8091B0002F
:100D10008F778093B00008958091B0008F7DF9CFD8
:100D2000CF93DF93282F30E0F901E554F74F8491FA
:100D3000F901E955F74FD491F901ED56F74FC491F8
:100D4000CC23A1F081110E946706EC2FF0E0EE0F9A
:100D5000FF1FE757F74FA591B491EC91ED2381E088
:100D600090E009F480E0DF91CF91089580E090E079
:100D7000FACF1F93CF93DF93282F30E0F901E5548A
:100D8000F74F8491F901E955F74FD491F901ED56E8
:100D9000F74FC491CC23A9F0162F81110E9467064A
:100DA000EC2FF0E0EE0FFF1FE158F74FA591B49143
:100DB0008FB7F894EC91111108C0D095DE23DC9325
:100DC0008FBFDF91CF911F910895DE2BF8CFCF9386
:100DD000DF9390E0FC01E955F74F24918D56974F32
:100DE000FC0184918823D1F090E0880F991FFC01C9
:100DF000EB58F74FA591B491FC01E158F74FC5911D
:100E0000D491623071F49FB7F8943C91822F809511
:100E100083238C93E8812E2B28839FBFDF91CF9172
:100E200008958FB7F894EC912E2B2C938FBFF6CFAB
:100E30003FB7F89480914A0290914B02A0914C02E6
:100E4000B0914D0226B5A89B05C02F3F19F0019621
:100E5000A11DB11D3FBFBA2FA92F982F8827BC0114
:100E6000CD01620F711D811D911D42E0660F771F3C
:100E7000881F991F4A95D1F708958F929F92AF923C
:100E8000BF92CF92DF92EF92FF920E9418074B0120
:100E90005C0184E6C82ED12CE12CF12C0E941807AD
:100EA000681979098A099B09683E73408105910593
:100EB000A8F321E0C21AD108E108F10888EE880EF3
:100EC00083E0981EA11CB11CC114D104E104F104FB
:100ED00029F7FF90EF90DF90CF90BF90AF909F9059
:100EE0008F9008952FB7F894609146027091470251
:100EF00080914802909149022FBF08950F931F934C
:100F0000CF93DF93C091EB02D091EC02209781F058
:100F100081E08A830E947207088519852A853B85AE
:100F2000601B710B820B930B6C837D838E839F837D
:100F3000DF91CF911F910F91089508959091040131
:100F400089130BC0E5EFF6E0E4919FEF9093040165
:100F5000E13049F028F0E23061F060E00C94B9062D
:100F600010926E00FACF90916F009D7F90936F006A
:100F7000F4CF909170009D7F9093700091E09093DA
:100F8000B0009091B100987F94609093B10010925E
:100F9000B300E3CF4F925F926F927F928F929F92B6
:100FA000AF92BF92CF92DF92EF92FF920F931F9377
:100FB000CF93DF9300D000D01F92CDB7DEB78B0167
:100FC00029013A01909104018917C9F09F3F09F462
:100FD0007EC00F900F900F900F900F90DF91CF91E8
:100FE0001F910F91FF90EF90DF90CF90BF90AF9047
:100FF0009F908F907F906F905F904F900895E5EF56
:10100000F6E094919D8397FDE4CF61E00E94E706AE
:101010008D81882321F09D81923009F04AC14801D9
:10102000B12CA12C60E072E18AE790E0A501980163
:101030000E94983229833A834B835C8369017A0149
:1010400081E0C81AD108E108F1089FEFC916D10460
:10105000E104F10409F00CF401C160E472E48FE0F2
:1010600090E0A50198010E94983269017A0181E01F
:10107000C81AD108E108F1089D81923009F0A2C098
:101080008FEFC816D104E104F10409F00CF4E6C1B5
:1010900060E970ED83E090E0A50198010E9498322C
:1010A00069017A0191E0C91AD108E108F1088FEFCE
:1010B000C816D104E104F10411F00CF07FC183E003
:1010C0009091B100987F892B8093B100CFC080931D
:1010D0000401E5EFF6E094919D839F3F09F479CFF9
:1010E000913041F150F0923009F446C09D8197FD56
:1010F00070CF61E00E94E7068ECF14BC15BC94B59A
:10110000926094BD95B5916095BD282F30E0F901AE
:10111000ED56F74FE491F0E0EE0FFF1FE158F74F67
:1011200045915491F901E955F74FE491E09331026B
:101130001D826BCF109280001092810090918100EF
:1011400098609093810090918100916090938100CC
:10115000282F30E0F901ED56F74FE491F0E0EE0F63
:10116000FF1FE158F74F45915491F901E955F74FA9
:10117000E491E093300249CF1092B0001092B10098
:101180009091B00092609093B0009091B100916006
:101190009093B100282F30E0F901ED56F74FE4911C
:1011A000F0E0EE0FFF1FE158F74F45915491509337
:1011B0003B0240933A02F901E955F74FE491E0937D
:1011C0003C0223CF9FEFC916D104E104F10409F0DA
:1011D0000CF46DC068E478EE81E090E0A501980120
:1011E0000E94983269017A0181E0C81AD108E108A9
:1011F000F1089D81992309F4FAC08FEFC816D10434
:10120000E104F10411F00CF0FBC0EFC064E274EFF4
:1012100080E090E0A50194010E94983269017A0172
:1012200081E0C81AD108E108F10885E09FEFC916EE
:10123000D104E104F10409F008F442CF62E17AE755
:1012400080E090E0A50194010E94983269017A0142
:1012500081E0C81AD108E108F108E5C081E09D816C
:1012600091112ECF95B5987F892B85BD2FEF3FEF3C
:10127000A901411451046104710409F043C09D8126
:10128000913009F45EC0923009F46DC09111A1CE85
:10129000C7BC2093360230933702409338025093F4
:1012A000390280916E00826080936E0092CE82E05F
:1012B000D6CFB12CA12C60E072E18AE790E0A501C5
:1012C00098010E94983269017A0181E0C81AD10818
:1012D000E108F108C114D10491E0E906F10404F534
:1012E00091E08D81813011F680918100887F892B7A
:1012F000809381002FEF3FEFA90141145104610455
:101300007104F9F0D801AA0FBB1FA30192010E943A
:10131000B73228EE33E040E050E00E940133AFCF17
:1013200068E478EE81E090E0A50198010E9498328F
:1013300069017A0181E0C81AD108E108F10893E057
:10134000D0CFD0928900C09288002093320230938F
:101350003302409334025093350280916F008260D3
:1013600080936F0036CEC092B30020933D0230933D
:101370003E0240933F025093400280917000826091
:101380008093700026CE84E09FEFC916D104E1045B
:10139000F10409F008F466CFC980DA80EB80FC80A4
:1013A0008AE0F594E794D794C7948A95D1F781E0C1
:1013B000C81AD108E108F10885E054CF68E478EE56
:1013C00081E090E0A50198010E94983269017A01BC
:1013D00081E0C81AD108E108F1089FEFC916D104CD
:1013E000E104F10411F00CF011CF84E069CE83E048
:1013F0009FEFC916D104E104F10409F00CF432CFD7
:1014000062E17AE780E090E0A50194010E949832C1
:1014100069017A0181E0C81AD108E108F1089D81CB
:10142000992309F4B0CF86E09FEFC916D104E104F7
:10143000F10409F008F444CEC980DA80EB80FC8026
:101440009AE0F594E794D794C7949A95D1F781E000
:10145000C81AD108E108F10887E032CE82E030CE28
:10146000AF92BF92CF92DF92EF92FF920F931F93B2
:10147000CF93DF936C017B018B01040F151FEB01F0
:101480005E01AE18BF08C017D10759F06991D601A7
:10149000ED91FC910190F081E02DC6010995892B19
:1014A00079F7C501DF91CF911F910F91FF90EF90D8
:1014B000DF90CF90BF90AF900895FC01538D448D85
:1014C000252F30E0842F90E0821B930B541710F0EF
:1014D000CF96089501970895FC01918D828D9817FC
:1014E00061F0A28DAE0FBF2FB11D5D968C91928DD4
:1014F0009F5F9F73928F90E008958FEF9FEF089505
:10150000FC01918D828D981731F0828DE80FF11DCD
:10151000858D90E008958FEF9FEF0895FC01918DE8
:10152000228D892F90E0805C9F4F821B91098F73E1
:10153000992708958EE492E00E948E0A21E0892B7B
:1015400009F420E0822F089580E090E0892B29F0B3
:101550000E949A0A81110C9400000895FC01A48D48
:10156000A80FB92FB11DA35ABF4F2C91848D90E0C5
:1015700001968F739927848FA689B7892C93A089A8
:10158000B1898C91837080648C93938D848D981332
:1015900006C00288F389E02D80818F7D80830895C5
:1015A000EF92FF920F931F93CF93DF93EC0181E0B3
:1015B000888F9B8D8C8D98131AC0E889F98980815A
:1015C00085FF15C09FB7F894EE89FF896083E8898D
:1015D000F98980818370806480839FBF81E090E07F
:1015E000DF91CF911F910F91FF90EF900895F62E0C
:1015F0000B8D10E00F5F1F4F0F731127E02E8C8DA6
:101600008E110CC00FB607FCFACFE889F9898081EA
:1016100085FFF5CFCE010E94AE0AF1CFEB8DEC0F26
:10162000FD2FF11DE35AFF4FF0829FB7F8940B8F07
:10163000EA89FB8980818062CFCF0F931F93CF937C
:10164000DF938C01D0E0C0E0F801EC0FFD1F649146
:10165000662341F08EE492E00E94D00A892B11F0BB
:101660002196F2CFCE01DF91CF911F910F91089576
:10167000CF93DF93EC01888D8823B9F0AA89BB89C9
:10168000E889F9898C9185FD03C0808186FD0DC0B4
:101690000FB607FCF7CF8C9185FFF2CF808185FFD5
:1016A000EDCFCE010E94AE0AE9CFDF91CF91089530
:1016B000CF92DF92EF92FF921F93CF93DF93EC01D3
:1016C0006A017B018C810E94900611E0892B09F44C
:1016D00010E08B85181721F0CD8ADE8AEF8AF88E0C
:1016E0008D899E89AF89B88DB701A601481B590B1A
:1016F0006A0B7B0B898D90E0B0E0A0E08417950722
:10170000A607B70798F48C85181781F01C878A857F
:101710001817A9F0CA8EDB8EEC8EFD8EEAA1FBA114
:10172000309721F0B701A601898509951B87DF91C4
:10173000CF911F91FF90EF90DF90CF900895CE8EC4
:10174000DF8EE8A2F9A2ECA1FDA1309779F389859B
:101750000995ECCFFC011582138614861586168632
:101760001786108A118A128A138A148A158A168A91
:10177000138E8681882311F08481838308950F93CB
:101780001F93CF93DF93EC018E81811103C08D896C
:10179000882301F18C810D851E852F85388940179E
:1017A00051076207730780F009891A892B893C89E0
:1017B000041715072607370738F061E0DF91CF914E
:1017C0001F910F910C94B90660E00E94B9068D89B3
:1017D00081111D8ADF91CF911F910F910895CF93B1
:1017E000DF93EC0161E088810E94B90681E08C877B
:1017F0000E9472076D877E878F87988BDF91CF91CC
:101800000895CF92DF92EF92FF92CF93DF93EC0196
:101810006A017B0169857A858B859C850E94793177
:101820009B01AC0160E070E080E89FE30E949F3381
:1018300020E030E040E05FE30E94DA3120E030E079
:101840004AE754E40E94DA31C98EDA8EEB8EFC8EC0
:1018500020E030E040E05FE30E9433330E94183420
:10186000C60ED71EE81EF91ECD8EDE8EEF8EF8A2B4
:101870008BA191E089278BA3DF91CF91FF90EF900F
:10188000DF90CF900895CF92DF92EF92FF92CF93A7
:10189000DF93EC016A017B0189899A89AB89BC8954
:1018A000C816D906EA06FB06D8F18D899E89AF894C
:1018B000B88D8C159D05AE05BF0590F18AA18823D2
:1018C00079F189859A85AB85BC850197A105B1051C
:1018D00051F461E08C81DF91CF91FF90EF90DF9028
:1018E000CF900C94B9068D8D9E8DAF8DB8A1C81682
:1018F000D906EA06FB0618F0CE010E94010C8C8185
:101900009BA1992311F061E0E6CF60E00E94B90647
:101910001BA2DF91CF91FF90EF90DF90CF900895C1
:1019200060E08C810E94B9061BA28AA1882351F035
:101930008D899E89AF89B88D8C159D05AE05BF0533
:1019400008F41AA28CA1882321F38D899E89AF897E
:10195000B88D8C159D05AE05BF05D8F61CA2D9CF54
:10196000AF92BF92CF92DF92FF920F931F93CF93CC
:10197000DF93EC018E81811104C088A1882309F4D2
:1019800040C089899A89AB89BC89481759076A0779
:101990007B0708F450C00D891E892F89388D0417E4
:1019A00015072607370708F446C02A8D2223D1F1F0
:1019B0000C8D1D8D2E8D3F8D200F311F2115310572
:1019C00011F421E030E0FB8C5A016B01A81AB90A2E
:1019D000CA0ADB0AC601B50150E040E00E940133AB
:1019E00060177107C0F4F1100AC069857A8520E09C
:1019F00030E0A9018C810E94CA0781E08B8F81E0D1
:101A0000898FDF91CF911F910F91FF90DF90CF9041
:101A1000BF90AF900895FF2091F38C810E949E07A4
:101A20001B8EEDCF69857A8520E030E0A9018C819D
:101A30000E94CA07E4CF898D882319F38C810E9404
:101A40009E07198E1B8E88A18823D9F218A2D9CFA0
:101A50006F3FA9F0E62FE295EF7044E0E49F90011C
:101A60001124DC01ED91FC91E20FF31F6F70828174
:101A70009381B6E06B9F800D911D1124089590E035
:101A800080E00895982F80336CF08A3324F08F35EE
:101A900024F08B3724F481E0089581341CF081E038
:101AA0009B350CF080E00895FC01828581110AC00D
:101AB000A781B085CD010196908787838C9181871E
:101AC00081E08287818508951F93CF93DF93EC0196
:101AD000162F0E94540D811306C01A8681E0DF91F3
:101AE000CF911F91089580E0FACF0F931F93CF936A
:101AF000DF938C01EB018991882369F0C8010E9472
:101B0000540D882379F0FE013197908198130DC010
:101B1000F8011286F0CF90E080E0DF91CF911F9125
:101B20000F91089582E090E0F8CF83E090E0F5CF48
:101B3000CF93DF93EC01CE010E94540D8B304CF417
:101B400089305CF4882359F081E08E8390E080E056
:101B50000BC08D3011F08032B9F71A86ECCF8E8130
:101B6000811105C081E090E0DF91CF91089582E07E
:101B700090E0FACFDC0152969C915297915084E00C
:101B8000989F900111245096ED91FC91E20FF31F64
:101B9000228133812115310579F0418180814817F7
:101BA00058F481E0840F818386E0489F200D311D29
:101BB00011242115310521F460E070E08FEF0895C4
:101BC000B901892F8295807F840F0895DF92EF926B
:101BD000FF920F931F93CF93DF93EC017B01D12CE6
:101BE000688979898A89D816E0F484E0D89E8001D2
:101BF0001124060F171FD80112966D917C91611563
:101C0000710541F0D701ED91FC910280F381E02D47
:101C1000C7010995F8011382128210821182D394B0
:101C2000DFCF1A8A8FEF8C8BC617D70761F0D701E9
:101C3000ED91FC910280F381E02DC7010995D98BCC
:101C4000C88B84E08B8BDF91CF911F910F91FF9018
:101C5000EF90DF9008950F931F9300914102109130
:101C60004202209143023091440241E08091000100
:101C7000909101018C59954009F440E06091050173
:101C8000809102030E948C051F910F9108954F923D
:101C90005F926F927F928F929F92AF92BF92CF92FC
:101CA000DF92EF92FF920F931F93CF93DF9300D0B9
:101CB00000D01F92CDB7DEB7DC012C912B32E1F1C1
:101CC0002D32D9F50196EE24E394FC01208130ED0C
:101CD000320F3A3010F02E3291F58C0160E070E056
:101CE000CB01F801219130ED832E820E39E03815B9
:101CF00008F444C06A3949E97407840749E1940744
:101D000008F046C0AAE0B0E09B01AC010E94B732E7
:101D1000912CB12CA12C2401350140945094609455
:101D20007094461657066806790690F1680D791D7D
:101D30008A1D9B1D8F01D5CF0196E12CC6CF19823C
:101D400029813A814B815C816D8170E080E090E077
:101D50000F900F900F900F900F90DF91CF911F91E8
:101D60000F91FF90EF90DF90CF90BF90AF909F903A
:101D70008F907F906F905F904F900895211108C0D1
:101D8000EE2051F161307105810550E89507A0F012
:101D9000F12CBAE08B2E912CA12CB12C6115710580
:101DA00030E883079105F8F0A50194010E94013302
:101DB000CA01B901F394F2CF22E029839B01AC015F
:101DC00088279927DC01821B930BA40BB50B8A8310
:101DD0009B83AC83BD83B4CF23E029836A837B8359
:101DE0008C839D83ADCFF801D8012D918D0130ED0D
:101DF000320F3A3010F4F394F6CF2E3201F58F0102
:101E00000F5F1F4FF8010F5F1F4F2081A0EDDA2EEB
:101E1000D20EB9E0BD1598F06C3CECEC7E07ECE01E
:101E20008E07910578F7AAE0B0E09B01AC010E9413
:101E3000B7326D0D711D811D911DFA94E3CF208184
:101E40002F7D10E000E0253409F050C021812D32B3
:101E5000B1F53296CC24C394DF0110E000E02F2DC1
:101E60000F2C000C330BEAE0BE2EFD01DD9040ED9F
:101E70004D0D4A30B0F5B09EA001B19E500D112419
:101E80000D2DDD0C110B00531109040F151FA801B6
:101E9000420F531F4732510544F3CC20B9F080E084
:101EA00090E0A0E0B0E8E11003C080E090E0DC0149
:101EB00021E029838A839B83AC83BD8341CF2B326E
:101EC00019F03196C12CC8CF3296FCCF80E090E05B
:101ED000A0E8BFEFE110ECCF80E090E0A0E8BFE722
:101EE000E7CFCC2019F0119501951109208121111E
:101EF00026CF0F0D111DF7FC1A950E9479314CEB7E
:101F0000A42E40E0B42E101611063CF01195019558
:101F1000110954EAA52E50E0B52ED12CC12C011583
:101F20001105E9F0F6E0CF16D104A9F000FF0DC0CD
:101F3000F601EE0FFF1FEE0FFF1FEA0DFB1D2591AF
:101F40003591459154910E94DA31159507952FEFFF
:101F5000C21AD20AE4CF60E070E080EC9FE7E110A3
:101F6000905821E029836A837B838C839D83E8CE0C
:101F7000CF92DF92EF92FF920F931F93CF93DF9355
:101F80007C016B018A01FC01C081D1814F3F510569
:101F900009F0B0F4E881F9810480F581E02D4B5F10
:101FA0005F4FCE010995009759F0FC010383DF9143
:101FB000CF911F910F91FF90EF90DF90CF900895F8
:101FC000E881F9810280F381E02DB601CE01099507
:101FD00081E0F701828390E080E0E9CF1F93CF9307
:101FE000DF93EC01162F6A817B816115710589F001
:101FF0004C815D81FB0183818417150651F4440FE8
:10200000551F4F5F5F4F888199810E94B80F9B8356
:102010008A838A819B81009759F02C813D81A90197
:102020004F5F5F4F5D834C83820F931FFC011483CE
:10203000DF91CF911F9108959F92AF92BF92CF925F
:10204000DF92EF92FF920F931F93CF93DF9300D015
:1020500000D01F92CDB7DEB78C010E94540DD82E50
:10206000F8011286F12CE12C60EFC62EC8010E9407
:10207000540DF8011286D81609F4B3C0811113C0AB
:1020800082E090E00F900F900F900F900F90DF91F3
:10209000CF911F910F91FF90EF90DF90CF90BF9065
:1020A000AF909F9008958C3509F099C0C8010E94A7
:1020B000540D882329F3E3E9F1E0853709F083C063
:1020C000F801128654E0952EB12CA12CC8010E9473
:1020D000540D8823A9F2813434F48053803130F0D8
:1020E00083E090E0CFCF8F7D8753F8CF44E0AA0CF8
:1020F000BB1C4A95E1F7A82AF80112869A94911020
:10210000E5CFC501985D8115944020F47501F3E099
:10211000FF22ACCFC5019C5D81159440A8F483E0FB
:10212000B822B701762F6627770F770F6A297B29A8
:1021300090E080E00196603871058105910540F4DA
:10214000C8010E94EE0F92CFB50190E080E0F3CF7E
:102150001982262F2F7320682A8326E0969587956B
:10216000779567952A95D1F76032710580F4606C98
:102170006B835E01E4E0AE0EB11CF50162915F017C
:10218000662309F473CFC8010E94EE0FF6CF262F05
:102190002F7320682B8386E0769567958A95E1F703
:1021A0006031710538F4606E6C835E01F5E0AF0E4E
:1021B000B11CE3CF60686C83CD825E0126E0A20E85
:1021C000B11CDBCF32969081992309F489CF891312
:1021D000F9CF8181882309F483CFF8011286682F13
:1021E000AFCF82819381892B19F484E090E04ACFAC
:1021F00090E080E047CF6F927F928F929F92AF9254
:10220000BF92CF92DF92EF92FF920F931F93CF93E3
:10221000DF93EC012A813B812C5F3F4F4C815D8134
:102220004430510588F58901F90180E0942FB22FDF
:10223000AE2FA21BA91730F4F190A1E0F110A0E09D
:102240008A2BF6CF811120C082E0EB018C83FB0149
:10225000802F8B1B891728F4E80189918E018193C7
:10226000F7CF640F751FFB011082DF91CF911F9193
:102270000F91FF90EF90DF90CF90BF90AF909F9025
:102280008F907F906F9008958B01F901E40FF51FF7
:102290001082888199814C815D81DC011396ED91DA
:1022A000FC913A01E89477F86901C60CD71C309785
:1022B000C1F0A381A615170481F449017F01B4E0A0
:1022C000EB0EF11C8C149D0429F1D401AD904D014D
:1022D000D701BD907D01AB14A9F30190F081E02DF1
:1022E000E6CF6A817B810E94B80FFC01A881B98189
:1022F00013968D919C911497918380831496FC93EF
:10230000EE9313971B821A8285E0E8018C83F98390
:10231000E883ABCF82818F5F8283F6CFDB01ED91C3
:10232000FC9111970280F381E02DBC01CD0109944D
:10233000AF92BF92CF92DF92EF92FF920F931F93D3
:10234000CF93DF93EC018B018C8180FF24C0A881A7
:10235000B981FB018381948130E020E00097D9F0BE
:10236000A817B907D1F5F8016081718112968C9197
:102370001297815012968C93129781110CC08D91F7
:102380009C9111972115310529F1F90191838083E1
:10239000CD010E948E118C81807631F1209721F140
:1023A000F8805801F5E1AF0EB11C8FEFF816D1F0AF
:1023B0006F2DC5010E94280D6C01FC01E580B8015C
:1023C0000E949811F801818DF6018083F801F18E49
:1023D000FE2CEBCF94838383DBCF9C01FC018081B7
:1023E0009181BCCFF882F9821C82DF91CF911F913D
:1023F0000F91FF90EF90DF90CF90BF90AF90089536
:102400000F931F93CF93DF93EC01088119818B8188
:102410009C81009749F0FC01208131813C832B8312
:10242000B8010E948E11F3CF68817981CE010596A3
:10243000DF91CF911F910F910C94E60DFC0101905B
:102440000020E9F73197AF01481B590BBC018EE41E
:1024500092E00C94300A8F929F92AF92BF920F93AA
:102460001F93CF93DF93CDB7DEB7A1970FB6F89444
:10247000DEBF0FBECDBF19A2423008F44AE08E0184
:102480000F5D1F4F842E912CB12CA12CA50194011E
:102490000E940133E62FB901CA01EA30F4F4E05D8D
:1024A000D801EE938D01232B242B252B79F790E077
:1024B00080E0109719F0CD010E941E12A1960FB670
:1024C000F894DEBF0FBECDBFDF91CF911F910F916A
:1024D000BF90AF909F908F900895E95CE1CF4AE064
:1024E0000C942B12682F70E090E080E04AE00C948E
:1024F0002B12CF92DF92EF92FF92CF93DF936C017A
:10250000990FEE08FF08F7FE19C06DE28EE492E025
:102510000E94D00AEC0166277727CB016C197D0950
:102520008E099F094AE00E942B128C0F9D1FDF919C
:10253000CF91FF90EF90DF90CF9008954AE0C701D0
:10254000B601DF91CF91FF90EF90DF90CF900C9488
:102550002B12CF93DF930E941D0BEC0186EA91E0D2
:102560000E941E128C0F9D1FDF91CF9108950F9333
:102570001F93CF938C01C62FFC01638387EC95E0FA
:102580000E941D0BF8018081082E000C990B0E94FF
:1025900079128DEB95E00E941D0B8BEA95E0CC2320
:1025A00011F084EB95E00E941D0B8AEB95E0CF9132
:1025B0001F910F910C94A912EF92FF920F931F930A
:1025C000CF93DF937C018B01EA0181E995E00E94C2
:1025D0001D0BC7010E941D0B85E895E00E941D0B95
:1025E000C8010E941D0B89E795E00E941D0BCE01DA
:1025F0000E941D0B86E795E0DF91CF911F910F910F
:10260000FF90EF900C94A912CF93DF936DE78EE4C7
:1026100092E00E94D00AEC0186EA91E00E941E122C
:102620008C0F9D1FDF91CF9108954F925F926F9213
:102630007F928F929F92AF92BF92EF92FF920F93F1
:102640001F93CF93DF932A013B0148015901853045
:1026500009F480C008F061C0843009F46FC0E091D3
:10266000F302F091F4021481C5E1DAE042E3E42ED2
:102670004AE0F42E81E79AE00E941D0BC7010E94F8
:102680001D0B88E69AE00E941D0B812F110F990BFC
:102690000E9479128DE59AE00E941D0BCE010E94E6
:1026A0001D0B88E49AE00E941D0B8091A504909177
:1026B000A604A091A704B091A804A3019201281B2D
:1026C000390B4A0B5B0BCA01B9010E946F1286E3FA
:1026D0009AE00E941D0B8091A5049091A604A09100
:1026E000A704B091A804A5019401281B390B4A0B3B
:1026F0005B0BCA01B9010E946F12DF91CF911F914C
:102700000F91FF90EF90BF90AF909F908F907F9030
:102710006F905F904F900C940413863039F187309E
:1027200009F09DCFE091FB02F091FC021481C9EF0A
:10273000D9E08AE1E82E8AE0F82E9CCFE091F502FC
:10274000F091F6021481C0E1DAE03CE2E32E3AE0D7
:10275000F32E90CFE091F702F091F8021481C7E0D8
:10276000DAE027E2E22E2AE0F22E84CFE091F902AD
:10277000F091FA021481CEEFD9E090E2E92E9AE0CE
:10278000F92E78CFCF92DF92EF92FF920F931F93A3
:10279000CF93DF93EC018881813009F4D1C06A01C5
:1027A0007B01813090F08230D1F48FEF92E00E9473
:1027B000AA0B8DE193E0DF91CF911F910F91FF90D4
:1027C000EF90DF90CF900C94AA0B8981853009F4AB
:1027D0007DC070F48330F1F1843009F45AC0DF9188
:1027E000CF911F910F91FF90EF90DF90CF900895C0
:1027F000863009F488C0873091F7E091FB02F091B0
:10280000FC02309761F38681882349F381A181110D
:10281000E6CF8E819F81A885B985C18AD28AE38A55
:10282000F48A8C0D9D1DAE1DBF1D858B968BA78BCD
:10283000B08F81E082A3CF010E94010C0E811F8125
:10284000288539850C0D1D1D2E1D3F1DB701A601C4
:1028500087E01CC0E091F302F091F402309709F494
:10286000BECF8681882309F4BACF0E811F812885C7
:102870003985C18AD28AE38AF48A0C0D1D1D2E1D6A
:102880003F1D058B168B278B308F83E00E9415131D
:10289000A6CFE091F502F091F602309709F49FCFB0
:1028A0008681882309F49BCF0E811F812885398575
:1028B000C18AD28AE38AF48A0C0D1D1D2E1D3F1D8C
:1028C000058B168B278B308F84E0E0CFE091F702E9
:1028D000F091F802309709F482CF8681882309F4B9
:1028E0007ECF0E811F8128853985C586D686E786ED
:1028F000F08A0C0D1D1D2E1D3F1D018B128B238B8D
:10290000348B85E0C3CFE091F902F091FA02309761
:1029100009F465CF8681882309F461CF0E811F8178
:1029200028853985C586D686E786F08A0C0D1D1D5B
:102930002E1D3F1D018B128B238B348B86E0A6CF7F
:102940008981E091ED02F091EE02882339F0813027
:1029500009F045CFE091EF02F091F002309709F4D1
:102960003ECFCE80DF80E884F9844C0D5D1D6E1D66
:102970007F1D418B528B638B748B31CF2F923F9293
:102980004F925F926F927F928F929F92AF92BF927F
:10299000CF92DF92EF92FF920F931F93CF93DF932B
:1029A00000D000D0CDB7DEB72A013B010DE3809FF8
:1029B00090011124312C8901C90189589C4F9A83B7
:1029C00089838AE0282E49019EE4890E911CE981C1
:1029D000FA818081381608F08AC0A32CB12CC80176
:1029E000239C800D911D112483519D4FFC01E25BBE
:1029F000FF4F20812330B9F0805B9F4FFC01C080E6
:102A0000D180E280F380C114D104E104F10469F4BF
:102A1000B301A201C401329C800D911D1124835188
:102A20009D4F0E94C2133394D2CFC40CD51CE61C18
:102A3000F71CE3ECF3E030E020E08081811126C058
:102A4000FFE0F29FC001F39F900D1124DC01AB5415
:102A5000BC4F2A9CF0012B9CF00D1124E00FF11FBC
:102A6000E55CFC4F222D01900D922A95E1F78351F0
:102A70009D4FFC01EE52FF4FC082D182E282F38271
:102A80008A529F4F21E0FC012083CDCF2F5F3F4F23
:102A90003F962031310589F687E899E00E941D0BA9
:102AA0002A9CC0012B9C900D1124800F911F8351F3
:102AB0009D4F9C838B83FC01E25BFF4F80810E94D2
:102AC00072128CE799E00E941D0BEB81FC81E15BA7
:102AD000FF4F80810E9472128BE699E00E941D0BCD
:102AE000C701B6010E946F120E9404139CCF0F9081
:102AF0000F900F900F90DF91CF911F910F91FF904A
:102B0000EF90DF90CF90BF90AF909F908F907F908D
:102B10006F905F904F903F902F9008950F931F9369
:102B2000CF93DF938C01D62FC42F8BED96E00E94BC
:102B30001D0BC8010E941D0B80ED96E00E941D0B2D
:102B400086EB96E0DD2311F08CEB96E00E941D0BE6
:102B500081EC96E00E941D0B8BEA96E0CC2311F0ED
:102B600081EB96E00E941D0BDF91CF911F910F9199
:102B70000C9404130F931F93CF938C01C62F81E9FC
:102B800096E00E941D0BC8010E941D0B86E896E08E
:102B90000E941D0B8BE796E0CC2311F081E896E0B4
:102BA0000E941D0BCF911F910F910C940413CF9293
:102BB000DF92EF92FF920F931F93CF938C01C62F5A
:102BC00069017A0181E696E00E941D0BC8010E940E
:102BD0001D0B86E596E00E941D0B8EE396E0CC234C
:102BE00011F084E496E00E941D0B89E496E00E94B7
:102BF0001D0BC701B6010E946F12CF911F910F915B
:102C0000FF90EF90DF90CF900C9404137F928F92FF
:102C10009F92AF92BF92CF92DF92EF92FF920F936B
:102C20001F93CF93DF93EC01762E49015A01670180
:102C3000780184E296E00E941D0BCE010E941D0BDC
:102C400089E196E00E941D0B83EF95E0772011F05B
:102C500089EF95E00E941D0B8BE096E00E941D0B12
:102C6000C501B4010E946F128EEF95E00E941D0B0A
:102C7000C701B6010E946F12DF91CF911F910F9192
:102C8000FF90EF90DF90CF90BF90AF909F908F908C
:102C90007F900C940413EF92FF920F931F93CF93A6
:102CA0007C018B01C42F8CE595E00E941D0BC701B0
:102CB0000E941D0B80E595E00E941D0BC8010E943B
:102CC0001D0B85E495E00E941D0B8AE395E0CC2363
:102CD00011F080E495E00E941D0BCF911F910F91A0
:102CE000FF90EF900C940413CF92DF92EF92FF923B
:102CF0000F931F93CF93DF938C01EB0169017A014E
:102D000080E295E00E941D0BC8010E941D0B84E12A
:102D100095E00E941D0BCE010E941D0B89E095E0FD
:102D20000E941D0BC701B6010E946F12DF91CF9167
:102D30001F910F91FF90EF90DF90CF900C940413B0
:102D40000F931F93CF93DF93C091ED02D091EE02CA
:102D5000882321F0C091EF02D091F002209709F46E
:102D60005BC0613009F452C008F44DC0623009F410
:102D700050C08DE399E00E941D0B8C810E9472125D
:102D800082E299E00E941D0BC8010E941D0B8DE09C
:102D900099E00E941D0B6A8D7B8D8C8D9D8D00911D
:102DA000A5041091A6042091A7043091A804601BEB
:102DB000710B820B930B0E946F128BEF98E00E94B5
:102DC0001D0B6E8D7F8D88A199A10091A504109196
:102DD000A6042091A7043091A804601B710B820BFC
:102DE000930B0E946F128AEE98E00E941D0BCE0199
:102DF0000D960E941E1287EE98E0DF91CF911F91F1
:102E00000F910C94A91200EE18E0B3CF07ED18E073
:102E1000B0CF0FEC18E0ADCFDF91CF911F910F91A4
:102E200008959091AD04911104C09091AE0499233E
:102E300071F09091AF0491110AC06091B40488239D
:102E400021F0813021F46091B5040C94A01608950E
:102E5000CF93DF93EC016E838FEE94E00E941D0B05
:102E60008F819885009711F00E941E1286EE94E0E3
:102E70000E941D0B8C81082E000C990B0E94791268
:102E80008CED94E00E941D0B8E8181110AC08AECAA
:102E900094E00E941D0B89ED94E0DF91CF910C949A
:102EA000A91283ED94E0F5CF60E080910A01909142
:102EB0000B010E94281760E080910C0190910D0198
:102EC0000E94281760E080910E0190910F010E94EE
:102ED000281760E080911001909111010E9428173D
:102EE00060E080911201909113010E94281760E028
:102EF00080911401909115010E94281760E0809143
:102F00001601909117010E94281780911801909145
:102F10001901009719F060E00E94281760E0809185
:102F20001A0190911B010C94B7129F92AF92BF921D
:102F3000CF92DF92EF92FF920F931F93CF93DF9385
:102F40008A01452B09F468C0E9016B016596FC0113
:102F50006081CE010E94280DFC01BB24BA94892B0C
:102F600009F0B5807601E894F7F8AA24A3946701E4
:102F7000C00ED11E99249394309709F44DC0AA2015
:102F800009F43FC08481843069F0853049F1823092
:102F900079F5DF010D900020E9F71197CD018E1B27
:102FA0009F0B07C00190F081E02D90E080E030970A
:102FB00081F79F77E816F90621F5D801AC15BD0514
:102FC000E1F46B2DCE01DF91CF911F910F91FF9016
:102FD000EF90DF90CF90BF90AF909F900C94280D12
:102FE000A081B181FD01349613968C9190E0E2CFDF
:102FF00090E080E0F0E0E0E0DDCF9D9181919817D6
:10300000E9F2A9246B2DCE010E94280DFC01892B29
:1030100009F4B2CFB580B0CF90E080E0DF91CF91DE
:103020001F910F91FF90EF90DF90CF90BF90AF90E6
:103030009F900895FC0120813181C9014A96428107
:10304000538164817581009759F0D9015E96EC91A6
:10305000E03211F090E080E0009711F00C949517A9
:1030600090E080E00895CF92DF92EF92FF92CF93AD
:10307000DF9300D000D01F92CDB7DEB70E941A18A0
:10308000DC01009709F445C01496EC911497E250C6
:10309000ED3008F03EC0F0E0E05BF74E0C944C34AD
:1030A0007918891877188B185D1889188918891864
:1030B0006B1889186B1889188F18CC908C2D0F906D
:1030C0000F900F900F900F90DF91CF91FF90EF90A6
:1030D000DF90CF900895CD90DD90ED90FC908FEF34
:1030E000C816D104E104F10449F340F312C08D91F4
:1030F0009C910E94470E3A834B835C836D83CA8008
:10310000DB80EC80FD80223051F3233041F321300D
:1031100051F0C12CD3CF8D919C910496EACFCD90E4
:10312000DD90ED90FC9020E030E0A901C701B601F0
:103130000E94473487FDEDCF20E030E04FE753E4B5
:10314000C701B6010E94743118161CF3C701B601FD
:103150000E941834C62EB2CFCF92DF92EF92FF9228
:10316000CF93DF9300D000D01F92CDB7DEB70E947F
:103170001A18DC01009709F44AC01496EC911497D0
:10318000E250ED3008F043C0F0E0E753F74E0C9406
:103190004C34F7180719F5180B19D6180719071921
:1031A0000719E6180719EB1807190F196C9170E049
:1031B00090E080E00F900F900F900F900F90DF91B4
:1031C000CF91FF90EF90DF90CF9008956D917D911A
:1031D0008D919C91EFCF8D919D910D90BC91A02DE3
:1031E000B7FD15C0BC01CD01E5CF8D919C910E942A
:1031F000470E3A834B835C836D83CA80DB80EC800F
:10320000FD80223041F1233041F1213061F060E056
:1032100070E0CB01CFCF8D919C910496E8CFCD90FB
:10322000DD90ED90FC9020E030E0A901C701B601EF
:103230000E94473487FDEBCF2FEF3FEF4FE75FE46E
:10324000C701B6010E94743118160CF3C701B6010C
:103250000E941834AFCFF7FCDACFC701B601AACF6E
:103260008F929F92AF92BF92EF92FF920F931F9314
:10327000CF93DF9300D000D000D0CDB7DEB7790177
:103280008A01FB0101900020E9F73197E61BF70B5B
:103290009A8389837C836B83ED838F2F8F778E83D3
:1032A000CE0101960E941A18009789F1FC01248131
:1032B0002A3041F02C3059F580819181A281B3816F
:1032C000B7FD25C0CE0101960E94AC184B015C01F0
:1032D00081149104A104B104D1F0B701C80186168C
:1032E0009706A806B90610F4C501B40126960FB6D4
:1032F000F894DEBF0FBECDBFDF91CF911F910F912C
:10330000FF90EF90BF90AF909F908F90089561E0F5
:1033100070E080E090E0EACF4F925F926F927F92F0
:10332000AF92BF92CF92DF92EF92FF920F931F93D3
:10333000CF93DF939091AD04911105C09091AE04AD
:10334000992309F4E4C09091AF049111E0C0823058
:1033500008F0DDC081110AC0E091ED02F091EE02AB
:10336000309759F481E08093B404D1C0E091EF022A
:10337000F091F002309709F483C09089992309F401
:103380007CC001891289238934890417150726070F
:10339000370708F47EC0882309F4C8C082E0809310
:1033A000B504B5C08F898F5F8F8B9D89891708F40D
:1033B000A9C08FA5843658F40E941C31A301920144
:1033C0000E9498328FA5681710F01F8A9BC01F8A31
:1033D000888D882351F09D899501281B310992170A
:1033E000130609F05CF4890F8D8B8B89823008F00D
:1033F00089C0B701A6010E94BE1484C087ED90E089
:103400000E941D0B8D890E94721284ED90E00E9433
:10341000A912EBCFCD8EDE8EEF8EF8A273C08DA5F4
:10342000811170C089A19AA1ABA1BCA1A70196018D
:10343000281B390B4A0B5B0BDA01C901B7FD62C0CF
:103440008DA19EA1AFA1B8A58C199D09AE09BF0998
:10345000181619061A061B060CF054C08FA58436E0
:1034600010F00DA7C2CF0E941C31A30192010E944F
:1034700098328FA56817A8F345C0882309F472CF46
:1034800081E08DCF1092B404E091ED02F091EE0254
:1034900008C08823B9F31092B504E091EF02F091CF
:1034A000F002309781F00091A9041091AA042091B4
:1034B000AB043091AC04040F151F261F371F018B7E
:1034C000128B238B348B6A017B01182FCDEED2E057
:1034D000AA24AA94B12C94E6492E512C612C712C6B
:1034E00001E08C89882371F08EA5893011F01813C2
:1034F00009C08A89813009F48DCF08F453CF823016
:1035000009F48DCF6E9633E0C932D30751F7DF91BE
:10351000CF911F910F91FF90EF90DF90CF90BF90D0
:10352000AF907F906F905F904F90089582E01BCF97
:10353000BF92CF92DF92EF92FF920F931F93CF93A0
:10354000DF93EC01198D1F3F81F0612F45960E949A
:10355000280DFC018081898F309709F477C014828F
:103560008FEF8583BF01812F76C06C0135E0C30EDC
:10357000D11CE880F9808F89882341F0C6010E9420
:10358000BA0DE62FF72F182F309749F71F89988D1E
:10359000191324C0103109F459C0110F6D897E89A7
:1035A000D701ED91FC91B4E01B9FA0011124C61638
:1035B000D70609F044C00190F081E02DBA01C7019F
:1035C0000995009709F442C020E1F601DC01019061
:1035D0000D922A95E1F79E8B8D8B188F0D891E8990
:1035E0008F8921E0280F2F8BE4E08E9FC0011124EA
:1035F000080F191F90E1B92E203111F48FE0B82E79
:10360000F6E0BF9EB0011124D701ED91FC9101902D
:10361000F081E02DC7010995F80193838283892BFE
:1036200009F4B12CD801BC9211961C92012B71F0B7
:10363000C6010E94BA0DE62FF72F182F8DCF0480F8
:10364000F581E02DC7010995009729F681E08A836D
:1036500060E070E08FEFDF91CF911F910F91FF90AD
:10366000EF90DF90CF90BF9008954F925F926F924E
:103670007F928F929F92AF92BF92CF92DF92EF9202
:10368000FF920F931F93CF93DF9300D000D01F9230
:10369000CDB7DEB78C017B01B42E0E94980D6C0172
:1036A000892B09F048C0C8010E94540D863609F4E0
:1036B000A9C124F5873229F08B3561F1823209F0F6
:1036C000A8C1D80115961C921E92149712968D913E
:1036D0009C911397892B39F48D919C910E947105CF
:1036E000F80193838283C8010E941C106C01892B0E
:1036F00011F5B701C8010E94FB101DC0843709F401
:1037000060C18B3709F47BC08E3609F082C161EC51
:1037100071E060C180E4D70114968C931497E11492
:10372000F10421F08FEF8C9311968C93B1101AC095
:1037300025E0C22ED12CC6010F900F900F900F9054
:103740000F90DF91CF911F910F91FF90EF90DF903D
:10375000CF90BF90AF909F908F907F906F905F9031
:103760004F900895F8011286C8010E94980D0097A5
:1037700051F56DE5C8010E94640D8111DCCFBA944A
:10378000D8011B966D907C90C3010E94981AA82EB8
:103790004B01672B21F494E0C92ED12CCCCFF7013B
:1037A00061816F3F91F0C30145960E94280DDC01B5
:1037B0001596AC92F701A1824B2DB401C8010E946D
:1037C000351B009739F06C01B6CFD7018C93119659
:1037D0008C93F2CFC8010E94980D0097A1F76DE578
:1037E000C8010E94640D8111A6CF6CE2C8010E943D
:1037F000640D8111C5CF83E0C82ED12C9CCF80E20F
:10380000F7018483E114F10419F08FEF8083818341
:10381000BB2009F48DCFD8011A961C92C8010E94D2
:10382000980D009781F66DE7C8010E94640D811123
:1038300082CFBA94F8011582148282819381892BF8
:1038400049F4808191810E947105D80113969C935F
:103850008E931297C8010E94540D8732F9F082327C
:10386000E9F0C8010E94540DD82E0E94420D882311
:1038700011F2F80112866D2DC8010E94EE0FC801E9
:103880000E94540DD82E0E94420D8111F2CFD80112
:1038900012968D919C91892B41F47DCFC8010E9495
:1038A0001C106C01892B09F046CFC8010E94980DAD
:1038B0006C01892B09F03FCF6AE3C8010E94640DB7
:1038C000882309F498CFD8011296ED91FC911397B3
:1038D00014968D919C911597E80FF91F14821496F8
:1038E0006D917C9115977F771B966D907C901C97BE
:1038F00012968D919C910496272F2F77BA2DB07830
:10390000AB2EA22AE894A7F89301AC017A2DC70147
:103910000E9495176C01009761F5C3010E94981AE7
:10392000482E4B01672B09F436CFC3010E94981A29
:10393000582E962FC92ED72EC114D10409F42BCF9F
:10394000F4015582D70111966C916F3F71F0C3015C
:1039500045960E94280DFC014582D70111965C9284
:10396000B401C8010E94FB1007C0F70140825182D8
:10397000F7CFB3010E9498114B2DB601C8010E94E8
:10398000351B6C01892B09F0D6CEC8010E94980D19
:103990006C01892B09F0CFCE6DE7C8010E94640D40
:1039A0008111C9CE6CE2C8010E94640D882309F41C
:1039B00022CFC8010E94980D6C01892B09F43ACFDF
:1039C000BACE86E0D70114968C93149781E08C933D
:1039D00066EB71E0C8010F900F900F900F900F9061
:1039E000DF91CF911F910F91FF90EF90DF90CF90DB
:1039F000BF90AF909F908F907F906F905F904F900F
:103A00000C94750D86E0F701848310826BEB71E0F6
:103A1000E1CFC8010E94540D4801FDE08F0E911CBA
:103A2000B12C782CA92C803384F08A3384F43FE3C2
:103A3000B316A9F0D8011A961C92B394F40181939D
:103A40004F01C8010E94540DEECF8B3281F393EDEC
:103A5000980F923060F3982F9F7D953441F30B0DB2
:103A6000111DD8011D961C92872D9A2D0E94470E7C
:103A70003A834B835C836D838A819B81AC81BD815A
:103A80002230A9F0233059F0213009F0B4CE2EE0D5
:103A9000F701248380839183A283B3834CCE2AE0F1
:103AA000F701248380839183A283B38344CE2CE0E7
:103AB000F7CF4F925F926F927F92AF92BF92CF9269
:103AC000DF92EF92FF920F931F93CF93DF93CDB7C7
:103AD000DEB7C25FD1090FB6F894DEBF0FBECDBF0F
:103AE0005E012EECA20EB11C82E091E0F501918303
:103AF0008083128214821382C5010596968B858B72
:103B0000178A84E0808F8FEF818F168E878F9E01BA
:103B10002F5F3F4F790110E000E00E947207609331
:103B200056027093570280935802909359028EE484
:103B300092E00E946C0A97FD02C00C945A280E94E1
:103B40007207409056025090570260905802709051
:103B500059026419750986099709409052025090DC
:103B600053026090540270905502641575058605E5
:103B70009705E8F20F37110561F48EE492E00E9498
:103B80008E0A892B31F08EE492E00E946C0A0A972B
:103B9000A1F7E1E0F0E0EC0FFD1FE00FF11F108254
:103BA0000530110578F045E050E066EC71E0CE019B
:103BB00001960E943436892B29F486EF96E00E9404
:103BC000A912C0C3F50160817181C50105960E94EB
:103BD000E60DF501128200811181F5018381948146
:103BE000009751F0FC0120813181F501348323835A
:103BF000B8010E948E11F1CF168ECF57DF4FB982D8
:103C0000A882C158D040CD57DF4F19821882C358BF
:103C1000D040CB57DF4F19821882C558D040C957C2
:103C2000DF4F1882C758D04021E030E02C0F3D1FF5
:103C3000C857DF4F39832883C858D040C557DF4F56
:103C40001882CB58D040C457DF4FB982A882CC58D5
:103C5000D0404AE0B501665E7F4FCE018F579F4F3F
:103C60000E94351B8C01892B69F4C657DF4F888170
:103C7000CA58D040882331F0F501868D83FF02C0F9
:103C800003E010E0CD57DF4F88819981C358D040C1
:103C9000009751F0CF57DF4FE881F981C158D040EC
:103CA000608171810E948E1101151105F1F082EB86
:103CB00094E00E941D0BF801EE0FFF1FE758FC4F28
:103CC000859194910E941D0B8FEA94E00E94A912A5
:103CD0008EE492E00E948E0A181619060CF032C388
:103CE0008EE492E00E946C0AF3CFCF57DF4FB98287
:103CF000A882C158D0408CEC91E0CD57DF4F99831A
:103D00008883C358D04083E0CB57DF4F8883C558A2
:103D1000D040CA57DF4F1881C658D040107810687D
:103D2000CA57DF4F1883C658D040CE018F579F4FD8
:103D30000E941A18009709F405C3FC0184818823A6
:103D400009F400C31068CA57DF4F1883C658D04023
:103D5000CE018F579F4F0E941A18DC01009709F47B
:103D6000DAC01496EC911497E250ED3008F0D3C00D
:103D7000F0E0E354F14E0C944C34901F8B1F8E1FD7
:103D8000BA1F8B1F8B1F8B1F8B1FCA1E8B1F7B1F86
:103D90008B1FBE1F8D919D910D90BC91A02D811503
:103DA000F0E89F07A105B10508F0B5C0BC016D3969
:103DB00091E0790709F4E0C30CF06BC16437F1E0DE
:103DC0007F0709F4D8C20CF01FC1663331E07307D6
:103DD00009F43EC30CF003C16D3251E0750709F4DC
:103DE00061C26F3281E0780709F40EC36C3291E052
:103DF000790709F45FC2693EF3E07F0709F4D4C58F
:103E00000CF00FC56836710511F40C94AD270CF059
:103E1000A2C46536710509F4EFC60CF071C46436AE
:103E2000710509F078C00E9472076B017C01C09295
:103E30002802D0922902E0922A02F0922B0286EB0D
:103E400094E00E94EF0B1092AD041092AF04E3ECEB
:103E5000F3E010823F9634E0E33BF307D1F7E091C3
:103E6000F302F091F402309719F084810E949E07CA
:103E7000E091F502F091F602309719F084810E94EA
:103E80009E07E091F702F091F802309721F060E090
:103E900084810E94B906E091F902F091FA0230970C
:103EA00021F060E084810E94B906E091FB02F0916C
:103EB000FC02309729F015A260E084810E94B906C7
:103EC0008CE191E00E941D0B80912C0290912D02BB
:103ED000A0912E02B0912F02A7019601281B390B49
:103EE0004A0B5B0BCA01B9010E946F120E940413B6
:103EF0000E94541727C28D919D910D90BC91A02DC9
:103F00008C019D0110582F4F3F4F01151105214085
:103F1000310508F44BCF85E893E051CE8D919C910B
:103F20000E94470EC251DF4F2883CE5ED040C15160
:103F3000DF4F3883CF5ED040C051DF4F4883C05F32
:103F4000D040CF50DF4F5883C15FD040CE50DF4FBD
:103F50006883C25FD040C151DF4FC880D980EA80FA
:103F6000FB80CF5ED040223039F1233089F12130FF
:103F700091F608C08D919C910496D2CFCD90DD90A2
:103F8000ED90FC9020E030E040E057ECC701B60136
:103F90000E94473487FDBFCF20E03EEF4FEF56E44D
:103FA000C701B6010E94743118160CF4B4CFC701D2
:103FB000B6010E941134FBCED701C6019058AF4F15
:103FC000BF4F0097A140B10508F0A5CFB601EFCED5
:103FD000C11480E8D806E104F104C0F39CCF693332
:103FE000E1E07E0709F468C26337F1E07F0709F476
:103FF00063C1673321E0720709F0FDCE61E0809173
:1040000010019091110153C1603931E0730709F437
:1040100075C2F4F46D3751E0750709F41BC26E37B1
:1040200081E0780709F430C2653791E0790709F03B
:10403000E2CE6F39F2E07F0709F4DAC0603A22E09D
:10404000720709F416C3683D714009F07BC157C07F
:104050006339E1E07E0709F453C25CF4613921E081
:10406000720709F0C8CE61E08091120190911301AE
:104070001EC16A3931E0730709F464C26B3941E04B
:10408000740709F0B8CE61E0809114019091150198
:104090000EC16B3552E0750709F4A4C20CF072C072
:1040A000643F91E0790709F489C20CF056C0693D7C
:1040B000F1E07F0709F4BDCF623E21E0720709F409
:1040C00043C2683D31E0730709F095CE20EC37E23A
:1040D00049E050E06AED71E0C5010E9430199B0192
:1040E000AC01E0911201F0911301218732874387DF
:1040F000548764E173E08DE193E00E947416CF571A
:10410000DF4FB982A882C158D0408AED91E0CD57E7
:10411000DF4F99838883C358D04088E0CB57DF4F67
:104120008883C558D040CA57DF4F8881C658D040D1
:1041300080788068CA57DF4F8883C658D040CE0148
:104140008F579F4F0E94AC186093250170932601F2
:10415000809327019093280154C1683542E0740789
:1041600009F437C2693552E0750709F429C2653F81
:1041700081E0780709F03FCE61E0809116019091CF
:10418000170195C0693A92E0790709F4A0C20CF0D2
:1041900057C0603AF2E07F0709F450C2613A22E06A
:1041A000720709F446CF6F3932E0730709F023CE66
:1041B0002FEF3FEF40E050E060ED71E0C5010E945D
:1041C00030199B01AC01E0911801F0911901309771
:1041D00079F0211531054105510521F021873287FC
:1041E0004387548763EC72E08DEC92E00E94741672
:1041F000CF57DF4FB982A882C158D04080ED91E0FF
:10420000CD57DF4F99838883C358D04089E0CB577F
:10421000DF4F8883C558D040CA57DF4F8881C658C2
:10422000D04080788068CA57DF4F8883C658D04016
:10423000CE018F579F4F0E9433188093200182C078
:10424000643843E0740709F459C2ACF46A3A82E076
:10425000780709F0D0CDE0911801F091190130975D
:1042600009F470C081E081A347E852E063E972E09D
:1042700088E992E0EAC0653893E0790709F436C22C
:104280006738E3E07E0709F0B6CD80911A0190917E
:104290001B010E94EF0B41E752E067E772E08CE7F9
:1042A00092E0D3C061E080910E0190910F010E94D5
:1042B000281748C060E0F7CF2FEF3FEF40E050E015
:1042C00060ED71E0C5010E9430199B01AC01E091E5
:1042D0000E01F0910F0121873287438754876BE6E7
:1042E00073E085E793E00E947416CF57DF4FB982E1
:1042F000A882C158D04080ED91E0CD57DF4F99831F
:104300008883C358D04089E0CB57DF4F8883C55896
:10431000D040CA57DF4F8881C658D0408078806827
:10432000CA57DF4F8883C658D040CE018F579F4F62
:104330000E94AC186093290170932A0180932B018D
:1043400090932C01C5010E940012CE50DF4F0FB692
:10435000F894DEBF0FBECDBFDF91CF911F910F91BB
:10436000FF90EF90DF90CF90BF90AF907F906F90D5
:104370005F904F90089520EC37E249E050E06AEDFD
:1043800071E0C5010E9430199B01AC01E0910E0162
:10439000F0910F01258736874787508B6EE573E0D4
:1043A00087E693E00E947416CF57DF4FB982A88248
:1043B000C158D0408AED91E0CD57DF4F9983888373
:1043C000C358D04088E0CB57DF4F8883C558D040D2
:1043D000CA57DF4F8881C658D04080788068CA5756
:1043E000DF4F8883C658D040CE018F579F4F0E9421
:1043F000AC1860932D0170932E0180932F01909340
:1044000030010E942B0E9ECF00910E0110910F01E2
:104410000E947207F801618B728B838B948BC58429
:10442000D684E784F088DC01CB018C0D9D1DAE1D88
:10443000BF1D858B968BA78BB08F81E080A34FE447
:1044400053E065E573E08AE593E00E94DC127ACFE1
:1044500060E0D5CD2FEF3FEF40E050E060ED71E040
:10446000C5010E9430199B01AC01E0911001F0914F
:104470001101218732874387548760E473E08AE41F
:1044800093E00E9474165ECF20EC37E249E050E0E2
:104490006AED71E0C5010E9430199B01AC01E09109
:1044A0001001F0911101258736874787508B62E311
:1044B00073E08BE393E0E5CF0091100110911101BF
:1044C0000E947207F801618B728B838B948BC58479
:1044D000D684E784F088DC01CB018C0D9D1DAE1DD8
:1044E000BF1D858B968BA78BB08F81E080A342E2A6
:1044F00053E068E273E08DE293E0A7CF60E0B4CDD3
:1045000000911201109113010E947207F801658752
:1045100076878787908BC184D284E384F484DC011E
:10452000CB018C0D9D1DAE1DBF1D818B928BA38B6E
:10453000B48B81E0858B44E053E06AE073E08FE068
:1045400093E083CF60E0A0CD20EC37E249E050E07B
:104550006AED71E0C5010E9430199B01AC01E09148
:104560001401F0911501218732874387548765EF45
:1045700072E08EEF92E085CF009114011091150149
:104580000E947207F801658776878787908BC184C0
:10459000D284E384F484DC01CB018C0D9D1DAE1D1F
:1045A000BF1D818B928BA38BB48B81E0858B44EEF6
:1045B00052E06AEE72E08FEE92E047CF60E0DDCD30
:1045C000809118019091190161E0009709F06FCE78
:1045D000B9CE809118019091190160E0009709F01F
:1045E00066CEB0CE00911801109119010115110588
:1045F00009F4A8CE0E947207AB01BC01F801418BFF
:10460000528B638B748B85859685A785B089840FC3
:10461000951FA61FB71F858B968BA78BB08FFF2486
:10462000F394F2A2C8010E94010CF801F4A243ED38
:1046300052E069ED72E08EED92E007CF20EC37E2B8
:1046400049E050E06AED71E0C5010E9430199B011C
:10465000AC01E0911801F0911901309751F02587D4
:1046600036874787508B64EB72E08DEB92E00E94B7
:104670007416CF57DF4FB982A882C158D0408AED57
:1046800091E0CD57DF4F99838883C358D04088E0AD
:10469000CB57DF4F8883C558D040CA57DF4F88813A
:1046A000C658D04080788068CA57DF4F8883C65884
:1046B000D040CE018F579F4F0E94AC1860932101CC
:1046C0007093220180932301909324019ACEE0916C
:1046D0001801F0911901309709F434CE11A24EE976
:1046E00052E069EA72E08EEA92E0AFCE61E080913A
:1046F0001A0190911B010E94B71224CE60E0F7CFFF
:104700006636710509F420C46736710509F003CCDB
:104710000E947207AB01BC018091AD04811114C0ED
:10472000E3ECF3E083EB94E010823F968E179F0753
:10473000D9F74093A5045093A6046093A7047093FF
:10474000A80480E00E94BE1445EC53E06BEC73E0DB
:1047500086ED93E07ACE6D3C710509F4E3C10CF06F
:1047600056C0693C710509F0D6CBCF57DF4FB982EF
:10477000A882C158D0408BEEE82E81E0F82ECD57AC
:10478000DF4FF982E882C358D04015E0CB57DF4FA6
:104790001883C558D040CA57DF4F8881C658D040CB
:1047A00080788068CA57DF4F8883C658D040CE01D2
:1047B0008F579F4F0E9433180E944F06CF57DF4FED
:1047C000B982A882C158D040CD57DF4FF982E88224
:1047D000C358D040CB57DF4F1883C558D040CA5775
:1047E000DF4F8881C658D04080788068CA57DF4F35
:1047F0008883C658D040CE018F579F4F0E94AC1877
:104800009B01AC016EE074E084E194E03ACE6C3D33
:10481000710509F4B9C1683E734009F07CCB60E0D2
:10482000C4C0643145E0740709F420C10CF05CC0D9
:10483000633384E0780709F4BBC0E4F56233744065
:1048400009F069CBCF57DF4FB982A882C158D04059
:1048500083EE91E0CD57DF4F99838883C358D040D2
:1048600087E0CB57DF4F8883C558D040CA57DF4F0A
:104870008881C658D04080788068CA57DF4F8883C7
:10488000C658D040CE018F579F4F0E94AC186B0185
:104890007C01C0920601D0920701E0920801F092DB
:1048A00009010E942206A70196016EE974E086EADA
:1048B00094E0E7CD6833F4E07F0709F4CBC06933B7
:1048C000744009F028CB81E08093AC058CE995E039
:1048D000909301018093000141E06BE774E086E86A
:1048E00094E00E944B162ECD6F3535E0730709F426
:1048F000BFC00CF041C0653155E0750709F4B2C086
:104900006E35754009F007CBCF57DF4FB982A882CB
:10491000C158D04083EE91E0CD57DF4F9983888313
:10492000C358D04087E0CB57DF4F8883C558D0406D
:10493000CA57DF4F8881C658D04080788068CA57F0
:10494000DF4F8883C658D040CE018F579F4F0E94BB
:10495000AC186B017C01C0920601D0920701E09275
:104960000801F09209010E942206A701960166E55E
:1049700074E08EE594E085CD643695E0790709F41E
:10498000C9C06536754009F0C6CA81E080938605C6
:1049900086E795E0909301018093000141E063E395
:1049A00074E08EE394E09DCF61E08CE995E07FCCEC
:1049B000CF57DF4FB982A882C158D0402BEEE22EEC
:1049C00021E0F22ECD57DF4FF982E882C358D04064
:1049D00015E0CB57DF4F1883C558D040CA57DF4F7B
:1049E0008881C658D04080788068CA57DF4F888356
:1049F000C658D040CE018F579F4F0E9433180E9457
:104A00004F06CF57DF4FB982A882C158D040CD574B
:104A1000DF4FF982E882C358D040CB57DF4F18836D
:104A2000C558D040CA57DF4F8881C658D0408078DB
:104A30008068CA57DF4F8883C658D040CE018F5751
:104A40009F4F0E94AC189B01AC016FE874E085E9B0
:104A500094E017CD1092AC0540E067E674E082E781
:104A600094E03FCF61E086E795E021CC60E0FBCFAA
:104A7000CF57DF4FB982A882C158D0409BEEE92EB4
:104A800091E0F92ECD57DF4FF982E882C358D0402C
:104A900015E0CB57DF4F1883C558D040CA57DF4FBA
:104AA0008881C658D04080788068CA57DF4F888395
:104AB000C658D040CE018F579F4F0E9433180E9496
:104AC0004F06CF57DF4FB982A882C158D040CD578B
:104AD000DF4FF982E882C358D040CB57DF4F1883AD
:104AE000C558D040CA57DF4F8881C658D04080781B
:104AF0008068CA57DF4F8883C658D040CE018F5791
:104B00009F4F0E94AC189B01AC0167E474E08DE4F8
:104B100094E0B7CC1092860540E06FE174E08AE241
:104B200094E0DFCECF57DF4FB982A882C158D04082
:104B300081EF91E0CD57DF4F99838883C358D040F0
:104B400084E0CB57DF4F8883C558D040CA57DF4F2A
:104B50008881C658D04080788068CA57DF4F8883E4
:104B6000C658D040CE018F579F4F0E943318809374
:104B7000050180930503282F30E050E040E06BEF03
:104B800073E083E094E07DCCCF57DF4FB982A882F9
:104B9000C158D04086EF91E0CD57DF4F998388838D
:104BA000C358D04088E0CB57DF4F8883C558D040EA
:104BB000CA57DF4F8881C658D04080788068CA576E
:104BC000DF4F8883C658D040CE018F579F4F0E9439
:104BD000AC186B017C01C0924102D0924202E0927B
:104BE0004302F09244020E942B0EA701960161EE4F
:104BF00073E080EF93E045CC0E9472076B017C016B
:104C0000C0922C02D0922D02E0922E02F0922F023E
:104C100086EB94E00E94EF0B1092AE041092AF046A
:104C2000C092A504D092A604E092A704F092A80432
:104C300081E08093AD048FEF92E00E94AA0B8DE19A
:104C400093E00E94AA0B0DEE12E0F80184898823FC
:104C500041F08289813009F048C1C58ED68EE78E39
:104C6000F0A2025E1F4FF3E009321F0771F7E3EC79
:104C7000F3E083EB94E010823F968E179F07D9F7FD
:104C8000E091ED02F091EE02309721F0118A128A44
:104C9000138A148AE091EF02F091F002309721F02C
:104CA000118A128A138A148AE091FB02F091FC02A5
:104CB0003097A9F0118A128A138A148A158A168AE3
:104CC000178A108E118E128E138E148E158E168EDC
:104CD000178E10A212A213A214A281E085A38DE266
:104CE00092E00E94A9128EED91E00E941D0B60914E
:104CF00006017091070180910801909109010E94BD
:104D00006F128CEC91E00E941D0B8091000190913C
:104D100001018C59954009F014C18FE591E00E9482
:104D20001D0B88EB91E00E941D0B60914102709178
:104D3000420280914302909144020E946F120E94AD
:104D40000413E0902D01F0902E0100912F0110919D
:104D500030012091290130912A0140912B0150917D
:104D60002C0160915B0584EB91E00E940616E090B7
:104D70004105F090420500914305109144052091B2
:104D80003D0530913E0540913F05509140056091B1
:104D90003A058FEA91E00E94061620912501309194
:104DA00026014091270150912801609124058AEA4B
:104DB00091E00E94D7152091110530911205409184
:104DC00013055091140560910E0584EA91E00E944C
:104DD000D715E0902101F09022010091230110915C
:104DE00024012091200130E050E040E06091CD04AA
:104DF0008EE991E00E9406166091F30489E991E042
:104E00000E94BA156091B9048EE891E00E94BA152B
:104E10004091AC056091A20585E891E00E948E1555
:104E20004091860560917C058CE791E00E948E158B
:104E300082E691E00E941D0B809105010E94721292
:104E40000E94041380912C0290912D02A0912E02B9
:104E5000B0912F02E0910A01F0910B0180839183C0
:104E6000A283B383E0910C01F0910D0180839183C3
:104E7000A283B383E0910E01F0910F0180839183AF
:104E8000A283B383E0911001F0911101808391839B
:104E9000A283B383E0911201F09113018083918387
:104EA000A283B383E0911401F09115018083918373
:104EB000A283B383E0911601F0911701808391835F
:104EC000A283B383E0911801F0911901309721F08A
:104ED00080839183A283B383E0911A01F0911B0137
:104EE00080879187A287B3872DCA823009F0B9CE17
:104EF00041A452A463A474A460E070E0CB01141434
:104F000015041604170434F40E941C31A301920105
:104F10000E9498326C0D7D1D8E1D9F1DF80161A3AE
:104F200072A383A394A381A592A5A3A5B4A58C0D78
:104F30009D1DAE1DBF1D85A396A3A7A3B0A715A653
:104F400090CE8CE591E0EBCE8091AD0481110C9474
:104F5000DD1D0E9454170C94DD1DCF57DF4FB98221
:104F6000A882C158D0408FEF91E0CD57DF4F998391
:104F70008883C358D04086E0CB57DF4F8883C5581D
:104F8000D040CA57DF4F8881C658D04080788068AB
:104F9000CA57DF4F8883C658D040CE018F579F4FE6
:104FA0000E941A18009709F43FC0FC0124812630A2
:104FB000D9F510810E9472072091AD04211177C0AC
:104FC0001093AE041123B9F16093A5047093A60465
:104FD0008093A7049093A804E3ECF3E083EB94E0C0
:104FE00010823F968E179F07D9F78FEF92E00E94AD
:104FF000AA0B8DE193E00E94AA0BE091ED02F091E3
:10500000EE02309799F4E091EF02F091F0023097C0
:1050100021F0118A128A138A148A4091AE0460EB3F
:1050200073E08AEB93E05DCC10E0C4CF118A128A62
:10503000138A148AE8CFE3ECF3E083EB94E0108268
:105040003F968E179F07D9F7E091F302F091F40293
:10505000309719F084810E949E07E091F502F0914B
:10506000F602309719F084810E949E07E091F702C2
:10507000F091F802309721F060E084810E94B90637
:10508000E091F902F091FA02309721F060E084811A
:105090000E94B906E091FB02F091FC02309721F0EA
:1050A00060E084810E94B9060E942B0EB6CF1111D8
:1050B000B4CFFACF8A30910511F40C94BA1DF701E0
:1050C00081937F010F5F1F4F0F37110511F00C9473
:1050D0008D1D0C94BA1DCB01BA010C947735CB0110
:1050E0000C94EE34CB010C9452341F920F920FB6F5
:1050F0000F9211242F933F938F939F93AF93BF935E
:105100008091460290914702A0914802B0914902D5
:105110003091450223E0230F2D3758F50196A11D4C
:10512000B11D209345028093460290934702A093BD
:105130004802B093490280914A0290914B02A0919B
:105140004C02B0914D020196A11DB11D80934A02FF
:1051500090934B02A0934C02B0934D02BF91AF913C
:105160009F918F913F912F910F900FBE0F901F90A5
:10517000189526E8230F0296A11DB11DD2CF1F92CC
:105180000F920FB60F9211242F933F934F935F937B
:105190006F937F938F939F93AF93BF93EF93FF93FF
:1051A000E0911E01F0911F010995FF91EF91BF91D0
:1051B000AF919F918F917F916F915F914F913F91AF
:1051C0002F910F900FBE0F901F9018951F920F9266
:1051D0000FB60F9211242F933F934F935F936F93CA
:1051E0007F938F939F93AF93BF93EF93FF93E09140
:1051F0001C01F0911D010995FF91EF91BF91AF91B5
:105200009F918F917F916F915F914F913F912F91DE
:105210000F900FBE0F901F9018951F920F920FB610
:105220000F9211242F933F934F935F936F937F932C
:105230008F939F93AF93BF93EF93FF9380913D0222
:1052400090913E02A0913F02B0914002892B8A2B9F
:105250008B2BD1F190913C02E0913A02F0913B020C
:1052600080818927808380913D0290913E02A091A8
:105270003F02B0914002181619061A061B069CF44C
:1052800080913D0290913E02A0913F02B091400278
:105290000197A109B10980933D0290933E02A0932A
:1052A0003F02B0934002FF91EF91BF91AF919F9168
:1052B0008F917F916F915F914F913F912F910F90BF
:1052C0000FBE0F901F901895809104010E949E07B9
:1052D000EACF1F920F920FB60F9211242F933F9394
:1052E0004F935F936F937F938F939F93AF93BF93EE
:1052F000EF93FF938EE492E00E94AE0AFF91EF914C
:10530000BF91AF919F918F917F916F915F914F91DD
:105310003F912F910F900FBE0F901F9018951F92E5
:105320000F920FB60F9211242F938F939F93EF93A9
:10533000FF93E0915E02F0915F028081E091640250
:10534000F091650282FD1BC09081809167028F5FA2
:105350008F7320916802821741F0E0916702F0E0BC
:10536000E25BFD4F958F80936702FF91EF919F91D4
:105370008F912F910F900FBE0F901F9018958081E5
:10538000F4CFEF92FF920F931F93CF93DF93EC0133
:10539000162F7A01022F6C8382E08D8389EA91E0D7
:1053A00098878F831E82188219821A821B8262E07C
:1053B000812F0E94E706098742E050E0B701CE0145
:1053C0000D960E944A361F86812F0E94900621E08A
:1053D000892B09F420E02A87812F0E94900621E082
:1053E000892B09F420E02B87812F0E94900621E071
:1053F000892B09F420E02C87188A198A1A8A1B8ABB
:105400001C8A1D8A1E8A1F8A188E84E1898F1A8E33
:105410001B8E1C8E1D8E1E8E1F8E18A219A21BA203
:105420001AA21DA21CA2DF91CF911F910F91FF9094
:10543000EF9008953F924F925F926F927F928F927A
:105440009F92AF92BF92CF92DF92EF92FF920F9313
:105450001F93CF93DF93109251021092500288EE67
:1054600093E0A0E0B0E08093520290935302A093A7
:105470005402B093550285E891E090934F028093D7
:105480004E0285EC90E090935B0280935A0284EC8C
:1054900090E090935D0280935C0280EC90E09093AA
:1054A0005F0280935E0281EC90E0909361028093B2
:1054B000600282EC90E0909363028093620286EC3B
:1054C00090E09093650280936402109267021092BC
:1054D00068021092690210926A0220E046E052E0EF
:1054E0006AE08CE995E00E94C12921E049E052E0A0
:1054F0006CE086E795E00E94C129C0902D01D09014
:105500002E01E0902F01F0903001809029019090C1
:105510002A01A0902B01B0902C0183E080935905C3
:105520003324339430925A050CE012E010935D0559
:1055300000935C0510925B0510925505109256057C
:10554000109257051092580561E00E94E70660E04E
:1055500083E00E94B90680925E0590925F05A0925A
:105560006005B0926105C0926205D0926305E09239
:105570006405F092650544244A94542C320140920B
:1055800066055092670560926805709269051092F1
:105590006A0510926B0510926C0510926D051092C1
:1055A0006E0510926F0510927005C8ECD0E0D09394
:1055B0007205C0937105D0937405C0937305109262
:1055C000750587E0809338053092390510933C05C6
:1055D00000933B0510923A05109234051092350560
:1055E000109236051092370561E00E94E70660E0F0
:1055F00087E00E94B90680923D0590923E05A092F8
:105600003F05B0924005C0924105D0924205E0921C
:105610004305F0924405409245055092460560923C
:105620004705709248051092490510924A0510925C
:105630004B0510924C0510924D0510924E0510929C
:105640004F05D0935105C0935005D0935305C09397
:10565000520510925405C0902501D0902601E0908B
:105660002701F090280184E08093220530922305E1
:10567000C0E1D2E0D0932605C09325051092240501
:1056800010921E0510921F05109220051092210500
:1056900061E00E94E70660E084E00E94B906C092E3
:1056A0002705D0922805E0922905F0922A0510924C
:1056B0002B0510922C0510922D0510922E0510929C
:1056C0002F0510923005109231051092320510927C
:1056D000330588E080930C0530920D05D0931005BA
:1056E000C0930F0510920E0510920805109209053F
:1056F00010920A0510920B0561E00E94E70660E037
:1057000088E00E94B906C0921105D0921205E0927D
:105710001305F092140510921505109216051092BB
:105720001705109218051092190510921A0510927B
:105730001B0510921C0510921D0585E08093F10455
:1057400082E08093F20485E192E09093F5048093E7
:10575000F4041092F3041092ED041092EE041092EF
:10576000EF041092F00462E085E00E94E70685E015
:105770000E94900621E0892B09F420E02093F60492
:1057800085E00E94900621E0892B09F420E0209317
:10579000F70485E00E94900621E0892B09F420E0BF
:1057A0002093F8041092F9041092FA041092FB046A
:1057B0001092FC0484E18093FD041092FE04109288
:1057C000FF0410920005109201051092020510923C
:1057D000030510920405109205051092070510921A
:1057E00006058090210190902201A0902301B090A5
:1057F0002401C0902001D12CF12CE12C86E0809373
:10580000CB0481E08093CC0482E292E09093CF04B9
:105810008093CE041092CD041092C7041092C80455
:105820001092C9041092CA0461E086E00E94E70663
:1058300060E086E00E94B906C092D004D092D10404
:10584000E092D204F092D3048092D4049092D504D2
:10585000A092D604B092D7041092D8041092D90422
:105860001092DA041092DB041092DC041092DD0432
:105870001092DE041092DF041092E0041092E10412
:105880001092E2041092E3041092E4041092E504F2
:105890001092E6041092E7041092E8041092E904D2
:1058A0001092EA041092EB041092EC0489E08093C9
:1058B000B60482E08093B70461E089E00E94E706C5
:1058C00062E08091B7040E94E7068091B7048230BD
:1058D00009F4A9C0833061F48EE797E090931F012B
:1058E00080931E01809169008C6080936900E99A21
:1058F0001092B8041092B9041092BA041092BB042A
:105900001092BC041092BD041092BE041092BF0409
:105910001092C0041092C1041092C2041092C304E9
:105920001092C4041092C5041092C60486EB94E051
:105930009093EC028093EB028CE3EBE3F1E0AFEFAA
:10594000B2E001900D928A95E1F71092EE0210926A
:10595000ED021092F0021092EF021092F2021092F9
:10596000F1021092F4021092F3021092F6021092D9
:10597000F5021092F8021092F7021092FA021092B9
:10598000F9021092FC021092FB021092FE02109299
:10599000FD021092A5041092A6041092A704109282
:1059A000A80480E29EE4A0E0B0E08093A904909374
:1059B000AA04A093AB04B093AC041092AD0410926F
:1059C000AE041092AF041092B0041092B104109281
:1059D000B2041092B30481E08093B4048093B504C0
:1059E0001092010310921F03109277031092B403D8
:1059F000E3ECF3E083EB94E010823F968E179F0771
:105A0000D9F7DF91CF911F910F91FF90EF90DF9029
:105A1000CF90BF90AF909F908F907F906F905F904E
:105A20004F903F9008958EE797E090931D018093EB
:105A30001C0180916900836080936900E89A58CFC7
:105A4000789484B5826084BD84B5816084BD85B559
:105A5000826085BD85B5816085BD80916E00816065
:105A600080936E001092810080918100826080930B
:105A7000810080918100816080938100809180000D
:105A80008160809380008091B10084608093B10038
:105A90008091B00081608093B00080917A00846032
:105AA00080937A0080917A00826080937A0080915E
:105AB0007A00816080937A0080917A008068809378
:105AC0007A001092C1000E943D07E0915E02F091C1
:105AD0005F0282E08083E0915A02F0915B021082C3
